:020000040000FA
:10000000080220206D010000710100007301000052
:1000100000000000000000000000000000000000E0
:10002000000000000000000000000000750100005A
:1000300000000000000000007701000079010000CE
:100040007B0100007B0100007B0100007B010000C0
:100050007B0100007B0100007B0100007B010000B0
:10006000000000007B0100007B0100000000000098
:10007000000000007B0100007B010000B5050000CE
:10008000910500007B0100007B0100007B01000066
:100090007B0100007B010000000000000000000068
:1000A0007B0100007B010000000000000000000058
:1000B0007B010000000000007B0100007B010000CC
:1000C00000F002F800F042F80CA030C808382418FC
:1000D0002D18671EA246AB4654465D46AC4201D180
:1000E00000F034F87E460F3EB6460FCC0126334270
:1000F00000D0FB1A3343A246AB4618476405000004
:100100008405000000000000103A02D378C878C1CE
:10011000FAD8520701D330C830C101D504680C6049
:100120007047000000000000002300240025002686
:10013000103A01D378C1FBD8520700D330C100D5A3
:100140000B6070471FB51FBD10B510BD00F027F83C
:100150001146FFF7F7FF00F05BFA00F03FF803B439
:10016000FFF7F2FF03BC00F051FA00000648004719
:10017000FEE7FEE7FEE7FEE7FEE7FEE70348044989
:10018000024A044B70470000C10000000801202013
:1001900008022020080120207047704770477546EC
:1001A00000F024F8AE46050069465346C008C0007A
:1001B000854618B020B5FFF7E1FF60BCB6460026C3
:1001C0000027C0C5C0C5C0C5C0C5C0C5C0C5C0C565
:1001D000C0C5403D490849008D46704710B50446EA
:1001E000C046C0462046FFF7BAFF10BD0048704722
:1001F00018002020811E091F00BFFCD2704700009C
:10020000B0B5364A80184A6842600A78222A57D820
:10021000930001A4E3589F46B7020000C10200000A
:10022000B7020000C1020000C1020000C1020000CC
:10023000C1020000C1020000C1020000C1020000B2
:10024000C1020000C1020000C1020000C1020000A2
:10025000C1020000C1020000A5020000C1020000AE
:10026000A5020000C1020000C1020000C10200009E
:10027000C1020000C1020000C1020000C102000072
:10028000C1020000C1020000C1020000C102000062
:10029000C1020000C1020000A5020000C10200006E
:1002A000A502000003231B0704689C4301235B078E
:1002B000E318036004E003231B0704689C43046005
:1002C0000B69C360CB68064C1C40C36A054D1D40DA
:1002D0002B19C362097A11430160B0BD04180000F4
:1002E000777702008888FDFF10B50122120383187A
:1002F0000C789C604B7883508978014A815010BDFE
:100300000C110000B0B51122120283580124A3433E
:1003100083508B780C881C438B882343094C1C40EA
:100320008358094D1D402B1983508B79CC791C4380
:10033000097A21437E231940801842689A43511854
:100340004160B0BD18670000E798FDFF10B50122BD
:10035000120383180C789C604978815010BD00000E
:10036000934800687047C04610B5FFF7F9FF1E4973
:100370000A68821A0A2A32D308602721CA011B4957
:100380000B689A580B7A032B29D84C682240C04638
:100390007B441B795B009F4401071118002A1ED182
:1003A00008610120087210BD0B69C31A142B16D303
:1003B000002A0CD1C8600220087210BD002A09D0A2
:1003C0000020087200F014F810BD002A07D00020A9
:1003D000087210BDCA68801A8008AF2800D210BD0C
:1003E0000320087210BDC0467800202000002020A5
:1003F0000148042101607047B0320A40064882215A
:1004000081630649C1638121016205490160054894
:1004100004210160016370471C8042408200040097
:1004200081000C00A0320A400C480021016003202A
:10043000C1430B480246083A13680B401360016839
:10044000012291430160110203688B430360110391
:10045000001F02680A4302607047C04608030B4051
:1004600008010B4003480421016003494160002159
:100470008160704710E000E0FF7C000010B50B4C7D
:100480000B492046FFF730FF0A492046FFF7B8FE28
:100490000948016801221143016008480168FF23EF
:1004A000994301600648026010BDC0460040084004
:1004B000380600003C0600002850084010E400E028
:1004C0000851084010B5154C15492046FFF73EFF6E
:1004D00014492046FFF716FF0320C10312480268A3
:1004E0008A4302600169114A0A40911C0161416915
:1004F0000B220A4334218A434261416801221140A0
:1005000043689343591841609102094B1C680C439E
:100510001C6001681143016010BDC046008010409E
:100520005006000052060000009110400000FFFF3E
:100530002890104080B500F00BF8FFF75FFFFFF741
:1005400073FFFFF79BFFFFF7BDFFFFF78BFF80BD3A
:1005500010B5094809494160094A5160094B596081
:10056000094C616009490160116019602160102027
:10057000FFF740FE10BDC04600080A40030000B16E
:1005800000280A400048084000881040010000266A
:1005900080B506480068C0B2012805D1FFF7E4FE27
:1005A00003480168491C016080BDC04620500840D6
:1005B000000120200B480068C0B20B2810D10A4867
:1005C00000680A490A887E2A05D80A88531C0B80CD
:1005D0000749885401E00020088006480121017085
:1005E0007047C0462090104024911040FE0020200B
:1005F0007C002020FC00202080B5FFF79BFF01201D
:10060000C0030A4908600A49086080BD70470000BD
:10061000FFF7F2FF01200104044A1160044A11604F
:1006200004490A6802430A60FEE7C04680E200E02F
:1006300000E100E004580840080700000200000044
:100640009F0F0000000000000000000000000000FC
:10065000040000001800000000300000000000004E
:1006600080060000000020201800000008010000A3
:100670009806000018002020F0010000280100006A
:1006800000000A400400000000000000000000001C
:08069000000000000000000062
:04000005000000C136
:00000001FF
