:020000040800F2
:1000000018210020E11E0008E7010008E9010008AE
:10001000EB010008ED010008EF01000800000000FE
:10002000000000000000000000000000F1010008D6
:10003000F301000800000000F5010008DF230008BC
:10004000FB1E0008FB1E0008FB1E0008FB1E00082C
:10005000FB1E0008FB1E0008FB1E0008FB1E00081C
:10006000FB1E0008FB1E0008FB1E0008FB1E00080C
:10007000FB1E0008FB1E0008FB1E0008FB1E0008FC
:10008000FB1E0008FB1E0008FB1E0008FB1E0008EC
:10009000FB1E0008FB1E0008FB1E0008FB1E0008DC
:1000A000FB1E0008FB1E0008FB1E0008FB1E0008CC
:1000B000B326000823270008FB1E0008FB1E0008CB
:1000C000FB1E0008FB1E0008FB1E0008FB1E0008AC
:1000D000FB1E00086D2B00080D2C0008CB2C00081F
:1000E000FB1E0008FB1E0008FB1E0008FB1E00088C
:1000F000FB1E0008FB1E0008FB1E0008FB1E00087C
:10010000FB1E0008FB1E0008FB1E0008FB1E00086B
:10011000FB1E0008FB1E0008FB1E0008FB1E00085B
:10012000FB1E0008FB1E0008FB1E0008FB1E00084B
:1001300000F002F800F048F80AA090E8000C8244B1
:100140008344AAF10107DA4501D100F03DF8AFF28E
:10015000090EBAE80F0013F0010F18BFFB1A43F0A5
:1001600001031847187D0000387D0000103A24BFB5
:1001700078C878C1FAD8520724BF30C830C144BF0C
:1001800004680C607047000000230024002500264E
:10019000103A28BF78C1FBD8520728BF30C148BFEA
:1001A0000B607047642904F0BD85002070471FB5BF
:1001B00005F024FB04000020002106F0B9F9401CE2
:1001C00060601FBD10B510BD05F0E0FA1146FFF7E5
:1001D000EEFF04F0CDFC05F007FB03B4FFF7F2FFE0
:1001E00003BC05F04FFB7047FEE7FEE7FEE7FEE7C6
:1001F00070477047704700000CB500214B480191D3
:100200000091026842F4803202604FF4A0630268F9
:1002100002F400320092019A521C0192009A12B923
:10022000019A9A42F3D10268920333D501210091D9
:100230003F490A6842F010020A600A6822F003028D
:100240000A600A6842F002020A604168416041683F
:100250004160416841F480614160416821F47C1152
:100260004160416841F4E8114160016841F08071EA
:10027000016001688901FCD5416821F003014160FA
:10028000416841F0020141604168C1F381010229E6
:10029000FAD10CBD00910CBD244810B5016841F0A5
:1002A000010101604168234A114041600168224A0E
:1002B00011400160016821F480210160416821F44E
:1002C000FE0141604FF41F018160FFF795FF1B495C
:1002D0004FF00060086010BD144910B54868184A16
:1002E00010F00C03174803D0042B01D0082B0AD0C0
:1002F00002604968134AC1F30311121D515C026880
:10030000CA40026010BD4A684B6802F470124FF098
:10031000020413F4803F04EB924202D04B689B032B
:1003200001D5094B00E0064B5A43E1E700100240BB
:10033000002002400000FFF8FFFFF6FE08ED00E09D
:1003400000127A000000002000093D00914910B51C
:10035000884206D10121042000F04BFA002104203C
:100360003BE08D49884206D10121082000F041FA86
:100370000021082031E08949884206D1012110205E
:1003800000F037FA0021102027E08549884206D185
:100390000121202000F02DFA002120201DE08149BC
:1003A000884206D10121402000F023FA002140209C
:1003B00013E07D49884206D10121802000F019FA1E
:1003C0000021802009E0794988420AD18415012161
:1003D000204600F00EFA00212046BDE8104000F053
:1003E00008BA10BD10B50121084600F002FA00213C
:1003F000BDE81040012000F0FCB9F0B5CA78002536
:1004000002F00F03D20601D58A7813430A784FF021
:100410000F0E12F0FF0F4FF001021DD0D0F8004078
:100420000F8802FA05F63740B74211D14FEA850C22
:100430000EFA0CF724EA070703FA0CF43C43CF78D2
:10044000282F02D0482F02D002E0466100E006616A
:100450006D1C082DE4D304600C88FF2C1ED9446861
:100460005FF0000606F1080702FA07F50F882F4033
:10047000AF420FD14FEA860C0EFA0CF7BC4303FAD9
:100480000CF73C43CF78282F00D14561CF78482F17
:1004900000D10561761C082EE4D34460F0BD4FF610
:1004A000FF710180022181700421C17070470246F2
:1004B000002092680A4200D001207047806880B214
:1004C000704702460020D2680A4200D001207047DF
:1004D000C06880B2704701617047416170470AB1DE
:1004E0000161704741617047C160704741F48032DB
:1004F0008261816182618169806970472C4B10B58E
:100500001A684FF68074224042EA001008431860CF
:1005100010BD2849C8617047F0B5254C002801DAA4
:10052000E36900E06368420D120185B2C0F3015730
:100530009540C0F30346032F05D0C2020AD503221B
:10054000B240934307E023F07062636823F0706366
:10055000636002E0AB4343F0706201B12A430028BC
:1005600001DAE261F0BD6260F0BD10B58A0721F0EA
:1005700003040F49130F21440F228C689A409443BF
:100580008C608A68984002438A6010BD0949C1F8AE
:10059000DC00704700080140000C014000100140E1
:1005A0000014014000180140001C014000200140DF
:1005B0000000014000002042A448016841F0010110
:1005C00001604168A24A114041600168A14A11409E
:1005D0000160016821F480210160416821F4FE017D
:1005E00041604FF41F018160704798490A6822F406
:1005F00080320A600A6822F480220A60B0F5803FE7
:1006000007D0B0F5802F03D1086840F4A02008601F
:100610007047086840F48030F9E70246002053092B
:100620008A49012B0AD0022B0AD0496A02F01F0224
:10063000012393400B4200D0012070470968F5E781
:10064000096AF3E718B500204FF4A0640090312048
:10065000FFF7E3FF0099491C0091A14201D0002857
:10066000F5D03120FFF7D9FF002800D0012018BDB8
:1006700076490A6822F0F80242EAC0000860704732
:10068000754908607047714A5368084323F47C1326
:100690001843506070477049086670476B4A51684C
:1006A00021F003010143516070476848406800F041
:1006B0000C007047654A516821F0F0010143516018
:1006C0007047624A516821F4E0610143516070470C
:1006D0005E494A6822F4605242EAC00048607047AE
:1006E0005A4A0029517A01D0014300E081435172F6
:1006F00070475949C1F8D8007047544A516821F4ED
:1007000040410143516070475049002281F8202048
:1007100081F82020012802D0042802D1052081F888
:10072000200070474D490860704748490A6A0243F3
:100730000A627047494944390860704730B54349F7
:100740004A6812F00C03464A03D0042B01D0082B50
:1007500021D002604A680F23424C03EA1212A35CC4
:100760000268DA4042604B68072505EA1323E35C20
:1007700022FA03F383604B6805EAD323E35CDA4093
:10078000C2604968032303EA9131231F595CB2FB1D
:10079000F1F1016130BD4A684B6802F470124FF00C
:1007A000020413F4803F04EB924202D04B689B0397
:1007B00001D52D4B00E02A4B5A43CAE7234A0029B2
:1007C000516901D0014300E08143516170471F4AE4
:1007D0000029916901D0014300E081439161704794
:1007E0001A4A0029D16901D0014300E08143D16157
:1007F0007047164A0029D16801D0014300E08143C7
:10080000D1607047114A0029116901D0014300E00D
:1008100081431161704711494039086070470E49A2
:10082000C86470470949C87170470848416A41F077
:10083000807141627047054A0146002092680A4271
:1008400000D00120704701498872704700100240B3
:100850000000FFF8FFFFF6FE000042428004424223
:1008600000127A001800002000093D0028490843C2
:1008700028490860704770B50F23C47801780122B9
:10088000F4B1244C2468457804F4E064C4F5E064D1
:10089000240AC4F10406E3408478B5401C402C438C
:1008A00001F1E021230181F80034007800F01F01FC
:1008B0008A404009800000F1E020C0F8002170BDAE
:1008C00001F01F0082404809800000F1E020C0F8DC
:1008D000802170BD104A114001430E48001F016085
:1008E00070470C4A121D0029116801D0014300E035
:1008F0008143116070474FF0E0210428086903D05C
:1009000020F004000861704740F00400FAE700009E
:100910000000FA050CED00E080FFFF1FC44910B590
:1009200088420AD101218C032046FFF762FF20464E
:10093000BDE810400021FFF75CBFBE49884202D1EC
:1009400001214C0410E0BC49884202D101218C04F1
:100950000AE0BA49884202D10121CC0404E0B84936
:1009600088420AD101210C052046FFF74BFF2046A3
:10097000BDE810400021FFF745BF10BD30B504466B
:10098000008A85B00D464CF6FF710840E9880143A6
:100990002182A1894EF6F3100140A8882A891043CC
:1009A0006A890A431043A081A08A4FF6FF4108409C
:1009B000A9890143A1826846FFF7C0FE9C48844292
:1009C00001D1039800E00298A189090400EBC0015D
:1009D00001EB0010296801D5490000E08900B0FB57
:1009E000F1F06422B0FBF2F109010B096FF0180578
:1009F0006B4300EB8300A3891D044FF0320306D53F
:100A000003EBC000B0FBF2F000F0070005E003EBE1
:100A10000010B0FBF2F000F00F000843208105B099
:100A200030BD4FF41651016000218180C1800181E9
:100A30000C2242818181704710B5038A4FF2FF0278
:100A400013400A884C8822438C88C9880C4322436F
:100A50001A43028210BD0021018041808180C18043
:100A600070470029818902D041F4005101E021F44E
:100A700000518181704710B5C1F3421301F01F048A
:100A80000121A140012B07D0022B07D01430002AEE
:100A9000026805D00A4304E00C30F8E71030F6E7AE
:100AA0008A43026010BD002A828A01D00A4300E016
:100AB0008A4382827047028A22F00F020282028AEF
:100AC0000A4302827047828922F40062828182890D
:100AD0000A43828170470029818902D041F00201D6
:100AE00001E021F0020181817047028A22F0200298
:100AF0000282028A0A43028270470029018A02D0D8
:100B000041F4804101E021F4804101827047C1F34A
:100B10000801818070478088C0F308007047818990
:100B200041F0010181817047028BD2B20283028BB6
:100B300042EA012101837047028B02F47F42028363
:100B4000028B0A43028370470029818A02D041F058
:100B5000200101E021F02001818270470029818A73
:100B600002D041F0100101E021F0100181827047B4
:100B70000029818A02D041F0080101E021F008013A
:100B8000818270470029818902D041F4004101E04F
:100B9000C1F30E01818170470029818A02D041F49E
:100BA000006101E021F4006181827047828A22F0B5
:100BB00004028282828A0A43828270470029818AE3
:100BC00002D041F0020101E021F002018182704770
:100BD0000246002012880A4200D001207047C94313
:100BE0000180704730B501F01F0201240025C1F3D8
:100BF000421304FA02F2012B0FD0022B0FD0838A8A
:100C00004FEA11210088134204FA01F400EA0400BB
:100C100001D000B10125284630BD8389F0E7038A61
:100C2000EEE70A0A01219140C943018070470000A4
:100C3000003801400044004000480040004C0040A3
:100C400000500040F94910B5884202D10121C41476
:100C500086E0B0F1804F09D0F54988420DD10121DD
:100C60000220FFF7CFFD0021022064E001210846A9
:100C7000FFF7C8FD002101205DE0EE49884206D162
:100C800001210420FFF7BEFD0021042053E0EA49C2
:100C9000884206D101210820FFF7B4FD0021082079
:100CA00049E0E649884206D101211020FFF7AAFD5C
:100CB000002110203FE0E249884206D10121202096
:100CC000FFF7A0FD0021202035E0DE49884202D157
:100CD0000121441444E0DC49884202D10121CC04C2
:100CE0003EE0DA49884202D101210C0538E0D849BA
:100CF000884202D101214C0532E0D649884206D112
:100D000001214020FFF77EFD0021402013E0D24961
:100D1000884206D101218020FFF774FD0021802048
:100D200009E0CE4988420AD1841501212046FFF707
:100D300069FD00212046BDE81040FFF763BDC849AA
:100D4000884202D101210C040AE0C649884202D13E
:100D500001214C0404E0C44988420AD101218C04D9
:100D60002046FFF746FD2046BDE810400021FFF772
:100D700040BD10BD30B50288AC4BB24C98420DD08E
:100D8000A0420BD0B0F1804F08D0A94DA84205D0A9
:100D9000A84DA84202D0A84DA84203D122F0700568
:100DA0004A882A43A54DA84206D0A54DA84203D0A3
:100DB00022F44075CA882A4302808A8882850A887C
:100DC000028598420AD0A04208D0A54A904205D098
:100DD000A44A904202D0A44A904201D1097A0186E5
:100DE0000121818230BD30B5028C22F001020284E3
:100DF000028C8388048B22F0020224F073050C8895
:100E00002C430D8915434A882A43884DA8420BD0AC
:100E10008C4DA84208D0924DA84205D0914DA842D1
:100E200002D0914DA8420DD122F008054A8923F441
:100E300040732A4322F004058A882A438D891D4382
:100E4000CB892B4383800483C9888186028430BD8B
:100E500070B5028C22F010020284028C8488038B0D
:100E60000D8823F4E6464FF6FF7303EA0525354364
:100E70000E8922F0200203EA061616434A8803EA86
:100E800002123243694EB04202D06E4EB04215D1CA
:100E900022F080064A8924F4406403EA02123243B5
:100EA00022F040068A8803EA021232438E8903EA5E
:100EB00086062643CC8903EA840434438480058370
:100EC000C9880187028470BD70B5028C22F48072DB
:100ED0000284028C8488838B0D8823F073031D4366
:100EE00022F400730E894FF6FF7202EA06261E43B3
:100EF0004B8802EA032333434C4EB04202D0514E9A
:100F0000B04215D123F400664B8924F4405402EA20
:100F10000323334323F480668B8802EA032333439D
:100F20008E8902EA06162643CC8902EA0414344369
:100F300084808583C9888187038470BD70B5028CE5
:100F400022F480520284048C8288838B0D8823F4DF
:100F5000E6464FF6FF7303EA0525354324F40056B1
:100F60000C8903EA043434434E8803EA06362643E8
:100F70002E4CA04202D0334CA04205D122F4804432
:100F80008A8903EA8212224382808583C988A0F875
:100F90004010068470BD828B22F440628283828B73
:100FA0004FF6FF7303EA01210A4382837047828B65
:100FB00022F00C028283828B0A4382837047028B69
:100FC00022F440620283028B4FF6FF7303EA012191
:100FD0000A4302837047F0B5048C24F010040484A3
:100FE000078B048C4FF6FF7527F4734705EA03332C
:100FF0003B4305EA02221A430C4B05EA01169842CC
:101000000ED0104B98420BD0B0F1804F08D0084B57
:10101000984205D0074B984202D0074B984225D101
:1010200024F02001314341F0100124E0002C014064
:101030000004004000080040000C00400010004088
:101040000014004000340140004C014000500140B9
:101050000054014000180040001C004000200040E7
:1010600000400140004401400048014024F0A0033A
:101070000B4343F0100102830184F0BD028B22F088
:101080000C020283028B0A430283704770B5048C02
:1010900024F001040484058B048C4FF6FF7606EAE5
:1010A0000313134325F0F305F94A2B4390420ED066
:1010B000F84A90420BD0B0F1804F08D0F64A9042E7
:1010C00005D0F64A904202D0F54A904202D124F06F
:1010D000020201E024F00A020A4342F00101038304
:1010E000018470BD2DE9F05F0D4604460888E84F85
:1010F000DFF8A0C3DFF8A0834988AA882B894FF0C6
:10110000804960B3042832D04FF6FF7E082836D0DD
:10111000208C9B4620F480502084A38B268C704624
:1011200000EA022223F473431A4300EA0B3010430F
:101130000EEA013EBC420BD0644509D04C4507D0B5
:10114000444505D0D54A944202D0D54B9C4245D166
:1011500026F4005141EA0E0141F4805143E020465B
:10116000FFF794FFE9882046BDE8F05F86E7204658
:10117000FFF731FFE9882046BDE8F05F1FE7208CCC
:1011800020F480702084B4F81CA0208C0EEA031395
:1011900013432AF0F30A0EEA012B43EA0A03BC4286
:1011A0000BD0644509D04C4507D0444505D0BB4A17
:1011B000944202D0BA4A944204D120F4007040EA2A
:1011C0000B0002E020F42060084340F48070A38309
:1011D0002084E9882046BDE8F05FE8E626F4024274
:1011E0000A4342F48051A08320462184E988BDE867
:1011F000F05FD0E62DE9F0410C460026498807460D
:10120000012501B90226A288012A00D102252088E1
:1012100023890028384610D0FFF7DDFEE1883846E4
:10122000FFF7CDFE23892A4631463846FFF72EFFC9
:10123000E1883846BDE8F04120E7FFF727FFE18865
:101240003846FFF71BFF23892A4631463846FFF709
:10125000C2FEE1883846BDE8F041B0E610B50A8824
:101260004B88CC881A438B8823431A430B891A4333
:101270004B8989891A430A43A0F8442010BD4FF6D0
:10128000FF71818000210180C1804180017270471F
:101290000021018041808180C18001814181818163
:1012A000C181704700210180418001228280C1807C
:1012B000018170470021018041808180C1800181CE
:1012C0004181818170470029018802D041F00101EC
:1012D00001E021F0010101807047002930F8441F2E
:1012E00002D041F4004101E0C1F30E0101807047DA
:1012F000002A828901D00A4300E08A438281704734
:10130000818270471143A0F848107047002A8289F3
:1013100001D00A4300E08A4382817047018921F0AD
:10132000070101817047028922F070020A4302819D
:10133000704700B50346FFF7F6FF188940F0070035
:10134000188100BD70B516460D46602904464FF061
:10135000010231460AD0FFF799FE29462046FFF7E1
:10136000E2FF208940F00700208170BDFFF733FEC7
:10137000F3E730B504894FF6FF7505EA03231343FD
:10138000E4B20B432343038130BD10B50446FFF79D
:10139000F0FF208940F07700208110BD10B5044691
:1013A000FFF7E7FF208940F48040208110BD0185D0
:1013B00082827047028822F070020A4302807047DE
:1013C00070B50589048B068C25F007050D434FF693
:1013D000FC410C4040F201110C434FF6FF7101EA51
:1013E000031126F022061143314305810483018451
:1013F00070BD028B22F070020A4302837047028B99
:101400004FF6FF7322F4E04203EA01211143018306
:101410007047828B22F070020A4382837047828B6E
:101420004FF6FF7322F4E04203EA01211143818366
:1014300070470029018802D041F0800101E021F0CD
:101440008001018070470029818802D041F00401A9
:1014500001E021F00401818070470029818802D0D9
:1014600041F0080101E021F0080181807047002966
:10147000818802D041F0010101E021F00101818069
:101480007047028B22F008020A4302837047000073
:10149000002C0140003401400004004000080040DE
:1014A000000C0040028B4FF6FF7322F4006203EA47
:1014B000012111430183E9E7828B22F008020A43EC
:1014C0008283E3E7828B4FF6FF7322F4006203EA24
:1014D000012111438183D9E7028B22F004020A43E0
:1014E0000283D3E7028B4FF6FF7322F4806203EA94
:1014F000012111430183C9E7828B22F004020A43D0
:101500008283C3E7828B4FF6FF7322F4806203EA83
:10151000012111438183B9E7028B22F080020A4343
:101520000283B3E7028B4FF6FF73C2F30E0203EAA6
:10153000012111430183A9E7828B22F080020A4333
:101540008283A3E7828B4FF6FF73C2F30E0203EA96
:1015500001211143818399E7028C22F002020A43A0
:10156000028493E7028C22F008020A4302848DE78A
:10157000028C4FF6FF7322F0200203EA011111439F
:10158000018483E7028C4FF6FF7322F0800203EAA6
:1015900001111143018479E7028C4FF6FF7322F4A5
:1015A000007203EA0121114301846FE7028C4FF6B8
:1015B000FF7322F4006203EA01211143018465E70D
:1015C000028C4FF6FF7322F4005203EA01311143FB
:1015D00001845BE710B50123048C8B409C43048499
:1015E000038C8A401343038410BD10B50423048C7C
:1015F0008B409C430484038C8A401343038410BDB6
:1016000030B50124058C00F118038C40A5430584F6
:1016100089B108290FD0091FC1F34E001844016891
:1016200021F4E041016001684FF6FF7303EA0222F2
:101630001143016030BD03EB5100016821F07001DE
:1016400001600168F4E70029018802D041F002013D
:1016500001E021F00201018018E70029018802D091
:1016600041F0040101E021F0040101800EE70029AE
:10167000818802D041F0800101E021F08001818069
:1016800004E7028822F00802028002880A430280EE
:10169000FCE6828822F07002828082880A4382807F
:1016A000F4E6028922F00702028102890A430281DC
:1016B000ECE6028922F08002028102890A4302815B
:1016C000E4E68184E2E68185E0E68186DEE6018764
:1016D000DCE68187DAE6A0F84010D7E6028822F43B
:1016E0004072028002880A430280CFE6808ECDE6F7
:1016F000008FCBE6808FC9E6B0F84000C6E6808C4C
:10170000C4E6008DC2E602460020128A0A4200D0DA
:101710000120BBE6C9430182B8E602460020138AD5
:1017200092890B4202EA010202D0002A00D0012075
:10173000ACE6C9430182A9E6994910B588420AD1AD
:10174000841401212046FFF754F82046BDE81040DC
:101750000021FFF74EB89349884202D101210414B9
:1017600004E0914988420AD10121C4132046FFF7C1
:1017700049F82046BDE810400021FFF743B810BDEE
:1017800030B502884C8802F441530A88CD88224340
:101790008C882C4322430C8922434C8922438C8918
:1017A0002243CC8922431A430280828B22F40062B6
:1017B0008283098A018230BDF0B505460C460220BD
:1017C0000021AA8B85B001264FF240031A40AA835C
:1017D0002884AF8BA268022A27D0A08800B10226F5
:1017E0006846FEF7ABFFE1880098B1F5007F2DD089
:1017F0007101B0FBF1F000BF00EB8000A168400078
:10180000B0FBF1F0401D80B20A21B0FBF1F000F016
:101810000101401A4FF6FF72C0F34F0002EA0121A6
:10182000821EFE2A01D302200021E28808430243DF
:101830002A8420886188A2890843A188114308432B
:10184000384340F40060A88305B0F0BD000AD3E738
:101850000021018041808180C1800181418181819D
:10186000C181072101827047002101804180818070
:10187000C18002228260818170470029018802D0E4
:1018800041F0400101E021F0400101807047002952
:10189000818B02D041F4806101E021F48061818379
:1018A0007047090901238B40002A828899B201D030
:1018B0000A4300E08A4382807047002A828801D070
:1018C0000A4300E08A4382807047818170478089A3
:1018D0007047A1F57E420188FF3A02D041F4807141
:1018E00001E021F48071018070470029818802D0D5
:1018F00041F0040101E021F0040181807047028879
:1019000022F40062028002880A4302807047018844
:1019100041F48051018070470029018802D041F4D0
:10192000005101E021F4005101807047012901D0EC
:10193000008B7047808A7047008A7047B1F5804FEE
:10194000018803D021F480410180704741F4804137
:10195000FAE70246002012890A4200D001207047AF
:10196000C9430181704710B501F00F0401220346FD
:1019700002FA04F4002009098A4091B29A88A4B2BC
:101980000A401989214202D0002A00D0012010BD4E
:1019900001F00F0201219140C9430181704700000D
:1019A0000030014000380040003C0040C54910B5FF
:1019B000884202D1012144150AE0C349884202D17C
:1019C0000121041504E0C14988420AD10121CC0358
:1019D0002046FEF70EFF2046BDE810400021FEF72E
:1019E00008BF10BD10B54268B94B0C791A400B689E
:1019F00042EA0422134343608368B64A1340D1E9A4
:101A0000024222434C7943EA44031A438260C26A89
:101A1000097C22F47002491EC9B242EA0151C16236
:101A200010BD00210160017141718160C16001211F
:101A3000017470470029816802D041F0010101E082
:101A400021F00101816070470029816802D041F4D2
:101A5000807101E021F4807181607047002A426842
:101A6000C9B201D00A4300E08A43426070478168EE
:101A700041F008018160704701460020896809072C
:101A800000D501207047816841F0040181607047F2
:101A9000014600208968490700D5012070470029C8
:101AA000816802D041F4A00101E021F4A00181602D
:101AB0007047014600208968490200D5012070471F
:101AC0004268491E22F4604242EA41314160704757
:101AD0000029416802D041F4006101E021F4006175
:101AE0004160704770B5072409290AD9C568A1F17A
:101AF0000A0606EB4606B440A543B3401D43C56045
:101B000007E0056901EB4106B440A543B3401D431E
:101B100005611F23072A09D2446B521E02EB820281
:101B200093409C4391400C43446370BD0D2A09D2FD
:101B3000046BD21F02EB820293409C4391400C4302
:101B4000046370BDC46A0D3A02EB820293409C4369
:101B500091400C43C46270BD0029816802D041F4F9
:101B6000801101E021F4801181607047C06C80B267
:101B7000704754484C30006870470029416802D0D3
:101B800041F4806101E021F48061416070470029E7
:101B9000416802D041F4805101E021F4805141605C
:101BA0007047826822F4E0420A438260704700294D
:101BB000816802D041F4004101E021F400418160DC
:101BC00070470029816802D041F4021101E021F43C
:101BD000021181607047014600208968890200D5A2
:101BE0000120704770B5072409290AD9C568A1F1F9
:101BF0000A0606EB4606B440A543B3401D43C56044
:101C000007E0056901EB4106B440A543B3401D431D
:101C10000561836BC3F30154121B921C02EB820417
:101C20001F22A2409343A1400B43836370BD826B8C
:101C3000491E22F4401242EA01518163704708B5FF
:101C400008440090026008BD08B5084428300090A0
:101C5000006880B208BD42681F4B1A400A434260C8
:101C60007047416282627047426822F01F020A4355
:101C700042607047134908310028086802D040F4D8
:101C8000000001E020F400000860704702460020D8
:101C900012680A4200D001207047C94301607047B2
:101CA00010B50246002054680B0AC9B20C401168F6
:101CB000194202D0002C00D0012010BD6FEA112182
:101CC000016070470024014000280140003C0140B1
:101CD000FFFEF0FFFDF7F1FFFFFD3FFF01684FF64C
:101CE000FE72114001600021016041608160C160AD
:101CF0006A496A4A0839904203D1486840F00F00A7
:101D000006E0664A1432904204D1486840F0F00080
:101D100048607047614A2832904203D1486840F4D5
:101D20007060F5E75D4A3C32904203D1486840F468
:101D30007040EDE7594A5032904203D1486840F470
:101D40007020E5E7554A6432904203D1486840F478
:101D50007000DDE7514A7832904203D1486840F084
:101D60007060D5E74E4A111F904203D1086840F0D9
:101D70000F0006E04A4A1432904204D1086840F04D
:101D8000F00008607047464A2832904203D1086844
:101D900040F47060F5E7424A3C32904203D1086853
:101DA00040F47040EDE73E4A50329042EAD1086874
:101DB00040F47020E5E730B5036847F6F0729343CE
:101DC0000C6A8A682243D1E904452C4322438C697A
:101DD0002243CC6922434C6A22438C6A22431A4331
:101DE0000260CA6842600A6882604968C16030BDAA
:101DF0000021016041608160C160016141618161D8
:101E0000C16101624162816270470029016802D0AC
:101E100041F0010102E04FF6FE721140016070478F
:101E2000002A026801D00A4300E08A43026070473A
:101E300041607047406880B2704701460020CA0088
:101E400002D5174A083A01E0144A083A12680A42D1
:101E500000D001207047C10003D51149091F086057
:101E600070470E4908394860704701460020CA0093
:101E700002D50B4A083A01E0084A083A12680A42B9
:101E800000D001207047C10003D50549091F086033
:101E90007047024908394860704700000800024056
:101EA000080402400D49086070470C4948607047BB
:101EB0000A498860704709494AF6AA2008607047B5
:101EC00006494CF6CC4008607047044A01460020A1
:101ED000D2680A4200D00120704700000030004064
:101EE0000948804709480047FEE7FEE7FEE7FEE7AE
:101EF000FEE7FEE7FEE7FEE7FEE7FEE704480549EA
:101F0000054A064B7047000099020008310100089D
:101F1000181B002018210020181D0020181D00206B
:101F20007047401E80B2FCD27047401E80B2FCD287
:101F3000704703E00521491E89B2FCD2401E80B2E1
:101F4000F8D2704710B503464FF47A7402E0204689
:101F5000FFF7EFFF5B1E9BB2F9D210BD30B500203A
:101F6000294A2A4D034640F2DC5400BF02EB00111F
:101F7000401C4C80C1E90253C0B20828F6D330BDE2
:101F800030B502460B4616E01D78AC420CD011E08D
:101F900012F8015B5B1CA54206D05B1AD21A0C78C2
:101FA0000B46521C3CB902E01C78002CF0D1101AF0
:101FB00080B230BD521C1478002CE5D1002030BD19
:101FC000F0B500224D1E18E01446531C08E000BF77
:101FD00050F8246050F82370BE4200DD1C465B1CA4
:101FE0008B42F5DB944207D050F8243050F8226041
:101FF00040F8246040F82230521CAA42E4DBF0BDD5
:10200000002800DC40427047FC0000200080BB44F8
:1020100010B501210D20FEF7DAFBBDE810400121CB
:102020006C48FEF779BA08B501210820FEF7CFFB0E
:102030004FF40050ADF8000010208DF8030003208D
:102040008DF8020069466448FEF7D7F908BD012201
:1020500082406148002991B201D0FEF73CBAFEF7F8
:102060003CBA10B55D4C207808B1002100E0012198
:102070000D20FFF7ECFF2078C043207010BD08B59D
:1020800001210820FEF7A3FB2020ADF8000010205E
:102090008DF8030003208DF8020069464E48FEF7D4
:1020A000ACF908BD70B50E460546002416E00121C6
:1020B0000520FFF7CCFF00210D20FFF7C8FFA8B2D5
:1020C000FFF740FF00210520FFF7C1FF01210D2090
:1020D000FFF7BDFFA8B2FFF735FF641CB442E6D39B
:1020E00070BD012282403E48002991B201D0FEF726
:1020F000F2B9FEF7F2B9012282403A48002991B2C2
:1021000001D0FEF7E8B9FEF7E8B938B501210C2097
:10211000FEF75DFB4FF40140ADF8000003248DF89D
:10212000024010258DF8035069462D48FEF765F9E9
:102130004FF47670ADF800008DF802408DF8035032
:1021400069462548FEF759F938BD062810D2DFE860
:1021500000F0030507090B0D032008E0082006E046
:10216000092004E0062002E0072000E004206EE7DA
:10217000704738B501210C20FEF729FB4FF40060B1
:10218000ADF8000048248DF8034069461248FEF778
:1021900034F90220ADF800008DF80340694610487C
:1021A000FEF72BF938BD70B50D46064600240EE04B
:1021B00001210520FFF74BFFA8B2FFF7C3FE002166
:1021C0000520FFF744FFA8B2FFF7BCFE641CB44231
:1021D000EEDB70BD00023000000C01402B0000203F
:1021E00000080140001001401CB501210520FEF748
:1021F000EEFA01215048FEF78FF94FF4E040ADF8B8
:10220000000010208DF8030003204C4C8DF80200D4
:1022100069462046FEF7F1F84FF40040ADF804009F
:1022200028208DF8070001A92046FEF7E6F81CBD1E
:1022300010B5FFF7D9FF414C4FF400512046FEF78F
:102240004AF94FF480412046FEF745F9A114204693
:10225000BDE81040FEF73FB92DE9F05F0026DFF83A
:10226000DC90074635464FF4804B4FF480584FF0D2
:10227000010A00BF0AFA05F43C425946484602D01A
:10228000FEF729F901E0FEF728F90120FFF751FEDA
:1022900041464846FEF71FF90A20FFF74AFE41462D
:1022A0004846FEF71AF90A20FFF743FE4146484622
:1022B000FEF711F94FF400414846FEF7F8F808B16F
:1022C0003443E6B26D1CEDB2082DD3D33046BDE8E1
:1022D000F09F70B5194E04464FF40055294630461C
:1022E000FEF7FBF80120FFF7B7FF20704220FFF751
:1022F000B3FF60702078FFF7AFFFA0702078FFF782
:10230000ABFFE0702078FFF7A7FF20712078FFF780
:10231000A3FF60712078FFF79FFFA0712078FFF77F
:102320009BFFE0712078FFF797FF20722946304627
:10233000BDE87040FEF7CFB800043000000801404F
:1023400010B5FEF739F94FF480342046FEF74DF909
:10235000FEF778F90028FDD00020FEF7ABF94FF426
:102360008060FEF7AEF90020FEF7B2F94FF4E011FD
:102370002046FEF788F90120FEF78DF93920FEF797
:102380004CF90028FAD00220FEF788F9FEF78DF903
:102390000828FBD110BD000010B545F25550FFF7DD
:1023A00081FD0620FFF781FD4FF4EA70FFF780FD05
:1023B000FFF781FDBDE81040FFF782BDB0F5000FCB
:1023C00001DA80F0004070474FF0E0200021816189
:1023D000FE494161016941F00701016170474FF019
:1023E000E02100208861FA484168491C4160FFF7FC
:1023F00062BDF748406870477FB50C46054601212D
:10240000C802FEF7E4F9641EADF80040ADF80450D0
:102410000024F04DADF80640ADF802408DF80840BC
:1024200069462846FEF7A6FC01212846FFF772F907
:10243000012241212846FEF75BFF19208DF80C0090
:102440008DF80D408DF80E4001208DF80F0003A887
:10245000FEF711FA01212846FEF735FF7FBD7FB553
:102460000C46054601210846FEF7BAF9ADF80040D2
:102470000020ADF80450ADF80600ADF802004FF0B2
:10248000804469462046FEF775FC00212046FEF791
:10249000D0FF012211462046FEF72AFF1C208DF8AE
:1024A0000C0001218DF80D1002208DF80E008DF822
:1024B0000F1003A8FEF7DFF901212046FEF703FF06
:1024C0007FBD7FB50C46054601210220FEF788F945
:1024D000ADF800400020ADF80450BF4CADF8060048
:1024E000ADF8020069462046FEF744FC0021204674
:1024F000FEF79FFF012211462046FEF7F9FE1D2040
:102500008DF80C0003208DF80D0001218DF80E10C0
:102510008DF80F1003A8FEF7AEF901212046FEF753
:10252000D2FE7FBD30B50C46054689B001210220A0
:10253000FEF756F901210820FEF749F90320ADF80E
:102540001C0018218DF81F108DF81E0007A9A34844
:10255000FDF753FFADF81450ADF8104000249E4D28
:10256000ADF81640ADF8124004A92846FEF702FC6B
:102570006020ADF800000120ADF802004FF4FA70C1
:10258000ADF80600ADF8084069462846FEF79CFC09
:1025900008212846FEF790FF69462846FEF7CEFC44
:1025A00008212846FEF78EFF01212846FEF78BFE04
:1025B00009B030BD30B50C46054689B00121042074
:1025C000FEF70EF901210820FEF701F94FF44070E3
:1025D000ADF81C0018208DF81F0003208DF81E0098
:1025E00007A97E48FDF709FFADF81450ADF810407B
:1025F00000247B4DADF81640ADF8124004A92846E2
:10260000FEF7B8FB6020ADF800000120ADF8020035
:102610004FF4FA70ADF80600ADF808406946284658
:10262000FEF752FC08212846FEF746FF6946284679
:10263000FEF784FC08212846FEF744FF01212846C6
:10264000FEF741FEB4E7B0F5000F01DA80F000407C
:10265000704770B5634901EB0015EA6812F0FF4F4F
:1026600020D06C8840F6BA10844203DC4FF4FA7034
:10267000844200DA04460121104605F036F9FFF7DE
:10268000E2FF0646204604F0F3FE0446A96805F082
:1026900057F8FFF7D8FF314604F016FF03D80020A3
:1026A000C5E9024070BDD5E9020104F06FFDA860E4
:1026B00070BD70B501218D072846FFF72EF8002860
:1026C00021D001212846FFF734F8414C60780828D2
:1026D00001D10020607043486678217800EB061035
:1026E000806889B104F0A4FEA0F6C4104042A88519
:1026F00000213046FFF729FD6078401C607020788B
:1027000068B10020207070BD04F092FEA885012100
:102710003046FFF71AFD6078FFF79BFFEFE70120D7
:10272000F0E710B52C4C01212046FEF7F6FF0028FB
:1027300005D02046BDE810400121FEF7FABF10BDCC
:102740002DE9F0418846074688B0012140F6040093
:10275000FEF73DF84FF48070ADF81C0048208DF86E
:102760001F0003208DF81E0007A91F48FDF745FE36
:102770001B208DF8000000248DF8014001258DF804
:1027800002508DF803506846FEF775F819208DF851
:1027900000008DF8014002268DF802608DF803508C
:1027A0006846FEF768F8ADF814700A4FADF810806F
:1027B000ADF81640ADF8124004A93846FEF7DAFA33
:1027C000ADF80440ADF8066010E0000040190100CB
:1027D0002C000020002C014000040040000C0140AF
:1027E00000080040FC00002000080140ADF80A404D
:1027F000ADF80850ADF80C4001A93846FEF772FC60
:1028000001213846FEF786FF02213846FEF782FF97
:10281000012202213846FEF76BFD01213846FEF702
:1028200052FD08B0BDE8F08170B5054686B00121C3
:102830000820FDF7CCFF01218804FDF7D1FF4FF4FC
:102840008060ADF8100018208DF81300FD4E0324B1
:102850008DF8124004A93046FDF7CFFDF014ADF815
:10286000100004208DF8130004A93046FDF7C5FDC3
:102870000020ADF804000095ADF80600ADF80800A2
:10288000ADF80C000C20F04DADF80A006946284662
:10289000FEF774F827208DF8140001218DF815102B
:1028A0008DF816408DF8171005A8FDF7E4FF0122FA
:1028B00040F225512846FEF7DEF801212846FEF7B2
:1028C000D0F806B070BDF0B5054687B001210420F0
:1028D000FDF77DFF01214804FDF782FFDB4E304606
:1028E000FEF71CF80424ADF8104003208DF8120008
:1028F0001820D74F8DF8130004A93846FDF77DFD49
:102900000820ADF810008DF8134004A93846FDF7F3
:1029100074FD0020ADF80400ADF80600ADF8080025
:10292000ADF80C000C20ADF80A0000956946304661
:10293000FEF724F826208DF8140001208DF81500EC
:1029400002218DF816108DF8170005A8FDF793FFEA
:10295000012240F225513046FEF78DF80121304624
:10296000FEF77FF807B0F0BDF0B5064689B001214B
:1029700044F20400FDF72BFFB64D2846FDF7CEFFCD
:102980006C15ADF8104003208DF812001820B04FE0
:102990008DF8130004A93846FDF72FFD6000ADF84F
:1029A000100004208DF8130004A93846FDF725FD1A
:1029B0000021ADF804100096ADF80610ADF808102F
:1029C0000C20ADF81410ADF81840ADF80C10ADF8AF
:1029D0000A00ADF81610ADF81A1005A92846FEF742
:1029E0002BF869462846FDF7C9FF4FF4E060FDF774
:1029F0003DFF25208DF81C0001218DF81D108DF85C
:102A00001E108DF81F1007A8FDF735FF012240F2B8
:102A100025512846FEF72FF801212846FEF721F818
:102A200009B0F0BD70B54FF4E1342046FFF79CFFCC
:102A300040F22555012229468648FEF71CF820461B
:102A4000FFF741FF012229468048FEF714F820468F
:102A5000FFF7EAFE012229467B48FEF70CF862B632
:102A600070BD01467B48FEF752B82DE9F0410E4695
:102A700007460024774D0BE0395D2846FEF747F8FE
:102A800080212846FEF7A4F80028F9D0641CA4B2DF
:102A9000B442F1D3BDE8F08170B504466D4D09E054
:102AA0002846641CFEF733F880212846FEF790F88C
:102AB0000028F9D021780029F2D170BD0146634881
:102AC000FEF725B82DE9F0410E46074600245F4D7C
:102AD0000BE0395D2846FEF71AF880212846FEF7FC
:102AE00077F80028F9D0641CA4B2B442F1D3D1E73E
:102AF00070B50446554D09E02846641CFEF707F8FA
:102B000080212846FEF764F80028F9D021780029B2
:102B1000F2D170BD01464C48FDF7F9BF2DE9F041F7
:102B20000E4607460024484D0BE0395D2846FDF768
:102B3000EEFF80212846FEF74BF80028F9D0641CF0
:102B4000A4B2B442F1D3A5E770B504463E4D09E006
:102B50002846641CFDF7DBFF80212846FEF738F885
:102B60000028F9D021780029F2D170BD2DE9F0417B
:102B7000384C40F2255529462046FEF729F8012811
:102B800042D129462046FEF74CF82046FDF7C3FF08
:102B9000314CC0B2217871BB012530490023304A45
:102BA0003C2802D00E7816B10FE004260BE0242852
:102BB00004D0232804D07B2804D005E00D7003E066
:102BC000022600E003260E701380264E1788F0556B
:102BD0007F1CBFB217800978042906D0012907D0CD
:102BE000022905D0032907D00AE03E2806D007E0D5
:102BF000212803D004E007E07D2801D1F35525709A
:102C0000B7F5806F00D31380002043E72DE9F04132
:102C10000E4C40F2255529462046FDF7D9FF0128E4
:102C200051D129462046FDF7FCFF2046FDF773FFF2
:102C3000C0B20122094C002509493C2814D0237850
:102C4000A3B121E0000C01400048004000440040D6
:102C50000008014000380140290000202A0000201F
:102C6000340000207C05002004230BE0242804D03D
:102C7000232804D07B2804D005E0227003E002233F
:102C800000E0032323704D80434B4E88434F9855FB
:102C9000761CB6B24E802478042C06D0012C07D0C6
:102CA000022C05D0032C06D009E03E2805D006E012
:102CB000212802D003E07D2801D19D553A70B6F558
:102CC000806F00D34D800020E4E62DE9F041344CC4
:102CD00040F2255529462046FDF77AFF012841D1CB
:102CE00029462046FDF79DFF2046FDF714FF2B4C9B
:102CF000C0B22178B1BB01252A4900232A4A3C28C9
:102D000002D00E7816B10FE004260BE0242804D080
:102D1000232804D07B2804D005E00D7003E00226B0
:102D200000E003260E7093801B4E9788F0557F1CA1
:102D3000BFB297800978042906D0012907D002295B
:102D400005D0032906D009E03E2805D006E0212859
:102D500002D003E07D2801D1F3552570B7F5806FCF
:102D600000D39380002095E696E67EE679E6BFE6FE
:102D7000A8E6A3E670B5094C054601202070284658
:102D8000FFF7E2FE2846FFF787FE0020207070BDA7
:102D9000DAE6C3E6BEE600007C050020290000203C
:102DA000004800402A0000203400002070B506468C
:102DB0000024F74D03E0641CE4B2C82C0FD80221B4
:102DC0002846FEF7C6FD0028F5D031462846FEF716
:102DD0007CFD002405E0641CE4B2C82C01D900206D
:102DE00070BD01212846FEF7B4FD0028F3D0284627
:102DF000FEF76DFDC0B270BD2DE9F041E54DE64E28
:102E0000E34F4FF4005490B12C801820E87029460D
:102E10003046FDF7F2FA21463046FDF75CFB012112
:102E20003846FEF72AFDBDE8F041FF20BEE700214D
:102E30003846FEF722FD2C801020E8700320A87091
:102E40003046BDE8F041D349FDF7D7BA03E0092188
:102E5000491E89B2FCD2401E80B2F8D2704710B52C
:102E6000CE490020CA4C88812046FEF789FC2046C6
:102E7000BDE810400121FEF700BDF8B50121082092
:102E8000FDF7A5FC4FF48054ADF8004010208DF8FC
:102E900003000320C04E8DF8020069463046FDF75E
:102EA000ACFA21463046FDF716FB4FF42044ADF84E
:102EB000004018208DF8030069463046FDF79DFA62
:102EC0004FF48045ADF8005048208DF80300694666
:102ED0003046FDF792FA21463046FDF7FCFA012113
:102EE0002846FDF77DFCAD4800214FF48272018039
:102EF000428081800222C2800122028152024281EC
:102F000038228281C18107210182A14C01462046DD
:102F1000FEF736FC01212046FEF7AFFCFF20FFF74D
:102F200045FFFFF79CFFF8BD10B59C493020984C39
:102F300088812046FEF724FC2046BDE81040012190
:102F4000FEF79BBC70B5944E00244FF4805522468A
:102F500029463046FDF7C3FA9020FFF727FF0020EF
:102F6000FFF724FF0020FFF721FF0020FFF71EFFDF
:102F7000FF20FFF71BFF44EA0024FF20FFF716FFA6
:102F80000443012229463046FDF7A9FA204670BDC8
:102F900070B5814E4FF48055002229463046FDF72A
:102FA0009EFA0520FFF702FFFF20FFF7FFFE044611
:102FB000012229463046FDF792FA204670BD70B5D1
:102FC000754D06464FF48054002221462846FDF7F1
:102FD00086FA0120FFF7EAFE3046FFF7E7FE2146BA
:102FE0002846BDE870400122FDF779BA70B56A4DF8
:102FF0004FF48054002221462846FDF770FA06203F
:10300000FFF7D4FE21462846BDE870400122FDF7B7
:1030100066BA70B5604D4FF48054002221462846B0
:10302000FDF75DFA0420FFF7C1FE21462846BDE802
:1030300070400122FDF753BA70B5574E04464FF465
:103040008055002229463046FDF749FA0320FFF754
:10305000ADFEC4F30740FFF7A9FEC4F30720FFF756
:10306000A5FEE0B2FFF7A2FEFF20FFF79FFE494C4E
:103070000122A41E294620703046FDF730FA207840
:1030800070BD2DE9F041DFF8108115460C4606466B
:103090004FF48057002239464046FDF720FA0320BE
:1030A000FFF784FEC4F30740FFF780FEC4F3072058
:1030B000FFF77CFEE0B2FFF779FE002405E0FF2079
:1030C000FFF774FE3055641CA4B2AC42F7D3394606
:1030D0004046BDE8F0410122FDF701BA2DE910405C
:1030E000FFF756FFC007FBD110BD2DE9F0410646A2
:1030F000C8B2C0F5807014460D46824200D904461D
:10310000FFF774FFDFF890804FF4805700223946B4
:103110004046FDF7E4F90220FFF748FEC5F30740FB
:10312000FFF744FEC5F30720FFF740FEE8B2FFF7C4
:103130003DFE002504E0705DFFF738FE6D1CADB26A
:10314000A542F8D3012239464046FDF7C8F9BDE84B
:10315000F041C3E72DE9F0410746C8B2C0F58074DD
:103160000E461546A24200D814464FF480782246F7
:1031700031463846FFF7B9FFA54211D0281B274436
:10318000264485B24446A542F1D82C46EFE700001C
:10319000003800403C000020000C01403C0A0020A8
:1031A000BDE8F08170B50403FFF720FFFFF796FF3D
:1031B000964E4FF48055002229463046FDF78FF990
:1031C0002020FFF7F3FDC4F30740FFF7EFFDC4F342
:1031D0000720FFF7EBFDE0B2FFF7E8FD01222946EB
:1031E0003046FDF77CF9BDE8704077E72DE9F05FE8
:1031F000C1F30B060F0BC6F5805488468246154670
:10320000A24200D81446DFF8089239038B464FF4E7
:1032100080527F48FFF735FF002006E0321819F88A
:103220000210FF2903D1401C80B2A042F6D3A04275
:1032300022D23846FFF7B6FF00204A4606E000BF1C
:103240001AF800108319401CD15480B2A042F7D361
:1032500059464FF480526E48FFF77CFFA5420FD0CD
:10326000281BA244A044002685B24FF480547F1C42
:10327000A542CAD82C46C8E7224641465046EBE74D
:10328000BDE8F09FC1F30B03C3F580539A4200D908
:103290001A465FE72DE9F04F8246C1F30B0081B07B
:1032A000C0F58054ADF5805D0E461546A24200D8AB
:1032B0001446E9464FEA16384FEA08318B464FF478
:1032C00080524846FFF7DDFE0020C6F30B0706E0FC
:1032D0003A1819F80210FF2903D1401C80B2A0420D
:1032E000F6D3A04220D24046FFF75CFF00214846BB
:1032F00006E000BF1AF801207B18491CC25489B2AD
:10330000A142F7D359464FF4805200BFFFF7BAFFEE
:10331000A5420DD0281BA244264485B24FF4805408
:10332000A542C7D82C46C5E7224631465046EDE7B0
:1033300001B00DF5805DBDE8F08F2DE9F0410C4640
:103340000746FFF753FE314E4FF4805500222946C1
:103350003046FDF7C4F80220FFF728FDC4F307400C
:10336000FFF724FDC4F30720FFF720FDE0B2FFF7CD
:103370001DFD3846FFF71AFD012229463046FDF7AC
:10338000AEF8BDE8F041A9E670B5FFF72FFEFFF7F4
:10339000A5FE1E4D4FF48054002221462846FDF71D
:1033A0009EF8C720FFF702FD012221462846FDF7BF
:1033B00096F8BDE8704091E670B5144D4FF4805416
:1033C000002221462846FDF78AF8B920FFF7EEFCD7
:1033D000012221462846FDF782F8BDE8704003200F
:1033E00034E570B5094D4FF480540022214628463B
:1033F000FDF775F8AB20FFF7D9FC012221462846DE
:10340000FDF76DF8BDE8704003201FE5000C01409A
:103410004E0A002010B5404C86B02046FEF7C6FA92
:10342000002201214FF46020CDE902028DF8041042
:103430008DF805108DF81010009269462046FEF7B1
:10344000D1FA4FF40040FDF758F907230122052176
:103450002046FEF747FB01212046FEF7F5FA012141
:103460002046FEF7E7FA2046FEF701FB2046FEF76E
:1034700003FB0028FAD12046FEF705FB2046FEF7A5
:1034800007FB0028FAD101212046FEF708FB06B011
:1034900010BD10B5214C8CB02046FEF71FFC1E4815
:1034A00000214C3000901E48CDE901010120CDE9FA
:1034B00003018020059040000690800007902020A6
:1034C00008900002CDE9090169462046FEF773FC29
:1034D00001212046FEF799FC0CB010BD08B5012172
:1034E0000846FDF76BF901214FF40170FDF76FF904
:1034F0002020ADF8000000208DF80300694609483F
:10350000FCF77BFF08BD10B5FFF7E8FFFFF7C1FF31
:10351000BDE810407EE700000024014008000240A2
:1035200040000020000801402DE9F041F64D0F4613
:10353000984616462946069C03F0FAFF2060294665
:10354000384603F0F5FF60602946304603F0F0FF8F
:10355000A0602946404603F0EBFFE060BDE8F08143
:103560002DE9FF4F8DB0E84D0F46164629461A9CAF
:1035700003F0DEFF81462946384603F0D9FF834633
:103580002946304603F0D4FF0F90D4E900A00590FF
:10359000A0680090E068DFF87483DD4DDD4E19F01F
:1035A000FF4F06906ED05946484603F063FE03F085
:1035B000C1FD02F0E9FD0022434603F0ABFA2A46C2
:1035C000334603F0B9F802F0C9FF074659460846EA
:1035D00003F0AEFF83464946084603F0A9FF59466B
:1035E00003F0D4FD03F0A6FD02F07CFF02F0B6FF6D
:1035F0008346109803F09EFDC54AC64B03F08AFA35
:103600000022C24B03F098F80646049102F0CCFE6B
:1036100080468946069803F08DFD054642464B4696
:10362000029103F077FA80468946584603F082FDFE
:1036300042464B4603F094FC02F090FF834630462E
:10364000049902F0FFFE02460B462846029903F059
:1036500061FA06460D4651460F9804F071F803F0E2
:1036600069FD32462B4603F07BFC02F077FF804673
:103670008AF00040414604F027F805D2012011B03D
:10368000BDE8F08F0027A1E70099059803F07EFDC3
:1036900003F050FD0E4605464146084603F048FF3C
:1036A00081465946084603F043FF494603F06EFD44
:1036B000089003F03FFD8A46814602F013FF2A4638
:1036C000334603F025FB01D20220D8E74846514695
:1036D00002F008FF06460D46584603F02BFD324621
:1036E0002B4603F029F802F011FC02F037FF03909B
:1036F0004846514602F0F6FE06460D460121059861
:1037000004F0F3F8099003F015FD32462B4603F060
:1037100001FA0D4600990646084603F009FF05998F
:1037200081460790084603F003FF01460B90089876
:1037300003F02CFD494604F003F803F0FBFC32468D
:103740002B4602F0F9FF02F009FF4FF07E56B0421F
:1037500003DCDFF8C491484501D905208FE7DFF885
:10376000BCB1D84501D34D4600E0354603F0E2FC3C
:1037700002F0CCFB80468A462946039803F0D8FE27
:1037800003F0D8FC4246534602F01AFF02F0E6FE70
:1037900003F0D0FCDFF874A10022534603F0BAF91D
:1037A0005B4A5C4B02F0C8FF02F0D8FE5C498046E1
:1037B000884201DCD84501D3062060E700990998CA
:1037C00003F0B6FE05460B99089803F0B9FF0146D1
:1037D000079803F0B5FF294603F04CFDB04201DC29
:1037E000484501D903204AE703F0A4FC02F08EFB10
:1037F00002F0B4FE03F09EFC00225546534603F04F
:1038000089F9434A434B02F097FF00222B4603F00D
:10381000B5FA02F0A3FE43490546884202DC42485D
:10382000854201D904202AE74146109803F088FF19
:10383000294603F0ABFC3D490646884202DC3C4881
:10384000864201D907201AE74046276103F078FF36
:103850006061C4E906568046384603F06BFC354F7C
:1038600000223B4603F056F9DFF8CC9000224B468D
:1038700002F062FFDFF8C4A00022534603F07EFA94
:1038800003F0B2F803F0F4FD2064404603F052FC6C
:1038900000223B4603F03EF900224B4602F04CFF6B
:1038A0000022534602F08CFE03F09EF803F0E0FD88
:1038B0006064284603F03EFC00223B4603F02AF9F0
:1038C00000224B4602F038FF0022534602F078FEF9
:1038D00003F08AF803F0CCFDA064304603F02AFC24
:1038E00000223B4603F016F900224B4602F024FF6B
:1038F0000022534602F064FE03F076F803F0B8FDB0
:10390000E0640020BBE6000000002041008066402B
:103910004AD8124DFB210940000080BF0000808082
:103920000000344300000743000007C30000B44216
:103930000000B4C200409F4000E07040007097401B
:10394000FEF7E3BB472144F62060FEF788BD2DE972
:10395000F0410024DFF8F883FE4E274608EB840090
:1039600006EB0415B0F88C0000F2DC5080B26880E1
:1039700003F096FDC5E90207641CE4B2082CEDD300
:10398000BDE8F08110B50120FFF736FA40F2FF7074
:10399000FFF708FCC022F049ED48FFF727FCBDE81F
:1039A00010400020FFF728BA2DE9FC5F05460024EF
:1039B000FFF7E0F92878232808D12879502805D185
:1039C0006979E648532902D0442960D0A7E0A97953
:1039D00043297DD1E9794B297AD1297B212977D1D6
:1039E0006978EA78303901EBC10303EB011102EB8E
:1039F0008101AA7802EB820200EB420211448CB2F0
:103A0000697AEA7A303901EBC10303EB011102EB69
:103A10008101AA7A02EB820200EB42000144D04805
:103A200001F5FA72B2F57A7F816056D8082C54D22B
:103A30002A7A2B2A03D02D2A01D149428160C44918
:103A4000866801EB840757F88C1F881B03F010FD74
:103A5000C04901EB0414A1680D4603F066FEC1499C
:103A60003E60884202DCC049884200DA084603F022
:103A7000DFFC80B2608003F013FD294603F060FE96
:103A8000BA4903F0F7FBE060BDE8FC5F7AE7A9798B
:103A9000532944D1E979542941D1297A21293ED1A8
:103AA0006978EA78303901EBC10303EB011102EBCD
:103AB0008101AA7802EB820200EB4200084480B246
:103AC00008280AD2A349002201EB0014E26000E0BA
:103AD00025E0A06803F0ACFC6080BDE8FC9F2328D3
:103AE00004D050281FD0542845D047E0BBF1010F27
:103AF00044D122460026641CA4B26FF02F0107E0D7
:103B000006EB860301EB43031844641C86B2A4B29F
:103B1000285D08B15028F3D1A01A042801D0012053
:103B200027E0022025E0BBF1020F27D10020A046AC
:103B3000641CA4B2DFF83892DFF838A200900FE0DE
:103B400003F0AEFC07464946009803F0F1FC394605
:103B500003F01CFB514603F0F3FD641CA4B200907B
:103B6000285D08B15428EBD1A4EB08000528D6D174
:103B70000320834604E0BBF1030F05D0641CA4B20C
:103B8000285D0028ABD1A8E72246641C4FF0000A4C
:103B9000A4B26FF02F0308E00AEB8A0103EB4101A6
:103BA0000844641C1FFA80FAA4B2285D08B12128D9
:103BB000F2D1BAF5FA7F03D20AF596701FFA80FAAD
:103BC000A01A4FF0010B0528DAD1082E50D26A490D
:103BD000009888424CDC644FB84249DB42F21071D5
:103BE0008A4545D85A4800EB8600D0F88C0003F08F
:103BF0003FFC009903F0CAFA0146009059488142FF
:103C000001DD009002E0B94200DA00970098BAF1B5
:103C1000140F0BD203F00CFC01464E4800EB0610CB
:103C20004180009981600021C16021E003F000FC27
:103C3000484980B201EB0617019078805046A7F8FA
:103C400004A002F017FF00224C4B02F075FD8046E5
:103C50008946019803F024FCB96803F071FD03F074
:103C600069FA42464B4602F067FD02F077FCF860C5
:103C7000FF2E85D10026504602F0FCFE3F4B00226D
:103C800002F05AFD89468046314800EB8600D0F8A4
:103C90008C0000F2DC5003F0EBFB009003F0C8FB5B
:103CA00082B22C4800EB061710467A80A7F804A0D1
:103CB00003F0F6FBB96803F043FD03F03BFA42461C
:103CC0004B4602F039FD02F049FC761CB6B2F860B2
:103CD000082ED9D354E770B503460021084602E008
:103CE000542A04D0491C5A5C002AF9D170BD5A18D4
:103CF00054781579303C04EB4406C6EBC41405EB4C
:103D0000C4059478D2786426744302EB820204EBF3
:103D100042022A44A2F5A052D03A824200DD104667
:103D2000091DE0E710B504460120FFF765F84FF4E0
:103D30008061134801F01AFA2102FF221048FFF7B0
:103D4000A0F90F48FFF7C7FF054908600C4819E0C4
:103D50007C090020FC00002000F07F00F0FDFFFF48
:103D60004400002000101C450000FA430000A04061
:103D7000000020410000404200401C45000034404B
:103D80007C050020FFF710FEBDE810400020FFF783
:103D900033B802680B6803600A6070472DE9F04190
:103DA00004460D460120FFF727F8AC4202DD20460D
:103DB0002C4605464FF48066B710AC4216DC3146FF
:103DC000F94801F0D3F921023A46F748FFF759F9CB
:103DD000F548FEF7C9FFF5A0FEF7C6FFF248FEF76B
:103DE000D7FFF2A0FEF7D4FF641CE6E7BDE8F04180
:103DF0000020FFF701B82DE9FF478146ECA1FEF74F
:103E0000BFF8ED4E08B3EDA0FEF7AEFFE7A0FEF75A
:103E1000ABFFECA0FEF7A8FF5FF0000406EB840008
:103E2000EAA1D0F88C20EB4800F040FFE948FEF70B
:103E30009BFF641C082CF1DBDCA0FEF795FFE6A0DD
:103E4000FEF792FFDC480830B6E0E5A14846FEF7F1
:103E500097F8E54FE54D4FF00108002488B187F849
:103E60000080002605EB0617FC60B86803F0E0FA56
:103E7000761C7880082EF5DBDDA0FEF77BFFBDE821
:103E8000FF87DEA14846FEF77BF8E0B103AADDA17B
:103E9000484601F01FF80028F1D0039E05EB0615F7
:103EA000EC60A86803F0C4FA68803246D8A1C9481B
:103EB00000F0FCFEC748FEF75DFF4FF48061C54887
:103EC00001F054F9DBE7D6A14846FEF759F810B1E6
:103ED00000F099FED3E7D4A14846FEF751F860B14F
:103EE00002AB01AAD2A1484600F0F4FF0028C6D0D8
:103EF000DDE90101FFF752FFC1E7D0A14846FEF717
:103F00003FF850B101AACFA1484600F0E3FF0028D6
:103F1000B5D087F80080019819E0CDA14846FEF79A
:103F20002FF8B8B1CC480090031F1A1FCBA1484608
:103F300000F0D0FF0028A2D0C7491C39D1E9050202
:103F4000904204D0C860C86908613C7097E7FFF7E9
:103F5000E9FE94E7C5A14846FEF712F828B3C5A0CC
:103F6000FEF708FFDFF820930024B0464FF4FA670D
:103F700008EB840005EB0416B0F88C0000F2DC506E
:103F800080B27080B78003F08BFAB16803F0D8FB81
:103F900003F0D0F800224B4602F0CEFB02F0DEFA2E
:103FA000641CF060082CE3DB69E7B8A14846FDF724
:103FB000E7FF002886D0B7A0FEF7D6FE5FE770B512
:103FC0007D4C94F88800382820D104F108010D4672
:103FD000754801F043F8227A242A03D01024724E47
:103FE00030250AE02846BDE8704004E73555301911
:103FF0000F3445708570C570E4B26B4801F052F81B
:10400000A042F3D8BDE870406748CDE470BD70B5FC
:10401000754D914C28781C3C10B10A20206070BD71
:10402000FEF7E7F96168401A21688842F7D9FEF780
:10403000E0F96060E06908B1206958B1E068FFF715
:1040400071FED4E90512E06891420ADA90420AD082
:10405000401C11E001202870BDE870408EA0FEF7E2
:1040600083BE904207D1E160E0690028D7D0206983
:10407000401E206170BD401EE06070BD03E08B42B9
:1040800000D10270401C0378002BF8D1704700214A
:1040900002E0472A05D0401C0278002AF9D1501EC0
:1040A00070476FF02F0304E001EB810103EB410146
:1040B000114410F8012F232A01D0242AF4D10846F4
:1040C0007047F8B504460120FEF796FE6078242874
:1040D0000DD02046FFF7DBFF0546401C02D0A0793B
:1040E00023283CD06FA0BDE8F840FEF73DBEA07885
:1040F0000027314E212818D057480090031F1A1F5F
:1041000069A1204600F0E6FE00284CD0524806F196
:1041100008051C38D0E9051081420CD109024FF482
:1041200080722846FEF7ADFF12E086F88870FFF730
:1041300029FC62A0D7E78121284601F039F8611CEB
:10414000284600F08BFF204600F0ACFF304487711A
:10415000382086F88800FFF715FC5DA0C3E77B22B6
:104160003C212046FFF78AFF7D223E212046FFF7B3
:1041700085FF280706D12802C11700EB1150001354
:10418000FFF710F8204600F08DFF401C82B2290294
:104190002046FEF7DFFF53A0FEF7E6FDBDE8F8403E
:1041A0000020FEF729BEF8BD7C0500200D0A0000A6
:1041B00024445253210000007C0900206D6F647577
:1041C0006C653A00626961733A0000002564202042
:1041D000000000007C010020707265436D643A00AD
:1041E000244453542100000028000020FC0000203B
:1041F0002332353550445354210000002444535495
:104200003A000000244453543A2564210000000081
:10421000232530336450445354210D0A000000001C
:104220002452535421000000245054473A00000007
:10423000245054473A25642D2564210024444753D3
:104240003A000000244447533A256421000000004E
:10425000244447543A00000060000020244447549E
:104260003A25642D25642C256421000024444A52FB
:104270002100000023323535503135303054323092
:104280003030210D0A0000000000594024474554F9
:1042900041210000414141004047726F7570446FF9
:1042A0006E652100450000003C244447543A2564D3
:1042B0002D25642C2564213E0000000040434C4520
:1042C0004152205052455F434D44204F4B21000046
:1042D00040534554205052455F434D44204F4B219D
:1042E00000000000410000002DE9F84F88461FFA49
:1042F00081FA1649814601EB091490B2A4F802A094
:104300001646A08002F0B6FB0022114B02F014FA10
:1043100005460F46504603F0C3F8A16803F010FAB3
:1043200002F008FF2A463B4602F006FA02F016F9B0
:10433000E06043464A4607A10B48009600F0B6FCF1
:10434000BDE8F84F0848FEF715BD0000FC0000204E
:104350000000344023253033645025303464542524
:10436000303464210D0A00007C01002070B500206B
:10437000FA4D044605EB0411C96802F007FF641CFE
:10438000062CF7DBF64C10F0FF4F4FF0804508D0BD
:10439000012211462846FCF7ABFFFEF72AF86061C0
:1043A00070BDFEF726F86169401AB0F5FA7FF7D9BB
:1043B0002846BDE8704000220121FCF799BF2DE995
:1043C000FF4F002681B09A4693468946374611F141
:1043D000FF4F32D2E34D00246FF08608204603F0F1
:1043E00047F803465A46494600950198FFF7B8F842
:1043F00018B9B44200DA26460127641E4445EDDAB6
:10440000DFB1304603F034F803465A46494600957A
:104410000198FFF7A5F8002405EB8400006C02F07A
:10442000EBFF014652462046FFF75EFF641C042C5A
:10443000F2DB012005B0BDE8F08F0020FAE730B5CF
:1044400087B00446C8A1FDF79BFD002825D002A92E
:1044500005A8CDE9000104AB03AAC5A1204600F0E0
:1044600039FD002817D0C7A0FEF77EFC059802F0A2
:10447000FFFF0546049802F0FBFF0446039802F094
:10448000F7FF2A462146029BFFF799FF002802D139
:10449000C2A0FEF769FC07B030BDC6A12046FDF7FB
:1044A0006FFD28B164210120FDF77DFEC3A009E066
:1044B000C5A12046FDF764FD38B164210120FDF758
:1044C00072FEC3A0FFF797FCE5E7C5A12046FDF704
:1044D00057FD28B164210120FDF765FEC2A0F1E778
:1044E000C5A12046FDF74CFD28B164210120FDF750
:1044F0005AFEC3A0E6E7C6A12046FDF741FD28B15C
:1045000064210120FDF74FFEC3A0DBE7C6A12046D2
:10451000FDF736FD28B164210120FDF744FEC4A05B
:10452000D0E7C7A12046FDF72BFD28B1642101206B
:10453000FDF739FEC4A0C5E7C6A12046FDF720FD62
:1045400028B164210120FDF72EFEC4A009E0C7A117
:104550002046FDF715FD38B164210120FDF723FE4B
:10456000C4A0FFF721FA96E7C6A12046FDF708FD93
:1045700038B164210120FDF716FEC4A0FEF7FAFB56
:1045800089E7C7A12046FDF7FBFC002883D07448CB
:10459000017821B1012997D1002101707BE7012128
:1045A000FBE72DE9F34F417800786D4D01EB0020DA
:1045B00083B080B2E880A98881427DD028810840FC
:1045C000BB4FE8800024DFF8E0B2DFF8E09207F1AB
:1045D0000B00012640F2255AA0460190E98806FA10
:1045E00004F0084269D1A9880842B1484FF48061BB
:1045F0006ED000F0BBFD049873281CD1287810B150
:1046000001280AD017E05648183050F8240000F06E
:1046100049FD02465248183008E05148583050F8D9
:10462000240000F03FFD02464D48583050F8241059
:104630009F4800F056FD9FA19D48FDF7A1FC10F09A
:10464000FF0002D0384400F8018C9BA19848FDF788
:1046500097FCC0B1002251465846FCF70CFA89F885
:1046600000809648019900F0F9FC9449904800F0C8
:10467000F5FC89F80060012251465846FCF7FBF929
:104680008F48067020E08FA18948FDF779FCD8B1EA
:10469000002251465846FCF7EEF989F80080874819
:1046A000019900F0DBFC8549814800F0D7FC89F8CE
:1046B00000600122514601E02CE14DE05846FCF734
:1046C000DAF97F48022101704FF6FF70A88013E1EC
:1046D00000F04CFD049873281CD1287810B10128F3
:1046E0000AD017E01E48183050F8240000F0DAFC19
:1046F00002461B48183008E01948583050F824008A
:1047000000F0D0FC02461648583050F82410684893
:1047100000F0E7FC67A16648FDF732FC10F0FF00EF
:104720001AD0384464A10090FDF72AFCA8B1634870
:10473000009900F093FC614800F0B4FC5F4901442B
:104740005B4801F8018C5D4900F088FC5848FFF790
:1047500076FE5748FFF74FFBCEE0B5E0FC000020A7
:10476000640000205C1A0020244B4D533A000000E6
:10477000244B4D533A25642C25642C25642C256448
:104780002100000054727920746F2066696E6420E5
:104790006265737420706F733A0D0A0043616E276F
:1047A000742066696E64206265737420706F732173
:1047B00021210000245143210000000024444754DB
:1047C0003A332D372C312100245A432100000000B8
:1047D000244447543A382D31322C31210000000056
:1047E0002459432100000000244447543A31332D1A
:1047F00031372C31210000002451502100000000ED
:10480000244447543A31382D32312C3121000000F4
:10481000245A502100000000244447543A32322DDB
:1048200032362C31210000002459502100000000B4
:10483000244447543A32372D33312C3121000000C3
:104840002451532100000000244447543A312D31B3
:104850002C312100244A5121000000002330303542
:104860005031373030543135303021002446582112
:1048700000000000233030355031323030543135B3
:104880003030210024444A522100000023323535C3
:1048900050313530305432303030210D0A000000B4
:1048A000244D4F44452100000038014029000020DC
:1048B0007C0500205E000000240000007C01002038
:1048C0002A00002023000000AFF208010098FDF745
:1048D00057FB88B1D248009900F0C0FBD04800F0E7
:1048E000E1FBCF490144CF4801F8018CCC4900F0ED
:1048F000B5FBCC48FFF758F8641CE4B2102CFFF469
:104900006DAE2889A88005B06421BDE8F04F012074
:10491000FDF749BC8EE570B5C34DC44C2878E178ED
:10492000884203D168782179884207D06178E01CF9
:10493000FFF737FEE07828702079687070BD10B5F9
:10494000FDF757FDB84CA41E2169401A322807D341
:10495000FDF74FFD2061BDE81040B448FDF7B9BC3C
:1049600010BD70B5B24C2078002823D0B14D287806
:10497000012806D002280BD0032809D004280BD028
:104980000DE0A848FFF737FAA648FFF758FD06E004
:10499000A448FFF709F802E0A248FFF792FB0020C5
:1049A00028702070BDE87040012240F22551A248D5
:1049B000FCF761B870BD10B5FDF71BFD9A4CA41E45
:1049C000E168401AB0F57A7F0DD9FDF712FDE0607D
:1049D000607808B1002100E001210D20FDF737FBD0
:1049E0006078C043607010BD10B501210520FDF74F
:1049F0002EFB00210D20FDF72AFB6420FDF7A2FA13
:104A000000210520FDF723FB01210D20FDF71FFBF1
:104A10006420FDF797FA01210520FDF718FB00211E
:104A20000D20FDF714FB6420FDF78CFA0021052012
:104A3000FDF70DFB01210D20FDF709FB6420FDF7BB
:104A400081FA01210520FDF702FB00210D20FDF771
:104A5000FEFA6420FDF776FA00210520FDF7F7FA4B
:104A600001210D20FDF7F3FABDE810406420FDF7A9
:104A700069BA62B67047FDF7A7BC10B54FF4E130D4
:104A8000FDF7D2FE012240F225516C48FBF7F3FFFF
:104A90006BA0FEF77DF9BDE810406DA0FEF76AB986
:104AA00010B54FF4E130FDF75FFF012240F22551D0
:104AB0006148FBF7E0FFBDE8104069A0FEF754B97C
:104AC000FDF7B6BB2DE9F0410120FEF795F9FEF7A1
:104AD000D4F9C02266496748FEF7D3FA654D6648A7
:104AE00000262968814201D0C5E90006D5F8AC004E
:104AF00038280CD05FF0000005EB8001401CC0B2EC
:104B0000C1F88C600828F7D33820C5F8AC00DFF86E
:104B10006C81002405EB840008EB0417D0F88C00AE
:104B200000F2DC50788002F0A3FCC7E90206641CA6
:104B3000E4B2082CEED3BDE8F0410020FEF75CB9EA
:104B400010B5FDF79CFA0021BDE810400520FDF7E7
:104B50007EBA10B5FDF767FA0121BDE810400D20BF
:104B6000FDF775BAFDF754BAFDF7F8B9FDF7E8BBE4
:104B700008B5FDF7E5FBFDF7F1F9FDF749FAFFF799
:104B8000E8FFFFF7DDFFFEF7DBFEFFF79BFFFDF71A
:104B90004FFBFFF785FFFFF770FFFDF715FCFEF7F2
:104BA000D1FE62B62148364B0C300090354A36496A
:104BB0003648FEF7B9FCFEF7CAFEFDF7EDFBFFF73E
:104BC00013FFFFF7FCF900BFFFF7F5FEFFF7C9FE83
:104BD000FFF71DFAFFF7B3FEFFF79DFEFFF7C6FBD9
:104BE000F2E7FEF790BC10B54FF4E130FDF76BFE35
:104BF000012240F225512648FBF73DFFBDE8104059
:104C000024A0FEF7B4B8012080F31388254801687A
:104C1000254A01F4E06111430160BFF34F8FFEE7C5
:104C20007C0100207C05002066000020501A002036
:104C3000290000202A0000200038014000480040E0
:104C4000756172743320636865636B206F6B21003C
:104C50002332353550313530305432303030210048
:104C6000756172743120636865636B206F6B21001E
:104C700000F07F007C090020388B3401FC0000200C
:104C800000003E43000096420000D2420000DC4299
:104C900000440040756172743220636865636B2064
:104CA0006F6B21000CED00E00400FA050FB41CB599
:104CB000074B06AA7B4469460090059800F00BFB61
:104CC0000020694600F01AFB1CBC5DF814FB0000D4
:104CD0004506000070B5044685690068C10601D527
:104CE000302600E02026C00707D070BDD4E901219E
:104CF00030469047206A401C20626D1EF6D570BD7C
:104D000070B5044685690078C00707D170BDD4E945
:104D1000012120209047206A401C20626D1EF6D59C
:104D200070BD00002DE9F041064600241068752989
:104D3000314616A510D0AFF30080002802DA4042B9
:104D400013A507E031688A0701D512A502E04907DB
:104D500004D511A5012401E0AFF3008000210A224F
:104D600006F1240709E0B0FBF2FCB0FBF2F302FB12
:104D70001C00303078541846491C0028F3D12346D3
:104D80002A463046BDE8F04100F047BA0000000076
:104D90002D0000002B000000200000002DE9F05F36
:104DA000894604464FF0000ADFF824B1FB44C0F8FE
:104DB00020A02046E168884700287DD0252806D01D
:104DC000D4E901219047206A401C2062F1E70025C8
:104DD0005F462046E16888472028064607DB312EDB
:104DE00005D2B81910F8200C08B10543F1E7A8075F
:104DF00001D525F00405C4F81CA00027C4F818A0AC
:104E00002A2E09D0304601F079F838B304EB870830
:104E1000303EC8F8186019E059F8041B204604EB2E
:104E200087029161E1688847012F064618D1E06941
:104E3000002820DA25F020051DE0D8F8180000EB46
:104E4000800006EB40003038C8F818002046E168C2
:104E50008847064601F052F80028EED1012F0AD00B
:104E60002E2E08D12046E16888477F1C0646022F77
:104E700045F02005C4DBA069002803DA404245F074
:104E80000105A061E80701D025F01005A6B1A6F143
:104E90004100192802D8203645F400654A463146BB
:104EA000204625604D46FBF77DF960B1012807D00B
:104EB000ED1D25F0070000E007E000F1080978E7A4
:104EC00005F1040975E730467AE7206ABDE8F09FEE
:104ED000B62B00000FB400B58DB010A90990009159
:104EE0000B904FF0FF300A9000200C900648784459
:104EF0000690064878446A4607900F9909A800F082
:104F000017FA0DB05DF814FB5F0400007704000091
:104F10002DE9FF5F1D464FF0FF3B91464FF0000823
:104F20005F46D5E90146A96901987F1C8847296A2F
:104F3000824688470028F6D1BAF1FF3F0CD0002EF8
:104F400024F4C06419DD600614D5BAF12B0F09D022
:104F5000BAF12D0F0ED103E0584604B0BDE8F09F22
:104F600044F48064A96901987F1C8847761E8246B4
:104F7000002E02DDBAF1300F03D0B9F1000F26D0B8
:104F800032E0A969761E01987F1C44F400748847BA
:104F9000002E824605DDBAF1780F06D0BAF1580F1F
:104FA00003D0B9F1000F10D01EE0B9F1000F02D00C
:104FB000B9F1100F18D1A969761E01987F1C24F44D
:104FC000007488478246102002E0082000E00A2092
:104FD000814609E0A96908FB0908761E01987F1C33
:104FE00044F4007488478246002E05DD4946504649
:104FF00000F089F90028EDDAE96901988847A005F1
:1050000002D46FF00100A8E7E00725D1600613D5B0
:10501000600502D5C8F1000000E0404629680A1D7D
:105020002A600968220501D5087015E0220701D51C
:10503000088011E008600FE02868011D2960006801
:10504000210502D580F8008006E0210702D5A0F8EE
:10505000008001E0C0F8008038467EE740EA0103A6
:10506000024630B59B0710D14FF0013400E008C272
:1050700008C91D1B9D4315EAC41FF8D013F0FF019A
:1050800002F8011B0DD01B0AF8E711F8013B002BB9
:1050900002F8013B05D011F8013B002B02F8013B5F
:1050A000F3D130BD10B5431C02E010F8011B71B103
:1050B0008107FAD14FF0013202C88C1A8C4314EAEE
:1050C000C211F9D0C01A0A0603D0C01E10BDC01A02
:1050D00010BD0A0401D0801E10BD0902FCD0401E84
:1050E00010BD032A40F2308010F0030C00F0158050
:1050F00011F8013BBCF1020F624498BF11F801CBDB
:1051000000F8013B38BF11F8013BA2F1040298BF3F
:1051100000F801CB38BF00F8013B11F0030300F0A9
:105120003781083AC0F0088051F8043B083A51F83A
:1051300004CBA0E80810F5E7121D5CBF51F8043B52
:1051400040F8043BAFF30080D20724BF11F8013BC5
:1051500011F801CB48BF11F8012B24BF00F8013B27
:1051600000F801CB48BF00F8012B70474FF0000258
:105170000429C0F0128010F0030C00F01B80CCF169
:10518000040CBCF1020F18BF00F8012BA8BF20F8D7
:10519000022BA1EB0C0100F00DB85FEAC17C24BF2B
:1051A00000F8012B00F8012B48BF00F8012B7047D5
:1051B0004FF0000200B5134694469646203922BFB0
:1051C000A0E80C50A0E80C50B1F12001BFF4F7AFFB
:1051D000090728BFA0E80C5048BF0CC05DF804EBDD
:1051E000890028BF40F8042B08BF704748BF20F84B
:1051F000022B11F0804F18BF00F8012B7047704749
:105200007047704710B500F0F5F8006810BD10B594
:10521000044600F0EFF8046010BD2DE9F0470D469C
:1052200099469246044600F124080168880604D590
:10523000E06921F01001216000E00120A84201DDB9
:10524000471B00E00027A1697A1902EB0900081A40
:10525000A0612078C00602D42046FFF73BFD00265F
:1052600008E0D4E901211AF806009047206A401CA2
:10527000761C20624E45F4DB2078C0060AD5204615
:10528000FFF728FD06E0D4E9012130209047206A8D
:10529000401C2062381EA7F10107F4DC07E0D4E9C6
:1052A000012118F805009047206A401C2062281E42
:1052B000A5F10105F3DC2046FFF722FD207800066A
:1052C00002D50220BDE8F0870120FBE701694A1CF6
:1052D00002610878704700B58FB0CDE90131002137
:1052E000059105497944CDE9031011466846FFF759
:1052F00055FD0FB000BD0000E5FFFFFF0A6802F892
:10530000010B0A6070473A2800D2303820F02002A2
:10531000412A01D3A2F13700884201D34FF0FF3078
:105320007047000002681144137801601846704706
:10533000D1600549794451610449794411620021E1
:105340001161114600F064B8EDFFFFFFBF000000DF
:10535000426842B1016811F8013B23B1521EC0E915
:105360000012184670470121C160881E70474268CC
:105370005AB1C368016843B983688B4205D0491E9E
:10538000521CC0E90012002070474FF0FF307047F8
:1053900010B5203AC0F00B80B1E81850203AA0E8D0
:1053A0001850B1E81850A0E81850BFF4F5AF5FEA04
:1053B000027C24BFB1E81850A0E8185044BF18C9B7
:1053C00018C0BDE810405FEA827C24BF51F8043B5E
:1053D00040F8043B08BF7047D20728BF31F8023BB2
:1053E00048BF11F8012B28BF20F8023B48BF00F846
:1053F000012B704700487047B41A002010B50446CE
:1054000000F0EAF90068005D00F0010010BD000046
:105410002DE9F34F4FF0000A0C4656468DB001209F
:105420000C9001F10C000B9062690B9801219047E0
:10543000051E2DD0252D2CD0216A8847C0B1626968
:105440000B9801219047216A88470028F7D16269AB
:10545000411E0B98904700E0761CA1690D98884783
:10546000216A88470028F7D1E1690D988847DBE772
:10547000A1690D988847A842074601D1761CD3E759
:10548000E1690D9888477F1C02D1BAF1000F6FD0F7
:105490006BE162690B9800273D46394690472A2800
:1054A00004D162690B98012190470125DFF8D08271
:1054B00062690B9801219047A0F130010A290AD2B4
:1054C0004745E5DC07EB870100EB4107303FDFD4C0
:1054D00045F01005ECE7E90601D46FF000476C28B1
:1054E0000AD04C2814D0682815D06A280DD074280A
:1054F0001CD07A281AD01DE062690B9801219047D0
:105500006C2802D045F0040514E045F002050DE0DA
:1055100045F020050AE062690B9801219047682850
:1055200002D045F0080505E045F4006562690B9876
:1055300001219047C4E9015765283DD019DC58285E
:105540007AD00CDC452837D004DC252826D0412829
:105550009ED131E046282FD0472899D12CE05B28F6
:1055600077D0612828D063287CD0642823D15AE0E2
:10557000F6E06F2848D008DC66281DD067281BD0CD
:10558000692821D06E2816D127E0702845D07328CD
:1055900068D0752847D078280DD14DE0A1690D98C5
:1055A0008847252805463FF469AFE1690D9888478B
:1055B0006D1C3FF46AAFD8E00D9923466A466FF040
:1055C0000100AFF30080C5E045F0400023464FF0F6
:1055D00000026060A80736D43EE0E8077FF447AFDA
:1055E0002068011D21600068290501D506701BE7B0
:1055F000290701D5068017E7A90703D5F117C0E9E8
:10560000006111E706600FE745F0400023464FF0C8
:1056100008026060A80716D41EE040F60E0125EAD5
:105620000100606016E045F0400023464FF00A029A
:105630006060A80707D40FE045F040006060A8074D
:1056400008D5234610220D996FF00100AFF30080BA
:1056500080E007E0102223460D996FF00100FFF76C
:1056600057FC77E04FF0000963284F46C8464B4689
:10567000CB4602D05B2806D038E0E80601D40120F2
:10568000A060012732E06269D4F80CB00B980121C8
:1056900090475E2807D14FF0010949466269D4F866
:1056A0000CB00B989047216939B900210A4603AB29
:1056B00043F82120491C0829FADBD8B3216949B3F2
:1056C00008F1010862690B98012190475D28F4D127
:1056D000B9F1000F09D0002003A951F82020D243CE
:1056E00041F82020401C0828F7DB03AB2069002884
:1056F00020794FEA40701ED05B462246CDF80080EC
:10570000CDE901970D9900286FF0010020DAAFF381
:1057100000801FE0C11703AA00EBD1614B1121F0FB
:105720001F0102EB8302411A1368012088400343E2
:105730001360C7E719E00D99224600286FF00100B9
:10574000009702DAAFF3008004E0AFF3008001E0DD
:10575000AFF3008000280ADA401C06D10C9820B173
:105760004FF0FF300FB0BDE8F08F5046FAE7E90781
:1057700001D10AF1010A064400200C9054E6000011
:10578000CCCCCC0C00487047B41A00207546FFF70B
:10579000F9FFAE4605006946534620F007008546EE
:1057A00018B020B5FCF7AAFBBDE820404FF000067A
:1057B0004FF000074FF000084FF0000B21F00701F9
:1057C000AC46ACE8C009ACE8C009ACE8C009ACE83C
:1057D000C0098D467047000010B500F00FF8001D9D
:1057E00010BD00BF4D0D000010B50446AFF30080A2
:1057F0002046BDE81040FAF7F0BC000000487047B2
:10580000D41A00204FF0013C50F8042B51F8043B0F
:105810009A4221D1A2EB0C03934313EACC1317D184
:1058200050F8042B51F8043B9A4215D1A2EB0C031B
:10583000934313EACC130BD150F8042B51F8043BDB
:105840009A4209D1A2EB0C03934313EACC13DBD0A9
:105850004FF00000704700BFD01A01BAB1FA81F1D1
:1058600001F0180122FA01F0CB40C1F12001DBB2B6
:10587000C0B2C01A2CFA01F3D11A914311EAC31134
:10588000E6D1704701491820ABBEFEE726000200B2
:105890007047490050EAC12018BF04204A0D18BFC4
:1058A00040F0010040F2FF72B2EB515F08BF40F0E0
:1058B0000200012808BF0520704700002DE9F74FBE
:1058C000144694B00021C4E902111599079121F002
:1058D0000045C9498D4206DC1599C4E9000117B09D
:1058E0000020BDE8F08FC549DFF814A3A9423CDDD4
:1058F0000799C44E0029C44FC44A1599534619DD6F
:1059000001F02EFB554506D0C14AC24B01F028FBE1
:10591000C4E900010AE04FF0D352BE4B01F020FB76
:1059200032463B4601F01CFBC4E9000117B00120E0
:10593000BDE8F08F00F044FE554506D0B44AB54BA3
:1059400000F03EFEC4E900010AE04FF0D352B14B33
:1059500000F036FE32463B4600F032FEC4E900015C
:1059600017B04FF0FF30BDE8F08FAB49A942159951
:1059700078DB21F0004183468846A84AA84B01F015
:10598000C9F80022A74B00F01BFE01F02DF809908A
:1059900001F059F806460F469C4A534601F0BAF802
:1059A00043465A4601F0EAF980468A46984A994B9E
:1059B0003046394601F0AEF82A0D01250B924246D9
:1059C000534601F0DBF9032DC4E9000139D00B98EF
:1059D000C1F30A51401A05EB45111139814230DA01
:1059E0009148C346784400EB0510CDF80CA00C900C
:1059F000D0E900233046394601F08CF802460B46C8
:105A0000049106905846039901F0AAFA80468A4606
:105A100002460B465846039901F0A2FA049B069AE7
:105A200001F09EFA83460C9803913946D0E902238F
:105A3000304601F06FF85A46039B01F091FA6D1C55
:105A4000BDE707980028A2BF099817B0BDE8F08FFE
:105A5000616881F000416160099817B04042BDE87B
:105A6000F08FFFE784461598C1F31301C0F30A5085
:105A7000A0F2F5304FEA601800F01F06C6F12000D2
:105A8000139000200690079041F4801E05206D467B
:105A900076B1664A08EB00017A4452F8213002EBF5
:105AA0008101B3404A68139922FA01F1194305E0D4
:105AB0005F4908EB0002794451F82210A1FB0E2740
:105AC000A1FB0C131A449A4234BF0123002303EBB9
:105AD000070A05EB8003D3E901B70F448F4234BFB7
