:100000000C94AB000C94D3000C94D3000C94D3004C
:100010000C94D3000C94D3000C94D3000C94D30014
:100020000C94D3000C94D3000C94D3000C94811442
:100030000C94D3000C94D3000C94D3000C94D300F4
:100040000C9437140C94D3000C9405140C94DF1307
:100050000C94D3000C94D3000C94D3000C94D300D4
:100060000C94D3000C94D300084AD73B3BCE016ECE
:1000700084BCBFFDC12F3D6C74319ABD56833DDAFF
:100080003D00C77F11BED9E4BB4C3E916BAAAABE0E
:10009000000000803F072C7AA5BA6CC590DA3B932C
:1000A00065FC8BBC53F810FD3C5692834DBD879D7B
:1000B0003AB63DCBC9BF5BBE73DA0FC93F05A84C4A
:1000C000CDB2D44EB93836A9020C50B99186880801
:1000D0003CA6AAAA2ABE000000803F006364696EA5
:1000E0006F70737578585B004100596F75722041CD
:1000F0006374696F6E3A000000000800020100009E
:1001000003040700000000000000000000000023BE
:10011000002600290000000000250028002B000018
:10012000000000240027002A0001020408102040DB
:1001300080010204081020010204081020040404B5
:100140000404040404020202020202030303030380
:1001500003003D15272111241FBECFEFD8E0DEBFDD
:10016000CDBF13E0A0E0B1E0EAEBFBE502C00590F3
:100170000D92A038B107D9F726E0A0E8B3E001C09E
:100180001D92AD3CB207E1F710E0CAEAD0E004C02E
:100190002197FE010E941726C93AD107C9F70E948C
:1001A000B4150C94D02D0C940000CF93DF9390E005
:1001B00080E030E020E0E8EEF3E0A4E6BAE0E90118
:1001C000CA56DB4F4881442309F448C0443509F03E
:1001D00042C0E901C956DB4F6881062E000C770B3F
:1001E000605371096E9FA0016F9F500D7E9F500D4F
:1001F0001124E901C856DB4F6881062E000C770BED
:1002000060537109A69FE001A79FD00D11244C0FE8
:100210005D1FE901C756DB4F6881062E000C770B86
:1002200060537109B69FE001B79FD00D11244C0FA8
:100230005D1FE901C656DB4F6881062E000C770B67
:1002400060537109460F571F841795070CF4CA01B4
:100250002C5F3F4FB4CF2F5F3F4FB1CFDF91CF9196
:100260000895BC0120917F043091800440917D0469
:1002700050917E04422753274823572391E0452B72
:1002800009F490E0209530952623372381E0232B35
:1002900009F480E089230895BC0120917D04309108
:1002A0007E0440917F0450918004422753274823C5
:1002B000572391E0452B09F490E0209530952623B3
:1002C000372381E0232B09F480E0892308959FB729
:1002D000F894A7E6B4E09196ED91FC919297808115
:1002E00090962C91822B80839FBF08959FB7F8949E
:1002F000A7E6B4E05E96ED91FC915F9780815D96F4
:100300002C91822B80839FBF08959FB7F894A7E616
:10031000B4E05B96ED91FC915C9780815A962C91AC
:10032000822B80839FBF08958F929F92AF92BF923E
:10033000CF92DF92EF92FF920F931F93CF93DF93B1
:10034000D0E0C0E0D12C082F880F110B8BE0E82EF5
:10035000F12C812C912C54018394CC2EC8010C2EAD
:1003600002C0959587950A94E2F780FF3FC00E94EE
:1003700076018FB7F894E0918204F0918304208194
:10038000909181049095922390838FBFC70101972C
:10039000F1F7E0918B04F0918C04808190918A04B4
:1003A000892351F0D501C40104C0880F991FAA1FE9
:1003B000BB1FCA94D2F7D82A0E9485012196C83063
:1003C000D10559F60E94760187E090E00197F1F798
:1003D0008D2DDF91CF911F910F91FF90EF90DF90C6
:1003E000CF90BF90AF909F908F9008959FB7F89453
:1003F000E0918504F09186042081809184048095A9
:10040000822380839FBFB5CF9FB7F894A7E6B4E05F
:100410009196ED91FC919297208190968C91809588
:10042000822380839FBF0895AF92BF92CF92DF92C5
:10043000EF92FF920F931F93CF93DF936C017B0199
:100440008B01040F151FEB015E01AE18BF08C0172A
:10045000D10759F06991D601ED91FC910190F0819D
:10046000E02DC6010995892B79F7C501DF91CF9160
:100470001F910F91FF90EF90DF90CF90BF90AF90C2
:100480000895FC01538D448D252F30E0842F90E09A
:10049000821B930B541710F0CF960895019708957F
:1004A000FC01918D828D981761F0A28DAE0FBF2F48
:1004B000B11D5D968C91928D9F5F9F73928F90E09E
:1004C00008958FEF9FEF0895FC01918D828D98170D
:1004D00031F0828DE80FF11D858D90E008958FEF4A
:1004E0009FEF0895FC01918D228D892F90E0805C13
:1004F0009F4F821B91098F739927089580EE95E095
:100500000E94720221E0892B09F420E0822F0895D5
:10051000FC01A48DA80FB92FB11DA35ABF4F2C9178
:10052000848D90E001968F739927848FA689B7896F
:100530002C93A089B1898C91837080648C93938D66
:10054000848D981306C00288F389E02D80818F7D09
:1005500080830895EF92FF920F931F93CF93DF93C1
:10056000EC0181E0888F9B8D8C8D98131AC0E889EF
:10057000F989808185FF15C09FB7F894EE89FF89BE
:100580006083E889F98980818370806480839FBF5C
:1005900081E090E0DF91CF911F910F91FF90EF905C
:1005A0000895F62E0B8D10E00F5F1F4F0F7311276C
:1005B000E02E8C8D8E110CC00FB607FCFACFE889A7
:1005C000F989808185FFF5CFCE010E948802F1CFA5
:1005D000EB8DEC0FFD2FF11DE35AFF4FF0829FB71B
:1005E000F8940B8FEA89FB8980818062CFCFCF930B
:1005F000DF93EC01888D8823B9F0AA89BB89E8894B
:10060000F9898C9185FD03C0808186FD0DC00FB6F0
:1006100007FCF7CF8C9185FFF2CF808185FFEDCF6E
:10062000CE010E948802E9CFDF91CF91089590E03A
:10063000FC01E950FF4F2491FC01E75DFE4F34912E
:10064000FC01E35CFE4FE491EE23C9F0222339F074
:10065000233001F1A8F4213019F1223029F1F0E022
:10066000EE0FFF1FEB5EFE4FA591B4918FB7F8948C
:10067000EC91611126C030953E233C938FBF0895C5
:100680002730A9F02830C9F0243049F78091800044
:100690008F7D03C0809180008F7780938000DFCFB3
:1006A00084B58F7784BDDBCF84B58F7DFBCF809100
:1006B000B0008F778093B000D2CF8091B0008F7D53
:1006C000F9CF3E2BDACFCF93DF9390E0FC01E75DCB
:1006D000FE4F2491835C9E4FFC0184918823C9F0D6
:1006E00090E0880F991FFC01E15EFE4FA591B49147
:1006F000FC01EB5EFE4FC591D49161110DC09FB717
:10070000F8948C91209582238C93888128232883C8
:100710009FBFDF91CF910895623051F49FB7F89455
:100720003C91822F809583238C93E8812E2BEFCFF1
:100730008FB7F894EC912E2B2C938FBFEACF3FB755
:10074000F8948091930390919403A0919503B091B4
:10075000960326B5A89B05C02F3F19F00196A11D51
:10076000B11D3FBFBA2FA92F982F8827BC01CD01FB
:10077000620F711D811D911D42E0660F771F881F5A
:10078000991F4A95D1F708958F929F92AF92BF9289
:10079000CF92DF92EF92FF926B017C010E949F0348
:1007A0004B015C01C114D104E104F104B9F00E94D1
:1007B0009F03681979098A099B09683E734081057E
:1007C000910580F321E0C21AD108E108F10888EE12
:1007D000880E83E0981EA11CB11CE4CFFF90EF901F
:1007E000DF90CF90BF90AF909F908F900895EF9241
:1007F000FF920F931F93CF93DF937C01062F0E94EC
:100800000402E70110E0CE018E199F0980179107BD
:1008100024F489910E949401F6CF0E9467016091AF
:10082000910470E090E080E0DF91CF911F910F91F3
:10083000FF90EF900C94C4032FB7F89460918F034E
:100840007091900380919103909192032FBF08952E
:100850006F927F928F929F92AF92BF92CF92DF92D0
:10086000EF92FF921F93CF93DF93CDB7DEB7299717
:100870000FB6F894DEBF0FBECDBF0E941C04FE0170
:10088000339687E0DF011D928A95E9F781E089833D
:1008900082E48A8315E027E0C22ED12C7E01BAE0E3
:1008A000EB0EF11C3CE7A32E34E0B32E0E94760140
:1008B0000E9485010E940402C6010197F1F7FE0122
:1008C00031963F0197E6892E94E0992ED3018D91C0
:1008D0003D010E949401F40181934F016E147F0445
:1008E000A9F780916804893769F480E7882E84E04D
:1008F000982E80E00E949401D4018D934D01AA1698
:10090000BB06B9F70E94670180916804807F803739
:1009100021F165E08AE691E00E94F70369E081E653
:1009200091E00E94F70380919304882329F065E009
:100930008CE591E00E94F70380919404882329F0CC
:1009400069E083E591E00E94F70369E08AE491E0C1
:100950000E94F703115009F0A9CF80917F04909174
:10096000800490937E0480937D0480916A0490912A
:100970006B049093800480937F040E941C04609316
:100980008D0470938E0480938F0490939004299625
:100990000FB6F894DEBF0FBECDBFDF91CF911F9190
:1009A000FF90EF90DF90CF90BF90AF909F908F908F
:1009B0007F906F900895DC01EC91EC3090F51196EA
:1009C0008C91119728E830E0281B310987FD339579
:1009D000220F331F220F331F6217730784F0129602
:1009E0008C9128E532E0281B310987FD3395220FD1
:1009F000331F220F331F621773070CF49B01225021
:100A00003109220F331F4FB7F8948E2F90E0FC016D
:100A1000EE0FFF1FE80FF91FE358F94F32832183D0
:100A20004FBF0895892B79F41092800082E0809363
:100A300081001092850010928400B19A80916F001D
:100A4000826080936F0008950F931F93CF93DB0113
:100A5000FC0101E010E02081222339F13C912313B5
:100A600022C09D01D901CC912F5F3F4FCC2371F063
:100A7000AF014F5F5F4FE081CE1799F0261B370B18
:100A8000F801E21BF30BE40FF51FDB012C912111A0
:100A9000E2CF9F01281B390BC901CF911F910F9104
:100AA0000895FA01DFCF3196D6CF90E080E0F5CF00
:100AB00061E0FC0187810C94170360E0FC018781F1
:100AC0000C9417038EBD00000DB407FEFDCF8EB54C
:100AD0000895862F0C94620584E08093A80682EA2C
:100AE00096E00E945D0589EB0E94620582EA96E02D
:100AF0000E9458058FE090E00197F1F79FB7F894B6
:100B000080919504882319F08150809395048091F9
:100B10009504811103C08CB58F7B8CBD9FBF089558
:100B2000CF9382EA96E00E945D0585E00E9462050F
:100B30008FEF0E946205C82F82EA96E00E94580556
:100B40008C2F8170CF910895CF92DF92EF92FF9218
:100B50000F931F93CF93DF93CDB7DEB728970FB6D0
:100B6000F894DEBF0FBECDBFC090A606D090A706FA
:100B7000F12CE12C82EA96E00E945D0585E00E945E
:100B8000620580E00E94620580FD14C082EA96E062
:100B90000E94580581E028960FB6F894DEBF0FBE7C
:100BA000CDBFDF91CF911F910F91FF90EF90DF901C
:100BB000CF9008950E941C04C114D104E104F104F3
:100BC00069F009811A812B813C81601B710B820BBA
:100BD000930B6C157D058E059F0598F282EA96E0D1
:100BE0000E94580580E0D7CFEF92FF920F931F939A
:100BF000CF93DF93C72FD82F7A0189010E94A405D4
:100C0000882351F182EA96E00E945D0583E00E940C
:100C100062058D2F0E9462058C2F0E94620580E084
:100C20000E946205E701E00EF11E80E00E9462056D
:100C30008993CE15DF05C9F782EA96E00E94580530
:100C40000E9490058111FCCFC801DF91CF911F91C7
:100C50000F91FF90EF90089510E000E0F5CFCF9353
:100C60008AE08093A90662E08CE00E946303CFB71C
:100C7000F89480919504811127C0E7E4F1E0849114
:100C8000E3E3F1E09491E82FF0E0EE0FFF1FE15E67
:100C9000FE4FA591B491EC91E92321F461E08AE043
:100CA0000E94170361E08AE00E9463038CB58061B3
:100CB0008CBD8CB580648CBD61E08DE00E946303C7
:100CC00061E08BE00E946303809195048F5F8093C5
:100CD0009504CFBF8CB58F7D8CBD8CB58C7F8CBDC2
:100CE0008DB581608DBD8CB5837F8CBD82EA96E029
:100CF0000E94580588EC90E09093A7068093A60682
:100D000084E08093A80682EA96E00E945D058BEA63
:100D10000E94620582EA96E00E9458058FE090E00A
:100D20000197F1F786E08093A80681E0CF910895BE
:100D300082EA96E00E945D058091A8060E94620505
:100D400082EA96E00C945805CF93DF93C72FD82FF3
:100D50000E94980682EA96E00E945D0580E20E9469
:100D600062058D2F0E9462058C2F0E94620580E033
:100D70000E94620582EA96E00E9458050E94900552
:100D80008111FCCF81E0DF91CF910895FC010190AA
:100D90000020E9F73197AF01481B590BBC0180EEE9
:100DA00095E00C941402CF92DF92EF92FF920F9392
:100DB0001F93CF93DF93CDB7DEB7A1970FB6F8940B
:100DC000DEBF0FBECDBF9B01AC0119A28E010F5D2E
:100DD0001F4F8AE0C82ED12CE12CF12CCA01B90199
:100DE000A70196010E949622605DF80162938F012F
:100DF000211531054105510589F73097C9F0CF011B
:100E00000E94C6068C0180EA91E00E94C606800F0F
:100E1000911FA1960FB6F894DEBF0FBECDBFDF9134
:100E2000CF911F910F91FF90EF90DF90CF90089599
:100E300010E000E0E8CFCF93DF930E94C606EC01FC
:100E400080EA91E00E94C6068C0F9D1FDF91CF9132
:100E500008953F924F925F926F927F928F929F92EE
:100E6000AF92BF92CF92DF92EF92FF920F931F93B8
:100E7000CF93DF936A0179014B015C01820E931ECF
:100E8000A11CB11C892C9A2CAB2CBB242401672FEC
:100E9000782F892F9927EB0110E000E0C415D505C4
:100EA00078F50E94A405882309F45FC00E94980683
:100EB00082EA96E00E945D0582E00E9462058D2F25
:100EC0000E9462058C2F0E94620580E00E946205EC
:100ED000312C3601600E711EF301E30DF11D80818E
:100EE0000E94620581E0830D9FEF391207C01395C0
:100EF00082EA96E00E9458052196D0CF382EECCF9A
:100F00000E151F0568F50E94A405882371F10E9443
:100F1000980682EA96E00E945D0582E00E946205E2
:100F2000892D0E946205882D0E94620580E00E9442
:100F30006205B12CE701C01BD10B8B2D90E0C817C7
:100F4000D90750F08C0D9D1DFC01E00FF11F808131
:100F50000E946205B394F1CF82EA96E00E945805A0
:100F60000E9490058111FCCF8701C801DF91CF91CC
:100F70001F910F91FF90EF90DF90CF90BF90AF90B7
:100F80009F908F907F906F905F904F903F900895CB
:100F90000E942F0660E070EF8FEF9FEF0E94A40683
:100FA00027E530E04EE953E060E070EF8FEF9FEF10
:100FB0000E9429070C946C050F931F93CF93DF9326
:100FC0008C01D0E0C0E0F801EC0FFD1F64916623B6
:100FD00041F080EE95E00E94AA02892B11F0219643
:100FE000F2CF80EA91E00E94C6068C0F9D1FDF9130
:100FF000CF911F910F9108952F923F924F925F9240
:101000006F927F928F929F92AF92BF92CF92DF9218
:10101000EF92FF920F931F93CF93DF9300D000D0F6
:10102000CDB7DEB79C838B83FC018081833261F472
:101030008481803549F48581813231F464EF71E037
:1010400080E090E00E94C4038B819C810E941B077A
:1010500020918A0330918B03EB81FC818081232BCB
:1010600009F441C0833241F58481803529F58185B9
:10107000813211F521812053330B44E6429FC00198
:10108000439F900D11242281FAE02F9F800D911D26
:101090001124805E9140EB81FC8123812053330B2E
:1010A000820F931F9093890380938803892B21F4E7
:1010B00010928B0310928A030F900F900F900F9055
:1010C000DF91CF911F910F91FF90EF90DF90CF9024
:1010D000BF90AF909F908F907F906F905F904F9058
:1010E0003F902F900895833209F0AEC1EB81FC81CF
:1010F0008481803509F0ABC18581833509F059C100
:101100008681833409F0A3C187818B3409F09FC1A4
:1011100081818053990B34E6389F8001399F100DEF
:10112000112482818053990B2AE0289FA001299FD6
:10113000500D1124040F151F83818053990B080F44
:10114000191F10938903009388030630110508F0D6
:10115000B3CF81858053990B389F7001399FF00C74
:10116000112482858053990B289FA001299F500D3F
:101170001124E40EF51E83858053990BE80EF91EA9
:10118000FFE7EF16F1040CF097CF6801CC0CDD1CE3
:10119000C601800F911F9C012954394F5901F90153
:1011A00080818C3008F04CC0F801E258FE4F9080EE
:1011B00061E0892D0E946303F5018081282F30E0D2
:1011C000F901EE0FFF1FE20FF31FE358F94F292D2E
:1011D0002F739081907C922B9083F5011182128263
:1011E0002CE0622F0E942025829FB001112430E064
:1011F00020E0AB01420F531FFA01EE0FFF1FE40F77
:10120000F51FE358F94F908196FD08C02F5F3F4FBF
:101210002C30310571F790E00E941205F601E00FC5
:10122000F11FE954F94FE0818E2F90E0FC01EE0FA1
:10123000FF1FE80FF91FE358F94F80818064808316
:10124000EB81FC8180858B3209F077C08CE0809F38
:101250009001819F300D11242E5F3E4F3A832983E8
:10126000860109511C4FF80160817181072E000C25
:10127000880B990B0E943F219B01AC01E981FA8107
:1012800062817381848195810E94C9224B015C0136
:10129000B7010F2C000C880B990B0E943F219B017A
:1012A000AC01C501B4010E94CA22E981FA816283BE
:1012B000738384839583F801F182E0820E94C807DA
:1012C00080918803909189032CE0289FA001299F99
:1012D000500D11244E5F5E4F5A83498340E050E821
:1012E0006BEB74E4E981FA814283538364837583F1
:1012F000880F991FFC01E951FC4F60817181CB017E
:1013000084529A4FE981FA819183808384E690E048
:1013100097838683072E000C880B990B0E943F2130
:1013200020E030E040EA50E40E946A23E981FA813B
:101330006087718782879387BFCE8D3209F0BECFD9
:101340008CE0809F9001819F300D11242E5F3E4FD5
:101350003A832983860109511C4FF801608171810C
:10136000072E000C880B990B0E943F219B01AC01BA
:10137000E981FA8162817381848195810E94C92209
:101380004B015C01B7010F2C000C880B990B0E94DC
:101390003F219B01AC01C501B4010E94C922E98132
:1013A000FA816283738384839583F194E194F108D5
:1013B00082CF843409F04BC0EB81FC818681833578
:1013C00009F045C08781843509F041C0218120534F
:1013D000330B44E6429FC001439F900D11242281AC
:1013E000FAE02F9F800D911D1124805E9140EB81CA
:1013F000FC8123812053330B820F931F9093890329
:10140000809388038630910508F056CE2CE0289F03
:10141000A001299F500D11244E5F5E4F5A834983CE
:101420008FE692E1A3E8BAE3FA0180879187A28769
:10143000B38762817381848195810E94E323E9816E
:10144000FA817183608338CE8B3709F035CEEB811A
:10145000FC8101900020E9F731974F012B813C81FD
:10146000821A930A109289031092880310928703BC
:1014700010928603109285031092840310928303C6
:1014800010928203C0908003D0908103B12CA12CD4
:1014900030E020E090E080E02815390508F043C1F5
:1014A000EB81FC81E20FF31F408189010F5F1F4F29
:1014B0004332B9F4EB81FC81E00FF11F40814035EC
:1014C00061F18016910641F15AE0589F9001599FB1
:1014D000300D1124C901C097840F911D0F5F1F4F5C
:1014E000E9CF403501F5EB81FC81E00FF11F408130
:1014F000443599F08016910679F0EAE0EA9D900172
:10150000EB9D300D11245901F0E3AF1AB108A40E80
:10151000B11C0F5F1F4FE7CF8401980121503109A3
:101520002F5F3F4FB9CF4435D9F7F12CE12CEB8138
:10153000FC81E00FF11F4081413291F0801691064D
:1015400079F05AE05E9D90015F9D300D1124790184
:10155000E0E3EE1AF108E40EF11C0F5F1F4FE7CF36
:10156000F4E1EF16F10418F464E1E62EF12C8F3F5C
:10157000910509F062C0C501845F9140813D9740AB
:1015800008F055C030E1E31637E2F30608F04FC02B
:10159000C70164E170E00E942C2590E080E00E9489
:1015A0003D212B013C0147EE53E05A83498352E031
:1015B000252E51E0352EE981FA81C190D190FA8330
:1015C000E983CA0CDB1CF4EFCF16F1E0DF0620F450
:1015D00044EFC42EDD24D39425ECC21629E0D206B4
:1015E00020F034ECC32E39E0D32EF101D182C08239
:1015F000F782E682B60190E080E00E943D21F10191
:1016000022813381448155810E94C922A301920124
:101610000E946A23F1016087718782879387FCE0CB
:101620002F0E311C29813A81235F334021F6980126
:10163000B12CA12C90E080E073CF86309105B8F7F3
:101640009501245F3140213D374088F7E1E1EE16F6
:10165000E7E2FE0660F7FC01EE0FFF1FE951FC4FC9
:1016600020813181A20EB31EF5ECAF16F9E0BF0662
:1016700008F04CC02CE0289FF001299FF00D1124A8
:10168000EE5FFE4FB182A0825CE0589FF001599F4F
:10169000F00D1124EE5FFE4F20813181243F314057
:1016A00020F424EF31E0318320834CE0489F900107
:1016B000499F300D1124C9018E5F9E4F5C01FC01D2
:1016C000F782E6826081718190E080E00E943D2196
:1016D000F50122813381448155810E94C9222B0169
:1016E0003C01C70164E170E00E942C2590E080E09D
:1016F0000E943D219B01AC01C301B2010E946A23FB
:10170000F501608771878287938791CF3CE0389F8E
:10171000F001399FF00D1124EE5FFE4F44EC59E0CB
:1017200051834083B1CF9093890380938803309392
:10173000830320938203B0928703A0928603D09202
:101740008103C09280031092850310928403B4CC6D
:10175000CF93DF93EC010E942F06BE01DD0F880BB3
:10176000990B29E0660F771F881F991F2A95D1F7DB
:101770002DEF30E046E954E00E94F4050E94D500C8
:10178000E7E0F4E080839183990F990B909309042B
:1017900090930A0490930B0490930C0490930D047F
:1017A00090930E0486E994E00E94FC07DF91CF91AC
:1017B0000C946C054F925F926F927F928F929F92E2
:1017C000AF92BF92CF92DF92EF92FF920F931F934F
:1017D000CF93DF93CDB7DEB7A0970FB6F894DEBFF7
:1017E0000FBECDBF29833A834B835C832701A98E2B
:1017F000BA8ECB8EDC8E20E030E040E251E40E94D5
:101800009E216B017C0120E030E040E251E46981DF
:101810007A818B819C810E949E214B015C0120E09A
:1018200030E040E251E4C801B2010E949E212B0148
:101830003C018091940590919505A0919605B091F9
:10184000970589839A83AB83BC838091A00590918F
:10185000A105A091A205B091A3058D839E83AF83BE
:10186000B88720E030E0A901C701B6010E94382105
:10187000882309F4A4C2A5019401C701B6010E94FE
:101880006A230E94362320E030E044E353E40E94C0
:101890009E212AED3FE049E450E40E946A23698BCF
:1018A0007A8B8B8B9C8BA7019601C701B6010E9496
:1018B0009E216B017C01A5019401C501B4010E9428
:1018C0009E219B01AC01C701B6010E94CA220E9461
:1018D000B3244B015C012AED3FE049E450E4698DFB
:1018E0007A8D8B8D9C8D0E949E2120E030E044E318
:1018F00053E40E946A236B017C010E9465236D877B
:101900007E878F87988B29813A814B815C81C301C7
:10191000B2010E94C9222B013C01C701B6010E94FD
:10192000A5249B01AC016D817E818F8198850E94E9
:101930009E219B01AC01C301B2010E94C9226987AB
:101940007A878B879C8729813A814B815C815058AB
:101950000E94382187FD38C2C0909805D090990523
:10196000E0909A05F0909B0580919C0590919D05D3
:10197000A0919E05B0919F0589839A83AB83BC8318
:101980002D853E854F8558896D817E818F81988513
:101990000E949E219B01AC01C501B4010E94C92295
:1019A0002B013C01AC019B010E949E214B015C017B
:1019B00029853A854B855C85CA01B9010E949E2123
:1019C0009B01AC01C501B4010E94CA226D837E83D4
:1019D0008F8398870E94B3244B015C0129813A814F
:1019E0004B815C81C701B6010E94CA229B01AC01F8
:1019F000C501B4010E94982418160CF4E8C1A50191
:101A00009401C301B2010E946A230E94B8226D8F23
:101A10007E8F8F8F98A3A7019601C701B6010E9400
:101A20009E216D877E878F87988B29813A814B8194
:101A30005C81CA01B9010E949E216D8B7E8B8F8BC8
:101A4000988FA7019601C701B6010E94CA222B01F7
:101A50003C012D853E854F8558896D817E818F8122
:101A600098850E94CA222D893E894F89588D0E94EF
:101A7000C9226B017C01A3019201C501B4010E943E
:101A80009E219B01AC01C701B6010E946A236B0134
:101A90007C0120E030E040E85FE30E9498241816C3
:101AA0000CF498C120E030E040E85FEBC701B601DC
:101AB0000E94382187FD8EC120E030E0A9016985B0
:101AC0007A858B859C850E943821812C912C90E809
:101AD000A92E9FE3B92E87FF06C0812C912C80E8A8
:101AE000A82E8FEBB82EC701B6010E94B8226B0159
:101AF0007C01A50194016D8D7E8D8F8D98A10E9432
:101B00009E21A70196010E94CA2220E030E044E312
:101B100053E40E949E212AED3FE049E450E40E94F4
:101B20006A236B017C0120E030E044E353E40E942F
:101B3000982418160CF451C120E030E0A901C70127
:101B4000B6010E94382187FD48C12D853E854F850D
:101B500058896D817E818F8198850E94C9222D8947
:101B60003E894F89588D0E94C9224B015C01B7FA0A
:101B7000B094B7F8B094A301920169817A818B8106
:101B80009C810E949E219B01AC01C501B4010E9471
:101B90006A234B015C0120E030E040E85FE30E94F3
:101BA000982418160CF41CC120E030E040E85FEBEC
:101BB000C501B4010E94382187FD12C1C501B401DD
:101BC0000E94B82220E030E044E353E40E949E21CA
:101BD0002AED3FE049E450E40E946A239B01AC01F6
:101BE00060E070E084E393E40E94C9224B015C0151
:101BF00020E030E047E053E40E94982418160CF4EB
:101C0000F2C020E030E047E053ECC501B4010E948F
:101C1000382187FDE8C0A7019601698D7A8D8B8DEB
:101C20009C8D0E94C922A50194010E94CA222B0109
:101C30003C0120E030E044EB52E40E949824181666
:101C40000CF4D4C020E030E044EB52ECC301B2010C
:101C50000E94382187FDCAC089899A89AB89BC89CD
:101C60008093A4059093A505A093A605B093A7051E
:101C700020E030E044EB52E4C701B6010E94C922E3
:101C80006B017C01C092A805D092A905E092AA053B
:101C9000F092AB058092AC059092AD05A092AE0596
:101CA000B092AF054092B0055092B1056092B20576
:101CB0007092B30520E030E04AEF54E469897A89F4
:101CC0008B899C890E949E2120E030E047E853E404
:101CD0000E946A239B01AC0160E070E88BEB94E406
:101CE0000E94C9220E94DC237093D5056093D4051D
:101CF00020E030E04AEF54E4C701B6010E949E2183
:101D000020E030E047E853E40E946A2320E030E816
:101D10004BEB54E40E94CA220E94DC237093D70547
:101D20006093D60520E030E04AEF54E4C501B401E9
:101D30000E949E2120E030E047E853E40E946A239D
:101D400020E030E84BEB54E40E94CA220E94DC23DE
:101D50007093D9056093D80520E030E04AEF54E451
:101D6000C301B2010E949E2120E030E047E853E425
:101D70000E946A2320E030E84BEB54E40E94CA2220
:101D80000E94DC237093DB056093DA0590E080E02D
:101D9000A0960FB6F894DEBF0FBECDBFDF91CF91F6
:101DA0001F910F91FF90EF90DF90CF90BF90AF9079
:101DB0009F908F907F906F905F904F900895198AB9
:101DC0001A8A1B8A1C8A6FCD81E090E0E1CF82E005
:101DD00090E0DECF83E090E0DBCF84E090E0D8CFEE
:101DE00085E090E0D5CF86E090E0D2CF87E090E02C
:101DF000CFCFFC0180819181009711F00C94B9261E
:101E000008952F923F924F925F926F927F928F929E
:101E10009F92AF92BF92CF92DF92EF92FF920F9379
:101E20001F93CF93DF93CDB7DEB72C970FB6F894FF
:101E3000DEBF0FBECDBF69837A838B839C8329016C
:101E40003A01ED82FE820F831887C986DA86312C2B
:101E5000212C912C812C1C861B862B853C85B9015D
:101E6000330F880B990B0E943F215B016C01ED80C1
:101E7000FE800F811885A301920169817A818B818F
:101E80009C810E94DA0B892B49F48B859C858815EF
:101E900099050CF44C0122242394312CEB85FC850C
:101EA0003197FC87EB87E837FF4FB9F621143104EF
:101EB00009F47FC0B401990C880B990B0E943F2153
:101EC0005B016C01ED80FE800F811885A3019201FA
:101ED00069817A818B819C810E94DA0B49845A84C2
:101EE000B20190E080E00E943D2120E030E040EA35
:101EF00051E40E946A234B015C0104ED15E082E08D
:101F000091E09C878B87712C612C83EAE82E81E01D
:101F1000F82E97E1C92E94E0D92EF801F081F983CB
:101F2000F801F181FD830E5F1F4F69817F2FEB85E3
:101F3000FC85718360835782468290E080E00E9436
:101F40003D21EB85FC8522813381448155810E94AE
:101F5000C922A50194010E946A23EB85FC85608754
:101F6000718782879387FA85FF9329852F933D8117
:101F70003F9389818F937F926F92FF92EF92DF92CE
:101F8000CF920E94272887E194E00E94C6069FEF27
:101F9000691A790AEB85FC853C96FC87EB870FB6BE
:101FA000F894DEBF0FBECDBF34E06316710409F0B4
:101FB000B4CFC1012C960FB6F894DEBF0FBECDBFD3
:101FC000DF91CF911F910F91FF90EF90DF90CF9015
:101FD000BF90AF909F908F907F906F905F904F9049
:101FE0003F902F900895FC0124813581FB014481AD
:101FF000558124173507E1F4FC0180819181FB01B3
:10200000608171810097D1F061157105A1F4232BD6
:10201000C1F0FC01808190E008C0232B91F0FB010E
:10202000808190E091958195910921E0892B09F0BB
:1020300020E0822F08950E940828F7CF61157105CE
:1020400061F721E0F6CF0F931F93CF93DF93EC015D
:1020500088819981009759F02A813B81261737079B
:1020600030F081E0DF91CF911F910F9108958B01A6
:102070006F5F7F4F0E944227009759F099838883B2
:102080001B830A832C813D81232B59F7FC0110828D
:10209000E8CF80E0E7CFEF92FF920F931F93CF93AB
:1020A000DF93EC017B018A01BA010E942310288191
:1020B0003981811114C02115310519F0C9010E941F
:1020C000B926198218821D821C821B821A82CE01B7
:1020D000DF91CF911F910F91FF90EF9008951D8395
:1020E0000C83B701C9010E941128F1CF50E040E0F4
:1020F00062EA71E00C944B10FC0111821082138291
:10210000128215821482F6E08B3A9F0769F0609183
:10211000AB067091AC066115710531F04091AF06C8
:102120005091B0060C944B100895FC01118210825E
:102130001382128215821482FB0101900020E9F7BC
:102140003197AF01461B570B0C944B10BF92CF92A7
:10215000DF92EF92FF920F931F93CF93DF9300D004
:10216000CDB7DEB782E0D82E01E093E0C92E24E09F
:10217000B22E80EE95E00E947202892B09F4A1C074
:1021800080EE95E00E945002182F80938C0380917E
:10219000FC03811196C08091F903811115C01C3395
:1021A00009F04AC0B092F9030E941C046093F50341
:1021B0007093F6038093F7039093F80300936604FB
:1021C00081EB96E00E94761019831A82E090B506A2
:1021D000F090B6068FEFE81AF80AB70181EB96E0A7
:1021E0000E942310882399F02091B1063091B20605
:1021F0008091B5069091B606BE016F5F7F4F820F4A
:10220000931F0E941128F092B606E092B5068091C5
:10221000F903843009F51E3311F40093FC03809117
:10222000B5069091B6068E3F910508F4A2CF81EBDA
:1022300096E00E9476109DCF1B3719F4C092F903E7
:10224000BFCF143219F40093F903BACF133209F057
:10225000B7CFD092F903B4CF833019F41D37F9F614
:10226000DCCF813039F51132D1F66091B106709131
:10227000B2066115710549F04091B5065091B60658
:102280008BEA96E00E944B10C8CF8091AB069091EC
:10229000AC06009711F00E94B9261092AC0610927D
:1022A000AB061092B0061092AF061092AE061092D6
:1022B000AD06B3CF823009F0B2CF113209F0AFCF03
:1022C000ACCF0F900F90DF91CF911F910F91FF90A6
:1022D000EF90DF90CF90BF9008950E947E02811111
:1022E0000C94A61008954F925F926F927F928F92F6
:1022F0009F92AF92BF92CF92DF92EF92FF920F9395
:102300001F93CF93DF93CDB7DEB728970FB6F8941E
:10231000DEBF0FBECDBF8C0165EB71E00E942405CE
:102320007C0185EB91E0E114F10409F048C06BEB0E
:1023300071E0C8010E942405892BC9F0F7010995B5
:1023400028960FB6F894DEBF0FBECDBFDF91CF91B8
:102350001F910F91FF90EF90DF90CF90BF90AF90C3
:102360009F908F907F906F905F904F90089561EC59
:1023700071E0C8010E942405892B21F187EC91E0CE
:102380000E941B07F12CE12C02E011E0F6E0EF16B1
:10239000F10484F4F80162817381848195810E9443
:1023A000E323F80171836083FFEFEF1AFF0A045FF4
:1023B0001F4FECCF81E08093000181ED91E00E94FE
:1023C0001B07BECF6AED71E0C8010E942405892B6E
:1023D00049F1CE0101969F938F9380EE91E09F93F8
:1023E0008F931F930F930E944A280F900F900F9086
:1023F0000F900F900F90892B01F389819A812CE027
:10240000289F8001299F100D11240E5F1E4FF80197
:1024100062817381848195810E94E323F801718335
:102420006083CBCF6E01F5E0CF0ED11CDF92CF924F
:102430007E0123E0E20EF11CFF92EF9289EE91E023
:102440009F938F931F930F930E944A280FB6F8947F
:10245000DEBF0FBECDBF892B09F452C08D809E8098
:102460000B811C818CED95E07C01E818F90858017E
:10247000F4E2AF1AFAEFBF0AFF92EF92BF92AF9267
:1024800085EF91E09F938F9337E1C32E34E0D32EF5
:10249000DF92CF920E942728C6010E941B07FF925D
:1024A000EF92BF92AF9284E192E09F938F93DF927D
:1024B000CF920E942728C6010E941B07C8018819D5
:1024C000990997FD01969595879591958195910923
:1024D00084529A4F9F938F9383E392E09F938F93BD
:1024E00087E194E09F938F930E94272887E194E0EF
:1024F0000E941B070FB6F894DEBF0FBECDBF20CFE2
:1025000063E472E0C8010E942405892B09F467C0C6
:10251000FF92EF92CE0101969F938F9389E492E010
:102520009F938F931F930F930E944A280FB6F8949E
:10253000DEBF0FBECDBF892B09F402CF8AEE90E03B
:102540000E94DC070E942F06E980FA8047010F2CC9
:10255000000CAA08BB0889E0880C991CAA1CBB1CAB
:102560008A95D1F795E5C92E92E0D92E8B819C8171
:102570008E159F058CF12DEF30E0A801C501B40147
:102580000E94F405F80180818B37A1F481818734A2
:1025900089F4C8010E941B076AE070E080E090E0C7
:1025A0000E94C403FFEFEF1AFF0A22E0920EA11C63
:1025B000B11CDCCFFF92EF92DF92CF921F930F936B
:1025C0000E942728C8010E941B070F900F900F90B0
:1025D0000F900F900F90E0CF0E946C05B1CE62E695
:1025E00072E0C8010E942405892BD9F1DF92CF92B5
:1025F000FF92EF92CE0101969F938F9388E692E02F
:102600009F938F931F930F930E944A280FB6F894BD
:10261000DEBF0FBECDBF892B09F492CE89819A818E
:10262000909300048093FF032B813C813093FE0341
:102630002093FD034D815E81509306044093050471
:102640005093040440930304909302048093010484
:102650008217930719F40E94A80B72CE1092000102
:102660006FCE67E772E0C8010E942405892B09F448
:102670008CC0CE0107969F938F93DF92CF92FF92EB
:10268000EF9206979F938F938DE792E09F938F939E
:102690001F930F930E944A280FB6F894DEBF0FBE17
:1026A000CDBF892B09F44CCE8FE892E00E941B0726
:1026B0006B817C81072E000C880B990B0E943F21B7
:1026C0004B015C0120E030E0A9010E94382187FD28
:1026D00031C0CF80D8846D817E81072E000C880B9D
:1026E000990B0E943F212B013C0169817A81072EC1
:1026F000000C880B990B0E943F2183017201A501F8
:1027000094010E94010F892BA9F061E084E00E94EE
:10271000170362E370E080E090E00E94C40360E091
:1027200084E00E94170362E370E080E090E00E9482
:10273000C40306CE61E084E00E94170362E370E008
:1027400080E090E00E94C40360E084E00E941703F0
:1027500062E370E080E090E00E94C40361E084E006
:102760000E94170362E370E080E090E00E94C403DF
:1027700060E084E00E94170362E370E080E090E094
:102780000E94C40385EA92E01ACE6EEB72E0C801A3
:102790000E942405892B09F4D3CD81E0809366043F
:1027A0000E941C046093F5037093F6038093F70373
:1027B0009093F80388EE90E00E94DC07C1CD1F9251
:1027C0000F920FB60F9211242F933F934F935F9365
:1027D0006F937F938F939F93AF93BF93EF93FF93E9
:1027E00080EE95E00E948802FF91EF91BF91AF913A
:1027F0009F918F917F916F915F914F913F912F9119
:102800000F900FBE0F901F9018951F920F920FB64A
:102810000F9211242F938F939F93EF93FF93E09147
:10282000F005F091F1058081E091F605F091F70552
:1028300082FD1BC090818091F9058F5F8F7320917D
:10284000FA05821741F0E091F905F0E0E052FA4F05
:10285000958F8093F905FF91EF919F918F912F9123
:102860000F900FBE0F901F9018958081F4CF1F928C
:102870000F920FB60F9211242F933F938F939F9334
:10288000AF93BF9380918F0390919003A091910398
:10289000B091920330918E0323E0230F2D3758F52A
:1028A0000196A11DB11D20938E0380938F039093F9
:1028B0009003A0939103B09392038091930390911E
:1028C0009403A0919503B09196030196A11DB11DAB
:1028D0008093930390939403A0939503B0939603EE
:1028E000BF91AF919F918F913F912F910F900FBE0C
:1028F0000F901F90189526E8230F0296A11DB11D79
:10290000D2CF1F920F920FB60F9211242F933F93A5
:102910004F935F936F937F938F939F93AF93BF93E7
:10292000CF93DF93EF93FF9380918D03C091A10626
:10293000D0E087FF24C0109285001092840080911F
:102940008D038F5F80938D0380918D03082E000C83
:10295000990B8C179D0724F480918D038C30C4F162
:102960008091840090918500049680349C4908F4FD
:102970007AC08091840090918500049676C0809101
:102980008D03082E000C990B8C179D07C4F6E0915F
:102990008D038E2FEE0F990BFC01EE0FFF1FE80F3A
:1029A000F91FE358F94F808186FFC9CFE0918D036D
:1029B0008E2FEE0F990BFC01EE0FFF1FE80FF91F92
:1029C000E358F94F808160E08F730E941703B7CFFF
:1029D0002091840030918500E0918D038E2FEE0FC1
:1029E000990BFC01EE0FFF1FE80FF91FE358F94F99
:1029F00081819281820F931F909389008093880038
:102A0000E0918D038E2FEE0F990BFC01EE0FFF1F4F
:102A1000E80FF91FE358F94F808186FF11C0E0915C
:102A20008D038E2FEE0F990BFC01EE0FFF1FE80FA9
:102A3000F91FE358F94F808161E08F730E941703FB
:102A4000FF91EF91DF91CF91BF91AF919F918F91C6
:102A50007F916F915F914F913F912F910F900FBE9A
:102A60000F901F90189580E49CE9909389008093C3
:102A700088008FEF80938D03E3CF1092E3051092CF
:102A8000E20588EE93E0A0E0B0E08093E405909347
:102A9000E505A093E605B093E70588E891E09093FB
:102AA000E1058093E00585EC90E09093ED0580933F
:102AB000EC0584EC90E09093EF058093EE0580ECBC
:102AC00090E09093F1058093F00581EC90E0909375
:102AD000F3058093F20582EC90E09093F5058093E6
:102AE000F40586EC90E09093F7058093F60510923C
:102AF000F9051092FA051092FB051092FC05E7EB20
:102B0000F6E029EC36E04FEF68EB7BE08091A10620
:102B10008C3040F591E0980F9093A106808390E06F
:102B2000DC01AA0FBB1FA80FB91FA358B94F1296FB
:102B30007C936E93119733962E173F0739F762EA0D
:102B400071E081EB96E00E94951062EA71E08BEAF9
:102B500096E00E9495108AE991E09093A3068093F5
:102B6000A20608954083E7CFCF93DF93CDB7DEB7BA
:102B70006B970FB6F894DEBF0FBECDBF789484B5C7
:102B8000826084BD84B5816084BD85B5826085BD69
:102B900085B5816085BD80916E00816080936E00F7
:102BA00010928100809181008260809381008091E9
:102BB000810081608093810080918000816080939A
:102BC00080008091B10084608093B1008091B0005A
:102BD00081608093B00080917A00846080937A0055
:102BE00080917A00826080937A0080917A0081607F
:102BF00080937A0080917A00806880937A001092A6
:102C0000C100109258041092590410925A04109264
:102C10005B0410925C041092570410929803109277
:102C2000970380E090E0AAE7B4E480939405909342
:102C30009505A0939605B093970580E090E4A3E8EE
:102C4000B4E48093980590939905A0939A05B09366
:102C50009B0580E090E8ABE3B4E480939C059093FF
:102C60009D05A0939E05B0939F0580E090E0A1EEA6
:102C7000B4E48093A0059093A105A093A205B0931E
:102C8000A305E091F005F091F10582E08083E091E9
:102C9000EC05F091ED051082E091EE05F091EF0565
:102CA00080E180831092F805E091F405F091F5053C
:102CB00086E08083E091F205F091F30580818061E8
:102CC0008083E091F205F091F30580818860808334
:102CD000E091F205F091F305808180688083E091B6
:102CE000F205F091F30580818F7D80830E942F068D
:102CF00027E530E04EE953E060E070EF8FEF9FEFA3
:102D00000E94F4050E946C058091F3039091F403F6
:102D1000C897F1F01092E8031092E7031092EA03CB
:102D20001092E9031092EC031092EB031092EE0361
:102D30001092ED031092F0031092EF031092F20341
:102D40001092F10388E390E09093F4038093F303EF
:102D500061E08DE00E94630361E08DE00E94170353
:102D600061E084E00E94630360E084E00E94170356
:102D70008091E603883321F486EA93E00E94731180
:102D80008091E603883309F4C6C00091E7031091EF
:102D9000E80304521A4FB801012E000C880B990B5E
:102DA0000E943F2160930401709305018093060106
:102DB00090930701109303010093020110920A01FE
:102DC00010920B0110920C0110920D010091E90379
:102DD0001091EA0304521A4FB801012E000C880B1F
:102DE000990B0E943F216093100170931101809311
:102DF00012019093130110930F0100930E01109292
:102E000016011092170110921801109219010091E9
:102E1000EB031091EC0304521A4FB801012E000C81
:102E2000880B990B0E943F2160931C0170931D0138
:102E300080931E0190931F0110931B0100931A01B0
:102E40001092220110922301109224011092250168
:102E50000091ED031091EE0304521A4FB801012EB8
:102E6000000C880B990B0E943F21609328017093FE
:102E7000290180932A0190932B011093270100933D
:102E8000260110922E0110922F0110923001109203
:102E900031010091EF031091F00304521A4FB80171
:102EA000012E000C880B990B0E943F216093340186
:102EB000709335018093360190933701109333015D
:102EC0000093320110923A0110923B0110923C01A2
:102ED00010923D010091F1031091F20304521A4F38
:102EE000B801012E000C880B990B0E943F216093C2
:102EF00040017093410180934201909343011093EC
:102F00003F0100933E01109246011092470110923A
:102F100048011092490112E0C12E11E0D12E07EBB9
:102F200016E0EE24E394F12C9CE0B92ED8018C91AC
:102F30008C3008F04CC0F701E358FE4FA08061E0F0
:102F40008A2D0E946303F8018081282F30E0F90167
:102F5000EE0FFF1FE20FF31FE358F94F2A2D2F73D7
:102F60009081907C922B9083D80111961C9211979E
:102F700012961C926B2D0E942025682F70E08B9D6D
:102F8000A001112430E020E0CA01820F931FFC0150
:102F9000EE0FFF1FE80FF91FE358F94F808186FD00
:102FA00008C02F5F3F4F2C30310571F7CB010E94D5
:102FB0001205D801EC918E2F90E0FC01EE0FFF1F5F
:102FC000E80FF91FE358F94F808180648083F60190
:102FD00060817181C8010E94DB04FFEFEF1AFF0AD4
:102FE0000D5F1F4F2CE0C20ED11C37E0E316F10439
:102FF00009F09CCFE4E3F1E0E491E0938104E8E49C
:10300000F1E0E491F0E0EE0FFF1FEB5EFE4F8591E3
:1030100094919093830480938204E7E3F1E0E49138
:10302000E0938404EBE4F1E0E491F0E0EE0FFF1FA5
:10303000EB5EFE4F85919491909386048093850476
:10304000EAE3F1E0E491E0938704EEE4F1E0E49157
:10305000F0E0EE0FFF1FEB5EFE4F85919491909391
:10306000890480938804E5E3F1E0E491E0938A0425
:10307000E9E4F1E0E491F0E0EE0FFF1FE55FFE4FC1
:103080008591949190938C0480938B0461E08BE004
:103090000E94630361E081E10E94630361E08EE0CE
:1030A0000E94630360E08CE00E94630361E08CE0B7
:1030B0000E9417030E9476010E9485010E94280445
:1030C0000E94280480916804813429F0833719F024
:1030D000893709F061C081E0809391040BE010E032
:1030E00047E0C42ED12CBB24B39465E08AE691E07E
:1030F0000E94F703C6010197F1F70E9476010E9432
:1031000085010E940402C6010197F1F735E7E32E1D
:1031100031E0F32EAE014F5F5F4F4A01D7018D9131
:103120007D010E949401F40181934F01FEE7EF16A7
:10313000F1E0FF0699F70E9467018C818093920469
:1031400069E081E691E00E94F70365E08CE591E09B
:103150000E94F703B092930469E083E591E00E9436
:10316000F703B092940469E08AE491E00E94F703C7
:103170000E94280480916804893709F4A7C2833724
:1031800009F4A6C20150110909F4A4C28091910466
:103190008F5F80939104A9CF81E090E09093980392
:1031A000809397038091970390919803892B09F45A
:1031B00093C285EC92E00E941B0703E010E061E0FF
:1031C00084E00E94170364E670E080E090E00E94D3
:1031D000C40360E084E00E94170364E670E080E0CE
:1031E00090E00E94C4030150110949F720E2422EE9
:1031F00023E0522E87E1282E84E0382E98E6692EAF
:1032000092E0792E0E941C0400919A0310919B0376
:1032100020919C0330919D03601B710B820B930BDB
:10322000653F714081059105C0F00E941C046093C8
:103230009A0370939B0380939C0390939D0310913A
:10324000990360E0111101C061E08DE00E94170355
:1032500081E0111180E0809399038091FC03882321
:1032600011F10091B5061091B6060F3F100731F02D
:103270000115110509F033C2109296041093FB0357
:103280000093FA038091F903813009F036C286E990
:1032900094E00E9473111092FC031092F90381EBE9
:1032A00096E00E9476100E941C040091F503109194
:1032B000F6032091F7033091F803601B710B820B2A
:1032C000930B693B7B408105910510F010926604D9
:1032D000809100018111C6C30E941C049B01AC01B6
:1032E00060E070E080E090E0A0900F04B0901004E7
:1032F000C0901104D0901204E0901304F0901404D4
:1033000000911504109116040E94F925A09007045D
:10331000B0900804C0900904D0900A04E0900B0417
:10332000F0900C0400910D0410910E040E940226EE
:1033300051F14CF10E941C048B019C0160930F041D
:10334000109310048093110430931204109213040C
:103350001092140410921504109216048091050422
:1033600090910604892B09F445C380910304909140
:103370000404892B09F03EC341E04093000184E13D
:1033800093E00E941B0780916604811127C40E946C
:103390001C049B01AC0160E070E080E090E0A09034
:1033A0005D04B0905E04C0905F04D0906004E09033
:1033B0006104F090620400916304109164040E941F
:1033C000F925A4E10E940B2609F00CF489C00E94A3
:1033D0001C048B019C0160935D0410935E04809338
:1033E0005F043093600410926104109262041092A2
:1033F00063041092640487EB96E0998B888B02E05B
:1034000011E0D8011896CD90DD90ED90FC901B97BF
:1034100020E030E0A901C701B6010E9438218823CD
:1034200009F452C0F8010190F081E02DFF8BEE8B82
:10343000BF0190E080E00E943D21688F798F8A8FE4
:103440009B8FD80112962D913D914D915C911597CE
:103450002A8B3B8B4C8B5D8B0E94C9224B015C01FC
:1034600020E030E0A9010E949824181624F0B7FA51
:10347000B094B7F8B09420E030E0A901C701B601DC
:103480000E949824A701960118160CF05058C50107
:10349000B4010E94382118160CF4F6C26E897F8997
:1034A000888999890E94DB04288D398D4A8D5B8D2E
:1034B000D80112962D933D934D935C931597F80187
:1034C0001086118612861386045F1F4FE889F989DA
:1034D0003396F98BE88BF1E00A341F0709F091CF9E
:1034E0001092650402E011E020E030E0A901D8016B
:1034F00018966D917D918D919C911B970E9438211A
:10350000882309F4D7C2B1E0B093650480916504C3
:1035100090910101981709F463C0809301018823F9
:1035200009F4D1C207EB16E0F12CE12CD8018C9103
:103530008C3008F04BC0F701E258FE4FD08061E0BC
:103540008D2D0E946303F8018081282F30E0F9015E
:10355000EE0FFF1FE20FF31FE358F94F2D2D2F73CE
:10356000D22E9081907CD92AD082D80111961C92BB
:10357000119712961C926CE00E942025869FA00154
:10358000112430E020E0BA01620F731FFB01EE0F3F
:10359000FF1FE60FF71FE358F94F908196FD08C013
:1035A0002F5F3F4F2C30310571F790E00E941205DC
:1035B000D801EC918E2F90E0FC01EE0FFF1FE80F79
:1035C000F91FE358F94F808180648083BFEFEB1AC5
:1035D000FB0A0D5F1F4FE6E0EE16F10409F0A6CFDF
:1035E00080915C048111A0C20E941C0400915804C7
:1035F0001091590420915A0430915B04601B710BA7
:10360000820B930B633371058105910508F48CC21D
:103610000E941C04609358047093590480935A04C8
:1036200090935B040E94280481E090E00E943101A5
:10363000882391F18091570421E0822780935704D9
:103640008091570461E08823A1F084E00E94170371
:1036500064E670E080E090E00E94C40360E084E0F3
:103660000E94170364E670E080E090E00E94C403CB
:1036700061E084E00E94170364E670E080E090E07F
:103680000E94C40360E084E00E94170364E670E0D7
:1036900080E090E00E94C40380915704882309F4DD
:1036A0001BC310910001113009F03EC280E190E08F
:1036B0000E943101882309F41BC21F921F931F929D
:1036C00087E08F931F9283E08F931FC280E065CDC8
:1036D00083E063CD82E061CD89ED92E06CCD6091B5
:1036E000B1067091B206A80186E994E00E941828FC
:1036F000F801EA56FB4F1082C1CD9EEF980F923031
:1037000028F486E994E00E94FC07C5CD843009F0D6
:10371000C2CD80919704843279F5809198048132EA
:1037200049F41092E6030E94C8078EEE92E00E94D0
:103730001B07B1CD81E4A6EAB3E01D928A95E9F7B3
:1037400067E974E086EA93E00E941128E6E9F4E074
:1037500001900020E9F7E759F440E256FC4F168249
:1037600088E38093E6030E94C80781E093E00E940B
:103770001B0786EA93E0DBCF873409F08CCD80917C
:103780009C04833209F087CD80919804082E000CA8
:10379000990BC097E8EEF3E08E9F90018F9F300D5C
:1037A0009E9F300D112480919904082E000C990BD6
:1037B000C09764E6689FA001699F500D1124240FF3
:1037C000351F80919A04082E000C990BC0976AE06F
:1037D000689FA001699F500D1124240F351F80910F
:1037E0009B04082E000C990BC097A901480F591F84
:1037F000598F488F952F990F990B288D398D492F07
:10380000592F692F792F892F2F30374241055105C4
:10381000610571058105910511F00CF03CCD8BE738
:1038200080939604F801EB56FB4F8DE780830E944E
:10383000D500892E8E8B992E990C9908F801349613
:10384000F98BE88BF093FB03E093FA03EE56FB4F02
:10385000FB8BEA8B18EEA12E03E0B02EC12CD12CED
:10386000E12CF12C00E010E0282F392F492D592DA3
:10387000692D792D892D992D0E944225205DAA89D7
:10388000BB892C93E889F989ED56FB4FFB8BEA8BBA
:103890002E89382D492D592D692D792D892D992D58
:1038A0000E944025E4E6AE2EB12C0E944225205D08
:1038B000AA89BB892C93E889F989EC56FB4FFB8BCD
:1038C000EA8B2E89382D492D592D692D792D892D79
:1038D000992D0E944025FAE0AF2E0E944225205DDE
:1038E000AA89BB892C93E889F989EB56FB4FFB8B9E
:1038F000EA8B2E89382D492D592D692D792D892D49
:10390000992D0E944025205DAA89BB892C93E889C6
:10391000F989EA56FB4F10820E942F06E88DF98D37
:10392000CF01FF0FAA0BBB0B6C017D0119E0CC0C82
:10393000DD1CEE1CFF1C1A95D1F74C015D01BB0C80
:103940008808982C54019C01AD01682D782D882D94
:10395000982D09E00E94E0253E7020E040E050E014
:1039600060E070E080E090E0A0E00E940B2699F417
:10397000D701C6019F70AA27BB27892B8A2B8B2BC7
:1039800021F4C701B6010E94A40665E070E080E062
:1039900090E00E94C4032889398946E954E0C701B0
:1039A000B6012F3F3105C9F0C4F020E031E046E90F
:1039B00054E00E94290765E070E080E090E00E94FA
:1039C000C4032091FA033091FB033A95C701B60175
:1039D0007F5F8F4F9F4F46E955E00E9429070E9465
:1039E0006C056EE170E080E090E00E94C40382E12B
:1039F00093E09DCE80910104909102040E94A80B57
:103A00002091FF03309100044091FD035091FE038B
:103A1000809101049091020424173507F4F44817AB
:103A20005907A9F4309302042093010480910504FE
:103A300090910604892B09F4A6CC809103049091FF
:103A40000404019790930404809303049CCC019692
:103A5000909302048093010496CC4817590711F300
:103A60000197F6CF8AE08093070410920804109221
:103A7000090410920A0410920B0410920C04109284
:103A80000D0410920E047FCC2A893B894C895D89F4
:103A9000C701B6010E94CA22D80112966D937D9388
:103AA0008D939C9315970E94DC23888999890E94A5
:103AB000DB040ACD045F1F4FEAE4F1E0E017F107F1
:103AC00009F012CD23CDA7EBB6E0EC918E2F90E05C
:103AD000FC01EE0FFF1FE80FF91FE358F94F80813B
:103AE0008F7B80831396F6E0A93CBF0771F778CDF2
:103AF00080E490E00E943101882309F477C01F928E
:103B00001F931F921F931F921F937F926F923F925A
:103B10002F920E94272887E194E00E9473110FB62C
:103B2000F894DEBF0FBECDBFCE0101960E947C107F
:103B30000D811E81CE0101960E94F90E012B09F420
:103B40004DC061E084E00E94170364E670E080E00D
:103B500090E00E94C40360E084E00E94170364E6E2
:103B600070E080E090E00E94C403CE010A960E94BB
:103B70007C106CE373E0CE0101960E949510BE01AB
:103B80006F5F7F4FCE010A960E94F30F182FCE0170
:103B900001960E94F90ECE010A960E94F90E112399
:103BA00009F400C21F92B1E0BF931F9287E08F9388
:103BB0001F9283E08F937F926F923F922F920E9489
:103BC000272887E194E00E9473110FB6F894DEBFB6
:103BD0000FBECDBF8BEA96E00E9476100E947E0257
:103BE000882309F40FCB0E94A61004CB80E890E054
:103BF0000E943101882341F01F921F931F929CE085
:103C00009F931F9288E060CD80E290E00E94310196
:103C1000882341F01F921F931F9281E18F931F927F
:103C20008DE052CD80E090E10E943101882341F087
:103C30001F921F931F9285E18F931F9282E144CDC3
:103C400080E090E40E943101882339F01F921F9395
:103C50001F9282E08F931F9237CD80E090E80E9400
:103C60003101882341F01F921F931F928AE18F93A5
:103C70001F9286E129CD80E090E20E9431018823E5
:103C800049F01F9291E09F931F928FE18F931F92B3
:103C90008BE11ACD88E090E00E943101882309F47D
:103CA00043CF0E941C040E94D30688EEC82E83E0F6
:103CB000D82EE12CF12C08E413E4A801970160E070
:103CC00070E0CB010E94010F892B09F42DCF0E94D7
:103CD0001C040E94D30628CF80E890E00E943101A6
:103CE000882339F187E08F9380ED8F9389E08F935C
:103CF00080E68F931F921F925F924F923F922F9276
:103D00000E94272887E194E00E94FC070FB6F894F0
:103D1000DEBF0FBECDBF80E890E00E944C0188233B
:103D200009F4CAC01F921F9281E393E09F938F937F
:103D3000D6C080E290E00E943101882341F087E004
:103D40008F9380ED8F9382E08F9388E5D2CF80E1CF
:103D500090E00E943101882361F087E08F9380ED2D
:103D60008F9382E08F9388E58F931F9231E03F938A
:103D7000C3CF80E490E00E943101882361F087E0A6
:103D80008F9380ED8F9389E08F9380E68F931F92BE
:103D900051E05F93B1CF80E090E10E943101882330
:103DA00061F087E08F9380ED8F9389E08F9380E6B9
:103DB0008F931F9282E08F939FCF80E090E40E94C8
:103DC0003101882351F087E08F9380ED8F9382E05B
:103DD0008F9398E59F931F92EECF80E090E80E942A
:103DE0003101882359F087E08F9380ED8F9389E02C
:103DF0008F9380E68F931F9283E0DDCF80E090E287
:103E00000E943101882341F087E08F9380ED8F93EA
:103E100082E08F9388E5EECF80E094E00E9431014C
:103E2000882359F087E08F9380ED8F9382E08F9302
:103E300088E58F931F9284E0BECF80E098E00E94D7
:103E40003101882341F087E08F9380ED8F9389E0E3
:103E50008F9380E6EECF80E091E00E9431018823CD
:103E600059F087E08F9380ED8F9382E08F9388E500
:103E70008F931F9285E09FCF80E092E00E943101F6
:103E8000882341F087E08F9380ED8F9389E08F93B3
:103E900080E6EECF88E090E00E943101882309F4AB
:103EA0003ACF87E08F9380ED8F9385E08F938CEDF1
:103EB0008F931F928FEF7FCF80E290E00E944C01A2
:103EC000811130CF80E190E00E944C018823B1F055
:103ED0001F92B1E0BF93E1E3F3E0FF93EF933F92D2
:103EE0002F920E94272887E194E00E94FC070F9000
:103EF0000F900F900F900F900F9016CE80E490E0EF
:103F00000E944C018111E4CF80E090E10E944C01BD
:103F1000882341F01F9282E08F9341E353E05F9347
:103F20004F93DDCF80E090E40E944C018111F2CFED
:103F300080E090E80E944C01882341F01F9283E0CA
:103F40008F93A1E3B3E0BF93AF93C9CF80E090E23A
:103F50000E944C018111F2CF80E094E00E944C015C
:103F6000882341F01F9284E08F9321E333E03F9355
:103F70002F93B5CF80E098E00E944C018111F2CFE1
:103F800080E091E00E944C01882321F01F9285E09F
:103F90008F93CACE80E092E00E944C01882309F4FE
:103FA000C3CDF4CFCE010A960E947C1061E473E089
:103FB000CE0101960E949510BE016F5F7F4FCE012A
:103FC0000A960E94F30F182FCE0101960E94F90E57
:103FD000CE010A960E94F90E112349F01F92F1E0DA
:103FE000FF931F922CE02F931F9288E0E3CDCE0128
:103FF0000A960E947C1066E473E0CE0101960E944E
:104000009510BE016F5F7F4FCE010A960E94F30F9D
:10401000182FCE0101960E94F90ECE010A960E9439
:10402000F90E112349F01F9251E05F931F9281E135
:104030008F931F928DE0BECDCE010A960E947C1018
:104040006BE473E0CE0101960E949510BE016F5F94
:104050007F4FCE010A960E94F30F182FCE010196D2
:104060000E94F90ECE010A960E94F90E112349F022
:104070001F9291E09F931F9285E18F931F9282E19F
:1040800099CDCE010A960E947C1060E573E0CE01C6
:1040900001960E949510BE016F5F7F4FCE010A9678
:1040A0000E94F30F182FCE0101960E94F90ECE0147
:1040B0000A960E94F90E112349F01F92B1E0BF93B6
:1040C0001F928AE18F931F9286E174CDCE010A96EA
:1040D0000E947C1065E573E0CE0101960E94951068
:1040E000BE016F5F7F4FCE010A960E94F30F182F1B
:1040F000CE0101960E94F90ECE010A960E94F90E99
:10410000112349F01F92F1E0FF931F928FE18F93EB
:104110001F928BE14FCDCE010A960E947C106AE57A
:1041200073E0CE0101960E949510BE016F5F7F4F34
:10413000CE010A960E94F30F182FCE0101960E941D
:10414000F90ECE010A960E94F90E112341F01F923A
:1041500031E03F931F923F931F923F932CCDCE01AE
:104160000A960E947C106FE573E0CE0101960E94D2
:104170009510BE016F5F7F4FCE010A960E94F30F2C
:10418000182FCE0101960E94F90ECE010A960E94C8
:10419000F90E1123B1F083E08F9388EE8F9386E0C0
:1041A0008F9384EA8F931F9285E08F935F924F9253
:1041B0003F922F920E94272887E194E00E94FC07FB
:1041C00004CDCE010A960E947C1064E673E0CE0115
:1041D00001960E949510BE016F5F7F4FCE010A9637
:1041E0000E94F30F182FCE0101960E94F90ECE0106
:1041F0000A960E94F90E112341F083E08F9388EE16
:104200008F9384E08F9380EBCDCFCE010A960E94EE
:104210007C1069E673E0CE0101960E949510BE0104
:104220006F5F7F4FCE010A960E94F30F182FCE01C9
:1042300001960E94F90ECE010A960E94F90E1123F2
:1042400009F4C8CC8FE693E00E94FC07C3CC8BEA4C
:1042500096E00E94F90E81EB96E00C94F90E911114
:104260000C940B22803219F089508550C8F70895BC
:104270000E947A2108F481E00895E89409C097FB30
:104280003EF490958095709561957F4F8F4F9F4F2D
:104290009923A9F0F92F96E9BB279395F695879571
:1042A00077956795B795F111F8CFFAF4BB0F11F434
:1042B00060FF1BC06F5F7F4F8F4F9F4F16C08823DB
:1042C00011F096E911C0772321F09EE8872F762F11
:1042D00005C0662371F096E8862F70E060E02AF052
:1042E0009A95660F771F881FDAF7880F969587953E
:1042F00097F90895990F0008550FAA0BE0E8FEEF13
:1043000016161706E807F907C0F012161306E40799
:10431000F50798F0621B730B840B950B39F40A2692
:1043200061F0232B242B252B21F408950A2609F470
:10433000A140A6958FEF811D811D08950E94B12196
:104340000C9425220E94172238F00E941E2220F091
:10435000952311F00C940E220C94142211240C9429
:1043600059220E94362270F3959FC1F3950F50E0B9
:10437000551F629FF001729FBB27F00DB11D639F17
:10438000AA27F00DB11DAA1F649F6627B00DA11DBD
:10439000661F829F2227B00DA11D621F739FB00D63
:1043A000A11D621F839FA00D611D221F749F3327D3
:1043B000A00D611D231F849F600D211D822F762F6C
:1043C0006A2F11249F5750409AF0F1F088234AF049
:1043D000EE0FFF1FBB1F661F771F881F91505040B5
:1043E000A9F79E3F510580F00C940E220C9459229F
:1043F0005F3FE4F3983ED4F3869577956795B7953C
:10440000F795E7959F5FC1F7FE2B880F911D969555
:10441000879597F9089599278827089597F99F67B1
:1044200080E870E060E008959FEF80EC089500243C
:104430000A941616170618060906089500240A9409
:1044400012161306140605060895092E0394000C8F
:1044500011F4882352F0BB0F40F4BF2B11F460FF1E
:1044600004C06F5F7F4F8F4F9F4F089557FD905847
:10447000440F551F59F05F3F71F04795880F97FB28
:10448000991F61F09F3F79F08795089512161306E2
:104490001406551FF2CF4695F1DF08C01616170611
:1044A0001806991FF1CF8695710561050894089546
:1044B000E894BB2766277727CB0197F908952F92B9
:1044C0003F924F925F926F927F928F929F92AF92A4
:1044D000BF92CF92DF92EF92FF920F931F93CF93F1
:1044E000DF93CDB7DEB7CA1BDB0B0FB6F894DEBF88
:1044F0000FBECDBF09942A88398848885F846E84AE
:104500007D848C849B84AA84B984C884DF80EE80F7
:10451000FD800C811B81AA81B981CE0FD11D0FB600
:10452000F894DEBF0FBECDBFED010895A1E21A2EB3
:10453000AA1BBB1BFD010DC0AA1FBB1FEE1FFF1F47
:10454000A217B307E407F50720F0A21BB30BE40B97
:10455000F50B661F771F881F991F1A9469F76095DE
:104560007095809590959B01AC01BD01CF01089598
:104570009F939F770E9412240F90002042F490583E
:10458000A2EA2AED3FE049E450E40E94E1220C94C3
:1045900025225058BB27AA270E94E1220C942522ED
:1045A0000E94172238F00E941E2220F039F49F3F0B
:1045B00019F426F40C9414220EF4E095E7FB0C9405
:1045C0000E22E92F0E94362258F3BA1762077307AA
:1045D0008407950720F079F4A6F50C9458220EF480
:1045E000E0950B2EBA2FA02D0B01B90190010C0103
:1045F000CA01A0011124FF27591B99F0593F50F41B
:10460000503E68F11A16F040A22F232F342F442772
:10461000585FF3CF469537952795A795F04053956A
:10462000C9F77EF41F16BA0B620B730B840BBAF03A
:104630009150A1F0FF0FBB1F661F771F881FC2F7A5
:104640000EC0BA0F621F731F841F48F487957795B9
:104650006795B795F7959E3F08F0B0CF9395880F73
:1046600008F09927EE0F979587950895DF93DD273A
:10467000B92FBF7740E85FE31616170648075B07B8
:1046800018F4D92F0E949D249F938F937F936F934B
:104690000E94F324E8E6F0E00E9432240E942522E2
:1046A0002F913F914F915F910E94B121DD2351F0F5
:1046B0009058A2EA2AED3FE049EC5FE3D0785D270D
:1046C0000E94E122DF910C9425220E945B24E39555
:1046D0000C9484240E947E230C9425220E941E2286
:1046E00058F00E94172240F029F45F3F29F00C9403
:1046F0000E2251110C9459220C9414220E9436223D
:1047000068F39923B1F3552391F3951B550BBB2700
:10471000AA2762177307840738F09F5F5F4F220F45
:10472000331F441FAA1FA9F335D00E2E3AF0E0E83C
:1047300032D091505040E695001CCAF72BD0FE2F86
:1047400029D0660F771F881FBB1F2617370748071A
:10475000AB07B0E809F0BB0B802DBF01FF279358D2
:104760005F4F3AF09E3F510578F00C940E220C9466
:1047700059225F3FE4F3983ED4F386957795679589
:10478000B795F7959F5FC9F7880F911D9695879507
:1047900097F90895E1E0660F771F881FBB1F621726
:1047A00073078407BA0720F0621B730B840BBA0BE4
:1047B000EE1F88F7E09508950E94E3236894B111F5
:1047C0000C94592208950E943E2288F09F5798F039
:1047D000B92F9927B751B0F0E1F0660F771F881F06
:1047E000991F1AF0BA95C9F714C0B13091F00E9420
:1047F0005822B1E008950C945822672F782F88270B
:10480000B85F39F0B93FCCF3869577956795B39546
:10481000D9F73EF490958095709561957F4F8F4FB5
:104820009F4F0895DF93CF931F930F938B01EC015C
:10483000E5E9F0E00E9432240E9425229801AE01B1
:104840008B01EC0160E070E080E89FE30E94C922E8
:104850000E94B3249801AE010F911F91CF91DF9177
:104860000C94B121DF93CF931F930F93FF92EF929C
:10487000DF927B018C01689406C0DA2EEF010E9462
:10488000B121FE01E894A59125913591459155916D
:10489000A6F3EF010E94E122FE019701A801DA943C
:1048A00069F7DF90EF90FF900F911F91CF91DF910B
:1048B00008950C9414220E943E22D8F3E894E0E07C
:1048C000BB279F57F0F02AED3FE049EC06C0EE0F02
:1048D000BB0F661F771F881F28F0B23A6207730765
:1048E000840728F0B25A620B730B840BE3959A95F8
:1048F00072F7803830F49A95BB0F661F771F881FB8
:10490000D2F790480C94F924EF93E0FF07C0A2EA95
:104910002AED3FE049EC5FEB0E94E1220E94252254
:104920000F90039401FC9058EDEBF0E00C940C25F3
:104930000E947A2108F48FEF08959B01AC0160E09A
:1049400070E080E89FE30C946A239F930E945B24AD
:104950000F9007FCEE5F0C94842419F416F40C9469
:1049600014220C94F7240E943E22B8F39923C9F331
:10497000B6F39F57550B87FF0E9405250024A0E63C
:1049800040EA900180585695979528F4805C660F10
:10499000771F881F20F026173707480730F4621B5F
:1049A000730B840B202931294A2BA6951794079461
:1049B000202531254A2758F7660F771F881F20F0DA
:1049C00026173707480730F4620B730B840B200D52
:1049D000311D411DA09581F7B901842F9158880F91
:1049E0009695879508959B01AC010C949E219F3F5D
:1049F00031F0915020F4879577956795B795880F9A
:104A0000911D9695879597F9089591505040660F9E
:104A1000771F881FD2F708959F938F937F936F938B
:104A2000FF93EF939B01AC010E949E21EF91FF91B8
:104A30000E9432242F913F914F915F910C949E21BF
:104A4000991B79E004C0991F961708F0961B881FE0
:104A50007A95C9F780950895AA1BBB1B51E107C041
:104A6000AA1FBB1FA617B70710F0A61BB70B881FFE
:104A7000991F5A95A9F780959095BC01CD0108958D
:104A8000689401C0E894F92FF12B12F00C9474256E
:104A9000A0E0B0E0EEE4F5E20C946522092E059466
:104AA00022F40E94D025112392F4F0E80F26FFEFA4
:104AB000E094F09400951095B094C094D094A19493
:104AC000BF0ACF0ADF0AEF0AFF0A0F0B1F0B0E9473
:104AD0007F2507FC0E94D025CDB7DEB7ECE00C9413
:104AE0008122689401C0E8948F929F92CF93DF93C4
:104AF0000E947F25DF91CF919F908F900895882409
:104B00009924F401E401B0E49F93AA279A158B0439
:104B10009C04ED05FE05CF05D007A10798F4AD2F45
:104B2000DC2FCF2FFE2FE92D982C892E982F872F41
:104B3000762F652F542F432F322F2227B85031F76D
:104B4000BF9127C01B2EBF91BB27220F331F441FCD
:104B5000551F661F771F881F991F881C991CEE1F01
:104B6000FF1FCC1FDD1FAA1FBB1F8A149B04EC056F
:104B7000FD05CE05DF05A007B10748F08A189B08A0
:104B8000EC09FD09CE09DF09A00BB10B21601A94D5
:104B9000E1F62EF49401AF01BE01CD01000C0895A1
:104BA000609570958095909530954095509521959C
:104BB0003F4F4F4F5F4F6F4F7F4F8F4F9F4F089526
:104BC000002E083090F0982F872F762F652F542FC6
:104BD000432F322F22270850F4CF220F331F441FB8
:104BE000551F661F771F881F991F0A95B2F7002D62
:104BF00008952A193B094C095D096E097F09800B4C
:104C0000910B08952A153B054C055D056E057F0542
:104C10008007910708950024A7FD00942A17300506
:104C20004005500560057005800590050895EE0F5C
:104C3000FF1F0590F491E02D09940F931F93CF93DC
:104C4000DF938230910510F482E090E0E091CB0692
:104C5000F091CC0630E020E0B0E0A0E0309799F48D
:104C60002115310509F44AC0281B390B24303105C0
:104C7000D8F58A819B816115710589F1FB019383C8
:104C80008283FE0111C04081518102811381481746
:104C90005907E0F04817590799F4109761F01296F8
:104CA0000C93129713961C933296CF01DF91CF91FC
:104CB0001F910F9108950093CB061093CC06F4CF6B
:104CC0002115310551F04217530738F0A901DB01D6
:104CD0009A01BD01DF01F801C1CFEF01F9CF909337
:104CE000CC068093CB06CDCFFE01E20FF31F81935C
:104CF00091932250310939832883D7CF2091C90657
:104D00003091CA06232B41F4209171013091720138
:104D10003093CA062093C90620916F01309170012B
:104D20002115310541F42DB73EB7409173015091E3
:104D30007401241B350BE091C906F091CA06E217F5
:104D4000F307A0F42E1B3F0B2817390778F0AC01AE
:104D50004E5F5F4F2417350748F04E0F5F1F50938B
:104D6000CA064093C906819391939FCFF0E0E0E09B
:104D70009CCFCF93DF930097E9F0FC013297138229
:104D80001282A091CB06B091CC06ED0130E020E07C
:104D90001097A1F420813181820F931F2091C906C1
:104DA0003091CA062817390709F061C0F093CA0686
:104DB000E093C906DF91CF910895EA01CE17DF078E
:104DC000E8F54A815B819E0141155105B1F7E90182
:104DD000FB83EA8349915991C40FD51FEC17FD0756
:104DE00061F4808191810296840F951FE901998376
:104DF0008883828193819B838A83F0E0E0E012962E
:104E00008D919C9113970097B9F52D913C91119735
:104E1000CD010296820F931F2091C9063091CA06D8
:104E20002817390739F6309751F51092CC061092B1
:104E3000CB06B093CA06A093C906BCCFD383C28366
:104E400040815181840F951FC817D90761F44E5FC7
:104E50005F4F88819981480F591F518340838A8110
:104E60009B81938382832115310509F0B0CFF093A4
:104E7000CC06E093CB069ECFFD01DC01C0CF1382B0
:104E80001282D7CFB0E0A0E0E8E4F7E20C94612210
:104E90008C01009751F4CB010E941D268C01C801A2
:104EA000CDB7DEB7E0E10C947D22FC01E60FF71FE1
:104EB0009C0122503109E217F30708F49DC0D90183
:104EC000CD91DC911197C617D70798F0C530D10561
:104ED00030F3CE0104978617970708F3C61BD70B4C
:104EE0002297C193D1936D937C93CF010E94B926F1
:104EF000D6CF5B01AC1ABD0A4C018C0E9D1EA09151
:104F0000CB06B091CC06512C412CF12CE12C109702
:104F100031F58091C9069091CA068815990509F066
:104F20005CC04616570608F058C080916F019091FA
:104F30007001009741F48DB79EB740917301509175
:104F40007401841B950BE817F90708F055C0F0931E
:104F5000CA06E093C906F90171836083A0CF8D91E1
:104F60009C91119712966C90129713967C901397C0
:104F7000A815B90559F56C0142E0C40ED11CCA143C
:104F8000DB0420F1AC014A195B09DA01129615978E
:104F900080F06282738251834083D9016D937C9348
:104FA000E114F10471F0D7011396FC93EE9312977C
:104FB00076CF22968C0F9D1FF90191838083F30198
:104FC000EFCFF093CC06E093CB0669CF4816590695
:104FD00008F42C017D01D3019ACFCB010E941D263C
:104FE0007C01009749F0AE01B8010E94FF27C8017B
:104FF0000E94B926870153CF10E000E050CFFB019B
:10500000DC0102C001900D9241505040D8F7089544
:10501000FB01DC018D91019080190110D9F3990BEE
:105020000895FB01DC0101900D920020E1F7089545
:10503000FB01DC014150504048F001900D920020EE
:10504000C9F701C01D9241505040E0F70895AEE00D
:10505000B0E0EDE2F8E20C946D220D891E8986E045
:105060008C831A8309838FEF9FE79E838D83AE0124
:10507000475E5F4F6F89788DCE0101960E9463284D
:105080002F813885020F131FF80110822E96E4E05D
:105090000C948922AEE0B0E0E0E5F8E20C946F22D7
:1050A00085E08C838B899C899A838983AE01495ED4
:1050B0005F4F6D897E89CE0101960E94C82B2E9686
:1050C000E2E00C948B22ABE0B0E0E9E6F8E20C946D
:1050D0005F227C013B018A01FC01178216828381D9
:1050E00081FFC8C1CE0101965C01F7019381F301F4
:1050F00093FD859193FF81913F01882309F453C16A
:10510000853239F493FD859193FF81913F0185327A
:1051100029F4B70190E00E942A2DE7CF912C212C91
:10512000312CFFE1F31538F08B3211F190F480321D
:1051300009F1833229F137FC3CC020ED280F2A30D9
:1051400050F536FE20C08AE0989E200D1124922E44
:1051500006C08D3291F0803371F7689430F8F30116
:1051600093FD859193FF81913F018111DACF21C099
:10517000689431F8689432F8F2CF689433F8EFCF3E
:10518000689434F8ECCFEAE02E9E200D1124222EF4
:10519000689435F8E4CF8E3229F436FC04C1689463
:1051A00036F8DDCF8C3619F4689437F8D8CF8836C6
:1051B000B1F2982F9F7D95549330E0F08336A1F1A2
:1051C0008337C1F1833509F063C02801F2E04F0E47
:1051D000511CF801C080D180692D70E036FC02C0FE
:1051E0006FEF7FEFC6010E94D82C4C01689437F80E
:1051F00082010AC00C5F1F4FFFE3F9838824839468
:10520000912C6501E89437F833FE2DC0522C81149F
:10521000910471F5552009F468CFB70180E290E060
:105220000E942A2D5A94F6CFF801808189830E5F5F
:105230001F4FE4CF2801F2E04F0E511CF801C0804F
:10524000D180692D70E036FC02C06FEF7FEFC601A0
:105250000E94E32C4C018201D5CFB70180E290E09F
:105260000E942A2D2A942814190409F0B0F7CECFF1
:10527000F60137FC859137FE81916F01B70190E00F
:105280000E942A2D51105A94F1E08F1A9108BFCF35
:10529000843619F0893609F077C0F80137FE6BC003
:1052A00060817181828193810C5F1F4FF32DFF76A6
:1052B0003F2E97FF09C090958095709561957F4F1F
:1052C0008F4F9F4F689437F82AE030E0A5010E9485
:1052D000722DC82ECA188C2C432C36FE0CC0E894B4
:1052E00040F8C91440F434FE05C032FC03C0F32D6D
:1052F000FE7E4F2E892C44FE95C0FE01EC0DF11D63
:105300008081803309F087C0242D297E422E842D90
:105310008870582E43FC95C040FE8FC09C2C821490
:1053200018F42C0C922C981844FE91C0B70180E31D
:1053300090E00E942A2D42FE09C088E790E041FEDD
:1053400002C088E590E0B7010E942A2DC91408F434
:105350008AC0CA94D12C9FEFC91AD90ACA0CDB1C87
:10536000F60182916F01B70190E00E942A2DAC14E2
:10537000BD04B1F74FCF60817181072E000C880BFF
:10538000990B0E5F1F4F92CFD32CE894D4F82AE0EC
:1053900030E0853739F1232D297FD22E8F3601F168
:1053A00048F48835A9F0F701868197812B96E2E1D0
:1053B0000C947B22803749F08837A9F7D4FE02C0CD
:1053C0006894D2F820E130E00DC06894D4F8F6CFAC
:1053D00034FE03C0822F8660D82E20E132E002C066
:1053E00028E030E0F801D7FE0FC060817181828132
:1053F00093810C5F1F4FA5010E94722DC82ECA1801
:105400003D2CE89437F867CF6081718190E080E0AF
:105410000E5F1F4FF0CF42FC02C0839478CF83947D
:10542000839475CF842D867809F471CFF6CFB701B8
:1054300080E290E00E942A2D83948214C0F3512CC4
:1054400073CF522C5818821408F46ECFF8CF842DE5
:10545000867809F47BCF8BE241FE80E247FC8DE247
:10546000B70190E071CFB70180E390E00E942A2D50
:105470009A946CCF8FEF9FEF99CF20FD09C0FC016C
:1054800023FD05C022FF02C07383628351834083E2
:10549000089544FD17C046FD1DC0DB01FC01AA0FA5
:1054A000BB1FEE1FFF1F1094D1F76A0F7B1F8E1FCB
:1054B0009F1F660F771F881F991F620F711D811D27
:1054C000911D089533E0660F771F881F991F315093
:1054D000D1F7F3CF34E0F7CF0F931F93CF93DF9340
:1054E0008C01C8010E94EE2CEC0197FD08C00E94BF
:1054F0002F21892BB1F7B801CE010E945A2DCE0180
:10550000DF91CF911F910F9108958F929F92AF924B
:10551000BF92EF92FF920F931F93CF93DF938C0173
:10552000D62F7A01B22E0E94EE2C9C0133272B320B
:10553000310529F02D323105A9F46894B7F8D1501E
:1055400061F480E0DF91CF911F910F91FF90EF9078
:10555000BF90AF909F908F900895C8010E94EE2C4D
:1055600097FDEFCFCB2DCD7F2B2D2073F9F480331A
:10557000E9F4AA24AA94AD0E89F0C8010E94EE2C89
:1055800097FD0CC0282F2F7D283561F4C264D250BE
:1055900029F0C8010E94EE2C97FF08C0812C912CA5
:1055A00054011BC0B6FE2BC0C260DA2D812C912C99
:1055B000540120ED280F283028F1C4FD09C02A30FD
:1055C00008F1C6FF05C02F7D3FEE320F3630C8F020
:1055D000B8010E945A2DC1FFB4CFC7FF08C0B094D4
:1055E000A09490948094811C911CA11CB11C2C2F20
:1055F000B501A401C7010E943D2A81E0A3CFC26189
:10560000D4CF27504C2FC501B4010E94492A4B0129
:105610005C01C260D15009F3C8010E94EE2C97FFD3
:10562000C8CFD9CFA0E2B0E0E8E1FBE20C9464225D
:105630005C01962E7A01CE0101966C0180E2F601A2
:1056400011928A95E9F7F501B381890130E020E0F4
:10565000712C812CA0E041E050E0F801B3FD859170
:10566000B3FF8191982F8F01811107C010E000E0F6
:10567000C801A096EDE00C9480228E3519F4211516
:10568000310541F1A21713064CF48D3549F18D32E5
:1056900029F4811006C0882483941DC0882009F451
:1056A00064C0E92FE695E695E695EC0DFD2DF11D1C
:1056B000892F8770BA0101C0660F8A95EAF7808149
:1056C000682B6083791651F0971510F49F5FE9CF2E
:1056D0009150E7CFA1E02F5F3F4FBFCF812CFBCF91
:1056E000882019F08E8180628E83AA2359F0F601FA
:1056F0009E012F5D3F4F8081809580833196E21718
:10570000F307C9F788248394C5010E94EE2C97FD06
:1057100016C0E82FE695E695E695EC0DFD2DF11DFA
:10572000208130E0AC014770552702C035952795A0
:105730004A95E2F720FD06C0B5010E945A2D882047
:1057400069F094CFE114F10429F0F7018083C701D7
:1057500001967C019A94812C9110D6CFE114F1042A
:1057600009F486CFF701108283CFE82FE695E695FE
:10577000E695EC0DFD2DF11D982F9770BA0101C033
:10578000660F9A95EAF79081692B6083782EA3CFF4
:10579000B0E0A0E0EEECFBE20C9462226C01EB01C5
:1057A0005A01FC0117821682512CF601E380FE019A
:1057B000E3FC8591E3FE8191182FEF018823E9F046
:1057C00090E00E942F21892B21F0C6010E946C2AB3
:1057D000ECCF153241F4FE01E3FC1591E3FE11918B
:1057E000EF01153269F4C6010E94EE2C97FD8EC0C0
:1057F0001817D9F2B6010E945A2D852D90E08AC063
:1058000000E01A3231F4E3FC1591E3FE1191EF014F
:1058100001E0F12C20ED210F2A3048F101FF37C0C3
:10582000FF2059F31836B1F11C3609F43DC011239D
:1058300021F3612F70E08CED90E00E94CD2C892B3C
:10584000E1F2912C812C00FD06C0F5018080918051
:10585000C50102965C011E3679F5F6014681578135
:1058600070E060E0202FC4010E943D2A9ECF0260BC
:105870006F2D70E090E080E040E20E94492AF62E11
:10588000FE01E3FC1591E3FE1191EF01C3CFFF246C
:10589000FA94C8CFFE01E3FC1591E3FE1191EF01EC
:1058A000183609F0C4CF08600460FE01E3FC1591CE
:1058B000E3FE1191EF01BBCF1336C1F401FD02C02D
:1058C000FF24F394C6010E94EE2C97FD1FC08114A3
:1058D000910429F0F4018083C40101964C01FA94EB
:1058E000F110F0CF00FD61CF53945FCF1B35B9F4B9
:1058F0009E01A4016F2DC6010E94122BEC01892B81
:1059000089F7F6018381807309F477CF8FEF9FEFDA
:10591000511073CFCDB7DEB7EFE00C947E22C601F5
:105920000E946C2A97FDF2CF1F36A9F130F414368D
:1059300041F0193639F0006405C01337B9F0153756
:10594000D1F70062202FA4016F2DC6010E94852A85
:105950008111C8CFD6CF8114910429F0F40160825F
:10596000C40101964C01FA94FF2071F0C6010E9417
:10597000EE2C3C0197FD08C00E942F21892B59F382
:10598000B601C3010E945A2D8114910409F4AACFD3
:10599000F4011082A7CF0061D5CFFC010590061657
:1059A00021F00020D9F7C00108953197CF01089563
:1059B000FC010590615070400110D8F780959095DA
:1059C0008E0F9F1F0895FC016150704001900110DF
:1059D000D8F7809590958E0F9F1F0895CF93DF93F2
:1059E000EC012B8120FF1AC026FF0CC02F7B2B83DC
:1059F0008E819F8101969F838E838A8190E0DF91C3
:105A0000CF91089522FF18C0E881F9818081082E86
:105A1000000C990B009729F420622B838FEF9FEFE6
:105A2000EECF3196F983E8832E813F812F5F3F4F80
:105A30003F832E839927E3CFEA85FB85099597FF5E
:105A4000F3CF2B81019621F080E2822B8B83E6CF6E
:105A500080E1FBCF0F931F93CF93DF93182F092F74
:105A6000EB018B8181FD09C01FEF0FEF812F902F7C
:105A7000DF91CF911F910F91089582FF14C02E8165
:105A80003F818C819D81281739073CF4E881F98199
:105A9000CF0101969983888310838E819F8101961F
:105AA0009F838E83E3CFE885F985812F0995892B24
:105AB000A1F3DACFFB01238120FF11C026FD0FC027
:105AC0008F3F980771F082832F7D20642383268186
:105AD00037812150310937832683992708958FEF25
