:020000040800F2
:10000000201800203D05000875030008770300084C
:10001000790300087B0300087D030008000000004E
:100020000000000000000000000000007F03000846
:100030008103000800000000F12A000811100008E8
:100040005705000857050008570500085705000820
:100050005705000857050008570500085705000810
:100060005705000857050008570500085705000800
:1000700057050008570500085705000857050008F0
:1000800057050008570500085705000857050008E0
:1000900057050008570500085705000857050008D0
:1000A00057050008570500085705000857050008C0
:1000B00057050008570500085705000857050008B0
:1000C00057050008570500085705000857050008A0
:1000D0005705000899110008570500085705000842
:1000E0005705000857050008570500085705000880
:1000F0005705000857050008570500085705000870
:10010000570500085705000857050008570500085F
:10011000570500085705000857050008570500084F
:10012000570500085705000857050008570500083F
:10013000570500085705000857050008570500082F
:10014000570500085705000857050008570500081F
:10015000570500085705000857050008570500080F
:1001600057050008570500085705000857050008FF
:1001700057050008570500085705000857050008EF
:10018000570500085705000800F002F800F049F88C
:100190000AA090E8000C82448344AAF10107DA45E2
:1001A00001D100F03EF8AFF2090EBAE80F0013F0EB
:1001B000010F18BFFB1A43F001031847383D000038
:1001C000583D0000103A24BF78C878C1FAD85207C9
:1001D00024BF30C830C144BF04680C6070470000C1
:1001E0000023002400250026103A28BF78C1FBD840
:1001F000520728BF30C148BF0B607047662903F023
:10020000AD85002070471FB503F0A3FD02F0BAFFD3
:1002100004000020002103F00FFDE0601FBD10B5B9
:1002200010BD03F0C7F81146FFF7EDFF00F06CF8C2
:1002300003F0E5F803B4FFF7F2FF03BC00F04EFF54
:100240002DED028B3E4C9FED3F8A4FF4FA7694EDF4
:10025000000A30EE080A84ED000A02F021FC05468F
:10026000206803F005FD41EC100B37A053EC102B78
:1002700002F024FD284602F017FC304600F00BFF88
:10028000E5E70026364C4FF496750127C4F88462E2
:10029000284600F000FFC4F88472284600F0FBFEF8
:1002A000F4E700252E4C01264FF4C877C4F8945289
:1002B000502000F0F0FEC4F89462384600F0EBFEE7
:1002C000F4E710B501F0FBF802F0EAFB0723254A3A
:1002D00004460021AFF2350002F072F80623224AEC
:1002E0000021AFF2610002F06BF805231F4A0021E4
:1002F000AFF2B30002F064F80A2002F074FA20466C
:10030000BDE8104002F0D0BB10B5A82000F089FE77
:100310004FF4A06000F032F94FF4E13000F0E6FE57
:1003200000F0EEF800F0C6FF0A23114A0021AFF2F8
:100330006D0002F045F801F0AFF8002010BD00009C
:10034000000000200AD7233C666C6F61745F6E75F5
:100350006DB5C4D6B5CEAA3A2025660D0A000000B8
:100360000000404274030020740400207406002042
:10037000740200207047FEE7FEE7FEE7FEE77047E5
:10038000704700000CB500225449009201920868A1
:1003900040F4803008604FF4A043086800F4003057
:1003A00001900098401C0090019810B90098984264
:1003B000F3D10868800334D50120019047484030CC
:1003C000026842F0805202604548026842F44042AE
:1003D00002604248083002680260026842F400424B
:1003E0000260026842F4A0520260031F3D4A1A6094
:1003F0000A6842F080720A600A689201FCD53A49A4
:1004000040F205720A60016821F003010160016891
:1004100041F0020101600168C1F381010229FAD1B2
:100420000CBD01920CBD314810B5016841F470015A
:1004300001602A48016841F001010160274A00215A
:100440000832116002682A4B1A400260031D294AD3
:100450001A60026822F48022026020480C30016099
:10046000FFF790FF21494FF000608039086010BD10
:1004700070B51A4D083528681F4B204910F00C0044
:1004800004D05E10042803D0082803D00B601BE0C2
:100490000E6019E0114A121D1068C0F380541068F4
:1004A00000F03F0014B1B6FBF0F001E0B3FBF0F058
:1004B00013681268C3F388135843C2F30142521CF5
:1004C0005200B0FBF2F0086028680C4AC0F3031039
:1004D000121D105C0A68C2400A6070BD00380240FC
:1004E0000070004008544007003C024088ED00E0E6
:1004F000FFFFF6FE103000240024F400040000206A
:100500001CB50121084600F000FB222000900120CC
:100510008DF8040000218DF8061003218DF80510D8
:10052000054C8DF807006946204600F0EBF82221C3
:10053000204600F04CF91CBD0000024009488047ED
:1005400009480047FEE7FEE7FEE7FEE7FEE7FEE7B5
:10055000FEE7FEE7FEE7FEE704480549054A064BCD
:1005600070470000270400088901000820120020BD
:1005700020180020201400202014002028490843BF
:1005800028490860704730B50F23C27801780125EB
:10059000FAB1244A126801F1E02102F4E062C2F5E6
:1005A000E062C2F30722C2F10404D3404278A240C1
:1005B00084781C401443220181F80024007800F064
:1005C0001F018D404009800000F1E020C0F800517B
:1005D00030BD01F01F0085404809800000F1E02097
:1005E000C0F8805130BD104A114001430D48001F32
:1005F000016070470B4A121D0029116801D00143A8
:1006000000E08143116070474FF0E0210428086941
:1006100003D020F004000861704740F00400FAE7BE
:100620000000FA050CED00E080FFFF1F774910B5D0
:10063000884206D10121084600F099FA00210120E4
:100640005BE07349884206D10121022000F08FFA55
:100650000021022051E06F49884206D10121042087
:1006600000F085FA0021042047E06B49884206D15A
:100670000121082000F07BFA002108203DE06749B5
:10068000884206D10121102000F071FA00211020CB
:1006900033E06349884206D10121202000F067FA47
:1006A0000021202029E05F49884206D10121402015
:1006B00000F05DFA002140201FE05B49884206D12E
:1006C0000121802000F053FA0021802015E05749D5
:1006D000884202D1012184150AE05549884202D19D
:1006E0000121441504E0534988420AD1012104152F
:1006F000204600F03CFA00212046BDE8104000F002
:1007000036BA10BDF0B5002201274FF0030C0B687C
:1007100007FA02F52B40AB422CD1066853000CFAC5
:1007200003F4A64306600E79D0F800E09E4046EA46
:100730000E0606600E79012E01D0022E12D18668B7
:10074000A64386604E79D0F808E09E4046EA0E0641
:1007500086604668AE43466045688E799640B6B27C
:1007600035434560C568A543C560CC799C40C368E6
:100770001C43C460521C102AC9D3F0BD4FF6FF7150
:1007800001600021017141718171C171704708B52B
:1007900041F480320092C261C1610099C161C169B6
:1007A000C069009008BD0246002012690A4200D0CC
:1007B00001207047006980B27047024600205269EC
:1007C0000A4200D001207047406980B2704701831F
:1007D0007047418370470AB1018370474183704776
:1007E0004161704742694A40426170474B07DB0EE6
:1007F0009A40C90810B500EB8100016A0F249C40A3
:10080000A1430162016A1143016210BD0000024070
:100810000004024000080240000C024000100240A8
:100820000014024000180240001C02400020024058
:100830000024024000280240F848016841F001010C
:100840000160F64A0021083211600268F44B1A4038
:100850000260031DF34A1A60F04BF34A84331A60B6
:10086000F04A103A1B1D1A60026822F480220260CE
:10087000EA480C300160181D01607047E74900220A
:10088000891C0A700870704702460020510901292E
:100890000CD002290CD0E1497431096802F01F0222
:1008A000012393400B4200D001207047DB49F4E75D
:1008B000DA497031F1E718B500204FF4A0440090F8
:1008C0003120FFF7E1FF0099491C0091A14201D0BE
:1008D0000028F5D03120FFF7D7FF002800D00120F5
:1008E00018BDCE4A116821F0F80141EAC00010603D
:1008F0007047CE4908607047C849002270310A70BD
:100900000A70012802D0042801D105200870704720
:10091000C7490860704741EA82115A0810B5C54BB3
:10092000029C03EB02421143014341EA0460BB49CC
:10093000091D086010BDBD4908667047800140EA86
:100940000170B649843108607047B84988667047BD
:10095000800140EA0160B14940EA027088310860D4
:100960007047B24908677047B049C8647047AB4BDD
:1009700008331A68084322F0EC621043186070478D
:10098000A64B08331A68084322F0784210431860D7
:100990007047A24A0832116821F003010143116037
:1009A00070479E480830006800F00C0070479B4A72
:1009B0000832116821F0F001014311607047974A35
:1009C0000832116821F4E051014311607047934AE5
:1009D0000832116821F4604141EAC000106070479C
:1009E00070B58E4B08331968934C11F00C0104D08C
:1009F0006610042903D0082903D004601BE00660B8
:100A000019E0864A121D1168C1F38055116801F082
:100A10003F0115B1B6FBF1F101E0B4FBF1F114684F
:100A20001268C4F388146143C2F30142521C52009D
:100A3000B1FBF2F1016019680F2202EA11117F4A3D
:100A4000545C0168E14041601C68072505EA942474
:100A5000145D21FA04F484601B6805EA5333D25C08
:100A6000D140C16070BDC0F30121032908D16B4B97
:100A700008331968724A21F4F81102400A431A60D7
:100A8000664970310A68C0F30B0002430A60704780
:100A900067494439086070476549403908607047C4
:100AA0006249C1F85C0170475C4A8C321168401E93
:100AB00021F01F01014311607047584A8C321168C0
:100AC0006FF0FF0321F4F85103EB0020084310609E
:100AD0007047524A8C32116821F440110143116071
:100AE00070474E4A8C32116821F440010143116075
:100AF00070474A4A8C32116821F440310143116039
:100B000070475049C1F8E0017047444A303200292B
:100B1000116801D0014300E08143116070473F4AF2
:100B200034320029116801D0014300E08143116093
:100B300070473A4A38320029116801D0014300E079
:100B4000814311607047354A40320029116801D055
:100B5000014300E0814311607047304A443200296C
:100B6000116801D0014300E08143116070472B4AB6
:100B700010320029116801D0014300E08143116067
:100B80007047264A14320029116801D0014300E061
:100B9000814311607047214A18320029116801D041
:100BA000014300E08143116070471C4A2032002954
:100BB000116801D0014300E0814311607047174A7A
:100BC00024320029116801D0014300E08143116003
:100BD0007047124A50320029116801D0014300E0E9
:100BE0008143116070470D4A54320029116801D0C9
:100BF000014300E0814311607047084A58320029E0
:100C0000116801D0014300E0814311607047034A3D
:100C100060320029116817D0014316E00038024005
:100C2000FFFFF6EA103000240030002000004742A9
:100C3000800E47420000FFFF0024F400180000204F
:100C4000FFFCFF0F00104742814311607047194AB3
:100C50000029116801D0014300E081431160704711
:100C600014490C310128086803D020F008000860FE
:100C7000704740F00800FAE70E4A573A0029117809
:100C800001D0014300E081431170704709481030E2
:100C9000016841F08071016070470146054A0020FB
:100CA000583A12680A4200D001207047014956396B
:100CB0000870704764380240CD4910B5884206D1AB
:100CC00001211020FFF77BFF0021102020E0C949FF
:100CD000884202D101214C0429E0C749884202D14F
:100CE00001218C0423E0C549884202D10121CC04B2
:100CF0001DE0C349884202D101210C0517E0C1491A
:100D0000884209D101212020FFF759FF002120202E
:100D1000BDE81040FFF753BFBB49884202D1012113
:100D20008C0704E0B94988420AD1012144052046D4
:100D3000FFF73BFF2046BDE810400021FFF735BF1D
:100D400010BD7FB50446008A0D46C98820F4405086
:100D500001432182A08941F20C618843A9882A8934
:100D600011436A8902431143A181A08A20F4407192
:100D7000A8890843A0826846FFF732FE9C48844257
:100D800002D0A048844201D1039800E00298A189D2
:100D9000090400EBC00101EB0010296801D54900EE
:100DA00000E08900B0FBF1F06422B0FBF2F1090130
:100DB0000B096FF018056B4300EB8300A3891D043A
:100DC0004FF0320306D503EBC000B0FBF2F000F0A9
:100DD000070005E003EB0010B0FBF2F000F00F009D
:100DE000084320817FBD4FF41651016000218180AE
:100DF000C18001810C2242818181704710B5028A35
:100E00004C8822F470630A8822438C88C9880C437A
:100E100022431A43028210BD00210180418081805B
:100E2000C18070470029818902D041F4005101E05E
:100E300021F4005181817047028B02F47F420283CA
:100E4000028B0A43028370470029818902D041F452
:100E5000004101E0C1F30E01818170470029818AC0
:100E600002D041F4006101E021F400618182704709
:100E7000C1F30801818070478088C0F30800704783
:100E8000028A22F00F020282028A0A43028270471B
:100E90000029818902D041F0020101E021F0020124
:100EA00081817047828922F40062828182890A43AB
:100EB00082817047028A22F020020282028A0A435B
:100EC000028270470029018A02D041F4804101E08A
:100ED00021F4804101827047818941F001018181C3
:100EE00070470029818A02D041F0080101E021F019
:100EF000080181827047028BD2B20283028B42EAE0
:100F00000121018370470029818A02D041F020012C
:100F100001E021F02001818270470029818A02D0FE
:100F200041F0100101E021F0100181827047828AB6
:100F300022F004028282828A0A4382827047002958
:100F4000818A02D041F0020101E021F00201818298
:100F50007047002A828A01D00A4300E08A438282D5
:100F6000704710B5C1F3421301F01F040121A140E5
:100F7000012B07D0022B07D01430002A026805D0BD
:100F80000A4304E00C30F8E71030F6E78A430260C9
:100F900010BD0246002012880A4200D0012070478E
:100FA000C9430180704770B501F01F050126002478
:100FB000C1F3421306FA05F2012B0FD0022B0FD01A
:100FC000838A4FEA11210088134206FA01F600EAEB
:100FD000060001D000B10124204670BD8389F0E7EE
:100FE000038AEEE70A0A01219140C9430180704754
:100FF000001001400044004000480040004C004008
:10100000005000400014014000780040007C004087
:1010100010B500F0C1F900F06AFABDE8104000F028
:10102000C5B910B504466FF00400FFF7EDFA284A81
:10103000E00841F28831107010FB01F1052050806A
:101040004FF0E020026942F0020202614161016951
:1010500041F00101016110BD2DE9F0414FF0E027A1
:1010600000247E691A49097800FB01F500F0C7F9F0
:10107000B969B8698842FCD002D2A1EB000102E054
:10108000A6EB000211440C440146AC42F1D3BDE88A
:10109000F04100F0E7B970B504460E480078012829
:1010A0000FD10D48007860B9094D6888844203D398
:1010B000B4FBF0F001F042FC6888B4FBF0F100FBF7
:1010C00011444FF47A706043BDE87040C4E70000FB
:1010D000280000203B0000203700002070474649D0
:1010E0000A885206FCD5C2B28A807047F0B506461F
:1010F000012187B00846FFF708FD01211020FFF706
:101100002CFD3E4D072209212846FFF76FFB0722E1
:101110000A212846FFF76AFB02218DF814108DF88A
:1011200015104FF4C060002404908DF8164001277C
:101130008DF8177004A92846FFF7E4FAADF80440CB
:10114000ADF80640ADF80840ADF80C400C202A4C34
:10115000ADF80A00009669462046FFF7F2FD01212E
:101160002046FFF75FFE40212046FFF719FF0122CE
:1011700040F225512046FFF7F4FE25208DF8180097
:1011800003208DF819008DF81A008DF81B7006A841
:10119000FFF7F9F907B0F0BD70B500F0FDF8164C97
:1011A00040F225512046FFF7FEFEE0B12046FFF752
:1011B00063FE134AC1B21088030414D444044FF0F0
:1011C000000304D50A290DD140F4004011E00D2997
:1011D0000DD0C0F30D040B4D401C80B2295510807A
:1011E000C72800D91380BDE8704000F0DFB840F494
:1011F00080401080F7E7000000100140000002402E
:101200002C000020780600207CB5FF4D00246946A4
:10121000204601F0B7FA58B955F8241041B1012918
:1012200006D0D1E9020200EB82004864019888648C
:10123000641CE4B23F2CEAD97CBDF44C02E02820C7
:1012400001F07CFB60780028F9D0642160690025FA
:10125000B0FBF1F0606118B92570FF2001F0C3FA0E
:1012600001F01EFCE169C4E9061501F01DFCD4E99A
:101270000510B0FBF1F0C0F16400207001F079FCC2
:10128000FFF7C2FF142001F059FBE9E7DF4C01F042
:1012900007FCE169491CE16101F006FC01F068FC12
:1012A000F5E7002203E0491E00F8012B89B200296E
:1012B000F9D1704770B586B001F056FCD34D0024CB
:1012C0002C63AC70EC702C72EC71EC60EC61AC6176
:1012D0006C616C70AC71204605F134010C54401CFB
:1012E000C0B20828FAD32C716C71AC622C6200F089
:1012F00053FAC821C648FFF7D4FFC54B0020411C54
:101300000A4600EB800089B203EB800001EB81010B
:1013100003EB81010470416090B20928EFD300EB28
:10132000800003EB8000047044602B6100F020FD1E
:1013300000F0A3FF8026B748CDE90106B24A032595
:101340004FF6FF703F23121F00210090AFF2C30041
:10135000CDE9034501F07DF805AAAFA13F2001F0DA
:101360009BF9AB48AB4AC830CDE901064FF6FE7099
:101370003E23121F00210090AFF24110CDE903453A
:1013800001F067F805AAA8A13E2001F085F906B092
:10139000BDE8704001F0E9BB9C49C879012804D13F
:1013A0008878FF2801D2401C8870704770B5974C30
:1013B000E079012822D101F073FBA178054621B123
:1013C000491E11F0FF00A07013D1E07888B900F039
:1013D00013FA8D49607951F82010A1622279904268
:1013E00007D0886B401C8863E068401CE06001F017
:1013F00077FB2846BDE8704001F056BB70BD10B5C4
:10140000824CE07901280CD101F04AFBA17821B986
:10141000E178FF2901D2491CE170BDE8104001F0DC
:1014200043BB10BD70B501F03BFB784C0546A0787E
:1014300098B9E07888B900F0DFF97348627950F81C
:101440002210A1622079824207D0886B401C8863F9
:10145000E068401CE06001F03CFB2846BDE87040BD
:1014600001F022BB10B5694CE079012813D101F0DD
:1014700017FBE17831B1491E11F0FF01E17001D194
:10148000A17819B1BDE8104001F00EBB01F00CFBD2
:10149000BDE81040C6E710BD10B55C4CE0790028EF
:1014A0000CD100F0A9F960795749207151F820005A
:1014B000A0622062BDE8104001F0F9BA10BD10B57D
:1014C000022001F03BFA01F0EBFA504C0021E161FF
:1014D00001F0EAFA142001F031FA01F0E1FAE169D1
:1014E000616101216170BDE8104001F0DDBA2DE9B4
:1014F000F04101F0DDFB01F0D3FA444D296B491CAA
:10150000296301F0D1FAE87901283BD1687A0126F4
:10151000002720B1012835D0022802D06F72EC6A72
:101520002CE06E72FBE701F0BBFAE16A19B3491EC9
:10153000E16220D194F8301011F0370F06D001F09D
:10154000C80184F8301084F8316001E084F831700B
:1015500094F8301009070ED494F83610AA792B4B62
:101560001143A97194F83410343394F835C05A5C9F
:1015700042EA0C025A54646901F096FA94F8320077
:101580003F28D0D1BDE8F08140F22310704770476A
:1015900010B590F8342090F835408B18DA7AA243D1
:1015A000DA7204D18A7A90F8360082438A7210BDCA
:1015B000F0B50E460146847A1F480027045D0D19D8
:1015C000ED7A405D00EBC400C5B20F4850F825002D
:1015D000C762066290F83060964380F8306080F809
:1015E000313032070BD4094A90F8363096793343BC
:1015F0009371343290F83560135D33431355FFF720
:10160000C7FF2846F0BD0000080C00203400002071
:1016100040070020080A002075432F4F532D4949E9
:101620002049646C6500000075432F4F532D4949D4
:101630002053746174000000603D000830B5744CA4
:1016400000F10B02216A41F81C0F0B7E497E9D5C64
:101650000D439D54216A827A91F836301A43827282
:1016600091F8340004F1340391F835501A5CAA4320
:101670001A5404D191F83610A0798843A07130BD76
:101680000022827211464318491CC9B2DA72082935
:10169000F9D3704705E011F8013B521E00F8013BF9
:1016A00092B2002AF7D170470146002002E0401CA8
:1016B000C0B2491C0A78002AF9D170472DE9F05FC1
:1016C0009846DDE90ABA91460E46054601F0E8F96A
:1016D0004F4F7C6A002C5BD061691834796201F04D
:1016E000E3F944F8186CA5760026267666766661DE
:1016F00044F80CBC44E905A90C9824F8080CE80847
:1017000024F8068CE6770122207705F0070102FA1B
:1017100000F3E176A3778A4062776660E660A660B0
:101720002662A66266623BA0E662C4E90C60002005
:10173000183C04EB8001401C0E6510F0FF00F8D04F
:10174000204601F0B4FA204601F010FA01F0A8F9A1
:101750000146314840F82540F86AC4E9050600B161
:101760008461FC6294F83600BA791043B871284A53
:1017700014F8340F34326478135C23431354387AEA
:10178000401C3872084601F08FF90020BDE8F09F38
:1017900001F08AF94220F9E700B54FF47C711F4847
:1017A000FFF77FFD4FF480711B48FFF77AFD1B4B5D
:1017B0000020411C0A46C9B2C0EBC00000EB40004B
:1017C000C1EBC10103EB800001EB410103EB81019F
:1017D000416113A1C164D0B20B28EAD3C0EBC000B1
:1017E00000EB400003EB80000DA20021C2644161C8
:1017F00007484362C16200BD05490A4A01F134034A
:101800008879105C1B5CD25C02EBC00048717047A9
:10181000340000203F000000080C0020080D0020CC
:101820003F000000603D00082DE9F04105460078CA
:101830000F461E461446052804D0012018700020CB
:10184000BDE8F08114F0800002D022F08004012075
:1018500080460020307001F023F97022FCB1012C89
:1018600023D0022C08D0032C11D001F01DF9002444
:101870006F2030702046E3E72C8921463C40BC4273
:1018800009D01CE0A14318E001F00EF9F2E72C8921
:1018900021463C4013D0B8F1000FF5D0F2E729897A
:1018A00027EA0104BC4204D009E0298937EA01048F
:1018B00005D0B8F1000FE7D021432981E4E7327069
:1018C000E2E770B50646F9480D46007818B11020D9
:1018D0000870002070BD01F0E3F8F5490C6864B1B0
:1018E00062680A600521217026810026F1A16660E8
:1018F000E16001F0D9F82E7003E001F0D5F8722014
:101900002870204670BDD0E9001200232AB1116072
:1019100001B14A60806843627047C2680029516023
:10192000F8D04B60F6E710B5024680680023C3622A
:10193000018590F8301011F0DF0180F8301080F848
:10194000313005D000241046FFF7DDFF204610BDE2
:10195000D94990F836300C7823430B7010F8341FB7
:10196000D64B40785C5C04435C540124EBE72DE9E2
:10197000F05F0446CD4888461646007808B10F202F
:1019800003E02078052802D0012010701AE001F051
:1019900087F8656881460DB1012700E00027DFF870
:1019A00010A34FF0000BB8F1000F06D0B8F1010FF3
:1019B00020D001F079F8072003E037B101F074F886
:1019C000492030702046BDE8F09FBAA0E06084F85E
:1019D00000B0DAF800106160A4F808B05D4648462F
:1019E000CAF8004001F060F818E000212846FFF72F
:1019F0009AFF2D68002DF8D1AEA0E06084F800B009
:101A0000DAF800106160A4F808B05D464846CAF8EC
:101A1000004001F049F80FB1FFF704FD35700020D8
:101A2000D1E72DE9F0410746A0480E46144600785C
:101A300010B1112010700AE001F032F80546387834
:101A4000052806D0284601F02FF80120207000203C
:101A5000F6E6F8683060FFF727FE0646284601F0F4
:101A600023F8002020703046EAE670B505468F481E
:101A70000E461446007810B11220107070BD01F0AF
:101A80000FF82978052903D001F00EF8012003E0B2
:101A9000EE6001F009F80020207070BDF0B5884DAF
:101AA000059E2C6894F8307047F0200784F8307059
:101AB000002784F83170E66261620A828B748C6060
:101AC0004268C860C1E90027426802B151604160C4
:101AD00028687A4B90F8341090F835405A5CA2434D
:101AE0005A5405D1744990F836200878904308700C
:101AF000F0BD2DE9F04F04466C4887B09A46007857
:101B0000109D91460F4608B102209BE06D48007879
:101B100008B10D2096E02078052801D0012091E041
:101B200019F0800F03D009F07F09012600E000269C
:101B300000F0B6FF06905FEA09004FF0000B23D0DB
:101B4000012837D0022808D0B9F1030F13D0069826
:101B500000F0AAFF00206F2162E0208900EA070858
:101B6000B8450ED032E020EA08002DE0544909685B
:101B7000A1F8288015E0208900EA07015FEA010842
:101B800024D0002EF2D0EEE7208927EA0008B845DD
:101B90001CD116B140EA0800208149480068A0F82D
:101BA0002880069800F080FF85F800B0404607B016
:101BB000BDE8F08F208927EA00015FEA010805D01F
:101BC000002ED3D040EA08002081CFE74B463A46AA
:101BD00001A92046CDF800A0FFF760FF069800F0AD
:101BE00063FFFFF71FFC00F05BFFDFF8D480844643
:101BF000D8F8000090F83170A7B180F831B05C4699
:101C000001A8FFF780FED8F8000080F83040604659
:101C100000F04AFF0020022F01D00A2100E00E212F
:101C20002970C4E7078DB6B15FEA090010D001281A
:101C30000ED0022809D0B9F1030F06D0604600F09B
:101C400033FF6F2028700020B1E72089B84301E0FE
:101C5000208938432081604600F026FF85F800B0D7
:101C60003846A4E710B500F01BFF154909680C8D34
:101C700000F01AFF204610BD2DE9F041054600781E
:101C800014460E461F46052802D0012018702EE08B
:101C900000F006FF80462CB1012C15D000F004FFA7
:101CA000712023E02889B04310E0000036000020B6
:101CB000700000203F0000003A0000206800002073
:101CC0005400002037000020288930432881002656
:101CD0006C6828E0A07CA0B1012819D0022808D0A7
:101CE00003280AD0404600F0DFFE6F203870002045
:101CF000A6E52989208A014007E02989208A014038
:101D000009E0218A2A8908469143884204D009E0E3
:101D1000218A2889814329B12046FFF704FE012842
:101D200000D101262468002CD4D1404600F0BCFE2E
:101D3000012E01D1FFF776FB00F0B2FE2C8900F0F6
:101D4000B3FE0020387020467AE570B5054600786D
:101D50000C46052803D001200870002070BD00F05B
:101D60009FFE2D8900F0A0FE00202070284670BD47
:101D700010B550210E48FFF794FA00200C4B044692
:101D8000411C03EB00108AB203EB021204704260A4
:101D9000AFF2E002C26088B20428F1D303EB001076
:101DA0000470AFF2F0014460C1600248036010BDEE
:101DB000F81000207000002070B5054600780C4631
:101DC000022803D001200870002070BD00F068FEDA
:101DD0006A680346D08A70B11169081D10610D68E8
:101DE000D18A491ED1829168884201D15068106120
:101DF0000020207002E01F2020700025184600F00F
:101E000053FE284670BD2DE9F0410646F848884645
:101E1000007810B10020BDE8F08100F041FEF54FE0
:101E20003D680DB16968396000F03EFE05B300F011
:101E300037FEF1490C68ACB122680A6000F034FE4C
:101E400006EB8800C4E90160E6602661A4F814800E
:101E50000020E08202212970288128466C60FFF76B
:101E60000FFC05E0396869603D6000F01DFE00254B
:101E70002846D0E72DE9F047044600788846154605
:101E8000022801D0012003E0D948007810B10F20CA
:101E900010701DE000F004FE0746A07A08B101268C
:101EA00000E000265FEA0800DFF84C83DFF844A377
:101EB0004FF0000906D0012828D0384600F0F4FD84
:101EC000072004E03EB1384600F0EEFD49202870BE
:101ED0002046BDE8F0876068D8F800204E460260D2
:101EE000C8F8000084F80090DAF800106160A4F8E7
:101EF00008903846CAF8004000F0D6FD2E7020E069
:101F00000023042219462046FFF752FBA07A00283E
:101F1000F6D16068D8F800200260C8F8000084F8A4
:101F20000090DAF800206260A4F80890C8463846AD
:101F3000CAF8004000F0B8FD0EB1FFF773FA85F85B
:101F400000800020C5E710B5044600F0A9FD6168D7
:101F50004A68CA600A610022CA8200F0A5FD00201A
:101F600010BD2DE9F0470646007889461446022840
:101F700001D0012008E09E48007808B1022003E06B
:101F80009E48007818B10D2010700020A1E700F0E5
:101F900087FD054670680027C18A89B10269111D55
:101FA00001611668C28A521EC2828268914201D1C2
:101FB00041680161284600F077FD2770304688E7C8
:101FC000DFF83C82D8F8000010F8301F41F004011F
:101FD0000170477040F8049C3046FFF72FFB2846FD
:101FE00000F062FDFFF71EFA00F05AFD8146D8F8B6
:101FF000000090F8311039B1022908D03146FFF7BE
:10200000C7FA00250A2004E0056A277002E00025CF
:102010000E202070D8F8000080F8307080F8317001
:1020200040F81C7F4760484600F03EFD284650E7D8
:102030002DE9F0410F460546017801201646022998
:1020400001D0107028E000F02BFD8046A87AF0B196
:102050000024012F0FD00223042200212846FFF77D
:10206000A7FA0124404600F01FFDFFF7DBF90E2020
:1020700030702046CFE60223042200212846FFF7D5
:1020800097FA641CA87AE4B20028F4D1EAE7404643
:1020900000F00AFD002030700020BCE670B5044658
:1020A00000780E46022801D0012070BD00F0F8FC37
:1020B0000546A07A58B10023042231462046FFF796
:1020C00077FA284600F0F0FCFFF7ACF919E06068F9
:1020D000C18A828A914204D3284600F0E5FC1E2082
:1020E00070BDC1680A1DC2600E60C18A491CC182F0
:1020F000D0E902128A4201D14168C160284600F04D
:10210000D3FC002070BD70B5044600780E4602284E
:1021100001D0012070BD00F0C3FC0546A07A58B183
:102120000023042231462046FFF742FA284600F0F9
:10213000BBFCFFF777F918E06068C18A828A914298
:1021400004D3284600F0B0FC1E2070BD426801692F
:10215000914201D181680161091F01610E60C18A4C
:10216000491CC182284600F09FFC002070BD2DE96B
:10217000F0410746007814460D46022801D00120A0
:1021800049E600F08DFC0646B87AD0B1E00709D0E8
:102190000023042229463846FFF70AFAB87A0028B5
:1021A000F6D105E00023042229463846FFF700FA5D
:1021B000304600F079FC600701D4FFF733F90020C6
:1021C00029E67B68D88A998A884204D3304600F091
:1021D0006BFC1E201FE6A00714D5596818698842B9
:1021E00001D198681861001F1861056014E00000B3
:1021F000360000204400002074000020370000203A
:1022000054000020D868011DD9600560D3E902019F
:10221000814201D15868D860D88A401CD8823046A3
:1022200000F042FCCBE72DE9F041074600780E466E
:10223000022801D00120EEE500F032FC0146B87A18
:10224000307407F10B0406F108050020401C14F857
:10225000012BC0B205F8012B0828F7D37868C28A91
:102260000AB1026912683260C28AB280808AF08044
:10227000084600F019FC0020CDE510B578210D4886
:10228000FFF70FF80B4B0020411C0A4689B200EB08
:10229000400001EB410103EBC10143F8301090B263
:1022A0000428F1D300EB4000002143F8301002482D
:1022B000036010BD48110020740000202DE9F05F7C
:1022C0000C46054600F0ECFBDFF80CC401465CF858
:1022D000240028B1084600F0E7FB2820BDE8F09F65
:1022E000FF2D03D1FD48006890F832505CF825209E
:1022F0001AB3012A26D0E308012000FA03F604F0FD
:10230000070AF7B200FA0AF0C6B200204CF825001E
:102310004CF8242092F834C0DFF8C4E392F835502A
:1023200092F836901EF80C00284221D0A843DFF81E
:10233000B4B30EF80C000AD00FE0084600F0B4FB6E
:102340002920CBE7084600F0AFFB4320C6E79BF807
:10235000000020EA09008BF800009BF800003843D9
:102360008BF800001EF8038048EA06080EF8038088
:10237000D06998B100EB0C0898F80BC03CEA050C4A
:1023800088F80BC003D1857A25EA09058572857A1C
:102390003D4385721844C57A3543C57202F8324F01
:1023A0000846937082F801A01771D67000F07CFB8C
:1023B000CD480078012801D1FFF734F800208DE7DF
:1023C0002DE9FE431C4616460F46804600F068FB8A
:1023D000C649097821B100F067FB3C20BDE8FE83C7
:1023E000BD4D55F8241019B100F05EFB2820F5E72B
:1023F000012145F8241000F057FB002332463946EE
:10240000404600F0B7FB0026014600960196334691
:10241000324620460296FFF751F9070007D000F038
:102420003FFB45F8246000F03FFB3846D6E7AE4856
:1024300000780128F9D1FEF7F5FFF6E7D30707D0BA
:10244000920705D50022002902D004C0491EFAE7F0
:1024500070472DE9FF4F83B01C46DDE91386DDE9A7
:10246000119792468B4600F01BFBA049097829B1D1
:1024700000F01AFB3C2007B0BDE8F08F964D55F8F0
:10248000241019B100F010FB2820F4E7012145F8D1
:10249000241000F009FB324639464846FFF7CEFFCC
:1024A000334652465946039800F064FB0097CDE945
:1024B000018601464A462046109BFFF7FFF80600BA
:1024C00008D000F0EDFA002145F8241000F0ECFAF5
:1024D0003046D0E7844800780128F9D1FEF7A2FF02
:1024E000F6E72DE9F04705468048007810B1402016
:1024F000BDE8F0873F2D05D000F0D2FA0646FF2D4B
:1025000002D005E03E20F3E77448006890F83250AE
:10251000DFF8C49159F825405CB1012C0ED094F835
:1025200034106F4A94F83530505C984350540AD0B8
:102530000FE0304600F0B8FA4320D9E7304600F00B
:10254000B3FA3D20D4E7674894F8362001789143E8
:102550000170E16911B12046FFF71AF8606A08B10D
:10256000FFF7D1F94FF00008C4F82C80604F84F8D1
:10257000308084F831803878FF2801D2401C3870D0
:10258000304600F091FAFFF702F800F089FA0646AB
:10259000387808B1401E3870204600F0E8FA5549F6
:1025A0000878401E087049F82580A069414690B11E
:1025B00061694161D4E9050181614F480168616148
:1025C00004604EA0E064304600F06EFA46480078A1
:1025D000012806D007E060698161494960690860A7
:1025E000EBE7FEF71FFF002082E710B504463F2807
:1025F00010D0FF2C10D000F053FA374951F82410B6
:10260000A1B1012916D03F2281F8372000F04CFA01
:10261000002010BD3E2010BD00F042FA2F4909688D
:1026200091F8374000F040FA204610BD00F03CFA27
:10263000432010BD00F038FA3D2010BD2DE9F041D7
:1026400006462A480F461446007810B11120107033
:1026500020E000F025FA0546FF2E03D11F48006850
:1026600090F832601C4850F82600432670B10128CB
:102670000CD0C06C3860FFF717F80646284600F00B
:1026800013FA002020703046BDE8F081284600F0A3
:102690000BFA26700020F7E770B5054613480E4682
:1026A0001446007810B11220107070BD00F0F8F9D7
:1026B000FF2D03D10949096891F83250064951F8B4
:1026C00025204325F2B1012A1CD0D66400F0ECF994
:1026D0000020207070BD0000080C00205400002075
:1026E000680000203A0000203B0000203600002057
:1026F000370000203C000020580000203F00000070
:102700006000002000F0D0F9257070BD10B50446BF
:1027100000F0C6F9844951F8241059B101290DD0AF
:1027200091F83020130729D512F0F70281F83020F4
:1027300008D009E000F0B8F9462010BD00F0B4F967
:10274000432010BDCA6A1AB100F0AEF9002010BDD6
:10275000764B91F836201C7822431A7011F8342FEA
:10276000734B49789C5C0C439C5400F09DF9714874
:1027700000780128EAD1FEF755FEE7E700F094F96A
:10278000442010BD2DE9F0410446002008600E46AB
:10279000486000F085F9FF2C03D16749096891F87A
:1027A0003240614951F8241051B1012908D00A7C06
:1027B000D20709D0D1E90257002400F075F908E0EA
:1027C00000F072F943205FE700F06EF945205BE707
:1027D000641C01CD0028FBD0A0003060381B8000B5
:1027E0007060002050E770B5044600F059F90146CA
:1027F0005148FF2C006805D090F83200A04204D167
:10280000012503E090F83240FAE70025464850F8E9
:10281000240058B101280ED090F83420444C90F890
:102820003560A35CB343A3540AD00FE0084600F020
:102830003BF9482070BD084600F036F9432070BDD2
:102840003A4A90F836401378A343137010F8302FAB
:1028500042F008020270084600F026F90DB1FEF7BA
:10286000E1FD002070BD70B50E46054600F018F978
:102870000446FF2D03D13048006890F832502A48B2
:1028800050F8251051B101290DD054223046FEF7E1
:1028900001FF204600F008F9002070BD204600F03E
:1028A00003F9292070BD204600F0FEF8432070BDDA
:1028B00070B515460E46044600F0F2F80146FF2CAE
:1028C0000CD0194850F8240000EB8600046D08462F
:1028D00000F0EAF800202870204670BD1648006815
:1028E000F2E72DE9F0411C4615460E46074600F07A
:1028F000D7F80146FF2F0BD00B4850F8270000EB0C
:1029000086000565084600F0CFF800202070BBE681
:1029100009480068F3E7084810B5006800F0C9F9F5
:10292000BDE81040FF20DCE5080C00203A00002044
:10293000680000203B0000205400002070B50446D1
:1029400050480078002821D14F48007800281DD138
:10295000002C1BD000F0A4F803464C484C4D0168F5
:1029600091F8342091F83560A85CB043A85405D1A3
:10297000484891F836500278AA4302701846CC6253
:1029800000F092F8BDE87040FEF74CBD70BD10B588
:102990003C4C24780CB1552010BD3B4C24780CB134
:1029A000322010BDC8249B1C63434FF47A74B3FBE0
:1029B000F4F34FF4616410FB04F0C1EB011100EB80
:1029C0008100104400EBC00101EB001003EBC000DC
:1029D000FFF7B4FF002010BD10B504463F2801D317
:1029E0002A2010BD00F05CF82B4951F8241091B159
:1029F000012910D0CA6A92B10023CB6291F830202D
:102A000012F0370F0FD022F0370281F83020012268
:102A100081F8312009E000F047F8432010BD00F0B4
:102A200043F8502010BD81F8313091F83020120762
:102A300011D4184A91F8363014782343137011F8E2
:102A4000342F134B49789C5C0C439C5400F02CF8B9
:102A5000FEF7E8FC01E000F027F8002010BD10B5FB
:102A600000F01EF80D490C6800F01EF8204610BD5D
:102A700010B5044600F014F808490C60BDE8104099
:102A800000F012B83600002037000020540000206B
:102A9000680000203A000020080C0020640000209C
:102AA000EFF3108072B6704780F310887047264CA1
:102AB0004FF6FF7525604FF0000484F30988234C1E
:102AC0004FF001052570224C4FF08055256062B60D
:102AD000FEE730B41E4C4FF08055256030BC704787
:102AE00030B41B4C4FF08055256030BC704700BFA0
:102AF00072B6EFF3098050B11EF0100F08BF20ED41
:102B0000108A203880E8F00F12490968086000B583
:102B1000114880475DF804EB104811490A780270AB
:102B20000C4810490A680260106890E8F00F2030E5
:102B30001EF0100F08BFB0EC108A80F309884EF029
:102B4000040E62B6704700BF22ED00E03B0000209B
:102B500004ED00E054000020AD2C000838000020F7
:102B6000390000205C0000207047704770477047B4
:102B70007047704710B5131FAA241C601B1F0A243E
:102B80001C601B1F15241C601B1F14241C601B1FB2
:102B900013241C601B1F12241C601B1F11241C60AB
:102BA0001B1F10241C601B1F09241C601B1F0824F2
:102BB0001C601B1F07241C601B1F06241C601B1F9E
:102BC00005241C601B1F04241C601B1F03241C60A5
:102BD0001B1F02241C601B1F01241C601B1F2406DA
:102BE0001C601B1F1860A2F15000324B0360001FD5
:102BF0004FF012330360001F4FF003330360001FD8
:102C00004FF002330360001F5B100360001F016080
:102C10003121001F0160001F30210160001F2921A8
:102C20000160001F28210160001F27210160001F93
:102C300026210160001F25210160001F2421016061
:102C4000001F23210160001F22210160001F21219C
:102C50000160001F20210160001F19210160001F79
:102C600018210160001F17210160001F162101605B
:102C7000001F4FF011310160001F19010160001F9A
:102C80004FF009310160001FD9000160001F4FF0B3
:102C900007310160001F4FF006310160001F4FF047
:102CA000053101609900001F016010BD7047704739
:102CB0007047704717290008704700000FB4044997
:102CC00010B503AA029800F04BFA10BC5DF814FB93
:102CD000300000202DE9F0410E460446002020621D
:102CE0002046E168884730B3252805D0D4E9012182
:102CF0009047206A401CF2E7E16820460027884799
:102D0000050018D0A5F14100192802D820354FF44C
:102D100000673246294620462760FDF76FFA40B12A
:102D2000012804D0F61D26F007060836D8E7361D20
:102D3000D6E72846DAE7206ABDE8F0817047704799
:102D40007047704770472DE9FF4F0C461E464FF005
:102D5000FF378BB0D2E90001DDF860800A908A4627
:102D6000C1F30A5505B93D46002108464FF0000061
:102D7000BAF1000F00F4400005DA00EB80004FF4D8
:102D8000400101EA50004FEA9059B9F1010F00DD0E
:102D9000B9460A9850EA4A000ED044F61050A5F2FF
:102DA000FF3545432F14B8F1000F1ED07542291E80
:102DB0001EDDC9F100021CE0B8F1010F4FF0000068
:102DC00001D0302103E0F24305E02154401CB04221
:102DD000FBDB30460022002121540B99C1F808800A
:102DE000C1E900200FB0BDE8F08FBD1B6D1CDEE710
:102DF0004A4600DA694206A800F066FA06AB93E894
:102E0000070003AB83E8070050460A9900F040FB37
:102E10008DE80700A0F500501F3800900398002DA2
:102E200009DD42F21F014A46084403A9039068469F
:102E300000F09FFD08E0A0F500504A461F3803A9A6
:102E40000390684600F0A9FD8DE807000004000C1F
:102E500003D04FF0FF30410800E01046B8F1000FFA
:102E600003D00022009215461EE0751E05D400F026
:102E70008DF9303262556D1EF9D5B34601220843F3
:102E800002D000227F1C04E02078302801D10022EB
:102E90007F1E002A099786D01DE0112D07DA00F069
:102EA00075F9303262556D1C50EA0102F5D10843C4
:102EB00002D00098C8B10EE00021681E05E0235C36
:102EC000625C63542254401E491C8142F7DBAB46CE
:102ED000A81B401E0990002004F80B000B98099ACB
:102EE000C0F80880C0E9002B7CE711264FF00008ED
:102EF00059E72DE9F04F88460446D21D22F007011C
:102F000091B0D1E90001CDE90A0100F07CFE024652
:102F10000B98C00F01D02D2007E02068810701D554
:102F20002B2002E0202101EAC000032A099001D0F1
:102F3000072A05DB03464146204600F085F90BE1F0
:102F40002078800601D5E06900E00620B8F1650F21
:102F5000814606D0B8F1660F18D0B8F1670F70D16E
:102F600031E00020B9F1110F009001DB112301E0E5
:102F700009F101030AAA01A90CA8FFF7E4FEDDE9A3
:102F80000C70002609F10105834647E001204B46FD
:102F900000904FF000470AAA01A90CA8FFF7D3FE42
:102FA000DDE90DB00C995D46002610B909F101006C
:102FB0000D18B9EB050003D4C0F1FF3609F1010586
:102FC000A5EB09002BE0B9F1010F01DA4FF001097F
:102FD0000020B9F1110F0090484601DD112300E0F7
:102FE00003460AAA01A90CA8FFF7ADFEDDE90C70A3
:102FF0004D4600268346207800070AD4AB4500DA08
:103000005D4601A8012D04DD411911F8011C30298C
:1030100007D04F4502DA17F1040F04DA0120824687
:103020000FE06D1EEEE7002F02DCED1B3E4403E0D7
:10303000781CA84200DD7D1CB81B00F1010A4FF08E
:1030400000472078000703D4AA4501DB4FF0FF3A80
:103050000021B7F1004F0DF143088DF8431024D043
:1030600002202B23002F01DA7F422D230A21021E8A
:10307000A0F1010000DC5FB197FBF1FC97FBF1F2DE
:1030800001FB1C7C17460CF1300C08F801CDEEE773
:10309000A8F1010003702188090501D5452100E050
:1030A0006521A0F1010800F8011C09980FA9A1EB06
:1030B0000807FF1D00B10120411901EBEA70A16969
:1030C0003844081A401EA0612078C00602D4204669
:1030D000AFF30080099828B1D4E901219047206A14
:1030E000401C20622078C00622D52046AFF3008025
:1030F0001EE0002E04DBB34502DD01A8805D00E088
:103100003020D4E901219047206A401C2062761CBF
:10311000AAF101005FEA000A0AD100F033F8C068A2
:103120000168405CD4E901219047206A401C20627C
:10313000281EA5F10105DCDC07E0D4E9012118F81F
:10314000010B9047206A401C2062381EA7F101073E
:10315000F3DC2046AFF30080032011B043E600000B
:10316000074B70B50D467B4400F05BF804462846DB
:1031700000F018F910B14FF0FF3070BD204670BD5F
:1031800075DFFFFF00487047E011002030B5B0F157
:103190000A024FEA900E71F100034EEA817EB0EB15
:1031A0000E0061EB91014FEA101E4EEA017E10EB1A
:1031B0000E0041EB11114FEA102E4EEA016E10EB9A
:1031C0000E0041EB11214FEA104E4EEA014E10EB7A
:1031D0000E0041EB1141401841F100014FEAD000CF
:1031E00040EA41704FEAD10110EB80054FEA8104BB
:1031F00044EA907444EB01046D1944EB0404521B3F
:10320000A3414FF0000348BF0A3200D530BD401C37
:1032100041F1000130BD000001694A1C02610878DB
:10322000704700B58FB0CDE9013100210591054906
:103230007944CDE9031011466846FFF74BFD0FB006
:1032400000BD0000E5FFFFFF2DE9F0411F460446E9
:1032500003260168072A01F4006004DB08B116A503
:1032600005E016A503E008B115A500E015A521F0BD
:1032700010002060A069C01EA0610FB1401EA061B7
:103280002046AFF300804FB1D4E901213846904782
:10329000206A401C2062C01C206206E0206AFAE717
:1032A000D4E9012115F8010B9047761EF8D220468B
:1032B000AFF30080BDE8F0814E414E006E616E00BC
:1032C000494E4600696E66002DE9F0478146164674
:1032D0008AB0334878440DC88DE80D0030487844F2
:1032E000801C03AC0DC884E80D0041F69B300844F7
:1032F000372190FBF1F290FBF1F5A5F1800501FB80
:1033000012041B3C02D56442012000E00020DFF8DB
:1033100090A080460027FA44AAF1BE0A0DE0E0071B
:1033200009D03246684607EB47010AEB810100F0FD
:1033300034FB8DE8070064107F1C002CEFD1184F80
:103340007F44AC3F18E0E80714D007EB04100DF100
:10335000180A90E80E008AE80E00C068F04201D119
:1033600098190890324606A903A800F016FB03AB93
:1033700083E807006D10641C002DE4D132466946D5
:10338000B8F1000F03A802D000F0F3FA01E000F05A
:1033900004FBC9E90001C9F808200AB0BDE8F087BC
:1033A000040C0000007B00F080007047004870476C
:1033B000C01100207546FFF7F9FFAE4605006946CB
:1033C000534620F00700854618B020B5FDF7C4F835
:1033D000BDE820404FF000064FF000074FF0000816
:1033E0004FF0000B21F00701AC46ACE8C009ACE897
:1033F000C009ACE8C009ACE8C0098D46704710B5FB
:103400000446AFF300802046BDE81040FCF712BF31
:103410004FF0013C50F8042B51F8043B9A4221D163
:10342000A2EB0C03934313EACC1317D150F8042BEF
:1034300051F8043B9A4215D1A2EB0C03934313EAD3
:10344000CC130BD150F8042B51F8043B9A4209D10C
:10345000A2EB0C03934313EACC13DBD04FF0000034
:10346000704700BFD01A01BAB1FA81F101F018011A
:1034700022FA01F0CB40C1F12001DBB2C0B2C01A88
:103480002CFA01F3D11A914311EAC311E6D1704726
:103490005FEA400C08BF91F0000F4FEA8C234FEA1F
:1034A000C12243EA51514FEA1C5018BF00F5F040C9
:1034B0004FEA300018BF41F000415FEA6C5C00F059
:1034C0002980BCF1FF3F08BF40F080407047130CDB
:1034D00006BF12044FF0100C4FF0000C130E04BF87
:1034E00012020CF1080C130F04BF12010CF1040CB2
:1034F000930F04BF92000CF1020CD30F04BF5200D3
:103500000CF1010C11464FF00002A0F11F00A0EBDE
:103510000C00704711F0004F08BF704731F00041B8
:103520003FF4D5AF0B0C06BF09044FF0100C4FF061
:10353000000C0B0E04BF09020CF1080C0B0F04BFAA
:1035400009010CF1040C8B0F04BF89000CF1020C73
:10355000CB0F04BF49000CF1010CCCF12003A0EB10
:103560000C0022FA03F302FA0CF241EA030100F123
:103570000100704720F07F4C80EA030023F07F4772
:10358000ACEB070303F57C5300F0004003F1FF03AD
:103590002DE980494FEA154B09B44FEA144325EA57
:1035A0000B4E24EA03480FF2042606EB13274908C2
:1035B0003E785FEA320203FB0667C7F5000707FBA8
:1035C00006F64FEA54374FEAD64606F1020607FBE5
:1035D000066CCCF1005C4FEA1C472CEA074C07FB59
:1035E00006F40CFB06F504EB15464FEA961634BFBD
:1035F00000204FF000404FEAD13706FB07FC4FEAAE
:103600001C4C0CFB0BF7D21B03FB0CF761EB070107
:103610000CFB0EF7B0EB074072EB17420CFB08F700
:1036200034BFA2EB0742B2EB074261EB17414FEA0E
:103630000C444FEA910706FB07FC4FEA1C4C0CFBBD
:103640000BF7B0EBC74072EB573203FB0CF734BFFC
:10365000A2EBC742B2EBC74261EB57310CFB0EF74E
:10366000B0EBC70072EB57720CFB08F734BFA2EB4C
:10367000C702B2EBC70261EB5771039F4FEA81614A
:1036800041EA921104EBCC044FEAD1374FEA82624F
:1036900006FB07FC42EA90124FEA80604FEA1C4C9E
:1036A0000CFB0BF7D21B03FB0CF761EB07010CFBC8
:1036B0000EF7B0EB074072EB17420CFB08F734BF74
:1036C000A2EB0742B2EB074261EB17414FEA8C5580
:1036D0004FEA910704EB9C2406FB07FC4FEA1C4CC5
:1036E0000CFB0BF7B0EBC74072EB573203FB0CF748
:1036F00034BFA2EBC742B2EBC74261EB57310CFBC0
:103700000EF7B0EBC70072EB57720CFB08F734BF33
:10371000A2EBC702B2EBC70261EB577115EB4C2568
:103720004FEA816141EA92114FEA82624FEAD13752
:1037300042EA901206FB07FC44F100044FEA806065
:103740004FEA1C4C0CFB0BF7D21B03FB0CF761EB95
:1037500007010CFB0EF7B0EB074072EB17420CFBB6
:1037600008F734BFA2EB0742B2EB074261EB174107
:1037700015EB1C154FEA813141EA92414FEA823242
:1037800042EA90424FEA80304FEA0C7644F100045E
:1037900048EA03434EEA0B484FF0000EB2EB080C28
:1037A00071EB030724BF624639464EEB0E0E4FF015
:1037B000000B0018524149414BEB0B0BB2EB080CCC
:1037C00071EB03077BF1000B24BF624639464EEBD9
:1037D0000E0E4FF0000B0018524149414BEB0B0B02
:1037E000B2EB080C71EB03077BF1000B24BF6246C0
:1037F00039464EEB0E0E51EA020718BF46F001069D
:1038000016EB0E7655F1000254F1000103D5BDE828
:103810008901BDE80088BDE88901BDE80048B61906
:10382000524141EB0101A3F10103704780807F7E8B
:103830007D7C7B7A79787776767574737271717026
:103840006F6E6E6D6C6C6B6A6A69686867666665D8
:103850006464636362616160605F5F5E5E5D5D5C66
:103860005C5B5B5A5A5959585857575656555555D7
:103870005454535352525251515050504F4F4F4E37
:103880004E4D4D4D4C4C4C4B4B4B4A4A4A49494985
:1038900048484847474747464646454545444444C7
:1038A000444343434342424242414141002B26D4D8
:1038B000770021D01CB54FEA370703B44FF0100052
:1038C0004FF010014FF000000FBCBDE810400BF1AD
:1038D000010BBBF1010F08BF5FEA170722BF12F10E
:1038E000010211F101014FF0004143F1000300F02A
:1038F000004043EA00007047F9D35708DAE746EA88
:10390000064613F1400F4FEA16461FDD13F1200F54
:10391000DFBF16430A46002120335B42C8D0C3F103
:10392000200746EA064602FA07F74FEA164646EA35
:103930000706C3F1200722FA03F201FA07F721FA7A
:1039400003F14FF0000342EA0702B1E746EA02063C
:1039500046EA06464FEA164646EA0106BCBF46EA74
:103960000646360C4FF000034FF000024FF0000106
:103970009EE72DE9C048934630B491E8380007C867
:1039800031EA400C48BF34EA430C03D5FFF7F2FD9F
:10399000FFF78CFFF0BCBDE800882DE9C0489346D6
:1039A00030B491E8380007C810F0804F08BF13F01A
:1039B000804F03D100F005F8FFF778FFF0BCBDE8B9
:1039C000008820F07F4780EA030023F07F4C07EB5C
:1039D0000C03A3F57C5300F00040A3F1FE0392F02A
:1039E000000F00F0B38095F0000F00F077802DE914
:1039F00001494FEA11404FEA144621EA004800FB12
:103A000006FC24EA064708FB06F607FB08F800FB5D
:103A100007F718EB06484CEB164C4FEA124B18EB25
:103A200007484FEA15464CEB174022EA0B4E0BFBBA
:103A300006FC25EA06470EFB06F607FB0EFE0BFB0F
:103A400007F71EEB064E4CEB164C4FF000061EEB34
:103A5000074E4CEB174B18EB0B0840F1000018EB2E
:103A60000E0B58EB000840F100008F1A4FF00001D8
:103A70003CBFC943661B14BFB5EB040C00213CBF1F
:103A8000C943F61B4FEA17444EEA8E0E27EA044557
:103A90004FEA1C4704FB07622CEA074C05FB07F7BB
:103AA0000CFB05F604FB0CFC16EB074642EB174239
:103AB00016EB0C4642EB1C421BEB060658EB0202CF
:103AC000414146EA9E0601D5BDE80189B619524139
:103AD00041EB0101A3F10103BDE801894FEA14455F
:103AE0004FEA114724EA054621EA074C05FB07F493
:103AF00006FB07F70CFB06F105FB0CFC11EB07417D
:103B000044EB17444FEA124711EB0C4144EB1C44C1
:103B100022EA074C05FB07F206FB07F70CFB06F64B
:103B200005FB0CFC16EB074642EB174216EB0C4666
:103B300042EB1C456A1854F1000148BF7047B619A2
:103B4000524141EB0101A3F10103704795F0000FD1
:103B500037D04FEA11424FEA144721EA024624EADD
:103B6000074C02FB07F106FB07F70CFB06F402FB10
:103B70000CFC14EB074441EB17414FEA154714EBDB
:103B80000C4441EB1C4125EA074C02FB07F506FB00
:103B900007F70CFB06F602FB0CFC16EB074645EBA1
:103BA000174516EB0C4645EB1C42121951F100016A
:103BB00048BF7047B619524141EB0101A3F101031F
:103BC00070474FEA14454FEA114724EA054621EAB7
:103BD000074C05FB07F106FB07F70CFB06F24FF05D
:103BE000000605FB0CFC12EB074241EB174112EB00
:103BF0000C4251EB1C4148BF7047921841EB010148
:103C0000A3F10103704703B401984100009850EA02
:103C1000C12018BF04204A0D18BF40F0010040F237
:103C2000FF72B2EB515F08BF40F00200012808BFED
:103C3000052002B07047000010B500290AD00878AE
:103C4000002807D005487844FFF7E2FB002801D0A0
:103C5000002010BD0248784410BD0000CE020000D4
:103C6000C60200000808A0F500114FEA31017047B4
:103C700043004FEAD30C4FEA3C0C43401FBF4007C0
:103C80000CF1605113F0FE4F70471CF0006F03D130
:103C900000200CF0004170470CF0004343EA5070E4
:103CA00010B540EACC0000F00EF800BF0000009212
:103CB0004FEA0001FFF7D6BF4FF000414FF0000080
:103CC000A1F5002170470EF1020E2EF0030E5EF8F2
:103CD000044B244204D44FEA4102B2F17F4F11D881
:103CE0004FEA4003B3F17F4F0CD80ED14FEAD07C9E
:103CF000B2F17F4F0CEB4C0C0CF1020C08BF4CEBFB
:103D0000D17C04E04FF0080C01E04FEAD17C0CEBD1
:103D10004C0324FA03F404F00704B4F1040C06D2B3
:103D20000EEB840CBDE810404CF0010C6047DFE85E
:103D30000CF0070802024FF00040A0F5800010BD13
:103D40000846420018BFD2F1807288BF00F00040E0
:103D500010BD4FF04070E1EE100A7047FFF7C9B890
:103D60000000010002000100030001000200010048
:103D70000400010002000100030001000200010034
:103D80000500010002000100030001000200010023
:103D90000400010002000100030001000200010014
:103DA0000600010002000100030001000200010002
:103DB00004000100020001000300010002000100F4
:103DC00005000100020001000300010002000100E3
:103DD00004000100020001000300010002000100D4
:103DE00007000100020001000300010002000100C1
:103DF00004000100020001000300010002000100B4
:103E000005000100020001000300010002000100A2
:103E10000400010002000100030001000200010093
:103E20000600010002000100030001000200010081
:103E30000400010002000100030001000200010073
:103E40000500010002000100030001000200010062
:103E50000400010002000100030001000200010053
:103E600002400000000000A000000000054000002B
:103E7000000000C8000000000C4000000000409C52
:103E800000000000194000000020BCBE000000003F
:103E900034400000BFC91B8E00000004B540000084
:103EA000504BCFD06607E2CF010000006C4100000C
:103EB0003E8251AADFEEA73401000000D942000083
:103EC000DCB5A0E23A301F97FFFFFFFFB4450000CA
:103ED000FD25A0C8E9A3C14FFFFFFFFFFF3F000082
:103EE0000000008000000000FF3F00000000008094
:103EF00000000000303F00080000002078000000B3
:103F0000C4010008A83F000878000020A81700009E
:103F1000E00100081C00000043000000F8FFFFFF64
:103F20000C0000000E0000000F0000002E0000003A
:103F30000AD7233C007A030A0000000000000000BA
:103F4000010203040607080900000000010203043F
:103F50000102030406070809000000000000000039
:103F60000000000000000000000000000000000051
:103F70000000000000000000000000000000000041
:103F80000000000000000000000000000000000031
:103F90000000000000000000000000000000000021
:083FA000000000000000000019
:040000050800018965
:00000001FF
