:020000040800F2
:1000000030820120790200082D59000809400008BB
:10001000295900085D090008BBBA0008000000006B
:10002000000000000000000000000000516F000808
:10003000590E00080000000009030008697000085C
:10004000930200089302000893020008930200083C
:10005000930200089302000893020008930200082C
:10006000930200089302000893020008930200081C
:10007000930200089302000893020008930200080C
:1000800093020008930200089302000893020008FC
:1000900093020008930200089302000893020008EC
:1000A00093020008930200089302000893020008DC
:1000B00093020008B5A70008CDA700089302000826
:1000C00093020008930200089302000893020008BC
:1000D0009302000885B80008930200089302000804
:1000E000930200089302000893020008930200089C
:1000F000930200089302000893020008930200088C
:10010000930200083D6D0008930200089302000866
:10011000930200089302000893020008930200086B
:10012000930200089302000893020008930200085B
:10013000930200089302000893020008930200084B
:10014000930200089302000893020008930200083B
:10015000930200089302000893020008930200082B
:10016000930200089302000893020008930200081B
:10017000930200089302000893020008930200080B
:10018000930200089302000800F002F800F064F8FF
:100190000AA090E8000C82448344AAF10107DA45E2
:1001A00001D100F059F8AFF2090EBAE80F0013F0D0
:1001B000010F18BFFB1A43F001031847D467010071
:1001C000F46701000A444FF0000C10F8013B13F0F3
:1001D000070408BF10F8014B1D1108BF10F8015BA0
:1001E000641E05D010F8016B641E01F8016BF9D193
:1001F00013F0080F1EBF10F8014BAD1C0C1B09D1EA
:100200006D1E58BF01F801CBFAD505E014F8016B5B
:1002100001F8016B6D1EF9D59142D6D370470000ED
:100220000023002400250026103A28BF78C1FBD8FF
:10023000520728BF30C148BF0B607047642900F0E7
:10024000E180782900F01A81002070471FB512F074
:1002500026F91FBD10B510BD00F04EFB1146FFF78B
:10026000F5FF11F05BFA00F06CFB03B4FFF7F2FF4F
:1002700003BC11F043F800000948804709480047D3
:10028000FEE7FEE7FEE7FEE7FEE7FEE7FEE7FEE746
:10029000FEE7FEE704480549054A064B70470000A3
:1002A000797000088901000830780120308201202F
:1002B000307A0120307A0120EFF3108072B6704757
:1002C00080F310887047264C4FF6FF7525604FF07D
:1002D000000484F30988234C4FF001052570224C5B
:1002E0004FF08055256062B6FEE730B41E4C4FF0EB
:1002F0008055256030BC704730B41B4C4FF08055A2
:10030000256030BC704700BF72B6EFF3098050B172
:100310001EF0100F08BF20ED108A203880E8F00F83
:1003200012490968086000B5114880475DF804EB80
:10033000104811490A7802700C4810490A68026096
:10034000106890E8F00F20301EF0100F08BFB0ECDE
:10035000108A80F309884EF0040E62B6704700BF21
:1003600022ED00E0E600002004ED00E0EC000020BB
:1003700031620008DB000020DC000020F4000020D7
:10038000704700000FB4044910B503AA029800F0AA
:100390001DFA10BC5DF814FB740000202DE9F0413B
:1003A0000E460446002020622046E168884730B3AC
:1003B000252805D0D4E901219047206A401CF2E7A6
:1003C000E168204600278847050018D0A5F14100C4
:1003D000192802D820354FF40067324629462046B6
:1003E0002760FFF72BFF40B1012804D0F61D26F04F
:1003F00007060836D8E7361DD6E72846DAE7206A2A
:10040000BDE8F0812DE9F041064600241068752909
:10041000314616A510D0AFF30080002802DA404222
:1004200013A507E031688A0701D512A502E0490744
:1004300004D511A5012401E0AFF3008000210A22B8
:1004400006F1240709E0B0FBF2FCB0FBF2F302FB7B
:100450001C00303078541846491C0028F3D123463C
:100460002A463046BDE8F04100F057B900000000D0
:100470002D0000002B0000002000000070B5044695
:100480000D4621461068AFF300802188090502D58A
:100490000F4A7A4402E00E4A7A440E32002104F1F7
:1004A000240305E000F00F060009965D5E54491C28
:1004B0000028F7D120780023000704D5702D02D042
:1004C00009B1022311322046BDE8704000F025B981
:1004D0005664010040EA010310B59B070FD1042ABE
:1004E0000DD310C808C9121F9C42F8D020BA19BAFF
:1004F000884201D9012010BD4FF0FF3010BD1AB164
:10050000D30703D0521C07E0002010BD10F8013BB8
:1005100011F8014B1B1B07D110F8013B11F8014BDF
:100520001B1B01D1921EF1D1184610BD032A40F2C7
:10053000308010F0030C00F0158011F8013BBCF185
:10054000020F624498BF11F801CB00F8013B38BF9D
:1005500011F8013BA2F1040298BF00F801CB38BFAB
:1005600000F8013B11F0030300F06780083AC0F087
:10057000088051F8043B083A51F804CBA0E8081071
:10058000F5E7121D5CBF51F8043B40F8043BAFF3A4
:100590000080D20724BF11F8013B11F801CB48BFFE
:1005A00011F8012B24BF00F8013B00F801CB48BF34
:1005B00000F8012B7047431A28BF9A427FF6B6AF66
:1005C000032A1044114440F2268010F0030F1EBF8E
:1005D00011F8013D521E00F8013D10F0030F7FF4A9
:1005E000F6AF11F0030300F01681083AC0F00B805B
:1005F00051F8043D083A51F804CD40F8043D40F864
:1006000004CDFFF7F3BF121D5CBF51F8043D40F865
:10061000043DAFF30080D20724BF11F8013D11F86B
:1006200001CD48BF11F8012C24BF00F8013D00F8AE
:1006300001CD48BF00F8012C704710B5203AC0F03A
:100640000B80B1E81850203AA0E81850B1E81850D3
:10065000A0E81850BFF4F5AF5FEA027C24BFB1E810
:100660001850A0E8185044BF18C918C0BDE8104081
:100670005FEA827C24BF51F8043B40F8043B08BF8A
:100680007047D20728BF31F8023B48BF11F8012B51
:1006900028BF20F8023B48BF00F8012B704702F04A
:1006A000FF0343EA032242EA024200F0E0B84FF0BF
:1006B000000200B5134694469646203922BFA0E8B2
:1006C0000C50A0E80C50B1F12001BFF4F7AF0907BE
:1006D00028BFA0E80C5048BF0CC05DF804EB8900AF
:1006E00028BF40F8042B08BF704748BF20F8022BF2
:1006F00011F0804F18BF00F8012B7047704770470A
:100700007047704710B500F0D3F8006810BD10B501
:10071000044600F0CDF8046010BD2DE9F0470D4609
:1007200099469246044600F124080168880604D5DB
:10073000E06921F01001216000E00120A84201DD04
:10074000471B00E00027A1697A1902EB0900081A8B
:10075000A0612078C00602D42046AFF300800026B6
:1007600008E0D4E901211AF806009047206A401CED
:10077000761C20624E45F4DB2078C0060AD5204660
:10078000AFF3008006E0D4E9012130209047206AD1
:10079000401C2062381EA7F10107F4DC07E0D4E911
:1007A000012118F805009047206A401C2062281E8D
:1007B000A5F10105F3DC2046AFF3008020780006A8
:1007C00002D50220BDE8F0870120FBE7074B70B59A
:1007D0000D467B4400F075F80446284600F084F886
:1007E00010B14FF0FF3070BD204670BDBB0E010050
:1007F000431A28BF9A427FF620AF104410F0030F2F
:1008000011441EBF11F8013D521E00F8013D10F0C9
:10081000030F7FF4F6AF103AC0F00A8010B531E94B
:100820001850103A20E91850BFF4F9AFBDE8104055
:10083000530724BF31E9081020E9081044BF51F8DC
:10084000043D40F8043D12F0030F08BF7047D20783
:1008500028BF31F8023D48BF11F8012C28BF20F80D
:10086000023D48BF00F8012C70474FF000020429F8
:10087000C0F0128010F0030C3FF41BAFCCF1040C5D
:10088000BCF1020F18BF00F8012BA8BF20F8022B03
:10089000A1EB0C01FFF70DBF5FEAC17C24BF00F89C
:1008A000012B00F8012B48BF00F8012B7047000016
:1008B00000487047CC77012001694A1C0261087822
:1008C000704700B58FB0CDE9013100210591054990
:1008D0007944CDE9031011466846FFF75FFD0FB07C
:1008E00000BD0000E5FFFFFF007B00F080007047C7
:1008F00000487047CC7701207546FFF7F9FFAE46F8
:1009000005006946534620F00700854618B020B51B
:10091000FFF7C0FCBDE820404FF000064FF0000795
:100920004FF000084FF0000B21F00701AC46ACE897
:10093000C009ACE8C009ACE8C009ACE8C0098D4604
:10094000704710B50446AFF300802046BDE8104064
:10095000FFF78BBC002800DC4042704700BFFEE779
:1009600031B52DED068B82B0002400257448007847
:10097000401C73490870084600780A2190FBF1F288
:1009800001FB120018B16E4800780A287EDA0122B5
:1009900008A9002006F0AAF89DF8200000F01F002A
:1009A000002873D09DF8200000F01F0040F0C00028
:1009B000644981F82000002486E0624890F8200015
:1009C0000121A140084000287CD05F4931F8140083
:1009D000042201A906F08AF85A4890F8340000F081
:1009E0000100D0B39DF807109DF8062001EB02200E
:1009F00011F087F941EC190B9FED540B53EC102BC0
:100A000011F0E6F941EC180B11F04EF981B24D48A6
:100A1000163020F814109DF805109DF8042001EB05
:100A2000022011F06EF941EC1A0B9FED4A0B53ECCA
:100A3000102B11F0CDF941EC190B9FED480B53EC45
:100A4000102B11F0F9FA41EC180B11F02DF981B2CD
:100A50003C480C3020F8141034E0FFE79DF80710F4
:100A60009DF8062001EB022011F04BF941EC190B27
:100A70009FED360B53EC102B11F0AAF941EC180B3B
:100A800011F012F981B22F480C3000E02BE020F871
:100A900014109DF805109DF8042001EB022011F0C0
:100AA00030F941EC190B9FED2B0B53EC102B11F08F
:100AB0008FF941EC180B11F0F7F881B2214816308C
:100AC00020F81410601CC4B2052CFFF676AF012587
:100AD0001C48808920B91B48C08A08B900200890AA
:100AE0000020174908709DF8200000F01F00D0B9C1
:100AF000144890F8200000F0800040B1114890F8B0
:100B0000200020F080000F4981F820000BE04FF614
:100B1000FF700C498881C882084690F8200000F0D8
:100B2000E00081F8200006480078F02802DD0A2065
:100B300003490870284602B0BDEC068B38BD0000A2
:100B40000400002008000020683C01087B14AE4728
:100B5000E17AD43FD881734694F6D23F000000007A
:100B60000000894010B5052010F044FC10BD0000C5
:100B700010B500200F4908600F48006820F44000BD
:100B80000D4908600846006840F480000860FFF7DF
:100B9000E9FF00200949C1F8AC02FFF7E3FF01209B
:100BA00004490860FFF7DEFF00200549C1F8800214
:100BB00010BD00008082404200140240008042428A
:100BC000008040421CB50121222005F0FDFF0120DC
:100BD00000908DF8040003208DF8050000208DF8AA
:100BE000060001208DF807006946084800F002FD64
:100BF0004FF4006000906946054800F0FBFC0120BE
:100C0000044908600449C1F8AC021CBD000402405C
:100C100000140240808240420080424210B5002011
:100C20000F4908600F48006820F440000D49086033
:100C30000846006840F480000860FFF793FF012039
:100C40000949C1F8AC02FFF78DFF01200449086093
:100C5000FFF788FF00200549C1F8800210BD0000A1
:100C600080824042001402400080424200804042A4
:100C700070B5054600241448006820F4400012496D
:100C80000860084600680860002612E000200F494E
:100C900008601E2010F0AEFB01200D49C1F8800253
:100CA0006006040E0B48006808B1601CC4B2701CDA
:100CB000C6B2082EEADB15B9FFF7B0FF01E0FFF777
:100CC00057FF204670BD0000001402408082404261
:100CD000008040422C82424270B5044613480068AE
:100CE00020F44000114908600846006840F4800084
:100CF000086000200E490860FFF734FF002511E06E
:100D0000E0090C4908606006040E01200A49C1F898
:100D10008002FFF727FF002005490860FFF722FF48
:100D2000681CC5B2082DEBDB70BD0000001402404A
:100D300080824042AC8242420080404210B50F485F
:100D4000006820F440000D4908600846006840F43F
:100D50008000086001200A4908600A49C1F8800241
:100D6000142010F047FB002005490860FFF7FAFE49
:100D700000200449C1F8800210BD000000140240A8
:100D8000AC8242420080404210B50D48006820F419
:100D900040000B4908600846006840F48000086085
:100DA000012008490860142010F024FB00200649A7
:100DB000C1F8AC02FFF7D6FE01200449086010BD5F
:100DC000001402408082404200804242AC82424293
:100DD00010B500241148006820F440000F49086055
:100DE00008460068086001200D4908600D49C1F8F7
:100DF00080020AE0601CC4B2FA2C03DDFFF7C4FFD6
:100E0000012010BD012010F0F5FA05488038006877
:100E10000028EFD10449086000BFF2E70014024047
:100E2000AC8242420080404280824042014600BF84
:100E30000848006800F045000028F9D040F2FF5053
:100E4000044A121D10600348203800680822104030
:100E5000C0B27047342C014070472DE9F04306467C
:100E60000F469046002445460320A0EB48093CE08D
:100E70007A1B91B2321990B203F096FB3A1B91B2F1
:100E8000721990B203F090FB3A1991B2721990B2B4
:100E900003F08AFB7A1991B2321990B203F084FB05
:100EA0007A1991B2321B90B203F07EFB3A1991B2DB
:100EB000721B90B203F078FB7A1B91B2321B90B296
:100EC00003F072FB3A1B91B2721B90B203F06CFB01
:100ED000641CB9F1000F03DAA000801D814404E016
:100EE000601B80000A3081446D1EAC42C0DDBDE84D
:100EF000F083000051B18200A2F1C042126842F0BA
:100F000001038200A2F1C042136009E08200A2F155
:100F1000C0421268034B1A408300A3F1C0431A6019
:100F200070470000FEFF0F00D0E901121143C268B4
:100F30001143026911434269114382691143C26935
:100F40001143026A1143426A1143826A1143C26A21
:100F50001143026B114302689200A2F1C04211607A
:100F6000816808290BD101688900A1F1C041096895
:100F700041F0400201688900A1F1C0410A60416B63
:100F80000968426B526841EA0211426B926841EA79
:100F90000221426B928941EA0241426B128A41EA84
:100FA0000251426B127D41EA0261426B9269114328
:100FB0000268521C9200A2F1C0421160C16AB1F5F0
:100FC000804F1BD1816B0968826B526841EA021124
:100FD000826B926841EA0221826B128A41EA0251D5
:100FE000826B127D41EA0261826B92691143026851
:100FF0009200A2F1C042C2F8041107E06FF0704203
:1010000001688900A1F1C041C1F8042170471CB5F5
:101010000024019401AC009400F0E8F81CBD00002D
:101020002DE9FF4F83B0814606988A46A0EB0A0857
:10103000109E00200090A2EB09043568934654EA04
:10104000080018D02046FFF785FC07464046FFF70A
:1010500081FC87420BDA2046444680464846D1460A
:1010600082465846DDF818B0069001200090002C0A
:1010700007DD204606E007B04846BDE8F04F00F027
:101080003BB96042A0420AD04846D9466442C8F102
:10109000000883464FF0FF37DDF818A000E0012775
:1010A0005148B8F1000F11D004EBD4714FEA610B35
:1010B00001DACBF1000B4C480068807E88B3002F2A
:1010C00002DA30682044306000257BE00099002976
:1010D000016821D0897E11B10027804615E007B054
:1010E0005A4649465046BDE8F04F03F06FBA2846CD
:1010F0006D1C0FF069F838B9D8F8000009EB07014A
:10110000C06E4268504690477F1CA742EFDD6D1EBF
:10111000356007B0BDE8F08F8A7E1AB1002780469F
:1011200017E019E0C86E5A465146036807B04846B2
:10113000BDE8F04F184728466D1C0FF045F838B948
:10114000D8F8001009EB0700C96E4A68514690476D
:101150007F1CA742EFDDDAE700250FE008FB05B0B2
:1011600090FBF4F101EB0A00009951B11E4A09EB22
:1011700005011268D26E526890476D1CA542EDDDE4
:10118000C7E7194909EB05030968C96E4A680146B2
:101190001846F1E708FB05B090FBF4F101EB0A00FB
:1011A00001903068384430600FF00EF848B900986C
:1011B00090B10D4809EB05010068C06E42680198C6
:1011C00090476D1CA542E5DD3068002F01DA204410
:1011D0003060C01B30609CE7034909EB05000968DB
:1011E000C96E4A680199EBE7240100202DE9FF4709
:1011F0000F4640491646804609680C981D460A7EEF
:10120000012A1CD0A8EB0600791B50EA01031CD070
:10121000A2F1010910F00AF800F58060824602F0A0
:10122000C4FE00FB09F4504602F0C4FE00FB09F1C5
:10123000002C0CDAC4F50070801240420AE00090E5
:10124000324639464046FFF7EBFEBDE8FF8704F51E
:101250000074A012002904DAC1F5007189124C4211
:1012600002E001F500718C12002804DD411C01EB45
:10127000D171491003E000EBD0714910401E00EB22
:10128000D0704210002C04DD601C00EBD0704010C8
:1012900003E004EBD4704010641E04EBD47308EB3D
:1012A0000104ADF800403C18ADF80240A8EB020480
:1012B0005B10B21AADF80440ADF808203144FC1AB6
:1012C000EA1AADF80C102844ADF80A20ADF80E006B
:1012D0000023ADF806401A460421684600F07AF86B
:1012E000394640460DF002FC294630460DF0FEFB23
:1012F000ABE7000024010020064A13681A7E012A89
:1013000005D0521E02EBD272521000F005B8DA6E10
:1013100052681047240100202DE9F05F06468846F8
:1013200040F2C32050434FF47A7190FBF1F702FB77
:1013300002F002EBD27100EB610B254914467F1CD1
:1013400009683244301BC96E0B6841469847012535
:101350003AE000BF05FB05F004FB040159451CDD24
:10136000BC4219DD1A4B06EB050AA6EB05091B6802
:10137000AAF1010208EB0401DB6E09F101001B6810
:101380009847134BAAF10102A8EB04011B6809F16D
:101390000100DB6E1B689847641E0D4806EB040ACB
:1013A000A6EB0409006808EB05015246C06E03680D
:1013B000484698470648A8EB050152460068C06EAB
:1013C0000368484698476D1CBD42C3DDBDE8F09FE9
:1013D000240100202DE9FF4F40F6FF740F466642BE
:1013E00083B09B46814600210BE000BF09EB8100E2
:1013F000B0F90200A04200DA0446B04200DD064621
:10140000491CB942F2DB68480068406900280DD0E9
:10141000B0F906101A46A1EB0B01B14200DA0E46F4
:10142000B0F90200801AA04200DD0446B5E0DFF802
:101430007CA100200546CAF8000089E0781E85429C
:1014400001DA6B1C00E0002309EB850C09EB830239
:10145000BCF90200B2F90210A04245D1A14215D157
:1014600039F92330059A39F9251003EB020C4E4A5D
:1014700005981268084404EB0B01D26E60451368AE
:1014800001DA62462BE00246604628E02846A44680
:101490004FF000087A1E0BE008B1401E00E0781EF5
:1014A00009EB8003B3F90230634504D108F1010868
:1014B0009045F1DB2346A34249D0A3EB040239F95E
:1014C0002500A1EB040C059B92EA0C0209D4364AD4
:1014D000184404EB0B011268D26E13680246984759
:1014E00035E00BF02BFF32E0A14230D001DBA0420F
:1014F00003DDA0422BDBA14229DCE04688420ADC66
:101500000346A04223DC0846A14220DBB8F900C014
:10151000B2F9001008E00B46A14218DCA04216DB2D
:10152000B2F900C0B8F90010E21AA1EB0C01514366
:101530000029A0EB030202DD01EB620102E0A1EB56
:101540006201491CC01A91FBF0F06044C9E76D1CB0
:10155000BD42FFF673AF0598009004EB0B000190BD
:1015600000208046054613E01149B8F1000F31F91B
:1015700015A009D0009901EB0A0208440A4909683C
:10158000C96E0B680199984788F0010850466D1C98
:10159000064909688D42E7DB641CB4427FF747AF18
:1015A00007B0BDE8F08F0000240100209401002066
:1015B0005C76012010B5002001F04CFB6FF07F40FD
:1015C00001F04CFB012001F083FB002001F088FBBF
:1015D000002001F08FFB002001F048FB0448006868
:1015E00001F046FBBDE81040002001F04DBB0000BB
:1015F00020010020F0B50A4600210023002400BF8E
:101600003DE0012505FA01F3156805EA03049C4253
:1016100034D105684F000326BE40B54305601579F7
:101620004E00B5400668354305601579012D02D09E
:101630001579022D16D185684F000326BE40B543AB
:10164000856055794E00B5408668354385604568AC
:1016500001268E40B5434560456896798E40B6B206
:1016600035434560C5684F000326BE40B543C5609D
:10167000D5794E00B540C6683543C560491C102970
:10168000BFD3F0BDF0B5002300244D07ED0E02FAE4
:1016900005F3CE1000F1200555F826504E07F70E41
:1016A0000F26BE40B543CF1000F1200646F8275064
:1016B000CE1000F1200555F8265045EA0304CE105F
:1016C00000F1200545F82640F0BD01837047000079
:1016D0002DE9F04FDFF828B191B04FF0FF35DBF87E
:1016E0000030B3F922100691DE69B3F92490F46951
:1016F000A189814206D8E289824203D3471AD4F8ED
:10170000008012E0D4E9018100296FD00A8882426A
:101710006CD84D88854269D3801A82B2486800EB44
:101720008200B0F90070B0F90250781C5ED0307EB3
:10173000A17C10FB01FA217CCDE90801B3F92A60F4
:10174000304603F021FDC0B20E90DBF8000007FB2D
:101750000A81A37C826B0127CDE90412CDE90273D3
:10176000C069DDE90832C17E807ECDE900014946CD
:10177000069802F05DFD681C18D046F0020003F0E8
:1017800003FDDBF80000A37C05FB0A81826BCDE939
:101790000273CDE90412C069DDE90832C17E807EA2
:1017A000CDE900014946069802F042FDDBF8000051
:1017B0005D46C069417E007E814214D9022E12D05E
:1017C00086F0040003F0E0FC2868C069027EC37E56
:1017D00012FB0391437E857E099A06984B4402FBD7
:1017E000050202F0ABFF0E9803F0CEFCDBF8000020
:1017F000627C418C1144418411B0BDE8F08F00003F
:101800002401002004480068C069C06909B1027C55
:101810000A60407C704700002401002002200880FC
:101820007047C06982898A4202D8C2898A4210D22E
:10183000806880B102888A420DD843888B420AD3DF
:10184000406800EB8100A0EB8200B0F900000028A6
:1018500001DB012070470020704700002DE9F043B4
:101860002F4C034687B020681946B0F92A80C0691A
:10187000C06900F084F800284ED041680088181A2A
:1018800001EBC0054046AE7803F07EFC814620683F
:101890006A680123816BCDE90236CDE90421C16973
:1018A000CB7E8A7ECDE900230B7EB0F924102A7806
:1018B000B0F9220002F0BCFC2068C069477E067EB9
:1018C000B7421DD9C07E47434643B8F1020F17D037
:1018D00000F0ACFC804600F091FC01F0BFF92168FB
:1018E0002A78CB69B1F92200DB7E12FB0302B1F941
:1018F0002410CB19314402F021FF404601F0AEF92B
:10190000484603F041FC20686A78C369B0F92210A8
:101910009B7E12FB0311418407B0BDE8F0830000F9
:101920002401002030B50F4C05460B46206829469F
:10193000C069C06900F023F8002811D04168008810
:1019400024682A1A0120E46900EBC200085CA47E26
:1019500010FB04F0002B03D011F832106143196022
:1019600030BD00002401002001200880704700B530
:10197000C06900F004F8002800D0012000BD06E096
:1019800002888A4202D842888A4202D280680028AD
:10199000F6D17047002801D00BF028BD704738B54C
:1019A0000546FFF7F7FF040009D000F0AFF82A461C
:1019B0000021009002F0B6FA684600F0D7F8204601
:1019C00038BD0000024A106021F0030050607047EB
:1019D000C875012010B5002814D004460A48006BD1
:1019E00010F8341000290DD002290BD2042101EB8C
:1019F000C401415848680BF0BDFC2046BDE81040CA
:101A00000EF07EBA10BD00000C750120002805D034
:101A1000034A916B016001B1486090637047000018
:101A20000C7501202DE9F04104460EF053F82648CC
:101A3000E41C24F00305C16B2D1DA94200D90D46FD
:101A4000846B13E054F8042CAA420ED184B12168AF
:101A500009B162684A60616809B122680A60826BF4
:101A6000A2422ED1216881632BE02468002CE9D1A9
:101A70008046416B80680F1857F8040C3E1A306896
:101A800038B100200EF0A4FA57F8040C3E1A306862
:101A9000B8B97068A84214DB3044441B30460EF0DD
:101AA0004FFAD8F80810491BC8F80810D8F81010D9
:101AB0002944C8F8101070683146401B0BF05AFCDE
:101AC00020C42046BDE8F0810C75012010B500242B
:101AD0000EF000F80C490F2001EBC002126C1AB195
:101AE00001EBC000006C08E0401EF5D508E041683D
:101AF000A14200D90C46806810B180680028F6D158
:101B0000A4F10C0010BD00000C75012005498A6984
:101B1000521C8A61096B01EBC0010A78521C0A70E1
:101B200000F03CB80C75012010B5FFF7CFFF642220
:101B30000649B0F5800F04D990FBF2F0C96948431B
:101B400010BDC9694143B1FBF2F010BD0C75012015
:101B50000549102805D94A68B0EB520F02D3500846
:101B600000E0102088607047C87501200A490268AB
:101B70000B6B52F8082C03EBC2021378022B03D331
:101B80008B690BB15B1E8B611178491E11700021AE
:101B900001600846704700000C750120002806D03F
:101BA0000349042202EBC000096B08580830704753
:101BB0000C75012070B506460D461446104600F01F
:101BC0003DFB0300164804EB84010AD050F82100C5
:101BD00041688068711A2A1ABDE87040184601F001
:101BE00051B800EB8104A268B24201D0012200E0AA
:101BF0000022E368AB4201D0012300E000231A4336
:101C00000CD0236943B150F82100816840686A1AFA
:101C1000311A184600F0F4FFC4E9026570BD0000F7
:101C20003877012010B5C2B2CBB2D21A02D5C2F1B8
:101C3000000212B293B2C0F30722C1F3072403FBE0
:101C400003F3121B01D5524212B2000C92B2A0EB68
:101C5000114002FB023200B2002801DA404200B219
:101C600080B200FB002010BD10B50021084600F036
:101C70002DFB40F6FF725042BDE81040134601466E
:101C8000AFF300802DE9FC4107461C4615460E4681
:101C9000042003F079FA80461148C068C16C006DD9
:101CA0000F4406440D440444ADF80070ADF80450F0
:101CB000ADF80260ADF8064068460AF005FF07E09F
:101CC00023462A463146384602F038FD0AF0BEFE69
:101CD0000028F5D1404603F057FABDE8FC8100002A
:101CE000180100202DE9F0411C4616460D46074616
:101CF000022B02DB0020BDE8F0811C20FFF792FEE2
:101D00000028F8D00DB105610AE0094A52F8241004
:101D100009B905E011460A68002AFBD10969016189
:101D200084618682002101604160C0E90217E2E718
:101D30003C01002070B51D46FFF7D4FF040001D020
:101D400000F00EF8E068006820B90348006800EB76
:101D500085008465204670BD24010020FFF756BE33
:101D600070B590B38269022A30DA1C4C54F8221004
:101D700019B944F822002FE019464B68002BFBD11B
:101D800006E0CB68C5681B682D68AB4203DD0968B7
:101D90000029F6D11AE0C1B1CB68C6681B68366865
:101DA000B3420CD1838A012B05D008E01946DB68C9
:101DB0001B68AB4203DB0B68002BF7D129B14B68E2
:101DC00033B118604A68426004E0FFE7012070BD4B
:101DD00044F8220048600160002070BD3C010020F2
:101DE0000EF0F4BD022801DB00207047054951F8D0
:101DF000200004E0C16809680029F6D000680028C6
:101E0000F8D170473C01002070B5044601F036FB64
:101E1000051908E000F050F9052C01DD052000E06F
:101E2000204601F019FB01F029FB2C1A002CF1DCF3
:101E300070BD00002DE9FC4706005BD000F008FAF9
:101E40003B4C81462068B0F9228000F017FA2168E7
:101E500007468A8CD01B888441E000BF47F6FF719B
:101E6000304601F0E7FE82460146304601F0B8FEFA
:101E70002168054691F82C0000F0030001283FD0AE
:101E8000022839D000204A8C101A4884ADF800008E
:101E90006A1E1044ADF80400888CADF80200A9F168
:101EA00001010844ADF806006A465146304601F08B
:101EB00079FC2168BDF8020088845146304601F063
:101EC00087F9064430780A281CD00D281AD0BDF8AE
:101ED0000000216828444884307818B1761C307896
:101EE0000028BBD12068818C39448184818D21F008
:101EF00003018185BDE8FC8705EBD5704010C2E782
:101F00002846C0E7206890F82C1001F00301012951
:101F10000BD0022909D0018C418431780A29DBD108
:101F2000828C02EB09018184D6E7A0F82280F4E7D5
:101F300024010020024B1B6859849A84FFF77ABF62
:101F4000240100202DE9F04107460A4815460E46B7
:101F50000068B0F92C0040F0020000F0C1FE044619
:101F60002A4631463846FFF7E5FF2046BDE8F041F6
:101F700000F0B6BE240100202DE9FF4F85B0904649
:101F80008A46070078D00C68DAF8046021B230B2D3
:101F9000401A401C029000F05BF9054618F00C0F47
:101FA0001ED03846089A029901F02DFA08F00C016B
:101FB000042904D0082902D00C2911D104E03114DD
:101FC00000FB1510401C09E02114C1EB264200FB68
:101FD0001520401C00EBD07001EB600060F31F4443
:101FE000504600F039FEA5F1010B04903846089ADE
:101FF000029901F065FF03904FEA244909EB0B00B9
:1020000060F31F46CDE900463846039901F0E8FD2C
:1020100018F003010ED0012928D002290ED1BAF9F7
:102020000420BAF90010521A101A00EBD07001EB1C
:10203000600001E0BAF80000ADF800006A463846DA
:10204000039901F0AFFB3846089A029901F02EFF80
:10205000074409EB050060F31F4438780028C5D118
:10206000049809B0BDE8F04F00F0F6BDBAF80410CE
:10207000081A401CE0E7FFE709B0BDE8F08F000058
:102080002DE9F0410B4C2568EC6C2718286DA5183C
:102090004618C41800200AF017FD07E023462A4618
:1020A00031463846FEF7B3FF0AF0D0FC0028F5D1E0
:1020B000BDE8F0812401002010B5002400E00124D7
:1020C00000F004F80028FAD1204610BD064810B5EB
:1020D0000068002410B1804700B1012409F0FCFF22
:1020E00000B10124204610BD440100202DE9FC412F
:1020F0000F4C2568EC6C2718286DA5184618C418D5
:10210000ADF80070ADF80450ADF80260ADF80640CF
:1021100068460AF0D9FC07E023462A46314638468D
:1021200002F00CFB0AF092FC0028F5D1BDE8FC811E
:1021300024010020B0F90630B0F90420B0F90210F3
:10214000B0F90000FFF7D2BF08B50B46002805D054
:10215000009281888268C08800F001F808BD10B53F
:102160000828029C30D008DC04FB01F401280AD0C6
:10217000022813D0042804D11CE0102828D02028DD
:102180002CD0002010BD04EBD30003F00701105C3D
:10219000C1F10701C84000F0010010BD04EB93003D
:1021A0000621105C01EA4301C1F10601C84000F0BC
:1021B000030010BD04EB5300D907105C02D000F0FF
:1021C0000F0010BD000910BD04FB0130105C10BDF4
:1021D000481004FB003032F8100010BD881004FBDA
:1021E000003052F8200010BD034951F82000C168AA
:1021F0008A6A0821104700003C01002010B502F057
:10220000CDFABDE8104002F063BB00000249096846
:10221000C9694A680021104724010020024A126857
:10222000D2695268104700002401002010B502F066
:10223000BDFABDE8104002F04BBB000000210228AF
:1022400002D2024951F820100846704724020020AB
:1022500002480068C069407E7047000024010020E9
:1022600070B514460D4602F0D5FA002802D00020C1
:102270002860206070BD01F0F9BC00000A49002010
:10228000096891F82C2002F00C02042A07D0082AD1
:1022900001D00C2A02D1C869007E40087047C86985
:1022A000007E401E7047000024010020024951F8C2
:1022B00020000069006870473C010020024951F885
:1022C00020000069406870473C01002070B50D4651
:1022D0000DF034FB044628460DF038FB204370BD5A
:1022E000124810B5016821F0010101601048012178
:1022F00081601049016000680F49884200D0FEE704
:1023000001F036FA0D492E20087001F0BBF80C4898
:102310000DF092FB0FF09CF804460021084600F0F7
:10232000BBFC0AF0E7F8204610BD0000002000E0EA
:1023300000300240C2A507F4CDB5E8B51801002071
:10234000D47501201CB520B90C480068006E002827
:1023500012D0FFF7DBFB009044696846FFF706FCEC
:10236000002C09D02046FFF7D1FB019081688968D5
:10237000884701A8FFF7FAFB1CBD000024010020DC
:1023800001490A4600F002B801F0FFFF2DE9F043D1
:1023900087B015460C465FEA000842D0002000F0E6
:1023A00065FC814620480068066E4046FFF7AEFB9C
:1023B00000900068806900F03BFC074640F6FF7023
:1023C000001904D10098B0F90440B0F90650009803
:1023D000611E0289ADF804401144ADF8081041892E
:1023E000681E0844ADF80650ADF80A0009F0E4FC98
:1023F0006846FFF7BBFB01A80AF066FB06E02A4629
:102400002146404600F0F8FA0AF020FB0028F6D1F9
:10241000384600F00DFC304600F048F9484600F020
:1024200025FC07B0BDE8F083240100202DE9FE4F14
:10243000834619488A46194900680C9E9846407C94
:102440009146002751F82040E1680968042903D02B
:102450002468002CF8D100E014B9FFF7C3FC04464F
:102460000121E068C26A20469047050011D0246926
:10247000A0688047401C02D1094C46F00106009636
:10248000CDE9015443464A465146584600F09AF970
:1024900007463846BDE8FE8F240100203C0100209D
:1024A0004868010838B5040018D00D480068006E6F
:1024B000A04201D100F0B2FB2046FFF727FB0090BD
:1024C000406908B100F08DFF00980068FFF746FCF6
:1024D0006846FFF74BFB2046FFF77CFA38BD00004B
:1024E000240100202DE9FF4F83B0454CDDF840B0BA
:1024F00098468A4607002BD002A901A8FFF7BBFE29
:10250000B7F90060002E00DA0026B7F90250002D5E
:1025100000DA00252068A146407C02F091F901997B
:102520000144491EB7F904000DF071FB0446D9F8C7
:102530000000407C02F08AF902990144491EB7F973
:1025400006000DF064FBA71B7F1C441B641C0BE002
:10255000206800263546407C02F072F90746206864
:10256000407C02F073F90446B8F1000F01D1C4F1C8
:102570000008002F01DD002C03DC002007B0BDE8BF
:10258000F08F43463A4629463046CDF800B0FFF773
:102590004DFF5FEA000909D000F054F88046484634
:1025A00000F084F80027DFF85CB01FE05146059882
:1025B00088470120E2E7E11B414502DA484600F086
:1025C0005FF83FB1EA193146484600F099F84846AD
:1025D000FFF7B8FE514605988847DBF8001009B1AF
:1025E000002088474846FFF7CBFE4744A742E2DB7E
:1025F0004846FFF757FF002000F058F8BDE70000FD
:10260000240100203802002038B5002460B1FFF713
:102610007DFA0090006800698068804703F04CF9FB
:1026200004466846FFF7A2FA204638BD38B5FFF7E2
:102630006DFA00F1180400906846FFF797FA2046FB
:1026400038BD000038B5002418B907480068006E8E
:1026500038B1FFF75BFA0090B0F90A406846FFF71F
:1026600085FA204638BD00002401002010B50AF08C
:10267000F9FF002803D0BDE8104000F06DB810BD90
:1026800038B50C4620B908480068006E00280AD00A
:10269000FFF73CFA0090B0F90A10A14200DD448136
:1026A0006846FFF763FA38BD24010020F8B5134EE1
:1026B00005003068046E0CD00CB100F0AFFA09F0E0
:1026C00069FC2846FFF722FA009031680A6E1AB1B9
:1026D00006E000F0A3FA0EE0D1E90223C1E91923D4
:1026E0000D660068FFF73CFB6846FFF73FFA02F013
:1026F000BBFE02F0A3FC2046F8BD00002401002030
:102700007CB515460C4620B912480068006E0028BA
:102710001FD0FFF7FBF92DB20090C58024B2848052
:1027200002F08CFC0098406980B1FFF7EFF9009A45
:102730000190B2F908108180B2F90A20C28011B16B
:102740000AB10480458001A8FFF710FA6846FFF738
:102750000DFA7CBD2401002001490A4600F002B8B0
:1027600001F0FFFF7FB515460C46060028D0FFF7A5
:10277000CDF940F6FF710190091903D1B0F9044079
:10278000B0F906500289611E1144ADF80840ADF859
:102790000C104189681E0844ADF80E00ADF80A50CF
:1027A00001A8FFF7E3F902A80AF08EF906E02A462D
:1027B0002146304600F008F90AF048F90028F6D121
:1027C0007FBD00002DE9FF4FDFF8E0B083B01C466D
:1027D000DBF80010DDE91060924600274B7C3A469A
:1027E0001299FFF77FFA05005DD02869806880475D
:1027F00003F062F881460AFB09F0C01D4FEAD008D9
:10280000FFF792F9F10705D1C11700EB9170801025
:1028100000EB4000002C06DC1838B0FBF8F06442F6
:10282000A04200DC0446F00707D10090DDE9030177
:102830002346524600F04CFD0746002C03DC284698
:10284000FFF78CFA2FE004FB08F01830F10702D0F4
:10285000FFF7A0F801E0FFF7A2F806001CD0FFF791
:1028600055F901900560039981800499C180A0F811
:1028700008A04481C0F80C80C0E9049701A8FFF7C4
:1028800075F91298AE602861DBF80000407CA86101
:10289000304607B0BDE8F08F2846FFF75FFA17B162
:1028A0003846FFF797F80020F3E7000024010020E6
:1028B0002DE9F74F92B090461298FFF727F90B9049
:1028C000B0F908100691B0F90A100D91006800697E
:1028D000D0F804B00BA8FFF749F9384C384D206800
:1028E000407C55F82000C1688A6A082190478146DB
:1028F000182801D34FF020092068407C55F82000AB
:102900000069079003C80C902E48814201D0012035
:1029100000E000201090002000F0BEFD002849D10A
:102920000026DDE91207B2460FAB069C4546761C31
:102930000193FFF77BFE014604FB0AF001EB8002E6
:10294000234629463846CDF800B000F083FF050045
:1029500030D01098D0B1DDE906134A46284600F081
:102960004DFE98B9DDE906702C46D0F810C0BCF1D8
:10297000000F05D0294604233A460846E04705E003
:102980000C992068884701C47F1EF9D10020CDE949
:102990000305059001200090CDE901094146034659
:1029A00008F10108069A139801F042FC0D98401EA8
:1029B0000D90B6D115B0BDE8F08F000024010020C5
:1029C0003C010020EF480008F8B515460E460746C2
:1029D000FFF79CF8009000681621C068426A00204A
:1029E000904704466846FFF7C1F8002C03D02A46FA
:1029F00031463846A047F8BDF8B515460E4607469D
:102A0000FFF784F8009044696846FFF7AFF838464E
:102A1000FFF7FAFD0346082800DD2CB12A463146AF
:102A200038460EF007F8F8BD2A46314638460EF013
:102A300099F9F8BD10B5002821D009B30AB3B1F94E
:102A40000040B2F900309C4200DA23460380B1F91D
:102A50000240B2F902309C4200DA23464380B1F9C9
:102A60000440B2F904309C4200DD23468380B1F972
:102A70000610B2F90620914200DC1146C18010BD5B
:102A800011460A6802604968416010BD00280BD0F9
:102A900003880B4403808388194481804188114452
:102AA0004180C1881144C1807047000070B5104D4D
:102AB0000446D5E9000188420ED10E49884203D16F
:102AC000D0E90F12406C03E00C38D0E900128068A6
:102AD0002160C4E9012006E090E80E0084E80E00C1
:102AE0000CF04AFF2860207A002800D0012070BD39
:102AF00074020020607701200448D0E90010814270
:102B000001D10120704700207047000074020020AE
:102B1000054A10B5034911600DF076FEBDE810407E
:102B200000F0F2B891C100084801002070B5094CCE
:102B30000020D4E900218A420AD0D2E9005610468A
:102B40000CF024FF20603146284609F0B7FD012033
:102B500070BD0000180200202DE9FC41154DDDE993
:102B600008742D68B5F90860864200DD3046B5F975
:102B70000C60964200DA3246824219DBB5F90A60EF
:102B80008E4200DD3146B5F90E509D4200DA2B46EB
:102B90008B420DDB00E02C46E5682D6825B1042D45
:102BA00002D02568002DF6D1CDE9007401F0C8FFF0
:102BB000BDE8FC8124010020B0F90220B1F9063003
:102BC0009A4213DCB1F90220B0F906309A420DDCCA
:102BD000B0F90020B1F904309A4207DCB1F90010D5
:102BE000B0F90400814201DC0120704700207047E9
:102BF0000146024878220068FDF71FBD240100202D
:102C0000002801D00DF042BC704700000249782234
:102C10000968FDF712BD00002401002010B502F084
:102C2000C1F902F021FCBDE8104009F0C5B8000070
:102C300070B504460548022C0068457C02D24474F5
:102C4000FFF7ECFF02480460284670BD2401002015
:102C5000BC01002002F0C8B909F032BE02F0FCB994
:102C600001498860704700001801002002F08CBA0A
:102C700003490968CA6900B1C8611046704700007D
:102C80002401002002F09CBA024909688A7E8876F5
:102C90001046704724010020094A30B41080094AC8
:102CA0001180094A1268537C084A52F82330DA68C6
:102CB000146A0A46A446014630BC18466047000024
:102CC0005401002056010020240100203C01002076
:102CD000024909680A7E08761046704724010020E0
:102CE00003490968B1F92C20888510467047000017
:102CF0002401002003490968B1F92A2048851046BB
:102D0000704700002401002002480068002800D01D
:102D1000004770472C02002002498A6802B9886087
:102D2000FFF7F2BF1802002010B5040009D00DF023
:102D300021F920460DF022FE2046BDE81040FEF7A6
:102D400049BE10BD38B50C4660B1FEF7DFFE0090FD
:102D50008089204201D0012400E000246846FEF76B
:102D600005FF00E00124204638BD000038B50546C7
:102D7000002028600648046844B12046FEF7C6FEDD
:102D80000090006928606846FEF7F0FE204638BDD6
:102D90009C02002038B504004FF000000D4608608A
:102DA00011D02046FEF7B2FE0090846844B1684618
:102DB000FEF7DCFE2046FEF7A9FE009000692860C1
:102DC0006846FEF7D3FE204638BD00002DE9F84FD7
:102DD000DFF89C800546274F98F818008B4641077E
:102DE00038680A9E9946407C924607D401F03AFD25
:102DF00004463868407C01F041FD06E001F03EFDEC
:102E000004463868407C01F02DFD002795B1A0F103
:102E1000010400BFB9EB060000D54042142806DBD0
:102E20005146BBEB0A0000D54042142804DA0120C9
:102E3000BDE8F88F641EEDE70A464B465946384612
:102E400000960CF0D9FE0C4F4B46524647F8350021
:102E50005946204600960CF0CFFE07EBC5014860AE
:102E60000DF0EEF901210020C8F81C10E0E7000089
:102E700058010020240100204C7601202DE9F04764
:102E8000524D534E0024E86978B96868346000F008
:102E90000501746010F0060F01D000F00500B46069
:102EA000F4600DF0CDF90120E8612878C8B100F098
:102EB000D9F8A846286100F0D3F82969286A814228
:102EC0000BDBD8F824204046914206DC836A426935
:102ED0009A4202DBC36A9A420DDD4FF0FF30014691
:102EE0006FE000F00FF9686100F0BBF82878401C33
:102EF0002870BDE8F087326898F81800354F8D1AB1
:102F0000400700283868407C02DB01F0ABFC01E0A0
:102F100001F0B4FC401E4543D6E90020B146801ABA
:102F200095FBF0F6D8F81420D9F8081098F8180096
:102F3000551A400700283868407C02DB01F09EFCEF
:102F400001E001F08FFC401E4543D9E90201081A57
:102F500095FBF0F598F81800400700283868407C89
:102F600018DB01F07FFC81463868407C01F086FC6C
:102F7000D8F818200146D00704D0A9EB0600A0F12C
:102F8000010000E03046920702D5491B491E18E0B7
:102F9000294616E001F072FC81463868407C01F059
:102FA00061FCD8F81820D10704D0A9EB0601A1F1E3
:102FB000010100E03146920702D5401B401E00E0AF
:102FC00028460DF04DFC88F8004092E7580100209B
:102FD0004C760120240100200149886170470000DF
:102FE00058010020074A002806DB002904DB0123E2
:102FF0001372C2E9000101E000201072014800F0E4
:1030000003B80000E476012010B504460C220749FD
:10301000FDF760FA002808D0044894E80E000EC0BE
:103020002046BDE81040FFF773BD10BDA877012012
:1030300030B40A4C2268831A01D5C3F100036268D8
:103040008A1A00D552421A44022A04DDC4E900015A
:1030500030BCFFF7C7BF30BC7047000098010020AC
:103060007047704710B52DED048B82B020488088E2
:1030700045F21051884236D101221E49002003F04A
:1030800035FD1C48007800F01F0030B3042201A970
:10309000900103F02BFD9DF807109DF8062001EB31
:1030A00002200EF02EFE41EC190B9FED130B53EC9A
:1030B000102B0EF08DFE41EC180B0EF0F5FD1049B3
:1030C000888108468489B4F5F07F02DB40F2DF1482
:1030D00004E0002C02DA002400E00024204602B0C4
:1030E000BDEC048B10BDD02008F03EFAF7E70000DD
:1030F000B4270020BC000020D881734694F6D23F4C
:103100000800002010B52DED048B82B02048808887
:1031100045F21051884237D101221E49002003F0A8
:10312000E5FC1C48007800F01F0030B3042201A920
:10313000900103F0DBFC9DF805109DF8042001EBE5
:1031400002200EF0DEFD41EC190B9FED130B53EC4A
:10315000102B0EF03DFE41EC180B0EF0A5FD1049B2
:10316000C8820846C48AB4F5487F02DB40F21F34A7
:1031700005E0002C03DA002401E040F21F34204671
:1031800002B0BDEC048B10BD902008F0EDF9F7E71C
:10319000B4270020BD0000207B14AE47E17AD43F65
:1031A000080000202DE9F041084E0446056830680B
:1031B000016828468847074630684168284688479E
:1031C000284420603846BDE8F08100002801002036
:1031D0002DE9F0410C4606460025064F05E038680B
:1031E00041683046884706440544641EF7D22846A5
:1031F000BDE8F081280100202DE9F0411E46069C23
:103200001746884605463A46A8687F1C3346D0F8DC
:1032100004C041462846E047641EF4D1BDE8F08171
:1032200070B5B0F90040091BB0F904408C422CDDA8
:1032300000F11404B0F902500069521B02FB004077
:10324000CA1800EBE104521ED010B0EBE10501F00A
:1032500007034FF0FF0102F0070221FA03F0C2F169
:10326000070201FA02F1CEB221780FD001436D1EA0
:1032700004F8011B002D05DDFF2229462046FDF73D
:103280000EFA2C4420783043207070BD304001434A
:10329000217070BD10B5B0F90030B0F90240C91A04
:1032A00000F114030069121B02FB003000EBE10087
:1032B00001F0070302788021D9400A43027010BD53
:1032C000B0F90610026951431430FDF7F0B900005F
:1032D0002DE9F843804602F10F000011470003FB7F
:1032E00007F01C46154689461430FEF758FB0600C9
:1032F00013D0FEF70BFC0090A0F80080A0F802901D
:103300008580C4800649816001218181076168460A
:10331000FEF72CFC3046BDE8F8830020FBE70000F8
:10332000D468010870B5B0F90660B0F904400B68C4
:1033300000F11405964220DD0069A34202FB005013
:1033400000EBE30219DAA4F101044FEAE400A0EB78
:10335000E30512F8010B03F0070400FA04F0C4B20D
:1033600008E055B112F8014B03F10803A5F101057E
:1033700023F00703002CF4D008E0002070BD00BF4C
:103380004FEA44604FEA106403F101032006F7D5C9
:10339000FF2C0AD0184605E04FEA44644FEA146453
:1033A00000F101006606F7D400E0D81DC4436407AD
:1033B00006D007E012F8014BFF2C0FD100F10800F6
:1033C0006D1EF7D5A0EB030000F101000B6070BD8E
:1033D0004FEA44624FEA126400F101002206F7D47A
:1033E000F0E738B50546FEF791FB00908189491E4C
:1033F0000CB284816846FEF7B9FB002C02D1284646
:10340000FEF7E8FA38BD2DE9F04116460F460546AD
:10341000002432463946284600F048FD054408B1EC
:10342000641CF6E72046BDE8F081000010B54FF4BB
:10343000803100200EF0C8FA04464FF48031204657
:10344000FEF7C0FA8020FEF783FB0248FFF708FC76
:1034500010BD0000E457010870B504464FF47A70BF
:1034600060434FF47A71B0FBF1F5284602F0E2FEBA
:1034700070BD10B50120FFF7EFFF10BD10B502F0D1
:1034800045FF10BD10B5002002F05AFB014908604D
:1034900010BD0000A80000200EB508B102AA00E08F
:1034A0000022002301A9684600F052FB0EBD000077
:1034B000074910B5CC6818B10120C860801E03E030
:1034C0000020C8606FF07F4000F0A0FD204610BDD6
:1034D0007C02002010B5082A0EDC0346012A1AD00F
:1034E000022A58D0042A78D010F8042B03F8012BB4
:1034F000491EF9D1012010BD102A0ADC0222022A3D
:10350000F8D1024630F8043B22F8023B491EF9D1BB
:10351000F0E7002010BD10F8042BD207120E491E50
:1035200034D010F8044B491E04F0010442EA84121E
:103530002CD010F8044B491E04F0010442EA441256
:1035400024D010F8044B491E04F0010442EA04128E
:103550001CD010F8044B491E04F0010442EAC402D6
:1035600014D010F8044B491E04F0010442EA84020E
:103570000CD010F8044B491E04F0010442EA440246
:1035800004D010F8044B04F00104224303F8012B8B
:103590000029C0D1AEE710F8042B9207120E491E85
:1035A00015D010F8044B491E04F0030442EA04123B
:1035B0000DD010F8044B491E04F0030442EA8402C3
:1035C00005D010F8044B04F003042243491E03F80D
:1035D000012B0029DFD18DE7FFE710F8042B12073C
:1035E000120E491E05D010F8044B04F00F042243BC
:1035F000491E03F8012B0029EFD17BE72DE9F041AB
:103600001E680D460446082A09DC0746012A21D017
:10361000022A62D0042A7CD0082A1AD195E0102A06
:1036200003DC02200228F8D102E00020BDE8F0818E
:10363000D3F810C02746BCF1000F04D00A4621463B
:10364000022308468AE001CCB04727F8020B6D1E22
:10365000F9D18BE001CCB047C0074FEA10686D1E6E
:1036600036D001CCB04748EA801000F0FF086D1E4C
:103670002ED001CCB04748EA401000F0FF086D1E84
:1036800026D001CCB04748EA001000F0FF086D1EBC
:103690001ED001CCB04748EAC00000F0FF086D1E04
:1036A00016D001CCB04748EA800000F0FF086D1E3C
:1036B0000ED001CCB04748EA400000F0FF086D1E74
:1036C00006D001CCB04740EA080000F0FF086D1EAC
:1036D00007F8018B002DBDD148E001CCB047800731
:1036E0004FEA10686D1E18D001CCB04748EA0010B0
:1036F00000F0FF086D1E10D001CCB04748EA8000F2
:1037000000F0FF086D1E08D001CCB04740EA080069
:1037100000E007E000F0FF086D1E07F8018B002DA8
:10372000DBD123E001CCB04700074FEA10686D1EE3
:1037300006D001CCB04740EA080000F0FF086D1E3B
:1037400007F8018B002DEDD110E0D3F810C0BCF1CB
:10375000000F05D00A46014601233846E04705E040
:1037600001CCB04707F8010B6D1EF9D101205DE7D0
:103770000A4810B5816900290ED101218161FFF746
:1037800055FE01F0AFFE054905481C310860BDE853
:103790001040084600F082BB10BD00001801002058
:1037A000D9FC00087CB5064628480D46006868B17B
:1037B000002009F089F906E06A46294630460AF0F9
:1037C00005F809F043F90028F6D17CBD1068009097
:1037D0001F4C506801902268BDF8000032F84C1F61
:1037E0000844ADF80000BDF8020091880844ADF827
:1037F0000200BDF8040011880844ADF80400BDF8CB
:10380000060091880844ADF80600684609F05CF9A6
:103810000EE000BF2068BDF800106A464184BDF884
:10382000021081842946304609F0D0FF09F00EF9D4
:103830000028EFD1206830F8221F428D891A0180BC
:103840004188C28D891A41807CBD00005001002052
:10385000240100202DE9FF4F00208BB004460146D3
:10386000009019981D461646016007AB002203A977
:1038700002A800F06DF918B100200FB0BDE8F08F7C
:103880000798854200DD05465C4F0A955C4938681B
:10389000407C51F82010049109690691FEF7A4FCC0
:1038A00005903868407CFEF709FD564981468842FC
:1038B00004D05549894501D0012000E0002009903D
:1038C00001CE1899884782465FEA106B71D0009844
:1038D00070BB0B9800EB040848480068B0F908007A
:1038E000404503DDA0EB0807804600E00027029971
:1038F000049801EB840101EB8701CDE90010DDE9BB
:103900000A010A180C9B0892521E19464046FFF7FE
:1039100023F901200090059818280ADA0298DDE9B9
:10392000052300EB840000EB8700E91B00F070F832
:1039300010E0099870B1029800EB840000EB870753
:103940000898A0EB080849463868884701C7B8F1CD
:103950000108F8D12D48C06960B3DDE9020700EB2A
:10396000840007EB8402CDE90202284C361F2B4667
:10397000E46930460299A047FF203168B0EB116F2F
:1039800002D10299096804E0029A1268B0EB126F42
:1039900001D1039A11600299361D091D0291039904
:1039A000091D03916D1EE8D1199901200397086044
:1039B0001DE01EE0FFE7BBF1FF0F0ED00298CBF138
:1039C000FF0250F82410504600F00EFA039941F817
:1039D000240019990120086005E00298039950F825
:1039E000240041F82400641C6D1E7FF469AF039825
:1039F00043E7039941F824A0EBE7000024010020ED
:103A00003C010020EF480008ED4800084C0200206F
:103A10002DE9F05F0C1E16DD5E68014600EB8405A3
:103A2000082A12DC611E012A28D0022A48D0042A62
:103A30006AD0082A07D1071917F8010DB04745F8D1
:103A4000040D641EF8D1BDE8F09F102AFBDC0222B1
:103A5000022AF8D15F693FB12246BC46BDE8F04F6B
:103A600002235DF804EB604701EB440737F8020DD1
:103A7000B04745F8040D641EF8D1E4E700EBE1001F
:103A80002D1F10F801A9814601F00707802020FAB8
:103A900007F800BF0AEA0800C7F10701C840B047AD
:103AA00045F804093FB17F1E4FEA4860000E80468A
:103AB000641EEFD1C7E7072719F801A90120F6E72F
:103AC00000EBA1002D1F01F0030710F801A98146AA
:103AD0007900C02020FA01F84FF0060B0AEA08002E
:103AE000ABEB4701C840B04745F804093FB17F1E22
:103AF0004FEA8860000E8046641EEFD1A3E70327DB
:103B000019F801A93846F6E700EB610001272D1FDF
:103B1000A74310F801A98146B900F02020FA01F866
:103B20004FF0040B0AEA0800ABEB8701C840B0472E
:103B300045F804093FB17F1E4FEA0870000E804629
:103B4000641EEFD17FE7012719F801A90F20F6E7DE
:103B50002DE9F047204C06461F46A069904689464D
:103B6000002540B90120A06104F120011B48086034
:103B7000084600F093F9606910B900F064FE6061D6
:103B800007B138604EB1A06830B960698000FDF7B8
:103B900049FFA06000B901253060B9F1000F0AD0DB
:103BA000E06830B960698000FDF73CFFE06000B973
:103BB0000125C9F80000B8F1000F0AD0206930B91A
:103BC00060698000FDF72EFF206100B90125C8F86B
:103BD00000002846BDE8F0874C0200204DFD00089B
:103BE00073B5124A01A9009812689047002400900A
:103BF000C8B10F4900250968C969496959B10A68FE
:103C00004AB1019990477CBD6846FFF7CBFA05465B
:103C1000FEF7FCFA04440198401E0190F4D52846B2
:103C200000F032F8044420467CBD000090010020E2
:103C30002401002073B50D460098002490B10A4974
:103C40000968C969496959B14A684AB12946904722
:103C50007CBD6846FFF7A6FA20B10A2802D0641C92
:103C6000AC42F6DB20467CBD24010020044AB2F9B8
:103C7000002002600348B0F90000086070470000AF
:103C8000540100205601002038B5002469460094F4
:103C9000FEF7C4FA0099814200DD0C1A204638BDB7
:103CA000B0F90030B1F90020934200DA0280B0F997
:103CB0000230B1F90220934200DA4280B0F90430B8
:103CC000B1F90420934200DD8280B0F90620B1F9F9
:103CD00006108A4200DDC180704770B5B1F900401E
:103CE000B2F900309C4200DD23460380B1F9025056
:103CF000B2F90240A54200DD2C464480B1F90460CF
:103D0000B2F90450AE4200DA35468580B1F90610AA
:103D1000B2F90620914200DB1146C1809D4201DBD1
:103D2000A14201DA002070BD012070BD01460248A9
:103D30000068407C00F002B824010020F8B501269C
:103D40000F46054602284BDA264C5FB3012F02D0FE
:103D5000022F45D116E054F8250088B92846FEF711
:103D600041F80090B8B3C0680D21426A6846904798
:103D7000020035D039460098904754F825000026B7
:103D8000401C2BE0FEF72EF8009020B3C0680D21F8
:103D9000426A68469047020022D039460098904710
:103DA00000261DE054F8250001280FD12846FEF713
:103DB00019F8009050B1C0680D21426A68469047DA
:103DC000020003D0394600989047002654F8250099
:103DD00010B1012101E003E00021401A44F8250060
:103DE0003046F8BD1002002070B5FF23B3EB116F11
:103DF0002CD0C3B213FB02F500F47F4400F47F0320
:103E000054435343000E10FB02F6C2F1FF00CAB246
:103E100012FB005201F47F4505FB004401F47F05CD
:103E200005FB0033090E11FB0065C2F307204FF4B8
:103E30007F024FF47F4102EA132201EA14214FF07E
:103E40007F43084303EA05431043184370BD2DE93F
:103E5000F04F1546DDE90CB90C4606464FF0000858
:103E600018E00B9F4FF0FF0A01CE08CCAAEB1062BE
:103E700002FB09F2B2FBFAF1CAB21946FFF7B4FF2E
:103E800020F07F4001C57F1EEED1099808F101089E
:103E900004EB8004D845E4D3BDE8F08F02494A69B9
:103EA00042604861704700001801002010B50446C8
:103EB00000F009F801462046BDE81040FFF788B938
:103EC00000230CF09BBD77B581B015460E466B46BE
:103ED00001980CF093FD044601460198FFF778F92C
:103EE00001990844019001A8FFF75CF90A2802D063
:103EF000012D02D012E0641C10E020280ED1FEF744
:103F000085F9054607E028440090641C01A8FFF7E6
:103F100049F9202802D100988642F4DA04B02046FC
:103F200070BD000010B502E000F8011B521E0AB17E
:103F30008307F9D1930818D001EB014402F0030282
:103F400004EB042405E0046044608460C460103025
:103F50001B1F042BF7DA01E010C05B1E002BFBD106
:103F600003E000BF00F8011B521E002AFAD110BD69
:103F700010B5830702D520F8021B521E530810D03B
:103F800001EB0144042B08DB046044608460C460DE
:103F900010301B1F042BF7DA01E010C05B1E002B52
:103FA000FBD1D20700D0018010BD00F5806000F089
:103FB00001B8000010B50022C0F30B00B0F5006F8F
:103FC00002DDA0F500600122B0F5806F01DDC0F5D3
:103FD000006083110B4C00F03F00C0F1400134F849
:103FE00013004843402906D004EB4303C1F14001CC
:103FF0005B8803FB010020308009002A00D040428A
:1040000010BD0000F43D010800BFFEE702490A6848
:104010000860104670470000B002002030B501462D
:1040200001F01F04C1F34513CA0AE50205EB43156D
:104030001544A8B230BD000070B5044600261748EC
:104040000588408845431548808846F60401884223
:1040500016D112488079012812D100200F498871A9
:104060002A2048812B2088810021084601F006F88B
:1040700001200A4988712B2048812A20888103E089
:104080000021084600F0FAFF01F018FA002602E0CD
:1040900003480480761CAE42FAD370BDB4270020DA
:1040A000000008600449054A0968497C52F821105B
:1040B0000969096808470000240100203C0100202C
:1040C00010B50446002C52D158498871F020088060
:1040D0004FF4A07048800846808849F241318842F8
:1040E0000BD05248808846F60401884205D04F48DC
:1040F000808845F2103188421AD12C204B49088122
:104100002A2048812B2088810846808846F60401B1
:10411000884205D04548808845F21031884206D152
:104120004FF4A070414908804FF4F070488079E066
:104130003E48808845F21051884210D14FF43050EB
:104140003A4908814FF4285048814FF42C50888117
:104150004FF4F07008804FF44870488062E02220ED
:104160003249088120204881212088815AE001209D
:104170002E4988714FF4A0700880F02048800846CE
:10418000808849F24131884205D02848808845F22C
:104190001031884207D12C20244908812A204881E7
:1041A0002B2088812BE02148808846F60401884234
:1041B00007D12C201D4908812B2048812A20888185
:1041C0001DE01A48808845F21051884210D14FF402
:1041D0003050164908814FF4285048814FF42C5034
:1041E00088814FF4487008804FF4F070488006E0F2
:1041F00022200E49088121204881202088810B48F7
:10420000808846F60401884205D00848808845F237
:104210001031884206D14FF4F070044908804FF401
:10422000A0704880002000F063FD10BDB42700207E
:104230002DE9F04F05468DB07C48DDF860901A9C62
:1042400000681E4617464FF0000A78B11B9B199A6A
:10425000CDF808900593CDE90324DDE91623CDE9D7
:104260000023046833463A46284682E0DDE9160218
:1042700001EB060805EB070C1043A8F10108ACF1AF
:10428000010C012806D0C9F1080005900020029118
:104290000890C8E066480268B2F90A30581A002847
:1042A00006DD361A002E65DD1946199B00FB034416
:1042B000B2F90E00A8EB0000002802DD361A002E2D
:1042C00058DDB2F90C00ACEB0000002800DD3F1A0D
:1042D000B2F908300020AB4237DD581B3F1A4B467D
:1042E000B9F1080F28D007DC012B0DD0022B13D019
:1042F000B9F1040F29D117E0102B1FD0182B20D0B3
:10430000B9F1200F21D11CE020F0070304EBE004F9
:104310001D4400F0070018E020F0030304EBA004A4
:104320001D4400F0030010E020F0010304EB6004E2
:104330001D4400F0010008E0044404E004EB4004E4
:1043400001E004EB800405440020002F12DD1B9BDC
:10435000DDF864C0CDE90403CDE902C4CDE900690C
:10436000527C34483B4650F82200C26854680A46E2
:104370002946A0470DB0BDE8F08F17990298084470
:1043800009902B49401E00900A68B2F90A30834216
:1043900041DCB2F90E10029881423CDB4FF0000B79
:1043A000D84603950B9434E0BBF1000F05D10B9870
:1043B0004FF0080B10F801AB0B900599ABEB090B14
:1043C0003AFA01F00AFA09F101F0FF0A04D118499A
:1043D0000968097C890716D415490968C96B0A68F8
:1043E0000C921B9A0AB152F82000086016990398A3
:1043F000009B4218521E029900F0A0F90C490C983B
:104400000968C96B08600399169808F10108084407
:104410000390B845C8DB0898401C089009980290A2
:10442000199804440898B042A7DBA3E75001002084
:10443000240100203C010020F0B40C461249096818
:10444000B1F90A30A3421CDCB1F90E30A34218DBEB
:10445000B1F90830834200DD1846B1F90C309342BF
:1044600000DA1A4682420CDB4B7C084951F8235093
:1044700013462246E9688E6801462846B446F0BCD9
:104480006047F0BC70470000240100203C01002080
:104490002DE9FF4F84B081468A46002003900290A8
:1044A0000698A0EB09050798A0EB0A06CDF8049042
:1044B000CDF800A0002D01DD012705E00DB9002792
:1044C00002E04FF0FF376D42002E02DD4FF0010891
:1044D00006E016B94FF0000802E04FF0FF387642D0
:1044E000B54201DD2C4600E034464FF0000B21E0E0
:1044F000009A91B2019A90B200F056F803982844BD
:1045000003900298304402900398A04205DD03987E
:10451000001B03900198384401900298A04205DDE9
:104520000298001B02900098404400900BF101009B
:104530001FFA80FB601C8345DADD08B0BDE8F08F10
:104540000A46174930B40968B1F90A30934225DCAC
:10455000B1F90E30934221DBB1F9083083421DDC02
:10456000B1F90C30834219DB0B7C0E4CDB0709D010
:10457000497C54F82130D968CC690146A44630BC46
:1045800018466047CB6B497C1B6854F82140E168B2
:104590008D6901462046AC4630BC604730BC704750
:1045A000240100203C01002030B504460D46294678
:1045B000204600F063FD00F081FF024800880249B8
:1045C000088030BD0000002000000860124B30B4AD
:1045D0001B68B3F9084084421CDCB3F90C408442E8
:1045E00018DBB3F90A408C4200DD2146B3F90E40D6
:1045F000944200DA22468A420CDB5C7C074B53F87B
:104600002440E368DD6813460A4601462046AC466E
:1046100030BC604730BC7047240100203C010020C2
:1046200070B504460D4616464248808849F241312D
:10463000884205D03F48808845F21031884214D125
:104640003C49488900F02EFF201200F01FFFE0B225
:1046500000F01CFF3749888900F024FF281200F081
:1046600015FFE8B200F012FF5DE03248808845F2A5
:104670001051884220D12F49488900F013FF2012A1
:1046800000F004FF2B494989491C88B200F00AFF59
:10469000E0B200F0FBFE2749888900F003FF2812F2
:1046A00000F0F4FE23498989491C88B200F0FAFE23
:1046B000E8B200F0EBFE36E01E48808846F60401C2
:1046C00088421DD11B488079012804D119480088EF
:1046D000401E001B84B21749488900F0E3FE2012F7
:1046E00000F0D4FEE0B200F0D1FE1249888900F05B
:1046F000D9FE281200F0CAFEE8B200F0C7FE12E0B0
:104700000C488079012804D10A480088401E001B0B
:1047100084B208494889214600F0DAFE05498889B3
:10472000294600F0D5FE0348008903490880881C0B
:10473000068070BDB4270020FEFF076038B5134C1B
:104740002468B4F90850854200DD2846B4F90C50BD
:10475000954200DA2A46824217DBB4F90A508D42AC
:1047600000DD2946B4F90E509D4200DA2B468B42FB
:104770000BDB0093647C064B53F82440E3681D690F
:1047800013460A4601462046A84738BD24010020AA
:104790003C01002008210AF0E1BF00000248006847
:1047A000806B006870470000240100200248006808
:1047B000C06B0068704700002401002002480921F6
:1047C0000068407C0AF0CABF2401002009210AF0D9
:1047D000C5BF70B500252C462046FDF703FB00B190
:1047E0006D1C641C022CF7DB284670BD0248006873
:1047F000407C00F003B800002401002010B5FDF754
:10480000F1FA002805D0C168CA6ABDE8104002214B
:10481000104710BDF8B515460E460124FDF7E2FA23
:10482000009058B1C0680421426A6846904703006E
:1048300004D02A4631460098984700242046F8BD07
:1048400003210AF08BBF03200AF0D0BF04210AF035
:1048500085BF0000024801210068407C0AF07EBF4D
:104860002401002001210AF079BF00000248022142
:104870000068407C0AF072BF2401002002210AF087
:104880006DBF00F001B800002DE9F041002809D00B
:10489000876837B10D4E716819B10468B4F5807F2F
:1048A00002DD0020BDE8F0813068844200DD04466E
:1048B000002507E057F82500FFF7F4FB716841F881
:1048C00025006D1CA542F5DB7068EBE7A401002014
:1048D0000449054A0968497C52F821100969496868
:1048E00008470000240100203C0100207047704769
:1048F00010B500F01F01074A074BC0F34514C0F381
:10490000C4201B5D105C515C00EB032000EB0140F8
:1049100010BD0000AC660108CC66010810B50A4C59
:10492000606860B920688000FDF77CF8606040B185
:1049300004F10801054808600846FFF7AFFA0020B7
:1049400010BD012010BD0000A401002005FD0008DD
:104950002DE9F041FFF73DFF0746002528E02846F6
:10496000FDF740FA18B32846FEF762F9804628465C
:10497000FFF710FF082817DC0F48104950F82500F2
:104980000069884210D02846FFF720FF0646002421
:1049900008E0E0B2FFF79CFF0246E1B2284600F0D3
:1049A000F9FB641CB442F4DB4046FEF741F96D1C90
:1049B000BD42D4DBBDE8F0813C0100203068010835
:1049C00010B50246012000E050430B1EA1F1010486
:1049D000E1B2F9D110BD000008B50348008800908D
:1049E000BDF8000008BD0000000008602DE9F0419E
:1049F00005460E4600240027A0464F480088A842DE
:104A000003DD4D484088B04202DC0020BDE8F08163
:104A10003146284600F032FB4748808849F2413150
:104A200088420BD04448808846F60401884205D06D
:104A30004148808845F21031884203D12E2000F091
:104A400031FD0DE03C48808845F21051884204D188
:104A50004FF4385000F026FD02E0222000F022FD45
:104A60003548808849F22031884202D102200CF07A
:104A7000C9FF3248008800B1002402200CF0C2FFB8
:104A80002E4804882C48808849F2413188420BD056
:104A90002948808845F21031884205D02648808810
:104AA00045F2105188420AD102200CF0ABFF234896
:104AB000B0F80080E7B24FF6FF7000EA07271E4803
:104AC000808849F22531884216D01B48808844F2FC
:104AD0003551884210D018488088091F88420BD071
:104AE000154880884BF20551884205D012488088CD
:104AF0004CF20551884201D1204687E70E48808854
:104B000049F2413188420BD00B48808845F2103180
:104B1000884205D00848808845F21051884207D164
:104B2000E012C002B91240EA411040EAE8206DE705
:104B30002046FFF773FA69E7B427002000000860F9
:104B40002DE9FF4F83B01646DDE910408B46C06863
:104B50004769426A7AB1012111A8904705000AD03D
:104B60000698CDE9000433465A4603991198A847A0
:104B700007B0BDE8F08F57480068407CFDF734FB74
:104B80008246082801DC012005E0BAF1100F01DCA3
:104B9000022000E004208046002596E04046B8F15F
:104BA000010F05D0022871D0B8F1040F25D17CE0A7
:104BB000BAF1090F21D2DFE80AF08605213F3F59FB
:104BC00059595900039815E001465A461198B847BB
:104BD000C5F1070188404FF67F722178EA40114005
:104BE00001436D1C217004EBE50425F0070005412D
:104BF00009F101008146B042E6DD64E0039817E068
:104C000001465A461198B8470621A1EB4501884054
:104C10006B004FF63F722178DA40114001436D1C62
:104C2000217004EBA50425F00300054109F1010002
:104C30008146B042E4DD46E0039813E001465A465F
:104C40001198B8470421A1EB850188402178AB0079
:104C50000F229A401140014321702C4485F0010538
:104C600009F101008146B042E8DD2CE0DDF80C904E
:104C700007E001465A461198B847207009F101092A
:104C800044444846B145F4DD1DE0FFE7DDF80C90F3
:104C900007E001465A461198B847208009F10109FA
:104CA00044444846B145F4DD0DE0DDF80C9007E0E2
:104CB00001465A461198B847206009F10109444459
:104CC0004846B145F4DD0BF1010B06998B457FF7A2
:104CD00065AF4DE72401002001B5BDF8000000F0EC
:104CE000E1FB05200CF086FBFFF776FE08BD000017
:104CF000F0B5054600240027A948807901281ED177
:104D0000A748808846F60401884218D0082D15D29D
:104D1000DFE805F00406080A0C0E101206250DE067
:104D200007250BE0042509E0052507E0012505E03E
:104D3000002503E0032501E0022500BF00BF9848DD
:104D4000808849F24131884211D09548808846F6E2
:104D5000040188420BD09248808845F21031884285
:104D600005D08F48808845F2105188427ED1082DA9
:104D70001CD2DFE805F00406090C0F12151800BF5D
:104D800014E044F0800411E044F040040EE044F0EC
:104D9000C0040BE044F0200408E044F0600405E0A7
:104DA00044F0A00402E044F0E00400BF00BF7C48EF
:104DB000808845F21051884202D14FF4585700E0E4
:104DC00036277748808845F21031884207D07448EA
:104DD000808845F21051884201D044F008047048A0
:104DE000808846F60401884201D144F0020421463D
:104DF000384600F06DFB04F0200018B9684880794F
:104E000001280DD16648008865494988884214DA2E
:104E100063480688408862490880084646800CE05E
:104E20005F4800885E494988884206DD5C480688FC
:104E300040885B490880084646805948808845F28A
:104E40001051884254D15649488900F02BFB00206C
:104E500000F01CFB52494989491C88B200F022FB32
:104E6000002000F013FB4E49498900E06FE0891CE7
:104E700088B200F017FB4A490988491EC1F30F2088
:104E800000F004FB46494989C91C88B200F00AFBBE
:104E900043490978491EC8B200F0F8FA40498889A8
:104EA00000F000FB002000F0F1FA3D498989491C1F
:104EB00088B200F0F7FA002000F0E8FA3849898952
:104EC000891C88B200F0EEFA35494988491EC1F3C1
:104ED0000F2000F0DBFA32498989C91C88B200F042
:104EE000E1FA2F498978491EC8B200F0CFFA55E09F
:104EF0002B49488900F0D6FA002000F0C7FA0020BC
:104F000000F0C4FA26490988491EC1F30F2000F0B9
:104F1000BDFA23490978491EC8B200F0B7FA204902
:104F2000888900F0BFFA002000F0B0FA002000F0FD
:104F3000ADFA1B494988491EC1F30F2000F0A6FABB
:104F400017498978491EC8B200F0A0FA26E0082D5A
:104F50001CD2DFE805F004070A0D0F12151844F003
:104F6000300413E044F0100410E044F020040DE09D
:104F700000BF0BE044F0380408E044F0280405E0EA
:104F800044F0180402E044F0080400BF00BF032707
:104F900044F480542146384600F09AFAF0BD0000EF
:104FA000B427002010B50E4C0E492068407C51F803
:104FB000200050B1C1680968042903D000680028A6
:104FC000F8D102E008B1FCF70BFF20680021016670
:104FD00000F108014161BDE8104000F02FB8000069
:104FE000240100203C010020014909684968084764
:104FF000A0010020044909680A7C520701D5C96B49
:1050000000E0896B08607047240100207CB5094CE2
:1050100005462068417C084850F82100C1680A6BA9
:105020006946904720686A4629460830FEF755FED3
:105030007CBD0000240100203C01002004480168E0
:1050400004484A7C083150F82200C268126B1047AD
:10505000240100203C010020014909680968084733
:10506000A0010020044909680A7C520701D5896B18
:1050700000E0C96B086070472401002030B5044689
:105080000D464048808849F24131884205D03D486C
:10509000808845F21031884214D13A49488900F09D
:1050A00001FA201200F0F2F9E0B200F0EFF9354910
:1050B000888900F0F7F9281200F0E8F9E8B200F06A
:1050C000E5F95DE02F48808846F6040188421DD14D
:1050D0002C488079012804D12A480088401E001BF2
:1050E00084B22849488900F0DDF9201200F0CEF999
:1050F000E0B200F0CBF92349888900F0D3F92812F7
:1051000000F0C4F9E8B200F0C1F939E01D48808828
:1051100045F21051884220D11A49488900F0C2F95D
:10512000201200F0B3F917494989491C88B200F0F0
:10513000B9F9E0B200F0AAF91249888900F0B2F991
:10514000281200F0A3F90F498989491C88B200F0A0
:10515000A9F9E8B200F09AF912E00A48807901282A
:1051600004D108480088401E001B84B205494889C4
:10517000214600F0ADF903498889294600F0A8F9D5
:1051800030BD0000B427002001490968896808473C
:10519000A0010020F8B515460E460124FCF722FEBA
:1051A000009058B1C0681021426A684690470300D9
:1051B00004D02A4631460098984700242046F8BD7E
:1051C000F8B515460E460124FCF70CFE009058B1C8
:1051D000C0680321426A68469047030004D02A460B
:1051E00031460098984700242046F8BDF8B515468A
:1051F0000E460124FCF7F6FD009058B1C0680B2163
:10520000426A68469047030004D02A463146009817
:10521000984700242046F8BDF8B515460E460124EF
:10522000FCF7E0FD009058B1C0680A21426A684668
:105230009047030004D02A4631460098984700243E
:105240002046F8BD2DE9F84F0746884616461C460D
:10525000C3462046E31704EB5373DB1021464FEAA5
:10526000E47C04EB5C7C4FEAEC0CA4EBCC0CBCF1D2
:10527000000F02D04FF0010C01E04FF0000C63442E
:10528000224604EBD27C4FEA6C0C03FB0CF3DBB23E
:105290000093A6F12000C6B2002556E00C2C07D1E1
:1052A00006EB46002B4901EB800010F8059013E057
:1052B000102C05D1284800EB061010F805900BE0E3
:1052C000182C07D106EBC600244901EB800010F82A
:1052D000059001E0BDE8F88F4FF0000A2FE009F0DB
:1052E000800030B11E48028841463846FFF798F9E1
:1052F00007E00A9828B91B48028841463846FFF75C
:105300008FF94FEA49604FEA106908F101001FFA6E
:1053100080F815480088B84200DCDBE7A8EB0B00FA
:10532000A04208D1D846781C87B20F480088B842FE
:1053300000DCCFE706E00AF1010000F0FF0ABAF155
:10534000080FCCDB00BF681CC5B200988542A5DB06
:1053500000BFBFE7A82401081C2901080C2F010881
:105360000000002002000020B42700202DE9FF4F9C
:1053700081B0074691461E460E9D4FF0000A00245C
:1053800039E0301B401EC1B20A20FFF719FBB9FB00
:10539000F0F00A21B0FBF1F201FB1208BAF1000FA4
:1053A00016D1701EA04213DDB8F1000F0ED10020FF
:1053B000AB4605EBDB71491001FB0471009088B22C
:1053C0002B4620220299FFF73DFF12E04FF0010A21
:1053D0000020AB4605EBDB71491001FB0471009026
:1053E00088B208F13001CAB22B460299FFF72AFFB2
:1053F00000BF601CC4B2B442C3DB05B0BDE8F08F8F
:105400002DE9F84704460D4690469946DDE90967BF
:1054100004F0FF0A08EB04001FFA80F809EB05000E
:105420001FFA80F916E0444502DB5446A81985B2FC
:105430004D4500DB14E0002000903A7833462946C1
:105440002046FFF7FFFE304606EBD07104EB61010A
:105450008CB27F1C38787E2802DC38782028E2DA8B
:1054600000BFBDE8F887000010B5074C2068006B4E
:10547000FEF718FEFFF7F6FD2068406BFEF712FE00
:10548000BDE81040FFF7B6BD2401002001B5BDF80E
:1054900000000090BDF800000149088008BD000030
:1054A0000000086001B5BDF800000090BDF80000E4
:1054B0000149088008BD0000FEFF0760024800891E
:1054C0000249088070470000B4270020FEFF0760F3
:1054D00003B5BDF80000024A1080901C01800CBD8D
:1054E000FEFF076008B500231A4665496548FCF7CA
:1054F00021FC6548808845F21051884239D16248C4
:10550000428801880020FFF771FE5F4842880188C9
:105510000020FFF781FE5C48807998B940F2B31013
:1055200000234FF4F072194600901846FDF74EFC28
:1055300040F21F300023421C194600900120FDF765
:1055400045FC9BE00620FDF747FD40F2B310002329
:105550004FF4F072194600901846FDF737FC40F200
:105560001F300023421C194600900120FDF72EFC3D
:1055700084E04548808845F21031884205D0424891
:10558000808846F6040188423BD13F484288018822
:105590000020FFF72BFE3C48428801880020FFF7DF
:1055A0003BFE39488079A0B9E22040F65B734FF4A6
:1055B000A072002100900846FDF708FCC42040F6C8
:1055C000ED634FF4F072002100900120FDF7FEFB27
:1055D00054E00620FDF700FDE22040F65B734FF437
:1055E000A072002100900846FDF7F0FBC42040F6B1
:1055F000ED634FF4F072002100900120FDF7E6FB0F
:105600003CE02148428801880020FFF7EFFD1E485A
:10561000428801880020FFF7FFFD1B488079B8B958
:105620000120FDF7D9FC40F63F7000901648028833
:105630009B2300210846FDF7C9FB40F65F700090F0
:1056400011484288BC2300210120FDF7BFFB15E073
:105650000720FDF7C1FC40F63F709B23F02200219C
:1056600000900846FDF7B2FB40F65F70BC234FF494
:10567000A072002100900120FDF7A8FB08BD0000EA
:10568000D43D0108983C0108B427002010B503461A
:105690001446012901D1002010BD4FF0FF3200BF98
:1056A00000BF1046F8E700002DE9FF4F8DB0174608
:1056B000674ADDF870901E9E209812681D460024EF
:1056C0008AB11D9B1F98CDE90293CDE90460DDE905
:1056D0001A03CDE9000314682B463A460D98A047FB
:1056E00011B0BDE8F08F0D9A01EB050802EB070C35
:1056F000DDE91A231A43A8F10108ACF1010C012AD3
:1057000006D0C9F108004FF0000B029105909CE013
:10571000504A1268B2F90A40631A002B06DDED1AEE
:10572000002DDDDD21461D9C03FB0466B2F90E3021
:10573000A8EB0303002B02DDED1A002DD0DDB2F93A
:105740000C30ACEB0303002B00DDFF1A0D9B1C1A81
:10575000B2F90830A3420DDDA3EB040C0CEB0003FF
:10576000181A20F007000444A7EB0C0706EBE30629
:1057700003F00700002FB3DD1F9BDDF874C0CDE9F7
:10578000040303968DE82012527C33483B4650F8C0
:105790002200C26855680A462146A847A0E71B991F
:1057A0000298084409902B49401E03900A68B2F9F8
:1057B0000A30834243DCB2F90E10029881423EDB8C
:1057C0004FF0000A0D980B96D046009035E000BFD0
:1057D000BAF1000F05D10B984FF0080A10F8014BF1
:1057E0000B900599AAEB090A34FA01F004FA09F4BE
:1057F000E4B204D117490968097C890717D415490F
:105800000968C96B0A680C921F9A0AB152F8200005
:10581000086000991A980A180846DDE90213521E1A
:10582000FEF78CFF0B490C980968C96B086000995A
:105830001A9808F1010808440090B845C8DB099897
:1058400002901D980BF1010B0644AB45A7DB47E71F
:1058500050010020240100203C010020002818D025
:10586000410817D0810817D0C10817D0010917D0F7
:10587000410917D0010A17D0410A17D0010B15D0E2
:10588000C10B13D0010C11D0810C11D0000E11D01E
:105890002020704701207047022070470320704786
:1058A000042070470520704708207047102070477B
:1058B000122070471820704700B50022FFF7CEFF76
:1058C000012804D0811E062903D808220BE00122FA
:1058D00009E0A0F10901072901D8102203E01138DD
:1058E0000F2800D82022104600BD00001CB5012161
:1058F000084601F069F92220009001208DF804008B
:1059000000208DF8060003208DF8050001208DF899
:10591000070069460348FBF76DFE22210148FBF7AB
:10592000D4FE1CBD0000024000BFFEE7704700002F
:1059300070B5002100230F22C4781CB3174C2468D3
:1059400004F4E064C4F5E064C4F30721C1F1040485
:10595000E3B20A4144789C40E1B284781440214388
:105960000C07210E0E4C05786155047804F01F05D4
:105970000124AC4005786D11AD0005F1E025C5F8B6
:10598000004109E0047804F01F050124AC40054DF6
:105990000678761145F8264070BD00000CED00E059
:1059A00000E400E080E100E002490143024A1160A6
:1059B000704700000000FA050CED00E010B500F0A3
:1059C00013F800F0B5FD00F0DDFD00F0FDFD00F086
:1059D00085FD00F045FD00F091FE00F035FE00F081
:1059E0005BFE00F002F810BD704770470648007873
:1059F000012808D105480078FF2804D20348007820
:105A0000401C024908707047E6000020D9000020C1
:105A100010B500241A480078012830D1FAF74CFC60
:105A200004461848007820B116480078401E1549F1
:105A3000087014480078F8B913480078E0B900F00D
:105A4000BFFE12481249097850F821001149086038
:105A50000F4800781049097888420DD00D48006839
:105A6000806B401C0B49096888630C480068401C27
:105A70000A490860FAF740FC2046FAF721FC10BDFD
:105A8000E6000020D9000020DA000020A46F0120E9
:105A9000DC000020F4000020DB000020C00000201B
:105AA00010B500240B480078012811D1FAF704FC46
:105AB00004460948007840B908480078FF2804D215
:105AC00006480078401C054908702046FAF7F8FBA4
:105AD00010BD0000E6000020D9000020DA00002000
