:020000040000FA
:10000000600120204D01000051010000530100005B
:1000100000000000000000000000000000000000E0
:10002000000000000000000000000000550100007A
:10003000000000000000000057010000590100000E
:100040005B0100005B0100005B0100005B01000040
:100050005B0100005B0100005B0100005B01000030
:10006000000000005B0100005B01000000000000D8
:10007000000000005B0100005B0100005B0100006C
:100080005B0100005B0100005B0100005B01000000
:100090005B0100005B0100000000000000000000A8
:1000A0005B0100005B010000000000000000000098
:1000B0005B010000000000005B0100005B0100002C
:1000C00000F002F800F032F80CA030C8083824180C
:1000D0002D18671EA246AB4654465D46AC4201D180
:1000E00000F024F87E460F3EB6460FCC0126334280
:1000F00000D0FB1A3343A246AB461847AC010000C0
:10010000BC010000000000000023002400250026A0
:10011000103A01D378C1FBD8520700D330C100D5C3
:100120000B6070471FB51FBD10B510BD00F027F85C
:100130001146FFF7F7FF00F0A1F800F03FF803B415
:10014000FFF7F2FF03BC00F045F800000648004747
:10015000FEE7FEE7FEE7FEE7FEE7FEE703480449A9
:10016000024A044B70470000C100000060002020DC
:10017000600120206000202070477047704775465E
:1001800000F024F8AE46050069465346C008C0009A
:10019000854618B020B5FFF7E1FF60BCB6460026E3
:1001A0000027C0C5C0C5C0C5C0C5C0C5C0C5C0C585
:1001B000C0C5403D490849008D46704710B504460A
:1001C000C046C0462046FFF7BAFF10BD0048704742
:1001D0000000202001491820ABBEFEE726000200E7
:1001E0007047811E091F00BFFCD270470348812160
:1001F00001602B4804210160016470473C8042404B
:100200000D48002101600320C1430C48021F136800
:100210000B40136041680122914341601102426822
:100220008A434260016830229143016001680F22D5
:10023000914301607047C04608030B4004010B4026
:1002400080B500F005F8FFF7D1FFFFF7D9FF80BDBB
:1002500080B5064806494160064A5160064901607A
:1002600011601020FFF7BDFF80BDC04600080A40A6
:10027000030000B100280A4001000026FFF7E0FF5C
:100280000648074904220A61034600BF5B1EFCD1F1
:100290000A60024600BF521EFCD1F3E700127A004A
:1002A00090320A4000000000B80200000000202048
:0802B0006001000008010000DC
:04000005000000C136
:00000001FF
