:020000040800F2
:100000007086012089020008CD6300080D490008B0
:10001000C9630008F50800081FE10008000000009F
:10002000000000000000000000000000B59500087E
:100030007D1100080000000019030008CD9600089B
:10004000A3020008A3020008A3020008A3020008FC
:10005000A3020008A3020008A3020008A3020008EC
:10006000A3020008A3020008A3020008A3020008DC
:10007000A3020008A3020008A3020008A3020008CC
:10008000A3020008A3020008A3020008A3020008BC
:10009000A3020008A3020008A3020008A3020008AC
:1000A000A3020008A3020008A3020008A30200089C
:1000B000A302000819CE000831CE0008A3020008F0
:1000C000A3020008A3020008A3020008A30200087C
:1000D000A3020008E9DE0008A3020008A30200084A
:1000E000A3020008A3020008A3020008A30200085C
:1000F000A3020008A3020008A3020008A30200084C
:10010000A3020008597C0008A3020008A30200080B
:10011000A3020008A3020008A3020008A30200082B
:10012000A3020008A3020008A3020008A30200081B
:10013000A3020008A3020008A3020008A30200080B
:10014000A3020008A3020008A3020008A3020008FB
:10015000A3020008A3020008A3020008A3020008EB
:10016000A3020008A3020008A3020008A3020008DB
:10017000A3020008A3020008A3020008A3020008CB
:10018000A3020008A302000800F002F800F061F8E2
:100190000AA090E8000C82448344AAF10107DA45E2
:1001A00001D100F056F8AFF2090EBAE80F0013F0D3
:1001B000010F18BFFB1A43F001031847ECB9010007
:1001C0000CBA01000A444FF0000C10F8013B13F088
:1001D000070408BF10F8014B1D1108BF10F8015BA0
:1001E000641E05D010F8016B641E01F8016BF9D193
:1001F00013F0080F1EBF10F8014BAD1C0C1B09D1EA
:100200006D1E58BF01F801CBFAD505E014F8016B5B
:1002100001F8016B6D1EF9D59142D6D370470000ED
:100220000023002400250026103A28BF78C1FBD8FF
:10023000520728BF30C148BF0B607047782900F0D3
:10024000E980002070471FB515F063F81FBD10B599
:1002500010BD00F01DFB1146FFF7F5FF14F044F947
:1002600000F03BFB03B4FFF7F2FF03BC13F0FEFC0E
:1002700040BA7047C0BA704730BF72B6704762B6B6
:10028000704780F30888704709488047094800474D
:10029000FEE7FEE7FEE7FEE7FEE7FEE7FEE7FEE736
:1002A000FEE7FEE704480549054A064B7047000093
:1002B000DD96000889010008707C0120708601200D
:1002C000707E0120707E0120EFF3108072B67047BF
:1002D00080F310887047264C4FF6FF7525604FF06D
:1002E000000484F30988234C4FF001052570224C4B
:1002F0004FF08055256062B6FEE730B41E4C4FF0DB
:100300008055256030BC704730B41B4C4FF0805591
:10031000256030BC704700BF72B6EFF3098050B162
:100320001EF0100F08BF20ED108A203880E8F00F73
:1003300012490968086000B5114880475DF804EB70
:10034000104811490A7802700C4810490A68026086
:10035000106890E8F00F20301EF0100F08BFB0ECCE
:10036000108A80F309884EF0040E62B6704700BF11
:1003700022ED00E0E600002004ED00E0EC000020AB
:10038000616E0008DB000020DC000020F40000208B
:10039000704700000FB4044910B503AA029800F09A
:1003A000E1F910BC5DF814FB740000202DE9F04168
:1003B0000E460446002020622046E168884730B39C
:1003C000252805D0D4E901219047206A401CF2E796
:1003D000E168204600278847050018D0A5F14100B4
:1003E000192802D820354FF40067324629462046A6
:1003F0002760FFF723FF40B1012804D0F61D26F047
:1004000007060836D8E7361DD6E72846DAE7206A19
:10041000BDE8F08170B504460D4621461068AFF383
:1004200000802188090502D50F4A7A4402E00E4A6D
:100430007A440E32002104F1240305E000F00F0697
:100440000009965D5E54491C0028F7D120780023EE
:10045000000704D5702D02D009B1022311322046C5
:10046000BDE8704000F025B972B6010040EA010312
:1004700010B59B070FD1042A0DD310C808C9121F4D
:100480009C42F8D020BA19BA884201D9012010BD87
:100490004FF0FF3010BD1AB1D30703D0521C07E054
:1004A000002010BD10F8013B11F8014B1B1B07D1B8
:1004B00010F8013B11F8014B1B1B01D1921EF1D129
:1004C000184610BD032A40F2308010F0030C00F0F3
:1004D000158011F8013BBCF1020F624498BF11F87E
:1004E00001CB00F8013B38BF11F8013BA2F1040237
:1004F00098BF00F801CB38BF00F8013B11F00303AF
:1005000000F06780083AC0F0088051F8043B083AD0
:1005100051F804CBA0E80810F5E7121D5CBF51F8B4
:10052000043B40F8043BAFF30080D20724BF11F82E
:10053000013B11F801CB48BF11F8012B24BF00F893
:10054000013B00F801CB48BF00F8012B7047431A6C
:1005500028BF9A427FF6B6AF032A1044114440F2F6
:10056000268010F0030F1EBF11F8013D521E00F847
:10057000013D10F0030F7FF4F6AF11F0030300F01C
:100580001681083AC0F00B8051F8043D083A51F842
:1005900004CD40F8043D40F804CDFFF7F3BF121D31
:1005A0005CBF51F8043D40F8043DAFF30080D20732
:1005B00024BF11F8013D11F801CD48BF11F8012CFD
:1005C00024BF00F8013D00F801CD48BF00F8012C20
:1005D000704710B5203AC0F00B80B1E81850203AAF
:1005E000A0E81850B1E81850A0E81850BFF4F5AFD3
:1005F0005FEA027C24BFB1E81850A0E8185044BF5D
:1006000018C918C0BDE810405FEA827C24BF51F8C9
:10061000043B40F8043B08BF7047D20728BF31F8BD
:10062000023B48BF11F8012B28BF20F8023B48BF0E
:1006300000F8012B704702F0FF0343EA032242EA6D
:10064000024200F0E0B84FF0000200B513469446B5
:100650009646203922BFA0E80C50A0E80C50B1F11A
:100660002001BFF4F7AF090728BFA0E80C5048BF2E
:100670000CC05DF804EB890028BF40F8042B08BFCC
:10068000704748BF20F8022B11F0804F18BF00F8C8
:10069000012B7047704770477047704710B500F0E6
:1006A000D3F8006810BD10B5044600F0CDF8046022
:1006B00010BD2DE9F0470D4699469246044600F1DB
:1006C00024080168880604D5E06921F01001216042
:1006D00000E00120A84201DD471B00E00027A169DE
:1006E0007A1902EB0900081AA0612078C00602D42A
:1006F0002046AFF30080002608E0D4E901211AF873
:1007000006009047206A401C761C20624E45F4DBB0
:100710002078C0060AD52046AFF3008006E0D4E971
:10072000012130209047206A401C2062381EA7F12A
:100730000107F4DC07E0D4E9012118F8050090472F
:10074000206A401C2062281EA5F10105F3DC20462A
:10075000AFF300802078000602D50220BDE8F087C4
:100760000120FBE7074B70B50D467B4400F075F8A0
:100770000446284600F084F810B14FF0FF3070BDF9
:10078000204670BDEB3C0100431A28BF9A427FF619
:1007900020AF104410F0030F11441EBF11F8013DAB
:1007A000521E00F8013D10F0030F7FF4F6AF103A2F
:1007B000C0F00A8010B531E91850103A20E91850FD
:1007C000BFF4F9AFBDE81040530724BF31E908106A
:1007D00020E9081044BF51F8043D40F8043D12F0F0
:1007E000030F08BF7047D20728BF31F8023D48BF4A
:1007F00011F8012C28BF20F8023D48BF00F8012C59
:1008000070474FF000020429C0F0128010F0030C72
:100810003FF41BAFCCF1040CBCF1020F18BF00F881
:10082000012BA8BF20F8022BA1EB0C01FFF70DBF95
:100830005FEAC17C24BF00F8012B00F8012B48BF00
:1008400000F8012B70470000004870470C7C012025
:1008500001694A1C02610878704700B58FB0CDE984
:1008600001310021059105497944CDE90310114674
:100870006846FFF79BFD0FB000BD0000E5FFFFFFDE
:10088000007B00F080007047004870470C7C01201E
:100890007546FFF7F9FFAE4605006946534620F05E
:1008A0000700854618B020B5FFF7FCFCBDE82040E6
:1008B0004FF000064FF000074FF000084FF0000B1C
:1008C00021F00701AC46ACE8C009ACE8C009ACE8CF
:1008D000C009ACE8C0098D46704710B50446AFF3B7
:1008E00000802046BDE81040FFF7BCBC002800DCBB
:1008F0004042704700BFFEE731B52DED068B82B058
:100900000024002574480078401C7349087008468C
:1009100000780A2190FBF1F201FB120018B16E4839
:1009200000780A287EDA012208A9002006F076FF66
:100930009DF8200000F01F00002873D09DF82000D3
:1009400000F01F0040F0C000644981F8200000243E
:1009500086E0624890F820000121A140084000286C
:100960007CD05F4931F81400042201A906F056FF3B
:100970005A4890F8340000F00100D0B39DF80710F9
:100980009DF8062001EB022014F0F5F841EC190B5C
:100990009FED540B53EC102B14F054F941EC180B51
:1009A00014F0BCF881B24D48163020F814109DF8B0
:1009B00005109DF8042001EB022014F0DCF841EC56
:1009C0001A0B9FED4A0B53EC102B14F03BF941EC42
:1009D000190B9FED480B53EC102B14F067FA41EC08
:1009E000180B14F09BF881B23C480C3020F814101E
:1009F00034E0FFE79DF807109DF8062001EB022088
:100A000014F0B9F841EC190B9FED360B53EC102B99
:100A100014F018F941EC180B14F080F881B22F484B
:100A20000C3000E02BE020F814109DF805109DF824
:100A3000042001EB022014F09EF841EC190B9FED0D
:100A40002B0B53EC102B14F0FDF841EC180B14F0A9
:100A500065F881B22148163020F81410601CC4B229
:100A6000052CFFF676AF01251C48808920B91B486C
:100A7000C08A08B9002008900020174908709DF826
:100A8000200000F01F00D0B9144890F8200000F0BA
:100A9000800040B1114890F8200020F080000F49FC
:100AA00081F820000BE04FF6FF700C498881C88266
:100AB000084690F8200000F0E00081F82000064889
:100AC0000078F02802DD0A2003490870284602B0A9
:100AD000BDEC068B38BD000004000020080000209B
:100AE000DC6A01087B14AE47E17AD43FD8817346B3
:100AF00094F6D23F000000000000894010B50520A8
:100B000013F082F910BD000010B500200F490860F5
:100B10000F48006820F440000D490860084600684E
:100B200040F480000860FFF7E9FF00200949C1F8A0
:100B3000AC02FFF7E3FF012004490860FFF7DEFF86
:100B400000200549C1F8800210BD000080824042AB
:100B50000014024000804242008040421CB5012146
:100B6000222006F0C9FE012000908DF80400032029
:100B70008DF8050000208DF8060001208DF8070093
:100B80006946084800F096FF4FF4006000906946FF
:100B9000054800F08FFF0120044908600449C1F8AE
:100BA000AC021CBD0004024000140240808240429E
:100BB0000080424210B500200F4908600F480068CD
:100BC00020F440000D4908600846006840F48000A9
:100BD0000860FFF793FF01200949C1F8AC02FFF755
:100BE0008DFF012004490860FFF788FF00200549B8
:100BF000C1F8800210BD0000808240420014024013
:100C0000008042420080404270B5054600241448EE
:100C1000006820F440001249086008460068086037
:100C2000002612E000200F4908601E2013F0ECF8A7
:100C300001200D49C1F880026006040E0B480068CF
:100C400008B1601CC4B2701CC6B2082EEADB15B92C
:100C5000FFF7B0FF01E0FFF757FF204670BD00002F
:100C60000014024080824042008040422C82424276
:100C700070B504461348006820F44000114908602C
:100C80000846006840F48000086000200E490860B3
:100C9000FFF734FF002511E0E0090C490860600609
:100CA000040E01200A49C1F88002FFF727FF002047
:100CB00005490860FFF722FF681CC5B2082DEBDB71
:100CC00070BD00000014024080824042AC8242426B
:100CD0000080404210B50F48006820F440000D49E4
:100CE00008600846006840F48000086001200A4956
:100CF00008600A49C1F88002142013F085F800202A
:100D000005490860FFF7FAFE00200449C1F8800297
:100D100010BD000000140240AC82424200804042FC
:100D200010B50D48006820F440000B4908600846E3
:100D3000006840F480000860012008490860142021
:100D400013F062F800200649C1F8AC02FFF7D6FEA6
:100D500001200449086010BD001402408082404216
:100D600000804242AC82424210B500241148006823
:100D700020F440000F490860084600680860012020
:100D80000D4908600D49C1F880020AE0601CC4B238
:100D9000FA2C03DDFFF7C4FF012010BD012013F082
:100DA00033F80548803800680028EFD1044908600E
:100DB00000BFF2E700140240AC8242420080404291
:100DC0008082404270B500254FF4803400E0641EFC
:100DD00024B1802006F020FF0028F8D014B90325A4
:100DE000284670BD40F2FF5006F0C8FE2846F8E7DE
:100DF000014600BF0848006800F045000028F9D00F
:100E000040F2FF50044A121D106003482038006869
:100E100008221040C0B27047342C014070B5002544
:100E20001048046801E00F48046804F045000028F9
:100E3000F9D004F0040028B10325042006F09EFE3A
:100E4000284670BD04F0010028B10125012006F0FC
:100E500095FE2846F5E740F2FF5006F08FFE284643
:100E6000EFE70000342C014070B500250B48046802
:100E700001E00A48046804F045000028F9D004F0B5
:100E8000040028B10325042006F078FE284670BD32
:100E900040F2FF5006F072FE2846F8E7342C01407D
:100EA0002DE9F04106460F464FF00008224805683C
:100EB00001E02148056805F045000028F9D005F05B
:100EC000040038B14FF00308042006F057FE4046F6
:100ED000BDE8F08105F0010030B14FF001080120BC
:100EE00006F04CFE4046F3E706F090FEB04203D019
:100EF0004FF010084046EBE740F2FF5006F03EFE90
:100F0000002006F09DFE044604F4604018B9200C51
:100F100038804046DCE704F4005008B11320D7E7DE
:100F200004F4804008B11020D2E704F4004008B176
:100F30000F20CDE74046CBE7342C014070B50026AA
:100F40004FF480350F48046802E06D1E0D480468B8
:100F500004F0450008B9002DF7D115B104F00400E4
:100F600028B10326042006F009FE304670BD04F0C7
:100F7000400028B10026402006F000FE3046F5E78C
:100F80003046F3E7342C014021B1026842F00102FF
:100F9000026003E0026822F0010202607047000074
:100FA000016821F001010160002101604160816060
:100FB000C1600161212141614A49884204D13D213A
:100FC000484A103A91608CE046491831884205D170
:100FD0004FF47461434A103A916082E041493031E4
:100FE000884205D14FF474113E4A103A916078E07E
:100FF0003C494831884205D14FF07461394A103A72
:1010000091606EE037496031884204D13649354AF3
:10101000103AD16065E033497831884204D13349D0
:10102000304A103AD1605CE02E499031884204D1B8
:101030002F492C4A103AD16053E02A49A8318842FE
:1010400005D14FF03D51274A103AD16049E0294976
:10105000884204D13D21274A083A116041E02549E0
:101060001831884205D14FF47461224A083A116060
:1010700037E020493031884205D14FF474111D4AC0
:10108000083A11602DE01B494831884205D14FF0E4
:101090007461184A083A116023E0164960318842A9
:1010A00004D11149134A121F11601AE01149783115
:1010B000884204D10D490F4A121F116011E00D49F9
:1010C0009031884204D10A490A4A121F116008E08F
:1010D0000849A831884204D14FF03D51054A121FFA
:1010E00011607047106002403D000020400F00205A
:1010F00000003D201064024021B1026842F020024D
:10110000026003E0026822F020020260704701469C
:1011100000200A6802F001020AB1012000E000206C
:101120007047000010B500220268134B1A40CC68CB
:101130000B6823434C6923438C692343CC692343C5
:101140000C6A23434C6A23438C6A23434C6B23432E
:101150008C6B23431A430260426922F00702D1E9F3
:101160000B3423431A4342610B6943604B6883602D
:101170008B68C36010BD00003F801CF070472DE9F4
:10118000F04306460F469046002445460320A0EB58
:1011900048093CE07A1B91B2321990B203F054FF37
:1011A0003A1B91B2721990B203F04EFF3A1991B204
:1011B000721990B203F048FF7A1991B2321990B2C5
:1011C00003F042FF7A1991B2321B90B203F03CFF58
:1011D0003A1991B2721B90B203F036FF7A1B91B2AA
:1011E000321B90B203F030FF3A1B91B2721B90B2E7
:1011F00003F02AFF641CB9F1000F03DAA000801D80
:10120000814404E0601B80000A3081446D1EAC42C2
:10121000C0DDBDE8F083000051B18200A2F1C04200
:10122000126842F001038200A2F1C042136009E09B
:101230008200A2F1C0421268034B1A408300A3F15E
:10124000C0431A6070470000FEFF0F00D0E9011292
:101250001143C26811430269114342691143826913
:101260001143C2691143026A1143426A1143826AFF
:101270001143C26A1143026B114302689200A2F14A
:10128000C0421160816808290BD101688900A1F171
:10129000C041096841F0400201688900A1F1C041E4
:1012A0000A60416B0968426B526841EA0211426B65
:1012B000926841EA0221426B928941EA0241426B03
:1012C000128A41EA0251426B127D41EA0261426B8D
:1012D000926911430268521C9200A2F1C04211604F
:1012E000C16AB1F5804F1BD1816B0968826B52686E
:1012F00041EA0211826B926841EA0221826B128AF2
:1013000041EA0251826B127D41EA0261826B92696D
:10131000114302689200A2F1C042C2F8041107E032
:101320006FF0704201688900A1F1C041C1F8042149
:10133000704700002DE9FC4107460D4600260024B9
:1013400000200090019008205D490860102048604E
:10135000402088600020C8604FF480600861084623
:1013600006F0ACFC1020FFF743FD044614B1204604
:10137000BDE8FC81534800880004514908603720CB
:101380004860402088600020C8604FF48060086199
:10139000084606F093FC3720FFF72AFD04460CB1FF
:1013A0002046E5E74FF0FF304749086008204860D5
:1013B000302088600220C860002008610120486158
:1013C000084606F0FDFB00203D49086033204860D8
:1013D000402088600020C8604FF4806008610846A3
:1013E00006F06CFC3320FFF703FD04460CB12046E9
:1013F000BEE70CE04FF4001006F00EFC38B106F02A
:1014000057FC4DF82600761C012E00D906E02F4827
:10141000006840F22A6108400028EBD000BF082095
:1014200006F0FAFB28B1082006F0A8FB04242046A9
:101430009EE7022006F0F0FB28B1022006F09EFB9A
:101440000224204694E7202006F0E6FB28B1202065
:1014500006F094FB062420468AE74FF4007006F05D
:10146000DBFB30B14FF4007006F088FB0724204608
:101470007EE740F2FF5006F081FB009800060099DD
:1014800001F47F4140EA0120009901F47F0140EA24
:101490001120009940EA11606860019800060199E6
:1014A00001F47F4140EA0120019901F47F0140EA03
:1014B0001120019940EA11602860204658E7000099
:1014C000502900205000002064290020342C0140C5
:1014D0001CB50024019401AC009400F0E7F81CBD99
:1014E0002DE9FF4F83B0814606988A46A0EB0A0893
:1014F000109E00200090A2EB09043568934654EA40
:10150000080018D02046FFF7F1F907464046FFF7DC
:10151000EDF987420BDA2046444680464846D146DC
:1015200082465846DDF818B0069001200090002C45
:1015300007DD204606E007B04846BDE8F04F00F062
:101540003BB96042A0420AD04846D9466442C8F13D
:10155000000883464FF0FF37DDF818A000E00127B0
:101560005148B8F1000F11D004EBD4714FEA610B70
:1015700001DACBF1000B4C480068807E88B3002F65
:1015800002DA30682044306000257BE000990029B1
:10159000016821D0897E11B10027804615E007B08F
:1015A0005A4649465046BDE8F04F03F05FBD284615
:1015B0006D1C11F0D5FA38B9D8F8000009EB070115
:1015C000C06E4268504690477F1CA742EFDD6D1EFB
:1015D000356007B0BDE8F08F8A7E1AB100278046DB
:1015E00017E019E0C86E5A465146036807B04846EE
:1015F000BDE8F04F184728466D1C11F0B1FA38B914
:10160000D8F8001009EB0700C96E4A6851469047A8
:101610007F1CA742EFDDDAE700250FE008FB05B0ED
:1016200090FBF4F101EB0A00009951B11E4A09EB5D
:1016300005011268D26E526890476D1CA542EDDD1F
:10164000C7E7194909EB05030968C96E4A680146ED
:101650001846F1E708FB05B090FBF4F101EB0A0036
:10166000019030683844306011F07AFA48B9009837
:1016700090B10D4809EB05010068C06E4268019801
:1016800090476D1CA542E5DD3068002F01DA20444B
:101690003060C01B30609CE7034909EB0500096816
:1016A000C96E4A680199EBE7840200202DE9FF47E3
:1016B0000F4640491646804609680C981D460A7E2A
:1016C000012A1CD0A8EB0600791B50EA01031CD0AC
:1016D000A2F1010912F062FA00F58060824603F07F
:1016E000E6F800FB09F4504603F0E6F800FB09F1C8
:1016F000002C0CDAC4F50070801240420AE0009021
:10170000324639464046FFF7EBFEBDE8FF8704F559
:101710000074A012002904DAC1F5007189124C424C
:1017200002E001F500718C12002804DD411C01EB80
:10173000D171491003E000EBD0714910401E00EB5D
:10174000D0704210002C04DD601C00EBD070401003
:1017500003E004EBD4704010641E04EBD47308EB78
:101760000104ADF800403C18ADF80240A8EB0204BB
:101770005B10B21AADF80440ADF808203144FC1AF1
:10178000EA1AADF80C102844ADF80A20ADF80E00A6
:101790000023ADF806401A460421684600F07AF8A6
:1017A000394640460FF0AAFE294630460FF0A6FE05
:1017B000ABE7000084020020064A13681A7E012A63
:1017C00005D0521E02EBD272521000F005B8DA6E4C
:1017D00052681047840200202DE9F05F06468846D3
:1017E00040F2C32050434FF47A7190FBF1F702FBB3
:1017F00002F002EBD27100EB610B254914467F1C0D
:1018000009683244301BC96E0B6841469847012570
:101810003AE000BF05FB05F004FB040159451CDD5F
:10182000BC4219DD1A4B06EB050AA6EB05091B683D
:10183000AAF1010208EB0401DB6E09F101001B684B
:101840009847134BAAF10102A8EB04011B6809F1A8
:101850000100DB6E1B689847641E0D4806EB040A06
:10186000A6EB0409006808EB05015246C06E036848
:10187000484698470648A8EB050152460068C06EE6
:101880000368484698476D1CBD42C3DDBDE8F09F24
:10189000840200202DE9FF4F40F6FF740F46664298
:1018A00083B09B46814600210BE000BF09EB81001D
:1018B000B0F90200A04200DA0446B04200DD06465C
:1018C000491CB942F2DB68480068406900280DD025
:1018D000B0F906101A46A1EB0B01B14200DA0E4630
:1018E000B0F90200801AA04200DD0446B5E0DFF83E
:1018F0007CA100200546CAF8000089E0781E8542D8
:1019000001DA6B1C00E0002309EB850C09EB830274
:10191000BCF90200B2F90210A04245D1A14215D192
:1019200039F92330059A39F9251003EB020C4E4A98
:1019300005981268084404EB0B01D26E60451368E9
:1019400001DA62462BE00246604628E02846A446BB
:101950004FF000087A1E0BE008B1401E00E0781E30
:1019600009EB8003B3F90230634504D108F10108A3
:101970009045F1DB2346A34249D0A3EB040239F999
:101980002500A1EB040C059B92EA0C0209D4364A0F
:10199000184404EB0B011268D26E13680246984794
:1019A00035E00EF0A7F832E0A14230D001DBA042D2
:1019B00003DDA0422BDBA14229DCE04688420ADCA1
:1019C0000346A04223DC0846A14220DBB8F900C050
:1019D000B2F9001008E00B46A14218DCA04216DB69
:1019E000B2F900C0B8F90010E21AA1EB0C015143A2
:1019F0000029A0EB030202DD01EB620102E0A1EB92
:101A00006201491CC01A91FBF0F06044C9E76D1CEB
:101A1000BD42FFF673AF0598009004EB0B000190F8
:101A200000208046054613E01149B8F1000F31F956
:101A300015A009D0009901EB0A0208440A49096877
:101A4000C96E0B680199984788F0010850466D1CD3
:101A5000064909688D42E7DB641CB4427FF747AF53
:101A600007B0BDE8F08F000084020020EC020020E7
:101A70009C7A012010B5002001F07EFC6FF07F40C1
:101A800001F085FC012001F0EDFC002001F0F8FCE4
:101A9000002001F005FD002001F08AFC04480068E8
:101AA00001F092FCBDE81040002001F0ADBC000048
:101AB00080020020F0B50A4600210023002400BF68
:101AC0003DE0012505FA01F3156805EA03049C428F
:101AD00034D105684F000326BE40B5430560157933
:101AE0004E00B5400668354305601579012D02D0DA
:101AF0001579022D16D185684F000326BE40B543E7
:101B0000856055794E00B5408668354385604568E7
:101B100001268E40B5434560456896798E40B6B241
:101B200035434560C5684F000326BE40B543C560D8
:101B3000D5794E00B540C6683543C560491C1029AB
:101B4000BFD3F0BDF0B5002300244D07ED0E02FA1F
:101B500005F3CE1000F1200555F826504E07F70E7C
:101B60000F26BE40B543CF1000F1200646F827509F
:101B7000CE1000F1200555F8265045EA0304CE109A
:101B800000F1200545F82640F0BD018370470000B4
:101B90002DE9F04FDFF828B191B04FF0FF35DBF8B9
:101BA0000030B3F922100691DE69B3F92490F4698C
:101BB000A189814206D8E289824203D3471AD4F828
:101BC000008012E0D4E9018100296FD00A888242A6
:101BD0006CD84D88854269D3801A82B2486800EB80
:101BE0008200B0F90070B0F90250781C5ED0307EEF
:101BF000A17C10FB01FA217CCDE90801B3F92A6030
:101C0000304604F011F8C0B20E90DBF8000007FB7C
:101C10000A81A37C826B0127CDE90412CDE902730E
:101C2000C069DDE90832C17E807ECDE90001494608
:101C3000069803F04DF8681C18D046F0020003F037
:101C4000F3FFDBF80000A37C05FB0A81826BCDE982
:101C50000273CDE90412C069DDE90832C17E807EDD
:101C6000CDE900014946069803F032F8DBF80000A0
:101C70005D46C069417E007E814214D9022E12D099
:101C800086F0040003F0D0FF2868C069027EC37E9E
:101C900012FB0391437E857E099A06984B4402FB12
:101CA000050203F09BFA0E9803F0BEFFDBF800007C
:101CB000627C418C1144418411B0BDE8F08F00007A
:101CC0008402002004480068C069C06909B1027C30
:101CD0000A60407C704700008402002002200880D7
:101CE0007047C06982898A4202D8C2898A4210D26A
:101CF000806880B102888A420DD843888B420AD31B
:101D0000406800EB8100A0EB8200B0F900000028E1
:101D100001DB012070470020704700002DE9F043EF
:101D20002F4C034687B020681946B0F92A80C06955
:101D3000C06900F084F800284ED041680088181A65
:101D400001EBC0054046AE7803F06EFF8146206887
:101D50006A680123816BCDE90236CDE90421C169AE
:101D6000CB7E8A7ECDE900230B7EB0F924102A7841
:101D7000B0F9220002F0ACFF2068C069477E067E01
:101D8000B7421DD9C07E47434643B8F1020F17D072
:101D900000F015FD804600F0DBFC01F0F8FA216848
:101DA0002A78CB69B1F92200DB7E12FB0302B1F97C
:101DB0002410CB19314403F011FA404601F0E7FA40
:101DC000484603F031FF20686A78C369B0F92210F1
:101DD0009B7E12FB0311418407B0BDE8F083000035
:101DE0008402002030B50F4C05460B46206829467A
:101DF000C069C06900F023F8002811D0416800884C
:101E000024682A1A0120E46900EBC200085CA47E61
:101E100010FB04F0002B03D011F83210614319605D
:101E200030BD00008402002001200880704700B50A
:101E3000C06900F004F8002800D0012000BD06E0D1
:101E400002888A4202D842888A4202D280680028E8
:101E5000F6D1704770B500240E4D16E028690E4982
:101E600000EBC410001D78220968FEF7B2FB286958
:101E7000002100EBC410016000F10C018161011D23
:101E80000A1DC0E90F12641C4164A8688442E5DBA6
:101E900070BD0000F80200208402002070B50D49DA
:101EA0000B480860084602F0B7FC0A4C143CA068D6
:101EB000C501284600F068F82A460021206102F09A
:101EC000B3FC4FF0FF302060BDE8704001F0D2BE9F
:101ED000892601080C03002010B5040009D000F089
:101EE00029FD20460DF05EFE044601F07BFE2046F3
:101EF00010BD002010BD38B5054600F01BFD28467A
:101F0000FFF7EAFF040009D000F0BAF82A460021E2
:101F1000009002F089FC684600F0F0F801F062FEE3
:101F2000204638BD024A106021F00300506070471F
:101F3000087A012010B5040016D000F0FBFC0B4815
:101F4000006B10F8341059B1022909D2042101EBB9
:101F5000C401415848680DF0E9FD204610F09CFC92
:101F6000BDE8104001F03EBE10BD00004C790120DC
:101F7000002805D0034A916B016001B1486090636D
:101F8000704700004C7901202DE9F041044610F023
:101F900063FA2648E41C24F00305C16B2D1DA942F9
:101FA00000D90D46846B13E054F8042CAA420ED1DC
:101FB00084B1216809B162684A60616809B1226828
:101FC0000A60826BA2422ED1216881632BE02468D3
:101FD000002CE9D18046416B80680F1857F8040C3B
:101FE0003E1A306838B1002010F0BEFC57F8040CDF
:101FF0003E1A3068B8B97068A84214DB3044441BFC
:10200000304610F069FCD8F80810491BC8F80810D1
:10201000D8F810102944C8F8101070683146401BD9
:102020000DF084FD20C42046BDE8F0814C790120EC
:1020300010B5002410F010FA0C490F2001EBC0027B
:10204000126C1AB101EBC000006C08E0401EF5D51F
:1020500008E04168A14200D90C46806810B1806850
:102060000028F6D1A4F10C0010BD00004C7901202D
:1020700002484169491C4161704700004C790120C8
:1020800005498A69521C8A61096B01EBC0010A7813
:10209000521C0A7000F04AB84C79012010B500F0CB
:1020A00049FCFFF7C5FF64220849B0F5800F04D949
:1020B00090FBF2F4C869444303E0C9694143B1FBB2
:1020C000F2F401F08FFD204610BD00004C79012094
:1020D0000549102805D94A68B0EB520F02D35008C1
:1020E00000E0102088607047087A012002484169AA
:1020F000491E4161704700004C7901200A4902687D
:102100000B6B52F8082C03EBC2021378022B03D39B
:102110008B690BB15B1E8B611178491E1170002118
:1021200001600846704700004C790120002806D065
:102130000349042202EBC000096B085808307047BD
:102140004C79012070B514460D46064600F0F2FBAE
:10215000204600F041FB0300174804EB840109D03E
:1021600050F8210041688068711A2A1A184601F057
:102170003BF91CE000EB8104A268B24201D00122CD
:1021800000E00022E368AB4201D0012300E000231D
:102190001A430CD0236943B150F82100816840688C
:1021A0006A1A311A184601F0A7F8C4E90265BDE8B9
:1021B000704001F017BD0000787B012010B5C2B25D
:1021C000CBB2D21A02D5C2F1000212B293B2C0F35E
:1021D0000722C1F3072403FB03F3121B01D552426C
:1021E00012B2000C92B2A0EB114002FB023200B21C
:1021F000002801DA404200B280B200FB002010BD8E
:1022000010B50021084600F04DFB40F6FF72504229
:10221000BDE8104013460146AFF300802DE9FC41B4
:102220001C4615460E46074600F084FB042003F0CA
:10223000FBFC80461248C068C16C006D0F44064428
:102240000D440444ADF80070ADF80450ADF80260E0
:10225000ADF8064068460DF013F807E023462A461D
:102260003146384602F0BAFF0CF0CCFF0028F5D119
:10227000404603F0D9FC01F0B5FCBDE8FC8100004C
:10228000780200202DE9F0411C4616460D4607460F
:10229000022B02DB0020BDE8F0811C20FFF774FE5A
:1022A0000028F8D00DB105610AE0094A52F824105F
:1022B00009B905E011460A68002AFBD109690161E4
:1022C00084618682002101604160C0E90217E2E773
:1022D0009C02002070B51D46FFF7D4FF040001D01A
:1022E00000F00EF8E068006820B90348006800EBD1
:1022F00085008465204670BD84020020FFF738BE4B
:1023000070B590B38269022A30DA1C4C54F822105E
:1023100019B944F822002FE019464B68002BFBD175
:1023200006E0CB68C5681B682D68AB4203DD096811
:102330000029F6D11AE0C1B1CB68C6681B683668BF
:10234000B3420CD1838A012B05D008E01946DB6823
:102350001B68AB4203DB0B68002BF7D129B14B683C
:1023600033B118604A68426004E0FFE7012070BDA5
:1023700044F8220048600160002070BD9C020020EB
:1023800010B503E00468FFF7BBFF20460028F9D131
:1023900010BD10F0E7BF00002DE9F0410026DFF886
:1023A00034800D4F354600BF58F8254009E0E068FD
:1023B0000068385C20B1204610F0D4FF2660264625
:1023C0002468002CF3D16D1C022DEDDB3046BDE8F6
:1023D000F08100009C020020606C0108022801DBF3
:1023E00000207047054951F8200004E0C1680968E1
:1023F0000029F6D000680028F8D170479C02002020
:102400002DE9F041044601F027FC06191EE000BF4B
:1024100000F02AF9052F00DD052700F08BFA11489E
:102420000568FFF725FE2C0017D000BF01F0DAFB8E
:10243000641EFBD1384601F0F5FB1DB100F07AFABD
:102440006D1EFBD1FFF752FE01F0CCFB01F004FC46
:10245000371A002FDCDCBDE8F081384601F0E2FBE2
:10246000F0E70000040300202DE9FC4706005FD0E0
:1024700000F060FA00F0BAF93C4C81462068B0F9EF
:10248000228000F0E1F9216807468A8CD01B8884FD
:1024900041E000BF47F6FF71304602F07DF882460A
:1024A0000146304602F04EF82168054691F82C00AE
:1024B00000F00300012841D002283BD000204A8CC4
:1024C000101A4884ADF800006A1E1044ADF80400EC
:1024D000888CADF80200A9F101010844ADF80600AE
:1024E0006A465146304601F06DFD2168BDF8020094
:1024F00088845146304601F051FA064430780A2863
:102500001ED00D281CD0BDF8000021682844488446
:10251000307818B1761C30780028BBD12068818CC7
:1025200039448184818D21F00301818501F05AFBBA
:10253000BDE8FC8705EBD5704010C0E72846BEE734
:10254000206890F82C1001F0030101290BD002291A
:1025500009D0018C418431780A29D9D1828C02EBCF
:1025600009018184D4E7A0F82280F4E784020020E6
:1025700070B514460D46064600F0DCF905480068C3
:10258000458484843046FFF76FFFBDE8704001F05A
:1025900029BB0000840200202DE9F04107460A48CB
:1025A00015460E460068B0F92C0040F0020000F01D
:1025B00067FF04462A4631463846FFF7D9FF2046D2
:1025C000BDE8F04100F05CBF8402002047F6FF73D5
:1025D000AFF300802DE9FC411F4690460D460600F2
:1025E0004FF000041AD000F0A5F965B128460CF0B0
:1025F0003BFD040007D002462946684602F02BF84E
:1026000068460CF031FD3B4642462946304601F013
:1026100031FD20460CF028FD01F0E4FABDE8FC8114
:102620002DE9F0411C4615460E46074600F082F99A
:102630000C480168C86C096D074405440E440C44FD
:1026400000200CF01DFE07E023462A46314638469E
:10265000FEF73EFF0CF0D6FD0028F5D1BDE8F041B5
:1026600001F0C0BA8402002010B5002400E001246B
:1026700000F004F80028FAD1204610BD064810B535
:102680000068002410B1804700B101240CF06CF800
:1026900000B10124204610BDA402002008B50B465D
:1026A000002805D0009281888268C08800F001F877
:1026B00008BD10B50828029C30D008DC04FB01F4EA
:1026C00001280AD0022813D0042804D11CE01028C5
:1026D00028D020282CD0002010BD04EBD30003F01C
:1026E0000701105CC1F10701C84000F0010010BDF6
:1026F00004EB93000621105C01EA4301C1F10601DD
:10270000C84000F0030010BD04EB5300D907105C73
:1027100002D000F00F0010BD000910BD04FB013015
:10272000105C10BD481004FB003032F8100010BDE2
:10273000881004FB003052F8200010BD034951F806
:102740002000C1688A6A0821104700009C0200200E
:1027500010B500F0EFF802F071FD02F009FE04463A
:1027600001F040FA204610BD10B5044600F0E2F832
:10277000054800210068C069426820469047044629
:1027800001F030FA204610BD8402002070B50C46DE
:10279000054600F0CFF8064821460068C069426847
:1027A00028469047044601F01DFA204670BD0000FF
:1027B00084020020002801D00CF01AB8704710B530
:1027C00000F0B8F802F042FD02F0D2FD044601F03C
:1027D00009FA204610BD00000021022802D2024959
:1027E00051F8201008467047F002002010B500F0A4
:1027F000A1F804480068C069447E01F0F3F920465E
:1028000010BD00008402002070B514460D46064637
:1028100000F090F822462946304602F04BFD10B1F8
:10282000002028602060BDE8704001F0DBB970B581
:102830000C46054600F07EF82146284601F0C8FE09
:10284000BDE8704001F0CEB910B5002400F072F878
:102850000B48006890F82C1001F00C01042904D0FA
:10286000082906D00C2907D103E0C069047E641E44
:1028700002E0C069007E440801F0B4F9204610BDB2
:1028800084020020024951F8200000690068704766
:102890009C020020024951F82000006940687047FE
:1028A0009C02002070B50D46044600F043F8204617
:1028B0000FF006FD044628460FF00AFD044301F020
:1028C00091F9204670BD0000144810B5016821F050
:1028D0000101016012480121816012490160006814
:1028E0001149884200D0FEE701F052FB0F492E202B
:1028F000087001F0B5F90E480FF060FDFFF7CEFA51
:1029000011F02EFB04460021084600F08BFD0CF070
:1029100079F9FFF79FFA204610BD0000002000E083
:1029200000300240C2A507F4CDB5E8B5780200201A
:10293000147A012070B51F4CE06820B101F084F9D1
:102940006168884204D001F0A5F901F07DF960606A
:10295000E068401CE060012825D100250AE000BFA6
:1029600001F072F9216901EBC5110968814205D0B6
:10297000D1B16D1CA0688542F2DB0025206885423C
:1029800011D000280EDBFFF707FD2268216901EB5B
:10299000C212D067084A01EBC510011D1160C06F5B
:1029A000FFF7EEFC256070BD216901EBC5110860E1
:1029B000E4E70000F8020020840200201CB50400B7
:1029C00004D10E480068046E002C16D0FFF7B2FF49
:1029D0002046FFF755FB009044696846FFF78EFBE1
:1029E0004CB12046FFF74CFB01908168896888470D
:1029F00001A8FFF783FB01F0F5F81CBD840200205D
:102A000001490A4600F002B801F0FFFF2DE9F0434A
:102A100087B015460C465FEA000846D0FFF78AFFEC
:102A2000002000F0C5FC814621480068066E404643
:102A3000FFF726FB00900068806900F085FC0746E0
:102A400040F6FF70001904D10098B0F90440B0F9C5
:102A500006500098611E0289ADF804401144ADF89B
:102A600008104189681E0844ADF80650ADF80A0008
:102A70000BF0D4FC6846FFF741FB01A80CF000FC0A
:102A800006E02A462146404600F02EFB0CF0BAFB39
:102A90000028F6D1384600F057FC304600F070F9B7
:102AA000484600F085FC01F09DF807B0BDE8F083D2
:102AB0008402002038B50024009400F001F838BDED
:102AC0002DE9FE4F984691468A46834600270C9E84
:102AD000FFF730FF174818490068407C51F8204044
:102AE000E1680968042903D02468002CF8D100E0CB
:102AF00014B9FFF773FC04460121E068C26A20465E
:102B00009047050011D02469A0688047401C02D17D
:102B10000A4C46F001060096CDE9015443464A4668
:102B20005146584600F0C6F9074601F05BF83846B2
:102B3000BDE8FE8F840200209C020020D0B801086E
:102B400038B504001CD0FFF7F5FE0E480068006E93
:102B5000A04201D100F0EAFB2046FFF791FA009075
:102B6000406908B101F027F800980068FFF7C6FB3C
:102B70006846FFF7C3FA2046FFF7DCF901F032F8A8
:102B800038BD0000840200202DE9FF4F83B0454C82
:102B9000DDF840B098468A4607002BD002A901A86C
:102BA000FFF745FEB7F90060002E00DA0026B7F9FE
:102BB0000250002D00DA00252068A146407C02F07A
:102BC0008FFB01990144491EB7F904000FF0E1FCA5
:102BD0000446D9F80000407C02F088FB02990144C9
:102BE000491EB7F906000FF0D4FCA71B7F1C441B3D
:102BF000641C0BE0206800263546407C02F070FB28
:102C000007462068407C02F071FB0446B8F1000FD3
:102C100001D1C4F10008002F01DD002C03DC0020ED
:102C200007B0BDE8F08F43463A4629463046CDF816
:102C300000B0FFF745FF5FEA000909D000F060F837
:102C40008046484600F09CF80027DFF85CB01FE0A3
:102C50005146059888470120E2E7E11B414502DA29
:102C6000484600F071F83FB1EA193146484600F095
:102C7000B5F84846FFF7A2FE514605988847DBF8AD
:102C8000001009B1002088474846FFF7B9FE4744C5
:102C9000A742E2DB4846FFF753FF002000F070F840
:102CA000BDE7000084020020AC03002038B5050019
:102CB0004FF0000411D0FFF73DFE2846FFF7E0F982
:102CC0000090006800698068804703F045FB044677
:102CD0006846FFF713FA00F085FF204638BD38B587
:102CE0000446FFF727FE2046FFF7CAF900F1180453
:102CF00000906846FFF702FA00F074FF204638BDE6
:102D000038B504460025FFF715FE1CB908480068D1
:102D1000046E44B12046FFF7B3F90090B0F90A50B1
:102D20006846FFF7EBF900F05DFF284638BD00006C
:102D30008402002010B50DF071F8002803D0BDE822
:102D4000104000F07DB810BD38B50C46050004D128
:102D50000A480068056E002D0FD0FFF7EBFD2846EE
:102D6000FFF78EF90090B0F90A10A14200DD44810E
:102D70006846FFF7C3F900F035FF38BD8402002034
:102D8000F8B50546FFF7D6FD134E3068046E65B101
:102D90000CB100F0CBFA0BF037FC2846FFF770F9C6
:102DA000009031680A6E1AB106E000F0BFFA0EE03A
:102DB000D1E90223C1E919230D660068FFF7A0FAE3
:102DC0006846FFF79BF903F09FF802F087FE00F0DA
:102DD00009FF2046F8BD0000840200207CB515469E
:102DE0000E46040004D115480068046E002C24D05F
:102DF000FFF7A0FD2046FFF743F92DB20090C580F4
:102E000034B2848002F06AFE0098406980B1FFF716
:102E100037F9009A0190B2F908108180B2F90A20BE
:102E2000C28011B10AB10480458001A8FFF766F99C
:102E30006846FFF763F900F0D5FE7CBD84020020F0
:102E400001490A4600F002B801F0FFFF7FB51546C0
:102E50000C4606002DD0FFF76DFD3046FFF710F948
:102E600040F6FF710190091903D1B0F90440B0F99F
:102E700006500289611E1144ADF80840ADF80C10EF
:102E80004189681E0844ADF80E00ADF80A5001A84B
:102E9000FFF734F902A80CF0F3F906E02A462146C0
:102EA000304600F009F90CF0ADF90028F6D100F039
:102EB00099FE7FBD2DE9FF4FDFF8E0B083B01C46DF
:102EC000DBF80010DDE91060924600274B7C3A46A3
:102ED0001299FFF7D7F905005DD02869806880470F
:102EE00003F03AFA81460AFB09F0C01D4FEAD00808
:102EF000FFF7D4F8F10705D1C11700EB91708010EE
:102F000000EB4000002C06DC1838B0FBF8F06442FF
:102F1000A04200DC0446F00707D10090DDE9030180
:102F20002346524600F0BAFD0746002C03DC284633
:102F3000FFF7E4F92FE004FB08F01830F10702D0A6
:102F4000FEF7CAFF01E0FEF7D6FF06001CD0FFF730
:102F500097F801900560039981800499C180A0F8D9
:102F600008A04481C0F80C80C0E9049701A8FFF7CD
:102F7000C5F81298AE602861DBF80000407CA861BB
:102F8000304607B0BDE8F08F2846FFF7B7F917B114
:102F90003846FEF7CFFF0020F3E700008402002050
:102FA0002DE9F74F92B090461298FFF769F80B9011
:102FB000B0F908100691B0F90A100D910068006987
:102FC000D0F804B00BA8FFF799F8384C384D2068BA
:102FD000407C55F82000C1688A6A082190478146E4
:102FE000182801D34FF020092068407C55F82000B4
:102FF0000069079003C80C902E48814201D001203F
:1030000000E000201090002000F056FE002849D17A
:103010000026DDE91207B2460FAB069C4546761C3A
:103020000193FFF75CFE014604FB0AF001EB80020E
:10303000234629463846CDF800B001F0BDF805001A
:1030400030D01098D0B1DDE906134A46284600F08A
:10305000E5FE98B9DDE906702C46D0F810C0BCF149
:10306000000F05D0294604233A460846E04705E00C
:103070000C992068884701C47F1EF9D10020CDE952
:103080000305059001200090CDE901094146034662
:1030900008F10108069A139801F01AFE0D98401ED7
:1030A0000D90B6D115B0BDE8F08F0000840200206D
:1030B0009C0200208F530008F8B515460E460746BF
:1030C000FEF7DEFF009000681621C068426A00200B
:1030D000904704466846FFF711F8002C03D02A46B3
:1030E00031463846A047F8BDF8B515460E460746A6
:1030F000FEF7C6FF009044696846FEF7FFFF3846BA
:10310000FFF7D4FD0346082800DD2CB12A463146DE
:10311000384610F047F9F8BD2A463146384610F0D7
:10312000D9FAF8BD10B5002821D009B30AB3B1F916
:103130000040B2F900309C4200DA23460380B1F926
:103140000240B2F902309C4200DA23464380B1F9D2
:103150000440B2F904309C4200DD23468380B1F97B
:103160000610B2F90620914200DC1146C18010BD64
:1031700011460A6802604968416010BD00280BD002
:1031800003880B440380838819448180418811445B
:103190004180C1881144C1807047000070B5104D56
:1031A0000446D5E9000188420ED10E49884203D178
:1031B000D0E90F12406C03E00C38D0E900128068AF
:1031C0002160C4E9012006E090E80E0084E80E00CA
:1031D0000FF094F82860207A002800D0012070BDFC
:1031E000E8030020A07B01200448D0E900108142C0
:1031F00001D101207047002070470000E803002043
:10320000054A10B5034911600FF0CAFFBDE8104030
:1032100000F056B999E80008A802002070B5002512
:10322000FFF788FB094CD4E9002082420AD0D2E99A
:10323000005610460FF06CF82060314628460BF01F
:10324000E1FD012500F0CEFC284670BD940300206E
:103250002DE9FC41154DDDE908742D68B5F90860CC
:10326000864200DD3046B5F90C60964200DA3246FF
:10327000824219DBB5F90A608E4200DD3146B5F9AC
:103280000E509D4200DA2B468B420DDB00E02C46AF
:10329000E5682D6825B1042D02D02568002DF6D1F2
:1032A000CDE9007402F09CF9BDE8FC8184020020A5
:1032B000B0F90220B1F906309A4213DCB1F90220CC
:1032C000B0F906309A420DDCB0F90020B1F90430B3
:1032D0009A4207DCB1F90010B0F90400814201DC28
:1032E000012070470020704701460248782200689C
:1032F000FDF76FB98402002070B515460E46040034
:103300000AD0FFF717FB2A46314620460FF08AFD08
:10331000BDE8704000F066BC70BD00000249782234
:103320000968FDF756B900008402002010B5FFF7C8
:1033300001FB02F087FB02F0E7FD0BF06FF8BDE840
:10334000104000F04FBC000070B5094D04462868DD
:10335000467CFFF7EFFA022C03D228684474FFF78B
:10336000E5FF0448046000F03DFC304670BD0000FD
:10337000840200203803002010B50446FFF7DAFA73
:10338000204602F081FBBDE8104000F02BBC10B5D8
:103390000446FFF7CFFA204602F0AEFBBDE810402E
:1033A00000F020BC014988607047000078020020CE
:1033B00010B50446FFF7BEFA204602F035FC04467D
:1033C00000F010FC204610BD70B50446FFF7B2FABD
:1033D00004480068C56904B1C46100F003FC2846D4
:1033E00070BD00008402002070B514460D460646EC
:1033F000FFF7A0FA22462946304602F031FC044687
:1034000000F0F0FB204670BD70B50546FFF792FA5C
:1034100003480068847E857600F0E4FB204670BD9A
:103420008402002070B50C460546FFF783FA094870
:10343000224605800848048008480068417C084806
:1034400050F82100C1680B6A29469847BDE87040D2
:1034500000F0C8BBB4020020B602002084020020A5
:103460009C02002070B50546FFF764FA0348006827
:10347000047E057600F0B6FB204670BD8402002075
:1034800070B50446FFF756FA04480068B0F92C50AE
:10349000848500F0A7FB284670BD00008402002050
:1034A00070B50446FFF746FA04480068B0F92A50A0
:1034B000448500F097FB284670BD00008402002080
:1034C00002480068002800D000477047A003002091
:1034D00002498A6802B98860FFF7F2BF94030020AE
:1034E00010B504000ED0FFF725FA20460FF00EFAB3
:1034F00020460FF00FFF2046FEF71CFDBDE81040F0
:1035000000F070BB10BD38B50C46050011D0FFF7B8
:1035100011FA2846FEF7B4FD00908089204201D0C0
:10352000012400E000246846FEF7E8FD00F05AFBA5
:1035300000E00124204638BD38B50546002028604B
:103540000648046844B12046FEF79AFD00900069E1
:1035500028606846FEF7D2FD204638BD10040020E2
:1035600038B504004FF000000D46086011D0204629
:10357000FEF786FD0090846844B16846FEF7BEFD04
:103580002046FEF77DFD0090006928606846FEF742
:10359000B5FD204638BD00002DE9F84FDFF89C80CE
:1035A0000546274F98F818008B46410738680A9E51
:1035B0009946407C924607D401F0A4FE0446386840
:1035C000407C01F0ABFE06E001F0A8FE044638683E
:1035D000407C01F097FE002795B1A0F1010400BFE7
:1035E000B9EB060000D54042142806DB5146BBEB80
:1035F0000A0000D54042142804DA0120BDE8F88F03
:10360000641EEDE70A464B465946384600960EF0D2
:10361000B5FF0C4F4B46524647F8350059462046F9
:1036200000960EF0ABFF07EBC50148600FF0D4FA2F
:1036300001210020C8F81C10E0E70000B8020020BB
:10364000840200208C7A01202DE9F047524D534E20
:103650000024E86978B96868346000F00501746096
:1036600010F0060F01D000F00500B460F4600FF018
:10367000B3FA0120E8612878C8B100F0D9F8A8466B
:10368000286100F0D3F82969286A81420BDBD8F859
:1036900024204046914206DC836A42699A4202DB5A
:1036A000C36A9A420DDD4FF0FF3001466FE000F033
:1036B0000FF9686100F0BBF82878401C2870BDE85D
:1036C000F087326898F81800354F8D1A40070028A7
:1036D0003868407C02DB01F015FE01E001F01EFEBF
:1036E000401E4543D6E90020B146801A95FBF0F60E
:1036F000D8F81420D9F8081098F81800551A40077F
:1037000000283868407C02DB01F008FE01E001F08F
:10371000F9FD401E4543D9E90201081A95FBF0F571
:1037200098F81800400700283868407C18DB01F042
:10373000E9FD81463868407C01F0F0FDD8F818209A
:103740000146D00704D0A9EB0600A0F1010000E07B
:103750003046920702D5491B491E18E0294616E05B
:1037600001F0DCFD81463868407C01F0CBFDD8F8E3
:103770001820D10704D0A9EB0601A1F1010100E056
:103780003146920702D5401B401E00E028460FF04C
:1037900033FD88F8004092E7B80200208C7A0120BF
:1037A000840200200149886170470000B8020020AF
:1037B000074A002806DB002904DB01231372C2E953
:1037C000000101E000201072014800F003B8000081
:1037D000247B012010B504460C220749FCF746FE65
:1037E000002808D0044894E80E000EC02046BDE82A
:1037F0001040FFF705BD10BDE87B012030B40A4C36
:103800002268831A01D5C3F1000362688A1A00D5C1
:1038100052421A44022A04DDC4E9000130BCFFF719
:10382000C7BF30BC704700001403002070477047CA
:1038300010B52DED048B82B02048808845F21051E0
:10384000884236D101221E49002003F0E7FF1C48C0
:10385000007800F01F0030B3042201A9900103F0AA
:10386000DDFF9DF807109DF8062001EB022011F006
:1038700082F941EC190B9FED130B53EC102B11F057
:10388000E1F941EC180B11F049F91049888108461B
:103890008489B4F5F07F02DB40F2DF1404E0002CF1
:1038A00002DA002400E00024204602B0BDEC048BC4
:1038B00010BDD0200AF08AF9F7E70000282900207F
:1038C000BC000020D881734694F6D23F0800002047
:1038D00010B52DED048B82B02048808845F2105140
:1038E000884237D101221E49002003F097FF1C486F
:1038F000007800F01F0030B3042201A9900103F00A
:103900008DFF9DF805109DF8042001EB022011F0B9
:1039100032F941EC190B9FED130B53EC102B11F006
:1039200091F941EC180B11F0F9F81049C8820846DA
:10393000C48AB4F5487F02DB40F21F3405E0002C56
:1039400003DA002401E040F21F34204602B0BDEC4F
:10395000048B10BD90200AF039F9F7E728290020E0
:10396000BD0000207B14AE47E17AD43F0800002060
:103970002DE9F041084E0446056830680168284684
:1039800088470746306841682846884728442060B1
:103990003846BDE8F0810000880200202DE9F041A2
:1039A0000C4606460025064F05E03868416830465B
:1039B000884706440544641EF7D22846BDE8F081D6
:1039C000880200202DE9F0411E46069C17468846D5
:1039D00005463A46A8687F1C3346D0F804C04146E5
:1039E0002846E047641EF4D1BDE8F08170B5B0F917
:1039F0000040091BB0F904408C422CDD00F1140496
:103A0000B0F902500069521B02FB0040CA1800EBDB
:103A1000E104521ED010B0EBE10501F007034FF0B6
:103A2000FF0102F0070221FA03F0C2F1070201FAD6
:103A300002F1CEB221780FD001436D1E04F8011BB4
:103A4000002D05DDFF2229462046FCF7F4FD2C441D
:103A500020783043207070BD30400143217070BD2C
:103A600010B5B0F90030B0F90240C91A00F11403E2
:103A70000069121B02FB003000EBE10001F00703BC
:103A800002788021D9400A43027010BDB0F90610B7
:103A9000026951431430FCF7D6BD00002DE9F8430C
:103AA000804602F10F000011470003FB07F01C469F
:103AB000154689461430FEF71EFA060018D0FEF7A8
:103AC00039FF3046FEF7DCFA0090A0F80080A0F83D
:103AD00002908580C480074981600121818107614E
:103AE0006846FEF70BFB00F07DF83046BDE8F88332
:103AF0000020FBE7F4B9010870B5B0F90660B0F931
:103B000004400B6800F11405964220DD0069A342D1
:103B100002FB005000EBE30219DAA4F101044FEAC2
:103B2000E400A0EBE30512F8010B03F0070400FA30
:103B300004F0C4B208E055B112F8014B03F10803D8
:103B4000A5F1010523F00703002CF4D008E00020C4
:103B500070BD00BF4FEA44604FEA106403F10103F7
:103B60002006F7D5FF2C0AD0184605E04FEA44643A
:103B70004FEA146400F101006606F7D400E0D81D96
:103B8000C443640706D007E012F8014BFF2C0FD1A5
:103B900000F108006D1EF7D5A0EB030000F1010055
:103BA0000B6070BD4FEA44624FEA126400F10100FD
:103BB0002206F7D4F0E738B50546FEF7BBFE2846E7
:103BC000FEF75EFA00908189491E0CB28481684636
:103BD000FEF794FA14B92846FEF7ACF900F002F8A3
:103BE00038BD00000348C168491EC16001D100F022
:103BF0005BB87047F802002010B54FF48031002008
:103C000010F0F6FD04464FF480312046FEF78AF9A5
:103C10008020FEF75DFA0248FFF7C4FB10BD0000EC
:103C2000C8A0010870B504464FF47A7060434FF4A1
:103C30007A71B0FBF1F5284603F014F970BD10B5A8
:103C40000120FFF7EFFF10BD0248006890F8320036
:103C500070470000EC00002010B503F06FF910BDB4
:103C600010B5002002F0E2FC0149086010BD000020
:103C7000A800002010B5012002F0D8FC034908601C
:103C8000002002F05DFC0249086010BDA000002089
:103C9000A400002008B56A4600210248006802F02E
:103CA000EBFC08BDA000002010B50248006802F03F
:103CB00059FD10BDA00000200EB508B102AA00E019
:103CC0000022002301A9684600F0F4FB0EBD0000AD
:103CD000074910B5CC6818B10120C860801E03E008
:103CE0000020C8606FF07F4000F0E0FE204610BD6D
:103CF000F003002010B5082A0EDC0346012A1AD072
:103D0000022A58D0042A78D010F8042B03F8012B8B
:103D1000491EF9D1012010BD102A0ADC0222022A14
:103D2000F8D1024630F8043B22F8023B491EF9D193
:103D3000F0E7002010BD10F8042BD207120E491E28
:103D400034D010F8044B491E04F0010442EA8412F6
:103D50002CD010F8044B491E04F0010442EA44122E
:103D600024D010F8044B491E04F0010442EA041266
:103D70001CD010F8044B491E04F0010442EAC402AE
:103D800014D010F8044B491E04F0010442EA8402E6
:103D90000CD010F8044B491E04F0010442EA44021E
:103DA00004D010F8044B04F00104224303F8012B63
:103DB0000029C0D1AEE710F8042B9207120E491E5D
:103DC00015D010F8044B491E04F0030442EA041213
:103DD0000DD010F8044B491E04F0030442EA84029B
:103DE00005D010F8044B04F003042243491E03F8E5
:103DF000012B0029DFD18DE7FFE710F8042B120714
:103E0000120E491E05D010F8044B04F00F04224393
:103E1000491E03F8012B0029EFD17BE72DE9F04182
:103E20001E680D460446082A09DC0746012A21D0EF
:103E3000022A62D0042A7CD0082A1AD195E0102ADE
:103E400003DC02200228F8D102E00020BDE8F08166
:103E5000D3F810C02746BCF1000F04D00A46214613
:103E6000022308468AE001CCB04727F8020B6D1EFA
:103E7000F9D18BE001CCB047C0074FEA10686D1E46
:103E800036D001CCB04748EA801000F0FF086D1E24
:103E90002ED001CCB04748EA401000F0FF086D1E5C
:103EA00026D001CCB04748EA001000F0FF086D1E94
:103EB0001ED001CCB04748EAC00000F0FF086D1EDC
:103EC00016D001CCB04748EA800000F0FF086D1E14
:103ED0000ED001CCB04748EA400000F0FF086D1E4C
:103EE00006D001CCB04740EA080000F0FF086D1E84
:103EF00007F8018B002DBDD148E001CCB047800709
:103F00004FEA10686D1E18D001CCB04748EA001087
:103F100000F0FF086D1E10D001CCB04748EA8000C9
:103F200000F0FF086D1E08D001CCB04740EA080041
:103F300000E007E000F0FF086D1E07F8018B002D80
:103F4000DBD123E001CCB04700074FEA10686D1EBB
:103F500006D001CCB04740EA080000F0FF086D1E13
:103F600007F8018B002DEDD110E0D3F810C0BCF1A3
:103F7000000F05D00A46014601233846E04705E018
:103F800001CCB04707F8010B6D1EF9D101205DE7A8
:103F90000A4810B5816900290ED101218161FFF71E
:103FA0002BFE01F0EFFF054905481C310860BDE814
:103FB0001040084600F030BC10BD00007802002020
:103FC0005D2601087CB5064628480D46006868B1A4
:103FD00000200BF055F906E06A46294630460CF001
:103FE000ABF80BF00FF90028F6D17CBD10680090FB
:103FF0001F4C506801902268BDF8000032F84C1F39
:104000000844ADF80000BDF8020091880844ADF8FE
:104010000200BDF8040011880844ADF80400BDF8A2
:10402000060091880844ADF8060068460BF028F9B0
:104030000EE000BF2068BDF800106A464184BDF85C
:1040400002108184294630460CF076F80BF0DAF83D
:104050000028EFD1206830F8221F428D891A018094
:104060004188C28D891A41807CBD0000B0020020C9
:10407000840200202DE9FF4F85B09A4690460D46F8
:10408000FEF7B4FB4FF00009DDF814B006464C46CD
:1040900025B1286800906868019002E06846FEF744
:1040A00089FB18F00C0F02D05546002713E0BDF92C
:1040B00002402DE07F1C2946059800F06DFA01466C
:1040C0006D1A0598FFF76AFC05990844059005A844
:1040D00000F098FA08B9002DECD108F00C00042883
:1040E00004D0082802D00C2812D105E0BDF9060042
:1040F00007FB1604641C0BE0BDF90600BDF90210B5
:10410000401A07FB1600401C00EBD07001EB600466
:104110005546CDF814B043E02946059800F03CFA26
:1041200007460146ED1B059800F00CFA18F0030154
:104130000ED0012939D002290DD1BDF90410BDF9E5
:104140000020891A091A01EBD17102EB610101E02B
:10415000BDF900108946174A401E48441268394686
:10416000A2F822909484ADF80C00A019401EADF87E
:104170000890ADF80E00ADF80A4002AA0598FFF7C6
:1041800021FF39460598FFF709FC05990844059079
:10419000FEF72CFB044405A800F034FA002801D1F6
:1041A000002DB9D109B0BDE8F08FBDF90410091A8E
:1041B000491CCFE7840200202DE9FF4F00208BB07F
:1041C00004460146009019981D461646016007AB4B
:1041D000002203A902A800F06DF918B100200FB069
:1041E000BDE8F08F0798854200DD05465C4F0A95D3
:1041F0005C493868407C51F82010049109690691A7
:10420000FEF79CFA05903868407CFEF743FB564960
:104210008146884204D05549894501D0012000E0FB
:104220000020099001CE1899884782465FEA106BFA
:1042300071D0009870BB0B9800EB040848480068E8
:10424000B0F90800404503DDA0EB0807804600E018
:1042500000270299049801EB840101EB8701CDE965
:104260000010DDE90A010A180C9B0892521E19463B
:104270004046FEF7EDFF01200090059818280ADA65
:104280000298DDE9052300EB840000EB8700E91BC1
:1042900000F070F810E0099870B1029800EB84000B
:1042A00000EB87070898A0EB08084946386888475C
:1042B00001C7B8F10108F8D12D48C06960B3DDE944
:1042C000020700EB840007EB8402CDE90202284CD0
:1042D000361F2B46E46930460299A047FF2031681B
:1042E000B0EB116F02D10299096804E0029A1268DA
:1042F000B0EB126F01D1039A11600299361D091DAE
:1043000002910399091D03916D1EE8D119990120AD
:10431000039708601DE01EE0FFE7BBF1FF0F0ED022
:104320000298CBF1FF0250F82410504600F01AFA20
:10433000039941F8240019990120086005E00298CA
:10434000039950F8240041F82400641C6D1E7FF48A
:1043500069AF039843E7039941F824A0EBE7000015
:10436000840200209C0200208F5300088D53000817
:10437000C00300202DE9F05F0C1E16DD5E680146CB
:1043800000EB8405082A12DC611E012A28D0022ACB
:1043900048D0042A6AD0082A07D1071917F8010D56
:1043A000B04745F8040D641EF8D1BDE8F09F102A0F
:1043B000FBDC0222022AF8D15F693FB12246BC46EB
:1043C000BDE8F04F02235DF804EB604701EB4407C2
:1043D00037F8020DB04745F8040D641EF8D1E4E744
:1043E00000EBE1002D1F10F801A9814601F007073D
:1043F000802020FA07F800BF0AEA0800C7F1070189
:10440000C840B04745F804093FB17F1E4FEA4860F5
:10441000000E8046641EEFD1C7E7072719F801A9EF
:104420000120F6E700EBA1002D1F01F0030710F8B3
:1044300001A981467900C02020FA01F84FF0060B4F
:104440000AEA0800ABEB4701C840B04745F8040949
:104450003FB17F1E4FEA8860000E8046641EEFD198
:10446000A3E7032719F801A93846F6E700EB610036
:1044700001272D1FA74310F801A98146B900F0209C
:1044800020FA01F84FF0040B0AEA0800ABEB8701B1
:10449000C840B04745F804093FB17F1E4FEA087095
:1044A000000E8046641EEFD17FE7012719F801A9AD
:1044B0000F20F6E72DE9F047204C06461F46A0697D
:1044C00090468946002540B90120A06104F12001F1
:1044D0001B480860084600F09FF9606910B900F0B9
:1044E00002FF606107B138604EB1A06830B9606901
:1044F0008000FDF749FDA06000B901253060B9F1E9
:10450000000F0AD0E06830B960698000FDF73CFD1B
:10451000E06000B90125C9F80000B8F1000F0AD029
:10452000206930B960698000FDF72EFD206100B977
:104530000125C8F800002846BDE8F087C003002028
:10454000E526010873B5124A01A900981268904740
:1045500000240090C8B10F4900250968C96949695C
:1045600059B10A684AB1019990477CBD6846FFF786
:10457000FFF90546FEF7F8F804440198401E019043
:10458000F4D5284600F032F8044420467CBD0000F3
:10459000E80200208402002073B50D460098002434
:1045A00090B10A490968C969496959B14A684AB16B
:1045B000294690477CBD6846FFF7DAF920B10A2802
:1045C00002D0641CAC42F6DB20467CBD8402002095
:1045D000044AB2F9002002600348B0F90000086004
:1045E00070470000B4020020B602002038B5002455
:1045F00069460094FEF7CAF80099814200DD0C1A62
:10460000204638BD016811F8012B12B10A2A02D0E8
:1046100002E001207047016000207047B0F90030CF
:10462000B1F90020934200DA0280B0F90230B1F90A
:104630000220934200DA4280B0F90430B1F904203C
:10464000934200DD8280B0F90620B1F906108A425B
:1046500000DDC180704770B5B1F90040B2F900309B
:104660009C4200DD23460380B1F90250B2F90240BA
:10467000A54200DD2C464480B1F90460B2F9045033
:10468000AE4200DA35468580B1F90610B2F906204F
:10469000914200DB1146C1809D4201DBA14201DA5B
:1046A000002070BD012070BD014602480068407CBA
:1046B00000F002B884020020F8B501260F46054636
:1046C00002284BDA264C5FB3012F02D0022F45D1CE
:1046D00016E054F8250088B92846FDF77FFE0090C3
:1046E000B8B3C0680D21426A68469047020035D0D1
:1046F00039460098904754F825000026401C2BE0CE
:10470000FDF76CFE009020B3C0680D21426A684638
:104710009047020022D039460098904700261DE0BD
:1047200054F8250001280FD12846FDF757FE0090C8
:1047300050B1C0680D21426A68469047020003D01C
:10474000394600989047002654F8250010B1012101
:1047500001E003E00021401A44F825003046F8BD8E
:104760008C03002070B5FF23B3EB116F2CD0C3B2C4
:1047700013FB02F500F47F4400F47F0354435343DA
:10478000000E10FB02F6C2F1FF00CAB212FB00528B
:1047900001F47F4505FB004401F47F0505FB003370
:1047A000090E11FB0065C2F307204FF47F024FF49E
:1047B0007F4102EA132201EA14214FF07F430843AC
:1047C00003EA05431043184370BD2DE9F04F154629
:1047D000DDE90CB90C4606464FF0000818E00B9FC7
:1047E0004FF0FF0A01CE08CCAAEB106202FB09F2DF
:1047F000B2FBFAF1CAB21946FFF7B4FF20F07F40CE
:1048000001C57F1EEED1099808F1010804EB800470
:10481000D845E4D3BDE8F08F02494A694260486157
:10482000704700007802002010B502E000F8011B7C
:10483000521E0AB18307F9D1930818D001EB014445
:1048400002F0030204EB042405E004604460846089
:10485000C46010301B1F042BF7DA01E010C05B1E90
:10486000002BFBD103E000BF00F8011B521E002A01
:10487000FAD110BD10B5830702D520F8021B521ED5
:10488000530810D001EB0144042B08DB04604460A2
:104890008460C46010301B1F042BF7DA01E010C0E5
:1048A0005B1E002BFBD1D20700D0018010BD00F5AC
:1048B000806000F001B8000010B50022C0F30B00CA
:1048C000B0F5006F02DDA0F500600122B0F5806F49
:1048D00001DDC0F5006083110B4C00F03F00C0F11A
:1048E000400134F813004843402906D004EB430349
:1048F000C1F140015B8803FB010020308009002AE0
:1049000000D0404210BD0000686C010800BFFEE707
:104910007CB5044600250020019000905F48008887
:1049200000045F4908600D20486040208860002036
:10493000C8604FF480600861084603F0BFF9594829
:104940000068009002E0574800680090009800F06E
:1049500045000028F7D0009800F0040028B1032596
:10496000042003F00BF928467CBD009800F00100FC
:1049700028B10125012003F001F92846F4E703F0EE
:1049800045F9009000980D2802D010252846EBE745
:1049900040F2FF5003F0F2F8002003F051F90190CB
:1049A0000198C0F3432020703F490198084008B99E
:1049B0002846D9E7019800F0004008B11C20D3E751
:1049C000019800F0804008B10920CDE7019800F07F
:1049D000005008B10A20C7E7019800F0805008B1E4
:1049E0000B20C1E7019800F0006008B10C20BBE784
:1049F000019800F0806008B10D20B5E7019800F043
:104A0000807008B10E20AFE7019800F4000008B1F3
:104A10000F20A9E7019800F4800008B11020A3E757
:104A2000019800F4001008B111209DE7019800F4EE
:104A3000801008B1122097E7019800F4002008B117
:104A4000132091E7019800F4802008B114208BE72F
:104A5000019800F4003008B1152085E7019800F4B2
:104A6000803008B116207FE7019800F4004008B1BB
:104A7000172079E7019800F4804008B1182073E707
:104A8000019800F4005008B119206DE7019800F07A
:104A9000080008B11A2067E7284665E750000020A3
:104AA00050290020342C014008E0FFFD02490A682B
:104AB00008601046704700002404002030B501460D
:104AC00001F01F04C1F34513CA0AE50205EB4315C3
:104AD0001544A8B230BD000070B504460026174842
:104AE0000588408845431548808846F60401884279
:104AF00016D112488079012812D100200F498871FF
:104B00002A2048812B2088810021084601F006F8E0
:104B100001200A4988712B2048812A20888103E0DE
:104B20000021084600F0FAFF01F018FA002602E022
:104B300003480480761CAE42FAD370BD28290020B9
:104B4000000008600449054A0968497C52F82110B0
:104B50000969096808470000840200209C020020BF
:104B600010B50446002C52D158498871F0200880B5
:104B70004FF4A07048800846808849F2413188424D
:104B80000BD05248808846F60401884205D04F4831
:104B9000808845F2103188421AD12C204B49088177
:104BA0002A2048812B2088810846808846F6040107
:104BB000884205D04548808845F21031884206D1A8
:104BC0004FF4A070414908804FF4F070488079E0BC
:104BD0003E48808845F21051884210D14FF4305041
:104BE0003A4908814FF4285048814FF42C5088816D
:104BF0004FF4F07008804FF44870488062E0222043
:104C00003249088120204881212088815AE00120F2
:104C10002E4988714FF4A0700880F0204880084623
:104C2000808849F24131884205D02848808845F281
:104C30001031884207D12C20244908812A2048813C
:104C40002B2088812BE02148808846F60401884289
:104C500007D12C201D4908812B2048812A208881DA
:104C60001DE01A48808845F21051884210D14FF457
:104C70003050164908814FF4285048814FF42C5089
:104C800088814FF4487008804FF4F070488006E047
:104C900022200E49088121204881202088810B484C
:104CA000808846F60401884205D00848808845F28D
:104CB0001031884206D14FF4F070044908804FF457
:104CC000A0704880002000F063FD10BD282900205E
:104CD0002DE9F04F05468DB07C48DDF860901A9CB8
:104CE00000681E4617464FF0000A78B11B9B199AC0
:104CF000CDF808900593CDE90324DDE91623CDE92D
:104D00000023046833463A46284682E0DDE916026D
:104D100001EB060805EB070C1043A8F10108ACF104
:104D2000010C012806D0C9F108000590002002916D
:104D30000890C8E066480268B2F90A30581A00289C
:104D400006DD361A002E65DD1946199B00FB03446B
:104D5000B2F90E00A8EB0000002802DD361A002E82
:104D600058DDB2F90C00ACEB0000002800DD3F1A62
:104D7000B2F908300020AB4237DD581B3F1A4B46D2
:104D8000B9F1080F28D007DC012B0DD0022B13D06E
:104D9000B9F1040F29D117E0102B1FD0182B20D008
:104DA000B9F1200F21D11CE020F0070304EBE0044F
:104DB0001D4400F0070018E020F0030304EBA004FA
:104DC0001D4400F0030010E020F0010304EB600438
:104DD0001D4400F0010008E0044404E004EB40043A
:104DE00001E004EB800405440020002F12DD1B9B32
:104DF000DDF864C0CDE90403CDE902C4CDE9006962
:104E0000527C34483B4650F82200C26854680A4637
:104E10002946A0470DB0BDE8F08F179902980844C5
:104E200009902B49401E00900A68B2F90A3083426B
:104E300041DCB2F90E10029881423CDB4FF0000BCE
:104E4000D84603950B9434E0BBF1000F05D10B98C5
:104E50004FF0080B10F801AB0B900599ABEB090B69
:104E60003AFA01F00AFA09F101F0FF0A04D11849EF
:104E70000968097C890716D415490968C96B0A684D
:104E80000C921B9A0AB152F82000086016990398F8
:104E9000009B4218521E029900F0A0F90C490C9890
:104EA0000968C96B08600399169808F1010808445D
:104EB0000390B845C8DB0898401C089009980290F8
:104EC000199804440898B042A7DBA3E7B002002079
:104ED000840200209C020020F0B40C4612490968AC
:104EE000B1F90A30A3421CDCB1F90E30A34218DB41
:104EF000B1F90830834200DD1846B1F90C30934215
:104F000000DA1A4682420CDB4B7C084951F82350E8
:104F100013462246E9688E6801462846B446F0BC2E
:104F20006047F0BC70470000840200209C02002013
:104F30002DE9FF4F84B081468A46002003900290FD
:104F40000698A0EB09050798A0EB0A06CDF8049097
:104F5000CDF800A0002D01DD012705E00DB90027E7
:104F600002E04FF0FF376D42002E02DD4FF00108E6
:104F700006E016B94FF0000802E04FF0FF38764225
:104F8000B54201DD2C4600E034464FF0000B21E035
:104F9000009A91B2019A90B200F056F80398284412
:104FA00003900298304402900398A04205DD0398D4
:104FB000001B03900198384401900298A04205DD3F
:104FC0000298001B02900098404400900BF10100F1
:104FD0001FFA80FB601C8345DADD08B0BDE8F08F66
:104FE0000A46174930B40968B1F90A30934225DC02
:104FF000B1F90E30934221DBB1F9083083421DDC58
:10500000B1F90C30834219DB0B7C0E4CDB0709D065
:10501000497C54F82130D968CC690146A44630BC9B
:1050200018466047CB6B497C1B6854F82140E16807
:105030008D6901462046AC4630BC604730BC7047A5
:10504000840200209C02002030B504460D4629460B
:10505000204600F063FD00F081FF0248008802490D
:10506000088030BD0000002000000860124B30B402
:105070001B68B3F9084084421CDCB3F90C4084423D
:1050800018DBB3F90A408C4200DD2146B3F90E402B
:10509000944200DA22468A420CDB5C7C074B53F8D0
:1050A0002440E368DD6813460A4601462046AC46C4
:1050B00030BC604730BC7047840200209C02002056
:1050C00070B504460D4616464248808849F2413183
:1050D000884205D03F48808845F21031884214D17B
:1050E0003C49488900F02EFF201200F01FFFE0B27B
:1050F00000F01CFF3749888900F024FF281200F0D7
:1051000015FFE8B200F012FF5DE03248808845F2FA
:105110001051884220D12F49488900F013FF2012F6
:1051200000F004FF2B494989491C88B200F00AFFAE
:10513000E0B200F0FBFE2749888900F003FF281247
:1051400000F0F4FE23498989491C88B200F0FAFE78
:10515000E8B200F0EBFE36E01E48808846F6040117
:1051600088421DD11B488079012804D11948008844
:10517000401E001B84B21749488900F0E3FE20124C
:1051800000F0D4FEE0B200F0D1FE1249888900F0B0
:10519000D9FE281200F0CAFEE8B200F0C7FE12E005
:1051A0000C488079012804D10A480088401E001B61
:1051B00084B208494889214600F0DAFE0549888909
:1051C000294600F0D5FE0348008903490880881C61
:1051D000068070BD28290020FEFF076038B5134CFB
:1051E0002468B4F90850854200DD2846B4F90C5013
:1051F000954200DA2A46824217DBB4F90A508D4202
:1052000000DD2946B4F90E509D4200DA2B468B4250
:105210000BDB0093647C064B53F82440E3681D6964
:1052200013460A4601462046A84738BD840200209E
:105230009C02002008210CF085BF00000248006895
:10524000806B0068704700008402002002480068FC
:10525000C06B0068704700008402002002480921EA
:105260000068407C0CF06EBF8402002009210CF025
:1052700069BF70B500252C462046FDF7AFF800B198
:105280006D1C641C022CF7DB284670BD02480068C8
:10529000407C00F003B800008402002010B5FDF748
:1052A0009DF8002805D0C168CA6ABDE810400221F7
:1052B000104710BDF8B515460E460124FDF78EF8CF
:1052C000009058B1C0680421426A684690470300C4
:1052D00004D02A4631460098984700242046F8BD5D
:1052E00003210CF02FBF03200CF074BF04210CF03D
:1052F00029BF0000024801210068407C0CF022BF59
:105300008402002001210CF01DBF00000248022190
:105310000068407C0CF016BF8402002002210CF0D3
:1053200011BF00F001B800002DE9F041002809D0BC
:10533000876837B10D4E716819B10468B4F5807F84
:1053400002DD0020BDE8F0813068844200DD0446C3
:10535000002507E057F82500FFF7F4FB716841F8D6
:1053600025006D1CA542F5DB7068EBE720030020EB
:105370000449054A0968497C52F8211009694968BD
:1053800008470000840200209C02002070477047FC
:1053900010B500F01F01074A074BC0F34514C0F3D6
:1053A000C4201B5D105C515C00EB032000EB01404E
:1053B00010BD000060B8010880B8010810B50A4CA3
:1053C000606860B920688000FCF7DEFD606040B175
:1053D00004F10801054808600846FFF71DFA00209F
:1053E00010BD012010BD0000200300209D260108F3
:1053F0002DE9F041FFF73DFF0746002528E028464C
:10540000FCF7ECFF18B32846FDF79EFF80462846C0
:10541000FFF710FF082817DC0F48104950F8250047
:105420000069884210D02846FFF720FF0646002476
:1054300008E0E0B2FFF79CFF0246E1B2284600F028
:10544000F9FB641CB442F4DB4046FDF77DFF6D1CA4
:10545000BD42D4DBBDE8F0819C02002014BA0108F3
:1054600010B50246012000E050430B1EA1F10104DB
:10547000E1B2F9D110BD000008B5034800880090E2
:10548000BDF8000008BD0000000008602DE9F041F3
:1054900005460E4600240027A0464F480088A84233
:1054A00003DD4D484088B04202DC0020BDE8F081B9
:1054B0003146284600F032FB4748808849F24131A6
:1054C00088420BD04448808846F60401884205D0C3
:1054D0004148808845F21031884203D12E2000F0E7
:1054E00031FD0DE03C48808845F21051884204D1DE
:1054F0004FF4385000F026FD02E0222000F022FD9B
:105500003548808849F22031884202D102200FF0CC
:105510008DF93248008800B1002402200FF086F98E
:105520002E4804882C48808849F2413188420BD0AB
:105530002948808845F21031884205D02648808865
:1055400045F2105188420AD102200FF06FF923482A
:10555000B0F80080E7B24FF6FF7000EA07271E4858
:10556000808849F22531884216D01B48808844F251
:105570003551884210D018488088091F88420BD0C6
:10558000154880884BF20551884205D01248808822
:105590004CF20551884201D1204687E70E488088A9
:1055A00049F2413188420BD00B48808845F21031D6
:1055B000884205D00848808845F21051884207D1BA
:1055C000E012C002B91240EA411040EAE8206DE75B
:1055D0002046FFF773FA69E72829002000000860D9
:1055E0002DE9FF4F83B01646DDE910408B46C068B9
:1055F0004769426A7AB1012111A8904705000AD093
:105600000698CDE9000433465A4603991198A847F5
:1056100007B0BDE8F08F57480068407CFDF78EF872
:105620008246082801DC012005E0BAF1100F01DCF8
:10563000022000E004208046002596E04046B8F1B4
:10564000010F05D0022871D0B8F1040F25D17CE0FC
:10565000BAF1090F21D2DFE80AF08605213F3F5950
:1056600059595900039815E001465A461198B84710
:10567000C5F1070188404FF67F722178EA4011405A
:1056800001436D1C217004EBE50425F00700054182
:1056900009F101008146B042E6DD64E0039817E0BD
:1056A00001465A461198B8470621A1EB45018840AA
:1056B0006B004FF63F722178DA40114001436D1CB8
:1056C000217004EBA50425F00300054109F1010058
:1056D0008146B042E4DD46E0039813E001465A46B5
:1056E0001198B8470421A1EB850188402178AB00CF
:1056F0000F229A401140014321702C4485F001058E
:1057000009F101008146B042E8DD2CE0DDF80C90A3
:1057100007E001465A461198B847207009F101097F
:1057200044444846B145F4DD1DE0FFE7DDF80C9048
:1057300007E001465A461198B847208009F101094F
:1057400044444846B145F4DD0DE0DDF80C9007E037
:1057500001465A461198B847206009F101094444AE
:105760004846B145F4DD0BF1010B06998B457FF7F7
:1057700065AF4DE78402002001B5BDF8000000F0E0
:10578000E1FB05200EF040FBFFF776FE08BD0000B0
:10579000F0B5054600240027A948807901281ED1CC
:1057A000A748808846F60401884218D0082D15D2F3
:1057B000DFE805F00406080A0C0E101206250DE0BD
:1057C00007250BE0042509E0052507E0012505E094
:1057D000002503E0032501E0022500BF00BF984833
:1057E000808849F24131884211D09548808846F638
:1057F000040188420BD09248808845F210318842DB
:1058000005D08F48808845F2105188427ED1082DFE
:105810001CD2DFE805F00406090C0F12151800BFB2
:1058200014E044F0800411E044F040040EE044F041
:10583000C0040BE044F0200408E044F0600405E0FC
:1058400044F0A00402E044F0E00400BF00BF7C4844
:10585000808845F21051884202D14FF4585700E039
:1058600036277748808845F21031884207D074483F
:10587000808845F21051884201D044F008047048F5
:10588000808846F60401884201D144F00204214692
:10589000384600F06DFB04F0200018B968488079A4
:1058A00001280DD16648008865494988884214DA84
:1058B00063480688408862490880084646800CE0B4
:1058C0005F4800885E494988884206DD5C48068852
:1058D00040885B490880084646805948808845F2E0
:1058E0001051884254D15649488900F02BFB0020C2
:1058F00000F01CFB52494989491C88B200F022FB88
:10590000002000F013FB4E49498900E06FE0891C3C
:1059100088B200F017FB4A490988491EC1F30F20DD
:1059200000F004FB46494989C91C88B200F00AFB13
:1059300043490978491EC8B200F0F8FA40498889FD
:1059400000F000FB002000F0F1FA3D498989491C74
:1059500088B200F0F7FA002000F0E8FA38498989A7
:10596000891C88B200F0EEFA35494988491EC1F316
:105970000F2000F0DBFA32498989C91C88B200F097
:10598000E1FA2F498978491EC8B200F0CFFA55E0F4
:105990002B49488900F0D6FA002000F0C7FA002011
:1059A00000F0C4FA26490988491EC1F30F2000F00F
:1059B000BDFA23490978491EC8B200F0B7FA204958
:1059C000888900F0BFFA002000F0B0FA002000F053
:1059D000ADFA1B494988491EC1F30F2000F0A6FA11
:1059E00017498978491EC8B200F0A0FA26E0082DB0
:1059F0001CD2DFE805F004070A0D0F12151844F059
:105A0000300413E044F0100410E044F020040DE0F2
:105A100000BF0BE044F0380408E044F0280405E03F
:105A200044F0180402E044F0080400BF00BF03275C
:105A300044F480542146384600F09AFAF0BD000044
:105A40002829002010B50E4C0E492068407C51F8E2
:105A5000200050B1C1680968042903D000680028FB
:105A6000F8D102E008B1FCF794FC2068002101663F
:105A700000F108014161BDE8104000F02FB80000BE
:105A8000840200209C0200200149096849680847F7
:105A90001C030020044909680A7C520701D5C96B20
:105AA00000E0896B08607047840200207CB5094CD7
:105AB00005462068417C084850F82100C1680A6BFF
:105AC0006946904720686A4629460830FEF7C3FDBC
:105AD0007CBD0000840200209C0200200448016874
