:020000040800F2
:100000004886012089020008B161000843470008C2
:10001000AD610008ED08000803DF000800000000E3
:10002000000000000000000000000000999300089C
:10003000751100080000000019030008B1940008C1
:10004000A3020008A3020008A3020008A3020008FC
:10005000A3020008A3020008A3020008A3020008EC
:10006000A3020008A3020008A3020008A3020008DC
:10007000A3020008A3020008A3020008A3020008CC
:10008000A3020008A3020008A3020008A3020008BC
:10009000A3020008A3020008A3020008A3020008AC
:1000A000A3020008A3020008A3020008A30200089C
:1000B000A3020008FDCB000815CC0008A30200082D
:1000C000A3020008A3020008A3020008A30200087C
:1000D000A3020008CDDC0008A3020008A302000868
:1000E000A3020008A3020008A3020008A30200085C
:1000F000A3020008A3020008A3020008A30200084C
:10010000A30200083D7A0008A3020008A302000829
:10011000A3020008A3020008A3020008A30200082B
:10012000A3020008A3020008A3020008A30200081B
:10013000A3020008A3020008A3020008A30200080B
:10014000A3020008A3020008A3020008A3020008FB
:10015000A3020008A3020008A3020008A3020008EB
:10016000A3020008A3020008A3020008A3020008DB
:10017000A3020008A3020008A3020008A3020008CB
:10018000A3020008A302000800F002F800F061F8E2
:100190000AA090E8000C82448344AAF10107DA45E2
:1001A00001D100F056F8AFF2090EBAE80F0013F0D3
:1001B000010F18BFFB1A43F001031847DCD40100FC
:1001C000FCD401000A444FF0000C10F8013B13F07E
:1001D000070408BF10F8014B1D1108BF10F8015BA0
:1001E000641E05D010F8016B641E01F8016BF9D193
:1001F00013F0080F1EBF10F8014BAD1C0C1B09D1EA
:100200006D1E58BF01F801CBFAD505E014F8016B5B
:1002100001F8016B6D1EF9D59142D6D370470000ED
:100220000023002400250026103A28BF78C1FBD8FF
:10023000520728BF30C148BF0B607047782900F0D3
:10024000E980002070471FB515F07FFB1FBD10B57A
:1002500010BD00F01DFB1146FFF7F5FF14F04AFC3E
:1002600000F03BFB03B4FFF7F2FF03BC13F0C0FF49
:1002700040BA7047C0BA704730BF72B6704762B6B6
:10028000704780F30888704709488047094800474D
:10029000FEE7FEE7FEE7FEE7FEE7FEE7FEE7FEE736
:1002A000FEE7FEE704480549054A064B7047000093
:1002B000C194000889010008487C0120488601207B
:1002C000487E0120487E0120EFF3108072B670470F
:1002D00080F310887047264C4FF6FF7525604FF06D
:1002E000000484F30988234C4FF001052570224C4B
:1002F0004FF08055256062B6FEE730B41E4C4FF0DB
:100300008055256030BC704730B41B4C4FF0805591
:10031000256030BC704700BF72B6EFF3098050B162
:100320001EF0100F08BF20ED108A203880E8F00F73
:1003300012490968086000B5114880475DF804EB70
:10034000104811490A7802700C4810490A68026086
:10035000106890E8F00F20301EF0100F08BFB0ECCE
:10036000108A80F309884EF0040E62B6704700BF11
:1003700022ED00E0E200002004ED00E0E8000020B3
:10038000456C0008D7000020D8000020F0000020B5
:10039000704700000FB4044910B503AA029800F09A
:1003A000E1F910BC5DF814FB740000202DE9F04168
:1003B0000E460446002020622046E168884730B39C
:1003C000252805D0D4E901219047206A401CF2E796
:1003D000E168204600278847050018D0A5F14100B4
:1003E000192802D820354FF40067324629462046A6
:1003F0002760FFF723FF40B1012804D0F61D26F047
:1004000007060836D8E7361DD6E72846DAE7206A19
:10041000BDE8F08170B504460D4621461068AFF383
:1004200000802188090502D50F4A7A4402E00E4A6D
:100430007A440E32002104F1240305E000F00F0697
:100440000009965D5E54491C0028F7D120780023EE
:10045000000704D5702D02D009B1022311322046C5
:10046000BDE8704000F025B962D1010040EA010307
:1004700010B59B070FD1042A0DD310C808C9121F4D
:100480009C42F8D020BA19BA884201D9012010BD87
:100490004FF0FF3010BD1AB1D30703D0521C07E054
:1004A000002010BD10F8013B11F8014B1B1B07D1B8
:1004B00010F8013B11F8014B1B1B01D1921EF1D129
:1004C000184610BD032A40F2308010F0030C00F0F3
:1004D000158011F8013BBCF1020F624498BF11F87E
:1004E00001CB00F8013B38BF11F8013BA2F1040237
:1004F00098BF00F801CB38BF00F8013B11F00303AF
:1005000000F06780083AC0F0088051F8043B083AD0
:1005100051F804CBA0E80810F5E7121D5CBF51F8B4
:10052000043B40F8043BAFF30080D20724BF11F82E
:10053000013B11F801CB48BF11F8012B24BF00F893
:10054000013B00F801CB48BF00F8012B7047431A6C
:1005500028BF9A427FF6B6AF032A1044114440F2F6
:10056000268010F0030F1EBF11F8013D521E00F847
:10057000013D10F0030F7FF4F6AF11F0030300F01C
:100580001681083AC0F00B8051F8043D083A51F842
:1005900004CD40F8043D40F804CDFFF7F3BF121D31
:1005A0005CBF51F8043D40F8043DAFF30080D20732
:1005B00024BF11F8013D11F801CD48BF11F8012CFD
:1005C00024BF00F8013D00F801CD48BF00F8012C20
:1005D000704710B5203AC0F00B80B1E81850203AAF
:1005E000A0E81850B1E81850A0E81850BFF4F5AFD3
:1005F0005FEA027C24BFB1E81850A0E8185044BF5D
:1006000018C918C0BDE810405FEA827C24BF51F8C9
:10061000043B40F8043B08BF7047D20728BF31F8BD
:10062000023B48BF11F8012B28BF20F8023B48BF0E
:1006300000F8012B704702F0FF0343EA032242EA6D
:10064000024200F0E0B84FF0000200B513469446B5
:100650009646203922BFA0E80C50A0E80C50B1F11A
:100660002001BFF4F7AF090728BFA0E80C5048BF2E
:100670000CC05DF804EB890028BF40F8042B08BFCC
:10068000704748BF20F8022B11F0804F18BF00F8C8
:10069000012B7047704770477047704710B500F0E6
:1006A000D3F8006810BD10B5044600F0CDF8046022
:1006B00010BD2DE9F0470D4699469246044600F1DB
:1006C00024080168880604D5E06921F01001216042
:1006D00000E00120A84201DD471B00E00027A169DE
:1006E0007A1902EB0900081AA0612078C00602D42A
:1006F0002046AFF30080002608E0D4E901211AF873
:1007000006009047206A401C761C20624E45F4DBB0
:100710002078C0060AD52046AFF3008006E0D4E971
:10072000012130209047206A401C2062381EA7F12A
:100730000107F4DC07E0D4E9012118F8050090472F
:10074000206A401C2062281EA5F10105F3DC20462A
:10075000AFF300802078000602D50220BDE8F087C4
:100760000120FBE7074B70B50D467B4400F075F8A0
:100770000446284600F084F810B14FF0FF3070BDF9
:10078000204670BDF7420100431A28BF9A427FF607
:1007900020AF104410F0030F11441EBF11F8013DAB
:1007A000521E00F8013D10F0030F7FF4F6AF103A2F
:1007B000C0F00A8010B531E91850103A20E91850FD
:1007C000BFF4F9AFBDE81040530724BF31E908106A
:1007D00020E9081044BF51F8043D40F8043D12F0F0
:1007E000030F08BF7047D20728BF31F8023D48BF4A
:1007F00011F8012C28BF20F8023D48BF00F8012C59
:1008000070474FF000020429C0F0128010F0030C72
:100810003FF41BAFCCF1040CBCF1020F18BF00F881
:10082000012BA8BF20F8022BA1EB0C01FFF70DBF95
:100830005FEAC17C24BF00F8012B00F8012B48BF00
:1008400000F8012B7047000000487047E47B01204E
:1008500001694A1C02610878704700B58FB0CDE984
:1008600001310021059105497944CDE90310114674
:100870006846FFF79BFD0FB000BD0000E5FFFFFFDE
:10088000007B00F08000704700487047E47B012047
:100890007546FFF7F9FFAE4605006946534620F05E
:1008A0000700854618B020B5FFF7FCFCBDE82040E6
:1008B0004FF000064FF000074FF000084FF0000B1C
:1008C00021F00701AC46ACE8C009ACE8C009ACE8CF
:1008D000C009ACE8C0098D46704710B50446AFF3B7
:1008E00000802046BDE81040FFF7BCBC00BFFEE71B
:1008F00031B52DED068B82B00024002574480078B8
:10090000401C73490870084600780A2190FBF1F2F8
:1009100001FB120018B16E4800780A287EDA012225
:1009200008A9002006F06CFE9DF8200000F01F00D2
:10093000002873D09DF8200000F01F0040F0C00098
:10094000644981F82000002486E0624890F8200085
:100950000121A140084000287CD05F4931F81400F3
:10096000042201A906F04CFE5A4890F8340000F029
:100970000100D0B39DF807109DF8062001EB02207E
:1009800014F015FC41EC190B9FED540B53EC102B9C
:1009900014F074FC41EC180B14F0DCFB81B24D48F0
:1009A000163020F814109DF805109DF8042001EB76
:1009B000022014F0FCFB41EC1A0B9FED4A0B53ECA8
:1009C000102B14F05BFC41EC190B9FED480B53EC22
:1009D000102B14F087FD41EC180B14F0BBFB81B217
:1009E0003C480C3020F8141034E0FFE79DF8071065
:1009F0009DF8062001EB022014F0D9FB41EC190B05
:100A00009FED360B53EC102B14F038FC41EC180B17
:100A100014F0A0FB81B22F480C3000E02BE020F84E
:100A200014109DF805109DF8042001EB022014F02D
:100A3000BEFB41EC190B9FED2B0B53EC102B14F06C
:100A40001DFC41EC180B14F085FB81B221481630D7
:100A500020F81410601CC4B2052CFFF676AF0125F7
:100A60001C48808920B91B48C08A08B9002008901A
:100A70000020174908709DF8200000F01F00D0B931
:100A8000144890F8200000F0800040B1114890F820
:100A9000200020F080000F4981F820000BE04FF685
:100AA000FF700C498881C882084690F8200000F049
:100AB000E00081F8200006480078F02802DD0A20D6
:100AC00003490870284602B0BDEC068B38BD000013
:100AD0000400002008000020147101087B14AE47B8
:100AE000E17AD43FD881734694F6D23F00000000EB
:100AF0000000894010B5052013F048FC10BD00002F
:100B000010B500200F4908600F48006820F440002D
:100B10000D4908600846006840F480000860FFF74F
:100B2000E9FF00200949C1F8AC02FFF7E3FF01200B
:100B300004490860FFF7DEFF00200549C1F8800284
:100B400010BD0000808240420014024000804242FA
:100B5000008040421CB50121222006F0BFFD01208B
:100B600000908DF8040003208DF8050000208DF81A
:100B7000060001208DF807006946084800F01AFEBB
:100B80004FF4006000906946054800F013FE012014
:100B9000044908600449C1F8AC021CBD00040240CD
:100BA00000140240808240420080424210B5002082
:100BB0000F4908600F48006820F440000D490860A4
:100BC0000846006840F480000860FFF793FF0120AA
:100BD0000949C1F8AC02FFF78DFF01200449086004
:100BE000FFF788FF00200549C1F8800210BD000012
:100BF0008082404200140240008042420080404215
:100C000070B5054600241448006820F440001249DD
:100C10000860084600680860002612E000200F49BE
:100C200008601E2013F0B2FB01200D49C1F88002BC
:100C30006006040E0B48006808B1601CC4B2701C4A
:100C4000C6B2082EEADB15B9FFF7B0FF01E0FFF7E7
:100C500057FF204670BD00000014024080824042D1
:100C6000008040422C82424270B50446134800681E
:100C700020F44000114908600846006840F48000F4
:100C8000086000200E490860FFF734FF002511E0DE
:100C9000E0090C4908606006040E01200A49C1F809
:100CA0008002FFF727FF002005490860FFF722FFB9
:100CB000681CC5B2082DEBDB70BD000000140240BB
:100CC00080824042AC8242420080404210B50F48D0
:100CD000006820F440000D4908600846006840F4B0
:100CE0008000086001200A4908600A49C1F88002B2
:100CF000142013F04BFB002005490860FFF7FAFEB3
:100D000000200449C1F8800210BD00000014024018
:100D1000AC8242420080404210B50D48006820F489
:100D200040000B4908600846006840F480000860F5
:100D3000012008490860142013F028FB0020064910
:100D4000C1F8AC02FFF7D6FE01200449086010BDCF
:100D5000001402408082404200804242AC82424203
:100D600010B500241148006820F440000F490860C5
:100D700008460068086001200D4908600D49C1F867
:100D800080020AE0601CC4B2FA2C03DDFFF7C4FF46
:100D9000012010BD012013F0F9FA054880380068E1
:100DA0000028EFD10449086000BFF2E700140240B8
:100DB000AC824242008040428082404270B50025B1
:100DC0004FF4803400E0641E24B1802006F016FE4B
:100DD0000028F8D014B90325284670BD40F2FF5012
:100DE00006F0BEFD2846F8E7014600BF0848006847
:100DF00000F045000028F9D040F2FF50044A121DCF
:100E0000106003482038006808221040C0B27047C4
:100E1000342C014070B500251048046801E00F48EB
:100E2000046804F045000028F9D004F0040028B15B
:100E30000325042006F094FD284670BD04F001004F
:100E400028B10125012006F08BFD2846F5E740F288
:100E5000FF5006F085FD2846EFE70000342C0140E6
:100E600070B500250B48046801E00A48046804F0E6
:100E700045000028F9D004F0040028B1032504201F
:100E800006F06EFD284670BD40F2FF5006F068FD8A
:100E90002846F8E7342C01402DE9F04106460F467C
:100EA0004FF000082248056801E02148056805F078
:100EB00045000028F9D005F0040038B14FF00308D0
:100EC000042006F04DFD4046BDE8F08105F001002C
:100ED00030B14FF00108012006F042FD4046F3E733
:100EE00006F086FDB04203D04FF010084046EBE715
:100EF00040F2FF5006F034FD002006F093FD04465A
:100F000004F4604018B9200C38804046DCE704F453
:100F1000005008B11320D7E704F4804008B1102036
:100F2000D2E704F4004008B10F20CDE74046CBE7FC
:100F3000342C014070B500264FF480350F4804680A
:100F400002E06D1E0D48046804F0450008B9002D4C
:100F5000F7D115B104F0040028B10326042006F0EF
:100F6000FFFC304670BD04F0400028B10026402050
:100F700006F0F6FC3046F5E73046F3E7342C014046
:100F800021B1026842F00102026003E0026822F02F
:100F90000102026070470000016821F00101016058
:100FA0000021016041608160C160016121214161D6
:100FB0004A49884204D13D21484A103A91608CE068
:100FC00046491831884205D14FF47461434A103ABA
:100FD000916082E041493031884205D14FF474116B
:100FE0003E4A103A916078E03C494831884205D148
:100FF0004FF07461394A103A91606EE037496031C0
:10100000884204D13649354A103AD16065E0334907
:101010007831884204D13349304A103AD1605CE0DB
:101020002E499031884204D12F492C4A103AD16080
:1010300053E02A49A831884205D14FF03D51274A53
:10104000103AD16049E02949884204D13D21274A1C
:10105000083A116041E025491831884205D14FF422
:101060007461224A083A116037E0204930318842E1
:1010700005D14FF474111D4A083A11602DE01B4947
:101080004831884205D14FF07461184A083A11601E
:1010900023E016496031884204D11149134A121FD6
:1010A00011601AE011497831884204D10D490F4A84
:1010B000121F116011E00D499031884204D10A4994
:1010C0000A4A121F116008E00849A831884204D179
:1010D0004FF03D51054A121F1160704710600240E9
:1010E0003D000020400F002000003D201064024021
:1010F00021B1026842F02002026003E0026822F09F
:10110000200202607047014600200A6802F00102D6
:101110000AB1012000E000207047000010B5002255
:101120000268134B1A40CC680B6823434C69234375
:101130008C692343CC6923430C6A23434C6A2343C1
:101140008C6A23434C6B23438C6B23431A4302600A
:10115000426922F00702D1E90B3423431A4342616A
:101160000B6943604B6883608B68C36010BD0000EF
:101170003F801CF070472DE9F04306460F4690462D
:10118000002445460320A0EB48093CE07A1B91B2BD
:10119000321990B203F074FE3A1B91B2721990B2F8
:1011A00003F06EFE3A1991B2721990B203F068FE24
:1011B0007A1991B2321990B203F062FE7A1991B2A3
:1011C000321B90B203F05CFE3A1991B2721B90B2DE
:1011D00003F056FE7A1B91B2321B90B203F050FE20
:1011E0003A1B91B2721B90B203F04AFE641CB9F133
:1011F000000F03DAA000801D814404E0601B800022
:101200000A3081446D1EAC42C0DDBDE8F0830000B1
:1012100051B18200A2F1C042126842F00103820083
:10122000A2F1C042136009E08200A2F1C04212683C
:10123000034B1A408300A3F1C0431A6070470000BB
:10124000FEFF0F00D0E901121143C2681143026989
:1012500011434269114382691143C2691143026A11
:101260001143426A1143826A1143C26A1143026BFD
:10127000114302689200A2F1C042116081680829FE
:101280000BD101688900A1F1C041096841F0400219
:1012900001688900A1F1C0410A60416B0968426B95
:1012A000526841EA0211426B926841EA0221426BA4
:1012B000928941EA0241426B128A41EA0251426B31
:1012C000127D41EA0261426B926911430268521C2D
:1012D0009200A2F1C0421160C16AB1F5804F1BD1EA
:1012E000816B0968826B526841EA0211826B9268D5
:1012F00041EA0221826B128A41EA0251826B127D1D
:1013000041EA0261826B9269114302689200A2F184
:10131000C042C2F8041107E06FF070420168890012
:10132000A1F1C041C1F80421704700002DE9FC4142
:1013300007460D460026002400200090019008205A
:101340005D49086010204860402088600020C86027
:101350004FF480600861084606F0A2FB1020FFF7FA
:1013600043FD044614B12046BDE8FC815348008883
:101370000004514908603720486040208860002000
:10138000C8604FF480600861084606F089FB37208A
:10139000FFF72AFD04460CB12046E5E74FF0FF3089
:1013A0004749086008204860302088600220C860F3
:1013B0000020086101204861084606F0F3FA002089
:1013C0003D49086033204860402088600020C860A4
:1013D0004FF480600861084606F062FB3320FFF797
:1013E00003FD04460CB12046BEE70CE04FF40010AC
:1013F00006F004FB38B106F04DFB4DF82600761CD4
:10140000012E00D906E02F48006840F22A6108400A
:101410000028EBD000BF082006F0F0FA28B1082021
:1014200006F09EFA042420469EE7022006F0E6FA23
:1014300028B1022006F094FA0224204694E72020E6
:1014400006F0DCFA28B1202006F08AFA06242046AD
:101450008AE74FF4007006F0D1FA30B14FF4007013
:1014600006F07EFA072420467EE740F2FF5006F0A1
:1014700077FA00980006009901F47F4140EA0120C4
:10148000009901F47F0140EA1120009940EA1160BF
:10149000686001980006019901F47F4140EA01204B
:1014A000019901F47F0140EA1120019940EA11609D
:1014B0002860204658E70000402900205000002006
:1014C00054290020342C01402DE9F0430446C5681E
:1014D00087B090468946002001F0E6FE064625B119
:1014E000287910B146F0020001E026F0020001F078
:1014F000DBFE2069012558B1D4E902128DE82600EF
:10150000039563882288046841464846A0471EE048
:10151000124F134B214638681B68427CE06898479D
:1015200030B9E088012801D0002001E03868806BE4
:10153000A288E388A1680095CDE90410CDE90232C4
:101540000195638822884146484603F0DDFA07B0DA
:101550003046BDE8F04301F0A7BE0000780200204D
:10156000700200202DE9FF4F95B00020DDF890B00B
:101570000F90109013907D480A460068B0F90A1049
:101580000C91B0F90E0007901598B0F800904088C3
:101590000D902398002801DAC0F100000E9004DAC3
:1015A000A9EB03030E98A3F1010303FB00F34FF42F
:1015B0007A7193FBF1F0A2EB000016902298C0F133
:1015C000000000FB0BF002F0D1FC1799BBF1000FFB
:1015D00000EB010808F101000B9002DA4FF0FF3038
:1015E00000E0012009901598C06818B1007908B191
:1015F000012010900020A7E022994446AAEB0100A8
:10160000401C00FB0BF04FF47A7102F0AFFC17990D
:1016100000EB01080B9884427ED00B940C98844216
:1016200079DB0798844276DC00254FF0FF302E46A8
:101630002F461495129062E00E980644B6F57A7F14
:101640005CDB2398002801DD394602E0A9EB0701A5
:10165000491E5246159800F019FF0F9901908842D3
:1016600002D11298401C42D1019870B9109860B113
:101670001498D0B31698129942190844521E214664
:1016800003F046FB002014902FE0149858B11298F4
:10169000401C08D01698421901461298521E084460
:1016A000214603F035FB012014901598129500692E
:1016B00018B141680198884706E01598C0688068AD
:1016C00058B3019950F821000690000E139001F0D4
:1016D00093FD26480068417C254850F821000069A8
:1016E00001680698884704F0FFF801980F904FF4BE
:1016F0007A706D1CA6F57A768642FADA7F1C4F4521
:101700009ADB149838B11698129942190844521E5F
:10171000214603F0FDFA01E014E008E00998BBF16E
:10172000000F04440BDA44453FF778AF0AE00F4856
:101730000068417C0E4850F821000069B9E7444533
:10174000FFF66CAF0AF101000D9982468842FFF660
:1017500053AF1398002805D019B00020BDE8F04F12
:1017600001F04ABD19B0BDE8F08F000078020020FA
:101770009002002010B5002001F07AFD6FF07F404C
:1017800001F081FD012001F0E9FD002001F0F4FDF0
:10179000002001F001FE002001F086FD04480068F1
:1017A00001F08EFDBDE81040002001F0A9BD000051
:1017B00074020020F0B50A4600210023002400BF77
:1017C0003DE0012505FA01F3156805EA03049C4292
:1017D00034D105684F000326BE40B5430560157936
:1017E0004E00B5400668354305601579012D02D0DD
:1017F0001579022D16D185684F000326BE40B543EA
:10180000856055794E00B5408668354385604568EA
:1018100001268E40B5434560456896798E40B6B244
:1018200035434560C5684F000326BE40B543C560DB
:10183000D5794E00B540C6683543C560491C1029AE
:10184000BFD3F0BDF0B5002300244D07ED0E02FA22
:1018500005F3CE1000F1200555F826504E07F70E7F
:101860000F26BE40B543CF1000F1200646F82750A2
:10187000CE1000F1200555F8265045EA0304CE109D
:1018800000F1200545F82640F0BD018370470000B7
:101890002DE9F04FDFF828B191B04FF0FF35DBF8BC
:1018A0000030B3F922100691DE69B3F92490F4698F
:1018B000A189814206D8E289824203D3471AD4F82B
:1018C000008012E0D4E9018100296FD00A888242A9
:1018D0006CD84D88854269D3801A82B2486800EB83
:1018E0008200B0F90070B0F90250781C5ED0307EF2
:1018F000A17C10FB01FA217CCDE90801B3F92A6033
:10190000304604F083F8C0B20E90DBF8000007FB0D
:101910000A81A37C826B0127CDE90412CDE9027311
:10192000C069DDE90832C17E807ECDE9000149460B
:10193000069803F0E9F8681C18D046F0020004F09D
:1019400065F8DBF80000A37C05FB0A81826BCDE91A
:101950000273CDE90412C069DDE90832C17E807EE0
:10196000CDE900014946069803F0CEF8DBF8000007
:101970005D46C069417E007E814214D9022E12D09C
:1019800086F0040004F042F82868C069027EC37E35
:1019900012FB0391437E857E099A06984B4402FB15
:1019A000050203F00DFB0E9804F030F8DBF80000A0
:1019B000627C418C1144418411B0BDE8F08F00007D
:1019C0007802002004480068C069C06909B1027C3F
:1019D0000A60407C704700007802002002200880E6
:1019E0007047C06982898A4202D8C2898A4210D26D
:1019F000806880B102888A420DD843888B420AD31E
:101A0000406800EB8100A0EB8200B0F900000028E4
:101A100001DB012070470020704700002DE9F043F2
:101A20002F4C034687B020681946B0F92A80C06958
:101A3000C06900F084F800284ED041680088181A68
:101A400001EBC0054046AE7803F0E0FF8146206818
:101A50006A680123816BCDE90236CDE90421C169B1
:101A6000CB7E8A7ECDE900230B7EB0F924102A7844
:101A7000B0F9220003F048F82068C069477E067E6E
:101A8000B7421DD9C07E47434643B8F1020F17D075
:101A900000F088FD804600F053FD01F0F4FB216862
:101AA0002A78CB69B1F92200DB7E12FB0302B1F97F
:101AB0002410CB19314403F083FA404601F0E3FBD4
:101AC000484603F0A3FF20686A78C369B0F9221082
:101AD0009B7E12FB0311418407B0BDE8F083000038
:101AE0007802002030B50F4C05460B462068294689
:101AF000C069C06900F023F8002811D0416800884F
:101B000024682A1A0120E46900EBC200085CA47E64
:101B100010FB04F0002B03D011F832106143196060
:101B200030BD00007802002001200880704700B519
:101B3000C06900F004F8002800D0012000BD06E0D4
:101B400002888A4202D842888A4202D280680028EB
:101B5000F6D1704770B500240E4D16E028690E4985
:101B600000EBC410001D78220968FEF732FD2869D9
:101B7000002100EBC410016000F10C018161011D26
:101B80000A1DC0E90F12641C4164A8688442E5DBA9
:101B900070BD0000FC0200207802002070B50D49E5
:101BA0000B480860084602F081FD0A4C143CA0680E
:101BB000C501284600F068F82A460021206102F09D
:101BC0007DFD4FF0FF302060BDE8704001F0CEBFDA
:101BD000052C01081003002010B5040009D000F006
:101BE0009BFD20460DF080FE044601F077FF204665
:101BF00010BD002010BD38B5054600F08DFD28460B
:101C0000FFF7EAFF040009D000F0BAF82A460021E5
:101C1000009002F053FD684600F0F0F801F05EFF1E
:101C2000204638BD024A106021F003005060704722
:101C3000F879012010B5040016D000F06DFD0B48B6
:101C4000006B10F8341059B1022909D2042101EBBC
:101C5000C401415848680DF00BFE204611F0DAF837
:101C6000BDE8104001F03ABF10BD00003C790120F2
:101C7000002805D0034A916B016001B14860906370
:101C8000704700003C7901202DE9F041044610F036
:101C900065FE2648E41C24F00305C16B2D1DA942F6
:101CA00000D90D46846B13E054F8042CAA420ED1DF
:101CB00084B1216809B162684A60616809B122682B
:101CC0000A60826BA2422ED1216881632BE02468D6
:101CD000002CE9D18046416B80680F1857F8040C3E
:101CE0003E1A306838B1002011F046F957F8040C5C
:101CF0003E1A3068B8B97068A84214DB3044441BFF
:101D0000304611F0F1F8D8F80810491BC8F808104F
:101D1000D8F810102944C8F8101070683146401BDC
:101D20000DF0A6FD20C42046BDE8F0813C790120DD
:101D300010B5002410F012FE0C490F2001EBC00278
:101D4000126C1AB101EBC000006C08E0401EF5D522
:101D500008E04168A14200D90C46806810B1806853
:101D60000028F6D1A4F10C0010BD00003C79012040
:101D700002484169491C4161704700003C790120DB
:101D800005498A69521C8A61096B01EBC0010A7816
:101D9000521C0A7000F04AB83C79012010B500F0DE
:101DA000BBFCFFF7C5FF64220849B0F5800F04D9DA
:101DB00090FBF2F4C869444303E0C9694143B1FBB5
:101DC000F2F401F08BFE204610BD00003C790120AA
:101DD0000549102805D94A68B0EB520F02D35008C4
:101DE00000E0102088607047F879012002484169BE
:101DF000491E4161704700003C7901200A49026890
:101E00000B6B52F8082C03EBC2021378022B03D39E
:101E10008B690BB15B1E8B611178491E117000211B
:101E200001600846704700003C790120002806D078
:101E30000349042202EBC000096B085808307047C0
:101E40003C79012070B514460D46064600F064FC4E
:101E5000204600F0B3FB0300174804EB840109D0CF
:101E600050F8210041688068711A2A1A184601F05A
:101E700037FA1CE000EB8104A268B24201D00122D3
:101E800000E00022E368AB4201D0012300E0002320
:101E90001A430CD0236943B150F82100816840688F
:101EA0006A1A311A184601F067F9C4E90265BDE8FB
:101EB000704001F013BE0000507B012010B5C2B28B
:101EC000CBB2D21A02D5C2F1000212B293B2C0F361
:101ED0000722C1F3072403FB03F3121B01D552426F
:101EE00012B2000C92B2A0EB114002FB023200B21F
:101EF000002801DA404200B280B200FB002010BD91
:101F000010B50021084600F0BFFB40F6FF725042BA
:101F1000BDE8104013460146AFF300802DE9FC41B7
:101F20001C4615460E46074600F0F6FB042003F05B
:101F30006DFD80461248C068C16C006D0F440644B8
:101F40000D440444ADF80070ADF80450ADF80260E3
:101F5000ADF8064068460DF051F807E023462A46E2
:101F60003146384603F02CF80DF00AF80028F5D178
:101F7000404603F04BFD01F0B1FDBDE8FC810000DF
:101F80006C0200202DE9F0411C4616460D4607461E
:101F9000022B02DB0020BDE8F0811C20FFF774FE5D
:101FA0000028F8D00DB105610AE0094A52F8241062
:101FB00009B905E011460A68002AFBD109690161E7
:101FC00084618682002101604160C0E90217E2E776
:101FD0009002002070B51D46FFF7D4FF040001D029
:101FE00000F00EF8E068006820B90348006800EBD4
:101FF00085008465204670BD78020020FFF738BE5A
:1020000070B590B38269022A30DA1C4C54F8221061
:1020100019B944F822002FE019464B68002BFBD178
:1020200006E0CB68C5681B682D68AB4203DD096814
:102030000029F6D11AE0C1B1CB68C6681B683668C2
:10204000B3420CD1838A012B05D008E01946DB6826
:102050001B68AB4203DB0B68002BF7D129B14B683F
:1020600033B118604A68426004E0FFE7012070BDA8
:1020700044F8220048600160002070BD90020020FA
:1020800010B503E00468FFF7BBFF20460028F9D134
:1020900010BD11F059BC00002DE9F0410026DFF819
:1020A00034800D4F354600BF58F8254009E0E06800
:1020B0000068385C20B1204611F046FC26602646B8
:1020C0002468002CF3D16D1C022DEDDB3046BDE8F9
:1020D000F081000090020020B8B60108022801DB60
:1020E00000207047054A52F8200004E0C2681268D8
:1020F0008A42F6D000680028F8D17047900200208C
:10210000022801DB00207047054951F8200004E057
:10211000C16809680029F6D000680028F8D1704726
:10212000900200202DE9F041044601F011FD06194E
:102130001EE000BF00F090F9052F00DD052700F03C
:10214000EBFA11480568FFF713FE2C0017D000BF0B
:1021500001F0C4FC641EFBD1384601F0DFFC1DB168
:1021600000F0DAFA6D1EFBD1FFF740FE01F0B6FC7D
:1021700001F0EEFC371A002FDCDCBDE8F0813846B8
:1021800001F0CCFCF0E70000080300202DE9FC473B
:1021900006005FD000F0C0FA00F01AFA3C4C81460D
:1021A0002068B0F9228000F041FA216807468A8C45
:1021B000D01B888441E000BF47F6FF71304602F033
:1021C00041F982460146304602F012F9216805467F
:1021D00091F82C0000F00300012841D002283BD0E8
:1021E00000204A8C101A4884ADF800006A1E104482
:1021F000ADF80400888CADF80200A9F10101084493
:10220000ADF806006A465146304601F057FE216897
:10221000BDF8020088845146304601F03BFB06447D
:1022200030780A281ED00D281CD0BDF80000216887
:1022300028444884307818B1761C30780028BBD107
:102240002068818C39448184818D21F0030181854E
:1022500001F044FCBDE8FC8705EBD5704010C0E7F9
:102260002846BEE7206890F82C1001F003010129F0
:102270000BD0022909D0018C418431780A29D9D1A7
:10228000828C02EB09018184D4E7A0F82280F4E774
:102290007802002070B514460D46064600F03CFA60
:1022A00005480068458484843046FFF76FFFBDE829
:1022B000704001F013BC0000780200202DE9F041CD
:1022C00007460A4815460E460068B0F92C0040F053
:1022D000020001F051F804462A4631463846FFF71D
:1022E000D9FF2046BDE8F04101F046B87802002051
:1022F0007CB514460D46064600F00EFA11480068FB
:10230000C16C006D0D4404443188681E0844ADF86A
:102310000400ADF800507188601E0844ADF8060056
:10232000ADF8024068460CF069FE06E022462946F8
:102330003046FFF7C9F80CF023FE0028F6D101F073
:10234000CDFB7CBD780200202DE9F04F87B09A4686
:10235000DDE9117693460C468146DDF8408000F0B9
:10236000DBF902F065FE05903A480068C16C0D1972
:10237000016DCAF1000001EB0B044FF47A7B784346
:10238000002F594611DB01F0F1FD2844ADF80C0097
:10239000B9F80010A1EB0A00401E7843594601F03D
:1023A000E5FD2844ADF8100010E001F0DFFD284401
:1023B000ADF81000B9F80010A1EB0A00401E7843F8
:1023C000594601F0D3FD2844ADF80C00C8F10000D7
:1023D0007043002E594611DB01F0C8FD2044ADF8D2
:1023E0000E00B9F80210A1EB0800401E70435946D8
:1023F00001F0BCFD2044ADF8120010E001F0B6FD84
:102400002044ADF81200B9F80210A1EB0800401EFC
:102410007043594601F0AAFD2044ADF80E0003A810
:102420000CF0ECFD0BE0CDF80080CDE901765346D1
:10243000224629464846FFF795F80CF0A1FD0028F2
:10244000F1D1059803F050FA01F048FB07B0BDE860
:10245000F08F00007802002010B5002400E0012475
:1024600000F004F80028FAD1204610BD064810B547
:102470000068002410B1804700B101240CF066F818
:1024800000B10124204610BD9802002008B50B467B
:10249000002805D0009281888268C08800F001F889
:1024A00008BD10B50828029C30D008DC04FB01F4FC
:1024B00001280AD0022813D0042804D11CE01028D7
:1024C00028D020282CD0002010BD04EBD30003F02E
:1024D0000701105CC1F10701C84000F0010010BD08
:1024E00004EB93000621105C01EA4301C1F10601EF
:1024F000C84000F0030010BD04EB5300D907105C86
:1025000002D000F00F0010BD000910BD04FB013027
:10251000105C10BD481004FB003032F8100010BDF4
:10252000881004FB003052F8200010BD034951F818
:102530002000C1688A6A082110470000900200202C
:1025400010B500F0E9F802F06BFD02F003FE04465E
:1025500001F0C4FA204610BD10B5044600F0DCF8C6
:10256000054800210068C06942682046904704463B
:1025700001F0B4FA204610BD7802002070B50C4678
:10258000054600F0C9F8064821460068C06942685F
:1025900028469047044601F0A1FA204670BD00008D
:1025A0007802002010B500F0B7F802F041FD02F00B
:1025B000D1FD044601F092FA204610BD0021022808
:1025C00002D2024951F8201008467047CC0300207F
:1025D00010B500F0A1F804480068C069447E01F01D
:1025E0007DFA204610BD00007802002070B5144628
:1025F0000D46064600F090F822462946304602F085
:102600004BFD10B1002028602060BDE8704001F053
:1026100065BA70B50C46054600F07EF8214628469E
:1026200001F02CFFBDE8704001F058BA10B500244D
:1026300000F072F80B48006890F82C1001F00C01C3
:10264000042904D0082906D00C2907D103E0C06969
:10265000047E641E02E0C069007E440801F03EFA78
:10266000204610BD78020020024951F82000006980
:102670000068704790020020024951F8200000696C
:10268000406870479002002070B50D46044600F087
:1026900043F820460FF0F0FF044628460FF0F4FF01
:1026A000044301F01BFA204670BD0000144810B529
:1026B000016821F001010160124801218160124985
:1026C000016000681149884200D0FEE701F0DCFBA0
:1026D0000F492E20087001F03FFA0E4810F0F0F874
:1026E000FFF75CFA11F02AFF04460021084600F0CB
:1026F00015FE0CF055F9FFF72DFA204610BD00002D
:10270000002000E000300240C2A507F4CDB5E8B5D6
:102710006C020020047A012070B51F4CE06820B1E3
:1027200001F00EFA6168884204D001F02FFA01F03E
:1027300007FA6060E068401CE060012825D10025B0
:102740000AE000BF01F0FCF9216901EBC51109683D
:10275000814205D0D1B16D1CA0688542F2DB002515
:102760002068854211D000280EDBFFF795FC226817
:10277000216901EBC212D067084A01EBC510011DA7
:102780001160C06FFFF77CFC256070BD216901EB13
:10279000C5110860E4E70000FC0200207802002078
:1027A0001CB5040004D10E480068046E002C16D03D
:1027B000FFF7B2FF2046FFF7E3FA0090446968464E
:1027C000FFF71CFB4CB12046FFF7DAFA0190816855
:1027D0008968884701A8FFF711FB01F07FF91CBD4C
:1027E0007802002001490A4600F002B801F0FFFF1C
:1027F0002DE9F04387B015460C465FEA000846D045
:10280000FFF78AFF002000F04FFD81462148006855
:10281000066E4046FFF7B4FA00900068806900F049
:10282000D3FC074640F6FF70001904D10098B0F9B8
:102830000440B0F906500098611E0289ADF80440CA
:102840001144ADF808104189681E0844ADF80650DF
:10285000ADF80A000BF0D4FC6846FFF7CFFA01A8E8
:102860000CF0CCFB06E02A462146404600F07CFBFB
:102870000CF086FB0028F6D1384600F0A5FC304667
:1028800000F0B8F9484600F00FFD01F027F907B055
:10289000BDE8F083780200202DE9FE4F984691466E
:1028A0008A46834600270C9EFFF736FF17481849D3
:1028B0000068407C51F82040E1680968042903D091
:1028C0002468002CF8D100E014B9FFF719FC044685
:1028D0000121E068C26A20469047050011D02469B2
:1028E000A0688047401C02D10A4C46F001060096C1
:1028F000CDE9015443464A465146584600F014FA81
:10290000074601F0EBF83846BDE8FE8F780200205C
:1029100090020020ECD4010838B504001CD0FFF769
:10292000FBFE0E480068006EA04201D100F03EFCA4
:102930002046FFF725FA0090406908B101F0B7F88A
:1029400000980068FFF75AFB6846FFF757FA2046E1
:10295000FFF770F901F0C2F838BD000078020020DE
:102960002DE9FF4F83B0454CDDF840B098468A46CC
:1029700007002BD002A901A8FFF74BFEB7F90060B2
:10298000002E00DA0026B7F90250002D00DA0025EB
:102990002068A146407C02F095FB01990144491E44
:1029A000B7F9040010F077F80446D9F80000407C2D
:1029B00002F08EFB02990144491EB7F9060010F09F
:1029C0006AF8A71B7F1C441B641C0BE020680026D0
:1029D0003546407C02F076FB07462068407C02F0DA
:1029E00077FB0446B8F1000F01D1C4F10008002FB5
:1029F00001DD002C03DC002007B0BDE8F08F43466A
:102A00003A4629463046CDF800B0FFF745FF5FEA69
:102A1000000909D000F0AEF88046484600F0EAF818
:102A20000027DFF85CB01FE0514605988847012079
:102A3000E2E7E11B414502DA484600F0BFF83FB14A
:102A4000EA193146484600F003F94846FFF7A8FE68
:102A5000514605988847DBF8001009B100208847E7
:102A60004846FFF7BFFE4744A742E2DB4846FFF770
:102A700053FF002000F0BEF8BDE700007802002000
:102A8000E403002038B505004FF0000411D0FFF733
:102A900043FE2846FFF774F90090006800698068DB
:102AA000804703F04BFB04466846FFF7A7F901F0A7
:102AB00015F8204638BD38B50446FFF72DFE2046F0
:102AC000FFF75EF900F1180400906846FFF796F9E9
:102AD00001F004F8204638BD38B504460025FFF75C
:102AE0001BFE1CB908480068046E44B12046FFF77D
:102AF00047F90090B0F904506846FFF77FF900F0FD
:102B0000EDFF284638BD00007802002038B50446A5
:102B10000025FFF701FE1CB908480068046E44B1A7
:102B20002046FFF72DF90090B0F908506846FFF7EE
:102B300065F900F0D3FF284638BD00007802002078
:102B400038B504460025FFF7E7FD1CB908480068C2
:102B5000046E44B12046FFF713F90090B0F9065017
:102B60006846FFF74BF900F0B9FF284638BD000072
:102B70007802002038B504460025FFF7CDFD1CB9CA
:102B800008480068046E44B12046FFF7F9F8009049
:102B9000B0F90A506846FFF731F900F09FFF284668
:102BA00038BD00007802002010B50DF033F8002881
:102BB00003D0BDE8104000F07DB810BD38B50C461C
:102BC000050004D10A480068056E002D0FD0FFF7FC
:102BD000A3FD2846FFF7D4F80090B0F90A10A142EF
:102BE00000DD44816846FFF709F900F077FF38BD42
:102BF00078020020F8B50546FFF78EFD134E3068C9
:102C0000046E65B10CB100F0D1FA0BF0EFFB284671
:102C1000FFF7B6F8009031680A6E1AB106E000F0CE
:102C2000C5FA0EE0D1E90223C1E919230D66006857
:102C3000FFF7E6F96846FFF7E1F803F057F802F00E
:102C40003FFE00F04BFF2046F8BD00007802002058
:102C50007CB515460E46040004D115480068046E84
:102C6000002C24D0FFF758FD2046FFF789F82DB23D
:102C70000090C58034B2848002F022FE0098406942
:102C800080B1FFF77DF8009A0190B2F908108180B9
:102C9000B2F90A20C28011B10AB10480458001A8AE
:102CA000FFF7ACF86846FFF7A9F800F017FF7CBD06
:102CB0007802002001490A4600F002B801F0FFFF47
:102CC0007FB515460C4606002DD0FFF725FD304692
:102CD000FFF756F840F6FF710190091903D1B0F9DA
:102CE0000440B0F906500289611E1144ADF8084055
:102CF000ADF80C104189681E0844ADF80E00ADF81F
:102D00000A5001A8FFF77AF802A80CF077F906E05C
:102D10002A462146304600F00FF90CF031F9002820
:102D2000F6D100F0DBFE7FBD2DE9FF4FDFF8E0B00C
:102D300083B01C46DBF80010DDE9106092460027E6
:102D40004B7C3A461299FFF71DF905005DD02869C2
:102D50008068804703F0F2F981460AFB09F0C01D44
:102D60004FEAD008FFF71AF8F10705D1C11700EBB9
:102D70009170801000EB4000002C06DC1838B0FB8E
:102D8000F8F06442A04200DC0446F00707D100904E
:102D9000DDE903012346524600F0FCFD0746002C06
:102DA00003DC2846FFF72AF92FE004FB08F018306F
:102DB000F10702D0FEF710FF01E0FEF71CFF06004E
:102DC0001CD0FEF7DDFF0190056003998180049916
:102DD000C180A0F808A04481C0F80C80C0E9049725
:102DE00001A8FFF70BF81298AE602861DBF800002D
:102DF000407CA861304607B0BDE8F08F2846FFF759
:102E0000FDF817B13846FEF715FF0020F3E7000084
:102E1000780200200149086070470000E4030020A8
:102E20002DE9F74F92B090461298FEF7A9FF0B904C
:102E3000B0F908100691B0F90A100D910068006908
:102E4000D0F804B00BA8FEF7D9FF384C384D2068F5
:102E5000407C55F82000C1688A6A08219047814665
:102E6000182801D34FF020092068407C55F8200035
:102E70000069079003C80C902E48814201D00120C0
:102E800000E000201090002000F092FE002849D1C0
:102E90000026DDE91207B2460FAB069C4546761CBC
:102EA0000193FFF708FE014604FB0AF001EB8002E4
:102EB000234629463846CDF800B001F065F80500F4
:102EC00030D01098D0B1DDE906134A46284600F00C
:102ED00021FF98B9DDE906702C46D0F810C0BCF18E
:102EE000000F05D0294604233A460846E04705E08E
:102EF0000C992068884701C47F1EF9D10020CDE9D4
:102F00000305059001200090CDE9010941460346E3
:102F100008F10108069A139801F0F6FD0D98401E7D
:102F20000D90B6D115B0BDE8F08F000078020020FA
:102F30009002002073510008F8B515460E4607466A
:102F4000FEF71EFF009000681621C068426A00204C
:102F5000904704466846FEF751FF002C03D02A46EE
:102F600031463846A047F8BDF8B515460E46074627
:102F7000FEF706FF009044696846FEF73FFF3846BB
:102F8000FFF780FD0346082800DD2CB12A463146B4
:102F9000384610F0F9FCF8BD2A463146384610F0A4
:102FA0008BFEF8BD10B5002821D009B30AB3B1F9E2
:102FB0000040B2F900309C4200DA23460380B1F9A8
:102FC0000240B2F902309C4200DA23464380B1F954
:102FD0000440B2F904309C4200DD23468380B1F9FD
:102FE0000610B2F90620914200DC1146C18010BDE6
:102FF00011460A6802604968416010BD00280BD084
:1030000003880B44038083881944818041881144DC
:103010004180C1881144C1807047000070B5104DD7
:103020000446D5E9000188420ED10E49884203D1F9
:10303000D0E90F12406C03E00C38D0E90012806830
:103040002160C4E9012006E090E80E0084E80E004B
:103050000FF030FB2860207A002800D0012070BDDE
:10306000FC030020787B01200448D0E90010814255
:1030700001D101207047002070470000FC030020B0
:10308000054A10B50349116010F07CFBBDE8104003
:1030900000F092B935E600089C02002070B50025CA
:1030A000FFF73AFB094CD4E9002082420AD0D2E96A
:1030B000005610460FF008FB2060314628460BF002
:1030C0006FFD012500F00AFD284670BDC0030020F9
:1030D0002DE9FC41154DDDE908742D68B5F908604E
:1030E000864200DD3046B5F90C60964200DA324681
:1030F000824219DBB5F90A608E4200DD3146B5F92E
:103100000E509D4200DA2B468B420DDB00E02C4630
:10311000E5682D6825B1042D02D02568002DF6D173
:10312000CDE9007402F04EF9BDE8FC817802002080
:10313000B0F90220B1F906309A4213DCB1F902204D
:10314000B0F906309A420DDCB0F90020B1F9043034
:103150009A4207DCB1F90010B0F90400814201DCA9
:10316000012070470020704701460248782200681D
:10317000FDF72FBA7802002070B515460E46040000
:103180000AD0FFF7C9FA2A463146204610F03CF92A
:10319000BDE8704000F0A2BC70BD0000024978227A
:1031A0000968FDF716BA00007802002010B5FFF795
:1031B000B3FA02F039FB02F099FD0BF021F8BDE8FB
:1031C000104000F08BBC000070B5094D0446286823
:1031D000467CFFF7A1FA022C03D228684474FFF75B
:1031E000E5FF0448046000F079FC304670BD000043
:1031F000780200203C0300202DE9F041194E050023
:1032000019493068194F407C51F820108C6917F823
:10321000048003D00FF008FB60B11FE00521FEF72A
:103220005DFF06001AD00020FFF7F4FD3046FEF7E0
:1032300030FF12E030680521407CFEF74FFF60B997
:10324000AFF24B00FFF7E6FD30680849407C1831CB
:1032500051F8200008B1FEF7D3FE3D554046BDE8C9
:10326000F08100007802002090020020DC020020A3
:1032700010B50446FFF750FA204602F0F7FABDE811
:10328000104000F02BBC10B50446FFF745FA20466D
:1032900002F024FBBDE8104000F020BC014988602A
:1032A000704700006C02002010B50446FFF734FAA6
:1032B000204602F0ABFB044600F010FC204610BD97
:1032C00070B50446FFF728FA04480068C56904B1E0
:1032D000C46100F003FC284670BD000078020020A5
:1032E00070B514460D460646FFF716FA22462946E3
:1032F000304602F0A7FB044600F0F0FB204670BD0C
:1033000070B50546FFF708FA03480068847E8576A5
:1033100000F0E4FB204670BD7802002070B50C463A
:103320000546FFF7F9F90948224605800848048058
:1033300008480068417C084850F82100C1680B6AC1
:1033400029469847BDE8704000F0C8BBA80200209D
:10335000AA020020780200209002002070B50546E5
:10336000FFF7DAF903480068047E057600F0B6FB43
:10337000204670BD7802002070B50446FFF7CCF9F6
:1033800004480068B0F92C50848500F0A7FB28465B
:1033900070BD00007802002070B50446FFF7BCF94C
:1033A00004480068B0F92A50448500F097FB28468D
:1033B00070BD00007802002002480068002800D09C
:1033C00000477047D403002002498A6802B9886028
:1033D000FFF7F2BFC003002010B504000ED0FFF7C6
:1033E0009BF920460FF09AFD204610F085FA204602
:1033F000FEF720FCBDE8104000F070BB10BD38B5F2
:103400000C46050011D0FFF787F92846FEF7B8FCF7
:1034100000908089204201D0012400E00024684609
:10342000FEF7ECFC00F05AFB00E00124204638BD1A
:1034300038B50546002028600648046844B1204697
:10344000FEF79EFC0090006928606846FEF7D6FCF7
:10345000204638BD0404002038B504004FF00000B9
:103460000D46086011D02046FEF78AFC0090846863
:1034700044B16846FEF7C2FC2046FEF781FC00908E
:10348000006928606846FEF7B9FC204638BD000098
:103490002DE9F84FDFF89C800546274F98F8180073
:1034A0008B46410738680A9E9946407C924607D46D
:1034B00001F01AFE04463868407C01F021FE06E067
:1034C00001F01EFE04463868407C01F00DFE002726
:1034D00095B1A0F1010400BFB9EB060000D5404250
:1034E000142806DB5146BBEB0A0000D540421428E5
:1034F00004DA0120BDE8F88F641EEDE70A464B466A
:103500005946384600960FF0BBFA0C4F4B465246D0
:1035100047F835005946204600960FF0B1FA07EB00
:10352000C50148600FF024FE01210020C8F81C10DE
:10353000E0E70000AC020020780200207C7A012045
:103540002DE9F047524D534E0024E86978B9686878
:10355000346000F00501746010F0060F01D000F037
:103560000500B460F4600FF003FE0120E8612878E4
:10357000C8B100F0D9F8A846286100F0D3F829694D
:10358000286A81420BDBD8F824204046914206DCB1
:10359000836A42699A4202DBC36A9A420DDD4FF0A8
:1035A000FF3001466FE000F00FF9686100F0BBF8F2
:1035B0002878401C2870BDE8F087326898F8180019
:1035C000354F8D1A400700283868407C02DB01F037
:1035D0008BFD01E001F094FD401E4543D6E900203B
:1035E000B146801A95FBF0F6D8F81420D9F80810E7
:1035F00098F81800551A400700283868407C02DB0C
:1036000001F07EFD01E001F06FFD401E4543D9E968
:103610000201081A95FBF0F598F8180040070028F9
:103620003868407C18DB01F05FFD81463868407CDB
:1036300001F066FDD8F818200146D00704D0A9EBA8
:103640000600A0F1010000E03046920702D5491BB8
:10365000491E18E0294616E001F052FD81463868FF
:10366000407C01F041FDD8F81820D10704D0A9EB27
:103670000601A1F1010100E03146920702D5401B8D
:10368000401E00E0284610F0A9F888F8004092E7B4
:10369000AC0200207C7A0120780200200149886178
:1036A00070470000AC020020074A002806DB002912
:1036B00004DB01231372C2E9000101E00020107253
:1036C000014800F003B80000FC7A012010B5044660
:1036D0000C220749FCF7CAFE002808D0044894E8E9
:1036E0000E000EC02046BDE81040FFF7C9BC10BD5B
:1036F000C07B012030B40A4C2268831A01D5C3F183
:10370000000362688A1A00D552421A44022A04DD74
:10371000C4E9000130BCFFF7C7BF30BC70470000F0
:10372000180300207047704710B52DED048B82B050
:103730002048808845F21051884236D101221E4926
:10374000002003F05DFF1C48007800F01F0030B33C
:10375000042201A9900103F053FF9DF807109DF882
:10376000062001EB022011F022FD41EC190B9FED28
:10377000130B53EC102B11F081FD41EC180B11F0E1
:10378000E9FC1049888108468489B4F5F07F02DBA2
:1037900040F2DF1404E0002C02DA002400E00024F0
:1037A000204602B0BDEC048B10BDD0200AF000F919
:1037B000F7E7000018290020B9000020D8817346DF
:1037C00094F6D23F0800002010B52DED048B82B096
:1037D0002048808845F21051884237D101221E4985
:1037E000002003F00DFF1C48007800F01F0030B3EC
:1037F000042201A9900103F003FF9DF805109DF834
:10380000042001EB022011F0D2FC41EC190B9FEDDA
:10381000130B53EC102B11F031FD41EC180B11F090
:1038200099FC1049C8820846C48AB4F5487F02DB77
:1038300040F21F3405E0002C03DA002401E040F2DE
:103840001F34204602B0BDEC048B10BD90200AF05E
:10385000AFF8F7E718290020BA0000207B14AE4724
:10386000E17AD43F080000202DE9F041084E0446DB
:10387000056830680168284688470746306841680F
:1038800028468847284420603846BDE8F08100007B
:103890007C0200202DE9F0410C4606460025064F2B
:1038A00005E0386841683046884706440544641E90
:1038B000F7D22846BDE8F0817C0200202DE9F041D6
:1038C0001E46069C1746884605463A46A8687F1C51
:1038D0003346D0F804C041462846E047641EF4D180
:1038E000BDE8F08170B5B0F90040091BB0F90440A3
:1038F0008C422CDD00F11404B0F902500069521B17
:1039000002FB0040CA1800EBE104521ED010B0EBDD
:10391000E10501F007034FF0FF0102F0070221FA71
:1039200003F0C2F1070201FA02F1CEB221780FD002
:1039300001436D1E04F8011B002D05DDFF22294601
:103940002046FCF778FE2C4420783043207070BD70
:1039500030400143217070BD10B5B0F90030B0F9AE
:103960000240C91A00F114030069121B02FB003067
:1039700000EBE10001F0070302788021D9400A43FF
:10398000027010BDB0F90610026951431430FCF703
:103990005ABE00002DE9F843804602F10F000011E5
:1039A000470003FB07F01C46154689461430FEF716
:1039B00022F9060018D0FEF7AFFE3046FEF7E0F918
:1039C0000090A0F80080A0F802908580C48007498C
:1039D00081600121818107616846FEF70FFA00F0DE
:1039E0007DF83046BDE8F8830020FBE778D5010874
:1039F00070B5B0F90660B0F904400B6800F1140529
:103A0000964220DD0069A34202FB005000EBE30276
:103A100019DAA4F101044FEAE400A0EBE30512F87F
:103A2000010B03F0070400FA04F0C4B208E055B13A
:103A300012F8014B03F10803A5F1010523F0070378
:103A4000002CF4D008E0002070BD00BF4FEA4460B5
:103A50004FEA106403F101032006F7D5FF2C0AD0CA
:103A6000184605E04FEA44644FEA146400F101008F
:103A70006606F7D400E0D81DC443640706D007E00B
:103A800012F8014BFF2C0FD100F108006D1EF7D585
:103A9000A0EB030000F101000B6070BD4FEA44622F
:103AA0004FEA126400F101002206F7D4F0E738B5BE
:103AB0000546FEF731FE2846FEF762F9009081893F
:103AC000491E0CB284816846FEF798F914B928465D
:103AD000FEF7B0F800F002F838BD00000348C168F6
:103AE000491EC16001D100F05BB87047FC020020A4
:103AF00010B54FF48031002011F080F904464FF4E6
:103B000080312046FEF78EF88020FEF761F90248EA
:103B1000FFF7C4FB10BD00006CD0010870B504466F
:103B20004FF47A7060434FF47A71B0FBF1F5284698
:103B300003F08AF870BD10B50120FFF7EFFF10BD4C
:103B40000248006890F8320070470000E80000204A
:103B500010B503F0E5F810BD10B5002002F058FCD8
:103B60000149086010BD0000B000002010B5012020
:103B700002F04EFC03490860002002F0D3FB02492A
:103B8000086010BDA8000020AC00002008B56A46FF
:103B900000210248006802F061FC08BDA800002076
:103BA00010B50248006802F0CFFC10BDA80000204C
:103BB0000EB508B102AA00E00022002301A9684660
:103BC00000F0CEFB0EBD0000074910B5CC6818B15F
:103BD0000120C860801E03E00020C8606FF07F40B5
:103BE00000F080FE204610BDDC02002010B5082A3F
:103BF0000EDC0346012A1AD0022A58D0042A78D0B3
:103C000010F8042B03F8012B491EF9D1012010BD37
:103C1000102A0ADC0222022AF8D1024630F8043BBC
:103C200022F8023B491EF9D1F0E7002010BD10F840
:103C3000042BD207120E491E34D010F8044B491E33
:103C400004F0010442EA84122CD010F8044B491EFF
:103C500004F0010442EA441224D010F8044B491E37
:103C600004F0010442EA04121CD010F8044B491E6F
:103C700004F0010442EAC40214D010F8044B491EB7
:103C800004F0010442EA84020CD010F8044B491EEF
:103C900004F0010442EA440204D010F8044B04F09A
:103CA0000104224303F8012B0029C0D1AEE710F82C
:103CB000042B9207120E491E15D010F8044B491E12
:103CC00004F0030442EA04120DD010F8044B491E1C
:103CD00004F0030442EA840205D010F8044B04F017
:103CE00003042243491E03F8012B0029DFD18DE78D
:103CF000FFE710F8042B1207120E491E05D010F82A
:103D0000044B04F00F042243491E03F8012B002941
:103D1000EFD17BE72DE9F0411E680D460446082AE5
:103D200009DC0746012A21D0022A62D0042A7CD06D
:103D3000082A1AD195E0102A03DC02200228F8D1C3
:103D400002E00020BDE8F081D3F810C02746BCF1A6
:103D5000000F04D00A462146022308468AE001CC1F
:103D6000B04727F8020B6D1EF9D18BE001CCB047AC
:103D7000C0074FEA10686D1E36D001CCB04748EA44
:103D8000801000F0FF086D1E2ED001CCB04748EA2D
:103D9000401000F0FF086D1E26D001CCB04748EA65
:103DA000001000F0FF086D1E1ED001CCB04748EA9D
:103DB000C00000F0FF086D1E16D001CCB04748EAE5
:103DC000800000F0FF086D1E0ED001CCB04748EA1D
:103DD000400000F0FF086D1E06D001CCB04740EA5D
:103DE000080000F0FF086D1E07F8018B002DBDD103
:103DF00048E001CCB04780074FEA10686D1E18D02C
:103E000001CCB04748EA001000F0FF086D1E10D04A
:103E100001CCB04748EA800000F0FF086D1E08D0D2
:103E200001CCB04740EA080000E007E000F0FF08DE
:103E30006D1E07F8018B002DDBD123E001CCB047CC
:103E400000074FEA10686D1E06D001CCB04740EA6B
:103E5000080000F0FF086D1E07F8018B002DEDD162
:103E600010E0D3F810C0BCF1000F05D00A4601469F
:103E700001233846E04705E001CCB04707F8010BC5
:103E80006D1EF9D101205DE70A4810B5816900294E
:103E90000ED101218161FFF72BFE01F065FF05497D
:103EA00005481C310860BDE81040084600F0FEBB24
:103EB00010BD00006C020020A12B01087CB5064655
:103EC00028480D46006868B100200BF097F806E01E
:103ED0006A46294630460BF051FF0BF051F8002896
:103EE000F6D17CBD106800901F4C5068019022688C
:103EF000BDF8000032F84C1F0844ADF80000BDF8D2
:103F0000020091880844ADF80200BDF80400118851
:103F10000844ADF80400BDF8060091880844ADF8E7
:103F2000060068460BF06AF80EE000BF2068BDF896
:103F300000106A464184BDF802108184294630464B
:103F40000BF01CFF0BF01CF80028EFD1206830F8B4
:103F5000221F428D891A01804188C28D891A4180B1
:103F60007CBD0000A40200207802002049B1002896
:103F700002DAA0EB610001E000EB610090FBF1F0E0
:103F800070470020704700002DE9FF4F00208BB0E4
:103F900004460146009019981D461646016007AB7D
:103FA000002203A902A800F0DBF918B100200FB02D
:103FB000BDE8F08F0798854200DD05465C4F0A9505
:103FC0005C493868407C51F82010049109690691D9
:103FD000FEF7ACFA05903868407CFEF74DFB564979
:103FE0008146884204D05549894501D0012000E02E
:103FF0000020099001CE1899884782465FEA106B2D
:1040000071D0009870BB0B9800EB0408484800681A
:10401000B0F90800404503DDA0EB0807804600E04A
:1040200000270299049801EB840101EB8701CDE997
:104030000010DDE90A010A180C9B0892521E19466D
:104040004046FFF745F801200090059818280ADA45
:104050000298DDE9052300EB840000EB8700E91BF3
:1040600000F0DEF810E0099870B1029800EB8400CF
:1040700000EB87070898A0EB08084946386888478E
:1040800001C7B8F10108F8D12D48C06960B3DDE976
:10409000020700EB840007EB8402CDE90202284C02
:1040A000361F2B46E46930460299A047FF2031684D
:1040B000B0EB116F02D10299096804E0029A12680C
:1040C000B0EB126F01D1039A11600299361D091DE0
:1040D00002910399091D03916D1EE8D119990120E0
:1040E000039708601DE01EE0FFE7BBF1FF0F0ED055
:1040F0000298CBF1FF0250F82410504600F07CFAF1
:10410000039941F8240019990120086005E00298FC
:10411000039950F8240041F82400641C6D1E7FF4BC
:1041200069AF039843E7039941F824A0EBE7000047
:10413000780200209002002073510008715100089D
:1041400090030020F0B500EB8104082A0ADC012668
:104150004D1E092A14D2DFE802F013142A424259F4
:1041600059595900102A0BDC0222022A08D100EB0F
:10417000410000BF30F8022D44F8042D491EF9D14A
:10418000F0BD05F00702C2F1070200EBE50006FAF8
:1041900002F503782B40D340521C44F8043DA0EBB9
:1041A000E20022F007031A41491EF0D1F0BD05F0EC
:1041B0000302C2F1030200EBA500032305785600B9
:1041C00003FA06F73D40F540521C44F8045DA0EBAD
:1041D000A20022F003052A41491EEFD1F0BD8E4313
:1041E000C6F1010200EB65000F230578960003FA83
:1041F00006F73D40F540521C44F8045DA0EB620018
:1042000022F001052A41491EEFD1F0BD00EB01006B
:10421000491E10F8012D44F8042DF9D1F0BD00001D
:104220002DE9F05F0C1E16DD5E68014600EB84058B
:10423000082A12DC611E012A28D0022A48D0042A4A
:104240006AD0082A07D1071917F8010DB04745F8B9
:10425000040D641EF8D1BDE8F09F102AFBDC022299
:10426000022AF8D15F693FB12246BC46BDE8F04F53
:1042700002235DF804EB604701EB440737F8020DB9
:10428000B04745F8040D641EF8D1E4E700EBE10007
:104290002D1F10F801A9814601F00707802020FAA0
:1042A00007F800BF0AEA0800C7F10701C840B04795
:1042B00045F804093FB17F1E4FEA4860000E804672
:1042C000641EEFD1C7E7072719F801A90120F6E717
:1042D00000EBA1002D1F01F0030710F801A9814692
:1042E0007900C02020FA01F84FF0060B0AEA080016
:1042F000ABEB4701C840B04745F804093FB17F1E0A
:104300004FEA8860000E8046641EEFD1A3E70327C2
:1043100019F801A93846F6E700EB610001272D1FC7
:10432000A74310F801A98146B900F02020FA01F84E
:104330004FF0040B0AEA0800ABEB8701C840B04716
:1043400045F804093FB17F1E4FEA0870000E804611
:10435000641EEFD17FE7012719F801A90F20F6E7C6
:104360002DE9F047204C06461F46A0699046894635
:10437000002540B90120A06104F120011B4808601C
:10438000084600F093F9606910B900F09EFE606184
:1043900007B138604EB1A06830B960698000FDF7A0
:1043A00073FCA06000B901253060B9F1000F0AD09C
:1043B000E06830B960698000FDF766FCE06000B934
:1043C0000125C9F80000B8F1000F0AD0206930B902
:1043D00060698000FDF758FC206100B90125C8F82C
:1043E00000002846BDE8F08790030020612C0108FA
:1043F00073B5124A01A900981268904700240090F2
:10440000C8B10F4900250968C969496959B10A68E5
:104410004AB1019990477CBD6846FFF725FA0546E9
:10442000FEF79AF804440198401E0190F4D52846FE
:1044300000F032F8044420467CBD0000F803002060
:104440007802002073B50D460098002490B10A4907
:104450000968C969496959B14A684AB1294690470A
:104460007CBD6846FFF700FA20B10A2802D0641C20
:10447000AC42F6DB20467CBD78020020044AB2F94B
:10448000002002600348B0F9000008607047000097
:10449000A8020020AA02002038B500246946009432
:1044A000FEF76CF80099814200DD0C1A204638BDF9
:1044B000B0F90030B1F90020934200DA0280B0F97F
:1044C0000230B1F90220934200DA4280B0F90430A0
:1044D000B1F90420934200DD8280B0F90620B1F9E1
:1044E00006108A4200DDC180704770B5B1F9004006
:1044F000B2F900309C4200DD23460380B1F902503E
:10450000B2F90240A54200DD2C464480B1F90460B6
:10451000B2F90450AE4200DA35468580B1F9061092
:10452000B2F90620914200DB1146C1809D4201DBB9
:10453000A14201DA002070BD012070BD0146024891
:104540000068407C00F002B878020020F8B501262F
:104550000F46054602284BDA264C5FB3012F02D0E6
:10456000022F45D116E054F8250088B92846FDF7FA
:10457000C7FD0090B8B3C0680D21426A68469047F5
:10458000020035D039460098904754F8250000269F
:10459000401C2BE0FDF7B4FD009020B3C0680D2156
:1045A000426A68469047020022D0394600989047F8
:1045B00000261DE054F8250001280FD12846FDF7FC
:1045C0009FFD009050B1C0680D21426A6846904737
:1045D000020003D0394600989047002654F8250081
:1045E00010B1012101E003E00021401A44F8250048
:1045F0003046F8BDB803002070B5FF23B3EB116F50
:104600002CD0C3B213FB02F500F47F4400F47F0307
:1046100054435343000E10FB02F6C2F1FF00CAB22E
:1046200012FB005201F47F4505FB004401F47F05B5
:1046300005FB0033090E11FB0065C2F307204FF4A0
:104640007F024FF47F4102EA132201EA14214FF066
:104650007F43084303EA05431043184370BD2DE927
:10466000F04F1546DDE90CB90C4606464FF0000840
:1046700018E00B9F4FF0FF0A01CE08CCAAEB1062A6
:1046800002FB09F2B2FBFAF1CAB21946FFF7B4FF16
:1046900020F07F4001C57F1EEED1099808F1010886
:1046A00004EB8004D845E4D3BDE8F08F02494A69A1
:1046B00042604861704700006C02002010B502E0C3
:1046C00000F8011B521E0AB18307F9D1930818D0D4
:1046D00001EB014402F0030204EB042405E0046052
:1046E00044608460C46010301B1F042BF7DA01E0C3
:1046F00010C05B1E002BFBD103E000BF00F8011BC4
:10470000521E002AFAD110BD10B5830702D520F839
:10471000021B521E530810D001EB0144042B08DB8E
:10472000046044608460C46010301B1F042BF7DAFF
:1047300001E010C05B1E002BFBD1D20700D001802E
:1047400010BD00BFFEE700007CB504460025002038
:10475000019000905F48008800045F4908600D20C8
:104760004860402088600020C8604FF48060086185
:10477000084603F095F959480068009002E0574850
:1047800000680090009800F045000028F7D00098DD
:1047900000F0040028B10325042003F0E1F82846C6
:1047A0007CBD009800F0010028B10125012003F034
:1047B000D7F82846F4E703F01BF9009000980D287D
:1047C00002D010252846EBE740F2FF5003F0C8F86E
:1047D000002003F027F901900198C0F343202070D6
:1047E0003F490198084008B92846D9E7019800F0E8
:1047F000004008B11C20D3E7019800F0804008B1C8
:104800000920CDE7019800F0005008B10A20C7E761
:10481000019800F0805008B10B20C1E7019800F02A
:10482000006008B10C20BBE7019800F0806008B17F
:104830000D20B5E7019800F0807008B10E20AFE7B9
:10484000019800F4000008B10F20A9E7019800F4D6
:10485000800008B11020A3E7019800F4001008B10F
:1048600011209DE7019800F4801008B1122097E70D
:10487000019800F4002008B1132091E7019800F49A
:10488000802008B114208BE7019800F4003008B1B3
:10489000152085E7019800F4803008B116207FE7E5
:1048A000019800F4004008B1172079E7019800F45E
:1048B000804008B1182073E7019800F4005008B157
:1048C00019206DE7019800F0080008B11A2067E789
:1048D000284665E75000002040290020342C014084
:1048E00008E0FFFD02490A680860104670470000B2
:1048F000E003002030B5014601F01F04C1F3451369
:10490000CA0AE50205EB43151544A8B230BD000004
:1049100070B5044600261748058840884543154869
:10492000808846F60401884216D112488079012811
:1049300012D100200F4988712A2048812B208881BC
:104940000021084600F0DCFF01200A4988712B2075
:1049500048812A20888103E00021084600F0D0FF2A
:1049600001F0EEF9002602E003480480761CAE4216
:10497000FAD370BD18290020000008600449054AD8
:104980000968497C52F82110096909680847000044
:10499000780200209002002010B50446002C52D16D
:1049A00058498871F02008804FF4A070488008466C
:1049B000808849F2413188420BD05248808846F6BF
:1049C0000401884205D04F48808845F21031884262
:1049D0001AD12C204B4908812A2048812B2088811C
:1049E0000846808846F60401884205D045488088FC
:1049F00045F21031884206D14FF4A0704149088039
:104A00004FF4F070488079E03E48808845F21051BC
:104A1000884210D14FF430503A4908814FF4285061
:104A200048814FF42C5088814FF4F07008804FF487
:104A30004870488062E02220324908812020488165
:104A4000212088815AE001202E4988714FF4A070FE
:104A50000880F02048800846808849F24131884229
:104A600005D02848808845F21031884207D12C2093
:104A7000244908812A2048812B2088812BE0214865
:104A8000808846F60401884207D12C201D49088100
:104A90002B2048812A2088811DE01A48808845F211
:104AA0001051884210D14FF43050164908814FF40C
:104AB000285048814FF42C5088814FF4487008806A
:104AC0004FF4F070488006E022200E490881212032
:104AD0004881202088810B48808846F6040188425E
:104AE00005D00848808845F21031884206D14FF43D
:104AF000F070044908804FF4A0704880002000F056
:104B000039FD10BD182900202DE9F04F05468DB064
:104B10007C48DDF860901A9C00681E4617464FF0EE
:104B2000000A78B11B9B199ACDF808900593CDE93E
:104B30000324DDE91623CDE90023046833463A4611
:104B4000284682E0DDE9160201EB060805EB070CBA
:104B50001043A8F10108ACF1010C012806D0C9F1FD
:104B600008000590002002910890C8E0664802689D
:104B7000B2F90A30581A002806DD361A002E65DD13
:104B80001946199B00FB0344B2F90E00A8EB000084
:104B9000002802DD361A002E58DDB2F90C00ACEB0D
:104BA0000000002800DD3F1AB2F908300020AB42B7
:104BB00037DD581B3F1A4B46B9F1080F28D007DCE8
:104BC000012B0DD0022B13D0B9F1040F29D117E01E
:104BD000102B1FD0182B20D0B9F1200F21D11CE0B1
:104BE00020F0070304EBE0041D4400F0070018E088
:104BF00020F0030304EBA0041D4400F0030010E0C8
:104C000020F0010304EB60041D4400F0010008E003
:104C1000044404E004EB400401E004EB8004054498
:104C20000020002F12DD1B9BDDF864C0CDE90403DA
:104C3000CDE902C4CDE90069527C34483B4650F8C6
:104C40002200C26854680A462946A0470DB0BDE854
:104C5000F08F17990298084409902B49401E009044
:104C60000A68B2F90A30834241DCB2F90E100298A8
:104C700081423CDB4FF0000BD84603950B9434E0A7
:104C8000BBF1000F05D10B984FF0080B10F801ABEA
:104C90000B900599ABEB090B3AFA01F00AFA09F10E
:104CA00001F0FF0A04D118490968097C890716D464
:104CB00015490968C96B0A680C921B9A0AB152F827
:104CC0002000086016990398009B4218521E029912
:104CD00000F076F90C490C980968C96B08600399D3
:104CE000169808F1010808440390B845C8DB0898F5
:104CF000401C089009980290199804440898B04202
:104D0000A7DBA3E7A4020020780200209002002085
:104D1000F0B40C4612490968B1F90A30A3421CDC10
:104D2000B1F90E30A34218DBB1F90830834200DD3F
:104D30001846B1F90C30934200DA1A4682420CDB75
:104D40004B7C084951F8235013462246E9688E6887
:104D500001462846B446F0BC6047F0BC70470000EE
:104D600078020020900200202DE9FF4F84B0814698
:104D70008A460020039002900698A0EB0905079848
:104D8000A0EB0A06CDF80490CDF800A0002D01DDBF
:104D9000012705E00DB9002702E04FF0FF376D4213
:104DA000002E02DD4FF0010806E016B94FF00008B2
:104DB00002E04FF0FF387642B54201DD2C4600E0BC
:104DC00034464FF0000B21E0009A91B2019A90B264
:104DD00000F056F80398284403900298304402905B
:104DE0000398A04205DD0398001B03900198384406
:104DF00001900298A04205DD0298001B02900098E5
:104E0000404400900BF101001FFA80FB601C8345B9
:104E1000DADD08B0BDE8F08F0A46174930B40968FA
:104E2000B1F90A30934225DCB1F90E30934221DB0F
:104E3000B1F9083083421DDCB1F90C30834219DB33
:104E40000B7C0E4CDB0709D0497C54F82130D96823
:104E5000CC690146A44630BC18466047CB6B497C00
:104E60001B6854F82140E1688D6901462046AC4634
:104E700030BC604730BC70477802002090020020B0
:104E800030B504460D462946204600F039FD00F0B5
:104E900057FF024800880249088030BD000000200A
:104EA0000000086070B504460D46164642488088EA
:104EB00049F24131884205D03F48808845F210319F
:104EC000884214D13C49488900F02EFF201200F09E
:104ED0001FFFE0B200F01CFF3749888900F024FF73
:104EE000281200F015FFE8B200F012FF5DE0324832
:104EF000808845F21051884220D12F49488900F01E
:104F000013FF201200F004FF2B494989491C88B285
:104F100000F00AFFE0B200F0FBFE2749888900F0AC
:104F200003FF281200F0F4FE23498989491C88B246
:104F300000F0FAFEE8B200F0EBFE36E01E48808892
:104F400046F6040188421DD11B488079012804D10E
:104F500019480088401E001B84B21749488900F098
:104F6000E3FE201200F0D4FEE0B200F0D1FE1249C0
:104F7000888900F0D9FE281200F0CAFEE8B200F0DD
:104F8000C7FE12E00C488079012804D10A48008845
:104F9000401E001B84B208494889214600F0DAFE11
:104FA00005498889294600F0D5FE03480089034950
:104FB0000880881C068070BD18290020FEFF07604D
:104FC00038B5134C2468B4F90850854200DD2846F2
:104FD000B4F90C50954200DA2A46824217DBB4F944
:104FE0000A508D4200DD2946B4F90E509D4200DA88
:104FF0002B468B420BDB0093647C064B53F824401A
:10500000E3681D6913460A4601462046A84738BD95
:10501000780200209002002008210DF0F7B900006E
:1050200002480068806B006870470000780200202A
:1050300002480068C06B00687047000078020020DA
:10504000024809210068407C0DF0E0B97802002098
:1050500009210DF0DBB970B500252C462046FDF77F
:105060004FF800B16D1C641C022CF7DB284670BDA4
:1050700002480068407C00F003B80000780200207D
:1050800010B5FDF73DF8002805D0C168CA6ABDE833
:1050900010400221104710BDF8B515460E460124F8
:1050A000FDF72EF8009058B1C0680421426A6846A6
:1050B0009047030004D02A463146009898470024C0
:1050C0002046F8BD03210DF0A1B903200DF04CBA24
:1050D00004210DF09BB90000024801210068407CCA
:1050E0000DF094B97802002001210DF08FB9000075
:1050F000024802210068407C0DF088B97802002047
:1051000002210DF083B900F001B800002DE9F04153
:10511000002809D0876837B10D4E716819B104684D
:10512000B4F5807F02DD0020BDE8F0813068844264
:1051300000DD0446002507E057F82500FFF71EFCB8
:10514000716841F825006D1CA542F5DB7068EBE73E
:10515000240300200449054A0968497C52F82110BB
:105160000969496808470000780200209002002081
:105170007047704710B500F01F01074A074BC0F396
:105180004514C0F3C4201B5D105C515C00EB032090
:1051900000EB014010BD000004D3010824D3010836
:1051A00010B50A4C606860B920688000FCF76CFD9F
:1051B000606040B104F10801054808600846FFF747
:1051C00075FA002010BD012010BD0000240300204E
:1051D000192C01082DE9F041FFF73DFF0746002596
:1051E00028E02846FCF78CFF18B32846FDF7ECFFB3
:1051F00080462846FFF710FF082817DC0F481049A3
:1052000050F825000069884210D02846FFF720FF9B
:105210000646002408E0E0B2FFF79CFF0246E1B238
:10522000284600F0F9FB641CB442F4DB4046FDF76D
:10523000CBFF6D1CBD42D4DBBDE8F08190020020A5
:10524000D4D4010810B50246012000E050430B1EE3
:10525000A1F10104E1B2F9D110BD000008B5034885
:1052600000880090BDF8000008BD00000000086044
:105270002DE9F04105460E4600240027A0464F4880
:105280000088A84203DD4D484088B04202DC00207F
:10529000BDE8F0813146284600F032FB474880885F
:1052A00049F2413188420BD04448808846F60401D7
:1052B000884205D04148808845F21031884203D1A8
:1052C0002E2000F031FD0DE03C48808845F2105161
:1052D000884204D14FF4385000F026FD02E022202D
:1052E00000F022FD3548808849F22031884202D101
:1052F00002200FF0A1FD3248008800B100240220F6
:105300000FF09AFD2E4804882C48808849F24131DC
:1053100088420BD02948808845F21031884205D058
:105320002648808845F2105188420AD102200FF0A9
:1053300083FD2348B0F80080E7B24FF6FF7000EA23
:1053400007271E48808849F22531884216D01B481D
:10535000808844F23551884210D018488088091F4F
:1053600088420BD0154880884BF20551884205D001
:10537000124880884CF20551884201D1204687E7C7
:105380000E48808849F2413188420BD00B48808812
:1053900045F21031884205D00848808845F2105106
:1053A000884207D1E012C002B91240EA411040EA37
:1053B000E8206DE72046FFF79DFA69E718290020ED
:1053C000000008602DE9FF4F83B01646DDE910406C
:1053D0008B46C0684769426A7AB1012111A890479B
:1053E00005000AD00698CDE9000433465A460399D1
:1053F0001198A84707B0BDE8F08F57480068407C77
:10540000FDF794F88246082801DC012005E0BAF196
:10541000100F01DC022000E004208046002596E009
:105420004046B8F1010F05D0022871D0B8F1040F41
:1054300025D17CE0BAF1090F21D2DFE80AF0860518
:10544000213F3F5959595900039815E001465A46E2
:105450001198B847C5F1070188404FF67F7221784F
:10546000EA40114001436D1C217004EBE50425F076
:105470000700054109F101008146B042E6DD64E024
:10548000039817E001465A461198B8470621A1EB48
:10549000450188406B004FF63F722178DA40114099
:1054A00001436D1C217004EBA50425F003000541A8
:1054B00009F101008146B042E4DD46E0039813E0C3
:1054C00001465A461198B8470421A1EB850188404E
:1054D0002178AB000F229A401140014321702C44E7
:1054E00085F0010509F101008146B042E8DD2CE0BC
:1054F000DDF80C9007E001465A461198B847207035
:1055000009F1010944444846B145F4DD1DE0FFE7D7
:10551000DDF80C9007E001465A461198B847208004
:1055200009F1010944444846B145F4DD0DE0DDF8D8
:105530000C9007E001465A461198B847206009F1DF
:10554000010944444846B145F4DD0BF1010B0699CD
:105550008B457FF765AF4DE77802002001B5BDF8B8
:10556000000000F0E1FB05200EF010FFFFF776FED3
:1055700008BD0000F0B5054600240027A948807941
:1055800001281ED1A748808846F60401884218D019
:10559000082D15D2DFE805F00406080A0C0E1012DB
:1055A00006250DE007250BE0042509E0052507E0A9
:1055B000012505E0002503E0032501E0022500BFE9
:1055C00000BF9848808849F24131884211D09548FF
:1055D000808846F6040188420BD09248808845F2C4
:1055E0001031884205D08F48808845F2105188429A
:1055F0007ED1082D1CD2DFE805F00406090C0F123D
:10560000151800BF14E044F0800411E044F0400499
:105610000EE044F0C0040BE044F0200408E044F045
:10562000600405E044F0A00402E044F0E00400BFA0
:1056300000BF7C48808845F21051884202D14FF467
:10564000585700E036277748808845F21031884265
:1056500007D07448808845F21051884201D044F048
:1056600008047048808846F60401884201D144F05D
:1056700002042146384600F06DFB04F0200018B902
:105680006848807901280DD16648008865494988B5
:10569000884214DA634806884088624908800846D0
:1056A00046800CE05F4800885E494988884206DDF4
:1056B0005C48068840885B4908800846468059480F
:1056C000808845F21051884254D15649488900F0EB
:1056D0002BFB002000F01CFB52494989491C88B271
:1056E00000F022FB002000F013FB4E49498900E046
:1056F0006FE0891C88B200F017FB4A490988491EEF
:10570000C1F30F2000F004FB46494989C91C88B247
:1057100000F00AFB43490978491EC8B200F0F8FAC4
:105720004049888900F000FB002000F0F1FA3D4973
:105730008989491C88B200F0F7FA002000F0E8FAE5
:1057400038498989891C88B200F0EEFA35494988C0
:10575000491EC1F30F2000F0DBFA32498989C91CC8
:1057600088B200F0E1FA2F498978491EC8B200F0EA
:10577000CFFA55E02B49488900F0D6FA002000F016
:10578000C7FA002000F0C4FA26490988491EC1F36F
:105790000F2000F0BDFA23490978491EC8B200F075
:1057A000B7FA2049888900F0BFFA002000F0B0FA6B
:1057B000002000F0ADFA1B494988491EC1F30F20B3
:1057C00000F0A6FA17498978491EC8B200F0A0FA7D
:1057D00026E0082D1CD2DFE805F004070A0D0F12A1
:1057E000151844F0300413E044F0100410E044F0C5
:1057F00020040DE000BF0BE044F0380408E044F062
:10580000280405E044F0180402E044F0080400BF56
:1058100000BF032744F480542146384600F09AFA2A
:10582000F0BD00001829002010B50E4C0E4920686C
:10583000407C51F8200050B1C1680968042903D0A8
:1058400000680028F8D102E008B1FCF722FC2068CB
:105850000021016600F108014161BDE8104000F03F
:105860002FB800007802002090020020014909684A
:105870004968084720030020044909680A7C520748
:1058800001D5C96B00E0896B086070477802002081
:105890007CB5094C05462068417C084850F8210039
:1058A000C1680A6B6946904720686A4629460830F5
:1058B000FEF71BFE7CBD0000780200209002002055
:1058C0000448016804484A7C083150F82200C26844
:1058D000126B1047780200209002002001490968ED
:1058E0000968084720030020044909680A7C520718
:1058F00001D5896B00E0C96B086070477802002011
:1059000030B504460D464048808849F2413188420E
:1059100005D03D48808845F21031884214D13A497B
:10592000488900F001FA201200F0F2F9E0B200F02C
:10593000EFF93549888900F0F7F9281200F0E8F905
:10594000E8B200F0E5F95DE02F48808846F60401F2
:1059500088421DD12C488079012804D12A4800882A
:10596000401E001B84B22849488900F0DDF920124E
:1059700000F0CEF9E0B200F0CBF92349888900F0BD
:10598000D3F9281200F0C4F9E8B200F0C1F939E007
:105990001D48808845F21051884220D11A49488913
:1059A00000F0C2F9201200F0B3F917494989491CE7
:1059B00088B200F0B9F9E0B200F0AAF9124988897A
:1059C00000F0B2F9281200F0A3F90F498989491CA7
:1059D00088B200F0A9F9E8B200F09AF912E00A489A
:1059E0008079012804D108480088401E001B84B239
:1059F00005494889214600F0ADF9034988892946BF
:105A000000F0A8F930BD00001829002001490968FC
:105A10008968084720030020F8B515460E46012482
:105A2000FCF76EFB009058B1C0681021426A6846CE
:105A30009047030004D02A46314600989847002436
:105A40002046F8BDF8B515460E460124FCF758FB74
:105A5000009058B1C0680321426A6846904703002D
:105A600004D02A4631460098984700242046F8BDC5
:105A7000F8B515460E460124FCF742FB009058B1DC
:105A8000C0680B21426A68469047030004D02A464A
:105A900031460098984700242046F8BDF8B51546D1
:105AA0000E460124FCF72CFB009058B1C0680A2177
:105AB000426A68469047030004D02A46314600985F
:105AC000984700242046F8BD2DE9F84F0746884640
:105AD00016461C46C3462046E31704EB5373DB10FF
