:10623500EF1FAC0670011E4C600500000080F122C6
:0662F4009003D9EFF02237
:1060DB004395045396FB5395E543961A53A2F74306
:0C60EB00A204E4F5CF75CDC075CED02224
:0762E60053CEFC43CE03225E
:0400960053CEFC2227
:1060BD009004C9E0FCA3E0FDA3E0FEA3E0FF1209FC
:0160CD00C012
:0D60CE008FCFE5CD30E7FB75CDC0AFCF2201
:105FE000E4FDFCC2A47F901260CEE4FF1260CEE418
:105FF000FF1260CEE4FF1260CE7FFF1260CEEFFC96
:096000007FFF1260CED2A4AE04B1
:016009002274
:0E626500C2A47F051260CE7FFF1260CED2A4CD
:016273002208
:10622400AE07C2A47F011260CEAF061260CED2A424
:016234002247
:0A62C000C2A47F061260CED2A42211
:0A62CA00C2A47F041260CED2A42209
:065E6E009004C9120AAC09
:105E7400C2A47F031260CE78101260BD780812604D
:105E8400BD9004C9E0FCA3E0FDA3E0FEA3E0FF1283
:0E5E940060CE7FFF1260CE9004D1EFF0D2A45A
:015EA20022DD
:0F572E009003C4EBF0A3EAF0A3E9F0A3120AACD6
:10573D00C2A47F031260CE9003C7E0FCA3E0FDA3DB
:10574D00E0FEA3E0FF78101209C01260CE9003C7EF
:10575D00E0FCA3E0FDA3E0FEA3E0FF78081209C082
:10576D001260CE9003C7E0FCA3E0FDA3E0FEA3E032
:10577D00FF1260CEE4FDFCD39003CCE09D9003CBF3
:10578D00E09C401F7FFF1260CE9003C4E0FBA3E0BE
:10579D00FAA3E0F98D828C83EF1207C60DBD0001CF
:0557AD000C80D4D2A421
:0157B20022D4
:0F45E7009004A6EBF0A3EAF0A3E9F0A3120AAC4C
:1045F6009004AF120AB8000000009004A9A3A3E03B
:10460600FEA3E0FFEE540FFEE4C39FFF74109EFE70
:104616009004B3F0A3EFF09004ADE0FCA3E0FDD36B
:104626009FEC9E50089004B3ECF0A3EDF09004A923
:10463600E0FCA3E0FDA3E0FEA3E0FF780C1209C0B6
:104646009004AF120AAC9004AFE0FCA3E0FDA3E037
:10465600FEA3E0FF1257B39004A9E0FCA3E0FDA37C
:10466600E0FEA3E0FF9004B3E0FBA3E09004BCCB24
:10467600F0A3EBF09004A6E0FBA3E0FAA3E0F912A6
:1046860058E19004B3E0FEA3E0FF9004ADE0B50668
:1046960006A3E0B50701229004B3E0FEA3E0FF9075
:1046A60004A7EE8FF01208309004A9E0F8A3E0F911
:1046B600A3E0FAA3E0FBE4FCFDEB2FFFEA3EFEEDF0
:1046C60039FDEC38FC9004A9120AAC9004B3E0FE64
:1046D600A3E0FFC39004AEE09FFF9004ADE09EFE12
:1046E600F0A3EFF0D39400EE9410400C9004B37452
:1046F60010F0A3E4F00246339004ADE0FFA3E0908F
:0A47060004B3CFF0A3EFF002463336
:10004600AB071262C0C2A47F021260CE9004C5E064
:10005600FCA3E0FDA3E0FEA3E0FF78101209C012A6
:1000660060CE9004C5E0FCA3E0FDA3E0FEA3E0FFA4
:1000760078081209C01260CE9004C5A3A3A3E0FFBE
:0D0086001260CEAF031260CED2A4020003C0
:0F51F7009003E4EBF0A3EAF0A3E9F0A3120AACF3
:105206009003E7E0FCA3E0FDA3A3E0FFE4C39FFF58
:1052160074019400FED39003ECE09F9003EBE09EB4
:105226004005EEF0A3EFF01262C0C2A47F02126046
:10523600CE9003E7E0FCA3E0FDA3E0FEA3E0FF7849
:10524600101209C01260CE9003E7E0FCA3E0FDA3B4
:10525600E0FEA3E0FF78081209C01260CE9003E7D3
:10526600A3A3A3E0FF1260CEE4FDFCD39003ECE021
:105276009D9003EBE09C401D9003E4E0FBA3E0FA65
:10528600A3E0F98D828C83120787FF1260CE0DBDD5
:0A52960000010C80D6D2A402000330
:0F58E1009004B5EBF0A3EAF0A3E9F0A3120AAC30
:1058F0009004B8A3A3E0FEA3E0FFEE540FFEE4C3C0
:105900009FFF74109EFED39004BDE09F9004BCE006
:105910009E4005EEF0A3EFF09004B8E0FCA3E0FD9C
:10592000A3E0FEA3E0FFA3E0FBA3E09003E0CBF045
:10593000A3EBF09004B5E0FBA3E0FAA3E0F9024C7E
:0159400081E5
:0F4C81009003D9EBF0A3EAF0A3E9F0A3120AAC79
:104C90009003DCA3A3A3E0FFE4C39FFF740194008F
:104CA000FE9003E2F0A3EFF09003E0E0FCA3E0FD50
:104CB000D39FEC9E5006A3ECF0A3EDF09003DCE054
:104CC000FCA3E0FDA3E0FEA3E0FF9003E2E0FBA372
:104CD000E09003EBCBF0A3EBF09003D9E0FBA3E073
:104CE000FAA3E0F91251F79003E2E0FEA3E0FF908F
:104CF00003E0E0B50606A3E0B50701229003E2E079
:104D0000FEA3E0FF9003DAEE8FF01208309003DC90
:104D1000E0F8A3E0F9A3E0FAA3E0FBE4FCFDEB2F4D
:104D2000FFEA3EFEED39FDEC38FC9003DC120AACE4
:104D30009003E2E0FEA3E0FFC39003E1E09FFF9059
:104D400003E0E09EFEF0A3EFF0D39400EE94014068
:104D50000AA37401F0A3E4F0024CBC9003E0E0FF6E
:0B4D6000A3E0A3CFF0A3EFF0024CBCD7
:1057B3009003D9120AAC9003D9E0FCA3E0FDA3E067
:1057C300FEA3E0FF780C1209D39003D9120AAC129E
:1057D30062C0120003C2A47F201260CE9003D9E0FE
:1057E300FCA3E0FDA3E0FEA3E0FF78101209C012C2
:1057F30060CE9003D9E0FCA3E0FDA3E0FEA3E0FFAD
:1058030078081209C01260CE9003D9A3A3A3E0FFC6
:085813001260CED2A4020003D2
:106200001262C0120003C2A47FC71260CED2A402E1
:02621000000389
:08000300126265EF20E0F92212
:10624500C2A47FB91260CED2A47F037E000262355C
:10625500C2A47FAB1260CED2A47F037E000262355A
:10000E007401A807088002C333D8FCF59DE4F5BD42
:05001E0075BC80FF220B
:10600A00AE0712000EEE4488F5BC00000000E5BCA5
:10601A0030E4FB53BCEFAFBDEF75F004A4ADBE7C1A
:08602A00002DFFEC35F0FE2211
:0B629F00EF1FAC0670011E4C70F622D1
:1061ED00EF1FAA0670011E4A60087D031DED60F0C9
:0261FD0080FA26
:0161FF00227D
:10607D00E4FDFCC3ED9FEC9E5015E4FBFA0BBB0059
:0F608D00010ABA03F8BBE8F50DBD00010C80E471
:01609C0022E1
:0C53EA0041039500410396004103970128
:105B5A00E4FBEB75F00EA42400F582E43400F5832F
:105B6A00120AB844BB8000EB75F00EA42404F58237
:105B7A00E43400F583120AB844BB8000EB75F00EDA
:105B8A00A42408F582E43400F583120AB800000060
:0F5B9A00000BEBB408BCE490032EF0A3F0A3F0D3
:015BA90022D9
:0B494F009003C0EBF0A3EAF0A3E9F036
:10495A009003C6EBF0A3EAF0A3E9F09003C3E0F9F1
:10496A00A3E0FAA3E09003C9C9F0A3EAF0A3E9F02F
:10497A009003C6E0FBA3E0FAA3E0F912076EFF700A
:10498A0003024A649003C9E0FBA3E0FAA3E0F91228
:10499A00076E6F6003024A579003C9E0FBA3E0FA6F
:1049AA00A3E0F912076E60789003C9A3E475F001D9
:1049BA00120846A9F0FA12076EFF9003C6E0FBA39D
:1049CA00E475F001120846A9F0FA12076E6F60C882
:1049DA009003C3A3E0FAA3E0AE02FF9003C9A3E0E9
:1049EA00FAA3E0C39FFFEA9EFE9003C6E0FBA3E0A2
:1049FA00FAA3E0C39FF9EA9EFAE92401F9E43AFA34
:104A0A009003C6EBF0A3EAF0A3E9F09003C3E0F940
:104A1A00A3E0FAA3E09003C9C9F0A3EAF0A3E9F07E
:104A2A009003C9E0FBA3E0FAA3E0F912076E600362
:104A3A0002497A9003C0A3E0FAA3E0AE02FF900312
:104A4A00C6A3E0FAA3E0C39FFFEA9EFE229003C733
:0D4A5A00E475F00112083002497AE4FEFF15
:014A6700222C
:10619D00D3EF9400EE64809480400122C3E49FFF0E
:0461AD00E49EFE224C
:0753F6004404CD000000009B
:1060F700E4F593F594F591F592F59575967FF5B1DD
:0B610700F5B2F5B3F5B4F5C9F5CA22F6
:0D629200C285C286C287C2B5C2B6C2B7229D
:105D9100EF14601614601914601C14601F14602243
:105DA10024057023ED24FF928522ED24FF928622A3
:105DB100ED24FF928722ED24FF92B522ED24FF927C
:085DC100B622ED24FF92B72287
:105C8F00126274EE3395E0FDFC9004CDE0F8A3E0D2
:105C9F00F9A3E0FAA3E0FBC3EF9BFFEE9AFEED99A9
:105CAF00FDEC98FCE47BF47A01F9F8D31209AF50BC
:105CBF0011126274EE3395E0FDFC9004CD120AAC24
:025CCF00B2CB56
:015CD10022B0
:0E59FF009003B3EEF0A3EFF0A3ECF0A3EDF0F5
:105A0D00E4A3F0A3F09003B3E0FEA3E0FFC3900383
:105A1D00B8E09FEE6480F89003B7E0648098502A58
:105A2D00D2A69003B5E0FEA3E0FF12607DC2A69062
:105A3D0003B5E0FEA3E0FF12607D9003B8E004F033
:0A5A4D0070C39003B7E004F080BBC3
:015A5700222C
:1052A00090039F120AACE4FFFE7D207C4190039F97
:1052B000E0F8A3E0F9A3E0FAA3E0FB120196900363
:1052C000AFE0FBA3E0FAA3E0F9120A36E4FFFE7DAB
:1052D000207C419003A3E0F8A3E0F9A3E0FAA3E067
:1052E000FB1201969003AFE0FBA3E0FAA3E0F99074
:1052F0000004120A50E4FFFE7D207C419003A7E0E9
:10530000F8A3E0F9A3E0FAA3E0FB1201969003AF43
:10531000E0FBA3E0FAA3E0F9900008120A50E4FFD2
:10532000FE7D207C419003ABE0F8A3E0F9A3E0FA16
:10533000A3E0FB1201969003AFE0FBA3E0FAA3E029
:07534000F990000C020A5075
:061746009003C9120AAC79
:10174C009003C9E0FCA3E0FDA3E0FEA3E0FFE4FBF3
:10175C00FA792078411201969003C9120AAC9003D1
:10176C00CDE0FCA3E0FDA3E0FEA3E0FFE4FBFA79EF
:10177C002078411201969003CD120AAC9003D1E06F
:10178C00FCA3E0FDA3E0FEA3E0FFE4FBFA792078E4
:10179C00411201969003D1120AAC9003D9E0FBA33D
:1017AC00E0FAA3E0F91209E69003EC120AAC9000FF
:1017BC0004120A069003F0120AAC900008120A06F2
:1017CC009003F4120AAC90000C120A069003F81263
:1017DC000AACE4FFFEFDFC9003C9E0F8A3E0F9A31A
:1017EC00E0FAA3E0FB12033C700C9003E8120AB879
:1017FC0000000000803D9003CDE0F8A3E0F9A3E0E9
:10180C00FAA3E0FB9003C9E0FCA3E0FDA3E0FEA378
:10181C00E0FF12029F124730E4FBFA79347843124E
:10182C0001967BDA7A0F7949784012029F9003E88F
:10183C00120AAC9003CDE0FCA3E0FDA3E0FEA3E014
:10184C00FFA804A905AA06FB120196C004C005C096
:10185C0006C0079003C9E0FCA3E0FDA3E0FEA3E0F3
:10186C00FFA804A905AA06FB120196D003D002D04A
:10187C0001D0001200A512514F9003CD120AAC906A
:10188C0003CDE0FCA3E0FDA3E0FEA3E0FFC004C099
:10189C0005C006C0077FDA7E0F7D497C409003D5DA
:1018AC00E0F8A3E0F9A3E0FAA3E0FB120196E4FB55
:1018BC00FA7934784312029F123CB79003F8E0F89F
:1018CC00A3E0F9A3E0FAA3E0FB120196A804A90592
:1018DC00AA06AB07D007D006D005D0041200A19001
:1018EC0003CD120AAC7FDA7E0F7D497C409003D584
:1018FC00E0F8A3E0F9A3E0FAA3E0FB120196E4FB05
:10190C00FA7934784312029F123CCD9003F8E0F838
:10191C00A3E0F9A3E0FAA3E0FB120196C004C00512
:10192C00C006C0079003ECE0F8A3E0F9A3E0FAA32B
:10193C00E0FB9003D1E0FCA3E0FDA3E0FEA3E0FFFD
:10194C001200A1D003D002D001D0001200A190034C
:10195C00D1120AAC9003ECE0FCA3E0FDA3E0FEA3E3
:10196C00E0FF1203A99003D1E0F8A3E0F9A3E0FA99
:10197C00A3E0FB12033C50057E007F01229003D1B3
:10198C00E0FCA3E0FDA3E0FEA3E0FFA804A905AAE8
:10199C0006FB120196C004C005C006C0079003CD1B
:1019AC00E0FCA3E0FDA3E0FEA3E0FFA804A905AAC8
:1019BC0006FB120196D003D002D001D0001200A574
:1019CC0012514FC004C005C006C0079003F4E0FCE0
:1019DC00A3E0FDA3E0FEA3E0FF9003F0E0F8A3E09A
:1019EC00F9A3E0FAA3E0FB1200A5A804A905AA0636
:1019FC00AB07D007D006D005D00412033C50057EAF
:101A0C00007F02229003D1E0FCA3E0FDA3E0FEA343
:101A1C00E0FFA804A905AA06FB120196C004C005A4
:101A2C00C006C0079003CDE0FCA3E0FDA3E0FEA33D
:101A3C00E0FFA804A905AA06FB120196D003D00268
:101A4C00D001D0001200A512514FA804A905AA0676
:101A5C00AB079003CDE0FCA3E0FDA3E0FEA3E0FF09
:101A6C0012029F125C45900404120AAC9003D1E060
:101A7C00FCA3E0FDA3E0FEA3E0FFA804A905AA06D1
:101A8C00FB120196C004C005C006C0079003CDE050
:101A9C00FCA3E0FDA3E0FEA3E0FFA804A905AA06B1
:101AAC00FB120196D003D002D001D0001200A51277
:101ABC00514FC004C005C006C007E4FFFEFD7C40CA
:101ACC009003F0E0F8A3E0F9A3E0FAA3E0FB120125
:101ADC0096D003D002D001D000120196C004C005EC
:101AEC00C006C0079003D1E0FCA3E0FDA3E0FEA379
:101AFC00E0FFA804A905AA06FB120196C004C005C4
:101B0C00C006C0079003CDE0FCA3E0FDA3E0FEA35C
:101B1C00E0FFA804A905AA06FB120196A804A905D2
:101B2C00AA06AB07D007D006D005D0041200A5C07A
:101B3C0004C005C006C0079003F0E0FCA3E0FDA3C1
:101B4C00E0FEA3E0FF9003F0E0F8A3E0F9A3E0FAD5
:101B5C00A3E0FB120196A804A905AA06AB07D007BF
:101B6C00D006D005D0041200A5C004C005C006C024
:101B7C00079003F4E0FCA3E0FDA3E0FEA3E0FFA8C4
:101B8C0004A905AA06FB120196A804A905AA06AB8E
:101B9C0007D007D006D005D0041200A1D003D00284
:101BAC00D001D00012029F900400120AACE4FFFE98
:101BBC007D807C3F900400E0F8A3E0F9A3E0FAA359
:101BCC00E0FB12033C6002501AE4FFFE7D807CBFF8
:101BDC00900400E0F8A3E0F9A3E0FAA3E0FB120301
:101BEC003C50057E007F0322E4FFFEFDFC9003D1F8
:101BFC00E0F8A3E0F9A3E0FAA3E0FB12033C9004A5
:101C0C00085009120AB8BF8000008007120AB83FBA
:101C1C00800000900400E0FCA3E0FDA3E0FEA3E044
:101C2C00FF125C45C004C005C006C007900408E064
:101C3C00FCA3E0FDA3E0FEA3E0FF900404E0F8A306
:101C4C00E0F9A3E0FAA3E0FB120196D003D002D096
:101C5C0001D0001200A59003E4120AACE4FFFE7D53
:101C6C00347C439003E4E0F8A3E0F9A3E0FAA3E0AA
:101C7C00FB1201967BDA7A0F7949784012029F9019
:101C8C0003E4120AACE4FFFE7D347C439003E4E0F1
:101C9C00F8A3E0F9A3E0FAA3E0FB12033C600250C6
:101CAC0018E4FFFEFDFC9003E4E0F8A3E0F9A3E0E8
:101CBC00FAA3E0FB12033C50057E007F0422900344
:101CCC00D1E0FCA3E0FDA3E0FEA3E0FFA804A9057E
:101CDC00AA06FB120196C004C005C006C0079003FB
:101CEC00CDE0FCA3E0FDA3E0FEA3E0FFA804A90562
:101CFC00AA06FB120196D003D002D001D00012002C
:101D0C00A5C004C005C006C0079003F0E0FCA3E02A
:101D1C00FDA3E0FEA3E0FFA804A905AA06FB12019F
:101D2C0096A804A905AA06AB07D007D006D005D003
:101D3C00041200A1C004C005C006C0079003F4E063
:101D4C00FCA3E0FDA3E0FEA3E0FFA804A905AA06FE
:101D5C00FB120196A804A905AA06AB07D007D0066A
:101D6C00D005D0041200A11203A9C004C005C006FE
:101D7C00C007E4FFFEFD7C409003F0E0F8A3E0F91F
:101D8C00A3E0FAA3E0FB1201969003F4E0F8A3E0C1
:101D9C00F9A3E0FAA3E0FB120196A804A905AA0690
:101DAC00AB07D007D006D005D00412029F9003FCDD
:101DBC00120AACE4FFFE7D807C3F9003FCE0F8A3AC
:101DCC00E0F9A3E0FAA3E0FB12033C6002501AE432
:101DDC00FFFE7D807CBF9003FCE0F8A3E0F9A3E05C
:101DEC00FAA3E0FB12033C50057E007F0522900312
:101DFC00FCE0FCA3E0FDA3E0FEA3E0FF125C459039
:101E0C0003E0120AACE4FFFE7D347C439003E0E077
:101E1C00F8A3E0F9A3E0FAA3E0FB1201967BDA7ACF
:101E2C000F7949784012029FA804A905AA06AB07AE
:101E3C00E4FFFE7D347C431200A19003E0120AAC57
:101E4C00E4FFFE7D077C439003E0E0F8A3E0F9A3F8
:101E5C00E0FAA3E0FB12033C6002501AE4FFFE7DA3
:101E6C00077CC39003E0E0F8A3E0F9A3E0FAA3E059
:101E7C00FB12033C50057E007F06229003E4E0F841
:101E8C00A3E0F9A3E0FAA3E0FB9003D5E0FCA3E008
:101E9C00FDA3E0FEA3E0FF1200A19003E0E0F8A395
:101EAC00E0F9A3E0FAA3E0FB1200A59003DC120A10
:101EBC00ACE4FFFE7DB47C429003DCE0F8A3E0F9D7
:101ECC00A3E0FAA3E0FB12033C6002501AE4FFFE0D
:101EDC007DB47CC29003DCE0F8A3E0F9A3E0FAA3A4
:101EEC00E0FB12033C50057E007F07229003E8E0E4
:101EFC00FCA3E0FDA3E0FEA3E0FF9003D9E0FBA36D
:101F0C00E0FAA3E0F9900010120A50E4FFFE7DB451
:101F1C007CC29003E4E0F8A3E0F9A3E0FAA3E0FBB1
:101F2C001200A59003D9E0FBA3E0FAA3E0F990001E
:101F3C0014120A509003E0E0FCA3E0FDA3E0FEA322
:101F4C00E0FF900018120A509003DCE0FCA3E0FDC7
:101F5C00A3E0FEA3E0FF90001C120A5090001012A8
:101F6C000A06E4FBFA79FA7844120196E4FBFA7952
:101F7C0087784312029FA804A905AA06AB077F0025
:101F8C007E807DBB7C441200A11203F89003D9E043
:101F9C00FBA3E0FAA3E0F9900040EE8FF01208A644
:101FAC00900014120A06E4FBFA79FA7844120196AE
:101FBC00E4FBFA7987784312029F7B007A8079BB25
:101FCC0078441200A51203F89003D9E0FBA3E0FAC1
:101FDC00A3E0F9900042EE8FF01208A690001812C0
:101FEC000A06E4FBFA79FA7844120196E4FBFA79D2
:101FFC0087784312029F7B007A8079BB7844120069
:10200C00A51203F89003D9E0FBA3E0FAA3E0F99042
:10201C000044EE8FF01208A690001C120A06E4FB96
:10202C00FA79FA7844120196E4FBFA79877843122C
:10203C00029F7B007A8079BB78441200A51203F8CA
:10204C009003D9E0FBA3E0FAA3E0F9900046EE8FF1
:07205C00F01208A6E4FEFFEC
:01206300225A
:0B62AA00EF1FAC0670011E4C70F622C6
:0762ED00D282D283D281228C
:095B0500F9EF1207C612076EFF4A
:105B0E00A907E4FDFB74017E00A803088005C333DA
:105B1E00CE33CED8F9FFE9F582EF558224FF92837A
:105B2E00D281C2817F0A7E001262AAD28130840D98
:105B3E007401A803088002C333D8FC4DFD7F0A7E92
:0B5B4E00001262AA0BEBB408BCAF050C
:015B59002229
:10509B0090039FEBF0A3EAF0A3E9F0C2827F011229
:1050AB005B0E90039FE0FBA3E0FAA3E0F9EF12077E
:1050BB00B47F42125B0E90039FE0FBA3E0FAA3E0E8
:1050CB00900001125B0590039FE0FBA3E0FAA3E0C5
:1050DB00900002125B0590039FE0FBA3E0FAA3E0B4
:1050EB00F9900003125B0690039FE0FBA3E0FAA389
:1050FB00E0F9900004125B0690039FE0FBA3E0FA3B
:10510B00A3E0F9900005125B0690039FE0FBA3E080
:10511B00FAA3E0F9900006125B0690039FE0FBA355
:10512B00E0FAA3E0F9900007125B0690039FE0FB07
:10513B00A3E0FAA3E0F9900008EF1207C6D282228F
:105AAF0043BA8090FFF2741FF090FFF0EEF0A3EF77
:105ABF00F090FF00E4F0A304F0A3E4F0A3F0A3F050
:105ACF0090FF10F0A304F0A3E4F0A3F0A3F090FF75
:105ADF0020F0A304F0A3E4F0A3F0A3F090FF30F0C4
:105AEF00A304F0A3E4F0A3F0A3F0F5F175F50F43D1
:065AFF00F58053BA7F227E
:105F3400EF4E700653F5FEC2B722C3EF94E8EE9419
:105F440003400653F5FED2B72243BA8090FF00EE19
:0B5F5400F0A3EFF053BA7F43F50122E9
:105F5F00EF4E700653F5FDC2A122C3EF94E8EE9405
:105F6F0003400653F5FDD2A12243BA8090FF10EEF5
:0B5F7F00F0A3EFF053BA7F43F50222BD
:105F8A00EF4E700653F5FBC2A222C3EF94E8EE94DB
:105F9A0003400653F5FBD2A22243BA8090FF20EEBB
:0B5FAA00F0A3EFF053BA7F43F5042290
:105FB500EF4E700653F5F7C2A322C3EF94E8EE94B3
:105FC50003400653F5F7D2A32243BA8090FF30EE83
:0B5FD500F0A3EFF053BA7F43F5082261
:0F53FD004404C0000000004104BE004104BF0092
:10612B00438E805389F0438901758AAA758CAAC264
:08613B008DD28CD2A9D2AF2253
:1061B100438E4053890FE4F58BF58DC28FD28ED279
:0461C100ABD2AF228C
:1062120043D10275D59A75D4A943D10843AF20D290
:02622200AF22A9
:105DC900900398EEF0A3EFF0FDAC06EC1203BF7B55
:105DD9009A7A9979A57841120196A804A905AA0683
:105DE900AB077F007EFF7D7F7C471200A11203F87D
:075DF9008F8AEEFF8F8C2260
:0F6274009004C0E0FCA3E0FDA3E0FEA3E0FF2246
:105D150090039B120AACE4FFFEFDFC90039BE0F8A8
:105D2500A3E0F9A3E0FAA3E0FB12033C6011400FE6
:105D350090039BE0FCA3E0FDA3E0FEA3E0FF22901F
:105D4500039BE0FCA3E0FDA3E0FEA3E0FF1203A993
:015D5500222B
:053F7B00900398EFF037
:103F800075F00EA42408F582E43400F583E0FCA368
:103F9000E0FDA3E0FEA3E0FFE4FBFAF9F812033C26
:103FA00070030240EB900398E075F00EA42400F536
:103FB00082E43400F583E0FCA3E0FDA3E0FEA3E08F
:103FC000FF1203F8900399EEF0A3EFF0D394BAEE4A
:103FD00064809489400C9003997409F0A374BAF03A
:103FE0008018C390039AE094F4900399E06480945D
:103FF0008150077401F0A374F4F0900399E0FCA3DE
:10400000E0FDEC1203BF900398E075F00EA42404C9
:10401000F582E43400F583E0F8A3E0F9A3E0FAA325
:10402000E0FB1200A1125D15C004C005C006C00768
:10403000900398E075F00EA42408F582E43400F5AE
:1040400083E0FCA3E0FDA3E0FEA3E0FFA804A90534
:10405000AA06FB1200A5125D15A804A905AA06ABC5
:1040600007D007D006D005D00412033C4037900398
:1040700099E0FCA3E0FDEC1203BF900398E0FB7510
:10408000F00EA42404F582E43400F583120AACEBAC
:1040900075F00EA42408F582E43400F583120AB802
:1040A0000000000022900398E075F00EA42404F5AF
:1040B00082E43400F583C083C082E0FCA3E0FDA36A
:1040C000E0FEA3E0FF900398E075F00EA42408F54D
:1040D00082E43400F583E0F8A3E0F9A3E0FAA3E07A
:0B40E000FB1200A5D082D083120AACB6
:0140EB0022B2
:03000B00024E5151
:104E5100C0E0C0F0C083C082C0D075D000C000C027
:0D4E610001C002C003C004C005C006C007A8
:104E6E00900396E0C394084002E4F09004BEE07014
:104E7E003B900396E075F00EA42404F582E4340012
:104E8E00F583E0FCA3E0FDA3E0FEA3E0FF1203F830
:104E9E00125DC9900396E0FF7D01125D919003961D
:104EAE00E0FF123F7B9004BFE4F0804A900396E04F
:104EBE0075F00EA42404F582E43400F583E0FCA31F
:104ECE00E0FDA3E0FEA3E0FF1203F8C374C49FFF4E
:104EDE0074099EFEC3EF9414EE6480948050047E99
:104EEE00007F14125DC9900396E0FFE4FD125D9100
:104EFE00900396E004F09004BEE070047F018002FF
:074F0E007F009004BEEFF0EC
:104F1500D007D006D005D004D003D002D001D000F0
:0B4F2500D0D0D082D083D0F0D0E0329A
:03009B00025BFA0B
:105BFA00C0E0C0F0C083C082C0D075D000C000C071
:105C0A0004C005C006C0079004C0E0FCA3E0FDA3E1
:105C1A00E0FEA3E02401FFE43EFEE43DFDE43CFC9B
:105C2A009004C0120AACD007D006D005D004D00028
:0B5C3A00D0D0D082D083D0F0D0E03278
:10540C004104A0004104A1004404A2000000004299
:10541C00049600004104990042049A000042049D45
:02542C0000007E
:0F6283009004A2E0FCA3E0FDA3E0FEA3E0FF2255
:1059410090039F120AAC43985090039FE0F8A3E0A4
:10595100F9A3E0FAA3E0FB7F007E607D547C001296
:10596100090FEFF404F5D790039FE0F8A3E0F9A342
:10597100E0FAA3E0FB7F007E607D547C0012090FFA
:10598100C3E49FFFE49EFE74019DFDE49CFC780846
:105991001209C08FD6438E15E4F587D2AFD2AC225F
:1059A10090039F120AAC759A5090039FE0F8A3E010
:1059B100F9A3E0FAA3E0FB7F007E607D547C001236
:1059C100090FEFF404F5D790039FE0F8A3E0F9A3E2
:1059D100E0FAA3E0FB7F007E607D547C0012090F9A
:1059E100C3E49FFFE49EFE74019DFDE49CFC7808E6
:0E59F1001209C08FD675AF0143BA01D2AF22A2
:1058800090039F120AAC53BAFB75841090039FE0FB
:10589000F8A3E0F9A3E0FAA3E0FB7F007E607D546B
:1058A0007C0012090FEFF404F5D790039FE0F8A3F2
:1058B000E0F9A3E0FAA3E0FB7F007E607D547C006A
:1058C00012090FC3E49FFFE49EFE74019DFDE49C5A
:1058D000FC78081209C08FD6438E1443AF10D2AFA4
:0158E00022A5
:03631400D2AC22E6
:03631700C2AC22F3
:0463000043AF012284
:0463040053AFFE2273
:0463080043AF10226D
:04630C0053AFEF227A
:10002600E4FDFC8F992099120DEDAE0470010C14BD
:0C003600C394E8EE6480948340EBC29910
:01004200229B
:0F5ED600A3E475F001120846A9F0FA12076EFF57
:105EE500E4FDFC8F9BE59A20E1120DEDAE047001F7
:0F5EF5000C14C394E8EE6480948340E9539AFD43
:015F0400227A
:10609D00E4FDFC8F85E58420E1120DEDAE04700169
:0F60AD000C14C394E8EE6480948340E95384FD9F
:0160BC0022C1
:105D56009003C4EBF0A3EAF0A3E9F0C28CC2A990C9
:105D660003C4E0FBA3E0FAA3E0F912076E60179004
:105D760003C4A3E475F001120846A9F0FA12076EEF
:0B5D8600FF12002680D9D28CD2A92287
:1060590090039FEBF0A3EAF0A3E9F090039FE0FB24
:10606900A3E0FAA3E0F912076E600890039F125E9D
:04607900D680E822C3
:105EA30090039FEBF0A3EAF0A3E9F090039FE0FBDC
:105EB300A3E0FAA3E0F912076E601790039FA3E42F
:105EC30075F001120846A9F0FA12076EFF12609DE1
:035ED30080D92251
:105E00009003D9EBF0A3EAF0A3E9F0C28CC2A99009
:105E1000032E7401F09003D9E0FBA3E0FAA3E0F9AC
:105E200012076E60089003D9125ED680E8E49003F2
:075E30002EF0D28CD2A92252
:0300230002423165
:0D423100C0E0C0F0C083C082C0D075D010C6
:10423E00209803024364C298900498E599F0E0FF39
:10424E00700FA3E004F0E0C3940F400A75C76080BE
:10425E0005900499E4F090032EE06003024364EFAE
:10426E00B43C0890032F7404F0803890032FE07054
:10427E0039900498E0FFB4240890032F7401F08065
:10428E0022EFB4230890032F7402F08016EFB47B54
:10429E000890032F7403F0800AEFB43C0690032FAE
:1042AE007404F0900496E4F0A3F0900498E0FF906C
:1042BE000496E475F001120846FC742A25F0F58286
:1042CE0074013CF583EFF090032FE0FEB40415EF7C
:1042DE00643E7075900496E0FCA3E0242AF5827487
:1042EE00013C8055EEB40117900498E0B421109073
:1042FE000496E0FEA3E0242AF58274013E803A90F3
:10430E00032FE0B40217900498E0B42110900496A5
:10431E00E0FEA3E0242AF58274013E801C90032F58
:10432E00E0B40325900498E0B47D1E900496E0FE60
:10433E00A3E0242AF58274013EF583E4F090032E67
:10434E0004F0900496E4F0A3F0C3900496E0940277
:06435E004004E4F0A3F0AE
:0B436400D0D0D082D083D0F0D0E03267
:0300430002436F06
:0D436F00C0E0C0F0C083C082C0D075D01087
:10437C00E59A20E0030244A090049CE59BF0539A3C
:10438C00FE90032EE060030244A090049CE0B43C39
:10439C001890032F7404F090049AE4F0A3F01262C6
:1043AC00749004A2120AAC803F90032FE0703990F5
:1043BC00049CE0FFB4240890032F7401F08022EFDA
:1043CC00B4230890032F7402F08016EFB47B08908E
:1043DC00032F7403F0800AEFB43C0690032F74048F
:1043EC00F090049AE4F0A3F090049CE0FF90049AFF
:1043FC00E475F001120846FC742A25F0F58274016C
:10440C003CF583EFF090032FE0FEB40415EF643E0F
:10441C00707590049AE0FCA3E0242AF58274013CA8
:10442C008055EEB4011790049CE0B4211090049ACE
:10443C00E0FEA3E0242AF58274013E803A90032F1B
:10444C00E0B4021790049CE0B4211090049AE0FEB2
:10445C00A3E0242AF58274013E801C90032FE0B463
:10446C00032590049CE0B47D1E90049AE0FEA3E02A
:10447C00242AF58274013EF583E4F090032E04F0B7
:10448C0090049AE4F0A3F0C390049AE094024004E0
:04449C00E4F0A3F0B5
:0B44A000D0D0D082D083D0F0D0E0322A
:030093000244AB79
:0D44AB00C0E0C0F0C083C082C0D075D0104A
:1044B800E58420E0030245DC5384FE90049FE585F3
:1044C800F090032EE060030245DC90049FE0B43CCA
:1044D8001890032F7404F090049DE4F0A3F0126286
:1044E800749004A2120AAC803F90032FE0703990B8
:1044F800049FE0FFB4240890032F7401F08022EF9A
:10450800B4230890032F7402F08016EFB47B089050
:10451800032F7403F0800AEFB43C0690032F740451
:10452800F090049DE4F0A3F090049FE0FF90049DB8
:10453800E475F001120846FC742A25F0F58274012E
:104548003CF583EFF090032FE0FEB40415EF643ED2
:10455800707590049DE0FCA3E0242AF58274013C68
:104568008055EEB4011790049FE0B4211090049D8B
:10457800E0FEA3E0242AF58274013E803A90032FDE
:10458800E0B4021790049FE0B4211090049DE0FE6F
:10459800A3E0242AF58274013E801C90032FE0B426
:1045A800032590049FE0B47D1E90049DE0FEA3E0E7
:1045B800242AF58274013EF583E4F090032E04F07A
:1045C80090049DE4F0A3F0C390049DE0940240049D
:0445D800E4F0A3F078
:0B45DC00D0D0D082D083D0F0D0E032ED
:104B7A004047726F7570446F6E652100244452532A
:104B8A0021006D6F64756C653A000D0A00626961F7
:104B9A00733A002564202000707265436D643A0000
:104BAA0024445354210023323535504453542100B0
:104BBA00244453543A00244453543A25642100238C
:104BCA002530336450445354210D0A00245253545F
:104BDA002100245054473A00245054473A25642D62
:104BEA0025642100244447533A00244447533A2574
:104BFA00642100244447543A00244447543A256423
:104C0A002D25642C2564210024444A522100233294
:104C1A00353550313530305432303030210D0A00BC
:104C2A00244745544121004141410040434C4541FC
:104C3A0052205052455F434D44204F4B21003C24A3
:104C4A004447543A25642D25642C2564213E0040AE
:104C5A00534554205052455F434D44204F4B210049
:104C6A0045004100232530336450253034645425EF
:074C7A00303464210D0A0033
:0E542E004404920000000044048200000000CC
:03631A000262928A
:03631D0002612BEF
:1056A800E490039FF090039FE0FFC394085076EFC7
:1056B80025E02417F582E43401F583E0FEA3E02415
:1056C800DCFDEE3405FC1203BF90039FE0FB75F090
:1056D8000EA42400F582E43400F583120AACEB75BD
:1056E800F00EA42400F582E43400F583E0FCA3E086
:1056F800FDA3E0FEA3E0FFEB75F00EA42404F58201
:10570800E43400F583120AACEB75F00EA42408F516
:1057180082E43400F583120AB80000000090039F69
:05572800E004F08080A8
:01572D002259
:10561E00900116E0643860030256A7782A7C017D5B
:10562E00017B017A007978120C27900078E0B4247F
:10563E00097B017A00797802206490039F7410F040
:10564E007B017A01792A12618890039FE0C39FEE55
:10565E006480F8748098503EE0FF242AF582E4348A
:10566E0001F5837430F0742B2FF582E43401F58349
:10567E007430F0742C2FF582E43401F5837430F01D
:10568E00742D2FF582E43401F5837430F090039F6E
:09569E00E0240FF080AA120CF5C3
:0156A70022E0
:104A6800900397E06003024B6F126274900482E037
:104A7800F8A3E0F9A3E0FAA3E0FBC3EF9BFFEE9AEB
:104A8800FEED99FDEC98FC900492E0F8A3E0F9A300
:104A9800E0FAA3E0FBC31209AF4003024B791262AC
:104AA80074900482120AAC900490E07002A3E06053
:104AB8001890048AE07002A3E0700E90039704F047
:104AC8007BFF7A4B797A025D56900488E0FEA3E07A
:104AD800FF125A5890048EE0FEA3E0FF90048CE089
:104AE800FCA3E0FDC39FEE6480F8EC648098502F2F
:104AF800900488E0B50619A3E0B50714900488EC83
:104B0800F0A3EDF0900490E07002A3E06063803CB5
:104B1800900489E004F07059900488E004F0229031
:104B2800048EE0FEA3E0FF900488E0B5062AA3E027
:104B3800B5072590048CE0FFA3E0900488CFF0A38C
:104B4800EFF0900490E07002A3E0602590048BE001
:104B580024FFF090048A800A900489E024FFF090F2
:104B68000488E034FFF022900492120AB800000092
:014B78000A32
:014B79002219
:0B2064009003B3EBF0A3EAF0A3E9F057
:10206F009003C374FFF0A3744BF0A37486F012496E
:10207F004F9003B6EEF0A3EFF04E700302212A7BD0
:10208F00FF7A4B798C125D567BFF7A4B7994125DF8
:10209F00567BFF7A4B7997125D56E49003B8F0A305
:1020AF00F09003B8E0FEA3E0FFC39408EE648094C1
:1020BF0080504D9003D274FFF0A3744BF0A3749D26
:1020CF00F0EF25E0FFEE33FE74172FF58274013E1B
:1020DF00F583E0FFA3E09003D5CFF0A3EFF07B01F2
:1020EF007A0379311226637B017A037931125D56B7
:1020FF009003B9E004F070A99003B8E004F080A158
:10210F007BFF7A4B7994125D567BFF7A4B79A21243
:10211F005D567B017A0079780225FA9003C374FF2C
:10212F00F0A3744BF0A374AAF09003B3E0FBA3E009
:10213F00FAA3E0F912494F9003B6EEF0A3EFF04E79
:10214F0070030221E09003977401F0E49003B8F05C
:10215F00A3F09003B8E0FAA3E0FBC39408EA64800D
:10216F009480506490000875F00EEB120AE9EA753E
:10217F00F00EA42583F583120AB80000000090002A
:10218F000475F00EEB120AE9EA75F00EA42583F53B
:10219F0083E0FCA3E0FDA3E0FEA3E0FF9003B8E023
:1021AF00FAA3E090000075F00E120AE9EA75F00E3E
:1021BF00A42583F583120AAC9003B9E004F0709262
:1021CF009003B8E004F0808A7BFF7A4B79B0025E0F
:1021DF00009003C374FFF0A3744BF0A374BAF09094
:1021EF0003B3E0FBA3E0FAA3E0F912494F9003B663
:1021FF00EEF0A3EFF04E70030222D29003C374FFF0
:10220F00F0A3744BF0A374C0F0A37401F0A3740394
:10221F00F0A374BAF09003B3E0FBA3E0FAA3E0F9E4
:10222F00123315EF4E70030225FD9003BAE0FAA3A7
:10223F00E0FB90000875F00E120AE9EA75F00EA4A3
:10224F002583F583120AB80000000090000475F092
:10225F000EEB120AE9EA75F00EA42583F583E0FC74
:10226F00A3E0FDA3E0FEA3E0FF9003BAE0FAA3E032
:10227F0090000075F00E120AE9EA75F00EA425839E
:10228F00F583120AAC9003D274FFF0A3744BF0A342
:10229F0074C9F09003BAE0FFA3E09003D5CFF0A389
:1022AF00EFF07B017A0379311226637B017A037990
:1022BF0031125E007E007F647D007B017A037931ED
:1022CF00020C449003C374FFF0A3744BF0A374D6B5
:1022DF00F09003B3E0FBA3E0FAA3E0F912494F90AB
:1022EF0003B6EEF0A3EFF04E60030263109003C34A
:1022FF0074FFF0A3744BF0A374DCF09003B3E0FB16
:10230F00A3E0FAA3E0F912494F9003B6EEF0A3EF62
:10231F00F04E604C9003C374FFF0A3744BF0A374A2
:10232F00E2F0A37401F0A37403F0A374BCF0A374E0
:10233F0001F0A37403F0A374BEF09003B3E0FBA30A
:10234F00E0FAA3E0F9123315EF4E70030225FD906A
:10235F0003BCE0FEA3E0FFA3E0FCA3E0FD024FE718
:10236F009003C374FFF0A3744BF0A374EEF09003CB
:10237F00B3E0FBA3E0FAA3E0F912494F9003B6EEE6
:10238F00F0A3EFF04E60409003C374FFF0A3744BC3
:10239F00F0A374F4F0A37401F0A37403F0A374BC5E
:1023AF00F09003B3E0FBA3E0FAA3E0F9123315EFCB
:1023BF004E70030225FD9003977401F09003BCE06B
:1023CF00FEA3E0FF02247B9003C374FFF0A3744BC2
:1023DF00F0A374FDF09003B3E0FBA3E0FAA3E0F9E0
:1023EF0012494F9003B6EEF0A3EFF04E70030224A4
:1023FF007E9003C374FFF0A3744CF0A37403F0A397
:10240F007401F0A37404F0A3748CF0A37401F0A30F
:10241F007404F0A3748EF0A37401F0A37404F0A3FA
:10242F007490F09003B3E0FBA3E0FAA3E0F912334A
:10243F0015EF4E70030225FD90048EE0FCA3E0FD26
:10244F0090048CE0FEA3E0FF6D7002EE6C601D90B7
:10245F000488EEF0A3EFF0900490E0FDA3E0900469
:10246F008ACDF0A3EDF0E4900397F022025A589032
:10247F0003C374FFF0A3744CF0A37412F09003B372
:10248F00E0FBA3E0FAA3E0F912494F9003B6EEF098
:10249F00A3EFF04E70030225CD7BFF7A4C79181213
:1024AF005E00E49003B8F0A3F09003B9E025E0FFDD
:1024BF009003B8E033FE74172FF58274013EF58355
:1024CF00E0FEA3E024DCFDEE3405FC1203BF900315
:1024DF00B8E0FAA3E0FB90000075F00E120AE9EAEB
:1024EF0075F00EA42583F583120AAC90000C75F0DD
:1024FF000EEB120AE9EA75F00EA42583F583740733
:10250F00F0A374D0F090000C75F00EEB120AE9EA0C
:10251F0075F00EA42583F583E0FCA3E0FDEC120318
:10252F00BFE4FBFA79A0784112029FC004C005C036
:10253F0006C0079003B8E0FEA3E0FF90000475F01B
:10254F000E120AE9EE75F00EA42583F583E0F8A3C9
:10255F00E0F9A3E0FAA3E0FB90000075F00EEF1294
:10256F000AE9EE75F00EA42583F583E0FCA3E0FDE8
:10257F00A3E0FEA3E0FF1200A1D003D002D001D050
:10258F000012029F9003B8E0FAA3E090000875F0E4
:10259F000E120AE9EA75F00EA42583F583120AAC30
:1025AF009003B9E004F070069003B8E004F09003D4
:1025BF00B8E07004A3E0640860030224B82290031B
:1025CF00C374FFF0A3744CF0A3742AF09003B3E02C
:1025DF00FBA3E0FAA3E0F912494F9003B6EEF0A384
:0E25EF00EFF04E60097BFF7A4C7931125D5699
:0125FD0022BB
:0B38E10090039FEBF0A3EAF0A3E9F0D6
:1038EC00E4A3F0A3F07F011262F490039FE0FBA32A
:1038FC00E0FAA3E0F9900001120787B4241A9000B3
:10390C0002120787B42111E4900116F0125F057BB7
:10391C00FF7A4C7935023A3390039FE0FBA3E0FA2F
:10392C00A3E0F9900001120787642460030239FBBD
:10393C009003C374FFF0A3744CF0A37448F0A37409
:10394C0001F0A37404F0A3748CF0A37401F0A374BD
:10395C0004F0A3748EF0A37401F0A37404F0A374A8
:10396C0090F0123315EF4E7003023ACC90048EE0B7
:10397C00FEA3E0FF90048CE0B50621A3E0B5071C84
:10398C007B017A0079787F00FE3395E0FDFC900393
:10399C00CB7401F0A3E4F012572E80427E007F9F7F
:1039AC007D007B017A007978120C4490039FE0FB38
:1039BC00A3E0FAA3E02401F9E43AFA78787C007DDC
:1039CC0001120C2790039FE0FBA3E0FAA3E0F9128D
:1039DC00618874762FF58274003EF583E4F09001D3
:1039EC00167438F0125F057BFF7A4C795980389049
:1039FC00039FE0FBA3E0FAA3E0F912547B9003A22F
:103A0C00EEF0A3EFF0F47002EEF4601590039FE07B
:103A1C00FBA3E0FAA3E0F990000612078764236089
:103A2C00097BFF7A4C796A025D5690039FE0FBA3F9
:103A3C00E0FAA3E0F99003A8747BF07D3C126112CC
:103A4C0090039FE0FBA3E0FAA3E0F99003A8747D38
:103A5C00F07D3E1261129003A3E07B00FA7C107D96
:103A6C00007F00FE1207FAED4C70127C10FDFFAEC9
:103A7C00021207FAEE3395E0FDFC1257B390039F48
:103A8C00E0FBA3E0FAA3E0F9126188EF2401FFE464
:103A9C003E9003E0F0A3EFF090039FE0FBA3E0FA6D
:103AAC00A3E0F99003A3E07F00FE3395E0FDFC1248
:103ABC004C817BFF7A4C796C125D56E4FF1262F4F8
:013ACC0022D7
:0B547B009003A4EBF0A3EAF0A3E9F01B
:10548600E4A3F0A3F09003A4E0FBA3E0FAA3E0F901
:1054960012076E6067644770579003A580419003BA
:1054A600A4E0FBA3E0FAA3E0F912076EFF64236011
:1054B60036EF64246031EFFB7A009003A7E0FEA389
:1054C600E0FF7C007D0A1207E8EF2BFFEA3ECF24BF
:1054D600D0CF34FF9003A7F0A3EFF09003A5E475B7
:1054E600F00112083080B79003A7E0FEA3E0FF2288
:1054F6009003A5E475F00112083080897EFF7FFFD6
:015506002282
:104FE7009003C0EEF0A3EFF0A3ECF0A3EDF07F0188
:104FF7001262F49003C2E0FEA3E0FFD39003C1E086
:105007009FEE6480F89003C0E06480984017900397
:10501700C77401F0A37403F0A374C2F07B017A0391
:1050270079C0125CD29003C2E0FEA3E0FFD39003E5
:10503700C1E09FEE6480F89003C0E0648098504F11
:105047007E027F047D007B017A01792A120C447B62
:10505700017A01792A9003C1E07F00FE3395E0FDD4
:10506700FC9003CB7401F0A3E4F012572E7B017A76
:1050770001792A125D567BFF7A4B7994125D56901F
:1050870003C1E004F0709E9003C0E004F08096E452
:04509700FF0262F4BE
:0B5CD2009003C4EBF0A3EAF0A3E9F09C
:105CDD0012085CFFAEF09003C7E0FBA3E0FAA3E06F
:105CED00F912085CFD9003C4E0FBA3E0FAA3E0F910
:105CFD00E5F08DF01208879003C7E0FBA3E0FAA34F
:085D0D00E0F9EE8FF0020887B7
:0B4832009003C2EBF0A3EAF0A3E9F052
:10483D00E4A3F0A3F0A3F0A3F0FFFE9003C2E0FB0E
:10484D00A3E0FAA3E0F9A3E0FCA3E0F5828C8312C8
:10485D00078770030249466454600302493290038E
:10486D00C6E02402FF9003C5E034008F82F5831269
:10487D00078724D0FFE434FFFE7C007D641207E837
:10488D00C006C0079003C6E02401FF9003C5E034C5
:10489D00008F82F58312078724D0FFE434FFFE7C5E
:1048AD00037DE81207E8D0E02FFDD0E03EFCC00408
:1048BD00C0059003C6E02403FF9003C5E034008FCC
:1048CD0082F58312078724D0FFE434FFFE7C007D40
:1048DD000A1207E8D0E02FFFD0E03EFE9003C6E0BD
:1048ED002404FD9003C5E034008D82F58312078703
:1048FD0024D0FDEC34FFCD2FFFED3EFEC39003C859
:10490D00E09FEE6480F89003C7E06480985005EE58
:10491D00F0A3EFF09003C6E02404F09003C5E0345B
:10492D0000F00248489003C6E004F06003024848D6
:10493D009003C5E004F00248489003C7E0FEA3E0F1
:01494D00FF6A
:01494E002246
:105A58009003C0EEF0A3EFF07F011262F47E027FA4
:105A6800047D007B017A01792A120C447B017A01BA
:105A7800792A9003C1E07F00FE3395E0FDFC900396
:105A8800CBE4F0A374FFF012572E7B017A01792A38
:105A9800124832EE3395E0FDFC900492120AAC12E3
:075AA8000CF5E4FF0262F4BB
:060CF5007B017A01792A5F
:0B0CFB009003C2EBF0A3EAF0A3E9F0C5
:100D0600E49003C9F0A3F09003CDF0A3F0125E00C7
:100D16009003C2E0FBA3E0FAA3E0F912076E642396
:100D26006003020FCD90000412078764506003022F
:100D36000FCD90000512078764536003020FCD9014
:100D4600000612078764436003020FCD9000071266
:100D56000787644B6003020FCD90000C120787646F
:100D6600216003020FCD90000212078724D0FFE412
:100D760034FFFE7C007D0A1207E8C006C00790001B
:100D86000112078724D0FFE434FFFE7D641207E8D2
:100D9600D0E02FFFD0E03EFE90000312078724D05C
:100DA600FDEC34FFCD2FFFED3E9003C5F0A3EFF031
:100DB60090000A12078724D0FFE434FFFE7D0A1252
:100DC60007E8C006C00790000912078724D0FFE491
:100DD60034FFFE7D641207E8D0E02FFFD0E03EFE30
:100DE60090000B12078724D0FDEC34FFCD2FFFEDCA
:100DF6003EFE9003CFF0A3EFF0C3940CEE64809414
:100E06007E50030217459003CFE0FEA3E0FFD39484
:100E1600F4EE648094814003021745C39003C6E054
:100E260094089003C5E0940040030217459000081B
:100E3600120787FD642B6011EDB42D0DC3E49FFFEF
:100E4600E49E9003CFF0A3EFF09003C6E025E0FF09
:100E56009003C5E033FE74172FF58274013EF583C7
:100E6600E0FCA3E0FDEC1203BFA804A905AA06ABAB
:100E7600079003C5E0FEA3E090000475F00E120A89
:100E8600E9EE75F00EA42583F583E0FCA3E0FDA34F
:100E9600E0FEA3E0FF1200A1C004C005C006C00723
:100EA6009003CFE0FCA3E0FDEC1203BFD003D00219
:100EB600D001D0001200A59003D5120AAC9003CF42
:100EC600E0FCA3E0FD9003C6E025E0FF9003C5E04B
:100ED60033FE74172FF58274013EF583ECF0A3ED13
:100EE600F07F007E107D1C7C459003D5E0F8A3E0E2
:100EF600F9A3E0FAA3E0FB12033C600E400C90035A
:100F0600D5120AB8451C10008024E4FFFE7DFA7C49
:100F1600439003D5E0F8A3E0F9A3E0FAA3E0FB12BF
:100F2600033C500A9003D5120AB843FA0000900316
:100F3600D5E0FCA3E0FDA3E0FEA3E0FF9003C5E03F
:100F4600FAA3E0FB90000075F00E120AE9EA75F0CC
:100F56000EA42583F583120AAC90000475F00EEBFF
:100F6600120AE9EA75F00EA42583F583E0F8A3E0FA
:100F7600F9A3E0FAA3E0FB9003C5E0FEA3E090002E
:100F86000075F00E120AE9EE75F00EA42583F583BE
:100F9600E0FCA3E0FDA3E0FEA3E0FF1200A1E4FB5A
:100FA600FA79A0784012029F9003C5E0FAA3E09078
:100FB600000875F00E120AE9EA75F00EA42583F50D
:100FC60083120AAC025F059003C2E0FBA3E0FAA31A
:100FD600E0F912076E642360030210D49000041235
:100FE6000787645060030210D490000512078764D7
:100FF6004460030210D4900006120787645360030E
:101006000210D4900007120787645460030210D4BC
:10101600900008120787642160030210D490000232
:1010260012078724D0FFE434FFFE7C007D0A1207F6
:10103600E8C006C00790000112078724D0FFE434F9
:10104600FFFE7D641207E8D0E02FFFD0E03EFE9061
:10105600000312078724D0FDEC34FFCD2FFFED3EB1
:10106600FE9003C5F0A3EFF0C39408EE940040038E
:101076000217459003C5E0FAA3E0FB90000875F05F
:101086000E120AE9EA75F00EA42583F583120AB852
:101096000000000090000475F00EEB120AE9EA75F4
:1010A600F00EA42583F583E0FCA3E0FDA3E0FEA3F8
:1010B600E0FF9003C5E0FAA3E090000075F00E1281
:1010C6000AE9EA75F00EA42583F583020AAC9003BB
:1010D600CD0212A59003C2E0FBA3E0FAA3E0F990CB
:1010E60003C9E0FEA3E0F5828E8312078770030230
:1010F6001745642360030211B59003CDE07004A385
:10110600E0640160030211B59003C9E0FFA3E0A308
:10111600CFF0A3EFF0E49003C5F0A3F09003CAE08C
:1011260004F070069003C9E004F09003C2E0FBA34C
:10113600E0FAA3E0F99003C9E0FEA3E0F5828E830E
:10114600120787FF603964506035EFFB7A00900321
:10115600C5E0FEA3E0FF7C007D0A1207E8EF2BFF47
:10116600EA3ECF24D0CF34FF9003C5F0A3EFF09032
:1011760003CAE004F070B39003C9E004F080AB90BA
:1011860003CBE0FEA3E0FFC39003CAE09FFF9003FA
:10119600C9E09ECF24FFCF34FFFEEF64034E9003D9
:1011A600CD60030212A5E4F0A37402F00210DA90F7
:1011B60003C2E0FBA3E0FAA3E0F99003C9E0FEA3B3
:1011C600E0FFF5828E83120787645060030212B631
:1011D6009003CDE07004A3E0640260030212B690AF
:1011E60003CBEEF0A3EFF09003D1120AB800000093
:1011F600009003CAE004F070069003C9E004F09082
:1012060003C2E0FBA3E0FAA3E0F99003C9E0FEA362
:10121600E0F5828E83120787FF60606454605C90FD
:1012260003C9A3E0F5828E83120787FCE41203C488
:10123600C004C005C006C007E4FFFE7D207C4190C7
:1012460003D1E0F8A3E0F9A3E0FAA3E0FB120196CC
:10125600D003D002D001D0001200A5E4FBFA7940F9
:1012660078C21200A59003D1120AAC9003CAE0041A
:10127600F0708C9003C9E004F080849003CBE0FE0C
:10128600A3E0FFC39003CAE09FFF9003C9E09ECF8F
:1012960024FFCF34FFFEEF64044E9003CD6008E4D4
:1012A600F0A304F00210DAE4F0A37403F00210DAFB
:1012B6009003C2E0FBA3E0FAA3E0F99003C9E0FEC5
:1012C600A3E0FFF5828E831207876454600302173A
:1012D600349003CDE07004A3E06403600302173486
:1012E6009003CBEEF0A3EFF0E49003C7F0A3F090E9
:1012F60003CAE004F070069003C9E004F09003C24C
:10130600E0FBA3E0FAA3E0F99003C9E0FEA3E0F551
:10131600828E83120787FF603964216035EFFB7A7E
:10132600009003C7E0FEA3E0FF7C007D0A1207E8F9
:10133600EF2BFFEA3ECF24D0CF34FF9003C7F0A3B4
:10134600EFF09003CAE004F070B39003C9E004F034
:1013560080ABC39003C8E094F49003C7E0940150B7
:101366000CA3E0242CF09003C7E03401F09003CDE9
:10137600E4F0A304F09003CBE0FEA3E0FFC39003E8
:10138600CAE09FFF9003C9E09ECF24FFCF34FFFE43
:10139600EF64044E60030210DAC39003C6E09408BB
:1013A6009003C5E0940040030215EE7F007E407D69
:1013B6001C7C459003D1E0F8A3E0F9A3E0FAA3E092
:1013C600FB12033C600540030215EEE4FFFE7DFAC6
:1013D6007C439003D1E0F8A3E0F9A3E0FAA3E0FB95
:1013E60012033C50030215EED39003C8E09410900C
:1013F60003C7E0942740030215EE9003D1E0F8A35B
:10140600E0F9A3E0FAA3E0FBC000C001C002C003FC
:101416009003C6E025E0FF9003C5E033FE74172F66
:10142600F58274013EF583E0FCA3E0FDEC1203BFF8
:10143600D003D002D001D0001200A59003D1120A29
:10144600AC7F007E107D1C7C459003D1E0F8A3E0C4
:10145600F9A3E0FAA3E0FB12033C600C400A9003F8
:10146600D1120AB8451C1000E4FFFE7DFA7C4390B9
:1014760003D1E0F8A3E0F9A3E0FAA3E0FB12033CF2
:10148600500A9003D1120AB843FA0000C39003C869
:10149600E094149003C7E094009003D1E0FC5067F9
:1014A600A3E0FDA3E0FEA3E0FF9003C5E0FAA3E0FE
:1014B600FB90000075F00E120AE9EA75F00EA425FD
:1014C60083F583120AAC9003D1E0FCA3E0FDA3E010
:1014D600FEA3E0FF90000475F00EEB120AE9EA7530
:1014E600F00EA42583F583120AAC90000875F00E61
:1014F600EB120AE9EA75F00EA42583F583120AB801
:10150600000000000215EEA3E0FDA3E0FEA3E0FF4D
:101516009003C5E0FAA3E0FB90000075F00E120AF6
:10152600E9EA75F00EA42583F583120AAC9003C789
:10153600E0FEA3E0FF90000C75F00EEB120AE9EA5C
:1015460075F00EA42583F583EEF0A3EFF090000C62
:1015560075F00EEB120AE9EA75F00EA42583F58301
:10156600E0FCA3E0FDEC1203BFE4FBFA79A07841AE
:1015760012029FC004C005C006C0079003C5E0FE66
:10158600A3E0FF90000475F00E120AE9EE75F00E66
:10159600A42583F583E0F8A3E0F9A3E0FAA3E0FB32
:1015A60090000075F00EEF120AE9EE75F00EA42514
:1015B60083F583E0FCA3E0FDA3E0FEA3E0FF1200B9
:1015C600A1D003D002D001D00012029F9003C5E043
:1015D600FAA3E090000875F00E120AE9EA75F00E1B
:1015E600A42583F583120AAC9003C5E07003A3E03B
:1015F600F460030210DA9003C5F0A3F0C39003C6AB
:10160600E094089003C5E0940040030210DAA3E0DA
:1016160025E0FF9003C5E033FE74172FF5827401B1
:101626003EF583E0FEA3E024DCFDEE3405FC120368
:10163600BF9003D1120AAC9003D1E0FCA3E0FDA356
:10164600E0FEA3E0FF9003C5E0FAA3E0FB900000F4
:1016560075F00E120AE9EA75F00EA42583F58312D9
:101666000AAC9003C7E0FEA3E0FF90000C75F00EF5
:10167600EB120AE9EA75F00EA42583F583EEF0A3D2
:10168600EFF090000C75F00EEB120AE9EA75F00E19
:10169600A42583F583E0FCA3E0FDEC1203BFE4FB85
:1016A600FA79A0784112029FC004C005C006C0079F
:1016B6009003C5E0FEA3E0FF90000475F00E120A49
:1016C600E9EE75F00EA42583F583E0F8A3E0F9A30F
:1016D600E0FAA3E0FB90000075F00EEF120AE9EEC7
:1016E60075F00EA42583F583E0FCA3E0FDA3E0FEE0
:1016F600A3E0FF1200A1D003D002D001D000120255
:101706009F9003C5E0FAA3E090000875F00E120A58
:10171600E9EA75F00EA42583F583120AAC9003C698
:10172600E004F070069003C5E004F0021602900390
:0F173600CAE004F070069003C9E004F00210DA74
:011745002281
:1061120012076E6013B505079003A8E01207B47466
:096122000129F9E43AFA80E822AF
:105F05007F011262F47FFF7EFF7DFF7CFF1257B396
:105F15007B017A0079709003E0E4F0A374BAF07F16
:0F5F2500007EF07DFF7CFF124C81E4FF0262F4EE
:1040EC009003C9EEF0A3EFF0A3ECF0A3EDF0A3EA7C
:1040FC00F0A3EBF09003CBE0FCA3E0FDEC1203BFCC
:10410C009003C9E0FAA3E0FB90000075F00E120AD0
:10411C00E9EA75F00EA42583F583120AAC9003CD61
:10412C00E0FEA3E0FF90000C75F00EEB120AE9EA3A
:10413C0075F00EA42583F583EEF0A3EFF090000C40
:10414C0075F00EEB120AE9EA75F00EA42583F583DF
:10415C00E0FCA3E0FDEC1203BFE4FBFA79A078418C
:10416C0012029FC004C005C006C0079003C9E0FE40
:10417C00A3E0FF90000475F00E120AE9EE75F00E44
:10418C00A42583F583E0F8A3E0F9A3E0FAA3E0FB10
:10419C0090000075F00EEF120AE9EE75F00EA425F2
:1041AC0083F583E0FCA3E0FDA3E0FEA3E0FF120097
:1041BC00A1D003D002D001D00012029F9003C9E01D
:1041CC00FAA3E090000875F00E120AE9EA75F00EF9
:1041DC00A42583F583120AAC9003D274FFF0A37468
:1041EC004CF0A3746EF09003C9E0FFA3E09003D5EC
:1041FC00CFF0A3EFF09003CBE0FFA3E09003D7CF79
:10420C00F0A3EFF09003CDE0FFA3E09003D9CFF043
:10421C00A3EFF07B017A0379311226637B017A03D9
:05422C007931025E0083
:0463100075C76022CB
:102A81003C5053325F52454430313A233030355057
:102A9100303630305432303030215E2330303550D2
:102AA100445354213E003C5053325F52454430322E
:102AB1003A233030355032343030543230303021D6
:102AC1005E2330303550445354213E003C50533244
:102AD1005F52454430333A23303034503036303051
:102AE1005432303030215E2330303450445354213D
:102AF1003E003C5053325F52454430343A2330302B
:102B01003450323430305432303030215E23303062
:102B11003450445354213E003C5053325F5245449B
:102B210030353A2330303250323430305432303054
:102B310030215E2330303250445354213E003C500A
:102B410053325F52454430363A23303033503234B9
:102B510030305432303030215E23303033504453E2
:102B610054213E003C5053325F52454430373A23A2
:102B710030303250303630305432303030215E23F4
:102B810030303250445354213E003C5053325F5256
:102B9100454430383A2330303350303630305432B7
:102BA100303030215E2330303350445354213E00C5
:102BB1003C5053325F52454430393A244D4F4445DD
:102BC100213E003C5053325F52454431303A3E0081
:102BD1003C5053325F52454431313A3E003C5053F0
:102BE100325F52454431323A24444A52213E003C3C
:102BF1005053325F52454431333A233030315030F3
:102C01003630305432303030215E23303031504450
:102C11005354213E003C5053325F52454431343AC3
:102C21002330303050303630305432303030215E45
:102C31002330303050445354213E003C5053325FD6
:102C410052454431353A23303031503234303054EA
:102C510032303030215E2330303150445354213EE4
:102C6100003C5053325F52454431363A23303030C4
:102C710050323430305432303030215E23303030F5
:102C810050445354213E003C5053325F524544302E
:102C9100353A244447543A31382D32312C31213ED2
:102CA100003C5053325F52454430363A2444475435
:102CB1003A32372D33312C31213E003C5053325FB3
:102CC10052454430373A244447543A312D312C315E
:102CD100213E003C5053325F52454430383A24443F
:102CE10047543A32322D32362C31213E003C50537A
:102CF100325F52454431333A244447543A332D37F5
:102D01002C31213E003C5053325F52454431343A1C
:102D1100244447543A31332D31372C31213E003C84
:102D21005053325F52454431353A244447543A3185
:102D31002D312C31213E003C5053325F52454431FC
:102D4100363A244447543A382D31322C31213E0051
:102D5100323032323037323800756172743120636B
:102D61006865636B206F6B2100756172743220633B
:102D71006865636B206F6B21007561727434206329
:102D81006865636B206F6B210041542B42415544B0
:102D9100380D0A0041542B5350504E414D455A4C69
:102DA1002D35312D4254322E300D0A0041542B4C19
:102DB100454E414D455A4C2D35312D4254342E301E
:102DC1000D0A0041542B4E414D455A4C2D35312DA4
:102DD1004254322E300D0A005E0024002300244BA1
:102DE1004D533A00244B4D533A25642C25642C2530
:102DF100642C256421002451432100244447543A82
:102E0100332D372C312100245A43210024444754C7
:102E11003A382D31322C31210024594321002444E8
:102E210047543A31332D31372C312100245150216F
:102E310000244447543A31382D32312C31210024B9
:102E41005A502100244447543A32322D32362C3123
:102E510021002459502100244447543A32372D335C
:102E6100312C3121002451532100244447543A315B
:102E71002D312C312100244A51210023303035508D
:102E8100313730305431353030210024465821005B
:102E9100233030355031323030543135303021002B
:102EA100FF2A81FF2AA7FF2ACDFF2AF3FF2B19FF53
:102EB1002B3FFF2B65FF2B8BFF2BB1FF2BC4FF2B70
:102EC100D1FF2BDEFF2BF0FF2C16FF2C3CFF2C62D9
:102ED100FF2A81FF2AA7FF2ACDFF2AF3FF2C88FFB3
:102EE1002CA2FF2CBCFF2CD4FF2BB1FF2BC4FF2B3A
:102EF100D1FF2BDEFF2CEEFF2D06FF2D20FF2D38FD
:10543C004104260049042700000000000000000081
:10544C0044043000000000410410014104110044E8
:10545C000412000000004404160000000042041A6C
:0E546C00000042041CFFFF440422000007D091
:1053470012632012632312631A126326126329124F
:10535700559312632C12614312615A12632F12562E
:10536700A812631D1262FA1262B59003A3120AB85B
:1053770042D200009003A7120AB842960000900399
:10538700AB120AB8433E00009003AF7401F0A37458
:1053970004F0A37434F07F007E007DDC7C4212525F
:1053A700A012561E125C8F12581B126274900430A2
:1053B700E0F8A3E0F9A3E0FAA3E0FBC3EF9BFFEE5D
:1053C7009AFEED99FDEC98FCE47BE87A03F9F8C3C3
:1053D7001209AF50CF124A68123DF7125BAA124F5B
:0353E7003080C152
:03632000025B5AC3
:036323000260F71E
:03632600D2CB22B5
:03632900C2A622E7
:105593001260DB125FE0EF64167003EE64EF6004E9
:1055A300D2A680EF7B017A0079709003CBE4F0A35D
:1055B30074BAF07F007EF07DFF7CFF12572E9000BF
:1055C30070A3A3E0FEA3E064517003742D6E601E0C
:1055D3007BFF7A2D7951AF01AE027DFF7C009000F5
:1055E30070120AAC900074120AB800000000900117
:1055F30027E07004A3E064386020E4FFEF25E02493
:1056030017F582E43401F583E4F0A3F00FEFB40857
:0A561300EB900127E4F0A37438F0D7
:01561D00226A
:03632C000262ED1D
:106143007F007EC27D017C001259411263147BFFE4
:076153007A2D795A025D5616
:10615A007F007EC27D017C001259A11263007BFF81
:07616A007A2D796A026059E9
:106171007F007EC27D017C001258801263087BFF84
:076181007A2D797A025EA37A
:03632F00026212F5
:0B62B5007DC87C007F037E000259FFC3
:0662FA0075B810D2AF22BE
:10581B0090032EE0605E90032FE0B4010E7B017AC3
:10582B0001792A1220641235F5803190032FE0FFA5
:10583B0064026004EFB4030B7B017A01792A120C2A
:10584B00FB801990032FE0B404127B017A01792AB3
:10585B001238E1126274900430120AAC7E027F049B
:10586B007D007B017A01792A120C44E490032FF01E
:05587B0090032EF02255
:103DF700900410E07003023F7A126274900412E09C
:103E0700F8A3E0F9A3E0FAA3E0FBC3EF9BFFEE9A68
:103E1700FEED99FDEC98FCE47BF47A01F9F8C31206
:103E270009AF5026900411E07020126274900412BA
:103E3700120AAC7F807E257D007C001258801263B9
:103E4700087BFF7A2D798A023EDB12627490041296
:103E5700E0F8A3E0F9A3E0FAA3E0FBC3EF9BFFEED2
:103E67009AFEED99FDEC98FCE47BF47A01F9F8C32E
:103E77001209AF501E900411E0B40117126274903A
:103E87000412120AAC7F007EC27D017C00125880AA
:103E9700023F24126274900412E0F8A3E0F9A3E051
:103EA700FAA3E0FBC3EF9BFFEE9AFEED99FDEC98BA
:103EB700FCE47BF47A01F9F8C31209AF501B9004B4
:103EC70011E0B40214126274900412120AAC7BFF60
:103ED7007A2D7995125EA38044126274900412E0E1
:103EE700F8A3E0F9A3E0FAA3E0FBC3EF9BFFEE9A88
:103EF700FEED99FDEC98FCE47BF47A01F9F8C31226
:103F070009AF5020900411E0B403191262749004B1
:103F170012120AAC7BFF7A2D79AD125EA3900411C1
:103F2700E004F022126274900412E0F8A3E0F9A30F
:103F3700E0FAA3E0FBC3EF9BFFEE9AFEED99FDECE1
:103F470098FCE47BF47A01F9F8C31209AF50249086
:103F57000411E0B4041D126274900412120AAC7BBF
:103F6700FF7A2D79C4125EA3900411E004F0E49067
:033F77000410F043
:013F7A002224
:105BAA00126274900416E0F8A3E0F9A3E0FAA3E005
:105BBA00FBC3EF9BFFEE9AFEED99FDEC98FCE47BAC
:105BCA0032FAF9F8D31209AF50251262749004160A
:105BDA00120AAC7B017A04792712509B126274E490
:0F5BEA007BB87A0BF9F8D31209AF5003125E376C
:015BF9002289
:105E370090042AE0FF90041AE0B5070C90042BE0C9
:105E4700FF90041BE06F601E7B017A04792A90049F
:105E570028E0FD122F0190042AE090041AF0900424
:065E67002BE090041BF08B
:015E6D002212
:052F010090039FEDF0BC
:102F0600E49003A1F0900001120787FD7C001207F0
:102F16006EFEE42DFFEC3EFE90041EF0A3EFF09053
:102F2600041CE0FCA3E0FD6F7002EC6E700302323D
:102F36008BA3E0FEA3E0FFA3EEF0A3EFF0EE5CFEB2
:102F4600EF5DFF90041EEEF0A3EFF0E49003A0F017
:102F56009003A0E0FFC39410400302327174017E17
:102F660000A807088005C333CE33CED8F9FF9004F6
:102F76001EE05EFCA3E05F4C600302326890041C16
:102F8600E05EFEA3E05F4E70030230DD7E027F044A
:102F96007D007B017A01792A120C4490039FE0643C
:102FA600736003023268900426E070309003A0E05C
:102FB60075F003A424A1F582E4342EF583E493FB93
:102FC600740193FA740293F91261889003A0E07574
:102FD600F003A424A1F582E4342E8036900426E082
:102FE600640170449003A0E075F003A424D1F58237
:102FF600E4342EF583E493FB740193FA740293F997
:103006001261889003A0E075F003A424D1F582E450
:10301600342EF583E493FB740193FA740293F978E2
:103026002A7C017D011207489003C374FFF0A37444
:103036002DF0A374D9F07B017A01792A12494F90B9
:1030460003A1EFF0600CE02429F582E43401F58356
:10305600E4F09003C374FFF0A3742DF0A374DBF0C7
:103066007B017A01792A12494FEF4E601D78317C37
:10307600037D017B017A017935120C271235E67B37
:10308600017A01792A12206480429003C374FFF00A
:10309600A3742DF0A374DDF07B017A01792A12491D
:1030A6004FEF4E602778317C037D017B017A0179F1
:1030B60035120C27782A7C017D017B017A03793150
:1030C600120C277B017A01792A120CFB74FF9004FB
:1030D6001CF0A3F002325F7E027F047D007B017A42
:1030E60001792A120C4490039FE064736003023254
:1030F60068900426E070309003A0E075F003A424E5
:10310600A1F582E4342EF583E493FB740193FA74FB
:103116000293F91261889003A0E075F003A424A13C
:10312600F582E4342E8036900426E06401704490E3
:1031360003A0E075F003A424D1F582E4342EF583D0
:10314600E493FB740193FA740293F9126188900375
:10315600A0E075F003A424D1F582E4342EF583E4CF
:1031660093FB740193FA740293F9782A7C017D012A
:103176001207489003C374FFF0A3742DF0A374D90B
:10318600F07B017A01792A12494F9003A1EFF07082
:103196000302325FE07E00242AF9EE3401FA7B0155
:1031A6009003C374FFF0A3742DF0A374DBF01249EF
:1031B6004FEF4E603B9003A1E07E00242AF9EE34E7
:1031C60001FA7B0178317C037D01120C277B017AA1
:1031D60003793112618874302FF58274033EF583CA
:1031E600E4F01235E67B017A01792A1220648069BF
:1031F6009003A1E07E00242AF9EE3401FA7B0190C7
:1032060003C374FFF0A3742DF0A374DDF012494FCD
:10321600EF4E60459003A1E07E00242AF9EE3401CA
:10322600FA7B0178317C037D01120C277B017A033E
:10323600793112618874302FF58274033EF583E488
:10324600F0782A7C017D017B017A037931120C2703
:103256007B017A01792A120CFB7B017A01792A1209
:103266005D569003A0E004F0022F56900420E0FF84
:10327600A3E090041CCFF0A3EFF0D2A67F327E002D
:0532860012607DC2A6EC
:01328B002220
:1035E600782A7C017D017B017A037931120C277BD5
:0535F600017A01792AB1
:0B35FB009003A2EBF0A3EAF0A3E9F0BC
:103606009003C374FFF0A3742DF0A374DFF0124986
:103616004F9003A5EEF0A3EFF04E70030236CD9067
:1036260003C374FFF0A3742DF0A374E5F0A3740133
:10363600F0A37403F0A374ABF0A37401F0A37403B6
:10364600F0A374ADF0A37401F0A37403F0A374AFF8
:10365600F0A37401F0A37403F0A374B1F09003A275
:10366600E0FBA3E0FAA3E0F9123315EF4E70030274
:1036760038E09003ABE0FCA3E0FDEC1203BFC0040E
:10368600C005C006C0079003ADE0FCA3E0FDEC1248
:1036960003BF9003B7120AAC9003AFE0FCA3E0FDB2
:1036A600EC1203BF9003BB120AAC9003B1E0FFA378
:1036B600E09003BFCFF0A3EFF0D007D006D005D03F
:1036C60004123ACDEF4E229003C374FFF0A3742D7B
:1036D600F0A374F7F09003A2E0FBA3E0FAA3E0F9ED
:1036E60012494F9003A5EEF0A3EFF04E6017900439
:1036F60026E0FF7E007D647C001259FF7BFF7A2D59
:1037060079FC0238689003C374FFF0A3742EF0A30B
:103716007408F09003A2E0FBA3E0FAA3E0F91249D3
:103726004F9003A5EEF0A3EFF04E60147D647C008D
:103736007F017E001259FF7BFF7A2E790D023868D1
:103746009003C374FFF0A3742EF0A3741AF09003D1
:10375600A2E0FBA3E0FAA3E0F912494F9003A5EE1D
:10376600F0A3EFF04E60147D647C007F017E0012B2
:1037760059FF7BFF7A2E791F0238689003C374FFC6
:10378600F0A3742EF0A3742DF09003A2E0FBA3E047
:10379600FAA3E0F912494F9003A5EEF0A3EFF04E1D
:1037A60060147D647C007F017E001259FF7BFF7AE6
:1037B6002E79320238689003C374FFF0A3742EF09A
:1037C600A37440F09003A2E0FBA3E0FAA3E0F91291
:1037D600494F9003A5EEF0A3EFF04E60137D647C95
:1037E600007F017E001259FF7BFF7A2E7945807299
:1037F6009003C374FFF0A3742EF0A37453F09003E8
:10380600A2E0FBA3E0FAA3E0F912494F9003A5EE6C
:10381600F0A3EFF04E60137D647C007F017E001202
:1038260059FF7BFF7A2E795880389003C374FFF0D6
:10383600A3742EF0A37466F09003A2E0FBA3E0FA53
:10384600A3E0F912494F9003A5EEF0A3EFF04E6006
:10385600147D647C007F017E001259FF7BFF7A2E67
:10386600796B0220649003C374FFF0A3742EF0A357
:103876007477F09003A2E0FBA3E0FAA3E0F9124903
:103886004F9003A5EEF0A3EFF04E60137D647C002D
:103896007F017E001259FF7BFF7A2E797C8038905B
:1038A60003C374FFF0A3742EF0A3748CF09003A2EC
:1038B600E0FBA3E0FAA3E0F912494F9003A5EEF06E
:1038C600A3EFF04E60147D647C007F017E001259E8
:0A38D600FF7BFF7A2E7991120CFBA4
:0138E00022C5
:063ACD009003B3120AACE5
:103AD300E49003C5F0A3F0A3F0A3F0FFFEFDFC9078
:103AE30003B7E0F8A3E0F9A3E0FAA3E0FB12033C79
:103AF3005003023C6BE49003C7F0A3F09003C1F0C2
:103B0300A3F09003B7E0FCA3E0FDA3E0FEA3E0FF76
:103B13009003CD120AAC9003BBE0FCA3E0FDA3E04D
:103B2300FEA3E0FF9003D1120AAC9003C1E0FCA313
:103B3300E0FDEC1203BF9003D5120AAC9003D974D5
:103B430001F0A37404F0A37434F09003B3E0FCA376
:103B5300E0FDA3E0FEA3E0FF121746EF4E702C90AA
:103B630003C5E0FEA3E0FF9003C1E0FCA3E0FDC3B7
:103B73009FEE6480F8EC64809850089003C5ECF0E5
:103B8300A3EDF09003C7E4F0A304F09003C2E02494
:103B9300FFF09003C1E034FFF0C3A3E094799003F6
:103BA300C1E06480947F4003023B059003C7E0704B
:103BB30002A3E07003023C6B9003B7E0FCA3E0FDBB
:103BC300A3E0FEA3E0FF9003CD120AAC9003BBE099
:103BD300FCA3E0FDA3E0FEA3E0FF9003D1120AAC37
:103BE3009003C5E0FCA3E0FDEC1203BF9003D512E4
:103BF3000AAC9003D97401F0A37404F0A37434F0F5
:103C03009003B3E0FCA3E0FDA3E0FEA3E0FF1217E3
:103C130046E49003C3F0A3F09003C3E0FEA3E0FFE8
:103C2300C00625E0FDEE33FC74742DF58274043C6C
:103C3300F583E0FCA3E0FD9003BFE0FAA3E0FBD033
:103C4300061240EC9003C4E004F070069003C3E056
:103C530004F0C39003C4E094049003C3E06480942D
:0B3C63008040B57E007F0122E4FEFFE0
:013C6E002233
:104F30009003A1120AB800000000E490039FF0A3C0
:104F4000F090039FE0FEA3E0FFC39406EE6480941C
:104F5000805043A3E0F8A3E0F9A3E0FAA3E0FB90BC
:104F6000000875F00EEF120AE9EE75F00EA4258325
:104F7000F583E0FCA3E0FDA3E0FEA3E0FF1200A5A3
:104F80009003A1120AAC9003A0E004F070B3900368
:104F90009FE004F080AB9003A1E0FCA3E0FDA3E060
:104FA000FEA3E0FFEC4D4E4F600DD28CD2A91262F1
:104FB00074900422020AAC126274900422E0F8A3F6
:104FC000E0F9A3E0FAA3E0FBC3EF9BFFEE9AFEED4E
:104FD00099FDEC98FCE47BF47A01F9F8C31209AF6F
:064FE0005004C28CC2A9BE
:014FE60022A8
:10009E00020464E86480F8E933E83360110460F028
:1000AE00ED33EC337009E8FCE9FDEAFEEBFF2204C8
:1000BE0060DED3EB9FEA9EE99DE8C2E78CF0C2F7C3
:1000CE0095F0400CE8CCF8E9CDF9EACEFAEBCFFB8F
:1000DE0012042F85D0F05804700320D5B3E80470B5
:1000EE00075002B2D502046E92D5EC0460F7E4CC50
:1000FE00C0E0C398F8603B94186008400DD0E0FB58
:10010E00020446E4FBFAC9FC8028E830E406E4C9A0
:10011E00FBE4CAFCE830E305E4C9CACBFCE85407AB
:10012E006010F8C3E913F9EA13FAEB13FBEC13FCB6
:10013E00D8F130F52FC3E49CFCEF9BFFEE9AFEED59
:10014E0099FDD0E0FBEF4E4D4C701222DB03020402
:10015E006BEC2CFCEF33FFEE33FEED33FDED30E7B1
:10016E00EB020446EF2BFFEE3AFEED39FDD0E0FB3D
:10017E0050130BBB000302046EED13FDEE13FEEFE6
:08018E0013FFEC13FC02044610
:10019600EC4D6011E8497017ED33EC3304600DE463
:1001A600FCFFFEFD22E933E8330470F80204641212
:1001B600042F58046009E4CC248150062850090213
:1001C600046E28400302046BC0E0EB4A7044B98019
:1001D60006D0E0FB02045AEF4E701CBD8008EBFF10
:1001E600EAFEE9FD80EBE98DF0A4FEE5F002027F70
:1001F600E9CDF9EAFEEBFFEF89F0A4FCE5F0CE8944
:10020600F0A42EFFE435F0CD89F0A42DFEE435F000
:100216008067EF4E7005BD80D780C3EF8BF0A4AC2E
:10022600F0EE8BF0A42CFCE435F0F8EF8AF0A42C69
:10023600E5F038FCE433CB8DF0A42CFCE5F03BF87C
:10024600EE8AF0A42CFCE5F038F8E433CF89F0A46C
:100256002CFCE5F038CF3400CE89F0A42FFFE5F072
:100266003EFEE433C98DF0A42EFEE5F039CD8AF0CA
:10027600A42FFFE5F03EFEE43DFD33D0E0FB500742
:100286000BBB000F02046EEC2CFCEF33FFEE33FECB
:06029600ED33FD020446F9
:10029C0002046EEC5D046005E8590470030204640A
:1002AC0012042F580460F6EC4860F2EC7004FDFE6A
:1002BC00FF22C860DB2481C85009C3986002500635
:1002CC0002046B9850CAF582E9294B4A7005AB823F
:1002DC0002045A75F0007C1A7880C3EF9BEE9AEDFD
:1002EC0099400DC3EF9BFFEE9AFEED99FDE842F0AD
:1002FC00DC23ACF0D0E0FFD0E0FED0E0FDAB822000
:10030C00E7101BEB60BAEC2CFCEF33FFEE33FEED89
:10031C0033FD020446E803F830E705C0F075F00041
:10032C00EF2FFFEE33FEED33FD40B830E7C280AA6D
:10033C0074F8CC6480CCC86480C8F582046043C374
:10034C00EB9FF5F0EA9E42F0E99D42F0E89C45F007
:10035C0060305018E5825FFFE582F42B5582FB502C
:10036C00210ABA001D09B90019088016E5825BFB49
:10037C00E582F42F5582FF50090EBE00050DBD001D
:10038C00010CC3EB9FF5F0EA9E42F0E99D42F0E8C8
:0D039C009C45F06007CC4820E701B3EC223F
:1003A900ED33EC33600A047003BD8004ECB2E7FC62
:0103B9002221
:1003BA0075F020800E75F010800575F0087D007EBE
:1003CA00007F003392D530D5031209A1EC334010D7
:1003DA00EF33FFEE33FEED33FDEC33FCD5F0ED22C7
:0E03EA00E5F0247EA2D513CC92E7CDCEFF2203
:1003F800EDD2E7CD33EC3392D524814006E4FFFEFD
:10040800FDFC22FCE4CFCECDCC24E0501174FF805B
:10041800EDC3CC13CCCD13CDCE13CECF13CF0470F8
:07042800F030D5DE0209A14E
:1025FE00E52224D2F582E43403F583E0052222900D
:10260E0003CF3007039003D2E475F001120AFE02E5
:10261E00076E2000E97F2ED2008018EF540F249011
:10262E00D43440D4FF30040BEF24BFB41A0050034F
:10263E002461FFE523600215230526E526700205B9
:10264E002530070E9003CFE475F001120AFEEF025B
:10265E0007B40260327403D2078003E4C207F52286
:10266E009003CF120B2CE4F523F525F526E5236018
:10267E00077F2012264180F57524FFC201C200C2D9
:10268E0002C203C205C206C20812260DFF700D302B
:10269E0007057F00122652AF26AE2522B4255FC253
:1026AE00D5C20412260DFF24D0B40A00501A75F0BC
:1026BE000A782330D50508B6FF0106C6A426F620F3
:1026CE00D5047002D20380D924CFB41A00EF50047F
:1026DE00C2E5D204022944D20180C6D20080C0D203
:1026EE000280BCD2D580BAD20580B47F201226419A
:1026FE002002077401B5230040F11225FEFF1226B9
:10270E004102267BD208D20680951225FEFB1225A9
:10271E00FEFA1225FEF94A4B700679427A2A7BFFA1
:10272E0020022EE523602A7E008E8275830012071A
:10273E008760060EEE652470F0C2D5EBC0E0EAC0ED
:10274E00E0E9C0E0EE1229A5D0E0F9D0E0FAD0E041
:10275E00FB12076EFF60AAEBC0E0EAC0E0E9C0E042
:10276E00122641D0E02401F9D0E03400FAD0E0FB8B
:10277E00E5240460DCD524D98087D20280A21229F8
:10278E008760F7E524700104120479A924600DE531
:10279E0024600914F524122A2FEF60F3EA30E702C1
:1027AE00F404C3995079EAF425240430E701E404D3
:1027BE00F524800D12298760C1EA05242524120410
:1027CE0079EA9003FEF030E701E4252404D52404D1
:1027DE00200501141229A5E4C0E0122A2F9003FE51
:1027EE00E0601320E70714F0122629802204F0D0AF
:1027FE00E014C0E07F00122629E52460071226208F
:10280E001524800B300503122620D0E002267BD043
:10281E00E00480C4122987609EE524041204799096
:10282E0003FEEAF0E52420050260010424041229C7
:01283E00A5F4
:10283F0074FF04C0E0122A2F122629E52420050276
:10284F006003122620D0E0B524E87F45122633908E
:10285F0003FEE07F2B30E7047F2DF404C0E0122647
:10286F0041D0E075F00A84C0F012262AD0E012267B
:10287F002A02267B791080027908C206C2088008D6
:10288F00D2D5790A8004790AC2D5E524047002F5FD
:10289F0024E4FAFDFEFF1225FEFC7B082001131233
:1028AF0025FEFD7B1030000A1225FEFE1225FEFFCD
:1028BF007B20EC3382D592D55013C3E43000069FB2
:1028CF00FFE49EFEE42001039DFDE49CFCE4CBF8B5
:1028DF00C201EC700CCFCECDCCE824F8F870F380A9
:1028EF0017C3EF33FFEE33FEED33FDEC33FCEB3369
:1028FF00FB994002FB0FD8E9EB300105F8D0E0C49B
:10290F0048B201C0E00AEC4D4E4F78207B0070C2F8
:10291F00EAB5240040BCC0E01229A7D0F0D0E020D7
:10292F000104C4C0E0C4B201C0F012262AD0F0D511
:10293F00F0EB02267B120B3527185328835826E914
:10294F004C26E54228874F288F44288F4926FE437F
:10295F0028955527C246282245278C472A6250269C
:10296F00ED2D26F12E27142B26F5232712202A4B87
:10297F002A26AD480000270CE524B4FF0375240672
:10298F001225FEFC1225FEFD1225FEFE1225FEFF6E
:10299F009003F70204B6790AA2D520031430050973
:1029AF00B910020404B9080104A2D520060250018F
:1029BF00042002689202B523005034C0E07F20301B
:1029CF0003197F30A20272067205500F1229FEC240
:1029DF0002C206C205C2087F30800F300503E9C06E
:1029EF00E0122641300503D0E0F9D0E0B523CC301A
:1029FF0005177F30B9100C1226417F583004077F1E
:102A0F00788003B908031226413002057F2D022674
:102A1F00417F202008F87F2B2006F322920280CFDF
:102A2F007F00B40700500B24F7F582E43403F583DD
:102A3F00E0FF22286E756C6C2900D2011225FE3042
:102A4F0001F8C201782330D50108F60226AD2D50CA
:102A5F004349581225FE2403B405004001E4902A8F
:102A6F005D93122632743A122632D2037523040272
:022A7F002883AA
:10328C00E52230030104F8232824C3F582E4340337
:10329C00F583229003C03003039003C3E475F0015F
:1032AC00120AFE02076E60EAC5267002152514C5C7
:1032BC0026200304FF0262DE9003C074FFF5F002C7
:1032CC000B15FF0261D9E5236006D523037F00228D
:1032DC0020030F1261C5EF60080526E52670020574
:1032EC0025229003C0120AF512076EFF60E89003C6
:1032FC00C0E475F001120AFE80DC1232DCEFC0E093
:10330C001232CED0E040F3809DD2038002C20390F3
:10331C0003C0120B2CE4F524F522F525F5267523B4
:10332C0000C202C200C201C20412329FFF7005AF7C
:10333C00247E0022B4253012329FFF24D0B40A0020
:10334C00500C75F00AC523A42523F52380E924CF5E
:10335C00B41A00EF5002C2E50235B2D20180D8D2C5
:10336C000080D4D20480D0EF1232CE500812330633
:10337C00EF600E80A9EFC0E01232DCD0E06F609EEF
:10338C00EF60741232B280A71232DCEF6069E52371
:10339C007007052380031232DCEF601420040E1238
:1033AC00328CE475F001120AFEEF1207B4D523E655
:1033BC002004040522052480BA1232D2EFC0E01298
:1033CC0032CED0E050041232B2E4FF20040E12329E
:1033DC008CE475F001120AFEEF1207B4EF70DA20DC
:1033EC00040405220524808BE52360020523123397
:1033FC00061232D2EF70C6300304E41232B2E52466
:10340C00600302333B7EFF7FFF22E523600205232E
:10341C00123306D206D2051232D2EF30060260D732
:10342C00C0E01232B2D0E0AC27AD28AE29AF2A12E0
:10343C004D7E8C278D288E298F2A50071232DCC2A4
:10344C000580D4200410200502052412328C120AA7
:03345C00F5052251
:10345F00120A3602332AD0E0809A7900800A791056
:10346F00800679088002790AD205E52360020523D8
:10347F00E9C0E0123306EF60DD1232DCBF2D04D25B
:10348F00028003BF2B09123306EF60CA1232D2D06B
:10349F00E0B40A028033B40802802EBF30277002D6
:1034AF007408C205C0E01232D2D0E0BF78028003A8
:1034BF00BF58160523D523028007D52304D20580D4
:1034CF000B741080197002740ABF000AEFF8E4FC45
:1034DF00FDFEFF023565C0E0EF1232B2D0E0F9E435
:1034EF00FCFDFEFFE9C0E0ECC0E0EDC0E0EEC0E0A7
:1034FF00EFC0E01232D2EFF8D0E0FFD0E0FED0E024
:10350F00FDD0E0FCD0F0E8604DB461004007B47B23
:10351F00005002C2E524D0503DFA24F6500724F99A
:10352F005034240AFAEAB5F000502BCFA9F0A42F9B
:10353F00FF92D5E9C5F0CEA4A2D53EFE92D5E9C53E
:10354F00F0CDA4A2D53DFD92D5E9C5F0CCA4A2D56E
:10355F003CFCC205808EE8C0E020042A2005080547
:10356F00243002031209A112328C120AF50522200F
:10357F00000B20010DEE8FF01208878009120A361A
:10358F008004EF1207B4D0E01232B202332A2004C3
:10359F001012328C120AF50522E5258526F0120845
:1035AF008780E8120B3533F453346D58336B4C333B
:1035BF00674233434834714F34754433944334690D
:1035CF0049347555341646341645341647336F2A29
:0735DF00359D4E000033731F
:10514B0002046422EDA2E7D2E7F9EC3340F260F3FC
:10515B00B4FF08ED547F70E802046EF82481C2E0BE
:10516B00C0E0F40428FAC313FCED92E7FD90040CA5
:10517B00120AACEEA2E7E9BA7F02C3133400940023
:10518B00FA75F091A4E5F013F494FE8AF0A433E5DC
:10519B00F033248CD313FDE492E7FE7F007C3F7544
:1051AB008302ECC0E0F8EDC0E0F9EEC0E0FAEFC02E
:1051BB00E0FB8583F090040C120A7485F0831202D5
:1051CB009FD0E0FBD0E0FAD0E0F9D0E0F81200A5D8
:1051DB00ED6480FD30E7011CD583C7ED33CC33F88C
:0C51EB00D0E0A2E71328C313CC13FD2270
:103C6F003A70FA83BCAAE9E43E81E0F8BF9DE9E629
:103C7F003F80000039283C1ABB9969663DA335E3A4
:103C8F00BF255DE73FC90FDB418DDBCCC44936EE65
:103C9F0045C9913FC5B0F83D3F800000C317F534CB
:103CAF00452FFA73C60AFDDD123D7804A2E192009A
:103CBF001420E015903C6F74041205BB8030123D48
:103CCF007830E102B20020E0EBA883A98290040CC7
:103CDF00120AAC89828883903C8374041205BB85D9
:103CEF0082F090040C120A9085F082120196ED4C2E
:103CFF006007300004EC6480FC22123D78C0E0A81D
:103D0F0083A98290040C120AAC89828883903CA705
:103D1F0074031205BB8582F090040C120A9085F093
:103D2F008212019690040CE0CCF0A3E0CDF0A3E05A
:103D3F00CEF0A3E0CFF0903C9774031205BBD08276
:103D4F008582F090040C120A9085F082E58230E0B3
:103D5F000712029FB2008096EFCBFFEECAFEEDC9AD
:103D6F00FDECC8FC12029F8085ED33EC547FCC3301
:103D7F00920024605007D0E0D0E00204647B837A85
:103D8F00F97922783E120196EDF933ECF83324815C
:103D9F005011EFFBEEFA1203F81203BAECB2E7FC84
:103DAF001200A5ED33EC33602F2403F8C313FCEDA1
:103DBF0092E7FDE82481E4501FECF8EDF9EEFAEFFD
:103DCF00FB1203F8EF04C2E0FCF5821203C4ECB25D
:103DDF00E7FC1200A5E58203FAED33EC336007141C
:083DEF0013FCED92E7FDEA224E
:10471000BE1249253E4CCCCDBEAAAAAB3F800000BC
:104720003E7ADBB03EED63383F24BC7D3F490FDB72
:10473000ED33ECC2E7CC339200B4FF13ED547F604D
:10474000030204647FDB7E0F7DC97C3F024825C2E3
:1047500001C3947F401E7007EDD2E794904015EF9F
:10476000FBEEFAEDF9ECF87F007E007D807C3F12D5
:10477000029FD201ED33EC33248430E705E4C0E03E
:10478000806B04FAEDD2E754F0C333DAFD540734FA
:10479000002323C0E0CCC0E0F8EDC0E0F9EEC0E0BB
:1047A000FAEFC0E0FBE41203C4EC24FEFC90040C1E
:1047B000120AAC1201967B007A007980783F1200D1
:1047C000A590040CE0B2E7CCF0A3E0CDF0A3E0CEDE
:1047D000F0A3E0CFF0D0E0FBD0E0FAD0E0F9D0E0F9
:1047E000F81200A590040C120A9012029F90040C7B
:1047F000120AAC90471074031205BB90040C120A05
:1048000090120196D0E0600F241CF582E43447F545
:1048100083120A9C1200A530010B7BDB7A0F79C949
:1048200078BF1200A5ED33EC336006ECA20092E7EE
:02483000FC2268
:105C4500ECC0E0F8EDC0E0F9EEC0E0FAEFC0E0FB33
:105C5500120196EC6480FC7B007A007980783F1213
:105C650000A512514FD0E0FBD0E0FAD0E0F9D0E02A
:105C7500F8C0E012029F124730D0E030E70B7840C1
:0A5C850079497A0F7BD91200A5229D
:10042F00E9D2E7C933E833F892D5EDD2E7CD33EC13
:07043F0033FC5002B2D5228C
:10044600EC30E7100FBF000C0EBE00080DBD000417
:100456000BEB6014A2D5EB13FCED92E7FD2274FFC3
:10046600FCFDFEFF22E480F8A2D574FF13FC7D801C
:03047600E480EF30
:10047900F920E73624F950037907E4F42402FBE56F
:1004890082158270021583DBF6E024FB501BE960BC
:1004990014E4F0E582158270021583E004F0B40AD1
