:020000040800F2
:10000000B8580120A90200081D8F00089D73000840
:10001000198F0008910D00081BEA0008000000007D
:10002000000000000000000000000000A99B000884
:10003000ED12000800000000BF020008C102000825
:10004000C3020008C3020008C3020008C30200087C
:10005000C3020008C3020008C3020008C30200086C
:10006000C3020008C3020008C3020008C30200085C
:10007000C3020008C3020008C3020008C30200084C
:10008000C3020008C3020008C3020008C30200083C
:10009000C3020008C3020008C3020008C30200082C
:1000A000C3020008C3020008C3020008C30200081C
:1000B000C3020008A1D5000829D60008C302000821
:1000C000C3020008C3020008C3020008C3020008FC
:1000D000C3020008EDE70008C3020008C3020008DD
:1000E000C3020008C3020008C3020008C3020008DC
:1000F000C3020008C3020008C3020008C3020008CC
:10010000C3020008C3020008C3020008C3020008BB
:10011000C3020008C3020008C3020008C3020008AB
:10012000C3020008C3020008C3020008C30200089B
:10013000C3020008C3020008C3020008C30200088B
:10014000C3020008C3020008C3020008C30200087B
:10015000C3020008C3020008C3020008C30200086B
:10016000C3020008C3020008C3020008C30200085B
:10017000C3020008C3020008C3020008C30200084B
:10018000C3020008C302000800F002F800F063F8A0
:100190000AA090E8000C82448344AAF10107DA45E2
:1001A00001D100F058F8AFF2090EBAE80F0013F0D1
:1001B000010F18BFFB1A43F00103184788D1040050
:1001C000A8D104000A444FF0000C10F8013B13F0D2
:1001D000070408BF10F8014B1D1108BF10F8015BA0
:1001E000641E05D010F8016B641E01F8016BF9D193
:1001F00013F0080F1EBF10F8014BAD1C0C1B09D1EA
:100200006D1E58BF01F801CBFAD505E014F8016B5B
:1002100001F8016B6D1EF9D59142D6D370470000ED
:100220000023002400250026103A28BF78C1FBD8FF
:10023000520728BF30C148BF0B607047782900F0D3
:100240009580002070471FB51BF047FD00F0CFF8E8
:100250001FBD10B510BD00F035FB1146FFF7F3FFD1
:100260001AF0F4FC00F053FB03B4FFF7F2FF03BCF9
:100270001AF0E7FB0B49D1F800C04A685CF8043B70
:100280001068184442F8040B8C4528BFA1F1DC0C1F
:100290008A4228BFA1F1DC02C1F800C04A6020F008
:1002A000004070474C4E01200948804709480047EC
:1002B000FEE7FEE7FEE7FEE7FEE7FEE7FEE7FEE716
:1002C000FEE7FEE704480549054A064B7047000073
:1002D000C19C000889010008B84E0120B8580120CF
:1002E000B8500120B8500120704700000FB40449F5
:1002F00010B503AA029800F04FFA10BC5DF814FB89
:10030000640000202DE9F0410E46044600202062E2
:100310002046E168884730B3252805D0D4E901217B
:100320009047206A401CF2E7E16820460027884792
:10033000050018D0A5F14100192802D820354FF446
:1003400000673246294620462760FFF777FF40B115
:10035000012804D0F61D26F007060836D8E7361D1A
:10036000D6E72846DAE7206ABDE8F08170B5044692
:100370000D4621461068AFF300802188090502D59B
:100380000F4A7A4402E00E4A7A440E32002104F108
:10039000240305E000F00F060009965D5E54491C39
:1003A0000028F7D120780023000704D5702D02D053
:1003B00009B1022311322046BDE8704000F092B925
:1003C000EFCC04000B4910B5A1F17C020A4CC2E944
:1003D0003712372106E000EB104342F82130074B7B
:1003E00000FB03400B1EA1F10101F4DC10BD012054
:1003F000E8E70000EC4D0120E119D666CD0D0100C3
:1004000040EA010310B59B070FD1042A0DD310C891
:1004100008C9121F9C42F8D020BA19BA884201D9E3
:10042000012010BD4FF0FF3010BD1AB1D30703D02B
:10043000521C07E0002010BD10F8013B11F8014BE1
:100440001B1B07D110F8013B11F8014B1B1B01D1FD
:10045000921EF1D1184610BD40EA0103024630B5A4
:100460009B0710D14FF0013400E008C208C91D1BE2
:100470009D4315EAC41FF8D013F0FF0102F8011BD9
:100480000DD01B0AF8E711F8013B002B02F8013BE5
:1004900005D011F8013B002B02F8013BF3D130BD30
:1004A00010B5431C02E010F8011B71B18107FAD1AD
:1004B0004FF0013202C88C1A8C4314EAC211F9D0F1
:1004C000C01A0A0603D0C01E10BDC01A10BD0A040F
:1004D00001D0801E10BD0902FCD0401E10BD421E7E
:1004E00012F8013F002BFBD111F8013B002B02F861
:1004F000013BF9D17047032A40F2308010F0030C21
:1005000000F0158011F8013BBCF1020F624498BF66
:1005100011F801CB00F8013B38BF11F8013BA2F103
:10052000040298BF00F801CB38BF00F8013B11F07E
:10053000030300F06780083AC0F0088051F8043BDC
:10054000083A51F804CBA0E80810F5E7121D5CBF8B
:1005500051F8043B40F8043BAFF30080D20724BFBE
:1005600011F8013B11F801CB48BF11F8012B24BF52
:1005700000F8013B00F801CB48BF00F8012B7047A1
:10058000431A28BF9A427FF6B6AF032A104411449B
:1005900040F2268010F0030F1EBF11F8013D521EDD
:1005A00000F8013D10F0030F7FF4F6AF11F00303E4
:1005B00000F01781083AC0F00B8051F8043D083A6A
:1005C00051F804CD40F8043D40F804CDFFF7F3BFE7
:1005D000121D5CBF51F8043D40F8043DAFF30080AC
:1005E000D20724BF11F8013D11F801CD48BF11F821
:1005F000012C24BF00F8013D00F801CD48BF00F8F0
:10060000012C704710B5203AC0F00B80B1E81850AB
:10061000203AA0E81850B1E81850A0E81850BFF4EC
:10062000F5AF5FEA027C24BFB1E81850A0E818508B
:1006300044BF18C918C0BDE810405FEA827C24BFDF
:1006400051F8043B40F8043B08BF7047D20728BF6D
:1006500031F8023B48BF11F8012B28BF20F8023BBC
:1006600048BF00F8012B704702F0FF0343EA032262
:1006700042EA024200F0E1B84FF0000200B5134632
:1006800094469646203922BFA0E80C50A0E80C50B2
:10069000B1F12001BFF4F7AF090728BFA0E80C5063
:1006A00048BF0CC05DF804EB890028BF40F8042B5C
:1006B00008BF704748BF20F8022B11F0804F18BFC9
:1006C00000F8012B7047704770477047704710B5AE
:1006D00000F0D4F8006810BD10B5044600F0CEF864
:1006E000046010BD2DE9F0470D4699469246044638
:1006F00000F124080168880604D5E06921F01001A2
:10070000216000E00120A84201DD471B00E0002736
:10071000A1697A1902EB0900081AA0612078C006C5
:1007200002D42046AFF30080002608E0D4E901217E
:100730001AF806009047206A401C761C20624E453D
:10074000F4DB2078C0060AD52046AFF3008006E02F
:10075000D4E9012130209047206A401C2062381ED5
:10076000A7F10107F4DC07E0D4E9012118F805003E
:100770009047206A401C2062281EA5F10105F3DC89
:100780002046AFF300802078000602D50220BDE8A5
:10079000F0870120FBE70000074B70B50D467B4456
:1007A00000F075F80446284600F084F810B14FF0C8
:1007B000FF3070BD204670BD8FA40100431A28BFD2
:1007C0009A427FF61FAF104410F0030F11441EBF72
:1007D00011F8013D521E00F8013D10F0030F7FF4A7
:1007E000F6AF103AC0F00A8010B531E91850103A4F
:1007F00020E91850BFF4F9AFBDE81040530724BFFB
:1008000031E9081020E9081044BF51F8043D40F8D0
:10081000043D12F0030F08BF7047D20728BF31F81C
:10082000023D48BF11F8012C28BF20F8023D48BF07
:1008300000F8012C70474FF000020429C0F012802C
:1008400010F0030C3FF41AAFCCF1040CBCF1020F12
:1008500018BF00F8012BA8BF20F8022BA1EB0C0158
:10086000FFF70CBF5FEAC17C24BF00F8012B00F842
:10087000012B48BF00F8012B70470000004870476B
:10088000544E012001694A1C02610878704700B586
:100890008FB0CDE901310021059105497944CDE9B9
:1008A000031011466846FFF72DFD0FB000BD000094
:1008B000E5FFFFFF007B00F08000704700487047B5
:1008C000544E01207546FFF7F9FFAE460500694614
:1008D000534620F00700854618B020B5FFF7F2FC1C
:1008E000BDE820404FF000064FF000074FF0000831
:1008F0004FF0000B21F00701AC46ACE8C009ACE8B2
:10090000C009ACE8C009ACE8C0098D46704710B515
:100910000446AFF300802046BDE81040FFF7A4BCBA
:10092000002800DC4042704738B54568044601465F
:1009300028460EF00DFA00282AD02068304A0F28E9
:1009400019D006DC0B2824D00C2810D00E2851D149
:100950002FE0112802D028284CD145E09268002AC7
:1009600016D02146284601B0BDE830401047214648
:1009700028465268F7E7284603F0C2F90090406E17
:100980000468684603F014FA002C01D02846A047FA
:1009900038BD284603F0B4F90090683003F00EF932
:1009A000009803216C3003F011F9684603F000FA57
:1009B00020E0E168486809680D2902D0202913D198
:1009C00005E0002810DD284616F0BEFD06E00028F0
:1009D00004DD2846BDE8384016F0B6BD2846BDE81F
:1009E0003840022116F0C6BDE06818B9002128463B
:1009F00000F090F92046BDE838400EF0D9BC000068
:100A0000AC010020F0B5044685B08069B4F9085007
:100A1000668A0027CDE90265CDE900170490B4F994
:100A20000C00B4F91060C118B4F90A00B4F90E5002
:100A3000104433462A4600F007F80546616800F086
:100A40007FF905B02846F0BDF0B585B00C46DDE96C
:100A50000D514C31DFF850C0DDE90A67CDE902C124
:100A60002146CDE900670EF0F3FB040018D003F037
:100A700047F91022294604900EF088FB0498302292
:100A80000A493430FFF7BEFD084D04990C3D286833
:100A9000486604A803F08CF9286841682046884716
:100AA00005B02046F0BD000029090008B80100206B
:100AB000F0B5044680688B4989B051F820506068D1
:100AC00000287DD0052804D006287AD0122879D1B4
:100AD000AEE0E86900284FD095E80E008DE80F00E1
:100AE00004F110010FC905F0EFFF002655F82600AC
:100AF00004F046FFA169E8690A1A216901446069A6
:100B0000304403F077FFA169E8690A1A21690144BA
:100B1000E069801B03F06EFFE169E8690A1A616908
:100B200001442069304404F005F8E169E8690A1AD3
:100B300061690144A069801B03F0FCFF761C022E52
:100B4000D4DBA86804F01CFFE069E9696669431A10
:100B500020694218521E3144801C04F025F8E169D6
:100B6000E869A2690B1A61690144101A401C921EBF
:100B700004F01AF8EE6913E05FF0000655F826005D
:100B800004F0FEFEE069831BA069821B6069811985
:100B90002069304403F090FF761C022EEEDB022623
:100BA000D5E90301CDE900016169E069084443101A
:100BB000A069891C821B2069304403F0E7FE02E033
:100BC00089E012E08AE0D5E90501CDE90001E36999
:100BD00060690121184401EB6001A0699B1E821B22
:100BE0002069304403F0D2FE78E0206803F088F8F2
:100BF000049020680FF038FE40B1A06808B10020D2
:100C000008E00498006F28B1012003E00498406FC9
:100C100000B10220049901EB8000C56E04A803F026
:100C2000C7F800231A462846216803F0C3FB55E0A5
:100C3000206803F065F80490866EEEB3B0F95C703E
:100C4000A168D1B3032942D05FF0000100EB81011C
:100C5000406D0C6C04F0A8FE204604F091FE05A83F
:100C600004F042F8BDF81410A88B0144ADF814103C
:100C7000BDF81810081AADF81800BDF81600801C51
:100C8000ADF81600BDF81A00801EADF81A000498E1
:100C90005E30B0F90220B0F9001005A804F0E2FCC3
:100CA00004A803F085F8022004F0C4FE304603F0E7
:100CB00027F83A4605A901E00BE006E0079003F0AB
:100CC0007FFC07A803F074F808E00121BEE70221C9
:100CD000BCE704A8F6E720680FF07CFA09B0002012
:100CE000F0BD0000A0B90408044A0349116004499A
:100CF0004A6A486210467047E8010020AC010020B3
:100D0000B801002000294FF0100101D00EF0AAB860
:100D10000EF002B84FF480720029114601D00EF097
:100D2000A1B80DF0F9BF0000034802494160034932
:100D3000816070479D770108AC010020A976010809
:100D40002DE9FF410E4605004FF001041CD002F0D2
:100D5000D7FF0190876E01A8009703F029F831466C
:100D6000684606F097F978B100980024B84208D098
:100D7000284602F0C5FF01900099816601A803F0A2
:100D800017F828460EF045FF04B02046BDE8F08174
:100D900000BFFEE77CB5214C0546216831F8220FE3
:100DA0004A8D104408804888CA8D104448802846DF
:100DB00003F08AFF2168498CADF8001046182846D8
:100DC00006F004F83044401EADF8040003F0AAFF1A
:100DD0002168898CADF802100844401EADF8060069
:100DE00068460FF0D5FB04E0284601F055F90FF0F6
:100DF00069FB0028F8D10A2D04D0BDF80400216851
:100E0000401C4884206830F8221F428D891A0180D6
:100E10004188C28D891A41807CBD000008010020F4
:100E200031B52DED068B82B0002400257448007882
:100E3000401C73490870084600780A2190FBF1F2C3
:100E400001FB120018B16E4800780A287EDA0122F0
:100E500008A9002008F000F99DF8200000F01F000C
:100E6000002873D09DF8200000F01F0040F0C00063
:100E7000644981F82000002486E0624890F8200050
:100E80000121A140084000287CD05F4931F81400BE
:100E9000042201A908F0E0F85A4890F8340000F064
:100EA0000100D0B39DF807109DF8062001EB022049
:100EB0001AF045FB41EC190B9FED540B53EC102B32
:100EC0001AF0A4FB41EC180B1AF00CFB81B24D4850
:100ED000163020F814109DF805109DF8042001EB41
:100EE00002201AF02CFB41EC1A0B9FED4A0B53EC3D
:100EF000102B1AF08BFB41EC190B9FED480B53ECB8
:100F0000102B1AF0B7FC41EC180B1AF0EBFA81B277
:100F10003C480C3020F8141034E0FFE79DF807102F
:100F20009DF8062001EB02201AF009FB41EC190B99
:100F30009FED360B53EC102B1AF068FB41EC180BAD
:100F40001AF0D0FA81B22F480C3000E02BE020F8E4
:100F500014109DF805109DF8042001EB02201AF0F2
:100F6000EEFA41EC190B9FED2B0B53EC102B1AF002
:100F70004DFB41EC180B1AF0B5FA81B2214816303E
:100F800020F81410601CC4B2052CFFF676AF0125C2
:100F90001C48808920B91B48C08A08B900200890E5
:100FA0000020174908709DF8200000F01F00D0B9FC
:100FB000144890F8200000F0800040B1114890F8EB
:100FC000200020F080000F4981F820000BE04FF650
:100FD000FF700C498881C882084690F8200000F014
:100FE000E00081F8200006480078F02802DD0A20A1
:100FF00003490870284602B0BDEC068B38BD0000DE
:101000000400002008000020AED401087B14AE4785
:10101000E17AD43FD881734694F6D23F00000000B5
:101020000000894010B5052019F070FD10BD0000CA
:1010300010B500200F4908600F48006820F44000F8
:101040000D4908600846006840F480000860FFF71A
:10105000E9FF00200949C1F8AC02FFF7E3FF0120D6
:1010600004490860FFF7DEFF00200549C1F880024F
:1010700010BD0000808240420014024000804242C5
:10108000008040421CB50121222008F083FA012093
:1010900000908DF8040003208DF8050000208DF8E5
:1010A000060001208DF807006946084801F084FB1E
:1010B0004FF4006000906946054801F07DFB012077
:1010C000044908600449C1F8AC021CBD0004024098
:1010D00000140240808240420080424210B500204D
:1010E0000F4908600F48006820F440000D4908606F
:1010F0000846006840F480000860FFF793FF012075
:101100000949C1F8AC02FFF78DFF012004490860CE
:10111000FFF788FF00200549C1F8800210BD0000DC
:1011200080824042001402400080424200804042DF
:1011300070B5054600241448006820F440001249A8
:101140000860084600680860002612E000200F4989
:1011500008601E2019F0DAFC01200D49C1F8800258
:101160006006040E0B48006808B1601CC4B2701C15
:10117000C6B2082EEADB15B9FFF7B0FF01E0FFF7B2
:1011800057FF204670BD000000140240808240429C
:10119000008040422C82424270B5044613480068E9
:1011A00020F44000114908600846006840F48000BF
:1011B000086000200E490860FFF734FF002511E0A9
:1011C000E0090C4908606006040E01200A49C1F8D4
:1011D0008002FFF727FF002005490860FFF722FF84
:1011E000681CC5B2082DEBDB70BD00000014024086
:1011F00080824042AC8242420080404210B50F489B
:10120000006820F440000D4908600846006840F47A
:101210008000086001200A4908600A49C1F880027C
:10122000142019F073FC002005490860FFF7FAFE4E
:1012300000200449C1F8800210BD000000140240E3
:10124000AC8242420080404210B50D48006820F454
:1012500040000B4908600846006840F480000860C0
:10126000012008490860142019F050FC00200649AC
:10127000C1F8AC02FFF7D6FE01200449086010BD9A
:10128000001402408082404200804242AC824242CE
:1012900010B500241148006820F440000F49086090
:1012A00008460068086001200D4908600D49C1F832
:1012B00080020AE0601CC4B2FA2C03DDFFF7C4FF11
:1012C000012010BD012019F021FC0548803800687C
:1012D0000028EFD10449086000BFF2E70014024083
:1012E000AC8242420080404280824042704700000F
:1012F0002DE9FC5F15460746DFF89C8028440190E5
:10130000D8F800001C460E46C06E01EB04094946A1
:10131000426801989047781B0090D8F80000494631
:10132000C06E426800989047D8F8000006EB050BA5
:1013300007EB0409C06E5946426848469047D8F802
:101340000000A6EB050A5146C06E42684846904729
:10135000002C1ED0D8F80000361B4546C06E314622
:1013600042680198904728683146C06E42680098EC
:10137000904728683C1B5946C06E426820469047FB
:1013800028685146C06E426802B02046BDE8F05F52
:101390001047BDE8FC9F0000080100202DE9F04344
:1013A00006460F469046002445460320A0EB480918
:1013B0003CE07A1B91B2321990B206F0CFFA3A1B98
:1013C00091B2721990B206F0C9FA3A1991B2721933
:1013D00090B206F0C3FA7A1991B2321990B206F0BF
:1013E000BDFA7A1991B2321B90B206F0B7FA3A19E7
:1013F00091B2721B90B206F0B1FA7A1B91B2321B15
:1014000090B206F0ABFA3A1B91B2721B90B206F0A2
:10141000A5FA641CB9F1000F03DAA000801D814415
:1014200004E0601B80000A3081446D1EAC42C0DDC8
:10143000BDE8F0832DE9F047456804468EB00026EC
:10144000284602F05DFC00905C30B0F820A0D0F897
:101450000C90D0F82480C76A006800B1066868461E
:1014600002F0A6FC05E079682046884700283DD1B7
:101470003F68002FF7D12068142844D009DCA0F180
:101480000B00072839D2DFE800F0BE3989B434B444
:10149000110020287ED004DC17283ED01E282CD135
:1014A0004BE026283CD02A2827D110E02846E668C1
:1014B00002F026FC0190717A39B9317A012904D100
:1014C00030F87C1F41F48071018001A88FE028462C
:1014D00002F016FC0090E16811B1C0F8841002E03F
:1014E000D0F88400E060684602F062FC0EB0BDE80F
:1014F000F087002E7DD02846B0477AE02146284666
:1015000016F0F4F8F2E705A9284600F0E3FBE068DE
:101510000699016007994160E8E7C4F80C90E5E797
:10152000E0680228E2D10C95E0680D9027200A902F
:101530000AA9A0680FF0B2FBD8E7E068012804D040
:101540000021284600F02DFBD0E740460EF0C3FBFB
:1015500058B140460EF0C8FD40460EF091FA88B1F1
:10156000012140460DF07EFC0CE048460EF00AFEDC
:101570008046284602F0C4FB0090C0F88080684690
:1015800002F016FC0121284600F00BFBB8F1000F19
:10159000ACD100E00EE00020E060A7E75FEA0A704F
:1015A00027D4E068C06820B3007A10B328460EF054
:1015B0009BFD1EE0E668E6B1294670680FF03DF934
:1015C00020B10121284617F09DFB12E0002128469A
:1015D00017F098FB294630680FF01EF948B12846ED
:1015E00002F08EFB03903168C0F8801003A802F06F
:1015F000DFFB214628460DF0ABFB00288CD02046AF
:101600000DF0D6FE72E7284602F07AFB00907030AB
:1016100002F0D4FA6846EAE7F0B587B0B0F90840BE
:101620000DF10C0C0C9E87694568ACE8F000448A0B
:101630000025CDE900150294B0F90C10B0F9105056
:10164000B0F90E40B0F90A00194410442B46224666
:1016500000F002F807B0F0BD2DE9F0478AB00DF1B7
:101660004C0CDDE91784BCE86006129F45F48055F8
:101670006034DFF8B8C0CDE902C4CDE900750DF0E3
:10168000E7FD04004DD002F03BFB302249460490B8
:101690000DF07CFD0498282225493430FEF7B2FF76
:1016A0000498234F5C30083FC0F808800684002669
:1016B00046620661C6627968016004A802F078FBA0
:1016C00005A9204600F006FB1A4841F282710396F4
:1016D0000094CDE90110BDF91E00BDF91A10BDF945
:1016E0001C20431ABDF918005B1C121A521C0DF085
:1016F000AFFD06467868416820468847204602F0DC
:10170000FFFA0490866604A802F052FB42F204003D
:10171000054202D120460DF0E3FE5146204600F07E
:1017200091FA0AB02046BDE8F087000035140008A1
:101730007C020020931E00082DE9F041044694B07D
:10174000006800F0B7F908B1D94D01E0D84D2C354B
:10175000606815281ED00CDC0B281FD004DC002884
:101760007ED005287DD12EE10E287BD01228F9D11C
:1017700041E1162806D0172808D0182808D01C28C0
:10178000F0D109E0E86914B0BDE8F081286AFAE711
:10179000686AF8E7A86AF6E76869F4E720680B90DA
:1017A0001C200C90206802F0ABFA0390016D0BA88E
:1017B0008847064603A802F0FBFA022E0EDB95E8E6
:1017C00007008DE80700D4E904023346A16905F05B
:1017D00049F920698719A069801B2BE0286804F06B
:1017E000CFF82169E8690A18521E606903F002F90E
:1017F000A269E869111A491C606903F0FBF867697E
:1018000020697F1C394603F037F93946A06903F097
:1018100033F9686804F0B4F820693946401C03F0D5
:101820002BF9A0693946401E03F026F92769A06903
:10183000BF1C801E8046286804F0A2F84246394644
:10184000606903F0D7F8686804F09AF86069424666
:10185000401C394603F0CEF8686A02280FDD02E02A
:1018600015E1AFE000E1A86804F08AF861696A6AEE
:10187000881C8B1801465B1E4246384627E0296AC1
:10188000B14226DD6069022E074600F1020801DB45
:10189000374401E007F10207206901DB304401E031
:1018A00000F1020022693B460A44A2F101024146CE
:1018B00003F07AF9022E02DBA069821B01E0A26923
:1018C000921EA069E9693B46401A401C414603F05C
:1018D0006BF9022E02DB6069064401E06669B61C02
:1018E000E76928687F1E04F04BF83A4631462069C4
:1018F00003F020F93A463146A06903F01BF9E76985
:101900006868BF1E04F03CF820693A46401C314626
:1019100003F010F9A0693A46401E314603F00AF977
:10192000E869022802DC286A022823DDA86A022866
:1019300002DDE1690F1A01E0E769BF1EA86804F043
:101940001FF8E969022909DD20693B46421800F1C8
:10195000020C521E3146604603F026F9286A02281E
:1019600008DDA269E8693B46101A401C921E314608
:1019700003F01AF9286804F003F8D4E90620216975
:1019800003F038F8686803F0FBFFA2692169E06999
:10199000521E491C401E03F02DF8A86A022811DDD2
:1019A0002669A169E469B61C271AA1F102087F1C07
:1019B000A41EA86803F0E4FF234642463946304699
:1019C00003F0F2F872E0208A06B2ADF81460A08A43
:1019D00001B2ADF81610208B02B2ADF81820A08B22
:1019E00003B2ADF81A30D5E90304CDE9000430465E
:1019F00002F0CCFF5AE0208A298B0844ADF814008D
:101A0000A08AADF81600208B298B401AADF818007B
:101A1000A08BADF81A00206802F072F90390006FF5
:101A2000F0B1022004F006F8039991F87C00C0F3AD
:101A3000C00001EB8000006C03F0A2FF0398406B34
:101A400003F0B2FF0398006F02F05AF903990A906D
:101A5000B1F95A2005A902F0B3FD0AA802F0A8F9CD
:101A600003A802F0A5F921E0208AADF81400A08AAD
:101A7000ADF81600208BADF81800A08BADF81A0059
:101A8000A86803F07DFF05A803F0B2F80EE0206817
:101A900002F036F9039030F85A1F41F00C01018032
:101AA00003A802F085F920680EF094FB00206AE696
:101AB000B802002038B5002450B102F021F900909E
:101AC00090F87C00000700D50124684602F070F908
:101AD000204638BD022905D2034A52F821102C2293
:101AE000FEF790BD70470000B0B9040830B5044659
:101AF0008BB0006802F004F9009090F87C10246A22
:101B0000006FC1F3C00508B102F0FAF80690E06872
:101B1000029020690390A088401EADF81000E08973
:101B2000ADF812002089401CADF81400608AADF8B1
:101B30001600BDF80800401CADF80800BDF80A000A
:101B4000401CADF80A00BDF80C00401EADF80C00BA
:101B50000098406B03F028FF009808AA02A9B0F98A
:101B60005A30069804F0DAFB009800EB8500806B91
:101B700006F066FC009800EB8500006C06F098FC0F
:101B800008AB02AA04A906980DF034FA684602F0E0
:101B90000FF9069810B106A802F00AF90BB0002060
:101BA00030BD002801D017F0ADB87047074A06498C
:101BB000054B1160064A083BD16958601B68C2E9B1
:101BC0000630084670470000AC0200207802002072
:101BD0007C02002038B50D46040009D002F090F8D0
:101BE00000900566684602F0E3F820460EF011F812
:101BF00038BD000070B50D460146022D1ED2104CB6
:101C00002C2254F82500FEF7FDFC54F82510022084
:101C1000CA69022A00DAC86154F825100A6A022A41
:101C200000DA086254F825104A6A022A00DA48628B
:101C300054F825108A6A022A00DA886270BD000012
:101C4000B0B904087CB50D46040019D002F058F86C
:101C50000090006F0190684602F0AAF8294601A89A
:101C600005F018FA00280BD0204602F049F8009041
:101C700001990167684602F09BF820460DF0C9FF04
:101C80007CBD38B50C4605000ED002F039F8009046
:101C9000B0F95A10A14204D0A0F85A4028460DF0DD
:101CA000B8FF684602F084F838BD38B50C46050028
:101CB0000FD002F025F80022009000EB8201521CA8
:101CC0000C64022AF9D3684602F072F828460DF037
:101CD000A0FF38BD2DE9F34F85B000270C46B8466C
:101CE000059802F00DF80090C06D012185680598F7
:101CF0002A68904782462A680321059890470490F5
:101D00002A6802210598904703902A6800210598C7
:101D10009047064600980EF02CFC834600980EF083
:101D20002FFC8146009890F83210890601D5B0F951
:101D3000588000F036F805460098C06E10B10DF0DE
:101D4000CCFC074625806780A4F804A0049AABEB7E
:101D5000020006EB0802401E2A4420813A44E28039
:101D6000039BA9EB0302521E6281A4F80CA02082FF
:101D70007019E681401E6082684602F019F8B4F9D5
:101D80000C000190B4F91000029002AA01A9059874
:101D900000F039F80198A0810298208207B0BDE8D0
:101DA000F08F10B50146002091F83220920607D539
:101DB000B1F95400002803D1486B02F0F1FF801CF8
:101DC00010BD70B58AB00C46054601F099FF099028
:101DD000C06D866809A801F0EBFF009534B1012CB5
:101DE00006D0022C0BD0032C04D10AE0182000E00E
:101DF000162001907168684688470AB070BD1520AA
:101E0000F7E71720F5E72DE9FC4790468946044699
:101E100001F076FF0090C16D056868468E6801F09C
:101E2000C7FF3268002120469047064620460DF045
:101E3000E7FB2F1404462DB227E001F061FF01906B
:101E4000B0F90010B0F90420B0F90230491B521B60
:101E5000DB1BB34212D190F82800000607D5D8F852
:101E6000000088420ADB491EC8F8001006E0D9F8D5
:101E70000000904202DC521CC9F8002001A801F0C9
:101E800097FF20460DF0E8FB0446002CD5D1BDE8B5
:101E9000FC872DE9F0430446406885B006460DF006
:101EA000E2FB814601F02CFF0090D0F88080876C27
:101EB000456E684601F07CFF2068172859D008DC81
:101EC0000E2837D00F280BD0142852D015283AD11D
:101ED0004FE01E2818D01F2827D0222833D146E0F3
:101EE0006FF07040874204D0384606F0A9FA02F03D
:101EF00033F9002D12D0D4E902122068CDE9010691
:101F0000CDE9031201A822E0E068002806D05FEACC
:101F1000080006D0B04504D00EF0E6F805B0BDE8E4
:101F2000F08330460EF02EF916E0214648460CF0BC
:101F30000FFFF3E7E0684168002904DD0068092825
:101F4000EFD00A2805D0A5B12046C4F80490A847D0
:101F5000E4E730460EF01EF90446484601F0D0FE94
:101F60000090C0F88040684601F022FFD6E7E760A5
:101F7000D4E720460DF01CFAD0E7000051B18200F2
:101F8000A2F1C042126842F001038200A2F1C042F5
:101F9000136009E08200A2F1C0421268034B1A40AC
:101FA0008300A3F1C0431A6070470000FEFF0F00DA
:101FB000D0E901121143C268114302691143426919
:101FC000114382691143C2691143026A1143426A93
:101FD0001143826A1143C26A1143026B11430268C2
:101FE0009200A2F1C0421160816808290BD10168FA
:101FF0008900A1F1C041096841F0400201688900EF
:10200000A1F1C0410A60416B0968426B526841EA24
:102010000211426B926841EA0221426B928941EAC5
:102020000241426B128A41EA0251426B127D41EA3F
:102030000261426B926911430268521C9200A2F144
:10204000C0421160C16AB1F5804F1BD1816B096834
:10205000826B526841EA0211826B926841EA022166
:10206000826B128A41EA0251826B127D41EA02615F
:10207000826B9269114302689200A2F1C042C2F8D9
:10208000041107E06FF0704201688900A1F1C041BE
:10209000C1F804217047000010B504460A280FD08B
:1020A0000D2C11D009480068C06901682046884796
:1020B00007480168002907D02046BDE810400847BE
:1020C000BDE8104002F0CCB910BD000008010020AE
:1020D000300100202DE9F0430446C56887B09046E2
:1020E0008946002003F05EFC064625B1287910B130
:1020F00046F0020001E026F0020003F053FC2069E4
:10210000012558B1D4E902128DE8260003956388B1
:102110002288046841464846A0471EE0124F134BF0
:10212000214638681B68427CE068984730B9E088EF
:10213000012801D0002001E03868806BA288E38884
:10214000A1680095CDE90410CDE9023201956388BC
:1021500022884146484605F045FA07B03046BDE8BA
:10216000F04303F01FBC0000080100200001002024
:102170002DE9F0478146884640F2C32050434FF492
:102180007A7190FBF1F502FB02F002EBD27100EBE9
:1021900061066D1C1746002341464846FFF7A8F824
:1021A000012413E004FB04F007FB0700B04206DD46
:1021B0003B46224641464846FFF79AF87F1E3B467B
:1021C000224641464846FFF793F8641CAC42E9DDDD
:1021D000BDE8F0871CB50024019401AC009400F028
:1021E000E7F81CBD2DE9FF4F83B0814606988A466B
:1021F000A0EB0A08109E00200090A2EB09043568AD
:10220000934654EA080018D02046FEF789FB07469B
:102210004046FEF785FB87420BDA2046444680465F
:102220004846D14682465846DDF818B0069001204F
:102230000090002C07DD204606E007B04846BDE8C8
:10224000F04F00F03BB96042A0420AD04846D94660
:102250006442C8F1000883464FF0FF37DDF818A04C
:1022600000E001275148B8F1000F11D004EBD47100
:102270004FEA610B01DACBF1000B4C480068807E1D
:1022800088B3002F02DA30682044306000257BE0FC
:1022900000990029016821D0897E11B1002780466C
:1022A00015E007B05A4649465046BDE8F04F05F0E4
:1022B00067BB28466D1C16F0DFFD38B9D8F8000062
:1022C00009EB0701C06E4268504690477F1CA74249
:1022D000EFDD6D1E356007B0BDE8F08F8A7E1AB164
:1022E0000027804617E019E0C86E5A465146036839
:1022F00007B04846BDE8F04F184728466D1C16F059
:10230000BBFD38B9D8F8001009EB0700C96E4A6860
:10231000514690477F1CA742EFDDDAE700250FE02A
:1023200008FB05B090FBF4F101EB0A00009951B1F4
:102330001E4A09EB05011268D26E526890476D1C67
:10234000A542EDDDC7E7194909EB05030968C96E28
:102350004A6801461846F1E708FB05B090FBF4F126
:1023600001EB0A00019030683844306016F084FDBB
:1023700048B9009890B10D4809EB05010068C06E9E
:102380004268019890476D1CA542E5DD3068002F3A
:1023900001DA20443060C01B30609CE7034909EB40
:1023A00005000968C96E4A680199EBE70801002039
:1023B0002DE9FF470F4640491646804609680C98AC
:1023C0001D460A7E012A1CD0A8EB0600791B50EAA4
:1023D00001031CD0A2F1010917F0E6FF00F58060AF
:1023E000824604F07FFF00FB09F4504604F07EFFB4
:1023F00000FB09F1002C0CDAC4F500708012404299
:102400000AE00090324639464046FFF7EBFEBDE851
:10241000FF8704F50074A012002904DAC1F50071E9
:1024200089124C4202E001F500718C12002804DD93
:10243000411C01EBD171491003E000EBD071491050
:10244000401E00EBD0704210002C04DD601C00EB3D
:10245000D070401003E004EBD4704010641E04EB15
:10246000D47308EB0104ADF800403C18ADF802400D
:10247000A8EB02045B10B21AADF80440ADF80820D6
:102480003144FC1AEA1AADF80C102844ADF80A20C1
:10249000ADF80E000023ADF806401A460421684648
:1024A00000F07AF83946404612F0BEF92946304627
:1024B00012F0BAF9ABE7000008010020064A1368E1
:1024C0001A7E012A05D0521E02EBD272521000F081
:1024D00005B8DA6E52681047080100202DE9F05F58
:1024E0000646884640F2C32050434FF47A7190FB71
:1024F000F1F702FB02F002EBD27100EB610B254910
:1025000014467F1C09683244301BC96E0B68414673
:10251000984701253AE000BF05FB05F004FB0401E4
:1025200059451CDDBC4219DD1A4B06EB050AA6EB2A
:1025300005091B68AAF1010208EB0401DB6E09F131
:1025400001001B689847134BAAF10102A8EB040194
:102550001B6809F10100DB6E1B689847641E0D487B
:1025600006EB040AA6EB0409006808EB05015246D5
:10257000C06E0368484698470648A8EB05015246D6
:102580000068C06E0368484698476D1CBD42C3DDB5
:10259000BDE8F09F080100202DE9FF4F40F6FF74D1
:1025A0000F46664283B09B46814600210BE000BF88
:1025B00009EB8100B0F90200A04200DA0446B04203
:1025C00000DD0646491CB942F2DB684800684069F4
:1025D00000280DD0B0F906101A46A1EB0B01B1424C
:1025E00000DA0E46B0F90200801AA04200DD04466F
:1025F000B5E0DFF87CA100200546CAF8000089E0BC
:10260000781E854201DA6B1C00E0002309EB850C83
:1026100009EB8302BCF90200B2F90210A04245D1D5
:10262000A14215D139F92330059A39F9251003EB68
:10263000020C4E4A05981268084404EB0B01D26E56
:102640006045136801DA62462BE00246604628E0E6
:102650002846A4464FF000087A1E0BE008B1401E41
:1026600000E0781E09EB8003B3F90230634504D122
:1026700008F101089045F1DB2346A34249D0A3EBC2
:10268000040239F92500A1EB040C059B92EA0C0227
:1026900009D4364A184404EB0B011268D26E136851
:1026A0000246984735E00EF007FC32E0A14230D0F8
:1026B00001DBA04203DDA0422BDBA14229DCE04686
:1026C00088420ADC0346A04223DC0846A14220DB04
:1026D000B8F900C0B2F9001008E00B46A14218DCBE
:1026E000A04216DBB2F900C0B8F90010E21AA1EB63
:1026F0000C0151430029A0EB030202DD01EB620152
:1027000002E0A1EB6201491CC01A91FBF0F06044A9
:10271000C9E76D1CBD42FFF673AF0598009004EB4E
:102720000B00019000208046054613E01149B8F1E6
:10273000000F31F915A009D0009901EB0A020844F5
:102740000A490968C96E0B680199984788F0010821
:1027500050466D1C064909688D42E7DB641CB44293
:102760007FF747AF07B0BDE8F08F000008010020F9
:1027700018060020284D012010B5002003F0FCF8B9
:102780006FF07F4003F0FCF8012003F041F90020D6
:1027900003F046F9002003F04DF9002003F002F9A0
:1027A0000448006803F000F9BDE81040002003F081
:1027B0000BB9000004010020F0B50A4600210023F7
:1027C000002400BF3DE0012505FA01F3156805EA84
:1027D00003049C4234D105684F000326BE40B54334
:1027E000056015794E00B5400668354305601579DA
:1027F000012D02D01579022D16D185684F000326D0
:10280000BE40B543856055794E00B5408668354376
:102810008560456801268E40B543456045689679D8
:102820008E40B6B235434560C5684F000326BE40B2
:10283000B543C560D5794E00B540C6683543C5601F
:10284000491C1029BFD3F0BDF0B5002300244D076B
:10285000ED0E02FA05F3CE1000F1200555F82650D2
:102860004E07F70E0F26BE40B543CF1000F12006ED
:1028700046F82750CE1000F1200555F8265045EABD
:102880000304CE1000F1200545F82640F0BD018379
:10289000704770B50246002300E05B1CD55C002D3C
:1028A000FBD10124012003E004EB84056C00401CF3
:1028B000B1FBF4F50A2DF7D20025D61835540DE0FA
:1028C0000A25B1FBF5F605FB16153035D61806447A
:1028D00006F8015C0A25B1FBF5F1401E0028EFD196
:1028E00070BD10B502460020002300E0401C145CBF
:1028F000002CFBD103E0CC5C1454401C5B1CCC5C72
:10290000002CF8D1145410BD10B508A115A000F08A
:10291000FDFB00F0F3FB002000F01AFA0EF0F4FBD0
:102920004FF47A6000F0BCFD10BD000053686F7773
:10293000696E670A646966666572656E74206269AD
:10294000746D61707320776974680A616E642077B2
:102950006974686F757420636F6D707265737369E5
:102960006F6E00004269746D6170730010B502E013
:102970000A2001F057FD074800680128F8D00648F2
:102980000068012804D1002003490860012010BD1F
:102990000020FCE7BC000020C00000202DE9F04F23
:1029A00099B0502105A8FDF767FE05F07DF9824634
:1029B00005F086F903908E498EA000F0A7FB012058
:1029C00000F0C6F96FF07F4002F0DAFF8C4802F0A9
:1029D000EBFF4FEA6A010C228AA001F0D7FD8C4878
:1029E00002F0E2FF2B2201218AA001F0C7FD3F2265
:1029F000012189A001F0C2FD5322012188A001F02C
:102A0000BDFD6222012188A001F0B8FD71220121E3
:102A100087A001F0B3FD8522012187A001F0AEFD62
:102A20009922012186A001F0A9FD874802F0BCFF90
:102A300005F08AF8049005A80499FFF72AFF83A1FE
:102A400005A8FFF74EFF092005F09AF88146B9F175
:102A5000000F0BD07FA105A8FFF743FF494605A84B
:102A6000FFF717FF7CA105A8FFF73BFF0398A0F134
:102A700019020C2105A801F081FD00F07FF907463D
:102A8000A6E000F07BF9C01B4FF4FA6190FBF1F275
:102A900001FB1206481096FBF0F808EB4800C0EB6B
:102AA000C810A6EBC006B6F5FA7F00DD90E0C6EBD5
:102AB00006204FF4FA7190FBF1F0C8EB082180EA90
:102AC000010B0BEB0B2000EB0B446FF07F40051B61
:102AD000FF20342352462B21CDE900043C2001F095
:102AE00021FFFF203E2352463521CDE900053C2041
:102AF00001F018FF4FF47F40482352463F21CDE9B3
:102B000000043C2001F00EFF4FF47F405223524658
:102B10004921CDE900053C2001F004FF4FF47F007E
:102B20005C2352465321CDE900043C2001F0FAFE1B
:102B30004FF47F00662352465D21CDE900053C201D
:102B400001F0F0FE4648702352466721CDE90004AB
:102B50003C2001F0E7FE4FF6FF707A2352467121C8
:102B6000CDE900053C2001F0DDFE4FF6FF70842327
:102B700052467B21CDE900043C2001F0D3FE3948C8
:102B80008E2352468521CDE900053C2001F0CAFE86
:102B90003448982352468F21CDE900043C2001F0AF
:102BA000C1FE4FF0FF10A22352469921CDE9000546
:102BB0003C2001F0B7FE4FF0FF10AC235246A3219A
:102BC000CDE900043C2001F0ADFE01F0D3FF00BFD1
:102BD00000F0D4F8C01B41F27071884204DAFFF7AC
:102BE000C5FE00283FF44DAF19B0BDE8F08F0000DE
:102BF00048D10408436F6C6F72206261720000005C
:102C0000C0620308436F6C6F7220626172730000D0
:102C10007C9C040852656400477265656E00000084
:102C2000426C756500000000477265790000000085
:102C300059656C6C6F7700004379616E000000008D
:102C40004D6167656E7461001C7A040820627070C3
:102C5000000000002C20000020636F6C6F72730076
:102C60008080800000FFFF00034901600721416070
:102C70000521018170470000D000002010B50CA193
:102C800014A000F043FA012000F062F801F046F9C8
:102C90000EF064FF4FF47A6000F002FC01F01AFAC3
:102CA0000021084601F0D6F90C4801F067F910BD83
:102CB0005354656D57696E20737570706F727473BD
:102CC0000A736F66747761726520637572736F72D1
:102CD00000000000437572736F720000AC7204084C
:102CE0002DE9F04104464FF40471184800680CF0D7
:102CF0007FFC8046642C01DD16F0D4FC00214046A8
:102D000006F03CFB22460021404606F00EFB02F096
:102D100022F8064600BF00F031F8871B642C03DD63
:102D20003946404606F02AFB052001F07BFBFFF701
:102D30001DFE0546A74201D2002DECD0642C01DD1A
:102D400014F032F801F016FFBDE8F081A000002079
:102D500010B50446204602490968884710BD0000A6
:102D6000A8000020014604480089084008B101205D
:102D700070470020FCE700003449012010B50648E8
:102D8000006810B10548006810BD01F0E4FF044977
:102D90000968401AF8E70000BC000020B8000020D5
:102DA000B400002010B5054800680CF079FE0CF066
:102DB00009FC04460DF080FA10BD0000A4000020BC
:102DC000F0B589B020223A4901A8FDF71BFC04F0B8
:102DD0006BFF054604F074FF04466E100020FFF7F9
:102DE000B7FF022002F026FE6FF07F4002F0C8FD20
:102DF000304802F0D9FD44F3191231462EA001F0FB
:102E0000C5FB2F4802F0D0FD04EB440000EBC400EA
:102E1000821131462BA001F0B9FB384802F0B0FD19
:102E2000162060438211314635A001F0AFFB4048C7
:102E300002F0BAFD16206043122101EBA0123146C8
:102E40003CA001F0A3FB6FF07F4002F099FD1C480D
:102E500002F0AAFD01F082FF0746394601A8FDF7FE
:102E60003EFBC4EB44108211314601A801F08EFBF9
:102E700026206043821137480088281A41103648BE
:102E800001F048FC6FF07F4002F07AFD094802F043
:102E90008BFDC4EBC40040F3D90231462FA001F0F2
:102EA00075FB41F28830FFF71BFF09B0F0BD000051
:102EB00080E90108C06203085354656D57696E00CC
:102EC0007C9C0408556E6976657273616C2067722C
:102ED000617068696320736F6674776172650A66F2
:102EE0006F7220656D626564646564206170706CEA
:102EF00069636174696F6E7300000000FF882200CF
:102F0000466F722053544D3332204D43552050723A
:102F10006F6475637473202D20436F72746578201D
:102F20004D33202D20436F72746578204D3400009E
:102F300004810408436F6D70696C6564204A756C88
:102F400020203520323031382031363A32313A358E
:102F5000370000004CA30308344A04087777772E23
:102F600073742E636F6D2F73746D33320000000025
:102F70008CB02C492C4802F0A9F90CF023FB064632
:102F80002A490DF01DF8FDF7CFFE002101A8FEF73C
:102F9000A1FD00200690002101A8FEF72BFE0121D3
:102FA00001A8FEF797FD00200690012101A8FEF779
:102FB00021FE1F48FEF7FAFD1E4806F099F91E484B
:102FC000FDF792FE1D4806F073FC1D4806F014FD47
:102FD0001C4804F0D5F9022002F02CFD1A48FFF736
:102FE00043FE04F0B1FD0546102D11DB0420FFF770
:102FF000B9FE68B100F06CFE0446B4F5001F03DDB5
:1030000012481349086006E012481149086002E0BE
:1030100011480F490860012000F046F801E014F063
:1030200095F8FCE7C400002019A7010835A40108A1
:10303000D55901086D920008B10A00081D970008D3
:10304000F99800084173000834490120ED3D01085A
:10305000A8000020B13D0108293F010810B505482E
:103060000068401C034908600EF05AFA00F0A2F90B
:1030700010BD0000B000002010B5FFF793FE064918
:1030800006A000F043F801200CF028FE15F04AFCE1
:1030900000200CF023FE10BD14D2040852616469B4
:1030A000616C204D656E750008B1012100E00021C2
:1030B000014A117070470000C800002010B5034895
:1030C00000680DF0E5F801F055FD10BDA0000020EE
:1030D00070B50446084800680CF0F0FD50B14FF49C
:1030E000B071054800680CF083FA05462146284671
:1030F00006F0C6FE70BD0000A400002010B5024816
:1031000000680DF0C5F810BDA40000202DE9F84FAF
:1031100007460C4604F0C8FD824604F0D1FD834604
:103120004FEA6A0000904FEA6B09FFF73BFEFFF79A
:10313000C5FF01F01FFD0120FFF70AFE6FF07F4081
:1031400002F01EFC022002F075FC124802F02CFC7A
:103150003C223846009901F019FA0F4802F024FC8D
:1031600001F0D8FD8046A9EB080000F10A022046D4
:10317000009901F00BFA002500E06D1C605D00284D
:10318000FBD105EB85000601304600F089F9BDE86A
:10319000F88F0000C06203087C9C04082DE9F0470A
:1031A00096B028216846FDF767FA04F07DFD0546D4
:1031B00004F086FD044604F06BFD804600F0AEFE90
:1031C000A0450DDD0020ADF82800ADF82A0028B29A
:1031D000ADF82C0020B2ADF82E000AA802F0CEFB0C
:1031E0005EA16AA0FFF792FF002608E06A4951F845
:1031F000260000F0F9FF0EA941F82600761C082EE3
:10320000F4DBFFF7BBFD0746002667E006F0070189
:103210000EAA52F8210002F0B5FBFDF72BF890FB47
:10322000F5F105FB1100A94605EBD971A0EB610092
:1032300000B2ADF83000FDF71DF890FBF4F104FB8F
:103240001100A14604EBD971A0EB610000B2ADF80A
:103250003200FDF70FF890FBF5F105FB1101BDF809
:1032600030001430084400B2ADF83400FDF702F825
:1032700090FBF4F104FB1101BDF832001430084456
:1032800000B2ADF83600BDF93630BDF93420BDF9D5
:103290003210BDF9300001F087FCBDF93400A842BE
:1032A00003DB681E00B2ADF83400BDF93600A04261
:1032B00003DB601E00B2ADF83600BDF93000002817
:1032C00002DA0020ADF83000BDF93600002802DA3D
:1032D0000020ADF8360001F04DFC761CFFF74EFDE6
:1032E000C01B41F28831884203DAFFF73FFB002818
:1032F0008CD0FFF7B3FE13F0AAFB8246002002F049
:103300003DFB0020FFF724FD6FF07F4002F038FB0B
:10331000022002F08FFB214802F046FB05221146F5
:103320001F4801F0F7F91FA16846FFF7DAFA514686
:103330006846FFF7AEFA01F0F5FC201A4FEA600983
:1033400069104A46684601F021F94FF47A60FFF7A8
:10335000C7FC00F0BFFE16B0BDE8F0874D756C7479
:1033600069206C6179657220636C697070696E6741
:103370000A486967686C79206F7074696D697A654D
:10338000642064726976657273000000486967683A
:103390002073706565640000A4700408C0620308AF
:1033A00090700408506978656C732F7365633A20D8
:1033B0000000000010B586B0142101A8FDF75CF9EB
:1033C0004FF4B071134800680CF012F9044612A1D2
:1033D00001A8FFF786FA12480168491C01A8FFF707
:1033E00058FA10A101A8FFF77CFA0F48016801A85C
:1033F000FFF74FFA0DA101A8FFF773FA0C484068D8
:10340000411E01A8FFF745FA01A9204606F038FD44
:1034100006B010BDA000002044656D6F20000000C4
:10342000AC0000202E000000B00000202F000000A3
:103430003449012070B504F043FC044604F028FC34
:103440000546B5EB440F00DA70BD07A110A0FFF7E9
:103450005DFE0120FFF77CFC0EF0AEFA002108466D
:1034600002F0BAFA00BFEFE744656D6F6E737472D5
:103470006174657320686F7720746F207573650AB7
:103480007669727475616C2073637265656E730022
:103490005653637265656E2064656D6F00000000B1
:1034A00010B504462046FFF71BFCFFF7D7FD10BD03
:1034B0002DE9F04FDFF828B191B04FF0FF35DBF880
:1034C0000030B3F922100691DE69B3F92490F46953
:1034D000A189814206D8E289824203D3471AD4F8EF
:1034E000008012E0D4E9018100296FD00A8882426D
:1034F0006CD84D88854269D3801A82B2486800EB47
:103500008200B0F90070B0F90250781C5ED0307EB5
:10351000A17C10FB01FA217CCDE90801B3F92A60F6
:10352000304605F05DF8C0B20E90DBF8000007FBF6
:103530000A81A37C826B0127CDE90412CDE90273D5
:10354000C069DDE90832C17E807ECDE900014946CF
:10355000069804F047F8681C18D046F0020005F001
:103560003FF8DBF80000A37C05FB0A81826BCDE904
:103570000273CDE90412C069DDE90832C17E807EA4
:10358000CDE900014946069804F02CF8DBF800006C
:103590005D46C069417E007E814214D9022E12D060
:1035A00086F0040005F01CF82868C069027EC37E1E
:1035B00012FB0391437E857E099A06984B4402FBD9
:1035C000050204F095FA0E9805F00AF8DBF8000001
:1035D000627C418C1144418411B0BDE8F08F000041
:1035E0000801002004480068C069C06909B1027C74
:1035F0000A60407C7047000008010020022008801B
:103600007047C06982898A4202D8C2898A4210D230
:10361000806880B102888A420DD843888B420AD3E1
:10362000406800EB8100A0EB8200B0F900000028A8
:1036300001DB01207047002070470000F0B52B4DE2
:10364000044687B028682146B0F92A60C069C0697D
:1036500000F0E0F9002847D041680088201A00EB0C
:10366000400001EB80042078C01C8708304604F03D
:10367000B7FF06461E48D0F800C0BCF1000F19D0B5
:103680000021A068CDE904010222012001A90090D7
:1036900085C1286894F90320DCF80070B0F9241083
:1036A000B0F92200114494F9022063781044227882
:1036B000B84711E0A068CDE90070286894F90320AC
:1036C0006378B0F92410B0F92200114494F9022073
:1036D0001044227800F0E2F9304604F081FF2868B7
:1036E0002279418C1144418407B0F0BD08010020CB
:1036F00034010020F0B52B4D044687B028682146E0
:10370000B0F92A60C069C06900F084F9002847D088
:1037100041680088201A00EB400001EB800420780B
:10372000401C4708304604F05BFF06461E48D0F8B0
:1037300000C0BCF1000F19D00021A068CDE9040140
:103740000422012001A9009085C1286894F9032072
:10375000DCF80070B0F92410B0F92200114494F99B
:103760000220637810442278B84711E0A068CDE9C0
:103770000070286894F903206378B0F92410B0F938
:103780002200114494F902201044227800F0AAF992
:10379000304604F025FF28682279418C1144418489
:1037A00007B0F0BD08010020340100202DE9F043EE
:1037B0002F4C034687B020681946B0F92A80C069AB
:1037C000C06900F060F900284ED041680088181ADE
:1037D00001EBC0054046AE7804F002FF8146206848
:1037E0006A680123816BCDE90236CDE90421C16904
:1037F000CB7E8A7ECDE900230B7EB0F924102A7897
:10380000B0F9220003F0EEFE2068C069477E067E14
:10381000B7421DD9C07E47434643B8F1020F17D0C7
:1038200001F067FA804601F047FA02F0A9F8216832
:103830002A78CB69B1F92200DB7E12FB0302B1F9D1
:103840002410CB19314404F053F9404602F098F8A3
:10385000484604F0C5FE20686A78C369B0F92210B2
:103860009B7E12FB0311418407B0BDE8F08300008A
:103870000801002030B5104C05460B46206829464B
:10388000C069C06900F0C6F8002813D041680088FC
:103890002468281A00EB40020420E46900EB82004F
:1038A000085CA47E10FB04F0002B03D011F822105A
:1038B0006143196030BD00000801002003460D4837
:1038C00010B500680C461946C069C06900F0A2F83E
:1038D00070B141680088181A00EB400001EB8000CD
:1038E000D0E9001280682160C4E90120002010BDE9
:1038F000012010BD0801002001200880704700B59C
:10390000C06900F087F8002800D0012000BD000049
:103910002DE9F35F0E46002501F0EBF9DFF8A880F2
:103920008346D8F8000090F82A00400702D501F03D
:10393000E0F901E001F0C0F902F022F8D8F8000047
:103940000024C1694A7EC97E12FB01FAB0F92290B7
:10395000B0F924701FE0684602F054FB0546D8F821
:1039600000002946C069C06900F054F898B1416868
:103970000088281A00EB400001EB800090F902104B
:1039800000790144D8F80000C069807E11FB00F086
:10399000002800DD0444761EDDD51DB1284603F065
:1039A00015FA044407EB0A0309EB04025B1E4846C0
:1039B000521E394604F09CF8584601F0E1FF0349D5
:1039C00001200870BDE8FC9F08010020480100208C
:1039D0002DE9F3410D4D0E4F0E462868B0F92A40EF
:1039E000A0070AD17A680098904706E0684602F07E
:1039F00009FB2968C96909688847761EF6D5002041
:103A0000387028684485BDE8FC810000080100206A
:103A10004801002006E002888A4202D842888A4291
:103A200002D280680028F6D17047000030B50F4CF4
:103A300005460B4620682946C069C06900F023F896
:103A4000002811D04168008824682A1A0120E469FE
:103A500000EBC200085CA47E10FB04F0002B03D036
:103A600011F832106143196030BD000008010020D8
:103A700001200880704700B5C06900F004F80028F4
:103A800000D0012000BD06E002888A4202D84288A8
:103A90008A4202D280680028F6D17047FEB50E4EE9
:103AA000DDE908543668367C16F003060CD0012E8A
:103AB00003D0022E0DD0032E05D1084ECDE90054BF
:103AC000029610F095FAFEBDCDE9005410F03EFAD2
:103AD000FEBD034EF2E7000008010020A1860008A9
:103AE00019860008FEB50E4EDDE908543668367CAE
:103AF00016F003060CD0012E03D0022E0DD0032E9B
:103B000005D1084ECDE90054029610F01FFBFEBD12
:103B1000CDE9005410F0CAFAFEBD034EF2E70000F2
:103B200008010020A186000819860008002801D09D
:103B30000DF08CBA704738B50546FFF7F7FF040063
:103B400009D000F0DDF82A460021009003F04EFB7A
:103B5000684600F02DF9204638BD0000024A10608A
:103B600021F00300506070479C4A012010B50028E6
:103B700014D004460A48006B10F8341000290DD008
:103B800002290BD2042101EBC401415848680DF011
:103B9000AFF92046BDE8104014F0B2BE10BD0000E1
:103BA000E0490120002805D0034A916B016001B172
:103BB0004860906370470000E049012010B504465A
:103BC0000068FFF7D3FF0020206010BD70B50D46E0
:103BD0000646002405E000BF06EB8400FFF7EEFF79
:103BE000641CAC42F8DB70BD2DE9F041044613F0D3
:103BF000A5F92648E41C24F00305C16B2D1DA9423C
:103C000000D90D46846B13E054F8042CAA420ED15F
:103C100084B1216809B162684A60616809B12268AB
:103C20000A60826BA2422ED1216881632BE0246856
:103C3000002CE9D18046416B80680F1857F8040CBE
:103C40003E1A306838B1002014F0B4FF57F8040C65
:103C50003E1A3068B8B97068A84214DB3044441B7F
:103C6000304614F05FFFD8F80810491BC8F8081058
:103C7000D8F810102944C8F8101070683146401B5D
:103C80000DF036F920C42046BDE8F081E04901205E
:103C900010B5002413F052F90C490F2001EBC002BB
:103CA000126C1AB101EBC000006C08E0401EF5D5A3
:103CB00008E04168A14200D90C46806810B18068D4
:103CC0000028F6D1A4F10C0010BD0000E04901204D
:103CD000034800680C38002800DC00207047000012
:103CE000E0490120002138B10449042202EBC00060
:103CF000096B085841680C3908467047E0490120B3
:103D000005498A69521C8A61096B01EBC0010A7876
:103D1000521C0A7000F064B8E04901207CB50646E8
:103D20000C460846FFF702FF05001CD0DEB1304606
:103D3000FFF7D8FFA04200DA04462846FFF7E0FF6D
:103D400000903046FFF7DCFF0146019022460098C4
:103D5000FCF7D1FB684600F02BF801A800F028F82A
:103D60003046FFF703FF28467CBD000010B5FFF783
:103D70008FFF64220649B0F5800F04D990FBF2F062
:103D8000C969484310BDC9694143B1FBF2F010BD98
:103D9000E04901200549102805D94A68B0EB520FC7
:103DA00002D3500800E01020886070479C4A012030
:103DB0000A4902680B6B52F8082C03EBC202137815
:103DC000022B03D38B690BB15B1E8B611178491EEB
:103DD000117000210160084670470000E049012091
:103DE000002806D00349042202EBC000096B0858E2
:103DF00008307047E049012038B5002430B1FFF7A2
:103E00007FFF009004886846FFF7D2FF204638BD48
:103E100038B50D46002448B1FFF772FF29460090DF
:103E200000F018F804466846FFF7C2FF204638BD88
:103E300038B50D4601880024A94209D9406838B137
:103E4000FFF75EFF009050F825406846FFF7B0FF8F
:103E5000204638BD10B50024FFF7EAFF10B1FFF788
:103E60004FFF0446204610BD70B50C46054600F0D5
:103E7000E9FFC1B223462846BDE87040002200F0A9
:103E800001B80000F0B52D271C68B0F1004F08D034
:103E9000002500280DDA661C1E60277040420124B0
:103EA00008E0661C01251E606FF000402770491E67
:103EB00001E00024091BC9B22AB3491EC9B222E09D
:103EC0000C46491EC9B2944205D1124C27781C6891
:103ED000661C1E602770104C54F8216090FBF6F4AD
:103EE000E4B20A2C11D804FB160011B90DB1641C00
:103EF000E4B20A2C02D10124491CC9B21E68303434
:103F0000771C1F6034700029DAD11968002008700E
:103F1000F0BD0000FC00002080CF040802480068CB
:103F2000407C00F003B800000801002070B5054691
:103F300000EB85011048002600EB810466712369BF
:103F400053B150F82100E26881684068521AA168B4
:103F5000091A184601F076FC284600F0D1FE18B187
:103F6000002101F02FFD05E02079002803D0206911
:103F700001F050FC267170BD204B012002490968F8
:103F8000497C00F003B80000080100202DE9FC5F27
:103F900004468946084600F0B3FE2B4E09EB89071C
:103FA000824656F82700019028484FF00108016822
:103FB00041B92649C0F80080091D25480860084617
:103FC00003F028F8204A09EB89015FEA0A0002EBB6
:103FD00081051BD001F0BEFC83464FF07F4001F00D
:103FE000CBFC00F0B9F800221146206800F092FBEB
:103FF000206842880188504601F0E2FC46F82740DC
:1040000085F80580584601F0A5FC17E046F82740E2
:1040100085F805802869464618B101F0DDFB0020CF
:10402000286174B10096E868A1684B46421AA868F6
:104030006168411A206801F029FC2861484615F0A2
:1040400089FA0198BDE8FC9F204B01203C0100202B
:1040500011760108024A1268527C00F003B8000091
:104060000801002070B506460D461446104600F0C3
:1040700047FE0300164804EB84010AD050F82100E3
:1040800041688068711A2A1ABDE87040184601F02C
:1040900095BC00EB8104A268B24201D0012200E08D
:1040A0000022E368AB4201D0012300E000231A4361
:1040B0000CD0236943B150F82100816840686A1A26
:1040C000311A184601F0BEFBC4E9026570BD00005C
:1040D000204B012002480068407C00F003B800003B
:1040E0000801002030B4094900EB800201EB820492
:1040F0000123637151F8221011B130BC15F02ABAB6
:10410000014630BC0248FFF741BF0000204B0120B0
:10411000AC72040810B5C2B2CBB2D21A02D5C2F149
:10412000000212B293B2C0F30722C1F3072403FBCB
:1041300003F3121B01D5524212B2000C92B2A0EB53
:10414000114002FB023200B2002801DA404200B204
:1041500080B200FB002010BD10B50021084600F021
:1041600035FE40F6FF725042BDE81040134601464E
:10417000AFF300802DE9FC4107461C4615460E466C
:10418000042004F02DFA80461148C068C16C006D0F
:104190000F4406440D440444ADF80070ADF80450DB
:1041A000ADF80260ADF8064068460CF0F1F907E0A2
:1041B00023462A463146384603F09AFC0CF082F931
:1041C0000028F5D1404604F00BFABDE8FC81000060
:1041D000FC000020B0F90630B0F90420B0F902105C
:1041E000B0F90000FFF7C6BF03F036B92DE9F84378
:1041F0001C00DDE9089816460F46054602D10BF073
:10420000E1F9044600962E6843464A462146284670
:10421000B047060035D00BF0C9F98146698A3046AF
:104220000AF020FE30460CF033F848460CF030F827
:104230004FF000080CE000BFCDF8008055F81CCF0F
:1042400000231A4649462846E047E0B10CF020F822
:104250007F1E002FF0DC1D2148460BF0A0FE601CE5
:104260000ED00BF0D5F930B1FFF7BAFD8469B44236
:1042700001D02000F8D1B44202D030460BF082FFCA
:104280003046BDE8F88330460BF0C6F80020F8E76A
:104290002DE9F0411C4616460D460746022B02DB6F
:1042A0000020BDE8F0811C20FFF79EFC0028F8D01C
:1042B0000DB105610AE0094A52F8241009B905E078
:1042C00011460A68002AFBD109690161846186826E
:1042D000002101604160C0E90217E2E720010020EF
:1042E00070B51D46FFF7D4FF040001D000F00EF8B2
:1042F000E068006820B90348006800EB8500846529
:10430000204670BD08010020FFF74CBC70B590B38B
:104310008269022A30DA1C4C54F8221019B944F888
:1043200022002FE019464B68002BFBD106E0CB683A
:10433000C5681B682D68AB4203DD09680029F6D10A
:104340001AE0C1B1CB68C6681B683668B3420CD1AD
:10435000838A012B05D008E01946DB681B68AB4255
:1043600003DB0B68002BF7D129B14B6833B1186020
:104370004A68426004E0FFE7012070BD44F8220073
:1043800048600160002070BD2001002015F0AABB2C
:10439000022801DB00207047054951F8200004E0A5
:1043A000C16809680029F6D000680028F8D1704774
:1043B000200100202DE9F8431D46164688460400DA
:1043C0000CD0FFF79DFC0090006807686846FFF777
:1043D000EFFC2B46324641462046B847BDE8F883FD
:1043E00038B504004FF000000AD02046FFF788FCE3
:1043F0000090006845686846FFF7DAFC2046A84749
:1044000038BD38B504004FF000000AD02046FFF751
:1044100077FC0090006885686846FFF7C9FC204675
:10442000A84738BD70B5044601F054FF051908E0EF
:1044300000F0A0FB052C01DD052000E0204601F086
:104440003BFF01F047FF2C1A002CF1DC70BD00008F
:10445000024B1B6859849A84FCF79CBC080100201D
:1044600000B500F057FC044909688A8C1044888420
:10447000088C488400BD0000080100202DE9FC479D
:1044800006005BD000F046FC3B4C81462068B0F94A
:10449000228000F06DFC216807468A8CD01B88843E
:1044A00041E000BF47F6FF71304602F057FC8246FC
:1044B0000146304602F028FC2168054691F82C00A0
:1044C00000F0030001283FD0022839D000204A8C98
:1044D000101A4884ADF800006A1E1044ADF80400BC
:1044E000888CADF80200A9F101010844ADF806007E
:1044F0006A465146304602F0CFF82168BDF8020006
:1045000088845146304601F093FD064430780A28ED
:104510001CD00D281AD0BDF800002168284448841A
:10452000307818B1761C30780028BBD12068818C97
:1045300039448184818D21F003018185BDE8FC87A8
:1045400005EBD5704010C2E72846C0E7206890F818
:104550002C1001F0030101290BD0022909D0018C94
:10456000418431780A29DBD1828C02EB09018184F4
:10457000D6E7A0F82280F4E708010020024B1B6870
:1045800059849A84FFF77ABF080100202DE9F04191
:1045900007460A4815460E460068B0F92C0040F060
:1045A000020001F03DFA04462A4631463846FFF73C
:1045B000E5FF2046BDE8F04101F032BA08010020D5
:1045C00047F6FF73AFF300802DE9FC411F4690468C
:1045D00006000D464FF0000416D065B108460BF0FA
:1045E00039FE040007D002462946684602F023FC43
:1045F00068460BF02FFE3B4642462946304602F005
:10460000A3F820460BF026FEBDE8FC812DE9FF4F04
:1046100085B090468A46070078D00C68DAF80460C6
:1046200021B230B2401A401C029000F073FB0546E4
:1046300018F00C0F1ED03846089A029901F013FEAC
:1046400008F00C01042904D0082902D00C2911D14A
:1046500004E0311400FB1510401C09E02114C1EBEB
:10466000264200FB1520401C00EBD07001EB6000DF
:1046700060F31F44504601F081F9A5F1010B04904D
:104680003846089A029902F07FFD03904FEA2449C8
:1046900009EB0B0060F31F46CDE90046384603994D
:1046A00002F032FB18F003010ED0012928D00229B4
:1046B0000ED1BAF90420BAF90010521A101A00EB00
:1046C000D07001EB600001E0BAF80000ADF8000026
:1046D0006A463846039901F0DFFF3846089A029986
:1046E00002F048FD074409EB050060F31F443878E9
:1046F0000028C5D1049809B0BDE8F04F01F03EB9DB
:10470000BAF80410081A401CE0E7FFE709B0BDE85A
:10471000F08F00007CB5064610480068C36C006D41
:104720005D1884183188681E0844ADF80400ADF89F
:1047300000507188601E0844ADF80600ADF80240D4
:1047400068460BF025FF06E0224629463046FDF775
:10475000C1FC0BF0B7FE0028F6D17CBD080100209B
:104760002DE9FF4F324F98460446B0F800B0B0F83C
:1047700002A0C66838682F4B89B0427C1B68DDF800
:104780005890214630469847050005D1E088012819
:1047900000D001E03868856B1EB1307908B1022085
:1047A00000E0002001F0FEF8069038680A99C26C1B
:1047B0005718016D0B98ADF81C700E18781E0BFB86
:1047C0000800ADF82000701E0AFB0900ADF82200B9
:1047D000ADF81E6007A80BF0DBFE20E0206968B191
:1047E000D4E9023CCDE9003CCDE90289D0F800C013
:1047F0006388228831463846E0470EE0A188E28887
:10480000A068CDE90221CDE9040553465A46314658
:104810003846CDE9008902F0E5FE0BF053FE002892
:10482000DCD106980DB0BDE8F04F01F0BBB8000038
:1048300008010020000100207CB514460F4A1268D0
:10484000D36C1E18106D4518301BADF800003019E0
:10485000ADF80400281BADF802002819ADF80600D9
:1048600068460BF095FE06E0224629463046FDF7E5
:104870007FFC0BF027FE0028F6D17CBD080100204C
:104880001CB50A460146684602F0B6FB2448BDF84E
:104890000010006830F84C2F1144ADF80010BDF83E
:1048A000021082881144ADF80210BDF8041002888D
:1048B0001144ADF80410BDF8061080880844ADF826
:1048C000060068460BF064FE27E000BFBDF900401B
:1048D0000BE000BFBDF90210204603F00BF8BDF954
:1048E0000610204603F006F8A41CBDF90400A042FF
:1048F000F0DABDF902400AE0BDF90000214602F0FD
:10490000F9FFBDF90400214602F0F4FFA41CBDF933
:104910000600A042F0DA0BF0D5FD0028D6D11CBD70
:10492000080100202DE9F04F0C46164987B00D68AC
:10493000DDE91098E96C0F18286D8D180619C41858
:10494000ADF81070ADF81450ADF81260ADF8164027
:1049500004A80BF01DFE002811D0DFF82CB04FF09A
:10496000000ACDE90098CDE902BA2B462246394625
:1049700030460FF09EFD0BF0A5FD0028F1D107B0E9
:10498000BDE8F08F08010020817900082DE9F04F83
:10499000164C87B02568DDE91098EC6C2718286D57
:1049A000A5184618C418ADF81070ADF81450ADF83D
:1049B0001260ADF8164004A80BF0EAFD002811D0F3
:1049C000DFF82CB04FF0010ACDE90098CDE902BA2A
:1049D00023462A46314638460FF06BFD0BF072FD38
:1049E0000028F1D107B0BDE8F08F000008010020D9
:1049F000ED7700082DE9FC41104F04463B68D86C68
:104A00004518196DADF800500E198418ADF8044022
:104A1000ADF80260ADF8066068460BF0B9FD08E03D
:104A2000386822463146C06E0368284698470BF026
:104A300049FD0028F4D1BDE8FC81000008010020F8
:104A40002DE9F0410B4C2568EC6C2718286DA51852
:104A50004618C41800200BF09BFD07E023462A46A9
:104A600031463846FDF7B6FB0BF02CFD0028F5D19A
:104A7000BDE8F081080100207CB50E4D2A68D36C9A
:104A80001E18106DADF804604418ADF80060ADF864
:104A90000640ADF8024068460BF07AFD07E0286852
:104AA0002146C06E4268304690470BF00BFD00284F
:104AB000F5D17CBD080100202DE9FC411C4C246887
:104AC000E66C94F818C03718206DACF1010C45184D
:104AD000C418A7EB0C001644ADF8000006EB0C0060
:104AE000ADF80400A5EB0C00ADF8020004EB0C00DF
:104AF000ADF8060068460BF04BFD15E0324629463E
:104B0000384602F073FE32462146384602F06EFE09
:104B1000621E691C384602F033FF621E691C304673
:104B200002F02EFF0BF0CEFC0028E7D1BDE8FC819F
:104B3000080100207CB50E4B1B68DC6C2618186D34
:104B4000ADF8006045188418ADF80460ADF8025067
:104B5000ADF8064068460BF01BFD06E022462946EC
:104B6000304602F00DFF0BF0ADFC0028F6D17CBD05
:104B70000801002010B5002400E0012400F004F832
:104B80000028FAD1204610BD064810B50068002460
:104B900010B1804700B101240AF0B8FC00B1012433
:104BA000204610BD280100202DE9FC410F4C25684E
:104BB000EC6C2718286DA5184618C418ADF80070BD
:104BC000ADF80450ADF80260ADF8064068460BF051
:104BD000DFFC07E023462A463146384602F088FFCC
:104BE0000BF070FC0028F5D1BDE8FC810801002025
:104BF000B0F90630B0F90420B0F90210B0F90000A5
:104C0000FFF7D2BF08B50B46002805D00092818877
:104C10008268C08800F001F808BD10B50828029C21
:104C200030D008DC04FB01F401280AD0022813D09C
:104C3000042804D11CE0102828D020282CD00020E3
:104C400010BD04EBD30003F00701105CC1F10701B4
:104C5000C84000F0010010BD04EB93000621105C79
:104C600001EA4301C1F10601C84000F0030010BD94
:104C700004EB5300D907105C02D000F00F0010BD08
:104C8000000910BD04FB0130105C10BD481004FB8E
:104C9000003032F8100010BD881004FB003052F8CC
:104CA000200010BD034951F82000C1688A6A08211C
:104CB000104700002001002010B502F051FFBDE8B0
:104CC000104003F031B8000002490968C9694A6818
:104CD0000021104708010020024A1268D269526878
:104CE0001047000008010020002801D00AF04EBC47
:104CF000704710B502F03CFFBDE8104003F014B857
:104D00000021022802D2024951F8201008467047BB
:104D10004405002002480068C069407E70470000DA
:104D20000801002001F0E6BF70B514460D4602F000
:104D300093FF002802D000202860206070BD02F0A0
:104D400037B810B5044602F025F801462046BDE804
:104D5000104001F0D9BF01F0BDBA00000348352171
:104D6000017032218170C170704700005001002035
:104D70000A490020096891F82C2002F00C02042A4C
:104D800007D0082A01D00C2A02D1C869007E400849
:104D90007047C869007E401E70470000080100206F
:104DA000017EC07E11FB00F070470000024951F8FF
:104DB000200000690068704720010020024951F876
:104DC00020000069406870472001002070B50D4642
:104DD00011F0DAFF0446284611F0DEFF204370BDD3
:104DE000124810B5016821F001010160104801214D
:104DF00081601049016000680F49884200D0FEE7D9
:104E000001F02AFC0D492E20087001F069FA0C48C7
:104E100012F046F815F0C6FE04460021084600F0E0
:104E2000DBFD0AF051FE204610BD0000002000E02E
:104E300000300240C2A507F4CDB5E8B5FC00002063
:104E4000A84A012010B5011E01DD024600E04A42D9
:104E5000064B012053F82040944202D8401C0A28F7
:104E6000F8DB002900DA401C10BD000080CF0408E8
:104E70001CB520B90C480068006E002812D0FEF75F
:104E80003FFF009044696846FEF792FF002C09D06E
:104E90002046FEF735FF019081688968884701A8A0
:104EA000FEF786FF1CBD00000801002001490A46EC
:104EB00000F002B801F0FFFF2DE9F04387B015467E
:104EC0000C465FEA000842D0002000F06BFD8146EE
:104ED00020480068066E4046FEF712FF009000680A
:104EE000806900F037FD074640F6FF70001904D1D5
:104EF0000098B0F90440B0F906500098611E02898C
:104F0000ADF804401144ADF808104189681E08440A
:104F1000ADF80650ADF80A000AF050F96846FEF701
:104F200047FF01A80BF034FB06E02A462146404625
:104F300000F04EFB0BF0C6FA0028F6D1384600F020
:104F400009FD304600F098F9484600F02BFD07B007
:104F5000BDE8F083080100202DE9FE4F8346194883
:104F60008A46194900680C9E9846407C9146002765
:104F700051F82040E1680968042903D02468002C16
:104F8000F8D100E014B9FFF703FA04460121E06804
:104F9000C26A20469047050011D02469A068804766
:104FA000401C02D1094C46F001060096CDE901549F
:104FB00043464A465146584600F0F0F907463846FF
:104FC000BDE8FE8F0801002020010020F0730408D6
:104FD000FEB50546DDE909640020089F002C05D0D8
:104FE0000097CDE90164284600F0D8F9FEBD000025
:104FF00038B5040018D00D480068006EA04201D1F9
:1050000000F09EFC2046FEF77BFE0090406908B150
:1050100001F017F900980068FFF776F96846FEF787
:10502000C7FE2046FEF7A2FD38BD000008010020A3
:105030002DE9FF4F83B0454CDDF840B098468A46D5
:1050400007002BD002A901A8FFF779FEB7F900608D
:10505000002E00DA0026B7F90250002D00DA0025F4
:105060002068A146407C02F00DFE01990144491ED2
:10507000B7F9040012F0F4F80446D9F80000407CB7
:1050800002F00EFE02990144491EB7F9060012F023
:10509000E7F8A71B7F1C441B641C0BE0206800265C
:1050A0003546407C02F0EEFD07462068407C02F069
:1050B000F7FD0446B8F1000F01D1C4F10008002F3C
:1050C00001DD002C03DC002007B0BDE8F08F434673
:1050D0003A4629463046CDF800B0FFF73DFF5FEA7B
:1050E000000909D000F094F88046484600F0C4F862
:1050F0000027DFF85CB01FE0514605988847012083
:10510000E2E7E11B414502DA484600F09FF83FB173
:10511000EA193146484600F0DFF84846FFF7A8FE96
:10512000514605988847DBF8001009B100208847F0
:105130004846FFF7BBFE4744A742E2DB4846FFF77D
:1051400057FF002000F098F8BDE70000080100209C
:10515000880500202DE9F04786B09946DDE90F4625
:105160000E9F8246002C30D019480068C36C006D39
:1051700003EB010885180FFA88F1ADF80C10002E2A
:1051800001DA304600E00020621E2844114400B2DB
:10519000ADF81010ADF80E004946B94500DC3946AF
:1051A000491E0844ADF8120003A80BF0F1F90AE01B
:1051B0000097CDE901464B462A46414650460FF03E
:1051C0003DFB0BF07FF90028F2D106B0BDE8F08777
:1051D0000801002038B5002460B1FEF791FD009071
:1051E000006800698068804703F05EFE04466846F8
:1051F000FEF7DEFD204638BD38B5FEF781FD00F133
:10520000180400906846FEF7D3FD204638BD000024
:1052100038B5002418B907480068006E38B1FEF7A9
:105220006FFD0090B0F90A406846FEF7C1FD2046C8
:1052300038BD00000801002010B50CF007FB002865
:1052400003D0BDE8104000F073B810BD38B50C466F
:1052500020B908480068006E00280AD0FEF750FD0B
:105260000090B0F90A10A14200DD44816846FEF7C3
:105270009FFD38BD08010020F8B5134E05003068C9
:10528000046E0CD00CB100F05BFB0AF087F82846E6
:10529000FEF736FD009031680A6E1AB106E000F0A4
:1052A0004FFB0EE0D1E90223C1E919230D66006826
:1052B000FFF72CF86846FEF77BFD03F0CDFB03F00B
:1052C000E9F82046F8BD000008010020014AC2E9C3
:1052D00000017047A40100207CB515460C4620B99A
:1052E00012480068006E00281FD0FEF709FD2DB29D
:1052F0000090C58024B2848003F0CCF80098406907
:1053000080B1FEF7FDFC009A0190B2F9081081808F
:10531000B2F90A20C28011B10AB10480458001A807
:10532000FEF746FD6846FEF743FD7CBD0801002000
:1053300001490A4600F002B801F0FFFF7FB51546AB
:105340000C46060028D0FEF7DBFC40F6FF7101900A
:10535000091903D1B0F90440B0F906500289611E61
:105360001144ADF80840ADF80C104189681E08449E
:10537000ADF80E00ADF80A5001A8FEF719FD02A81D
:105380000BF006F906E02A462146304600F008F9FF
:105390000BF098F80028F6D17FBD00002DE9FF4FF3
:1053A000DFF8E0B083B01C46DBF80010DDE91060E8
:1053B000924600274B7C3A461299FEF769FF05009A
:1053C0005DD028698068804703F06EFD81460AFB46
:1053D00009F0C01D4FEAD008FEF7C8FCF10705D15F
:1053E000C11700EB9170801000EB4000002C06DC30
:1053F0001838B0FBF8F06442A04200DC0446F00725
:1054000007D10090DDE903012346524600F090FEEB
:105410000746002C03DC2846FEF776FF2FE004FB4E
:1054200008F01830F10702D0FEF780FB01E0FEF72C
:1054300082FB06001CD0FEF763FC01900560039917
:1054400081800499C180A0F808A04481C0F80C8034
:10545000C0E9049701A8FEF7ABFC1298AE60286182
:10546000DBF80000407CA861304607B0BDE8F08F53
:105470002846FEF749FF17B13846FEF777FB0020B4
:10548000F3E70000080100202DE9F74F92B09046A5
:105490001298FEF735FC0B90B0F908100691B0F9A0
:1054A0000A100D9100680069D0F804B00BA8FEF74F
:1054B0007FFC384C384D2068407C55F82000C1688E
:1054C0008A6A082190478146182801D34FF02009A5
:1054D0002068407C55F820000069079003C80C90B4
:1054E0002E48814201D0012000E0002010900020D1
:1054F00000F0F7FE002849D10026DDE91207B24688
:105500000FAB069C4546761C0193FFF775FE0146DE
:1055100004FB0AF001EB8002234629463846CDF809
:1055200000B001F0C1F9050030D01098D0B1DDE92C
:1055300006134A46284600F0D4FF98B9DDE9067004
:105540002C46D0F810C0BCF1000F05D0294604232A
:105550003A460846E04705E00C992068884701C4B0
:105560007F1EF9D10020CDE90305059001200090B0
:10557000CDE901094146034608F10108069A13984E
:1055800002F030F80D98401E0D90B6D115B0BDE870
:10559000F08F00000801002020010020477D000856
:1055A000F8B515460E460746FEF7AAFB00900068C0
:1055B0001621C068426A0020904704466846FEF7FC
:1055C000F7FB002C03D02A4631463846A047F8BDE9
:1055D000F8B515460E460746FEF792FB0090446963
:1055E0006846FEF7E5FB3846FFF7F4FD034608285A
:1055F00000DD2CB12A463146384614F0A7FAF8BD32
:105600002A463146384614F039FCF8BD10B500285A
:1056100021D009B30AB3B1F90040B2F900309C427D
:1056200000DA23460380B1F90240B2F902309C420D
:1056300000DA23464380B1F90440B2F904309C42B9
:1056400000DD23468380B1F90610B2F906209142AD
:1056500000DC1146C18010BD11460A68026049682D
:10566000416010BD00280BD003880B440380838861
:1056700019448180418811444180C1881144C1800E
:105680007047000070B5104D0446D5E9000188420E
:105690000ED10E49884203D1D0E90F12406C03E0CD
:1056A0000C38D0E9001280682160C4E9012006E0CE
:1056B00090E80E0084E80E0011F084FB2860207A48
:1056C000002800D0012070BD58010020484B012067
:1056D0000448D0E90010814201D101207047002028
:1056E0007047000058010020054A10B503491160B9
:1056F00014F09EF8BDE8104000F0A6B9FDF60008D1
:105700002C01002070B5094C0020D4E900218A4208
:105710000AD0D2E90056104611F06CFB20603146E9
:1057200028460AF071FB012070BD000038050020FA
:105730002DE9FC41154DDDE908742D68B5F90860C7
:10574000864200DD3046B5F90C60964200DA3246FA
:10575000824219DBB5F90A608E4200DD3146B5F9A7
:105760000E509D4200DA2B468B420DDB00E02C46AA
:10577000E5682D6825B1042D02D02568002DF6D1ED
:10578000CDE9007402F008FCBDE8FC8108010020AE
:10579000B0F90220B1F906309A4213DCB1F90220C7
:1057A000B0F906309A420DDCB0F90020B1F90430AE
:1057B0009A4207DCB1F90010B0F90400814201DC23
:1057C0000120704700207047014602487822006897
:1057D000FAF718BF0801002038B5040019D014F0FA
:1057E000E1F8204614F04AF92046FEF789FA0090C5
:1057F0000068FEF7D7F90098C068FEF7B7F900987F
:10580000C069FEF7B3F96846FEF7D2FA2046FEF704
:10581000ADF938BD38B5040013D0FEF771FA009029
:10582000007C80070AD5204614F0BCF8204614F00E
:1058300025F90098018A21F0020101826846FEF7ED
:10584000B7FA38BD002801D013F0B0BC704738B5A6
:10585000040019D0FEF754FA0090007C800710D4A1
:10586000204611F0FDFB6846FEF7A2FA204613F031
:1058700027FF2046FEF744FA0090018A41F002011A
:1058800001826846FEF794FA38BD00002DE9F8431E
:1058900004460088089F91468846B0B36088A0B34C
:1058A000E088082831D8E068806800282ED007F00A
:1058B000010200211D48FEF7EBFC050025D02088E1
:1058C0006188800048432030FEF735F906001FD07C
:1058D0003046AE60FEF714FA009007824461A0F8EB
:1058E0000480A0F80690238808EB0301491E01817B
:1058F00061884944491E418105606846FEF758FAAF
:10590000214630460CF010FA30B10020BDE8F88393
:105910002846FEF7F9FCF8E7B80705D5304611F040
:105920009FFB304613F0CCFE3046EFE72CBF040857
:10593000024978220968FAF765BE000008010020D4
:1059400010B502F05BFD03F087F8BDE8104009F0E8
:1059500035BC000070B504460548022C0068457C43
:1059600002D24474FFF7ECFF02480460284670BD81
:10597000080100205804002002F062BD0AF06ABC51
:1059800002F096BD034A6FF070411268116302F095
:1059900095BD0000080100200149886070470000A3
:1059A000FC00002002F01CBE03490968CA6900B16E
:1059B000C8611046704700000801002002F0E4BEF4
:1059C00002F0F8BE02F022BF024909688A7E88769A
:1059D0001046704708010020094A30B41080094A77
:1059E0001180094A1268537C084A52F82330DA6859
:1059F000146A0A46A446014630BC184660470000B7
:105A0000380100203A010020080100202001002078
:105A1000024909680A7E087610467047080100208E
:105A200003490968B1F92C208885104670470000A9
:105A30000801002003490968B1F92A204885104669
:105A4000704700000801002002480068002800D0CC
:105A5000004770476805002002498A6802B98860DB
:105A6000FFF7F2BF380500202DE9FC4107469846B4
:105A700015460E461C20FEF75EF8040028D0194992
:105A8000174808602046FEF73BF900900760C0E920
:105A90000456A0F80C806846FEF78AF9204611F0FB
:105AA000EBFA114DA86840B90120A86005F10C017E
:105AB0000E480860084601F0ADFA2046FEF720F9CE
:105AC0000190296839B181602C6001A8FEF770F956
:105AD0002046BDE8FC8100212C608160F5E70000D4
