:020000040000FA
:1000000048022020D5000000D9000000DB000000DD
:1000100000000000000000000000000000000000E0
:10002000000000000000000000000000DD000000F3
:100030000000000000000000DF000000E100000000
:10004000E3000000E3000000E3000000E300000024
:10005000E3000000E3000000E3000000E300000014
:1000600000000000E3000000E300000000000000CA
:1000700000000000E3000000E3000000FD090000B4
:10008000E3000000E3000000E3000000E3000000E4
:10009000E3000000E300000000000000000000009A
:1000A000E3000000E300000000000000000000008A
:1000B000E300000000000000E3000000E300000097
:1000C0000348854600F010F8004800475D0B00002B
:1000D0004802202003480047FEE7FEE7FEE7FEE770
:1000E000FEE7FEE7C1000000064C0125064E05E0D4
:1000F000E36807CC2B430C3C98471034B442F7D349
:10010000FFF7E2FFC00B0000D00B000080B50748EE
:100110000021032200F0A0FA80BDC04680B503484C
:100120001E21032200F098FA80BDC04600008640E0
:1001300080B509480068002806D1FFE7FFF7EEFF09
:1001400005490120086005E0FFF7E0FF02490020B3
:100150000860FFE780BDC0460000202082B001900B
:100160000199881E001F00BFFCD2009002B07047AA
:1001700084B0039002910192039800680090009867
:1001800001998843009000980299019A1140084310
:100190000399086004B0704784B003900291019203
:1001A0000398006800900098019988430090009897
:1001B0000299019A114008430399086004B07047FE
:1001C00084B0039002910192039800680090009817
:1001D00001998843009000980299019A11400843C0
:1001E0000399086004B0704782B0019000910098B4
:1001F0000199024A885002B07047C046D0120000F0
:1002000081B0009000990120C2024548885001B099
:100210007047C04682B0019000910098034908439E
:1002200001998900084A885002B070478000040094
:1002300082B00190009100988021084301998900C3
:10024000014A885002B070470480424081B000905B
:100250000099B54AB548885001B07047064908680A
:100260000122904308607047034908680122120286
:10027000904308607047C04608010B400349086876
:1002800001221203104308607047C04604010B406E
:1002900081B001466846017000780249086001B0EB
:1002A0007047C04608030B4080B582B0014601A8E4
:1002B0000170017802480322FFF75AFF02B080BDA7
:1002C00000010B4009490868052210430860704787
:1002D00081B000900549042008600098401E044940
:1002E000086004490020086001B0704710E000E099
:1002F00014E000E018E000E081B000900099024AAC
:100300000120885001B070470811000081B00090B2
:1003100000990120C2020248885001B07047C046CF
:100320000100002680B58CB00B900A910A984079A4
:10033000C00700285BD0FFE70A98007907900028E3
:1003400004D0FFE7079820280CD017E00B988821ED
:100350000691022200F00EF906990B98032200F094
:1003600009F918E00B986A490591022200F002F998
:1003700005990B98032200F0FDF80CE00B9805217D
:10038000C9010491022200F0F5F804990B980322A8
:1003900000F0F0F8FFE70B9800220292022301938D
:1003A000114600F001F9029A0B98032303931146BA
:1003B00000F0FAF80199029B0B98009119461A4631
:1003C00000F02AF9029B03990B98009119461A46EE
:1003D00000F022F9019B029A0B98114600F002F9F5
:1003E000029A039B0B98114600F0FCF8FFE70A986D
:1003F000006808900A98007908A908710A9880791D
:1004000088710B9800F002F80CB080BD80B58AB0FE
:1004100009900891089800790790002804D0FFE718
:100420000798202812D029E0099808990968491EE0
:1004300000F04EF9099888210691002200F09AF800
:1004400006990998012200F095F82AE00998089980
:100450000968491E00F03CF909982D4904910022D1
:1004600000F088F8049909980122059200F082F8BA
:1004700005990998490700F01DF912E009980899B3
:100480000968490800F024F909980521C901039178
:10049000002200F06FF803990998012200F06AF831
:1004A000FFE709980023019319461A4600F07CF8EB
:1004B000019A099801230293114600F075F8019BF7
:1004C0000998009319461A4600F0A6F8019B029974
:1004D0000998009119461A4600F09EF8019B099868
:1004E00019461A4600F07EF8019A029B09981146B7
:1004F00000F078F8099881494018089A11799279A2
:10050000114302221143034AFFF746FE0AB080BDA1
:1005100001040000BFFF003081B000900099B04A94
:10052000B048885001B0704704080000030000B1D3
:1005300082B0019000910098019911221202885016
:1005400002B0704780B584B00390029101A8027098
:100550000399224A8918009101780098890040186F
:1005600000900098029907229204FFF715FE04B04C
:1005700080BDC04680B584B00390029101A802708E
:100580000399074A8918009101780098890040185A
:10059000009000980299034AFFF7FEFD04B080BD69
:1005A00070180000DBB6C1FF10B586B0059004914D
:1005B000039202A803700599084A891801910178ED
:1005C000019889004018019001980499039A1143F9
:1005D000034AFFF7E1FD06B010BDC0463018000029
:1005E0007777020010B586B005900491039202A8B7
:1005F000037005993122D20189180191017801987F
:1006000089004018019001980499039A11438F22A0
:10061000FFF7C2FD06B010BD10B587B000910446CB
:1006200000980999069405900492039302A801701A
:100630000699084A891801910178019889004018A3
:1006400001900598049908430399084301990860AB
:1006500007B010BD5018000084B00390029101A8AB
:1006600002700399064A8918009101780098890060
:100670004018009002980099086004B07047C04686
:100680001018000082B00190009100980078019944
:10069000704A8850009840780199012212038850CE
:1006A000009880780199024A885002B07047C0468D
:1006B0000C11000080B582B00190009101980F49A3
:1006C0004018009903221207FFF766FD02B080BDB3
:1006D00082B00190009100980199024A885002B0BE
:1006E0007047C0460818000081B000900099034A86
:1006F000885801231843885001B07047041800003F
:1007000081B000900099112002028858012398437B
:10071000885001B0704781B000900099112002020A
:10072000885801231843885001B0704782B0019067
:100730000091009B0199034A88581843885002B0E1
:100740007047C0462810000081B000900099012039
:10075000C2020248885001B07047C046010000261E
:1007600081B000900098812149014058C0B201B089
:100770007047000080B582B0019000910198FFF7AA
:10078000BFFF0198112109024018009A118893783F
:10079000194392881143084AFFF712FD0198244932
:1007A0004018009A9179D3791943127A11437E2225
:1007B000FFF706FD02B080BD1867020081B000900F
:1007C000009802494058C0B201B07047241100009F
:1007D00081B000900099024A0248885001B07047E9
:1007E00004080000030000B180B584B003900291BA
:1007F000019203980B49401802990B4AFFF7B8FC85
:1008000003980A49401801993F22FFF7B1FC039968
:10081000074A8818895801221140FFF7A9FC04B043
:1008200080BDC04610110000FFFF00001411000041
:100830000411000082B001900091009800780199A5
:10084000044A885000984078019901221203885088
:1008500002B070470810000080B582B0019000918E
:10086000019811210902401800990322D203FFF7D1
:100870007FFC02B080BD000080B55F48FFF734FF09
:1008800080BDC04680B584B012495B480390FFF735
:10089000F9FE03981049FFF745FD039803210291E3
:1008A00000910023019319461A46FFF7B5FE0199FE
:1008B000029A0398FFF746FE0199029A0398FFF700
:1008C000CBFE0398FFF718FD03980821FFF730FED1
:1008D00004B080BDA60B0000AC0B000080B582B058
:1008E00033200421FFF7A4FC012001064148FFF753
:1008F0007BFC142002210191FFF79AFC019915203D
:10090000FFF788FC02B080BD80B582B00020019066
:10091000FFF7BEFC0198FFF7C7FCFFF79FFCFFF74E
:10092000A3FCFFF7ABFC02B080BD80B57D200002C8
:10093000FFF7CEFCFFF7C6FC80BD000080B582B09B
:100940000D4942480190FFF775FF01980B49FFF7E9
:1009500011FF01980021FFF77FFF019802210B2270
:10096000FFF742FF019801218902FFF7DFFE01989E
:10097000FFF7D1FE02B080BDB40B0000B60B000043
:1009800080B500F011F8FFF7A9FFFFF7BDFFFFF7F3
:1009900079FFFFF7D3FFFFF7C8FF0249B822002015
:1009A000885480BD0400202080B584B01048009099
:1009B000FFF74CFC0F480190FFF748FC0E480290EF
:1009C000FFF7AAFD21480390FFF702FF0098FFF709
:1009D00017FC0198FFF714FC0298FFF797FC0398A7
:1009E000FFF7B2FE1020FFF7B9FB04B080BDC04690
:1009F00000000A4000200A400000864080B582B016
:100A000001A9002008701148FFF7AAFE0B281AD18F
:100A1000FFE70E48FFF7D2FE01A908700C480088D6
:100A20007E2808DCFFE70198094B1A88511C1980C1
:100A30000849885403E0064900200880FFE706497A
:100A40000120087000E0FFE702B080BD0080104088
:100A500042012020C00020204001202080B582B02B
:100A6000FFF78EFF0F20019000F006F8019800F0CC
:100A700019F802B080BD000081B0014668460170DF
:100A800000214056002809D4FFE7684601781F205E
:100A900001400120884002490860FFE701B070472B
:100AA00080E200E081B001466846017000214056B6
:100AB000002809D4FFE7684601781F200140012083
:100AC000884002490860FFE701B0704700E100E09C
:100AD00080B582B0019001997D20C000484300F0AC
:100AE00003F802B080BD000085B00490262000907D
:100AF000049840010390174800680290FFE71548EA
:100B0000006801900198029988421FD0FFE7019880
:100B10000299884207D2FFE702980199411A00988A
:100B20004018009009E00C4800680199401A0299A9
:100B30004118009840180090FFE701980290009833
:100B40000399884201D3FFE701E0FFE7D7E705B04B
:100B50007047C04618E000E014E000E080B582B0C5
:100B600000200190FFF77AFFFFF786FEFFE7FFF70F
:100B7000DFFA7D20C000FFF7ABFFF8E700000000C0
:100B800002E008C8121F08C1002AFAD1704700000D
:100B90007047000000000000002001E001C1121FAA
:100BA000002AFBD1704708000C000000E803000099
:100BB00020010000040000001800000000300000C8
:100BC000D00B00000000202048020000980B00001D
:04000005000000C136
:00000001FF
