:020000040800F2
:100000000086012089020008C1520008273A000832
:10001000BD520008ED080008F7CF000800000000FE
:100020000000000000000000000000008D840008B7
:10003000751100080000000019030008A5850008DC
:10004000A3020008A3020008A3020008A3020008FC
:10005000A3020008A3020008A3020008A3020008EC
:10006000A3020008A3020008A3020008A3020008DC
:10007000A3020008A3020008A3020008A3020008CC
:10008000A3020008A3020008A3020008A3020008BC
:10009000A3020008A3020008A3020008A3020008AC
:1000A000A3020008A3020008A3020008A30200089C
:1000B000A3020008F1BC000809BD0008A302000863
:1000C000A3020008A3020008A3020008A30200087C
:1000D000A3020008C1CD0008A3020008A302000883
:1000E000A3020008A3020008A3020008A30200085C
:1000F000A3020008A3020008A3020008A30200084C
:10010000A3020008316B0008A3020008A302000844
:10011000A3020008A3020008A3020008A30200082B
:10012000A3020008A3020008A3020008A30200081B
:10013000A3020008A3020008A3020008A30200080B
:10014000A3020008A3020008A3020008A3020008FB
:10015000A3020008A3020008A3020008A3020008EB
:10016000A3020008A3020008A3020008A3020008DB
:10017000A3020008A3020008A3020008A3020008CB
:10018000A3020008A302000800F002F800F061F8E2
:100190000AA090E8000C82448344AAF10107DA45E2
:1001A00001D100F056F8AFF2090EBAE80F0013F0D3
:1001B000010F18BFFB1A43F001031847E076010056
:1001C000007701000A444FF0000C10F8013B13F0D7
:1001D000070408BF10F8014B1D1108BF10F8015BA0
:1001E000641E05D010F8016B641E01F8016BF9D193
:1001F00013F0080F1EBF10F8014BAD1C0C1B09D1EA
:100200006D1E58BF01F801CBFAD505E014F8016B5B
:1002100001F8016B6D1EF9D59142D6D370470000ED
:100220000023002400250026103A28BF78C1FBD8FF
:10023000520728BF30C148BF0B607047782900F0D3
:10024000E980002070471FB512F047FD1FBD10B5B3
:1002500010BD00F01DFB1146FFF7F5FF11F09EFCED
:1002600000F03BFB03B4FFF7F2FF03BC11F057F8BB
:1002700040BA7047C0BA704730BF72B6704762B6B6
:10028000704780F30888704709488047094800474D
:10029000FEE7FEE7FEE7FEE7FEE7FEE7FEE7FEE736
:1002A000FEE7FEE704480549054A064B7047000093
:1002B000B585000889010008007C01200086012026
:1002C000007E0120007E0120EFF3108072B670479F
:1002D00080F310887047264C4FF6FF7525604FF06D
:1002E000000484F30988234C4FF001052570224C4B
:1002F0004FF08055256062B6FEE730B41E4C4FF0DB
:100300008055256030BC704730B41B4C4FF0805591
:10031000256030BC704700BF72B6EFF3098050B162
:100320001EF0100F08BF20ED108A203880E8F00F73
:1003300012490968086000B5114880475DF804EB70
:10034000104811490A7802700C4810490A68026086
:10035000106890E8F00F20301EF0100F08BFB0ECCE
:10036000108A80F309884EF0040E62B6704700BF11
:1003700022ED00E0E600002004ED00E0EC000020AB
:10038000555D0008DB000020DC000020F4000020A8
:10039000704700000FB4044910B503AA029800F09A
:1003A000E1F910BC5DF814FB740000202DE9F04168
:1003B0000E460446002020622046E168884730B39C
:1003C000252805D0D4E901219047206A401CF2E796
:1003D000E168204600278847050018D0A5F14100B4
:1003E000192802D820354FF40067324629462046A6
:1003F0002760FFF723FF40B1012804D0F61D26F047
:1004000007060836D8E7361DD6E72846DAE7206A19
:10041000BDE8F08170B504460D4621461068AFF383
:1004200000802188090502D50F4A7A4402E00E4A6D
:100430007A440E32002104F1240305E000F00F0697
:100440000009965D5E54491C0028F7D120780023EE
:10045000000704D5702D02D009B1022311322046C5
:10046000BDE8704000F025B96673010040EA010361
:1004700010B59B070FD1042A0DD310C808C9121F4D
:100480009C42F8D020BA19BA884201D9012010BD87
:100490004FF0FF3010BD1AB1D30703D0521C07E054
:1004A000002010BD10F8013B11F8014B1B1B07D1B8
:1004B00010F8013B11F8014B1B1B01D1921EF1D129
:1004C000184610BD032A40F2308010F0030C00F0F3
:1004D000158011F8013BBCF1020F624498BF11F87E
:1004E00001CB00F8013B38BF11F8013BA2F1040237
:1004F00098BF00F801CB38BF00F8013B11F00303AF
:1005000000F06780083AC0F0088051F8043B083AD0
:1005100051F804CBA0E80810F5E7121D5CBF51F8B4
:10052000043B40F8043BAFF30080D20724BF11F82E
:10053000013B11F801CB48BF11F8012B24BF00F893
:10054000013B00F801CB48BF00F8012B7047431A6C
:1005500028BF9A427FF6B6AF032A1044114440F2F6
:10056000268010F0030F1EBF11F8013D521E00F847
:10057000013D10F0030F7FF4F6AF11F0030300F01C
:100580001681083AC0F00B8051F8043D083A51F842
:1005900004CD40F8043D40F804CDFFF7F3BF121D31
:1005A0005CBF51F8043D40F8043DAFF30080D20732
:1005B00024BF11F8013D11F801CD48BF11F8012CFD
:1005C00024BF00F8013D00F801CD48BF00F8012C20
:1005D000704710B5203AC0F00B80B1E81850203AAF
:1005E000A0E81850B1E81850A0E81850BFF4F5AFD3
:1005F0005FEA027C24BFB1E81850A0E8185044BF5D
:1006000018C918C0BDE810405FEA827C24BF51F8C9
:10061000043B40F8043B08BF7047D20728BF31F8BD
:10062000023B48BF11F8012B28BF20F8023B48BF0E
:1006300000F8012B704702F0FF0343EA032242EA6D
:10064000024200F0E0B84FF0000200B513469446B5
:100650009646203922BFA0E80C50A0E80C50B1F11A
:100660002001BFF4F7AF090728BFA0E80C5048BF2E
:100670000CC05DF804EB890028BF40F8042B08BFCC
:10068000704748BF20F8022B11F0804F18BF00F8C8
:10069000012B7047704770477047704710B500F0E6
:1006A000D3F8006810BD10B5044600F0CDF8046022
:1006B00010BD2DE9F0470D4699469246044600F1DB
:1006C00024080168880604D5E06921F01001216042
:1006D00000E00120A84201DD471B00E00027A169DE
:1006E0007A1902EB0900081AA0612078C00602D42A
:1006F0002046AFF30080002608E0D4E901211AF873
:1007000006009047206A401C761C20624E45F4DBB0
:100710002078C0060AD52046AFF3008006E0D4E971
:10072000012130209047206A401C2062381EA7F12A
:100730000107F4DC07E0D4E9012118F8050090472F
:10074000206A401C2062281EA5F10105F3DC20462A
:10075000AFF300802078000602D50220BDE8F087C4
:100760000120FBE7074B70B50D467B4400F075F8A0
:100770000446284600F084F810B14FF0FF3070BDF9
:10078000204670BD9F130100431A28BF9A427FF68E
:1007900020AF104410F0030F11441EBF11F8013DAB
:1007A000521E00F8013D10F0030F7FF4F6AF103A2F
:1007B000C0F00A8010B531E91850103A20E91850FD
:1007C000BFF4F9AFBDE81040530724BF31E908106A
:1007D00020E9081044BF51F8043D40F8043D12F0F0
:1007E000030F08BF7047D20728BF31F8023D48BF4A
:1007F00011F8012C28BF20F8023D48BF00F8012C59
:1008000070474FF000020429C0F0128010F0030C72
:100810003FF41BAFCCF1040CBCF1020F18BF00F881
:10082000012BA8BF20F8022BA1EB0C01FFF70DBF95
:100830005FEAC17C24BF00F8012B00F8012B48BF00
:1008400000F8012B70470000004870479C7B012096
:1008500001694A1C02610878704700B58FB0CDE984
:1008600001310021059105497944CDE90310114674
:100870006846FFF79BFD0FB000BD0000E5FFFFFFDE
:10088000007B00F080007047004870479C7B01208F
:100890007546FFF7F9FFAE4605006946534620F05E
:1008A0000700854618B020B5FFF7FCFCBDE82040E6
:1008B0004FF000064FF000074FF000084FF0000B1C
:1008C00021F00701AC46ACE8C009ACE8C009ACE8CF
:1008D000C009ACE8C0098D46704710B50446AFF3B7
:1008E00000802046BDE81040FFF7BCBC00BFFEE71B
:1008F00031B52DED068B82B00024002574480078B8
:10090000401C73490870084600780A2190FBF1F2F8
:1009100001FB120018B16E4800780A287EDA012225
:1009200008A9002005F0E6FE9DF8200000F01F0059
:10093000002873D09DF8200000F01F0040F0C00098
:10094000644981F82000002486E0624890F8200085
:100950000121A140084000287CD05F4931F81400F3
:10096000042201A905F0C6FE5A4890F8340000F0B0
:100970000100D0B39DF807109DF8062001EB02207E
:1009800011F0DDFD41EC190B9FED540B53EC102BD6
:1009900011F03CFE41EC180B11F0A4FD81B24D4862
:1009A000163020F814109DF805109DF8042001EB76
:1009B000022011F0C4FD41EC1A0B9FED4A0B53ECE1
:1009C000102B11F023FE41EC190B9FED480B53EC5B
:1009D000102B11F04FFF41EC180B11F083FD81B289
:1009E0003C480C3020F8141034E0FFE79DF8071065
:1009F0009DF8062001EB022011F0A1FD41EC190B3E
:100A00009FED360B53EC102B11F000FE41EC180B50
:100A100011F068FD81B22F480C3000E02BE020F887
:100A200014109DF805109DF8042001EB022011F030
:100A300086FD41EC190B9FED2B0B53EC102B11F0A5
:100A4000E5FD41EC180B11F04DFD81B22148163047
:100A500020F81410601CC4B2052CFFF676AF0125F7
:100A60001C48808920B91B48C08A08B9002008901A
:100A70000020174908709DF8200000F01F00D0B931
:100A8000144890F8200000F0800040B1114890F820
:100A9000200020F080000F4981F820000BE04FF685
:100AA000FF700C498881C882084690F8200000F049
:100AB000E00081F8200006480078F02802DD0A20D6
:100AC00003490870284602B0BDEC068B38BD000013
:100AD0000400002008000020AE4401087B14AE474B
:100AE000E17AD43FD881734694F6D23F00000000EB
:100AF0000000894010B5052010F0E0FC10BD00009A
:100B000010B500200F4908600F48006820F440002D
:100B10000D4908600846006840F480000860FFF74F
:100B2000E9FF00200949C1F8AC02FFF7E3FF01200B
:100B300004490860FFF7DEFF00200549C1F8800284
:100B400010BD0000808240420014024000804242FA
:100B5000008040421CB50121222005F039FE012011
:100B600000908DF8040003208DF8050000208DF81A
:100B7000060001208DF807006946084800F094FD42
:100B80004FF4006000906946054800F08DFD01209B
:100B9000044908600449C1F8AC021CBD00040240CD
:100BA00000140240808240420080424210B5002082
:100BB0000F4908600F48006820F440000D490860A4
:100BC0000846006840F480000860FFF793FF0120AA
:100BD0000949C1F8AC02FFF78DFF01200449086004
:100BE000FFF788FF00200549C1F8800210BD000012
:100BF0008082404200140240008042420080404215
:100C000070B5054600241448006820F440001249DD
:100C10000860084600680860002612E000200F49BE
:100C200008601E2010F04AFC01200D49C1F8800226
:100C30006006040E0B48006808B1601CC4B2701C4A
:100C4000C6B2082EEADB15B9FFF7B0FF01E0FFF7E7
:100C500057FF204670BD00000014024080824042D1
:100C6000008040422C82424270B50446134800681E
:100C700020F44000114908600846006840F48000F4
:100C8000086000200E490860FFF734FF002511E0DE
:100C9000E0090C4908606006040E01200A49C1F809
:100CA0008002FFF727FF002005490860FFF722FFB9
:100CB000681CC5B2082DEBDB70BD000000140240BB
:100CC00080824042AC8242420080404210B50F48D0
:100CD000006820F440000D4908600846006840F4B0
:100CE0008000086001200A4908600A49C1F88002B2
:100CF000142010F0E3FB002005490860FFF7FAFE1E
:100D000000200449C1F8800210BD00000014024018
:100D1000AC8242420080404210B50D48006820F489
:100D200040000B4908600846006840F480000860F5
:100D3000012008490860142010F0C0FB002006497B
:100D4000C1F8AC02FFF7D6FE01200449086010BDCF
:100D5000001402408082404200804242AC82424203
:100D600010B500241148006820F440000F490860C5
:100D700008460068086001200D4908600D49C1F867
:100D800080020AE0601CC4B2FA2C03DDFFF7C4FF46
:100D9000012010BD012010F091FB0548803800684B
:100DA0000028EFD10449086000BFF2E700140240B8
:100DB000AC824242008040428082404270B50025B1
:100DC0004FF4803400E0641E24B1802005F090FED2
:100DD0000028F8D014B90325284670BD40F2FF5012
:100DE00005F038FE2846F8E7014600BF08480068CD
:100DF00000F045000028F9D040F2FF50044A121DCF
:100E0000106003482038006808221040C0B27047C4
:100E1000342C014070B500251048046801E00F48EB
:100E2000046804F045000028F9D004F0040028B15B
:100E30000325042005F00EFE284670BD04F00100D5
:100E400028B10125012005F005FE2846F5E740F20E
:100E5000FF5005F0FFFD2846EFE70000342C01406D
:100E600070B500250B48046801E00A48046804F0E6
:100E700045000028F9D004F0040028B1032504201F
:100E800005F0E8FD284670BD40F2FF5005F0E2FD98
:100E90002846F8E7342C01402DE9F04106460F467C
:100EA0004FF000082248056801E02148056805F078
:100EB00045000028F9D005F0040038B14FF00308D0
:100EC000042005F0C7FD4046BDE8F08105F00100B3
:100ED00030B14FF00108012005F0BCFD4046F3E7BA
:100EE00005F000FEB04203D04FF010084046EBE79B
:100EF00040F2FF5005F0AEFD002005F00DFE044667
:100F000004F4604018B9200C38804046DCE704F453
:100F1000005008B11320D7E704F4804008B1102036
:100F2000D2E704F4004008B10F20CDE74046CBE7FC
:100F3000342C014070B500264FF480350F4804680A
:100F400002E06D1E0D48046804F0450008B9002D4C
:100F5000F7D115B104F0040028B10326042005F0F0
:100F600079FD304670BD04F0400028B100264020D5
:100F700005F070FD3046F5E73046F3E7342C0140CC
:100F800021B1026842F00102026003E0026822F02F
:100F90000102026070470000016821F00101016058
:100FA0000021016041608160C160016121214161D6
:100FB0004A49884204D13D21484A103A91608CE068
:100FC00046491831884205D14FF47461434A103ABA
:100FD000916082E041493031884205D14FF474116B
:100FE0003E4A103A916078E03C494831884205D148
:100FF0004FF07461394A103A91606EE037496031C0
:10100000884204D13649354A103AD16065E0334907
:101010007831884204D13349304A103AD1605CE0DB
:101020002E499031884204D12F492C4A103AD16080
:1010300053E02A49A831884205D14FF03D51274A53
:10104000103AD16049E02949884204D13D21274A1C
:10105000083A116041E025491831884205D14FF422
:101060007461224A083A116037E0204930318842E1
:1010700005D14FF474111D4A083A11602DE01B4947
:101080004831884205D14FF07461184A083A11601E
:1010900023E016496031884204D11149134A121FD6
:1010A00011601AE011497831884204D10D490F4A84
:1010B000121F116011E00D499031884204D10A4994
:1010C0000A4A121F116008E00849A831884204D179
:1010D0004FF03D51054A121F1160704710600240E9
:1010E0003D000020400F002000003D201064024021
:1010F00021B1026842F02002026003E0026822F09F
:10110000200202607047014600200A6802F00102D6
:101110000AB1012000E000207047000010B5002255
:101120000268134B1A40CC680B6823434C69234375
:101130008C692343CC6923430C6A23434C6A2343C1
:101140008C6A23434C6B23438C6B23431A4302600A
:10115000426922F00702D1E90B3423431A4342616A
:101160000B6943604B6883608B68C36010BD0000EF
:101170003F801CF070472DE9F04306460F4690462D
:10118000002445460320A0EB48093CE07A1B91B2BD
:10119000321990B202F0DEFF3A1B91B2721990B28E
:1011A00002F0D8FF3A1991B2721990B202F0D2FF50
:1011B0007A1991B2321990B202F0CCFF7A1991B239
:1011C000321B90B202F0C6FF3A1991B2721B90B274
:1011D00002F0C0FF7A1B91B2321B90B202F0BAFF4C
:1011E0003A1B91B2721B90B202F0B4FF641CB9F1C9
:1011F000000F03DAA000801D814404E0601B800022
:101200000A3081446D1EAC42C0DDBDE8F0830000B1
:1012100051B18200A2F1C042126842F00103820083
:10122000A2F1C042136009E08200A2F1C04212683C
:10123000034B1A408300A3F1C0431A6070470000BB
:10124000FEFF0F00D0E901121143C2681143026989
:1012500011434269114382691143C2691143026A11
:101260001143426A1143826A1143C26A1143026BFD
:10127000114302689200A2F1C042116081680829FE
:101280000BD101688900A1F1C041096841F0400219
:1012900001688900A1F1C0410A60416B0968426B95
:1012A000526841EA0211426B926841EA0221426BA4
:1012B000928941EA0241426B128A41EA0251426B31
:1012C000127D41EA0261426B926911430268521C2D
:1012D0009200A2F1C0421160C16AB1F5804F1BD1EA
:1012E000816B0968826B526841EA0211826B9268D5
:1012F00041EA0221826B128A41EA0251826B127D1D
:1013000041EA0261826B9269114302689200A2F184
:10131000C042C2F8041107E06FF070420168890012
:10132000A1F1C041C1F80421704700002DE9FC4142
:1013300007460D460026002400200090019008205A
:101340005D49086010204860402088600020C86027
:101350004FF480600861084605F01CFC1020FFF780
:1013600043FD044614B12046BDE8FC815348008883
:101370000004514908603720486040208860002000
:10138000C8604FF480600861084605F003FC372010
:10139000FFF72AFD04460CB12046E5E74FF0FF3089
:1013A0004749086008204860302088600220C860F3
:1013B0000020086101204861084605F06DFB00200F
:1013C0003D49086033204860402088600020C860A4
:1013D0004FF480600861084605F0DCFB3320FFF71E
:1013E00003FD04460CB12046BEE70CE04FF40010AC
:1013F00005F07EFB38B105F0C7FB4DF82600761CE2
:10140000012E00D906E02F48006840F22A6108400A
:101410000028EBD000BF082005F06AFB28B10820A7
:1014200005F018FB042420469EE7022005F060FB2F
:1014300028B1022005F00EFB0224204694E720206C
:1014400005F056FB28B1202005F004FB06242046B9
:101450008AE74FF4007005F04BFB30B14FF4007099
:1014600005F0F8FA072420467EE740F2FF5005F029
:10147000F1FA00980006009901F47F4140EA01204A
:10148000009901F47F0140EA1120009940EA1160BF
:10149000686001980006019901F47F4140EA01204B
:1014A000019901F47F0140EA1120019940EA11609D
:1014B0002860204658E70000E02800205000002067
:1014C000F4280020342C01402DE9FF4F40F6FF7432
:1014D0000F46664283B09B46814600210BE000BF69
:1014E00009EB8100B0F90200A04200DA0446B042E4
:1014F00000DD0646491CB942F2DB684800684069D5
:1015000000280DD0B0F906101A46A1EB0B01B1422C
:1015100000DA0E46B0F90200801AA04200DD04464F
:10152000B5E0DFF87CA100200546CAF8000089E09C
:10153000781E854201DA6B1C00E0002309EB850C64
:1015400009EB8302BCF90200B2F90210A04245D1B6
:10155000A14215D139F92330059A39F9251003EB49
:10156000020C4E4A05981268084404EB0B01D26E37
:101570006045136801DA62462BE00246604628E0C7
:101580002846A4464FF000087A1E0BE008B1401E22
:1015900000E0781E09EB8003B3F90230634504D103
:1015A00008F101089045F1DB2346A34249D0A3EBA3
:1015B000040239F92500A1EB040C059B92EA0C0208
:1015C00009D4364A184404EB0B011268D26E136832
:1015D0000246984735E00CF0EBFD32E0A14230D0F6
:1015E00001DBA04203DDA0422BDBA14229DCE04667
:1015F00088420ADC0346A04223DC0846A14220DBE5
:10160000B8F900C0B2F9001008E00B46A14218DC9E
:10161000A04216DBB2F900C0B8F90010E21AA1EB43
:101620000C0151430029A0EB030202DD01EB620132
:1016300002E0A1EB6201491CC01A91FBF0F060448A
:10164000C9E76D1CBD42FFF673AF0598009004EB2F
:101650000B00019000208046054613E01149B8F1C7
:10166000000F31F915A009D0009901EB0A020844D6
:101670000A490968C96E0B680199984788F0010802
:1016800050466D1C064909688D42E7DB641CB44274
:101690007FF747AF07B0BDE8F08F00007C02002065
:1016A000AC0200201C7A0120F0B50A46002100237C
:1016B000002400BF3DE0012505FA01F3156805EAA5
:1016C00003049C4234D105684F000326BE40B54355
:1016D000056015794E00B5400668354305601579FB
:1016E000012D02D01579022D16D185684F000326F1
:1016F000BE40B543856055794E00B5408668354398
:101700008560456801268E40B543456045689679F9
:101710008E40B6B235434560C5684F000326BE40D3
:10172000B543C560D5794E00B540C6683543C56040
:10173000491C1029BFD3F0BDF0B5002300244D078C
:10174000ED0E02FA05F3CE1000F1200555F82650F3
:101750004E07F70E0F26BE40B543CF1000F120060E
:1017600046F82750CE1000F1200555F8265045EADE
:101770000304CE1000F1200545F82640F0BD01839A
:10178000704700002DE9F04FDFF828B191B04FF01D
:10179000FF35DBF80030B3F922100691DE69B3F9AA
:1017A0002490F469A189814206D8E289824203D358
:1017B000471AD4F8008012E0D4E9018100296FD0E3
:1017C0000A8882426CD84D88854269D3801A82B2D9
:1017D000486800EB8200B0F90070B0F90250781C44
:1017E0005ED0307EA17C10FB01FA217CCDE908019E
:1017F000B3F92A60304603F091F9C0B20E90DBF8DD
:10180000000007FB0A81A37C826B0127CDE904124B
:10181000CDE90273C069DDE90832C17E807ECDE981
:1018200000014946069802F0D9FA681C18D046F023
:10183000020003F073F9DBF80000A37C05FB0A81CA
:10184000826BCDE90273CDE90412C069DDE908328B
:10185000C17E807ECDE900014946069802F0BEFABD
:10186000DBF800005D46C069417E007E814214D9EC
:10187000022E12D086F0040003F050F92868C069E7
:10188000027EC37E12FB0391437E857E099A0698F1
:101890004B4402FB050202F0FDFC0E9803F03EF9FA
:1018A000DBF80000627C418C1144418411B0BDE83A
:1018B000F08F00007C02002004480068C069C06905
:1018C00009B1027C0A60407C704700007C02002065
:1018D000022008807047C06982898A4202D8C28982
:1018E0008A4210D2806880B102888A420DD843882B
:1018F0008B420AD3406800EB8100A0EB8200B0F974
:101900000000002801DB0120704700207047000024
:101910002DE9F0432F4C034687B020681946B0F9F3
:101920002A80C069C06900F084F800284ED0416860
:101930000088181A01EBC0054046AE7803F0EEF8B7
:10194000814620686A680123816BCDE90236CDE9C2
:101950000421C169CB7E8A7ECDE900230B7EB0F9DC
:1019600024102A78B0F9220002F038FA2068C06901
:10197000477E067EB7421DD9C07E47434643B8F135
:10198000020F17D000F0CAFC804600F095FC01F071
:101990009CF921682A78CB69B1F92200DB7E12FB21
:1019A0000302B1F92410CB19314402F073FC404614
:1019B00001F08BF9484603F0B1F820686A78C369F2
:1019C000B0F922109B7E12FB0311418407B0BDE8E1
:1019D000F08300007C02002030B50F4C05460B461A
:1019E00020682946C069C06900F023F8002811D09A
:1019F0004168008824682A1A0120E46900EBC200CB
:101A0000085CA47E10FB04F0002B03D011F8321008
:101A10006143196030BD00007C0200200120088075
:101A2000704700B5C06900F004F8002800D001201C
:101A300000BD06E002888A4202D842888A4202D269
:101A400080680028F6D1704770B500240E4D16E06E
:101A500028690E4900EBC410001D78220968FEF7C2
:101A6000B8FD2869002100EBC410016000F10C01F1
:101A70008161011D0A1DC0E90F12641C4164A86840
:101A80008442E5DB70BD0000E40200207C020020FF
:101A900070B50D490B480860084601F03FFF0A4C3D
:101AA000143CA068C501284600F068F82A460021C9
:101AB000206101F075FF4FF0FF302060BDE87040FD
:101AC00001F0FABC89010108F802002010B50400F9
:101AD00009D000F0DDFC20460CF0C2FB044601F00A
:101AE000A7FC204610BD002010BD38B5054600F00B
:101AF000CFFC2846FFF7EAFF040009D000F0B2F857
:101B00002A460021009001F04BFF684600F0E0F803
:101B100001F08EFC204638BD024A106021F003001F
:101B2000506070479879012010B5040016D000F07D
:101B3000AFFC0B48006B10F8341059B1022909D2E0
:101B4000042101EBC401415848680CF04DFB2046CC
:101B50000EF068FBBDE8104001F06ABC10BD00004B
:101B6000DC780120002805D0034A916B016001B1A7
:101B70004860906370470000DC7801202DE9F04157
:101B800004460EF01FFA2648E41C24F00305C16B3E
:101B90002D1DA94200D90D46846B13E054F8042C86
:101BA000AA420ED184B1216809B162684A606168B5
:101BB00009B122680A60826BA2422ED1216881633A
:101BC0002BE02468002CE9D18046416B80680F1817
:101BD00057F8040C3E1A306838B100200EF05CFB58
:101BE00057F8040C3E1A3068B8B97068A84214DB84
:101BF0003044441B30460EF035FBD8F80810491B22
:101C0000C8F80810D8F810102944C8F810107068E7
:101C10003146401B0CF0E8FA20C42046BDE8F081B4
:101C2000DC78012010B500240EF0CCF90C490F200F
:101C300001EBC002126C1AB101EBC000006C08E0AD
:101C4000401EF5D508E04168A14200D90C468068E5
:101C500010B180680028F6D1A4F10C0010BD00007E
:101C6000DC78012005498A69521C8A61096B01EB05
:101C7000C0010A78521C0A7000F042B8DC780120DA
:101C800010B500F005FCFFF7CDFF64220849B0F560
:101C9000800F04D990FBF2F4C869444303E0C9699A
:101CA0004143B1FBF2F401F0C3FB204610BD00003C
:101CB000DC7801200549102805D94A68B0EB520F9D
:101CC00002D3500800E01020886070479879012006
:101CD0000A4902680B6B52F8082C03EBC202137816
:101CE000022B03D38B690BB15B1E8B611178491EEC
:101CF000117000210160084670470000DC78012067
:101D0000002806D00349042202EBC000096B0858E2
:101D100008307047DC78012070B514460D46064641
:101D200000F0B6FB204600F005FB0300174804EB6B
:101D3000840109D050F8210041688068711A2A1A7C
:101D4000184600F0EFFF1CE000EB8104A268B242ED
:101D500001D0012200E00022E368AB4201D0012360
:101D600000E000231A430CD0236943B150F821004E
:101D7000816840686A1A311A184600F065FFC4E9A4
:101D80000265BDE8704001F053BB0000087B0120F4
:101D900010B5C2B2CBB2D21A02D5C2F1000212B251
:101DA00093B2C0F30722C1F3072403FB03F3121B12
:101DB00001D5524212B2000C92B2A0EB114002FBCC
:101DC000023200B2002801DA404200B280B200FBC9
:101DD000002010BD10B50021084600F011FB40F6B0
:101DE000FF725042BDE8104013460146AFF3008039
:101DF0002DE9FC411C4615460E46074600F048FBFF
:101E0000042002F08BFE80461248C068C16C006D51
:101E10000F4406440D440444ADF80070ADF804507E
:101E2000ADF80260ADF8064068460BF075FF07E0BC
:101E300023462A463146384602F02CFA0BF02EFF94
:101E40000028F5D1404602F069FE01F0F1FABDE844
:101E5000FC810000700200202DE9F0411C4616466E
:101E60000D460746022B02DB0020BDE8F0811C2056
:101E7000FFF784FE0028F8D00DB105610AE0094A99
:101E800052F8241009B905E011460A68002AFBD16E
:101E90000969016184618682002101604160C0E9B5
:101EA0000217E2E79402002070B51D46FFF7D4FF49
:101EB000040001D000F00EF8E068006820B9034883
:101EC000006800EB85008465204670BD7C02002020
:101ED000FFF748BE70B590B38269022A30DA1C4C15
:101EE00054F8221019B944F822002FE019464B6823
:101EF000002BFBD106E0CB68C5681B682D68AB42A0
:101F000003DD09680029F6D11AE0C1B1CB68C668C3
:101F10001B683668B3420CD1838A012B05D008E0D8
:101F20001946DB681B68AB4203DB0B68002BF7D15B
:101F300029B14B6833B118604A68426004E0FFE79A
:101F4000012070BD44F8220048600160002070BD8F
:101F50009402002010B503E00468FFF7BBFF2046A1
:101F60000028F9D110BD0EF009BE00002DE9F041A6
:101F70000026DFF834800D4F354600BF58F8254065
:101F800009E0E0680068385C20B120460EF0F6FDFC
:101F9000266026462468002CF3D16D1C022DEDDB53
:101FA0003046BDE8F0810000940200205846010848
:101FB000022801DB00207047054951F8200004E0A9
:101FC000C16809680029F6D000680028F8D1704778
:101FD000940200202DE9FC4706005FD000F058FA7B
:101FE00000F0B2F93C4C81462068B0F9228000F044
:101FF000D9F9216807468A8CD01B888441E000BF4C
:1020000047F6FF71304601F0AFFB8246014630468D
:1020100001F080FB2168054691F82C0000F00300D8
:10202000012841D002283BD000204A8C101A488455
:10203000ADF800006A1E1044ADF80400888CADF8BD
:102040000200A9F101010844ADF806006A465146B4
:10205000304601F007FB2168BDF802008884514634
:10206000304601F0C1F8064430780A281ED00D2809
:102070001CD0BDF80000216828444884307818B18D
:10208000761C30780028BBD12068818C394481844B
:10209000818D21F00301818501F0CAF9BDE8FC873B
:1020A00005EBD5704010C0E72846BEE7206890F8E1
:1020B0002C1001F0030101290BD0022909D0018C59
:1020C000418431780A29D9D1828C02EB09018184BB
:1020D000D4E7A0F82280F4E77C02002070B5144613
:1020E0000D46064600F0D4F905480068458484840E
:1020F0003046FFF76FFFBDE8704001F099B900006E
:102100007C0200202DE9F04107460A4815460E469C
:102110000068B0F92C0040F0020000F033FE0446E5
:102120002A4631463846FFF7D9FF2046BDE8F04140
:1021300000F028BE7C0200202DE9FC471D46164613
:102140008846814600F0A4F9164C2068C16C006DE9
:102150000E44054400200BF0DFFDF0B1124F206863
:102160001121407C57F820000190C068426A01A804
:1021700090475FEA000C06D0334642464946009538
:102180000198E04705E02B46324641464846FFF7B6
:102190009BF90BF083FD0028E1D101F049F9BDE87E
:1021A000FC8700007C020020940200202DE9FC4105
:1021B0001C4615460E46074600F06AF910480068AE
:1021C000C16C006D0F4406440D440444ADF800702A
:1021D000ADF80450ADF80260ADF8064068460BF06B
:1021E0009BFD07E023462A463146384602F052F866
:1021F0000BF054FD0028F5D101F01AF9BDE8FC817F
:102200007C02002008B50B46002805D0009281888A
:102210008268C08800F001F808BD10B50828029C4B
:1022200030D008DC04FB01F401280AD0022813D0C6
:10223000042804D11CE0102828D020282CD000200D
:1022400010BD04EBD30003F00701105CC1F10701DE
:10225000C84000F0010010BD04EB93000621105CA3
:1022600001EA4301C1F10601C84000F0030010BDBE
:1022700004EB5300D907105C02D000F00F0010BD32
:10228000000910BD04FB0130105C10BD481004FBB8
:10229000003032F8100010BD881004FB003052F8F6
:1022A000200010BD034951F82000C1688A6A082146
:1022B000104700009402002010B500F0E9F802F089
:1022C00019F802F09BF8044601F0B2F8204610BD60
:1022D00010B5044600F0DCF8054800210068C0692C
:1022E000426820469047044601F0A2F8204610BDFF
:1022F0007C02002070B50C46054600F0C9F806487F
:1023000021460068C069426828469047044601F0AB
:102310008FF8204670BD00007C02002010B500F050
:10232000B7F801F0EFFF02F069F8044601F080F819
:10233000204610BD0021022802D2024951F8201087
:10234000084670478C03002010B500F0A1F804483F
:102350000068C069447E01F06BF8204610BD0000A3
:102360007C02002070B514460D46064600F090F839
:1023700022462946304601F0F9FF10B100202860BE
:102380002060BDE8704001F053B870B50C460546BA
:1023900000F07EF82146284601F002FABDE87040C0
:1023A00001F046B810B5002400F072F80B48006840
:1023B00090F82C1001F00C01042904D0082906D053
:1023C0000C2907D103E0C069047E641E02E0C069E5
:1023D000007E440801F02CF8204610BD7C0200204D
:1023E000024951F8200000690068704794020020FB
:1023F000024951F8200000694068704794020020AB
:1024000070B50D46044600F043F820460DF020FD5F
:10241000044628460DF024FD044301F009F8204647
:1024200070BD0000144810B5016821F00101016081
:1024300012480121816012490160006811498842F7
:1024400000D0FEE701F0EEF80F492E20087001F0F1
:1024500029F80E480DF068FDFFF71AFB0FF0DAF8C7
:1024600004460021084600F06DFC0BF053FAFFF71C
:10247000EBFA204610BD0000002000E000300240D2
:10248000C2A507F4CDB5E8B570020020A4790120FB
:1024900070B51F4CE06820B100F0FCFF6168884215
:1024A00004D001F019F800F0F5FF6060E068401C0E
:1024B000E060012825D100250AE000BF00F0EAFF16
:1024C000216901EBC5110968814205D0D1B16D1CAC
:1024D000A0688542F2DB00252068854211D00028E3
:1024E0000EDBFFF743FD2268216901EBC212D067C2
:1024F000084A01EBC510011D1160C06FFFF72AFDEE
:10250000256070BD216901EBC5110860E4E700009A
:10251000E40200207C0200201CB5040004D10E4817
:102520000068046E002C16D0FFF7B2FF2046FFF7BC
:1025300099FB009044696846FFF7CAFB4CB12046FE
:10254000FFF790FB019081688968884701A8FFF731
:10255000BFFB00F06DFF1CBD7C02002001490A4654
:1025600000F002B801F0FFFF2DE9F04387B01546F7
:102570000C465FEA000846D0FFF78AFF002000F013
:10258000B5FB814621480068066E4046FFF76AFBAE
:1025900000900068806900F075FB074640F6FF7008
:1025A000001904D10098B0F90440B0F90650009821
:1025B000611E0289ADF804401144ADF8081041894C
:1025C000681E0844ADF80650ADF80A000AF092FE05
:1025D0006846FFF77DFB01A80BF09EFB06E02A464C
:1025E0002146404600F040FA0BF058FB0028F6D197
:1025F000384600F047FB304600F060F9484600F0EE
:1026000075FB00F015FF07B0BDE8F0837C020020E9
:102610002DE9FE4F984691468A46834600270C9E38
:10262000FFF736FF174818490068407C51F82040F2
:10263000E1680968042903D02468002CF8D100E07F
:1026400014B9FFF7B5FC04460121E068C26A2046D0
:102650009047050011D02469A0688047401C02D132
:102660000A4C46F001060096CDE9015443464A461D
:102670005146584600F082F9074600F0D9FE384628
:10268000BDE8FE8F7C0200209402002064770108E0
:1026900038B504001CD0FFF7FBFE0E480068006E42
:1026A000A04201D100F0E1FA2046FFF7DBFA0090EA
:1026B000406908B100F0A5FE00980068FFF708FC2B
:1026C0006846FFF705FB2046FFF72EFA00F0B0FE44
:1026D00038BD00007C0200202DE9FF4F83B0454C3F
:1026E000DDF840B098468A4607002BD002A901A821
:1026F000FFF74BFEB7F90060002E00DA0026B7F9AD
:102700000250002D00DA00252068A146407C01F02F
:1027100043FE01990144491EB7F904000DF0EFFC96
:102720000446D9F80000407C01F039FE02990144CA
:10273000491EB7F906000DF0E2FCA71B7F1C441BE5
:10274000641C0BE0206800263546407C01F024FE26
:1027500007462068407C01F022FE0446B8F1000FD5
:1027600001D1C4F10008002F01DD002C03DC0020A2
:1027700007B0BDE8F08F43463A4629463046CDF8CB
:1027800000B0FFF745FF5FEA000909D000F060F8EC
:102790008046484600F092F80027DFF85CB01FE062
:1027A0005146059888470120E2E7E11B414502DADE
:1027B000484600F067F83FB1EA193146484600F054
:1027C000ABF84846FFF7A8FE514605988847DBF866
:1027D000001009B1002088474846FFF7BFFE474474
:1027E000A742E2DB4846FFF753FF002000F066F8FF
:1027F000BDE700007C020020E002002038B50500A3
:102800004FF0000411D0FFF743FE2846FFF72AFAE5
:102810000090006800698068804702F017FD044658
:102820006846FFF755FA00F003FE204638BD38B57C
:102830000446FFF72DFE2046FFF714FA00F11804B6
:1028400000906846FFF744FA00F0F2FD204638BDDC
:1028500038B504460025FFF71BFE1CB90848006880
:10286000046E44B12046FFF7FDF90090B0F90A501C
:102870006846FFF72DFA00F0DBFD284638BD000062
:102880007C02002038B50C46050004D10A480068D7
:10289000056E002D0FD0FFF7FBFD2846FFF7E2F98C
:1028A0000090B0F90A10A14200DD44816846FFF7AC
:1028B0000FFA00F0BDFD38BD7C020020F8B50546DA
:1028C000FFF7E6FD134E3068046E65B10CB100F001
:1028D000CCF90AF005FE2846FFF7C4F900903168EC
:1028E0000A6E1AB106E000F0C0F90EE0D1E9022349
:1028F000C1E919230D660068FFF7ECFA6846FFF797
:10290000E7F902F07BFA02F063F800F091FD20464F
:10291000F8BD00007C0200207CB515460E46040080
:1029200004D115480068046E002C24D0FFF7B0FDD8
:102930002046FFF797F92DB20090C58034B284800D
:1029400002F046F80098406980B1FFF78BF9009AD1
:102950000190B2F908108180B2F90A20C28011B149
:102960000AB10480458001A8FFF7B2F96846FFF775
:10297000AFF900F05DFD7CBD7C0200202DE9FF4F2A
:10298000DFF8E0B083B01C46DBF80010DDE9106032
:10299000924600274B7C3A461299FFF75DFA0500F4
:1029A0005DD028698068804702F050FC81460AFBB0
:1029B00009F0C01D4FEAD008FFF762F9F10705D111
:1029C000C11700EB9170801000EB4000002C06DC7A
:1029D0001838B0FBF8F06442A04200DC0446F0076F
:1029E00007D10090DDE903012346524600F07CFC4C
:1029F0000746002C03DC2846FFF76AFA2FE004FBA9
:102A000008F01830F10702D0FFF760F801E0FFF797
:102A10006CF806001CD0FFF725F9019005600399BA
:102A200081800499C180A0F808A04481C0F80C807E
:102A3000C0E9049701A8FFF74BF91298AE6028612E
:102A4000DBF80000407CA861304607B0BDE8F08F9D
:102A50002846FFF73DFA17B13846FFF765F8002022
:102A6000F3E700007C020020F8B515460E46074645
:102A7000FFF7F8F8009044696846FFF729F93846EF
:102A8000FFF7BCFE0346082800DD2CB12A4631467C
:102A900038460EF093F8F8BD2A46314638460EF017
:102AA00025FAF8BD10B5002821D009B30AB3B1F951
:102AB0000040B2F900309C4200DA23460380B1F9AD
:102AC0000240B2F902309C4200DA23464380B1F959
:102AD0000440B2F904309C4200DD23468380B1F902
:102AE0000610B2F90620914200DC1146C18010BDEB
:102AF00011460A6802604968416010BD00280BD089
:102B000003880B44038083881944818041881144E1
:102B10004180C1881144C1807047000070B5104DDC
:102B20000446D5E9000188420ED10E49884203D1FE
:102B3000D0E90F12406C03E00C38D0E90012806835
:102B40002160C4E9012006E090E80E0084E80E0050
:102B50000DF08EF92860207A002800D0012070BD89
:102B6000B0030020307B01200448D0E900108142EE
:102B700001D101207047002070470000B003002001
:102B8000054A10B5034911600DF03EFFBDE8104045
:102B900000F018B9A9D500089C020020B0F9022065
:102BA000B1F906309A4213DCB1F90220B0F90630CF
:102BB0009A420DDCB0F90020B1F904309A4207DCEA
:102BC000B1F90010B0F90400814201DC0120704726
:102BD00000207047DFED1A0A2DE9F04120EE200AAF
:102BE000DFED180A0646904680EE201A0D46BDEE2F
:102BF000C10A10EE107A384600F02EFD0446384621
:102C000000F094FE0146002215E000BF05EB8203B0
:102C100035F92200B3F9023000FB04F703FB01771A
:102C2000634300FB11303F1426F82270001406EBBA
:102C30008203521C58804245E8DBBDE8F081000069
:102C400000C82F48DA0F494070B515460E460400FB
:102C50000AD0FFF71DFC2A46314620460DF016FD2E
:102C6000BDE8704000F0E4BB70BD10B5FFF710FC8C
:102C700001F062FE02F0C2F80AF03CFBBDE8104031
:102C800000F0D6BB70B5094D04462868467CFFF7B6
:102C9000FFFB022C03D228684474FFF7E6FF0448C8
:102CA000046000F0C5FB304670BD00007C020020CF
:102CB0002403002010B50446FFF7EAFB204601F08C
:102CC0005DFEBDE8104000F0B3BB10B50446FFF751
:102CD000DFFB204601F08AFEBDE8104000F0A8BBF3
:102CE00001498860704700007002002010B504465A
:102CF000FFF7CEFB204601F011FF044600F098FBE1
:102D0000204610BD70B50446FFF7C2FB04480068BA
:102D1000C56904B1C46100F08BFB284670BD00009A
:102D20007C02002070B514460D460646FFF7B0FB46
:102D300022462946304601F00DFF044600F078FB9C
:102D4000204670BD70B50C460546FFF7A1FB09484B
:102D5000224605800848048008480068417C0848ED
:102D600050F82100C1680B6A29469847BDE87040B9
:102D700000F05EBBA8020020AA0200207C02002016
:102D80009402002070B50446FFF782FB04480068F7
:102D9000B0F92C50848500F04BFB284670BD000034
:102DA0007C02002070B50446FFF772FB04480068FF
:102DB000B0F92A50448500F03BFB284670BD000066
:102DC0007C02002002480068002800D000477047BD
:102DD0009403002002498A6802B98860FFF7F2BFB5
:102DE000800300202DE9F84FDFF89C800546274F2F
:102DF00098F818008B46410738680A9E9946407C2F
:102E0000924607D401F0CEFA04463868407C01F0BF
:102E1000CCFA06E001F0C9FA04463868407C01F0BB
:102E2000C1FA002795B1A0F1010400BFB9EB06007B
:102E300000D54042142806DB5146BBEB0A0000D502
:102E40004042142804DA0120BDE8F88F641EEDE743
:102E50000A464B465946384600960DF045F90C4F48
:102E60004B46524647F835005946204600960DF02D
:102E70003BF907EBC50148600DF00AFB012100207A
:102E8000C8F81C10E0E70000B00200207C0200201F
:102E9000347A01202DE9F047524D534E0024E86961
:102EA00078B96868346000F00501746010F0060FAE
:102EB00001D000F00500B460F4600DF0E9FA0120E3
:102EC000E8612878C8B100F0D9F8A846286100F078
:102ED000D3F82969286A81420BDBD8F824204046C0
:102EE000914206DC836A42699A4202DBC36A9A42D3
:102EF0000DDD4FF0FF3001466FE000F00FF9686123
:102F000000F0BBF82878401C2870BDE8F0873268D4
:102F100098F81800354F8D1A400700283868407C13
:102F200002DB01F03FFA01E001F03FFA401E4543A9
:102F3000D6E90020B146801A95FBF0F6D8F81420A7
:102F4000D9F8081098F81800551A40070028386872
:102F5000407C02DB01F029FA01E001F023FA401E77
:102F60004543D9E90201081A95FBF0F598F81800D5
:102F7000400700283868407C18DB01F013FA8146CE
:102F80003868407C01F011FAD8F818200146D007C3
:102F900004D0A9EB0600A0F1010000E03046920742
:102FA00002D5491B491E18E0294616E001F0FDF93B
:102FB00081463868407C01F0F5F9D8F81820D1072F
:102FC00004D0A9EB0601A1F1010100E0314692070E
:102FD00002D5401B401E00E028460DF041FD88F858
:102FE000004092E7B0020020347A01207C020020E9
:102FF0000149886170470000B0020020074A00289C
:1030000006DB002904DB01231372C2E9000101E0A1
:1030100000201072014800F003B80000B47A0120CB
:1030200010B504460C220749FDF720FA002808D005
:10303000044894E80E000EC02046BDE81040FFF79B
:103040009FBD10BD787B012030B40A4C2268831AE2
:1030500001D5C3F1000362688A1A00D552421A44AE
:10306000022A04DDC4E9000130BCFFF7C7BF30BC51
:1030700070470000000300207047704710B52DED29
:10308000048B82B02048808845F21051884236D1A6
:1030900001221E49002003F02DFB1C48007800F09F
:1030A0001F0030B3042201A9900103F023FB9DF817
:1030B00007109DF8062001EB02200FF040FA41ECCA
:1030C000190B9FED130B53EC102B0FF09FFA41ECF3
:1030D000180B0FF007FA1049888108468489B4F567
:1030E000F07F02DB40F2DF1404E0002C02DA00245F
:1030F00000E00024204602B0BDEC048B10BDD020BF
:1031000009F0D0FCF7E70000B8280020BC00002040
:10311000D881734694F6D23F0800002010B52DEDFB
:10312000048B82B02048808845F21051884237D104
:1031300001221E49002003F0DDFA1C48007800F04F
:103140001F0030B3042201A9900103F0D3FA9DF8C7
:1031500005109DF8042001EB02200FF0F0F941EC7E
:10316000190B9FED130B53EC102B0FF04FFA41ECA2
:10317000180B0FF0B7F91049C8820846C48AB4F595
:10318000487F02DB40F21F3405E0002C03DA002404
:1031900001E040F21F34204602B0BDEC048B10BDAC
:1031A000902009F07FFCF7E7B8280020BD00002040
:1031B0007B14AE47E17AD43F080000202DE9F041AE
:1031C000084E044605683068016828468847074667
:1031D0003068416828468847284420603846BDE862
:1031E000F0810000800200202DE9F0410C460646E7
:1031F0000025064F05E03868416830468847064498
:103200000544641EF7D22846BDE8F0818002002004
:103210002DE9F0411E46069C1746884605463A466B
:10322000A8687F1C3346D0F804C041462846E047D2
:10323000641EF4D1BDE8F08170B5B0F90040091BFF
:10324000B0F904408C422CDD00F11404B0F90250B6
:103250000069521B02FB0040CA1800EBE104521E39
:10326000D010B0EBE10501F007034FF0FF0102F0D1
:10327000070221FA03F0C2F1070201FA02F1CEB20D
:1032800021780FD001436D1E04F8011B002D05DDD0
:10329000FF2229462046FDF7CEF92C442078304302
:1032A000207070BD30400143217070BD10B5B0F981
:1032B0000030B0F90240C91A00F114030069121B72
:1032C00002FB003000EBE10001F0070302788021EF
:1032D000D9400A43027010BDB0F90610026951438B
:1032E0001430FDF7B0B900002DE9F843804602F133
:1032F0000F000011470003FB07F01C4615468946E6
:103300001430FEF7F2FB060018D0FFF7C1F8304684
:10331000FEF7A8FC0090A0F80080A0F8029085803D
:10332000C480074981600121818107616846FEF7F9
:10333000CFFC00F07DF83046BDE8F8830020FBE7C5
:103340007C77010870B5B0F90660B0F904400B68ED
:1033500000F11405964220DD0069A34202FB0050F3
:1033600000EBE30219DAA4F101044FEAE400A0EB58
:10337000E30512F8010B03F0070400FA04F0C4B2ED
:1033800008E055B112F8014B03F10803A5F101055E
:1033900023F00703002CF4D008E0002070BD00BF2C
:1033A0004FEA44604FEA106403F101032006F7D5A9
:1033B000FF2C0AD0184605E04FEA44644FEA146433
:1033C00000F101006606F7D400E0D81DC44364078D
:1033D00006D007E012F8014BFF2C0FD100F10800D6
:1033E0006D1EF7D5A0EB030000F101000B6070BD6E
:1033F0004FEA44624FEA126400F101002206F7D45A
:10340000F0E738B50546FFF743F82846FEF72AFCF3
:1034100000908189491E0CB284816846FEF758FCF1
:1034200014B92846FEF780FB00F002F838BD000012
:103430000348C168491EC16001D100F057B8704708
:10344000E402002010B54FF4803100200EF02AFD78
:1034500004464FF480312046FEF75EFB8020FEF7E5
:1034600029FC0248FFF73CFC10BD0000AC6A0108D3
:1034700070B504464FF47A7060434FF47A71B0FB34
:10348000F1F5284602F068FC70BD10B50120FFF789
:10349000EFFF10BD0248006890F83200704700004E
:1034A000EC00002010B5002002F03AF80149086055
:1034B00010BD0000A800002010B5012002F030F877
:1034C00003490860002001F0B5FF0249086010BD03
:1034D000A0000020A400002008B56A460021024890
:1034E000006802F043F808BDA000002010B50248B3
:1034F000006802F0B1F810BDA000002010B5082A45
:103500000EDC0346012A1AD0022A58D0042A78D0A9
:1035100010F8042B03F8012B491EF9D1012010BD2E
:10352000102A0ADC0222022AF8D1024630F8043BB3
:1035300022F8023B491EF9D1F0E7002010BD10F837
:10354000042BD207120E491E34D010F8044B491E2A
:1035500004F0010442EA84122CD010F8044B491EF6
:1035600004F0010442EA441224D010F8044B491E2E
:1035700004F0010442EA04121CD010F8044B491E66
:1035800004F0010442EAC40214D010F8044B491EAE
:1035900004F0010442EA84020CD010F8044B491EE6
:1035A00004F0010442EA440204D010F8044B04F091
:1035B0000104224303F8012B0029C0D1AEE710F823
:1035C000042B9207120E491E15D010F8044B491E09
:1035D00004F0030442EA04120DD010F8044B491E13
:1035E00004F0030442EA840205D010F8044B04F00E
:1035F00003042243491E03F8012B0029DFD18DE784
:10360000FFE710F8042B1207120E491E05D010F820
:10361000044B04F00F042243491E03F8012B002938
:10362000EFD17BE70A4810B5816900290ED101214D
:103630008161FFF707FF01F01FFC054905481C31B8
:103640000860BDE81040084600F068B910BD0000F1
:10365000700200205D0101080149084400F066B9CC
:10366000905F01007CB5064628480D46006868B1A9
:1036700000200AF051FB06E06A46294630460AF06F
:10368000D7FF0AF00BFB0028F6D17CBD1068009034
:103690001F4C506801902268BDF8000032F84C1FA2
:1036A0000844ADF80000BDF8020091880844ADF868
:1036B0000200BDF8040011880844ADF80400BDF80C
:1036C000060091880844ADF8060068460AF024FB1D
:1036D0000EE000BF2068BDF800106A464184BDF8C6
:1036E00002108184294630460AF0A2FF0AF0D6FA79
:1036F0000028EFD1206830F8221F428D891A0180FE
:103700004188C28D891A41807CBD0000A40200203E
:103710007C02002073B5124A01A9009812689047F4
:1037200000240090C8B10F4900250968C96949699A
:1037300059B10A684AB1019990477CBD6846FFF7C4
:103740003DFD0546FEF7C4FD04440198401E01906E
:10375000F4D5284600F032F8044420467CBD000031
:10376000AC0300207C02002073B50D4600980024B5
:1037700090B10A490968C969496959B14A684AB1A9
:10378000294690477CBD6846FFF718FD20B10A28FE
:1037900002D0641CAC42F6DB20467CBD7C020020DB
:1037A000044AB2F9002002600348B0F90000086042
:1037B00070470000A8020020AA02002038B50024AB
:1037C00069460094FEF796FD0099814200DD0C1ACF
:1037D000204638BDB0F90030B1F90020934200DA3C
:1037E0000280B0F90230B1F90220934200DA42803F
:1037F000B0F90430B1F90420934200DD8280B0F9C1
:103800000620B1F906108A4200DDC180704770B50C
:10381000B1F90040B2F900309C4200DD234603803C
:10382000B1F90250B2F90240A54200DD2C464480B5
:10383000B1F90460B2F90450AE4200DA3546858031
:10384000B1F90610B2F90620914200DB1146C180A1
:103850009D4201DBA14201DA002070BD012070BD54
:10386000014602480068407C00F002B87C0200205B
:10387000F8B501260F46054602284BDA264C5FB301
:10388000012F02D0022F45D116E054F8250088B947
:103890002846FEF78DFB0090B8B3C0680D21426A40
:1038A00068469047020035D039460098904754F852
:1038B00025000026401C2BE0FEF77AFB009020B389
:1038C000C0680D21426A68469047020022D03946FE
:1038D0000098904700261DE054F8250001280FD1DC
:1038E0002846FEF765FB009050B1C0680D21426A82
:1038F00068469047020003D039460098904700265A
:1039000054F8250010B1012101E003E00021401A24
:1039100044F825003046F8BD7803002002494A6982
:1039200042604861704700007002002030B50028F6
:1039300003DA4FF0FF32404200E00122154990FBCC
:10394000F1F301FB13004910884202DD52424B4261
:103950001844114B984200DD081A4FF47A7390FB1B
:10396000F3F16FF07C044C4300EBC4005A2902DBF6
:103970004FF480300AE0094C04EB810554F8211023
:103980006D686C1A4443B4FBF3F00844002A00DC71
:10399000404230BD407E0500905F0100BC740108CC
:1039A00010B502E000F8011B521E0AB18307F9D1DD
:1039B000930818D001EB014402F0030204EB042445
:1039C00005E0046044608460C46010301B1F042B59
:1039D000F7DA01E010C05B1E002BFBD103E000BF53
:1039E00000F8011B521E002AFAD110BD10B5830742
:1039F00002D520F8021B521E530810D001EB0144DF
:103A0000042B08DB046044608460C46010301B1F1A
:103A1000042BF7DA01E010C05B1E002BFBD1D207AC
:103A200000D0018010BD00BFFEE700007CB5044659
:103A300000250020019000905F48008800045F4945
:103A400008600D204860402088600020C8604FF466
:103A500080600861084603F09DF8594800680090AE
:103A600002E0574800680090009800F045000028E8
:103A7000F7D0009800F0040028B10325042002F0DC
:103A8000E9FF28467CBD009800F0010028B101251F
:103A9000012002F0DFFF2846F4E703F023F800904E
:103AA00000980D2802D010252846EBE740F2FF5081
:103AB00002F0D0FF002003F02FF801900198C0F32E
:103AC000432020703F490198084008B92846D9E7AB
:103AD000019800F0004008B11C20D3E7019800F0E5
:103AE000804008B10920CDE7019800F0005008B1EE
:103AF0000A20C7E7019800F0805008B10B20C1E709
:103B0000019800F0006008B10C20BBE7019800F0BC
:103B1000806008B10D20B5E7019800F0807008B111
:103B20000E20AFE7019800F4000008B10F20A9E7CC
:103B3000019800F4800008B11020A3E7019800F478
:103B4000001008B111209DE7019800F4801008B121
:103B5000122097E7019800F4002008B1132091E7A4
:103B6000019800F4802008B114208BE7019800F43C
:103B7000003008B1152085E7019800F4803008B1C5
:103B800016207FE7019800F4004008B1172079E77C
:103B9000019800F4804008B1182073E7019800F400
:103BA000005008B119206DE7019800F0080008B135
:103BB0001A2067E7284665E750000020E02800202B
:103BC000342C014008E0FFFD30B5014601F01F0430
:103BD000C1F34513CA0AE50205EB43151544A8B223
:103BE00030BD000070B5044600261748058840889F
:103BF00045431548808846F60401884216D112488C
:103C00008079012812D100200F4988712A2048812B
:103C10002B2088810021084600F0FAFE01200A4985
:103C200088712B2048812A20888103E000210846E2
:103C300000F0EEFE01F00CF9002602E003480480DB
:103C4000761CAE42FAD370BDB82800200000086090
:103C50000449054A0968497C52F821100969096834
:103C6000084700007C0200209402002010B50446A2
:103C7000002C52D158498871F02008804FF4A07070
:103C800048800846808849F2413188420BD052482A
:103C9000808846F60401884205D04F48808845F266
:103CA000103188421AD12C204B4908812A204881A2
:103CB0002B2088810846808846F60401884205D07A
:103CC0004548808845F21031884206D14FF4A070F3
:103CD000414908804FF4F070488079E03E48808880
:103CE00045F21051884210D14FF430503A490881C2
:103CF0004FF4285048814FF42C5088814FF4F070D5
:103D000008804FF44870488062E0222032490881E0
:103D100020204881212088815AE001202E49887185
:103D20004FF4A0700880F02048800846808849F24F
:103D30004131884205D02848808845F210318842B8
:103D400007D12C20244908812A2048812B208881F2
:103D50002BE02148808846F60401884207D12C20B8
:103D60001D4908812B2048812A2088811DE01A489E
:103D7000808845F21051884210D14FF430501649D6
:103D800008814FF4285048814FF42C5088814FF41B
:103D9000487008804FF4F070488006E022200E49F9
:103DA000088121204881202088810B48808846F6A0
:103DB0000401884205D00848808845F210318842C5
:103DC00006D14FF4F070044908804FF4A070488089
:103DD000002000F057FC10BDB82800202DE9F04F5E
:103DE00005468DB07C48DDF860901A9C00681E4640
:103DF00017464FF0000A78B11B9B199ACDF808902E
:103E00000593CDE90324DDE91623CDE900230468F9
:103E100033463A46284682E0DDE9160201EB060801
:103E200005EB070C1043A8F10108ACF1010C0128C7
:103E300006D0C9F108000590002002910890C8E062
:103E400066480268B2F90A30581A002806DD361AA8
:103E5000002E65DD1946199B00FB0344B2F90E00E4
:103E6000A8EB0000002802DD361A002E58DDB2F95A
:103E70000C00ACEB0000002800DD3F1AB2F908305E
:103E80000020AB4237DD581B3F1A4B46B9F1080FF3
:103E900028D007DC012B0DD0022B13D0B9F1040F71
:103EA00029D117E0102B1FD0182B20D0B9F1200FEB
:103EB00021D11CE020F0070304EBE0041D4400F0D6
:103EC000070018E020F0030304EBA0041D4400F0F9
:103ED000030010E020F0010304EB60041D4400F037
:103EE000010008E0044404E004EB400401E004EBBA
:103EF000800405440020002F12DD1B9BDDF864C008
:103F0000CDE90403CDE902C4CDE90069527C34480F
:103F10003B4650F82200C26854680A462946A0472A
:103F20000DB0BDE8F08F17990298084409902B490D
:103F3000401E00900A68B2F90A30834241DCB2F9AF
:103F40000E10029881423CDB4FF0000BD8460395DF
:103F50000B9434E0BBF1000F05D10B984FF0080B28
:103F600010F801AB0B900599ABEB090B3AFA01F095
:103F70000AFA09F101F0FF0A04D118490968097C1D
:103F8000890716D415490968C96B0A680C921B9AEF
:103F90000AB152F82000086016990398009B421855
:103FA000521E029900F076F90C490C980968C96B09
:103FB00008600399169808F1010808440390B84571
:103FC000C8DB0898401C089009980290199804448E
:103FD0000898B042A7DBA3E7A40200207C020020DF
:103FE00094020020F0B40C4612490968B1F90A3075
:103FF000A3421CDCB1F90E30A34218DBB1F9083042
:10400000834200DD1846B1F90C30934200DA1A46BB
:1040100082420CDB4B7C084951F823501346224660
:10402000E9688E6801462846B446F0BC6047F0BC9B
:10403000704700007C020020940200202DE9FF4F11
:1040400084B081468A460020039002900698A0EB37
:1040500009050798A0EB0A06CDF80490CDF800A05A
:10406000002D01DD012705E00DB9002702E04FF02A
:10407000FF376D42002E02DD4FF0010806E016B951
:104080004FF0000802E04FF0FF387642B54201DD04
:104090002C4600E034464FF0000B21E0009A91B22C
:1040A000019A90B200F056F80398284403900298C1
:1040B000304402900398A04205DD0398001B039052
:1040C0000198384401900298A04205DD0298001B37
:1040D00002900098404400900BF101001FFA80FB11
:1040E000601C8345DADD08B0BDE8F08F0A46174949
:1040F00030B40968B1F90A30934225DCB1F90E30C9
:10410000934221DBB1F9083083421DDCB1F90C3058
:10411000834219DB0B7C0E4CDB0709D0497C54F839
:104120002130D968CC690146A44630BC18466047A6
:10413000CB6B497C1B6854F82140E1688D690146CE
:104140002046AC4630BC604730BC70477C02002043
:104150009402002030B504460D462946204600F062
:1041600057FC00F075FE024800880249088030BD07
:10417000000000200000086070B504460D46164699
:104180004248808849F24131884205D03F488088C2
:1041900045F21031884214D13C49488900F04CFE68
:1041A000201200F03DFEE0B200F03AFE3749888967
:1041B00000F042FE281200F033FEE8B200F030FEBC
:1041C0005DE03248808845F21051884220D12F4965
:1041D000488900F031FE201200F022FE2B49498967
:1041E000491C88B200F028FEE0B200F019FE274911
:1041F000888900F021FE281200F012FE23498989E7
:10420000491C88B200F018FEE8B200F009FE36E062
:104210001E48808846F6040188421DD11B488079DB
:10422000012804D119480088401E001B84B2174998
:10423000488900F001FE201200F0F2FDE0B200F02B
:10424000EFFD1249888900F0F7FD281200F0E8FD23
:10425000E8B200F0E5FD12E00C488079012804D1B5
:104260000A480088401E001B84B20849488921463C
:1042700000F0F8FD05498889294600F0F3FD034860
:10428000008903490880881C068070BDB82800207A
:10429000FEFF076038B5134C2468B4F90850854216
:1042A00000DD2846B4F90C50954200DA2A468242D5
:1042B00017DBB4F90A508D4200DD2946B4F90E50DF
:1042C0009D4200DA2B468B420BDB0093647C064B4D
:1042D00053F82440E3681D6913460A460146204608
:1042E000A84738BD7C0200209402002008210BF072
:1042F00025BD000002480068806B00687047000020
:104300007C02002002480068C06B00687047000013
:104310007C020020024809210068407C0BF00EBDA1
:104320007C02002009210BF009BD70B500252C4648
:104330002046FDF73DFE00B16D1C641C022CF7DB2E
:10434000284670BD02480068407C00F003B80000B9
:104350007C02002010B5FDF72BFE002805D0C168B7
:10436000CA6ABDE810400221104710BDF8B51546D5
:104370000E460124FDF71CFE009058B1C0680421D0
:10438000426A68469047030004D02A4631460098A6
:10439000984700242046F8BD03210BF0CFBC042130
:1043A0000BF0CCBC01210BF0C9BC02210BF0C6BC48
:1043B000AFF300802DE9F041002809D0876837B1BC
:1043C0000D4E716819B10468B4F5807F02DD0020DC
:1043D000BDE8F0813068844200DD0446002507E036
:1043E00057F82500FFF734FC716841F825006D1C73
:1043F000A542F5DB7068EBE70C0300200449054A91
:104400000968497C52F82110096949680847000089
:104410007C020020940200207047000010B500F0DC
:104420001F01074A074BC0F34514C0F3C4201B5DAE
:10443000105C515C00EB032000EB014010BD00005C
:104440005C7401087C74010810B50A4C606860B99E
:1044500020688000FDF792FB606040B104F1080124
:10446000054808600846FFF759FA002010BD0120F2
:1044700010BD00000C0300209D0101082DE9F04152
:10448000FFF753FF0746002528E02846FDF790FD7B
:1044900018B32846FEF7F6FB80462846FFF726FFAE
:1044A000082817DC0F48104950F825000069884299
:1044B00010D02846FFF736FF0646002408E0E0B299
:1044C000FFF79CFF0246E1B2284600F02DFB641C7A
:1044D000B442F4DB4046FEF7D5FB6D1CBD42D4DB95
:1044E000BDE8F081940200204C77010810B5024627
:1044F000012000E050430B1EA1F10104E1B2F9D10B
:1045000010BD000008B5034800880090BDF8000009
:1045100008BD0000000008602DE9F04105460E4688
:1045200000240027A0464F480088A84203DD4D48DC
:104530004088B04202DC0020BDE8F08131462846C8
:1045400000F066FA4748808849F2413188420BD032
:104550004448808846F60401884205D04148808856
:1045600045F21031884203D12E2000F065FC0DE0A9
:104570003C48808845F21051884204D14FF43850AD
:1045800000F05AFC02E0222000F056FC35488088FA
:1045900049F22031884202D102200DF0A1FC3248BC
:1045A000008800B1002402200DF09AFC2E480488F7
:1045B0002C48808849F2413188420BD029488088B4
:1045C00045F21031884205D02648808845F21051C6
:1045D00088420AD102200DF083FC2348B0F8008005
:1045E000E7B24FF6FF7000EA07271E48808849F2BD
:1045F0002531884216D01B48808844F235518842C4
:1046000010D018488088091F88420BD01548808830
:104610004BF20551884205D0124880884CF2055172
:10462000884201D1204687E70E48808849F241310F
:1046300088420BD00B48808845F21031884205D063
:104640000848808845F21051884207D1E012C00224
:10465000B91240EA411040EAE8206DE72046FFF732
:10466000B3FA69E7B82800200000086001B5BDF87A
:10467000000000F0E1FB05200CF020FFFFF742FFF7
:1046800008BD0000F0B5054600240027A948807940
:1046900001281ED1A748808846F60401884218D018
:1046A000082D15D2DFE805F00406080A0C0E1012DA
:1046B00006250DE007250BE0042509E0052507E0A8
:1046C000012505E0002503E0032501E0022500BFE8
:1046D00000BF9848808849F24131884211D09548FE
:1046E000808846F6040188420BD09248808845F2C3
:1046F0001031884205D08F48808845F21051884299
:104700007ED1082D1CD2DFE805F00406090C0F123B
:10471000151800BF14E044F0800411E044F0400498
:104720000EE044F0C0040BE044F0200408E044F044
:10473000600405E044F0A00402E044F0E00400BF9F
:1047400000BF7C48808845F21051884202D14FF466
:10475000585700E036277748808845F21031884264
:1047600007D07448808845F21051884201D044F047
:1047700008047048808846F60401884201D144F05C
:1047800002042146384600F06DFB04F0200018B901
:104790006848807901280DD16648008865494988B4
:1047A000884214DA634806884088624908800846CF
:1047B00046800CE05F4800885E494988884206DDF3
:1047C0005C48068840885B4908800846468059480E
:1047D000808845F21051884254D15649488900F0EA
:1047E0002BFB002000F01CFB52494989491C88B270
:1047F00000F022FB002000F013FB4E49498900E045
:104800006FE0891C88B200F017FB4A490988491EED
:10481000C1F30F2000F004FB46494989C91C88B246
:1048200000F00AFB43490978491EC8B200F0F8FAC3
:104830004049888900F000FB002000F0F1FA3D4972
:104840008989491C88B200F0F7FA002000F0E8FAE4
:1048500038498989891C88B200F0EEFA35494988BF
:10486000491EC1F30F2000F0DBFA32498989C91CC7
:1048700088B200F0E1FA2F498978491EC8B200F0E9
:10488000CFFA55E02B49488900F0D6FA002000F015
:10489000C7FA002000F0C4FA26490988491EC1F36E
:1048A0000F2000F0BDFA23490978491EC8B200F074
:1048B000B7FA2049888900F0BFFA002000F0B0FA6A
:1048C000002000F0ADFA1B494988491EC1F30F20B2
:1048D00000F0A6FA17498978491EC8B200F0A0FA7C
:1048E00026E0082D1CD2DFE805F004070A0D0F12A0
:1048F000151844F0300413E044F0100410E044F0C4
:1049000020040DE000BF0BE044F0380408E044F060
:10491000280405E044F0180402E044F0080400BF55
:1049200000BF032744F480542146384600F09AFA29
:10493000F0BD0000B828002010B50E4C0E492068CC
:10494000407C51F8200050B1C1680968042903D0A7
:1049500000680028F8D102E008B1FDF704FB2068E8
:104960000021016600F108014161BDE8104000F03E
:104970002FB800007C020020940200200149096841
:104980004968084708030020044909680A7C52075F
:1049900001D5C96B00E0896B086070477C0200207C
:1049A0007CB5094C05462068417C084850F8210038
:1049B000C1680A6B6946904720686A4629460830F4
:1049C000FEF725FF7CBD00007C0200209402002041
:1049D0000448016804484A7C083150F82200C26843
:1049E000126B10477C0200209402002001490968E4
:1049F0000968084708030020044909680A7C52072F
:104A000001D5896B00E0C96B086070477C0200200B
:104A100030B504460D464048808849F2413188420D
:104A200005D03D48808845F21031884214D13A497A
:104A3000488900F001FA201200F0F2F9E0B200F02B
:104A4000EFF93549888900F0F7F9281200F0E8F904
:104A5000E8B200F0E5F95DE02F48808846F60401F1
:104A600088421DD12C488079012804D12A48008829
:104A7000401E001B84B22849488900F0DDF920124D
:104A800000F0CEF9E0B200F0CBF92349888900F0BC
:104A9000D3F9281200F0C4F9E8B200F0C1F939E006
:104AA0001D48808845F21051884220D11A49488912
:104AB00000F0C2F9201200F0B3F917494989491CE6
:104AC00088B200F0B9F9E0B200F0AAF91249888979
:104AD00000F0B2F9281200F0A3F90F498989491CA6
:104AE00088B200F0A9F9E8B200F09AF912E00A4899
:104AF0008079012804D108480088401E001B84B238
:104B000005494889214600F0ADF9034988892946BD
:104B100000F0A8F930BD0000B8280020014909685C
:104B20008968084708030020F8B515460E46012499
:104B3000FDF73EFA009058B1C0681021426A6846FD
:104B40009047030004D02A46314600989847002435
:104B50002046F8BDF8B515460E460124FDF728FAA3
:104B6000009058B1C0680321426A6846904703002C
:104B700004D02A4631460098984700242046F8BDC4
:104B8000F8B515460E460124FDF712FA009058B10B
:104B9000C0680B21426A68469047030004D02A4649
:104BA00031460098984700242046F8BDF8B51546D0
:104BB0000E460124FDF7FCF9009058B1C0680A21A7
:104BC000426A68469047030004D02A46314600985E
:104BD000984700242046F8BD2DE9F84F074688463F
:104BE00016461C46C3462046E31704EB5373DB10FE
:104BF00021464FEAE47C04EB5C7C4FEAEC0CA4EB2E
:104C0000CC0CBCF1000F02D04FF0010C01E04FF0D2
:104C1000000C6344224604EBD27C4FEA6C0C03FB8D
:104C20000CF3DBB20093A6F12000C6B2002556E0DB
:104C30000C2C07D106EB46002B4901EB800010F845
:104C4000059013E0102C05D1284800EB061010F851
:104C500005900BE0182C07D106EBC600244901EBA8
:104C6000800010F8059001E0BDE8F88F4FF0000AD1
:104C70002FE009F0800030B11E48028841463846D6
:104C8000FFF77AFA07E00A9828B91B4802884146DC
:104C90003846FFF771FA4FEA49604FEA106908F1A8
:104CA00001001FFA80F815480088B84200DCDBE7F5
:104CB000A8EB0B00A04208D1D846781C87B20F4859
:104CC0000088B84200DCCFE706E00AF1010000F0FE
:104CD000FF0ABAF1080FCCDB00BF681CC5B2009810
:104CE0008542A5DB00BFBFE7EE2C01086231010859
:104CF000523701080000002002000020B8280020E0
:104D00002DE9FF4F81B0074691461E460E9D4FF09C
:104D1000000A002439E0301B401EC1B20A20FFF710
:104D2000E5FBB9FBF0F00A21B0FBF1F201FB120840
:104D3000BAF1000F16D1701EA04213DDB8F1000FBA
:104D40000ED10020AB4605EBDB71491001FB04716D
:104D5000009088B22B4620220299FFF73DFF12E017
:104D60004FF0010A0020AB4605EBDB71491001FB57
:104D70000471009088B208F13001CAB22B46029942
:104D8000FFF72AFF00BF601CC4B2B442C3DB05B00A
:104D9000BDE8F08F2DE9F84704460D469046994648
:104DA000DDE9096704F0FF0A08EB04001FFA80F848
:104DB00009EB05001FFA80F916E0444502DB544672
:104DC000A81985B24D4500DB14E0002000903A7828
:104DD000334629462046FFF7FFFE304606EBD071EA
:104DE00004EB61018CB27F1C38787E2802DC3878B5
:104DF0002028E2DA00BFBDE8F887000010B5074CB4
:104E00002068006BFEF724FFFFF7F6FD2068406B7B
:104E1000FEF71EFFBDE81040FFF7B6BD7C02002084
:104E200001B5BDF800000090BDF800000149088000
:104E300008BD00000000086001B5BDF8000000904A
:104E4000BDF800000149088008BD0000FEFF0760B2
:104E5000024800890249088070470000B8280020F5
:104E6000FEFF076003B5BDF80000024A1080901CE9
:104E700001800CBDFEFF076008B500231A46654996
:104E80006548FDF711F86548808845F21051884261
:104E900039D16248428801880020FFF771FE5F48DF
:104EA000428801880020FFF781FE5C48807998B92C
:104EB00040F2B31000234FF4F072194600901846E8
:104EC000FDF790FF40F21F300023421C194600906E
:104ED0000120FDF787FF9BE00620FEF789F840F2EE
:104EE000B31000234FF4F072194600901846FDF7F6
:104EF00079FF40F21F300023421C19460090012028
:104F0000FDF770FF84E04548808845F21031884203
:104F100005D04248808846F6040188423BD13F488C
:104F2000428801880020FFF72BFE3C484288018818
:104F30000020FFF73BFE39488079A0B9E22040F617
:104F40005B734FF4A072002100900846FDF74AFF02
:104F5000C42040F6ED634FF4F07200210090012070
:104F6000FDF740FF54E00620FEF742F8E22040F64D
:104F70005B734FF4A072002100900846FDF732FFEA
:104F8000C42040F6ED634FF4F07200210090012040
:104F9000FDF728FF3CE02148428801880020FFF708
:104FA000EFFD1E48428801880020FFF7FFFD1B48E7
:104FB0008079B8B90120FEF71BF840F63F700090E9
:104FC000164802889B2300210846FDF70BFF40F698
:104FD0005F70009011484288BC2300210120FDF73A
:104FE00001FF15E00720FEF703F840F63F709B2312
:104FF000F022002100900846FDF7F4FE40F65F70B5
:10500000BC234FF4A072002100900120FDF7EAFEBE
:1050100008BD000038460108DC440108B82800201B
:1050200010B503461446012901D1002010BD4FF0F0
:10503000FF3200BF00BF1046F8E700002DE9FF4F28
:105040008DB01746674ADDF870901E9E2098126852
:105050001D4600248AB11D9B1F98CDE90293CDE91E
:105060000460DDE91A03CDE9000314682B463A46D3
:105070000D98A04711B0BDE8F08F0D9A01EB05081F
:1050800002EB070CDDE91A231A43A8F10108ACF181
:10509000010C012A06D0C9F108004FF0000B029163
:1050A00005909CE0504A1268B2F90A40631A002B3E
:1050B00006DDED1A002DDDDD21461D9C03FB046697
:1050C000B2F90E30A8EB0303002B02DDED1A002D20
:1050D000D0DDB2F90C30ACEB0303002B00DDFF1A7E
:1050E0000D9B1C1AB2F90830A3420DDDA3EB040C92
:1050F0000CEB0003181A20F007000444A7EB0C0780
:1051000006EBE30603F00700002FB3DD1F9BDDF87D
:1051100074C0CDE9040303968DE82012527C334815
:105120003B4650F82200C26855680A462146A84707
:10513000A0E71B990298084409902B49401E039050
:105140000A68B2F90A30834243DCB2F90E100298C1
:1051500081423EDB4FF0000A0D980B96D04600903E
:1051600035E000BFBAF1000F05D10B984FF0080AE7
:1051700010F8014B0B900599AAEB090A34FA01F0DB
:1051800004FA09F4E4B204D117490968097C8907D3
:1051900017D415490968C96B0A680C921F9A0AB19D
:1051A00052F82000086000991A980A180846DDE9AC
:1051B0000213521EFFF76EF80B490C980968C96B71
:1051C000086000991A9808F1010808440090B84551
:1051D000C8DB099802901D980BF1010B0644AB4502
:1051E000A7DB47E7A40200207C02002094020020F5
:1051F000002818D0410817D0810817D0C10817D04F
:10520000010917D0410917D0010A17D0410A17D058
:10521000010B15D0C10B13D0010C11D0810C11D092
:10522000000E11D0202070470120704702207047E7
:1052300003207047042070470520704708207047FE
:1052400010207047122070471820704700B50022C8
:10525000FFF7CEFF012804D0811E062903D80822BB
:105260000BE0012209E0A0F10901072901D8102271
:1052700003E011380F2800D82022104600BD00009E
:105280001CB50121084601F0A3FA2220009001205C
:105290008DF8040000208DF8060003208DF805002D
:1052A00001208DF8070069460348FCF7FDF922212B
:1052B0000148FCF764FA1CBD0000024000BFFEE795
:1052C0007047000070B5002100230F22C4781CB382
:1052D000174C246804F4E064C4F5E064C4F30721C7
:1052E000C1F10404E3B20A4144789C40E1B28478FD
:1052F000144021430C07210E0E4C057861550478AB
:1053000004F01F050124AC4005786D11AD0005F1D6
:10531000E025C5F8004109E0047804F01F050124E8
:10532000AC40054D0678761145F8264070BD00006A
:105330000CED00E000E400E080E100E00249014300
:10534000024A1160704700000000FA050CED00E011
:1053500010B500F013F800F0EFFE00F017FF00F0BA
:1053600037FF00F0BFFE00F07FFE00F0CBFF00F043
:105370006FFF00F095FF00F002F810BD7047704716
:1053800006480078012808D105480078FF2804D293
:1053900003480078401C024908707047E60000206E
:1053A000D900002010B500241A480078012830D117
:1053B000FAF78AFF04461848007820B116480078AA
:1053C000401E1549087014480078F8B91348007851
:1053D000E0B900F0F9FF12481249097850F82100AD
:1053E000114908600F4800781049097888420DD0AB
:1053F0000D480068806B401C0B49096888630C48A5
:105400000068401C0A490860FAF77EFF2046FAF758
:105410005FFF10BDE6000020D9000020DA00002068
:1054200068730120DC000020F4000020DB00002075
:10543000C000002070B5054600260F48007808B16E
:10544000002070BDFAF740FF06460C48046800686B
:1054500020B10A4800684068084908603046FAF7F9
:1054600037FF3CB10120207000202081656020467C
:1054700000F0ECFD2046E4E7D9000020C400002045
:1054800010B500240B480078012811D1FAF71CFF51
:1054900004460948007840B908480078FF2804D23B
:1054A00006480078401C054908702046FAF710FFAE
:1054B00010BD0000E6000020D9000020DA00002026
:1054C00010B5002413480078012821D1FAF7FCFE1A
:1054D000044611480078C0B10F480078401E0E49BC
:1054E00008700846007860B90C48007828B9204652
:1054F000FAF7EEFE00F02EFF0AE02046FAF7E8FE8B
:1055000006E02046FAF7E4FE02E02046FAF7E0FE65
:1055100010BD0000E6000020DA000020D9000020C5
:1055200070B5054600260F48007808B1002070BD10
:10553000FAF7CAFE06460C480468006820B10A481B
:1055400000684068084908603046FAF7C1FE3CB17F
:1055500003202070258100206060204600F076FD49
:105560002046E4E7D9000020C40000202DE9F041E6
:1055700005460E46144600272878032803D001204C
:105580002070BDE8F0813148007810B10220207011
:10559000F7E72F48007810B10D202070F1E7FAF7F7
:1055A00093FE0746288940B12889401E2881384645
:1055B000FAF78EFE00202070E3E72648006890F896
:1055C000300040F001002349096881F830000020D4
:1055D0002049096881F831001E480068C6622846E3
:1055E00000F0F6FC3846FAF773FE00F0B3FEFAF767
:1055F0006BFE07461748006890F8310020B101287B
:1056000009D0022806D102E0002020700BE00E2015
:10561000207008E000BF29460E48006800F0C2FC78
:105620000A20207000BF00BF00200A49096881F8E5
:1056300030000849096881F8310006490968C861E5
:105640003846FAF745FE00BF9BE70000D90000206E
:10565000DA000020EC00002070B504460025207818
:10566000032801D0012070BDFAF72EFE0546A07A6E
:1056700060B1002301221946204600F051FC284663
:10568000FAF726FE00F066FE0020ECE720894FF6D0
:10569000FF71884207D22089401C20812846FAF7F2
:1056A00017FE0020DFE72846FAF712FE3320DAE77C
:1056B00010B50B48007890B900F086FE09480078D4
:1056C0000949087009480749097850F82100084934
:1056D00008600846006807490860FAF7FCFD10BD3D
:1056E000E6000020DC000020DB00002068730120C1
:1056F000F4000020EC00002010B50024022000F08F
:105700002BFBFAF7E1FD044600200B490860204618
:10571000FAF7DEFD642000F01FFBFAF7D5FD044622
:1057200005480068054908600120054908702046C1
:10573000FAF7CEFD10BD0000E8000020D0000020E8
:10574000D8000020704700002DE9FE4F06460F46A6
:1057500090461C464FF00009FAF7B6FD81461F48F7
:10576000007828B14846FAF7B3FD3C20BDE8FE8F2B
:105770001B4850F8240060BB0120194941F824005F
:105780004846FAF7A5FD002342463946304600F068
:10579000B5F982460020009001900346024651462A
:1057A0000290204600F026FE054635B90D480078E7
:1057B00001280CD100F0CEFD09E0FAF785FD814605
:1057C0000020074941F824004846FAF781FD2846A1
:1057D000CCE74846FAF77CFD2820C7E7D90000202F
:1057E00068730120E60000202DE9F04F85B0814666
:1057F0008A4693461C46DDE90F78129D00200390EF
:10580000FAF762FD03902348007830B10398FAF765
:105810005FFD3C2005B0BDE8F08F1F4850F8240024
:1058200088BB01201C4941F824000398FAF750FD79
:105830002A464146384600F0F9FE2B465A46514664
:10584000484600F05BF904901198CDE9008002957C
:105850003A4620460E9B049900F0CCFD064636B928
:105860000E48007801280CD100F074FD09E0FAF729
:105870002BFD03900020084941F824000398FAF713
:1058800027FD3046C6E7FFE70398FAF721FD2820F9
:10589000C0E70000D900002068730120E600002066
:1058A000704700002DE9F041054600274748007881
:1058B00010B14020BDE8F0813F2D01D13E20F9E735
:1058C000FAF702FD0746FF2D03D14148006890F822
:1058D0003250404850F8254024B93846FAF7F8FCD1
:1058E0004320E7E7012C04D13846FAF7F1FC3D20CC
:1058F000E0E714F8340F3849085C61788843217870
:10590000354A505414F834091146085C30B994F8FB
:10591000361032480078884330490870E06918B181
:105920002046E16900F03EFB666A16B1304600F0A1
:10593000C7FB0020E06284F8300084F8310028487A
:105940000078FF2804D226480078401C24490870BB
:105950003846FAF7BDFC00F0E2FAFAF7B5FC074664
:105960001F48007820B11E480078401E1C4908706E
:10597000204600F041F81B480078401E1949087085
:105980000020144941F82500A06930B90020616960
:10599000886115496069086005E0D4E9050148613E
:1059A000D4E9051088611148006860610F480460FF
:1059B0000FA0E0643846FAF78BFC0E480078012807
:1059C00001D100F0C7FC002074E70000D9000020DE
:1059D000EC00002068730120DE000020DD000020C4
:1059E000DA000020E7000020F8000020F00000208E
:1059F0003F000000E6000020704770472DE9F041AD
:105A000006460F4614464FF000081548007818B1B6
:105A100012202070BDE8F081FAF756FC8046FF2E78
:105A200003D11048006890F832600F4850F82650B3
:105A30002DB94046FAF74CFC43202070EAE7012DCF
:105A400005D14046FAF744FC43202070E2E7EF64BA
:105A50004046FAF73DFC0020207000BFDAE7000066
:105A6000D9000020EC0000206873012070477047C7
:105A70002DE9F04707460D464FF0000A0020286048
:105A80006860FAF721FC8246FF2F03D119480068AD
:105A900090F83270184850F827402CB95046FAF761
:105AA00017FC4320BDE8F087012C04D15046FAF7DB
:105AB0000FFC4320F6E7207C00F0010020B950469F
:105AC000FAF706FC4520EDE70026D4F80C90D4F850
:105AD00008805046FAF7FCFB00E0761C58F8041BDF
