:020000040800F2
:10000000288F0120B102000889C100084597000827
:1000100085C10008AB0F0008A73A010800000000E6
:1000200000000000000000000000000011E70008D0
:1000300041150008000000004103000829E80008FD
:10004000CB020008CB020008CB020008CB0200085C
:10005000CB020008CB020008CB020008CB0200084C
:10006000CB020008CB020008CB020008CB0200083C
:10007000CB020008CB020008CB020008CB0200082C
:10008000CB020008CB020008CB020008CB0200081C
:10009000CB020008CB020008CB020008CB0200080C
:1000A000CB020008CB020008CB020008CB020008FC
:1000B000CB020008CB020008CB020008CB020008EC
:1000C000CB020008CB020008CB020008CB020008DC
:1000D000CB02000871380108CB020008CB020008EF
:1000E000CB020008CB020008CB020008CB020008BC
:1000F000CB020008CB020008CB020008CB020008AC
:10010000CB020008CB020008CB020008CB0200089B
:10011000CB020008CB020008CB020008CB0200088B
:10012000CB020008CB020008CB020008CB0200087B
:10013000CB020008CB020008CB020008CB0200086B
:10014000CB020008CB020008CB020008CB0200085B
:10015000CB020008CB020008CB020008CB0200084B
:10016000CB020008CB020008CB020008CB0200083B
:10017000CB020008CB020008CB020008CB0200082B
:10018000CB020008CB02000800F002F800F066F88D
:100190000AA090E8000C82448344AAF10107DA45E2
:1001A00001D100F05BF8AFF2090EBAE80F0013F0CE
:1001B000010F18BFFB1A43F001031847F8F10500BF
:1001C00018F205000A444FF0000C10F8013B13F040
:1001D000070408BF10F8014B1D1108BF10F8015BA0
:1001E000641E05D010F8016B641E01F8016BF9D193
:1001F00013F0080F1EBF10F8014BAD1C0C1B09D1EA
:100200006D1E58BF01F801CBFAD505E014F8016B5B
:1002100001F8016B6D1EF9D59142D6D370470000ED
:100220000023002400250026103A28BF78C1FBD8FF
:10023000520728BF30C148BF0B607047692900F0E2
:100240001181782900F04A81002070471FB526F0FF
:10025000DEFD00F084F91FBD10B510BD00F030FCCC
:100260001146FFF7F3FF25F053FD00F04EFC03B4F9
:10027000FFF7F2FF03BC25F035FC00000B49D1F875
:1002800000C04A685CF8043B1068184442F8040B4C
:100290008C4528BFA1F1DC0C8A4228BFA1F1DC0209
:1002A000C1F800C04A6020F000407047BC840120C3
:1002B0000948804709480047FEE7FEE7FEE7FEE7FA
:1002C000FEE7FEE7FEE7FEE7FEE7FEE70448054936
:1002D000054A064B7047000039E80008890100080C
:1002E00028850120288F01202887012028870120C8
:1002F000EFF3108072B6704780F310887047264C79
:100300004FF6FF7525604FF0000484F30988234CF5
:100310004FF001052570224C4FF08055256062B6E4
:10032000FEE730B41E4C4FF08055256030BC70475E
:1003300030B41B4C4FF08055256030BC704700BF77
:1003400072B6EFF3098050B11EF0100F08BF20ED18
:10035000108A203880E8F00F12490968086000B55B
:10036000114880475DF804EB104811490A78027083
:100370000C4810490A680260106890E8F00F2030BD
:100380001EF0100F08BFB0EC108A80F309884EF001
:10039000040E62B6704700BF22ED00E06607002041
:1003A00004ED00E06C0700201DCC00085B07002076
:1003B0005C07002074070020704700000FB4044958
:1003C00010B503AA029800F01FFB10BC5DF814FBE7
:1003D000640000200FB41CB5074B06AA7B44694695
:1003E0000090059800F0F7FA0020694600F006FB3F
:1003F0001CBC5DF814FB00001D0600002DE9F04157
:100400000E460446002020622046E168884730B34B
:10041000252805D0D4E901219047206A401CF2E745
:10042000E168204600278847050018D0A5F1410063
:10043000192802D820354FF4006732462946204655
:100440002760FFF7FBFE40B1012804D0F61D26F01F
:1004500007060836D8E7361DD6E72846DAE7206AC9
:10046000BDE8F0812DE9F0410646002410687529A9
:10047000314616A510D0AFF30080002802DA4042C2
:1004800013A507E031688A0701D512A502E04907E4
:1004900004D511A5012401E0AFF3008000210A2258
:1004A00006F1240709E0B0FBF2FCB0FBF2F302FB1B
:1004B0001C00303078541846491C0028F3D12346DC
:1004C0002A463046BDE8F04100F027BA000000009F
:1004D0002D0000002B0000002000000070B5044635
:1004E0000D4621461068AFF300802188090502D52A
:1004F0000F4A7A4402E00E4A7A440E32002104F197
:10050000240305E000F00F060009965D5E54491CC7
:100510000028F7D120780023000704D5702D02D0E1
:1005200009B1022311322046BDE8704000F0F5B950
:10053000A7E305000B4910B5A1F17C020A4CC2E902
:100540003712372106E000EB104342F82130074B09
:1005500000FB03400B1EA1F10101F4DC10BD0120E2
:10056000E8E700005C840120E119D666CD0D0100AA
:1005700040EA010310B59B070FD1042A0DD310C820
:1005800008C9121F9C42F8D020BA19BA884201D972
:10059000012010BD4FF0FF3010BD1AB1D30703D0BA
:1005A000521C07E0002010BD10F8013B11F8014B70
:1005B0001B1B07D110F8013B11F8014B1B1B01D18C
:1005C000921EF1D1184610BD40EA0103024630B533
:1005D0009B0710D14FF0013400E008C208C91D1B71
:1005E0009D4315EAC41FF8D013F0FF0102F8011B68
:1005F0000DD01B0AF8E711F8013B002B02F8013B74
:1006000005D011F8013B002B02F8013BF3D130BDBE
:1006100010B5431C02E010F8011B71B18107FAD13B
:100620004FF0013202C88C1A8C4314EAC211F9D07F
:10063000C01A0A0603D0C01E10BDC01A10BD0A049D
:1006400001D0801E10BD0902FCD0401E10BD421E0C
:1006500012F8013F002BFBD111F8013B002B02F8EF
:10066000013BF9D17047032A40F2308010F0030CAF
:1006700000F0158011F8013BBCF1020F624498BFF5
:1006800011F801CB00F8013B38BF11F8013BA2F192
:10069000040298BF00F801CB38BF00F8013B11F00D
:1006A000030300F06780083AC0F0088051F8043B6B
:1006B000083A51F804CBA0E80810F5E7121D5CBF1A
:1006C00051F8043B40F8043BAFF30080D20724BF4D
:1006D00011F8013B11F801CB48BF11F8012B24BFE1
:1006E00000F8013B00F801CB48BF00F8012B704730
:1006F000431A28BF9A427FF6B6AF032A104411442A
:1007000040F2268010F0030F1EBF11F8013D521E6B
:1007100000F8013D10F0030F7FF4F6AF11F0030372
:1007200000F09781083AC0F00B8051F8043D083A78
:1007300051F804CD40F8043D40F804CDFFF7F3BF75
:10074000121D5CBF51F8043D40F8043DAFF300803A
:10075000D20724BF11F8013D11F801CD48BF11F8AF
:10076000012C24BF00F8013D00F801CD48BF00F87E
:10077000012C704710B5203AC0F00B80B1E818503A
:10078000203AA0E81850B1E81850A0E81850BFF47B
:10079000F5AF5FEA027C24BFB1E81850A0E818501A
:1007A00044BF18C918C0BDE810405FEA827C24BF6E
:1007B00051F8043B40F8043B08BF7047D20728BFFC
:1007C00031F8023B48BF11F8012B28BF20F8023B4B
:1007D00048BF00F8012B704702F0FF0343EA0322F1
:1007E00042EA024200F002B84FF000020429C0F0D1
:1007F000128010F0030C00F01B80CCF1040CBCF153
:10080000020F18BF00F8012BA8BF20F8022BA1EBA4
:100810000C0100F00DB85FEAC17C24BF00F8012B89
:1008200000F8012B48BF00F8012B70474FF0000281
:1008300000B5134694469646203922BFA0E80C50D6
:10084000A0E80C50B1F12001BFF4F7AF090728BFB1
:10085000A0E80C5048BF0CC05DF804EB890028BF2D
:1008600040F8042B08BF704748BF20F8022B11F056
:10087000804F18BF00F8012B704700004FF0013C7B
:1008800050F8042B51F8043B9A4221D1A2EB0C03FF
:10089000934313EACC1317D150F8042B51F8043BBF
:1008A0009A4215D1A2EB0C03934313EACC130BD15C
:1008B00050F8042B51F8043B9A4209D1A2EB0C03E7
:1008C000934313EACC13DBD04FF00000704700BF16
:1008D000D01A01BAB1FA81F101F0180122FA01F03F
:1008E000CB40C1F12001DBB2C0B2C01A2CFA01F337
:1008F000D11A914311EAC311E6D17047704770478E
:100900007047704710B500F0CFF8006810BD10B503
:10091000044600F0C9F8046010BD2DE9F0470D460B
:1009200099469246044600F124080168880604D5D9
:10093000E06921F01001216000E00120A84201DD02
:10094000471B00E00027A1697A1902EB0900081A89
:10095000A0612078C00602D42046AFF300800026B4
:1009600008E0D4E901211AF806009047206A401CEB
:10097000761C20624E45F4DB2078C0060AD520465E
:10098000AFF3008006E0D4E9012130209047206ACF
:10099000401C2062381EA7F10107F4DC07E0D4E90F
:1009A000012118F805009047206A401C2062281E8B
:1009B000A5F10105F3DC2046AFF3008020780006A6
:1009C00002D50220BDE8F0870120FBE701694A1C3F
:1009D00002610878704700B58FB0CDE90131002180
:1009E000059105497944CDE9031011466846FFF7A2
:1009F00005FD0FB000BD0000E5FFFFFF0A6802F82B
:100A0000010B0A6070470000074B70B50D467B4430
:100A1000FFF7E1FF0446284600F04AF810B14FF016
:100A2000FF3070BD204670BDBB520200431A28BF84
:100A30009A427FF69FAE104410F0030F11441EBF80
:100A400011F8013D521E00F8013D10F0030F7FF434
:100A5000F6AF103AC0F00A8010B531E91850103ADC
:100A600020E91850BFF4F9AFBDE81040530724BF88
:100A700031E9081020E9081044BF51F8043D40F85E
:100A8000043D12F0030F08BF7047D20728BF31F8AA
:100A9000023D48BF11F8012C28BF20F8023D48BF95
:100AA00000F8012C7047000000487047C484012002
:100AB000007B00F08000704700487047C48401202C
:100AC0007546FFF7F9FFAE4605006946534620F02C
:100AD0000700854618B020B5FFF7F8FBBDE82040B9
:100AE0004FF000064FF000074FF000084FF0000BEA
:100AF00021F00701AC46ACE8C009ACE8C009ACE89D
:100B0000C009ACE8C0098D46704710B50446AFF384
:100B100000802046BDE81040FFF7A9BB002800DC9C
:100B20004042704738B5456804460146284613F0F0
:100B300061F900282AD02068304A0F2819D006DC35
:100B40000B2824D00C2810D00E2851D12FE01128CA
:100B500002D028284CD145E09268002A16D02146C0
:100B6000284601B0BDE8304010472146284652686B
:100B7000F7E7284604F08CF80090406E0468684659
:100B800004F0F0F8002C01D02846A04738BD2846D4
:100B900004F07EF80090683003F0CAFF009803214B
:100BA0006C3003F0D3FF684604F0DCF820E0E16825
:100BB000486809680D2902D0202913D105E00028D2
:100BC00010DD28461FF0A5FC06E0002804DD2846BD
:100BD000BDE838401FF09DBC2846BDE838400221E2
:100BE0001FF0ADBCE06818B90021284600F09AF962
:100BF0002046BDE8384013F0DBBC0000E4080020CC
:100C0000F0B5044685B08069B4F90850668A0027BB
:100C1000CDE90265CDE900170490B4F90C00B4F9F0
:100C20001060C118B4F90A00B4F90E5010443346EC
:100C30002A4600F007F80546616800F089F905B01A
:100C40002846F0BD2DE9F04F85B01F46DDE911B40F
:100C5000DDE90E5690468946824605F01FFC4C346D
:100C60001548CDE90204CDE900563B4642464946C7
:100C7000504613F0E3FB040018D004F009F81022EA
:100C80005946049013F004FB049830220B49343089
:100C9000FFF770FD094D04990C3D2868486604A8CB
:100CA00004F060F8286841682046884707F086F914
:100CB00005B02046BDE8F08F250B0008F0080020A5
:100CC000F0B5044680688B4989B051F820506068BF
:100CD00000287DD0052804D006287AD0122879D1A2
:100CE000AEE0E86900284FD095E80E008DE80F00CF
:100CF00004F110010FC907F0DDFD002655F82600AC
:100D000006F051FCA169E8690A1A21690144606989
:100D1000304405F0D1F8A169E8690A1A2169014453
:100D2000E069801B05F0C8F8E169E8690A1A6169A1
:100D300001442069304405F075F9E169E8690A1A4F
:100D400061690144A069801B05F06CF9761C022ED4
:100D5000D4DBA86806F027FCE069E9696669431AF4
:100D600020694218521E3144801C05F0DDF9E1690A
:100D7000E869A2690B1A61690144101A401C921EAD
:100D800005F0D2F9EE6913E05FF0000655F8260091
:100D900006F009FCE069831BA069821B6069811968
:100DA0002069304405F0FEF8761C022EEEDB0226A8
:100DB000D5E90301CDE900016169E0690844431008
:100DC000A069891C821B2069304405F00FF802E0FD
:100DD00089E012E08AE0D5E90501CDE90001E36987
:100DE00060690121184401EB6001A0699B1E821B10
:100DF0002069304404F0FAFF78E0206803F048FFEF
:100E00000490206815F012F840B1A06808B10020E5
:100E100008E00498006F28B1012003E00498406FB7
:100E200000B10220049901EB8000C56E04A803F014
:100E300099FF00231A462846216804F055FC55E026
:100E4000206803F025FF0490866EEEB3B0F95C7065
:100E5000A168D1B3032942D05FF0000100EB81010A
:100E6000406D0C6C06F0CEFB204606F09CFB05A8FE
:100E700005F01CFABDF81410A88B0144ADF814104D
:100E8000BDF81810081AADF81800BDF81600801C3F
:100E9000ADF81600BDF81A00801EADF81A000498CF
:100EA0005E30B0F90220B0F9001005A806F0F0F8A5
:100EB00004A803F057FF022006F02EFC304603F092
:100EC000E7FE3A4605A901E00BE006E0079004F0D2
:100ED00083FD07A803F046FF08E00121BEE70221D9
:100EE000BCE704A8F6E7206814F0FCFB09B000207A
:100EF000F0BD000010D60508044A034911600449FA
:100F00004A6A48621046704720090020E408002021
:100F1000F008002000294FF0100101D012F0F9BFB5
:100F200012F040BF4FF480720029114601D012F038
:100F3000F0BF12F037BF0000034802494160034987
:100F400081607047B31B0208E4080020A515020861
:100F50002DE9FF410E4605004FF0010421D005F0B8
:100F60009DFA284603F094FE0190876E01A8009731
:100F700003F0F8FE3146684607F0F8FF78B10098B4
:100F80000024B84208D0284603F082FE0190009960
:100F9000816601A803F0E6FE284614F085F807F004
:100FA0000DF804B02046BDE8F08100BFFEE7000068
:100FB0007CB5214C0546216831F8220F4A8D10443A
:100FC00008804888CA8D10444880284605F048F9B2
:100FD0002168498CADF800104618284607F062FEDB
:100FE0003044401EADF8040005F08AF92168898C70
:100FF000ADF802100844401EADF80600684614F033
:10100000A9FD04E0284601F011FA14F03BFD002888
:10101000F8D10A2D04D0BDF804002168401C488492
:10102000206830F8221F428D891A01804188C28DC4
:10103000891A41807CBD0000E007002031B52DED0C
:10104000068B82B00024002574480078401C734948
:101050000870084600780A2190FBF1F201FB1200AB
:1010600018B16E4800780A287EDA012208A900200B
:101070000CF0B2FA9DF8200000F01F00002873D099
:101080009DF8200000F01F0040F0C000644981F886
:101090002000002486E0624890F820000121A14051
:1010A000084000287CD05F4931F81400042201A9CF
:1010B0000CF092FA5A4890F8340000F00100D0B3D6
:1010C0009DF807109DF8062001EB022025F0D1FACB
:1010D00041EC190B9FED540B53EC102B25F030FB1A
:1010E00041EC180B25F098FA81B24D48163020F8E3
:1010F00014109DF805109DF8042001EB022025F046
:10110000B8FA41EC1A0B9FED4A0B53EC102B25F06B
:1011100017FB41EC190B9FED480B53EC102B25F0FE
:1011200043FC41EC180B25F077FA81B23C480C30B7
:1011300020F8141034E0FFE79DF807109DF8062012
:1011400001EB022025F095FA41EC190B9FED360BCF
:1011500053EC102B25F0F4FA41EC180B25F05CFA57
:1011600081B22F480C3000E02BE020F814109DF8DD
:1011700005109DF8042001EB022025F07AFA41ECDD
:10118000190B9FED2B0B53EC102B25F0D9FA41ECEA
:10119000180B25F041FA81B22148163020F81410BE
:1011A000601CC4B2052CFFF676AF01251C4880896F
:1011B00020B91B48C08A08B90020089000201749B0
:1011C00008709DF8200000F01F00D0B9144890F876
:1011D000200000F0800040B1114890F8200020F07D
:1011E00080000F4981F820000BE04FF6FF700C499A
:1011F0008881C882084690F8200000F0E00081F85D
:10120000200006480078F02802DD0A200349087013
:10121000284602B0BDEC068B38BD0000040000205B
:1012200008000020E28502087B14AE47E17AD43F33
:10123000D881734694F6D23F000000000000894038
:1012400010B5052024F0CAFC10BD000010B5002028
:101250000F4908600F48006820F440000D490860FD
:101260000846006840F480000860FFF7E9FF0020AE
:101270000949C1F8AC02FFF7E3FF01200449086007
:10128000FFF7DEFF00200549C1F8800210BD000015
:10129000808240420014024000804242008040426E
:1012A0001CB5012122200CF051FC012000908DF88A
:1012B000040003208DF8050000208DF806000120B1
:1012C0008DF807006946084801F054FC4FF40060AF
:1012D00000906946054801F04DFC01200449086072
:1012E0000449C1F8AC021CBD0004024000140240D5
:1012F000808240420080424210B500200F490860C1
:101300000F48006820F440000D4908600846006856
:1013100040F480000860FFF793FF01200949C1F8FD
:10132000AC02FFF78DFF012004490860FFF788FF3A
:1013300000200549C1F8800210BD000080824042B3
:1013400000140240008042420080404270B50546D1
:1013500000241448006820F4400012490860084640
:1013600000680860002612E000200F4908601E2077
:1013700024F034FC01200D49C1F880026006040EFF
:101380000B48006808B1601CC4B2701CC6B2082EBD
:10139000EADB15B9FFF7B0FF01E0FFF757FF204682
:1013A00070BD000000140240808240420080404234
:1013B0002C82424270B504461348006820F4400075
:1013C000114908600846006840F480000860002069
:1013D0000E490860FFF734FF002511E0E0090C49D1
:1013E00008606006040E01200A49C1F88002FFF778
:1013F00027FF002005490860FFF722FF681CC5B2DF
:10140000082DEBDB70BD00000014024080824042DA
:10141000AC8242420080404210B50F48006820F480
:1014200040000D4908600846006840F480000860EC
:1014300001200A4908600A49C1F88002142024F0FA
:10144000CDFB002005490860FFF7FAFE00200449A3
:10145000C1F8800210BD000000140240AC8242427C
:101460000080404210B50D48006820F440000B4950
:1014700008600846006840F48000086001200849C0
:101480000860142024F0AAFB00200649C1F8AC0231
:10149000FFF7D6FE01200449086010BD0014024089
:1014A0008082404200804242AC82424210B5002419
:1014B0001148006820F440000F49086008460068A1
:1014C000086001200D4908600D49C1F880020AE05A
:1014D000601CC4B2FA2C03DDFFF7C4FF012010BD6D
:1014E000012024F07BFB0548803800680028EFD1FC
:1014F0000449086000BFF2E700140240AC82424297
:1015000000804042808240420B480068018990F888
:10151000702011FB02F309490B80438913FB02F38E
:101520004B8083895B1C53435B1E8B80C089401CAE
:101530005043401EC8807047E0070020B4070020D9
:10154000704700002DE9FC5F15460746DFF89C80D8
:1015500028440190D8F800001C460E46C06E01EBEE
:1015600004094946426801989047781B0090D8F8D2
:1015700000004946C06E426800989047D8F80000C5
:1015800006EB050B07EB0409C06E59464268484656
:101590009047D8F80000A6EB050A5146C06E426895
:1015A00048469047002C1ED0D8F80000361B454610
:1015B000C06E314642680198904728683146C06E37
:1015C00042680098904728683C1B5946C06E4268A4
:1015D0002046904728685146C06E426802B02046B7
:1015E000BDE8F05F1047BDE8FC9F0000E007002069
:1015F0002DE9F04306460F46904600244546032059
:10160000A0EB48093CE07A1B91B2321990B208F085
:1016100079FB3A1B91B2721990B208F073FB3A1938
:1016200091B2721990B208F06DFB7A1991B2321929
:1016300090B208F067FB7A1991B2321B90B208F0B1
:1016400061FB3A1991B2721B90B208F05BFB7A1BF6
:1016500091B2321B90B208F055FB3A1B91B2721B4B
:1016600090B208F04FFB641CB9F1000F03DAA00040
:10167000801D814404E0601B80000A3081446D1E9F
:10168000AC42C0DDBDE8F0832DE9F0474568044673
:101690008EB00026284603F0FBFA00905C30B0F8CC
:1016A00020A0D0F80C90D0F82480C76A006800B160
:1016B0000668684603F056FB05E0796820468847CF
:1016C00000283DD13F68002FF7D12068142844D06E
:1016D00009DCA0F10B00072839D2DFE800F0BE39A1
:1016E00089B434B4110020287ED004DC17283ED001
:1016F0001E282CD14BE026283CD02A2827D110E0E8
:101700002846E66803F0C4FA0190717A39B9317A53
:10171000012904D130F87C1F41F48071018001A8B7
:101720008FE0284603F0B4FA0090E16811B1C0F8E8
:10173000841002E0D0F88400E060684603F012FBF9
:101740000EB0BDE8F087002E7DD02846B0477AE085
:10175000214628461FF098FFF2E705A9284600F029
:101760002AFCE0680699016007994160E8E7C4F83F
:101770000C90E5E7E0680228E2D10C95E0680D9056
:1017800027200A900AA9A06814F06AFDD8E7E0684B
:10179000012804D00021284600F03DFBD0E7404658
:1017A00013F0EFFC58B1404613F016FF404613F01B
:1017B000A7FB88B10121404612F0ABFB0CE0484684
:1017C00013F05EFF8046284603F062FA0090C0F8EE
:1017D0008080684603F0C6FA0121284600F01BFB12
:1017E000B8F1000FACD100E00EE00020E060A7E708
:1017F0005FEA0A7027D4E068C06820B3007A10B3AB
:10180000284613F0E9FE1EE0E668E6B12946706856
:1018100014F0F5FA20B10121284621F0FFFB12E077
:101820000021284621F0FAFB2946306814F0D6FA48
:1018300048B1284603F02CFA03903168C0F88010B4
:1018400003A803F08FFA2146284612F0D3FA0028A5
:101850008CD0204612F0ACFE72E7284603F018FA4E
:101860000090703003F064F96846EAE7F0B587B09D
:10187000B0F908400DF10C0C0C9E87694568ACE886
:10188000F000448A0025CDE900150294B0F90C104F
:10189000B0F91050B0F90E40B0F90A0019441044E4
:1018A0002B46224600F002F807B0F0BD2DE9F04FBC
:1018B0008BB09846DDE9155691468A468346149FBB
:1018C0001A9C04F0EBFD6034314845F48055CDE9B5
:1018D0000204CDE9007543464A465146584612F087
:1018E000ADFD04004DD003F0D3F9302204901799D8
:1018F00012F0CEFC0498282226493430FEF73AFF35
:10190000049819995C30234F816006840026466252
:101910000661083FC6627968016004A803F022FAF4
:1019200005A9204600F047FB1B4841F2827103964F
:101930000094CDE90110BDF91E00BDF91A10BDF9E2
:101940001C20431ABDF918005B1C121A521C12F01D
:1019500075FD06467868416820468847204603F0B2
:1019600097F90490866604A803F0FCF942F204009B
:10197000054202D1204612F0BBFE2046189900F025
:10198000C3FA06F01BFB0BB02046BDE8F08F000049
:1019900089160008B4090020752100082DE9F041DE
:1019A000044694B0006800F0B7F908B1D94D01E0E1
:1019B000D84D2C35606815281ED00CDC0B281FD0A4
:1019C00004DC00287ED005287DD12EE10E287BD0B6
:1019D0001228F9D141E1162806D0172808D0182876
:1019E00008D01C28F0D109E0E86914B0BDE8F08106
:1019F000286AFAE7686AF8E7A86AF6E76869F4E728
:101A000020680B901C200C90206803F041F9039093
:101A1000016D0BA88847064603A803F0A3F9022E20
:101A20000EDB95E807008DE80700D4E90402334691
:101A3000A16906F005FF20698719A069801B2BE0CA
:101A4000286805F0B0FD2169E8690A18521E60692E
:101A500004F032FAA269E869111A491C606904F0BD
:101A60002BFA676920697F1C394604F075FA3946FC
:101A7000A06904F071FA686805F095FD206939469F
:101A8000401C04F069FAA0693946401E04F064FA6B
:101A90002769A069BF1C801E8046286805F083FD69
:101AA00042463946606904F007FA686805F07BFD34
:101AB00060694246401C394604F0FEF9686A022813
:101AC0000FDD02E015E1AFE000E1A86805F06BFD75
:101AD00061696A6A881C8B1801465B1E424638465B
:101AE00027E0296AB14226DD6069022E074600F12F
:101AF000020801DB374401E007F10207206901DB3E
:101B0000304401E000F1020022693B460A44A2F1A0
:101B10000102414604F008FB022E02DBA069821B91
:101B200001E0A269921EA069E9693B46401A401C87
:101B3000414604F0F9FA022E02DB6069064401E036
:101B40006669B61CE76928687F1E05F02CFD3A46D9
:101B50003146206904F066FA3A463146A06904F03D
:101B600061FAE7696868BF1E05F01DFD20693A4605
:101B7000401C314604F056FAA0693A46401E3146F0
:101B800004F050FAE869022802DC286A022823DD02
:101B9000A86A022802DDE1690F1A01E0E769BF1EA9
:101BA000A86805F000FDE969022909DD20693B46C6
:101BB000421800F1020C521E3146604604F0B4FA9D
:101BC000286A022808DDA269E8693B46101A401C11
:101BD000921E314604F0A8FA286805F0E4FCD4E926
:101BE0000620216904F068F9686805F0DCFCA26948
:101BF0002169E069521E491C401E04F05DF9A86A83
:101C0000022811DD2669A169E469B61C271AA1F131
:101C100002087F1CA41EA86805F0C5FC23464246A6
:101C20003946304604F080FA72E0208A06B2ADF8F8
:101C30001460A08A01B2ADF81610208B02B2ADF884
:101C40001820A08B03B2ADF81A30D5E90304CDE912
:101C50000004304604F0CAF85AE0208A298B084470
:101C6000ADF81400A08AADF81600208B298B401A1D
:101C7000ADF81800A08BADF81A00206803F008F842
:101C80000390006FF0B1022005F046FD039991F832
:101C90007C00C0F3C00001EB8000006C05F083FC09
:101CA0000398406B05F0AEFC0398006F02F0F0FF64
:101CB00003990A90B1F95A2005A903F08DFE0AA8EC
:101CC00003F050F803A803F04DF821E0208AADF8A6
:101CD0001400A08AADF81600208BADF81800A08B78
:101CE000ADF81A00A86805F05EFC05A804F048FAF3
:101CF0000EE0206802F0CCFF039030F85A1F41F04C
:101D00000C01018003A803F02DF8206813F0EAFC11
:101D100000206AE6F009002038B505004FF0000405
:101D20000FD004F0BBFB284602F0B2FF009090F801
:101D30007C00000700D50124684603F013F806F084
:101D40003DF9204638BD0000022905D2034A52F869
:101D500021102C22FEF70EBD7047000020D605088A
:101D600030B504468BB0006802F092FF009090F806
:101D70007C10246A006FC1F3C00508B102F088FF2F
:101D80000690E068029020690390A088401EADF89C
:101D90001000E089ADF812002089401CADF8140055
:101DA000608AADF81600BDF80800401CADF80800C8
:101DB000BDF80A00401CADF80A00BDF80C00401E3A
:101DC000ADF80C000098406B05F01CFC009808AAC8
:101DD00002A9B0F95A30069806F08EF9009800EB87
:101DE0008500806B08F000FD009800EB8500006C1A
:101DF00008F032FD08AB02AA04A9069812F066F9B1
:101E0000684602F0AFFF069810B106A802F0AAFFDC
:101E10000BB0002030BD70B50D46040009D004F0B1
:101E20003DFB2946204621F0F9F8BDE8704006F058
:101E3000C5B870BD022803D2024A02EB800041609F
:101E400070470000B4090020014908607047000095
:101E5000B4090020074A0649054B1160064A083BB1
:101E6000D16958601B68C2E9063008467047000017
:101E7000E4090020B0090020B4090020024AB2F9A8
:101E80002610D08408467047B409002038B50C46A7
:101E9000054604F003FB55B1284602F0F9FE009018
:101EA0000466684602F05EFF284613F0FDF8BDE8C0
:101EB000384006F083B8000070B50D460146022D8B
:101EC0001ED2104C2C2254F82500FEF753FC54F877
:101ED00025100220CA69022A00DAC86154F82510C8
:101EE0000A6A022A00DA086254F825104A6A022AAD
:101EF00000DA486254F825108A6A022A00DA8862F9
:101F000070BD000020D605087CB50D4604001DD02C
:101F100004F0C4FA204602F0BBFE0090006F01906E
:101F2000684602F01FFF294601A807F01FF858B1C4
:101F3000204602F0ADFE009001990167684602F06C
:101F400011FF204613F0B0F806F038F87CBD38B524
:101F50000C46050013D004F0A1FA284602F098FEC2
:101F60000090B0F95A10A14204D0A0F85A40284677
:101F700013F09AF8684602F0F5FE06F01FF838BD37
:101F800038B50C46050015D004F088FA284602F052
:101F90007FFE0022CDF8000000EB8201521C0C6491
:101FA000022AF9D3684602F0DDFE284613F07CF8D9
:101FB00006F004F838BD2DE9F34F85B000270C4634
:101FC000B846059802F064FE0090C06D0121856856
:101FD00005982A68904782462A6803210598904709
:101FE00004902A6802210598904703902A680021EE
:101FF000059890470646009813F09EFD834600988A
:1020000013F0A1FD8146009890F83210890601D5A1
:10201000B0F9588000F036F805460098C06E10B14F
:1020200012F091FD074625806780A4F804A0049A69
:10203000ABEB020006EB0802401E2A4420813A4422
:10204000E280039BA9EB0302521E6281A4F80CA05C
:1020500020827019E681401E6082684602F082FE8E
:10206000B4F90C000190B4F91000029002AA01A981
:10207000059800F039F80198A0810298208207B0F5
:10208000BDE8F08F10B50146002091F8322092068D
:1020900007D5B1F95400002803D1486B04F0A1F929
:1020A000801C10BD70B58AB00C46054602F0F0FDEC
:1020B0000990C06D866809A802F054FE009534B1FD
:1020C000012C06D0022C0BD0032C04D10AE01820DE
:1020D00000E0162001907168684688470AB070BD1C
:1020E0001520F7E71720F5E72DE9FC4790468946CC
:1020F000044602F0CDFD0090C16D056868468E680B
:1021000002F030FE32680021204690470646204605
:1021100012F0C1FB2F1404462DB227E002F0B8FDE7
:102120000190B0F90010B0F90420B0F90230491B59
:10213000521BDB1BB34212D190F82800000607D5D2
:10214000D8F8000088420ADB491EC8F8001006E0F3
:10215000D9F80000904202DC521CC9F8002001A806
:1021600002F000FE204612F03BFC0446002CD5D1C4
:10217000BDE8FC872DE9F0430446406885B006467B
:1021800012F04CFC814602F083FD0090D0F8808074
:10219000876C456E684602F0E5FD2068172859D027
:1021A00008DC0E2837D00F280BD0142852D0152861
:1021B0003AD14FE01E2818D01F2827D0222833D12B
:1021C00046E06FF07040874204D0384608F00CFBC0
:1021D00003F00CF9002D12D0D4E902122068CDE9E9
:1021E0000106CDE9031201A822E0E068002806D02C
:1021F0005FEA080006D0B04504D013F0EDF905B051
:10220000BDE8F083304613F03BFA16E0214648461D
:1022100011F0F0FDF3E7E0684168002904DD006893
:102220000928EFD00A2805D0A5B12046C4F80490AB
:10223000A847E4E7304613F032FA0446484602F075
:1022400027FD0090C0F88040684602F08BFDD6E77D
:10225000E760D4E7204612F0ABF9D0E751B1820035
:10226000A2F1C042126842F001038200A2F1C04212
:10227000136009E08200A2F1C0421268034B1A40C9
:102280008300A3F1C0431A6070470000FEFF0F00F7
:10229000D0E901121143C268114302691143426936
:1022A000114382691143C2691143026A1143426AB0
:1022B0001143826A1143C26A1143026B11430268DF
:1022C0009200A2F1C0421160816808290BD1016817
:1022D0008900A1F1C041096841F04002016889000C
:1022E000A1F1C0410A60416B0968426B526841EA42
:1022F0000211426B926841EA0221426B928941EAE3
:102300000241426B128A41EA0251426B127D41EA5C
:102310000261426B926911430268521C9200A2F161
:10232000C0421160C16AB1F5804F1BD1816B096851
:10233000826B526841EA0211826B926841EA022183
:10234000826B128A41EA0251826B127D41EA02617C
:10235000826B9269114302689200A2F1C042C2F8F6
:10236000041107E06FF0704201688900A1F1C041DB
:10237000C1F80421704700002DE9F74F14468A4642
:1023800002FB04F002EBD47100EB61062649AAEBD4
:1023900004080AEB04090868406948B1B0F906204E
:1023A0004A4500DA9146B0F90200404500DD80461A
:1023B000012527468B4616E0AAEB0501414511DBB6
:1023C00049450FDC05FB05F007FB0702B24201DDC2
:1023D0007F1EF9E7DBF800300098DB6EC219C01BE6
:1023E0001B6898476D1CA542E6DB0025274616E0D2
:1023F0000AEB0501414511DB49450FDC05FB05F002
:1024000007FB0702B24201DD7F1EF9E7DBF800306F
:102410000098DB6EC219C01B1B6898476D1CA54253
:10242000E6DBBDE8FE8F0000E007002010B50446A3
:102430000A2812D00D2C14D004F030F80948006896
:10244000C0690168204688470748016809B12046ED
:102450008847BDE8104005F0B1BDBDE8104003F06D
:10246000E1B910BDE0070020080800202DE9F04385
:102470000446C56887B090468946002005F0B6F846
:10248000064625B1287910B146F0020001E026F099
:10249000020005F0ABF82069012558B1D4E9021219
:1024A0008DE82600039563882288046841464846E3
:1024B000A0471EE0124F134B214638681B68427C30
:1024C000E068984730B9E088012801D0002001E099
:1024D0003868806BA288E388A1680095CDE9041074
:1024E000CDE902320195638822884146484607F0CB
:1024F0004DFA07B03046BDE8F04305F077B800006C
:10250000E0070020D80700202DE9F04781468846E3
:1025100040F2C32050434FF47A7190FBF1F502FB77
:1025200002F002EBD27100EB61066D1C174600232E
:1025300041464846FFF706F8012413E004FB04F087
:1025400007FB0700B04206DD3B46224641464846AF
:10255000FEF7F8FF7F1E3B46224641464846FEF7FF
:10256000F1FF641CAC42E9DDBDE8F0871CB5002436
:10257000019401AC009400F0E7F81CBD2DE9FF4F79
:1025800083B0814606988A46A0EB0A08109E002078
:102590000090A2EB09043568934654EA080018D06D
:1025A0002046FEF7BBFA07464046FEF7B7FA8742D9
:1025B0000BDA2046444680464846D1468246584675
:1025C000DDF818B0069001200090002C07DD2046B1
:1025D00006E007B04846BDE8F04F00F03BB9604266
:1025E000A0420AD04846D9466442C8F10008834652
:1025F0004FF0FF37DDF818A000E001275148B8F18F
:10260000000F11D004EBD4714FEA610B01DACBF16A
:10261000000B4C480068807E88B3002F02DA3068D7
:102620002044306000257BE000990029016821D01A
:10263000897E11B10027804615E007B05A46494609
:102640005046BDE8F04F07F06FBB28466D1C20F0E8
:1026500041FF38B9D8F8000009EB0701C06E4268A5
:10266000504690477F1CA742EFDD6D1E356007B0D6
:10267000BDE8F08F8A7E1AB10027804617E019E086
:10268000C86E5A465146036807B04846BDE8F04F49
:10269000184728466D1C20F01DFF38B9D8F80010E7
:1026A00009EB0700C96E4A68514690477F1CA74254
:1026B000EFDDDAE700250FE008FB05B090FBF4F151
:1026C00001EB0A00009951B11E4A09EB050112689D
:1026D000D26E526890476D1CA542EDDDC7E71949DF
:1026E00009EB05030968C96E4A6801461846F1E717
:1026F00008FB05B090FBF4F101EB0A000190306893
:102700003844306020F0E6FE48B9009890B10D489A
:1027100009EB05010068C06E4268019890476D1C86
:10272000A542E5DD3068002F01DA20443060C01B8F
:1027300030609CE7034909EB05000968C96E4A68E7
:102740000199EBE7E00700202DE9FF470F464049DC
:102750001646804609680C981D460A7E012A1CD040
:10276000A8EB0600791B50EA01031CD0A2F1010975
:1027700022F090FE00F58060824606F01FFD00FB0F
:1027800009F4504606F01EFD00FB09F1002C0CDA9E
:10279000C4F50070801240420AE00090324639468B
:1027A0004046FFF7EBFEBDE8FF8704F50074A0127A
:1027B000002904DAC1F5007189124C4202E001F5EA
:1027C00000718C12002804DD411C01EBD17149100D
:1027D00003E000EBD0714910401E00EBD0704210B6
:1027E000002C04DD601C00EBD070401003E004EB13
:1027F000D4704010641E04EBD47308EB0104ADF8F0
:1028000000403C18ADF80240A8EB02045B10B21A7D
:10281000ADF80440ADF808203144FC1AEA1AADF8CE
:102820000C102844ADF80A20ADF80E000023ADF8D6
:1028300006401A460421684600F08CF839464046A6
:1028400019F01EFA2946304619F01AFAABE70000D3
:10285000E0070020064A13681A7E012A05D0521E9E
:1028600002EBD272521000F005B8DA6E52681047CF
:10287000E00700202DE9F05F0646884640F2C320BD
:1028800050434FF47A7190FBF1F702FB02F002EB38
:10289000D27100EB610B254914467F1C0968324454
:1028A000301BC96E0B684146984701253AE000BFCE
:1028B00005FB05F004FB040159451CDDBC4219DD94
:1028C0001A4B06EB050AA6EB05091B68AAF10102E3
:1028D00008EB0401DB6E09F101001B689847134BFC
:1028E000AAF10102A8EB04011B6809F10100DB6EEB
:1028F0001B689847641E0D4806EB040AA6EB040902
:10290000006808EB05015246C06E036848469847C8
:102910000648A8EB050152460068C06E03684846A9
:1029200098476D1CBD42C3DDBDE8F09FE007002065
:1029300070B514460E4605460119001B02F024F836
:10294000224631462846FFF717FDBDE8704001F0EA
:1029500041BF00002DE9FF4F40F6FF740F4666426D
:1029600083B09B46814600210BE000BF09EB81004C
:10297000B0F90200A04200DA0446B04200DD06468B
:10298000491CB942F2DB68480068406900280DD054
:10299000B0F906101A46A1EB0B01B14200DA0E465F
:1029A000B0F90200801AA04200DD0446B5E0DFF86D
:1029B0007CA100200546CAF8000089E0781E854207
:1029C00001DA6B1C00E0002309EB850C09EB8302A4
:1029D000BCF90200B2F90210A04245D1A14215D1C2
:1029E00039F92330059A39F9251003EB020C4E4AC8
:1029F00005981268084404EB0B01D26E6045136819
:102A000001DA62462BE00246604628E02846A446EA
:102A10004FF000087A1E0BE008B1401E00E0781E5F
:102A200009EB8003B3F90230634504D108F10108D2
:102A30009045F1DB2346A34249D0A3EB040239F9C8
:102A40002500A1EB040C059B92EA0C0209D4364A3E
:102A5000184404EB0B011268D26E136802469847C3
:102A600035E013F027FE32E0A14230D001DBA04276
:102A700003DDA0422BDBA14229DCE04688420ADCD0
:102A80000346A04223DC0846A14220DBB8F900C07F
:102A9000B2F9001008E00B46A14218DCA04216DB98
:102AA000B2F900C0B8F90010E21AA1EB0C015143D1
:102AB0000029A0EB030202DD01EB620102E0A1EBC1
:102AC0006201491CC01A91FBF0F06044C9E76D1C1B
:102AD000BD42FFF673AF0598009004EB0B00019028
:102AE00000208046054613E01149B8F1000F31F986
:102AF00015A009D0009901EB0A0208440A490968A7
:102B0000C96E0B680199984788F0010850466D1C02
:102B1000064909688D42E7DB641CB4427FF747AF82
:102B200007B0BDE8F08F0000E00700204C0D00204A
:102B30000483012010B5002004F01EFD6FF07F40DB
:102B400004F031FD012004F0C9FD002004F0D4FDA3
:102B5000002004F0E1FD002004F048FD0448006876
:102B600004F050FDBDE81040002004F089BD0000D5
:102B7000DC070020F0B50A4600210023002400BF36
:102B80003DE0012505FA01F3156805EA03049C42BE
:102B900034D105684F000326BE40B5430560157962
:102BA0004E00B5400668354305601579012D02D009
:102BB0001579022D16D185684F000326BE40B54316
:102BC000856055794E00B540866835438560456817
:102BD00001268E40B5434560456896798E40B6B271
:102BE00035434560C5684F000326BE40B543C56008
:102BF000D5794E00B540C6683543C560491C1029DB
:102C0000BFD3F0BDF0B5002300244D07ED0E02FA4E
:102C100005F3CE1000F1200555F826504E07F70EAB
:102C20000F26BE40B543CF1000F1200646F82750CE
:102C3000CE1000F1200555F8265045EA0304CE10C9
:102C400000F1200545F82640F0BD0183704733B5FB
:102C500083B004001BD003F021FC204602F018F8DA
:102C60000190456E01A802F07DF8049802F010F87A
:102C700000908460684602F075F8042204A9284692
:102C800002F094F8204612F00FFA05F097F905B01B
:102C900030BD33B583B004001BD003F0FFFB2046EA
:102CA00001F0F6FF0090856E684602F05BF804982C
:102CB00001F0EEFF0190846001A802F053F80422B5
:102CC00004A9284602F072F8204612F0EDF905F04A
:102CD00075F905B030BD2DE9F04104460025D4E971
:102CE0000007B0F5407F00D101252146384611F09C
:102CF00081F8064615B138461DF040FA002E2FD057
:102D00002068052806D00B280ED00F2806D02628CC
:102D100021D10EE038461DF031FA1CE03846E1685A
:102D2000BDE8F0411DF011BF3846BDE8F0411DF08F
:102D300023BCE06805280ED1384611F0A9FEA16831
:102D4000884205D0384611F093FEA168884202D12E
:102D500060681EF049FC2046BDE8F04111F028BC37
:102D6000BDE8F081F0B585B00DF1280CBCE8F000AD
:102D70004FF0000C8DE8F01000F002F805B0F0BD47
:102D80002DE9F04F85B09846DDE90E5691468A460A
:102D90008346109F129C03F081FB6C341748CDE9E9
:102DA0000204CDE9005643464A465146584611F0C2
:102DB00045FB04001BD002F036F8054602F033F85C
:102DC0000646204601F064FF0490C0E9195600222F
:102DD000119911F05DFA0498302209493430FDF759
:102DE000C9FC0498A0F8787004A801F0BBFF05F0B6
:102DF000E5F805B02046BDE8F08F0000D72C0008AC
:102E0000480A002013B582B0044603F047FB204671
:102E100001F03EFF009060B1406A01F039FF0146C9
:102E20000190022303AA009800F0C8F901A801F05C
:102E300099FF684601F096FF05F0C0F81FBD00003D
:102E40002DE9F04385B01D4690460F46814603F0BC
:102E500025FB2C2001F023FE060024D0780001F091
:102E60001EFE04000ED0B8F1000F0BD055B1204665
:102E700001F00EFF6A0041460090FDF7F4FB684642
:102E800001F070FF304601F003FF0A49029000F1A3
:102E90000C024462A2E8A2020749016007494160AE
:102EA00002A801F05FFF05F089F805B03046BDE8E3
:102EB000F083000039FB0108F50C0208090602083E
:102EC00010B5044603F0EAFA20461DF09DFBBDE86C
:102ED000104005F073B82DE9FC47894607002BD058
:102EE00003F0DCFA384601F0D3FE0190466E01A8EB
:102EF00001F038FF304601F0EEFF0546002414E0F3
:102F00002146304601F0F3FF70B101F0C1FE0090A0
:102F1000D0F80080684601F025FFC84504D121465D
:102F2000304601F0ABFF02E0641CAC42E8DB3846FF
:102F300012F0BAF805F042F8BDE8FC872DE9FC472D
:102F4000894607002BD003F0A9FA384601F0A0FE0D
:102F50000090866E684601F005FF304601F0BBFF29
:102F60000546002414E02146304601F0C0FF70B150
:102F700001F08EFE0190D0F8008001A801F0F2FE71
:102F8000C84504D12146304601F078FF02E0641CB8
:102F9000AC42E8DB384612F087F805F00FF8BDE8E0
:102FA000FC8700002DE9F843984615460E46074673
:102FB00003F074FA302001F072FD040015D001F026
:102FC00067FE0090C0E9057685840A4AB7EE000ADC
:102FD000C0F81C8080ED0A0AD2E90012C0E9031291
:102FE00005490160684601F0BDFE04F0E7FF204698
:102FF000BDE8F883780A0020CD0D020801F06EBD0F
:10300000F8B50D4606004FF0000411D003F046FA63
:10301000304601F03DFE0090046AAC4203D00562E8
:10302000806812F041F8684601F09CFE04F0C6FF8B
:103030002046F8BDF8B50D4606004FF0000411D04B
:1030400003F02CFA304601F023FE00904469AC42B4
:1030500003D04561806812F027F8684601F082FECF
:1030600004F0ACFF2046F8BD2DE9F8431D46DDF81D
:10307000208016460F46040015D003F00FFA2046B4
:1030800001F006FE0090C0F860804765C0E9166553
:10309000684601F067FE20461DF070F8204612F0E9
:1030A00003F804F08BFFBDE8F883F8B515460E462B
:1030B00007004FF0000415D003F0F0F9384601F096
:1030C000E7FD0090042D08D200EB8500446BB4426C
:1030D00003D04663384611F0E7FF684601F042FE30
:1030E00004F06CFF2046F8BDF8B50D4606004FF021
:1030F000000411D003F0D2F9304601F0C9FD009070
:10310000446CAC4203D04564304611F0CDFF6846B4
:1031100001F028FE04F052FF2046F8BDF8B50D4638
:1031200006004FF0000411D003F0B8F9304601F06A
:10313000AFFD0090846CAC4203D08564304611F042
:10314000B3FF684601F00EFE04F038FF2046F8BDDC
:10315000F8B50D4606004FF0000411D003F09EF9BB
:10316000304601F095FD0090046DAC4203D005653A
:10317000304600F055F8684601F0F4FD04F01EFFFB
:103180002046F8BDF8B50D4606004FF0000413D0F8
:1031900003F084F9304601F07BFD009090F86C401C
:1031A000AC4204D080F86C50304611F07DFF684688
:1031B00001F0D8FD04F002FF2046F8BD2DE9F041F2
:1031C000044680681D4617460E46002826D0D4E9DE
:1031D000040290420ED1521E6A4371193046FDF727
:1031E00087FA20692A46401E05FB00603946FDF734
:1031F0007FFA0EE005FB0013401C20612A46394689
:103200001846FDF775FAE16819B12046BDE8F041AE
:103210000847A068BDE8F04100F002B8BDE8F081C1
:1032200010B58AB0044601F033FD09A904AACDE91E
:10323000002105AB089006AA07A91BF026FC08A8E8
:1032400001F090FD02A9204611F078FBBDF80800BE
:1032500007990844ADF80800BDF80A00069908442B
:10326000ADF80A00BDF80C000599401AADF80C0045
:10327000BDF80E000499401AADF80E0002A92046D0
:1032800011F0D2FE0AB010BD70B50246002300E076
:103290005B1CD55C002DFBD10124012003E004EB75
:1032A00084056C00401CB1FBF4F50A2DF7D2002513
:1032B000D61835540DE00A25B1FBF5F605FB1615B9
:1032C0003035D618064406F8015C0A25B1FBF5F145
:1032D000401E0028EFD170BD10B50246002000232B
:1032E00000E0401C145C002CFBD103E0CC5C1454C7
:1032F000401C5B1CCC5C002CF8D1145410BD0000A9
:1033000010B50AA116A000F003FD012000F0E0FABC
:10331000012002F0AFFE044618F0C4FE4FF47A60BC
:1033200000F008FF204602F0A5FE10BD4F75747036
:10333000757420616E7469616C6961736564207471
:103340006578740A6F6E20646966666572656E746E
:10335000206261636B67726F756E64732E0000008C
:10336000416E7469616C6961736564205465787439
:10337000000000002DE9F04100262AA133A000F052
:10338000C7FC06F065FE044606F06EFE0546A5F194
:10339000C400032190FBF1F03149086031480088F6
:1033A000401D31490988611AB0EB610F06DB2D48D9
:1033B0004088401D2A490968884200DA01262BA06E
:1033C00002F0D5FF28490988611AB0EB610F07DBCD
:1033D0002348006862304100A5F12800814202DAEA
:1033E000012026490860264804F00CF9074602F03F
:1033F00079FF401C1A490968884202DA01202149F4
:103400000860384604F0FEF8304617F0F5FB01F08E
:10341000D9F9032001F0C4FA13F00AFB01F0CAF94C
:10342000BDE8F0814578616D706C657320666F72E0
:10343000207468650A6175746F6D6F7469766520B4
:10344000696E647573747269650000004175746F0C
:103450006D6F746976652073616D706C65730000C3
:1034600004010020E0140408D0C002086D736563F5
:103470002F706963747572653A0A000008010020B4
:10348000100703080C01002010B508A115A000F0DA
:103490003FFC00F035FC002000F01AFA13F0FEFBB0
:1034A0004FF47A6000F046FE10BD000053686F775D
:1034B000696E670A646966666572656E7420626922
:1034C000746D61707320776974680A616E64207727
:1034D0006974686F757420636F6D7072657373695A
:1034E0006F6E00004269746D6170730010B502E088
:1034F0000A2002F031F9074800680128F8D0064890
:103500000068012804D1002003490860012010BD93
:103510000020FCE7CC000020D00000202DE9F04F77
:1035200099B0502105A8FDF781F906F091FD82467A
:1035300006F09AFD03908E498EA000F0E9FB012071
:1035400000F0C6F96FF07F4004F02DF88C4804F0CD
:1035500059F84FEA6A010C228AA002F023FA8C483B
:1035600004F050F82B2201218AA002F007FA3F2232
:10357000012189A002F002FA5322012188A002F061
:10358000FDF96222012188A002F0F8F971220121DF
:1035900087A002F0F3F98522012187A002F0EEF95D
:1035A0009922012186A002F0E9F9874804F02AF85F
:1035B00006F09EFC049005A80499FFF765FE83A120
:1035C00005A8FFF789FE092006F0AEFC8146B9F197
:1035D000000F0BD07FA105A8FFF77EFE494605A886
:1035E000FFF752FE7CA105A8FFF776FE0398A0F135
:1035F00019020C2105A802F0C1F900F07FF9074675
:10360000A6E000F07BF9C01B4FF4FA6190FBF1F2E9
:1036100001FB1206481096FBF0F808EB4800C0EBDF
:10362000C810A6EBC006B6F5FA7F00DD90E0C6EB49
:1036300006204FF4FA7190FBF1F0C8EB082180EA04
:10364000010B0BEB0B2000EB0B446FF07F40051BD5
:10365000FF20342352462B21CDE900043C2002F008
:1036600089FBFF203E2352463521CDE900053C2051
:1036700002F080FB4FF47F40482352463F21CDE9C2
:1036800000043C2002F076FB4FF47F405223524668
:103690004921CDE900053C2002F06CFB4FF47F008E
:1036A0005C2352465321CDE900043C2002F062FB2A
:1036B0004FF47F00662352465D21CDE900053C2092
:1036C00002F058FB4648702352466721CDE90004BA
:1036D0003C2002F04FFB4FF6FF707A2352467121D7
:1036E000CDE900053C2002F045FB4FF6FF70842336
:1036F00052467B21CDE900043C2002F03BFB3948D7
:103700008E2352468521CDE900053C2002F032FB94
:103710003448982352468F21CDE900043C2002F022
:1037200029FB4FF0FF10A22352469921CDE9000555
:103730003C2002F01FFB4FF0FF10AC235246A321A8
:10374000CDE900043C2002F015FB02F0D3FC00BFE1
:1037500000F0D4F8C01B41F27071884204DAFFF720
:10376000C5FE00283FF44DAF19B0BDE8F08F000052
:1037700070E90508436F6C6F72206261720000008F
:1037800010070308436F6C6F722062617273000050
:10379000F0AA050852656400477265656E00000076
:1037A000426C7565000000004772657900000000FA
:1037B00059656C6C6F7700004379616E0000000002
:1037C0004D6167656E7461009088050820627070B5
:1037D000000000002C20000020636F6C6F727300EB
:1037E0008080800000FFFF00034901600C214160E0
:1037F00005210181704700003401002010B50CA1A3
:1038000014A000F085FA012000F062F801F0BEFC7F
:1038100014F00EFC4FF47A6000F08CFC01F09EFD79
:103820000021084601F056FD0C4801F0E3FC10BDF4
:103830005354656D57696E20737570706F72747331
:103840000A736F66747761726520637572736F7245
:1038500000000000437572736F720000087A05085B
:103860002DE9F04104464FF404711848006811F046
:1038700001F88046642C01DD20F0BCFB00214046AD
:103880000AF053F82246002140460AF01BF802F0E5
:1038900078FD064600BF00F031F8871B642C03DD7D
:1038A000394640460AF041F8052001F055FFFFF780
:1038B0001DFE0546A74201D2002DECD0642C01DD8F
:1038C0001BF056FD02F016FCBDE8F081B0000020B0
:1038D00010B50446204602490968884710BD00001B
:1038E000B8000020014604480089084008B10120C2
:1038F00070470020FCE700002076012010B5064844
:10390000006810B10548006810BD02F03AFD044996
:103910000968401AF8E70000CC000020C800002029
:10392000C400002010B505A111A000F0F1F900F0CD
:10393000E7F91BF07FFB00F0ABF910BD4F70746925
:103940006D697A65642064726177696E6720726F51
:103950007574696E650A666F722064726177696E4C
:103960006720677261706820646174610000000004
:1039700044726177696E67206120677261706800C8
:1039800010B50548006811F0CBFA10F05DFF044651
:1039900011F05AFF10BD0000B4000020F0B589B04E
:1039A00020223A4901A8FCF7E5FE06F051FB054646
:1039B00006F05AFB04466E100020FFF789FF022034
:1039C00003F0AAFE6FF07F4003F0EDFD304803F0F6
:1039D00019FE44F3191231462EA001F0E3FF2F48DF
:1039E00003F010FE04EB440000EBC40082113146EA
:1039F0002BA001F0D7FF384803F0D5FD1620604317
:103A00008211314635A001F0CDFF404803F0FAFDA8
:103A100016206043122101EBA01231463CA001F0B8
:103A2000C1FF6FF07F4003F0BEFD1C4803F0EAFDCC
:103A300002F0AAFC0746394601A8FCF708FEC4EBD1
:103A400044108211314601A801F0ACFF26206043EA
:103A5000821137480088281A4110364802F06EF863
:103A60006FF07F4003F09FFD094803F0CBFDC4EBEE
:103A7000C40040F3D90231462FA001F093FF41F278
:103A80008830FFF7EDFE09B0F0BD000090D40208C9
:103A9000100703085354656D57696E00F0AA0508B6
:103AA000556E6976657273616C20677261706869C2
:103AB0006320736F6674776172650A666F72206542
:103AC0006D626564646564206170706C69636174C3
:103AD000696F6E7300000000FF882200466F72203D
:103AE00053544D3332204D43552050726F647563EB
:103AF0007473202D20436F72746578204D33202D10
:103B000020436F72746578204D340000788F05086B
:103B1000436F6D70696C6564204A756C2020352098
:103B2000323031382031363A31383A3532000000FF
:103B30009C47030884EE03087777772E73742E630F
:103B40006F6D2F73746D33320000000010B506A145
:103B500010A000F0DDF80120FFF7BAFE00F0D0F869
:103B600014F0D6F810BD000053686F777320736FA0
:103B70006D65206665617475726573206F660A7481
:103B80006865204C495354564557207769646765EA
:103B9000740000004C697374766965772064656D04
:103BA0006F0000008CB02C492C4803F095F810F001
:103BB0004BFE06462A4911F072FCFDF7BDF90021C3
:103BC00001A8FEF7C1F800200690002101A8FEF729
:103BD00073F9012101A8FEF7B7F800200690012132
:103BE00001A8FEF769F91F48FEF734F91E4809F0ED
:103BF00047FE1E48FDF780F91D480AF099FA1D4856
:103C00000AF066FC1C4805F003FD022003F084FD69
:103C10001A48FFF7E9FD06F06BF90546102D11DB98
:103C20000420FFF75FFE68B101F012F80446B4F516
:103C3000001F03DD12481349086006E012481149CD
:103C4000086002E011480F490860012000F02EF8DA
:103C500001E01CF011F9FCE7D40000207D560208B9
:103C600021550208ABCE0108FDD70008C10C0008A1
:103C700071DF000869E3000809950008207601203B
:103C8000A9AC0108B8000020BDAB0108E5AD0108F2
:103C900010B505480068401C0349086013F08AFC11
:103CA00000F0D2F910BD0000C000002008B10121D1
:103CB00000E00021014A117070470000D800002088
:103CC00010B50348006811F0A6FD02F013FA10BD0C
:103CD000B000002070B504460848006811F03FFAB3
:103CE00050B14FF4B0710548006810F0C3FD0546AF
:103CF000214628460AF09FFE70BD0000B400002057
:103D000010B50248006811F086FD10BDB400002017
:103D10002DE9F84F07460C4606F09AF9824606F060
:103D2000A3F983464FEA6A0000904FEA6B09FFF758
:103D300027FEFFF7C5FF02F0DDF90120FFF7C8FD00
:103D40006FF07F4003F02FFC022003F0E5FC1248E7
:103D500003F058FC3C223846009901F023FE0F483E
:103D600003F050FC02F0BEFA8046A9EB080000F117
:103D70000A022046009901F015FE002500E06D1CA6
:103D8000605D0028FBD105EB85000601304600F0A0
:103D9000D1F9BDE8F88F000010070308F0AA050864
:103DA0002DE9F04796B028216846FCF73FFD06F064
:103DB0004FF9054606F058F9044606F03DF98046ED
:103DC00001F0E4F9A0450DDD0020ADF82800ADF8C4
:103DD0002A0028B2ADF82C0020B2ADF82E000AA8B7
:103DE00003F0D5FB5EA16AA0FFF792FF002608E072
:103DF0006A4951F8260001F045FB0EA941F826005A
:103E0000761C082EF4DBFFF779FD0746002667E0F5
:103E100006F007010EAA52F8210003F0CFFBFCF7D1
:103E20002DFA90FBF5F105FB1100A94605EBD971C0
:103E3000A0EB610000B2ADF83000FCF71FFA90FB78
:103E4000F4F104FB1100A14604EBD971A0EB610071
:103E500000B2ADF83200FCF711FA90FBF5F105FB6A
:103E60001101BDF830001430084400B2ADF8340040
:103E7000FCF704FA90FBF4F104FB1101BDF83200E9
:103E80001430084400B2ADF83600BDF93630BDF943
:103E90003420BDF93210BDF9300002F045F9BDF90A
:103EA0003400A84203DB681E00B2ADF83400BDF94F
:103EB0003600A04203DB601E00B2ADF83600BDF94B
:103EC0003000002802DA0020ADF83000BDF93600DD
:103ED000002802DA0020ADF8360002F00BF9761C5B
:103EE000FFF70CFDC01B41F28831884203DAFFF76F
:103EF000FDFA00288CD0FFF7CBFE1AF02CFE82468C
:103F0000002003F044FB0020FFF7E2FC6FF07F404D
:103F100003F049FB022003F0FFFB214803F072FB92
:103F2000052211461F4801F009FE1FA16846FFF750
:103F3000D3F951466846FFF7A7F902F0E1F9201AD4
:103F40004FEA600969104A46684601F02BFD4FF4BC
:103F50007A60FFF785FC01F001FA16B0BDE8F08742
:103F60004D756C7469206C6179657220636C697041
:103F700070696E670A486967686C79206F70746948
:103F80006D697A65642064726976657273000000F9
:103F9000486967682073706565640000F41404085C
:103FA00010070308E0140408506978656C732F73D8
:103FB00065633A200000000010B504A10EA0FFF7D1
:103FC000A7FEFFF7DDFC20F05FFA10BD55736573A7
:103FD00020616C70686120626C656E64696E670A4E
:103FE000666F72207472616E73706172656E637950
:103FF00020656666656374005472616E73706172E9
:10400000656E74206469616C6F67000010B50949C2
:1040100009A0FFF77DFEFFF773FE0020FFF758FCB5
:1040200001F0B4F813F0AEFE01F098F9FFF730FE9E
:1040300010BD000064F30508547265657669657704
:104040002064656D6F00000010B586B0142101A8D2
:10405000FCF7ECFB4FF4B0711348006810F00AFC59
:10406000044612A101A8FFF737F912480168491C5C
:1040700001A8FFF709F910A101A8FFF72DF90F48D2
:10408000016801A8FFF700F90DA101A8FFF724F9C5
:104090000C484068411E01A8FFF7F6F801A9204628
:1040A0000AF0C9FC06B010BDB000002044656D6F79
:1040B00020000000BC0000202E000000C0000020F6
:1040C0002F0000002076012070B505F0CDFF0446DA
:1040D00005F0B2FF0546B5EB440F00DA70BD07A14D
:1040E00010A0FFF715FE0120FFF7F2FB13F0CEFE44
:1040F0000021084603F0D2FA00BFEFE744656D6F78
:104100006E7374726174657320686F7720746F20AA
:104110007573650A7669727475616C207363726574
:10412000656E73005653637265656E2064656D6FCE
:104130000000000010B504462046FFF791FBFFF792
:10414000A7FD10BD2DE9F04FDFF828B191B04FF079
:10415000FF35DBF80030B3F922100691DE69B3F9C0
:104160002490F469A189814206D8E289824203D36E
:10417000471AD4F8008012E0D4E9018100296FD0F9
:104180000A8882426CD84D88854269D3801A82B2EF
:10419000486800EB8200B0F90070B0F90250781C5A
:1041A0005ED0307EA17C10FB01FA217CCDE90801B4
:1041B000B3F92A60304606F0E7FBC0B20E90DBF898
:1041C000000007FB0A81A37C826B0127CDE9041262
:1041D000CDE90273C069DDE90832C17E807ECDE998
:1041E00000014946069805F0D1FB681C18D046F03E
:1041F000020006F0C9FBDBF80000A37C05FB0A8186
:10420000826BCDE90273CDE90412C069DDE90832A1
:10421000C17E807ECDE900014946069805F0B6FBD7
:10422000DBF800005D46C069417E007E814214D902
:10423000022E12D086F0040006F0A6FB2868C069A2
:10424000027EC37E12FB0391437E857E099A069807
:104250004B4402FB050205F01FFE0E9806F094FB8E
:10426000DBF80000627C418C1144418411B0BDE850
:10427000F08F0000E007002004480068C069C069B2
:1042800009B1027C0A60407C70470000E007002012
:10429000022008807047C06982898A4202D8C28998
:1042A0008A4210D2806880B102888A420DD8438841
:1042B0008B420AD3406800EB8100A0EB8200B0F98A
:1042C0000000002801DB012070470020704700003B
:1042D000F0B52B4D044687B028682146B0F92A6016
:1042E000C069C06900F0E0F9002847D04168008843
:1042F000201A00EB400001EB80042078C01C8708E6
:10430000304606F041FB06461E48D0F800C0BCF11E
:10431000000F19D00021A068CDE90401022201207C
:1043200001A9009085C1286894F90320DCF8007089
:10433000B0F92410B0F92200114494F902206378F6
:1043400010442278B84711E0A068CDE900702868D1
:1043500094F903206378B0F92410B0F922001144D5
:1043600094F902201044227800F022FB304606F037
:104370000BFB28682279418C1144418407B0F0BDC1
:10438000E00700200C080020F0B52B4D044687B054
:1043900028682146B0F92A60C069C06900F084F934
:1043A000002847D041680088201A00EB400001EB4C
:1043B00080042078401C4708304606F0E5FA06469F
:1043C0001E48D0F800C0BCF1000F19D00021A06831
:1043D000CDE904010422012001A9009085C12868CB
:1043E00094F90320DCF80070B0F92410B0F9220031
:1043F000114494F90220637810442278B84711E000
:10440000A068CDE90070286894F903206378B0F9BA
:104410002410B0F92200114494F9022010442278AB
:1044200000F0EAFA304606F0AFFA28682279418CAB
:104430001144418407B0F0BDE00700200C080020C3
:104440002DE9F0432F4C034687B020681946B0F998
:104450002A80C069C06900F060F900284ED0416828
:104460000088181A01EBC0054046AE7806F08CFAB9
:10447000814620686A680123816BCDE90236CDE967
:104480000421C169CB7E8A7ECDE900230B7EB0F981
:1044900024102A78B0F9220005F078FA2068C06963
:1044A000477E067EB7421DD9C07E47434643B8F1DA
:1044B000020F17D001F0FFFE804601F0C5FE03F0A9
:1044C00072F821682A78CB69B1F92200DB7E12FBF1
:1044D0000302B1F92410CB19314405F0DDFC40464C
:1044E00003F061F8484606F04FFA20686A78C3691D
:1044F000B0F922109B7E12FB0311418407B0BDE886
:10450000F0830000E007002030B5104C05460B4654
:1045100020682946C069C06900F0C6F8002813D099
:10452000416800882468281A00EB40020420E469EE
:1045300000EB8200085CA47E10FB04F0002B03D08B
:1045400011F822106143196030BD0000E00700201F
:1045500003460D4810B500680C461946C069C0698D
:1045600000F0A2F870B141680088181A00EB400012
:1045700001EB8000D0E9001280682160C4E90120CD
:10458000002010BD012010BDE007002001200880A0
:10459000704700B5C06900F087F8002800D00120FE
:1045A00000BD00002DE9F35F0E46002501F083FEFB
:1045B000DFF8A8808346D8F8000090F82A0040076A
:1045C00002D501F078FE01E001F03EFE02F0EBFFC3
:1045D000D8F800000024C1694A7EC97E12FB01FAA6
:1045E000B0F92290B0F924701FE0684603F0ACFBEC
:1045F0000546D8F800002946C069C06900F054F8A3
:1046000098B141680088281A00EB400001EB800057
:1046100090F9021000790144D8F80000C069807E4A
:1046200011FB00F0002800DD0444761EDDD51DB12D
:10463000284604F037FB044407EB0A0309EB0402A5
:104640005B1E4846521E394605F026FC584602F0CD
:10465000AAFF034901200870BDE8FC9FE007002085
:104660004C0800202DE9F3410D4D0E4F0E462868F1
:10467000B0F92A40A0070AD17A680098904706E06E
:10468000684603F061FB2968C96909688847761E96
:10469000F6D50020387028684485BDE8FC8100000C
:1046A000E00700204C08002006E002888A4202D879
:1046B00042888A4202D280680028F6D17047000002
:1046C00030B50F4C05460B4620682946C069C069C5
:1046D00000F023F8002811D04168008824682A1AC5
:1046E0000120E46900EBC200085CA47E10FB04F02A
:1046F000002B03D011F832106143196030BD000067
:10470000E007002001200880704700B5C06900F074
:1047100004F8002800D0012000BD06E002888A428B
:1047200002D842888A4202D280680028F6D17047B7
:1047300070B500240E4D16E028690E4900EBC41038
:10474000001D78220968FCF715F82869002100EBA4
:10475000C410016000F10C018161011D0A1DC0E956
:104760000F12641C4164A8688442E5DB70BD000040
:10477000640D0020E007002070B50D490B4808606B
:10478000084604F0B3FB0A4C143CA068C501284657
:1047900000F0EAF92A460021206104F093FC4FF072
:1047A000FF302060BDE8704003F066BC6D07020872
:1047B000780D002002490020096881F871007047D7
:1047C000E007002002490120096881F87100704764
:1047D000E007002010B519F0FDF80448016A04480C
:1047E0000068C16600F10801416110BD8807002022
:1047F000E00700207CB514460D46064601F04EFE4B
:1048000011F060F9064411F06BF905441648006890
:1048100090F8711021B990F870104E434D434C43FD
:10482000301B00F05DF8ADF80000301900F058F8CA
:10483000ADF80400281B00F053F8ADF80200281969
:1048400000F04EF8ADF80600684611F083F906E076
:10485000224629463046FEF76BF811F013F900287E
:10486000F6D103F0ABFB7CBDE00700202DE9FC474F
:104870001C4615468846814601F010FE11F022F9CB
:10488000054411F02DF90444002011F063F9F8B14A
:10489000114E124F12213068407C57F820000190D1
:1048A000C068426A01A890475FEA000C06D02B4618
:1048B0004246494600940198E04705E023462A46CF
:1048C0004146484618F01CFB11F0DCF80028E1D105
:1048D00003F074FBBDE8FC87E0070020F807002028
:1048E0000449096891F8701009B190FBF1F000B229
:1048F00070470000E00700202DE9F0411E4C0546FE
:104900000E462068002768B905F093FBE06100F0CF
:104910002BF9206068B304F12401184808600846A8
:1049200004F0E4FA002D00DA0025E169731B4A1E49
:104930002046934201DD6E18761EAE4201DA2E4605
:1049400001270F4C2268D16E4B68836301620A49CC
:104950000C4B34310B60D16602C862C012F016FEF7
:10496000FCF7D2FD044821682C3048613846BDE888
:10497000F0810127D6E700008807002031060208F1
:10498000E0070020D9B90108044A126892F87020A3
:1049900090FBF2F091FBF2F1FFF7AEBFE0070020D1
:1049A0000249096881F87000FCF7AEBDE0070020FD
:1049B000FEB50E4EDDE908543668367C16F0030667
:1049C0000CD0012E03D0022E0DD0032E05D1084E9F
:1049D000CDE90054029616F00DFBFEBDCDE9005462
:1049E00016F0B6FAFEBD034EF2E70000E007002025
:1049F00049AA0008C1A90008FEB50E4EDDE9085419
:104A00003668367C16F003060CD0012E03D0022E39
:104A10000DD0032E05D1084ECDE90054029616F0B4
:104A200097FBFEBDCDE9005416F042FBFEBD034EE0
:104A3000F2E70000E007002049AA0008C1A9000829
:104A4000F8B50C0005460FD001F028FD204600F017
:104A500017F8060010D000F01BF9224600902DB187
:104A60002946FBF700FE04E00020F8BD002104F019
:104A700029FB684600F076F903F0A0FA3046F8BD4D
:104A800010B5040009D001F009FD204611F072FFB5
:104A9000044603F093FA204610BD002010BD38B53F
:104AA000054601F0FBFC2846FFF7EAFF040009D0A9
:104AB00000F0EEF82A460021009004F003FB68465F
:104AC00000F050F903F07AFA204638BD024A10602F
:104AD00021F00300506070477C81012010B5040074
:104AE00016D001F0DBFC0B48006B10F8341059B104
:104AF000022909D2042101EBC4014158486811F090
:104B00004BFE20461EF00EF9BDE8104003F056BAE9
:104B100010BD0000C0800120002805D0034A916B21
:104B2000016001B14860906370470000C0800120BF
:104B300010B5044601F0B2FC2068FFF7CFFF00205B
:104B40002060BDE8104003F039BA000070B50D4692
:104B50000646002405E000BF06EB8400FFF7E8FFEF
:104B6000641CAC42F8DB70BD2DE9F04104461AF03C
:104B7000EFFD2648E41C24F00305C16B2D1DA9425E
:104B800000D90D46846B13E054F8042CAA420ED1D0
:104B900084B1216809B162684A60616809B122681C
:104BA0000A60826BA2422ED1216881632BE02468C7
:104BB000002CE9D18046416B80680F1857F8040C2F
:104BC0003E1A306838B100201EF05EF957F8040C28
:104BD0003E1A3068B8B97068A84214DB3044441BF0
:104BE00030461EF009F9D8F80810491BC8F808101B
:104BF000D8F810102944C8F8101070683146401BCE
:104C000011F0CAFD20C42046BDE8F081C08001201B
:104C100010B500241AF09CFD0C490F2001EBC002D6
:104C2000126C1AB101EBC000006C08E0401EF5D513
:104C300008E04168A14200D90C46806810B1806844
:104C40000028F6D1A4F10C0010BD0000C0800120A6
:104C5000034800680C38002800DC00207047000082
:104C6000C0800120002138B10449042202EBC000B9
:104C7000096B085841680C3908467047C08001200C
:104C800002484169491C416170470000C080012011
:104C900005498A69521C8A61096B01EBC0010A78D7
:104CA000521C0A7000F076B8C08001207CB5064620
:104CB0000C460846FFF7E4FE050020D0FEB1304662
:104CC000FFF7D0FFA04200DA044601F0E7FB2846D8
:104CD000FFF7DEFF00903046FFF7DAFF0146019054
:104CE00022460098FBF7BFFC684600F03BF801A89D
:104CF00000F038F83046FFF7F1FE03F05FF9284680
:104D00007CBD000010B501F0C9FBFFF781FF6422F4
:104D10000849B0F5800F04D990FBF2F4C869444308
:104D200003E0C9694143B1FBF2F403F047F92046BF
:104D300010BD0000C08001200549102805D94A682F
:104D4000B0EB520F02D3500800E01020886070478B
:104D50007C81012002484169491E41617047000081
:104D6000C08001200A4902680B6B52F8082C03EB43
:104D7000C2021378022B03D38B690BB15B1E8B61CC
:104D80001178491E1170002101600846704700002B
:104D9000C0800120002806D00349042202EBC00095
:104DA000096B085808307047C08001202DE9FC418C
:104DB0004FF000060B465FEA000834462BD032B1B4
:104DC00011461846FFF73CFE060000D1012440467C
:104DD000FFF75EFF0090078845686846FFF7C2FF4F
:104DE000CCB9B900091D2846FFF760FF050015D0B2
:104DF000FFF74EFF019040F8276001A8FFF7B2FFD0
:104E00004046FFF745FF009045600188491C01803E
:104E10006846FFF7A7FF2046BDE8FC813046FFF754
:104E20005DFE0124F7E70820FFF739BE7CB50500D9
:104E300023D0FFF72DFF00904068C0B1FFF728FF97
:104E40000024019005E0019800EB8400FFF770FE5C
:104E5000641C00980088A042F5DC01A8FFF782FFDF
:104E60000098001DFFF764FE009900200880684646
:104E7000FFF778FF2846FFF731FE7CBD7CB50C4676
:104E8000FFF706FF00900188A14220D94568F5B1DF
:104E900001F004FB2846FFF7FBFE019000EB8400C5
:104EA000FFF746FE00990888401E80B20880401E29
:104EB000019905E001EB8402526841F82420641C4A
:104EC0008442F7DD01A8FFF74DFF03F077F868464D
:104ED000FFF748FF7CBD38B5002430B1FFF7D8FE9E
:104EE000009004886846FFF73DFF204638BD38B57E
:104EF0000D46002448B1FFF7CBFE2946009000F094
:104F0000B4F804466846FFF72DFF204638BD38B593
:104F10000D46002448B1FFF7BBFE2946009000F083
:104F2000B6F804466846FFF71DFF204638BD2DE958
:104F3000FE430C465FEA00083DD0FFF7A9FE009053
:104F4000068847686846FFF70DFFB44233D2B000C9
:104F5000001DFFF7A4FD05002DD0FFF799FE01907D
:104F60003846FFF795FE01460290A2000198FBF734
:104F700001FC301B8200029800EB8401019800EBD9
:104F80008400001DFBF7F6FB01A8FFF7EBFE02A86B
:104F9000FFF7E8FE3846FFF7A1FD4046FFF778FE31
:104FA000009045600188491C01806846FFF7DAFEE1
:104FB0000120BDE8FE830020FBE72DE9F041154606
:104FC0000E4607460024FFF7B2FF30B12B46002201
:104FD0003146384600F004F804462046BDE8F0812A
:104FE0002DE9FE43984691460D460024D0B3FFF7C5
:104FF0004FFE01900788466801A8FFF7B3FEBD4247
:1050000030D27EB33046FFF743FE009050F8254083
:105010006846FFF7A7FE24B12046FFF723FE404570
:1050200011D04046FFF73BFD04000CD03046FFF79F
:105030002FFE00EB850500902846FFF779FD6846B6
:105040002C60FFF78FFEB9F1000F0BD054B1204652
:10505000FFF71EFE424649460290FBF704FB02A8FA
:10506000FFF780FE2046BDE8FE8338B50D46018877
:105070000024A94209D9406838B1FFF709FE009021
:1050800050F825406846FFF76DFE204638BD10B544
:105090000024FFF7EAFF10B1FFF7FAFD04462046AF
:1050A00010BD70B50C46054601F03CFAC1B223466E
:1050B0002846BDE870400022AFF30080F0B52D27F0
:1050C0001C68B0F1004F08D0002500280DDA661CDE
:1050D0001E6027704042012408E0661C01251E6006
:1050E0006FF000402770491E01E00024091BC9B27F
:1050F0002AB3491EC9B222E00C46491EC9B29442E5
:1051000005D1124C27781C68661C1E602770104C55
:1051100054F8216090FBF6F4E4B20A2C11D804FB99
:10512000160011B90DB1641CE4B20A2C02D101249D
:10513000491CC9B21E683034771C1F6034700029C6
:10514000DAD1196800200870F0BD0000D4070020F3
:10515000ACD8050810B5002807DD0A682B24531CBD
:105160000B601470096800220A7010BD10B5044667
:1051700001F094F9044904EB840001EB80004479C8
:1051800002F01CFF204610BD00820120024800688A
:10519000407C00F003B80000E007002070B5054631
:1051A00001F07CF9124805EB850100EB8104002633
:1051B0006671236953B150F82100E2688168406844
:1051C000521AA168091A184602F0DDF8284601F0C3
:1051D0007FF818B1002102F045FA04E0207918B1F7
:1051E000206902F07EF82671BDE8704002F0E6BE4C
:1051F0000082012002490968497C00F003B80000E0
:10520000E00700202DE9FC5F8946044601F046F9DD
:10521000484601F05DF82C4E09EB8907824656F8A6
:105220002700019029484FF00108016841B927493A
:10523000C0F80080091D26480860084603F056FEA5
:10524000214A09EB89015FEA0A0002EB81051BD0C4
:1052500002F03EF983464FF07F4002F08DF900F0F6
:10526000C5F800221146206800F068FC20684288DA
:105270000188504602F0E6F946F8274085F8058097
:10528000584602F025F917E046F8274085F80580D2
:105290002869464618B101F0FFFF0020286174B16B
:1052A0000096E868A1684B46421AA8686168411AEE
:1052B000206802F09DF8286148461EF07BFD02F050
:1052C0007DFE0198BDE8FC9F0082012014080020AB
:1052D000A5060208024A1268527C00F003B80000DA
:1052E000E007002070B514460D46064601F0D6F8DA
:1052F000204600F0EDFF0300174804EB840109D0BD
:1053000050F8210041688068711A2A1A184602F084
:1053100089F91CE000EB8104A268B24201D00122AD
:1053200000E00022E368AB4201D0012300E000234B
:105330001A430CD0236943B150F8210081684068BA
:105340006A1A311A184602F01EF8C4E90265BDE86F
:10535000704002F033BE0000008201200248006865
:10536000407C00F003B80000E007002010B50446C0
:1053700001F094F80A4804EB840100EB8103012258
:105380005A7150F8210030B120461EF013FDBDE8DF
:10539000104002F013BE21460248FFF733FFF6E744
:1053A00000820120087A050810B5C2B2CBB2D21A29
:1053B00002D5C2F1000212B293B2C0F30722C1F3C8
:1053C000072403FB03F3121B01D5524212B2000C57
:1053D00092B2A0EB114002FB023200B2002801DAC7
:1053E000404200B280B200FB002010BD10B5002189
:1053F000084601F00BF840F6FF725042BDE810403D
:1054000013460146AFF300802DE9FC411C461546CA
:105410000E46074601F042F8042005F0B5FA804632
:105420001248C068C16C006D0F4406440D4404442A
:10543000ADF80070ADF80450ADF80260ADF806406C
:10544000684610F087FB07E023462A463146384677
:1054500004F022FD10F016FB0028F5D1404605F0BF
:1054600093FA02F0ABFDBDE8FC810000D4070020F8
:10547000B0F90630B0F90420B0F90210B0F900001C
:10548000FFF7C2BF10B5044601F008F8204604F04B
:10549000B7F9044602F092FD204610BD2DE9F8430D
:1054A0001C00DDE9089816460F46054602D10FF0AC
:1054B000CBF9044600962E6843464A4621462846C4
:1054C000B047060039D00FF0B4F98146698A3046FA
:1054D0000EF01FFD304610F09EF9484610F09BF983
:1054E0004FF000080CE000BFCDF8008055F81CCF4D
:1054F00000231A4649462846E04700B310F08BF9CE
:105500007F1E002FF0DC1D2148460FF0A8FF601C15
:1055100012D000F0C3FF0FF0DBF930B1FFF73AFC17
:105520008469B44201D02000F8D1B44202D03046A0
:1055300010F0A6F802F042FD3046BDE8F883304690
:105540000FF06EF80020F8E72DE9F0411C461646F2
:105550000D460746022B02DB0020BDE8F0811C202F
:10556000FFF702FB0028F8D00DB105610AE0094AF7
:1055700052F8241009B905E011460A68002AFBD147
:105580000969016184618682002101604160C0E98E
:105590000217E2E7F807002070B51D46FFF7D4FFB9
:1055A000040001D000F00EF8E068006820B903485C
:1055B000006800EB85008465204670BDE007002090
:1055C000FFF7AABA70B590B38269022A30DA1C4C90
:1055D00054F8221019B944F822002FE019464B68FC
:1055E000002BFBD106E0CB68C5681B682D68AB4279
:1055F00003DD09680029F6D11AE0C1B1CB68C6689D
:105600001B683668B3420CD1838A012B05D008E0B1
:105610001946DB681B68AB4203DB0B68002BF7D134
:1056200029B14B6833B118604A68426004E0FFE773
:10563000012070BD44F8220048600160002070BD68
:10564000F807002010B503E00468FFF7BBFF204611
:105650000028F9D110BD1FF09BB800002DE9F041E2
:105660000026DFF834800D4F354600BF58F825403E
:1056700009E0E0680068385C20B120461FF088F837
:10568000266026462468002CF3D16D1C022DEDDB2C
:105690003046BDE8F0810000F8070020347B0508A3
:1056A000022801DB00207047054A52F8200004E080
:1056B000C26812688A42F6D000680028F8D17047A4
:1056C000F8070020022801DB00207047054951F847
:1056D000200004E0C16809680029F6D000680028AD
:1056E000F8D17047F80700202DE9F8431D4616460B
:1056F000884604000CD0FFF7CBFA009000680768DA
:105700006846FFF72FFB2B46324641462046B847F6
:10571000BDE8F88338B504004FF000000AD02046F9
:10572000FFF7B6FA0090006845686846FFF71AFB75
:105730002046A84738BD38B504004FF000000AD015
:105740002046FFF7A5FA0090006885686846FFF7D5
:1057500009FB2046A84738BD2DE9F041044602F078
:105760007DFC06191EE000BF00F0C4FC052F00DD23
:10577000052700F093FE11480568FFF781FA2C0019
:1057800017D000BF02F01AFC641EFBD1384602F0AD
:105790004BFC1DB100F082FE6D1EFBD1FFF7DAFA63
:1057A00002F00CFC02F05AFC371A002FDCDCBDE8DA
:1057B000F081384602F038FCF0E70000700D002060
:1057C00070B514460D46064600F068FE05480168AF
:1057D00030464D848C84FBF7EBFBBDE8704002F053
:1057E000EDBB0000E00700207FB51E4614460D46C5
:1057F000CDF80CD003AB00223146FFF75FFC224608
:105800002946684600F0BAF87FBD1FB503ABCDF856
:105810000CD0FFF753FC684600F02CF81FBD0021A8
:1058200012F07ABC10B500F039FE00F05BFD0549BE
:1058300009688A8C10448884088C4884BDE810402C
:1058400002F0BCBBE00700207FB50C461546CDF842
:105850000CD003A9FFF77EFC002801DD641EE4B232
:1058600003AB2A462146FFF729FC684600F002F800
:105870007FBD00002DE9FC4706005FD000F00EFE62
:1058800000F030FD3C4C81462068B0F9228000F0E9
:1058900085FD216807468A8CD01B888441E000BFC3
:1058A00047F6FF71304603F0C5F98246014630469F
:1058B00003F096F92168054691F82C0000F00300EA
:1058C000012841D002283BD000204A8C101A48847D
:1058D000ADF800006A1E1044ADF80400888CADF8E5
:1058E0000200A9F101010844ADF806006A465146DC
:1058F000304602F0BFFD2168BDF8020088845146A1
:10590000304602F037FA064430780A281ED00D28B7
:105910001CD0BDF80000216828444884307818B1B4
:10592000761C30780028BBD12068818C3944818472
:10593000818D21F00301818502F040FBBDE8FC87E9
:1059400005EBD5704010C0E72846BEE7206890F808
:105950002C1001F0030101290BD0022909D0018C80
:10596000418431780A29D9D1828C02EB09018184E2
:10597000D4E7A0F82280F4E7E007002070B51446D1
:105980000D46064600F08AFD05480068458484847B
:105990003046FFF76FFFBDE8704002F00FBB00001C
:1059A000E00700202DE9F04107460A4815460E465B
:1059B0000068B0F92C0040F0020001F09DFE0446A2
:1059C0002A4631463846FFF7D9FF2046BDE8F04168
:1059D00001F092BEE007002047F6FF73AFF30080AE
:1059E0002DE9FC411F4690460D4606004FF000048D
:1059F0001AD000F053FD65B128460FF0EDFE04000B
:105A000007D002462946684603F081F968460FF040
:105A1000E3FE3B4642462946304602F083FD2046DF
:105A20000FF0DAFE02F0CAFABDE8FC812DE9FF4F63
:105A300085B090468A4607007DD000F02FFDDAF849
:105A40000040DAF8046021B230B2401A401C0290E3
:105A500000F048FC054618F00C0F1ED03846089A96
:105A6000029902F0B5FA08F00C01042904D00829C3
:105A700002D00C2911D104E0311400FB1510401C98
:105A800009E02114C1EB264200FB1520401C00EB6D
:105A9000D07001EB600060F31F44504601F077FDC9
:105AA000A5F1010B04903846089A029903F0D8FA40
:105AB00003904FEA244909EB0B0060F31F46CDE940
:105AC00000463846039903F08BF818F003010ED016
:105AD00001292AD002290ED1BAF90420BAF90010FE
