:020000040800F2
:1000000070870120C9020008416B00088150000878
:100010003D6B00081D0A000803E600080000000010
:10002000000000000000000000000000999A000895
:10003000A51200080000000059030008B19B000849
:10004000E3020008E3020008E3020008E3020008FC
:10005000E3020008E3020008E3020008E3020008EC
:10006000E3020008E3020008E3020008E3020008DC
:10007000E3020008E3020008E3020008E3020008CC
:10008000E3020008E3020008E3020008E3020008BC
:10009000E3020008E3020008E3020008E3020008AC
:1000A000E3020008E3020008E3020008E30200089C
:1000B000E3020008FDD2000815D30008E30200089F
:1000C000E3020008E3020008E3020008E30200087C
:1000D000E3020008CDE30008E3020008E3020008A1
:1000E000E3020008E3020008E3020008E30200085C
:1000F000E3020008E3020008E3020008E30200084C
:10010000E30200083D810008E3020008E302000862
:10011000E3020008E3020008E3020008E30200082B
:10012000E3020008E3020008E3020008E30200081B
:10013000E3020008E3020008E3020008E30200080B
:10014000E3020008E3020008E3020008E3020008FB
:10015000E3020008E3020008E3020008E3020008EB
:10016000E3020008E3020008E3020008E3020008DB
:10017000E3020008E3020008E3020008E3020008CB
:10018000E3020008E302000800F002F800F066F85D
:100190000AA090E8000C82448344AAF10107DA45E2
:1001A00001D100F05BF8AFF2090EBAE80F0013F0CE
:1001B000010F18BFFB1A43F001031847C41A0200CD
:1001C000E41A02000A444FF0000C10F8013B13F04F
:1001D000070408BF10F8014B1D1108BF10F8015BA0
:1001E000641E05D010F8016B641E01F8016BF9D193
:1001F00013F0080F1EBF10F8014BAD1C0C1B09D1EA
:100200006D1E58BF01F801CBFAD505E014F8016B5B
:1002100001F8016B6D1EF9D59142D6D370470000ED
:100220000023002400250026103A28BF78C1FBD8FF
:10023000520728BF30C148BF0B607047642900F0E7
:100240001D81782900F05681002070471FB517F0F6
:1002500040FF00F090F91FBD10B510BD00F0ACFBE1
:100260001146FFF7F3FF16F059FE00F0CAFB03B486
:10027000FFF7F2FF03BC15F0F3FE000040BA704731
:10028000C0BA704730BF72B6704762B6704780F32D
:10029000088870470B49D1F800C04A685CF8043BF5
:1002A0001068184442F8040B8C4528BFA1F1DC0CFF
:1002B0008A4228BFA1F1DC02C1F800C04A6020F0E8
:1002C00000407047087D01200948804709480047E1
:1002D000FEE7FEE7FEE7FEE7FEE7FEE7FEE7FEE7F6
:1002E000FEE7FEE704480549054A064B7047000053
:1002F000C19B000889010008707D012070870120E2
:10030000707F0120707F0120EFF3108072B670477C
:1003100080F310887047264C4FF6FF7525604FF02C
:10032000000484F30988234C4FF001052570224C0A
:100330004FF08055256062B6FEE730B41E4C4FF09A
:100340008055256030BC704730B41B4C4FF0805551
:10035000256030BC704700BF72B6EFF3098050B122
:100360001EF0100F08BF20ED108A203880E8F00F33
:1003700012490968086000B5114880475DF804EB30
:10038000104811490A7802700C4810490A68026046
:10039000106890E8F00F20301EF0100F08BFB0EC8E
:1003A000108A80F309884EF0040E62B6704700BFD1
:1003B00022ED00E0E200002004ED00E0E800002073
:1003C00045740008D7000020D8000020F00000206D
:1003D000704700000FB4044910B503AA029800F05A
:1003E0006DFA10BC5DF814FB740000200FB41CB54E
:1003F000074B06AA7B4469460090059800F045FA31
:100400000020694600F054FA1CBC5DF814FB0000A3
:10041000B90400002DE9F0410E4604460020206298
:100420002046E168884730B3252805D0D4E901216A
:100430009047206A401CF2E7E16820460027884781
:10044000050018D0A5F14100192802D820354FF435
:1004500000673246294620462760FFF7EFFE40B18D
:10046000012804D0F61D26F007060836D8E7361D09
:10047000D6E72846DAE7206ABDE8F0812DE9F041A9
:100480000646002410687529314616A510D0AFF332
:100490000080002802DA404213A507E031688A078D
:1004A00001D512A502E0490704D511A5012401E0F8
:1004B000AFF3008000210A2206F1240709E0B0FB17
:1004C000F2FCB0FBF2F302FB1C003030785418460B
:1004D000491C0028F3D123462A463046BDE8F041A6
:1004E00000F075B9000000002D0000002B00000096
:1004F0002000000070B504460D4621461068AFF399
:1005000000802188090502D50F4A7A4402E00E4A8C
:100510007A440E32002104F1240305E000F00F06B6
:100520000009965D5E54491C0028F7D1207800230D
:10053000000704D5702D02D009B1022311322046E4
:10054000BDE8704000F043B9461502000B4910B5F4
:10055000A1F17C020A4CC2E93712372106E000EB18
:10056000104342F82130074B00FB03400B1EA1F162
:100570000101F4DC10BD0120E8E70000A87C0120A7
:10058000E119D666CD0D010040EA010310B59B07C5
:100590000FD1042A0DD310C808C9121F9C42F8D0ED
:1005A00020BA19BA884201D9012010BD4FF0FF309E
:1005B00010BD1AB1D30703D0521C07E0002010BDB4
:1005C00010F8013B11F8014B1B1B07D110F8013B40
:1005D00011F8014B1B1B01D1921EF1D1184610BD21
:1005E000032A40F2308010F0030C00F0158011F85F
:1005F000013BBCF1020F624498BF11F801CB00F837
:10060000013B38BF11F8013BA2F1040298BF00F88A
:1006100001CB38BF00F8013B11F0030300F0678005
:10062000083AC0F0088051F8043B083A51F804CB6E
:10063000A0E80810F5E7121D5CBF51F8043B40F834
:10064000043BAFF30080D20724BF11F8013B11F83F
:1006500001CB48BF11F8012B24BF00F8013B00F883
:1006600001CB48BF00F8012B7047431A28BF9A42BC
:100670007FF6B6AF032A1044114440F2268010F0F2
:10068000030F1EBF11F8013D521E00F8013D10F08E
:10069000030F7FF4F6AF11F0030300F03481083A42
:1006A000C0F00B8051F8043D083A51F804CD40F8F1
:1006B000043D40F804CDFFF7F3BF121D5CBF51F8B5
:1006C000043D40F8043DAFF30080D20724BF11F889
:1006D000013D11F801CD48BF11F8012C24BF00F8ED
:1006E000013D00F801CD48BF00F8012C704710B55E
:1006F000203AC0F00B80B1E81850203AA0E818501A
:10070000B1E81850A0E81850BFF4F5AF5FEA027CDA
:1007100024BFB1E81850A0E8185044BF18C918C049
:10072000BDE810405FEA827C24BF51F8043B40F8EA
:10073000043B08BF7047D20728BF31F8023B48BFCF
:1007400011F8012B28BF20F8023B48BF00F8012B0D
:10075000704702F0FF0343EA032242EA024200F03C
:10076000FEB84FF0000200B5134694469646203975
:1007700022BFA0E80C50A0E80C50B1F12001BFF45A
:10078000F7AF090728BFA0E80C5048BF0CC05DF8C0
:1007900004EB890028BF40F8042B08BF704748BF0E
:1007A00020F8022B11F0804F18BF00F8012B704782
:1007B000704770477047704710B500F0F1F8006857
:1007C00010BD10B5044600F0EBF8046010BD2DE933
:1007D000F0470D4699469246044600F12408016808
:1007E000880604D5E06921F01001216000E00120B5
:1007F000A84201DD471B00E00027A1697A1902EB3E
:100800000900081AA0612078C00602D42046AFF380
:100810000080002608E0D4E901211AF8060090477C
:10082000206A401C761C20624E45F4DB2078C0060E
:100830000AD52046AFF3008006E0D4E9012130203C
:100840009047206A401C2062381EA7F10107F4DCA3
:1008500007E0D4E9012118F805009047206A401C00
:100860002062281EA5F10105F3DC2046AFF30080CD
:100870002078000602D50220BDE8F0870120FBE7C2
:1008800001694A1C02610878704700B58FB0CDE954
:1008900001310021059105497944CDE90310114644
:1008A0006846FFF7B7FD0FB000BD0000E5FFFFFF92
:1008B0000A6802F8010B0A6070470000074B70B528
:1008C0000D467B44FFF7E1FF0446284600F06CF834
:1008D00010B14FF0FF3070BD204670BDC7650100FC
:1008E000431A28BF9A427FF602AF104410F0030F5C
:1008F00011441EBF11F8013D521E00F8013D10F0D9
:10090000030F7FF4F6AF103AC0F00A8010B531E95A
:100910001850103A20E91850BFF4F9AFBDE8104064
:10092000530724BF31E9081020E9081044BF51F8EB
:10093000043D40F8043D12F0030F08BF7047D20792
:1009400028BF31F8023D48BF11F8012C28BF20F81C
:10095000023D48BF00F8012C70474FF00002042907
:10096000C0F0128010F0030C3FF4FDAECCF1040C8B
:10097000BCF1020F18BF00F8012BA8BF20F8022B12
:10098000A1EB0C01FFF7EFBE5FEAC17C24BF00F8CA
:10099000012B00F8012B48BF00F8012B7047000025
:1009A00000487047107D0120007B00F080007047F8
:1009B00000487047107D01207546FFF7F9FFAE46ED
:1009C00005006946534620F00700854618B020B55B
:1009D000FFF788FCBDE820404FF000064FF000070D
:1009E0004FF000084FF0000B21F00701AC46ACE8D7
:1009F000C009ACE8C009ACE8C009ACE8C0098D4644
:100A0000704710B50446AFF300802046BDE81040A3
:100A1000FFF72DBC002800DC4042704700BFFEE716
:100A200031B52DED068B82B0002400257448007886
:100A3000401C73490870084600780A2190FBF1F2C7
:100A400001FB120018B16E4800780A287EDA0122F4
:100A500008A9002007F054F99DF8200000F01F00BD
:100A6000002873D09DF8200000F01F0040F0C00067
:100A7000644981F82000002486E0624890F8200054
:100A80000121A140084000287CD05F4931F81400C2
:100A9000042201A907F034F95A4890F8340000F014
:100AA0000100D0B39DF807109DF8062001EB02204D
:100AB00016F041FF41EC190B9FED540B53EC102B3A
:100AC00016F0A0FF41EC180B16F008FF81B24D485C
:100AD000163020F814109DF805109DF8042001EB45
:100AE000022016F028FF41EC1A0B9FED4A0B53EC45
:100AF000102B16F087FF41EC190B9FED480B53ECC0
:100B0000102B17F0B3F841EC180B16F0E7FE81B28A
:100B10003C480C3020F8141034E0FFE79DF8071033
:100B20009DF8062001EB022016F005FF41EC190BA1
:100B30009FED360B53EC102B16F064FF41EC180BB5
:100B400016F0CCFE81B22F480C3000E02BE020F8EC
:100B500014109DF805109DF8042001EB022016F0FA
:100B6000EAFE41EC190B9FED2B0B53EC102B16F00A
:100B700049FF41EC180B16F0B1FE81B22148163046
:100B800020F81410601CC4B2052CFFF676AF0125C6
:100B90001C48808920B91B48C08A08B900200890E9
:100BA0000020174908709DF8200000F01F00D0B900
:100BB000144890F8200000F0800040B1114890F8EF
:100BC000200020F080000F4981F820000BE04FF654
:100BD000FF700C498881C882084690F8200000F018
:100BE000E00081F8200006480078F02802DD0A20A5
:100BF00003490870284602B0BDEC068B38BD0000E2
:100C00000400002008000020A69801087B14AE47CD
:100C1000E17AD43FD881734694F6D23F00000000B9
:100C20000000894010B5052015F056FB10BD0000EE
:100C300010B500200F4908600F48006820F44000FC
:100C40000D4908600846006840F480000860FFF71E
:100C5000E9FF00200949C1F8AC02FFF7E3FF0120DA
:100C600004490860FFF7DEFF00200549C1F8800253
:100C700010BD0000808240420014024000804242C9
:100C8000008040421CB50121222007F0A7F8012076
:100C900000908DF8040003208DF8050000208DF8E9
:100CA000060001208DF807006946084801F048F960
:100CB0004FF4006000906946054801F041F90120B9
:100CC000044908600449C1F8AC021CBD000402409C
:100CD00000140240808240420080424210B5002051
:100CE0000F4908600F48006820F440000D49086073
:100CF0000846006840F480000860FFF793FF012079
:100D00000949C1F8AC02FFF78DFF012004490860D2
:100D1000FFF788FF00200549C1F8800210BD0000E0
:100D200080824042001402400080424200804042E3
:100D300070B5054600241448006820F440001249AC
:100D40000860084600680860002612E000200F498D
:100D500008601E2015F0C0FA01200D49C1F880027C
:100D60006006040E0B48006808B1601CC4B2701C19
:100D7000C6B2082EEADB15B9FFF7B0FF01E0FFF7B6
:100D800057FF204670BD00000014024080824042A0
:100D9000008040422C82424270B5044613480068ED
:100DA00020F44000114908600846006840F48000C3
:100DB000086000200E490860FFF734FF002511E0AD
:100DC000E0090C4908606006040E01200A49C1F8D8
:100DD0008002FFF727FF002005490860FFF722FF88
:100DE000681CC5B2082DEBDB70BD0000001402408A
:100DF00080824042AC8242420080404210B50F489F
:100E0000006820F440000D4908600846006840F47E
:100E10008000086001200A4908600A49C1F8800280
:100E2000142015F059FA002005490860FFF7FAFE72
:100E300000200449C1F8800210BD000000140240E7
:100E4000AC8242420080404210B50D48006820F458
:100E500040000B4908600846006840F480000860C4
:100E6000012008490860142015F036FA00200649D0
:100E7000C1F8AC02FFF7D6FE01200449086010BD9E
:100E8000001402408082404200804242AC824242D2
:100E900010B500241148006820F440000F49086094
:100EA00008460068086001200D4908600D49C1F836
:100EB00080020AE0601CC4B2FA2C03DDFFF7C4FF15
:100EC000012010BD012015F007FA054880380068A0
:100ED0000028EFD10449086000BFF2E70014024087
:100EE000AC824242008040428082404270B5002580
:100EF0004FF4803400E0641E24B1802007F0FEF837
:100F00000028F8D014B90325284670BD40F2FF50E0
:100F100007F0A6F82846F8E7014600BF0848006831
:100F200000F045000028F9D040F2FF50044A121D9D
:100F3000106003482038006808221040C0B2704793
:100F4000342C014070B500251048046801E00F48BA
:100F5000046804F045000028F9D004F0040028B12A
:100F60000325042007F07CF8284670BD04F001003A
:100F700028B10125012007F073F82846F5E740F273
:100F8000FF5007F06DF82846EFE70000342C0140D1
:100F900070B500250B48046801E00A48046804F0B5
:100FA00045000028F9D004F0040028B103250420EE
:100FB00007F056F8284670BD40F2FF5007F050F891
:100FC0002846F8E7342C01402DE9F04106460F464B
:100FD0004FF000082248056801E02148056805F047
:100FE00045000028F9D005F0040038B14FF003089F
:100FF000042007F035F84046BDE8F08105F0010017
:1010000030B14FF00108012007F02AF84046F3E71D
:1010100007F06EF8B04203D04FF010084046EBE7FF
:1010200040F2FF5007F01CF8002007F07BF8044660
:1010300004F4604018B9200C38804046DCE704F422
:10104000005008B11320D7E704F4804008B1102005
:10105000D2E704F4004008B10F20CDE74046CBE7CB
:10106000342C014070B500264FF480350F480468D9
:1010700002E06D1E0D48046804F0450008B9002D1B
:10108000F7D115B104F0040028B10326042006F0BE
:10109000E7FF304670BD04F0400028B10026402034
:1010A00006F0DEFF3046F5E73046F3E7342C01402A
:1010B00021B1026842F00102026003E0026822F0FE
:1010C0000102026070470000016821F00101016027
:1010D0000021016041608160C160016121214161A5
:1010E0004A49884204D13D21484A103A91608CE037
:1010F00046491831884205D14FF47461434A103A89
:10110000916082E041493031884205D14FF4741139
:101110003E4A103A916078E03C494831884205D116
:101120004FF07461394A103A91606EE0374960318E
:10113000884204D13649354A103AD16065E03349D6
:101140007831884204D13349304A103AD1605CE0AA
:101150002E499031884204D12F492C4A103AD1604F
:1011600053E02A49A831884205D14FF03D51274A22
:10117000103AD16049E02949884204D13D21274AEB
:10118000083A116041E025491831884205D14FF4F1
:101190007461224A083A116037E0204930318842B0
:1011A00005D14FF474111D4A083A11602DE01B4916
:1011B0004831884205D14FF07461184A083A1160ED
:1011C00023E016496031884204D11149134A121FA5
:1011D00011601AE011497831884204D10D490F4A53
:1011E000121F116011E00D499031884204D10A4963
:1011F0000A4A121F116008E00849A831884204D148
:101200004FF03D51054A121F1160704710600240B7
:101210003D000020400F002000003D2010640240EF
:1012200021B1026842F02002026003E0026822F06D
:10123000200202607047014600200A6802F00102A5
:101240000AB1012000E000207047000010B5002224
:101250000268134B1A40CC680B6823434C69234344
:101260008C692343CC6923430C6A23434C6A234390
:101270008C6A23434C6B23438C6B23431A430260D9
:10128000426922F00702D1E90B3423431A43426139
:101290000B6943604B6883608B68C36010BD0000BE
:1012A0003F801CF0704700002DE9FC5F15460746A3
:1012B000DFF89C8028440190D8F800001C460E46B8
:1012C000C06E01EB04094946426801989047781BBB
:1012D0000090D8F800004946C06E426800989047D8
:1012E000D8F8000006EB050B07EB0409C06E594661
:1012F000426848469047D8F80000A6EB050A5146D8
:10130000C06E426848469047002C1ED0D8F80000B6
:10131000361B4546C06E31464268019890472868A2
:101320003146C06E42680098904728683C1B594679
:10133000C06E42682046904728685146C06E426899
:1013400002B02046BDE8F05F1047BDE8FC9F0000FA
:10135000780200202DE9F04306460F46904600240F
:1013600045460320A0EB48093CE07A1B91B23219B4
:1013700090B204F023FA3A1B91B2721990B204F0C1
:101380001DFA3A1991B2721990B204F017FA7A194B
:1013900091B2321990B204F011FA7A1991B2321B5B
:1013A00090B204F00BFA3A1991B2721B90B204F0A9
:1013B00005FA7A1B91B2321B90B204F0FFF93A1B86
:1013C00091B2721B90B204F0F9F9641CB9F1000FEC
:1013D00003DAA000801D814404E0601B80000A3015
:1013E00081446D1EAC42C0DDBDE8F08351B1820086
:1013F000A2F1C042126842F001038200A2F1C04291
:10140000136009E08200A2F1C0421268034B1A4047
:101410008300A3F1C0431A6070470000FEFF0F0075
:10142000D0E901121143C2681143026911434269B4
:10143000114382691143C2691143026A1143426A2E
:101440001143826A1143C26A1143026B114302685D
:101450009200A2F1C0421160816808290BD1016895
:101460008900A1F1C041096841F04002016889008A
:10147000A1F1C0410A60416B0968426B526841EAC0
:101480000211426B926841EA0221426B928941EA61
:101490000241426B128A41EA0251426B127D41EADB
:1014A0000261426B926911430268521C9200A2F1E0
:1014B000C0421160C16AB1F5804F1BD1816B0968D0
:1014C000826B526841EA0211826B926841EA022102
:1014D000826B128A41EA0251826B127D41EA0261FB
:1014E000826B9269114302689200A2F1C042C2F875
:1014F000041107E06FF0704201688900A1F1C0415A
:10150000C1F80421704700002DE9FC4107460D4653
:101510000026002400200090019008205D4908600A
:1015200010204860402088600020C8604FF4806030
:101530000861084606F034FE1020FFF7EDFC044673
:1015400014B12046BDE8FC8153480088000451498D
:10155000086037204860402088600020C8604FF451
:1015600080600861084606F01BFE3720FFF7D4FCB8
:1015700004460CB12046E5E74FF0FF3047490860CC
:1015800008204860302088600220C8600020086180
:1015900001204861084606F085FD00203D490860AD
:1015A00033204860402088600020C8604FF480608D
:1015B0000861084606F0F4FD3320FFF7ADFC044651
:1015C0000CB12046BEE70CE04FF4001006F096FD8B
:1015D00038B106F0DFFD4DF82600761C012E00D94B
:1015E00006E02F48006840F22A6108400028EBD04E
:1015F00000BF082006F082FD28B1082006F030FD6B
:10160000042420469EE7022006F078FD28B102203F
:1016100006F026FD0224204694E7202006F06EFD09
:1016200028B1202006F01CFD062420468AE74FF44E
:10163000007006F063FD30B14FF4007006F010FD4D
:10164000072420467EE740F2FF5006F009FD00988F
:101650000006009901F47F4140EA0120009901F45D
:101660007F0140EA1120009940EA1160686001980A
:101670000006019901F47F4140EA0120019901F43B
:101680007F0140EA1120019940EA1160286020465C
:1016900058E7000058290020500000206C29002045
:1016A000342C01402DE9FF5F8346DDE90E45984665
:1016B00091468A4604F5B47405F5B4754FF0FF36CB
:1016C00001274FF4B47003E0A4F5B474A5F5B47524
:1016D0008442F9DA002D65DD5A2C11DA002C00DA8B
:1016E00000245A2D01DA284600E05A20CDE90040B6
:1016F000CDE9027643464A46514658460EF0FCFE76
:101700005A3D5A3C002D4DDD5A2C14DA002C00DADB
:1017100000245A2D01DA284600E05A20C4F15A016B
:10172000C0F15A008DE8430043464A4651465846A8
:1017300003960EF0E1FE5A3D5A3C002D32DD5A2C44
:1017400012DA002C00DA00245A2D01DA284600E0D3
:101750005A200DF1040C0094ACE8C10043464A46FF
:10176000514658460EF0C8FE5A3D5A3C002D19DD30
:101770005A2C14DA002C00DA00245A2D01DA2846FB
:1017800000E05A20C4F15A01C0F15A008DE88300EC
:1017900043464A465146584603970EF0ADFE5A3D21
:1017A0005A3C97E7BDE8FF9F2DE9F0478146884600
:1017B00040F2C32050434FF47A7190FBF1F502FBE5
:1017C00002F002EBD27100EB61066D1C174600239C
:1017D00041464846FFF768FD012413E004FB04F08E
:1017E00007FB0700B04206DD3B462246414648461D
:1017F000FFF75AFD7F1E3B46224641464846FFF70B
:1018000053FD641CAC42E9DDBDE8F0872DE9FF4FD4
:1018100089B0064616981F46111A491C181A00F17D
:10182000010903FB07F0079009FB09F0069000206F
:1018300002FB02F801FB01FB144601900125009018
:1018400047E000BF0A9805FB05FA401B401C0590C5
:101850000A9807992844401E04900AFB08F0B0FB40
:10186000F1F1A8EB010003F0D0FBA04200D0641E10
:10187000311B03913119044602914D450DDA069949
:101880000AFB0BF0B0FBF1F1ABEB010003F0BDFB89
:10189000311A3044CDE9001004E003D1A6F1010073
:1018A000CDE90006DDE90102059903F0CFFE009ABB
:1018B0000599039803F0CAFE012D09DDDDE9030156
:1018C000009A03F0C3FEDDE90102049903F0BEFEB5
:1018D0006D1CBD42B6DD0DB0BDE8F08F1CB5002417
:1018E000019401AC009400F0E7F81CBD2DE9FF4F16
:1018F00083B0814606988A46A0EB0A08109E002015
:101900000090A2EB09043568934654EA080018D009
:101910002046FFF77FF807464046FFF77BF88742EF
:101920000BDA2046444680464846D1468246584611
:10193000DDF818B0069001200090002C07DD20464D
:1019400006E007B04846BDE8F04F00F03BB9604202
:10195000A0420AD04846D9466442C8F100088346EE
:101960004FF0FF37DDF818A000E001275148B8F12B
:10197000000F11D004EBD4714FEA610B01DACBF107
:10198000000B4C480068807E88B3002F02DA306874
:101990002044306000257BE000990029016821D0B7
:1019A000897E11B10027804615E007B05A464946A6
:1019B0005046BDE8F04F03F013BF28466D1C12F0EF
:1019C0002BFC38B9D8F8000009EB0701C06E42685B
:1019D000504690477F1CA742EFDD6D1E356007B073
:1019E000BDE8F08F8A7E1AB10027804617E019E023
:1019F000C86E5A465146036807B04846BDE8F04FE6
:101A0000184728466D1C12F007FC38B9D8F80010AA
:101A100009EB0700C96E4A68514690477F1CA742F0
:101A2000EFDDDAE700250FE008FB05B090FBF4F1ED
:101A300001EB0A00009951B11E4A09EB0501126839
:101A4000D26E526890476D1CA542EDDDC7E719497B
:101A500009EB05030968C96E4A6801461846F1E7B3
:101A600008FB05B090FBF4F101EB0A00019030682F
:101A70003844306012F0D0FB48B9009890B10D485E
:101A800009EB05010068C06E4268019890476D1C23
:101A9000A542E5DD3068002F01DA20443060C01B2C
:101AA00030609CE7034909EB05000968C96E4A6884
:101AB0000199EBE7780200202DE9FF470F464049E6
:101AC0001646804609680C981D460A7E012A1CD0DD
:101AD000A8EB0600791B50EA01031CD0A2F1010912
:101AE00014F032FA00F58060824603F09BFA00FBA6
:101AF00009F4504603F09AFA00FB09F1002C0CDAC5
:101B0000C4F50070801240420AE000903246394627
:101B10004046FFF7EBFEBDE8FF8704F50074A01216
:101B2000002904DAC1F5007189124C4202E001F586
:101B300000718C12002804DD411C01EBD1714910A9
:101B400003E000EBD0714910401E00EBD070421052
:101B5000002C04DD601C00EBD070401003E004EBAF
:101B6000D4704010641E04EBD47308EB0104ADF88C
:101B700000403C18ADF80240A8EB02045B10B21A1A
:101B8000ADF80440ADF808203144FC1AEA1AADF86B
:101B90000C102844ADF80A20ADF80E000023ADF873
:101BA00006401A460421684600F0BAF83946404615
:101BB00010F0C8FC2946304610F0C4FCABE700002A
:101BC00078020020064A13681A7E012A05D0521EA8
:101BD00002EBD272521000F005B8DA6E526810476C
:101BE000780200202DE9F05F0646884640F2C320C7
:101BF00050434FF47A7190FBF1F702FB02F002EBD5
:101C0000D27100EB610B254914467F1C09683244F0
:101C1000301BC96E0B684146984701253AE000BF6A
:101C200005FB05F004FB040159451CDDBC4219DD30
:101C30001A4B06EB050AA6EB05091B68AAF101027F
:101C400008EB0401DB6E09F101001B689847134B98
:101C5000AAF10102A8EB04011B6809F10100DB6E87
:101C60001B689847641E0D4806EB040AA6EB04099E
:101C7000006808EB05015246C06E03684846984765
:101C80000648A8EB050152460068C06E0368484646
:101C900098476D1CBD42C3DDBDE8F09F780200206F
:101CA0002DE9FE4F98468B46074603FB08FA02FBD8
:101CB00002F6144601252EE005FB05F07043B0FB4B
:101CC000FAF0301A03F0A1F9A04200D0641E391BCB
:101CD000029139190446ABEB050000F101090BEB49
:101CE0000500401ECDE900010A464946384603F08A
:101CF000ADFC7A1E4946029803F0A8FC012D09DDCF
:101D00007A1E0099029803F0A1FCDDE90012384622
:101D100003F09CFC6D1C4545CEDDBDE8FE8F000048
:101D20002DE9FF4F40F6FF740F46664283B09B4695
:101D3000814600210BE000BF09EB8100B0F90200F1
:101D4000A04200DA0446B04200DD0646491CB94212
:101D5000F2DB68480068406900280DD0B0F9061031
:101D60001A46A1EB0B01B14200DA0E46B0F90200AF
:101D7000801AA04200DD0446B5E0DFF87CA1002017
:101D80000546CAF8000089E0781E854201DA6B1C1E
:101D900000E0002309EB850C09EB8302BCF902008B
:101DA000B2F90210A04245D1A14215D139F9233030
:101DB000059A39F9251003EB020C4E4A0598126872
:101DC000084404EB0B01D26E6045136801DA6246E9
:101DD0002BE00246604628E02846A4464FF0000863
:101DE0007A1E0BE008B1401E00E0781E09EB80036C
:101DF000B3F90230634504D108F101089045F1DBE5
:101E00002346A34249D0A3EB040239F92500A1EBF4
:101E1000040C059B92EA0C0209D4364A184404EBE0
:101E20000B011268D26E13680246984735E00EF037
:101E30001DF832E0A14230D001DBA04203DDA04218
:101E40002BDBA14229DCE04688420ADC0346A042A3
:101E500023DC0846A14220DBB8F900C0B2F900102B
:101E600008E00B46A14218DCA04216DBB2F900C024
:101E7000B8F90010E21AA1EB0C0151430029A0EBC4
:101E8000030202DD01EB620102E0A1EB6201491CE9
:101E9000C01A91FBF0F06044C9E76D1CBD42FFF62B
:101EA00073AF0598009004EB0B0001900020804672
:101EB000054613E01149B8F1000F31F915A009D01A
:101EC000009901EB0A0208440A490968C96E0B68C7
:101ED0000199984788F0010850466D1C0649096829
:101EE0008D42E7DB641CB4427FF747AF07B0BDE823
:101EF000F08F000078020020D8020020AC7A012088
:101F000010B5002001F078FE6FF07F4001F076FE02
:101F1000012001F0ADFE002001F0B2FE002001F032
:101F2000B9FE002001F072FE0448006801F070FE66
:101F3000BDE81040002001F077BE000074020020D0
:101F4000F0B50A4600210023002400BF3DE0012532
:101F500005FA01F3156805EA03049C4234D10568CB
:101F60004F000326BE40B543056015794E00B540CD
:101F70000668354305601579012D02D01579022DCB
:101F800016D185684F000326BE40B543856055795C
:101F90004E00B540866835438560456801268E4011
:101FA000B5434560456896798E40B6B23543456085
:101FB000C5684F000326BE40B543C560D5794E00C5
:101FC000B540C6683543C560491C1029BFD3F0BD74
:101FD000F0B5002300244D07ED0E02FA05F3CE10F4
:101FE00000F1200555F826504E07F70E0F26BE408B
:101FF000B543CF1000F1200646F82750CE1000F16F
:10200000200555F8265045EA0304CE1000F12005BE
:1020100045F82640F0BD0183704700002DE9F04FE0
:10202000DFF828B191B04FF0FF35DBF80030B3F99D
:1020300022100691DE69B3F92490F469A1898142E6
:1020400006D8E289824203D3471AD4F8008012E00E
:10205000D4E9018100296FD00A8882426CD84D886A
:10206000854269D3801A82B2486800EB8200B0F9D9
:102070000070B0F90250781C5ED0307EA17C10FB5D
:1020800001FA217CCDE90801B3F92A60304604F059
:1020900085F9C0B20E90DBF8000007FB0A81A37C33
:1020A000826B0127CDE90412CDE90273C069DDE935
:1020B0000832C17E807ECDE900014946069803F0D2
:1020C000C1F9681C18D046F0020004F067F9DBF88B
:1020D0000000A37C05FB0A81826BCDE90273CDE988
:1020E0000412C069DDE90832C17E807ECDE90001BD
:1020F0004946069803F0A6F9DBF800005D46C06982
:10210000417E007E814214D9022E12D086F0040056
:1021100004F044F92868C069027EC37E12FB039173
:10212000437E857E099A06984B4402FB050203F024
:102130000FFC0E9804F032F9DBF80000627C418C51
:102140001144418411B0BDE8F08F000078020020F6
:1021500004480068C069C06909B1027C0A60407C1B
:102160007047000078020020022008807047C06994
:1021700082898A4202D8C2898A4210D2806880B19C
:1021800002888A420DD843888B420AD3406800EB0C
:102190008100A0EB8200B0F90000002801DB0120E3
:1021A00070470020704700002DE9F0432F4C034694
:1021B00087B020681946B0F92A80C069C06900F06C
:1021C00084F800284ED041680088181A01EBC00539
:1021D0004046AE7804F0E2F8814620686A68012340
:1021E000816BCDE90236CDE90421C169CB7E8A7EBF
:1021F000CDE900230B7EB0F924102A78B0F9220033
:1022000003F020F92068C069477E067EB7421DD9D9
:10221000C07E47434643B8F1020F17D000F040FF9D
:10222000804600F025FF01F0E9FC21682A78CB699F
:10223000B1F92200DB7E12FB0302B1F92410CB19A5
:10224000314403F085FB404601F0D8FC484604F0D9
:10225000A5F820686A78C369B0F922109B7E12FB4A
:102260000311418407B0BDE8F0830000780200202C
:1022700030B50F4C05460B4620682946C069C06939
:1022800000F023F8002811D04168008824682A1A39
:102290000120E46900EBC200085CA47E10FB04F09E
:1022A000002B03D011F832106143196030BD0000DB
:1022B0007802002001200880704700B5C06900F056
:1022C00004F8002800D0012000BD06E002888A4200
:1022D00002D842888A4202D280680028F6D170472C
:1022E000002801D00DF01ABE704738B50546FFF73B
:1022F000F7FF040009D000F0AFF82A460021009053
:1023000002F040FE684600F0D7F8204638BD0000D5
:10231000024A106021F0030050607047287A0120C3
:1023200010B5002814D004460A48006B10F8341089
:1023300000290DD002290BD2042101EBC401415820
:1023400048680DF0AFFD2046BDE8104011F06EBDAD
:1023500010BD00006C790120002805D0034A916B64
:10236000016001B148609063704700006C79012002
:102370002DE9F041044611F0A5FA2648E41C24F0AA
:102380000305C16B2D1DA94200D90D46846B13E0D6
:1023900054F8042CAA420ED184B1216809B16268B4
:1023A0004A60616809B122680A60826BA2422ED13C
:1023B000216881632BE02468002CE9D18046416BC1
:1023C00080680F1857F8040C3E1A306838B10020A6
:1023D00011F0DEFD57F8040C3E1A3068B8B9706889
:1023E000A84214DB3044441B304611F089FDD8F874
:1023F0000810491BC8F80810D8F810102944C8F86C
:10240000101070683146401B0DF04CFD20C4204672
:10241000BDE8F0816C79012010B5002411F052FA6A
:102420000C490F2001EBC002126C1AB101EBC00085
:10243000006C08E0401EF5D508E04168A14200D9D3
:102440000C46806810B180680028F6D1A4F10C0019
:1024500010BD00006C79012005498A69521C8A610F
:10246000096B01EBC0010A78521C0A7000F03CB8FD
:102470006C79012010B5FFF7CFFF64220649B0F553
:10248000800F04D990FBF2F0C969484310BDC969B7
:102490004143B1FBF2F010BD6C79012005491028D1
:1024A00005D94A68B0EB520F02D3500800E0102063
:1024B00088607047287A01200A4902680B6B52F83D
:1024C000082C03EBC2021378022B03D38B690BB1E8
:1024D0005B1E8B611178491E117000210160084656
:1024E000704700006C790120002806D003490422BF
:1024F00002EBC000096B0858083070476C79012066
:1025000070B506460D461446104600F0D1FD030096
:10251000164804EB84010AD050F821004168806815
:10252000711A2A1ABDE87040184601F07BBB00EB17
:102530008104A268B24201D0012200E00022E368D7
:10254000AB4201D0012300E000231A430CD02369E1
:1025500043B150F82100816840686A1A311A184660
:1025600001F0E4FAC4E9026570BD0000987B012027
:1025700010B5C2B2CBB2D21A02D5C2F1000212B269
:1025800093B2C0F30722C1F3072403FB03F3121B2A
:1025900001D5524212B2000C92B2A0EB114002FBE4
:1025A000023200B2002801DA404200B280B200FBE1
:1025B000002010BD10B50021084600F0C7FD40F610
:1025C000FF725042BDE8104013460146AFF3008051
:1025D0002DE9FC4107461C4615460E46042003F033
:1025E000DDFE80461148C068C16C006D0F44064492
:1025F0000D440444ADF80070ADF80450ADF802602D
:10260000ADF8064068460CF0F7FF07E023462A467F
:102610003146384603F09CF90CF0B0FF0028F5D1A4
:10262000404603F0BBFEBDE8FC8100006C020020C8
:102630002DE9F0411C4616460D460746022B02DBEB
:102640000020BDE8F0811C20FFF792FE0028F8D0A2
:102650000DB105610AE0094A52F8241009B905E0F4
:1026600011460A68002AFBD10969016184618682EA
:10267000002101604160C0E90217E2E790020020FA
:1026800070B51D46FFF7D4FF040001D000F00EF82E
:10269000E068006820B90348006800EB85008465A5
:1026A000204670BD78020020FFF756BE70B590B38B
:1026B0008269022A30DA1C4C54F8221019B944F805
:1026C00022002FE019464B68002BFBD106E0CB68B7
:1026D000C5681B682D68AB4203DD09680029F6D187
:1026E0001AE0C1B1CB68C6681B683668B3420CD12A
:1026F000838A012B05D008E01946DB681B68AB42D2
:1027000003DB0B68002BF7D129B14B6833B118609C
:102710004A68426004E0FFE7012070BD44F82200EF
:1027200048600160002070BD9002002012F0C4B922
:10273000022801DB00207047054A52F8200004E01F
:10274000C26812688A42F6D000680028F8D1704743
:1027500090020020022801DB00207047054951F853
:10276000200004E0C16809680029F6D0006800284C
:10277000F8D170479002002070B5044601F03CFE8D
:10278000051908E000F05DFB052C01DD052000E0E7
:10279000204601F01FFE01F02FFE2C1A002CF1DC68
:1027A00070BD00002DE9FC4706005BD000F08AFCFC
:1027B0003B4C81462068B0F9228000F09FFC2168E4
:1027C00007468A8CD01B888441E000BF47F6FF7122
:1027D000304602F061FA82460146304602F032FA93
:1027E0002168054691F82C0000F0030001283FD035
:1027F000022839D000204A8C101A4884ADF8000015
:102800006A1E1044ADF80400888CADF80200A9F1EE
:1028100001010844ADF806006A465146304601F011
:1028200085FF2168BDF8020088845146304601F0DA
:102830009FFC064430780A281CD00D281AD0BDF819
:102840000000216828444884307818B1761C30781C
:102850000028BBD12068818C39448184818D21F08E
:1028600003018185BDE8FC8705EBD5704010C2E708
:102870002846C0E7206890F82C1001F003010129D8
:102880000BD0022909D0018C418431780A29DBD18F
:10289000828C02EB09018184D6E7A0F82280F4E75C
:1028A00078020020024B1B6859849A84FFF77ABF94
:1028B000780200202DE9F04107460A4815460E46E9
:1028C0000068B0F92C0040F0020001F0D9F904468C
:1028D0002A4631463846FFF7E5FF2046BDE8F0417D
:1028E00001F0CEB9780200202DE9FC4791460D4A4F
:1028F0009846DDE90A761268D36C1D18106D4418ED
:1029000000200CF079FE09E0CDE9007643464A4606
:1029100021462846FEF7C6FE0CF030FE0028F3D113
:10292000BDE8FC87780200207CB514460F4A126887
:10293000D36C1E18106D4518301BADF8000030190F
:10294000ADF80400281BADF802002819ADF8060008
:1029500068460CF051FE06E0224629463046FEF756
:1029600023FF0CF00BFE0028F6D17CBD780200207E
:102970002DE9FE431E4615468946074600F0B8FB82
:102980000446401C05EB500506EB5006A54231DB22
:10299000A6422FDB18480168C86C096D00EB0708D8
:1029A000A8EB0500ADF8040008EB050001EB0907F2
:1029B000ADF80800B81BADF80600B819ADF80A006C
:1029C00001A80CF019FE13E0AC4201D0B44206D1CC
:1029D00033462A4639464046FFF762F906E0334659
:1029E0002A46394640460094FEF710FF0CF0C6FD1B
:1029F0000028E9D1BDE8FE83780200202DE9F04FE0
:102A00000C46164987B00D68DDE91098E96C0F187F
:102A1000286D8D180619C418ADF81070ADF8145053
:102A2000ADF81260ADF8164004A80CF0E5FD0028E2
:102A300011D0DFF82CB04FF0000ACDE90098CDE9B5
:102A400002BA2B462246394630460FF089FB0CF07D
:102A500095FD0028F1D107B0BDE8F08F7802002085
:102A6000E15700082DE9F04F0C46184987B00D6872
:102A7000DDE91198E96CDDF840A00F18286D8D187C
:102A80000619C418ADF81470ADF81850ADF81660FA
:102A9000ADF81A4005A80CF0AFFD002812D04FF099
:102AA000000B0B49CDE900A9CDE902812B46224656
:102AB000CDF810B0394630460FF00FFC0CF05EFD3B
:102AC0000028EED107B0BDE8F08F000078020020AA
:102AD000E15700082DE9F04F174C87B02568DDE974
:102AE0001198EC6CDDF840A02718286DA518461841
:102AF000C418ADF81470ADF81850ADF81660ADF804
:102B00001A4005A80CF078FD002812D04FF0010BF8
:102B10000A49CDE900A9CDE9028123462A46CDF82C
:102B200010B0314638460FF0D8FB0CF027FD0028D6
:102B3000EED107B0BDE8F08F780200204D560008B6
:102B40002DE9F04F164C87B02568DDE91098EC6C44
:102B50002718286DA5184618C418ADF81070ADF8E0
:102B60001450ADF81260ADF8164004A80CF044FD06
:102B7000002811D0DFF82CB04FF0010ACDE9009801
:102B8000CDE902BA23462A46314638460FF0E8FA24
:102B90000CF0F4FC0028F1D107B0BDE8F08F000084
:102BA000780200204D5600082DE9F04107460B48F9
:102BB0000E460068C16C006D8D18C41800200CF022
:102BC0001BFD07E023462A46314638460FF008FC35
:102BD0000CF0D4FC0028F5D1BDE8F081780200208B
:102BE0002DE9F0410B4C2568EC6C2718286DA518D1
:102BF0004618C41800200CF0FFFC07E023462A46C4
:102C000031463846FEF76AFE0CF0B8FC0028F5D1D4
:102C1000BDE8F0817802002070B5094A1268D36CD3
:102C20001C18106D451800200CF0E6FC05E0294644
:102C30002046FEF7C7FF0CF0A1FC0028F7D170BDBD
:102C4000780200202DE9FC411C4C2468E66C94F8C5
:102C500018C03718206DACF1010C4518C418A7EB4B
:102C60000C001644ADF8000006EB0C00ADF80400B3
:102C7000A5EB0C00ADF8020004EB0C00ADF806006B
:102C800068460CF0B9FC15E032462946384602F099
:102C9000DDFC32462146384602F0D8FC621E691C33
:102CA000384602F09DFD621E691C304602F098FD18
:102CB0000CF064FC0028E7D1BDE8FC81780200201C
:102CC00070B51B4C05466069E0B904F12401194850
:102CD0000860084602F014F9012000F051FF0020BE
:102CE00000F04EFF144900231A4601F11800FFF7C7
:102CF0009FFC606102F0B1FEC01DC008E061FFF7FB
:102D000037FB20610D4955B1606808B1012070BDE5
:102D10000A686260084A00204C320A6070BD62682E
:102D200022B101200A600021616070BD002070BDE9
:102D3000AC020020DD3B0108A09A01085C030020E2
:102D40002DE9F0431D462DED028B85B090460E46D1
:102D5000074600246DE0024623463146684610F0DF
:102D6000D4FB02A8631C42463146814610F0CDFBDD
:102D7000684610F0C8FE484610F0C5FE9DED000AFA
:102D8000DDED020A70EE208ACDED008A9DED010A8C
:102D9000DDED030A30EE208A28EEA80AF6EE000ADE
:102DA0008DED018A08EE080A20EE200A10EE100AC6
:102DB00015F01EF941EC100B12F072FC51EC100BE7
:102DC00014F01EFB00EE100AB5EEC00AF1EE10FA88
:102DD0000BDDC8EE800A80EE801AC8EE000A8DED89
:102DE000001A80EE801A8DED011A00EE105ADDED0A
:102DF000010AB8EEC00A20EE800A13F00DF900EEC9
:102E0000105ADDED000A8146B8EEC00A20EE800AB5
:102E100013F002F936F82420414202EB090027F8AA
:102E2000240006EB84004088084407EB8401641CFE
:102E30004880404644458EDB05B0BDEC028BBDE8C2
:102E4000F08310B5002400E0012400F005F800280C
:102E5000FAD1204610BD0000064810B500680024D5
:102E600010B1804700B101240BF0DAFE00B101245B
:102E7000204610BD9802002070B51646094A126817
:102E8000D36C1C18106D451800200CF0B5FB06E043
:102E9000324629462046FEF7A5FE0CF06FFB0028BF
:102EA000F6D170BD780200202DE9FC411D46144684
:102EB0000E46074600F01CF9401C04EB500405EBDD
:102EC000500511480068C16C006D0F440644381B62
:102ED000ADF800003819ADF80400701BADF8020021
:102EE0007019ADF8060068460CF086FB07E02B462B
:102EF000224631463846FEF7D3FE0CF03FFB002851
:102F0000F5D1BDE8FC810000780200202DE9FC47E6
:102F1000164C814688462068C16C006D8E18C51815
:102F200000200CF069FB00281ED0114F20681121F1
:102F3000407C57F820000190C068426A01A8904781
:102F40005FEA000C06D03346424649460095019898
:102F5000E04705E02B46324641464846FEF7E0FE94
:102F60000CF00CFB0028E1D1BDE8FC8778020020C2
:102F7000900200202DE9FC410F4C2568EC6C2718CD
:102F8000286DA5184618C418ADF80070ADF80450A7
:102F9000ADF80260ADF8064068460CF02DFB07E086
:102FA00023462A463146384602F0D2FC0CF0E6FAB7
:102FB0000028F5D1BDE8FC817802002008B50B4659
:102FC000002805D0009281888268C08800F001F84E
:102FD00008BD10B50828029C30D008DC04FB01F4C1
:102FE00001280AD0022813D0042804D11CE010289C
:102FF00028D020282CD0002010BD04EBD30003F0F3
:103000000701105CC1F10701C84000F0010010BDCC
:1030100004EB93000621105C01EA4301C1F10601B3
:10302000C84000F0030010BD04EB5300D907105C4A
:1030300002D000F00F0010BD000910BD04FB0130EC
:10304000105C10BD481004FB003032F8100010BDB9
:10305000881004FB003052F8200010BD034951F8DD
:103060002000C1688A6A08211047000090020020F1
:1030700010B502F09DFCBDE8104002F033BD000029
:1030800002490968C9694A6800211047780200208E
:10309000024A1268D2695268104700007802002084
:1030A00010B502F08DFCBDE8104002F01BBD000021
:1030B0000021022802D2024951F820100846704728
:1030C000EC03002002480068C069407E70470000A1
:1030D0007802002070B514460D4602F0A5FC0028C9
:1030E00002D000202860206070BD01F0F1BD00001A
:1030F00001480068007E7047780200200A490020DD
:10310000096891F82C2002F00C02042A07D0082A42
:1031100001D00C2A02D1C869007E40087047C869F6
:10312000007E401E7047000078020020024951F8DE
:10313000200000690068704790020020024951F8A1
:1031400020000069406870479002002070B50D466D
:1031500010F002FA0446284610F006FA204370BD2B
:10316000124810B5016821F00101016010480121E9
:1031700081601049016000680F49884200D0FEE775
:1031800001F0B4FA0D492E20087001F039F90C480D
:1031900010F04AFB13F0E2FB04460021084600F061
:1031A0004BFD0BF04BFF204610BD0000002000E05F
:1031B00000300240C2A507F4CDB5E8B56C0200208E
:1031C000347A01201CB520B90C480068006E002834
:1031D00012D0FFF741F9009044696846FFF76CF997
:1031E000002C09D02046FFF737F9019081688968E3
:1031F000884701A8FFF760F91CBD00007802002095
:1032000001490A4600F002B801F0FFFF2DE9F04342
:1032100087B015460C465FEA000842D0002000F057
:10322000F5FC814620480068066E4046FFF714F919
:1032300000900068806900F091FC074640F6FF703E
:10324000001904D10098B0F90440B0F90650009874
:10325000611E0289ADF804401144ADF8081041899F
:10326000681E0844ADF80650ADF80A000BF048FBA4
:103270006846FFF721F901A80CF0BEF906E02A46DE
:103280002146404600F03AFB0CF078F90028F6D1D0
:10329000384600F063FC304600F084F9484600F000
:1032A000B5FC07B0BDE8F083780200202DE9FE4FA1
:1032B000834619488A46194900680C9E9846407C06
:1032C0009146002751F82040E1680968042903D09D
:1032D0002468002CF8D100E014B9FFF73BFA04464B
:1032E0000121E068C26A20469047050011D0246998
:1032F000A0688047401C02D1094C46F001060096A8
:10330000CDE9015443464A465146584600F0D6F9A5
:1033100007463846BDE8FE8F780200209002002064
:10332000B019020838B5040018D00D480068006EC6
:10333000A04201D100F008FC2046FFF78DF8009074
:10334000406908B101F01DF800980068FFF7ACF97A
:103350006846FFF7B1F82046FEF7E2FF38BD0000EF
:10336000780200202DE9FF4F83B0454CDDF840B0D6
:1033700098468A4607002BD002A901A8FFF7B5FEA0
:10338000B7F90060002E00DA0026B7F90250002DD0
:1033900000DA00252068A146407C02F05BFB019921
:1033A0000144491EB7F9040010F054FB0446D9F853
:1033B0000000407C02F054FB02990144491EB7F919
:1033C000060010F047FBA71B7F1C441B641C0BE08E
:1033D000206800263546407C02F03CFB074620680A
:1033E000407C02F03DFB0446B8F1000F01D1C4F16E
:1033F0000008002F01DD002C03DC002007B0BDE831
:10340000F08F43463A4629463046CDF800B0FFF7E4
:103410004DFF5FEA000909D000F090F88046484669
:1034200000F0C0F80027DFF85CB01FE051460598B7
:1034300088470120E2E7E11B414502DA484600F0F7
:103440009BF83FB1EA193146484600F0D5F84846A6
:10345000FFF7B8FE514605988847DBF8001009B120
:10346000002088474846FFF7CBFE4744A742E2DBEF
:103470004846FFF757FF002000F094F8BDE7000032
:10348000780200207403002038B5002460B1FEF7F4
:10349000E3FF0090006800698068804703F016FB36
:1034A00004466846FFF708F8204638BD38B5FEF7F1
:1034B000D3FF00F1180400906846FEF7FDFF204698
:1034C00038BD000038B5002418B907480068006E00
:1034D00038B1FEF7C1FF0090B0F904406846FEF72E
:1034E000EBFF204638BD00007802002038B50024EC
:1034F00018B907480068006E38B1FEF7ADFF0090BC
:10350000B0F908406846FEF7D7FF204638BD0000F6
:103510007802002038B5002418B907480068006E0A
:1035200038B1FEF799FF0090B0F906406846FEF703
:10353000C3FF204638BD00007802002038B50024C3
:1035400018B907480068006E38B1FEF785FF009093
:10355000B0F90A406846FEF7AFFF204638BD0000CC
:103560007802002010B50CF0D9FE002803D0BDE889
:10357000104000F06DB810BD38B50C4620B90848B1
:103580000068006E00280AD0FEF766FF0090B0F9D0
:103590000A10A14200DD44816846FEF78DFF38BD68
:1035A00078020020F8B5134E05003068046E0CD088
:1035B0000CB100F0C9FA0BF091FA2846FEF74CFF67
:1035C000009031680A6E1AB106E000F0BDFA0EE014
:1035D000D1E90223C1E919230D660068FFF766F8F7
:1035E0006846FEF769FF03F049F802F031FE204615
:1035F000F8BD0000780200207CB515460C4620B9C5
:1036000012480068006E00281FD0FEF725FF2DB27B
:103610000090C58024B2848002F01AFE00984069B0
:1036200080B1FEF719FF009A0190B2F9081081806D
:10363000B2F90A20C28011B10AB10480458001A804
:10364000FEF73AFF6846FEF737FF7CBD78020020A0
:1036500001490A4600F002B801F0FFFF7FB51546A8
:103660000C46060028D0FEF7F7FE40F6FF710190E9
:10367000091903D1B0F90440B0F906500289611E5E
:103680001144ADF80840ADF80C104189681E08449B
:10369000ADF80E00ADF80A5001A8FEF70DFF02A824
:1036A0000BF0AAFF06E02A462146304600F00EF94C
:1036B0000BF064FF0028F6D17FBD00002DE9FF4F1D
:1036C000DFF8E0B083B01C46DBF80010DDE91060E5
:1036D000924600274B7C3A461299FEF7A9FF050057
:1036E0005DD028698068804703F0F0F981460AFBC5
:1036F00009F0C01D4FEAD008FEF7BCFEF10705D166
:10370000C11700EB9170801000EB4000002C06DC2C
:103710001838B0FBF8F06442A04200DC0446F00721
:1037200007D10090DDE903012346524600F0A0FDD9
:103730000746002C03DC2846FEF7B6FF2FE004FB0B
:1037400008F01830F10702D0FEF7CAFD01E0FEF7DD
:10375000CCFD06001CD0FEF77FFE019005600399AA
:1037600081800499C180A0F808A04481C0F80C8031
:10377000C0E9049701A8FEF79FFE1298AE60286189
:10378000DBF80000407CA861304607B0BDE8F08F50
:103790002846FEF789FF17B13846FEF7C1FD002025
:1037A000F3E700007802002001490860704700003C
:1037B000740300202DE9F74F92B090461298FEF75F
:1037C0004BFE0B90B0F908100691B0F90A100D915C
:1037D00000680069D0F804B00BA8FEF76DFE384C05
:1037E000384D2068407C55F82000C1688A6A08215D
:1037F00090478146182801D34FF020092068407C6B
:1038000055F820000069079003C80C902E488142AB
:1038100001D0012000E000201090002000F0FAFD0F
:10382000002849D10026DDE91207B2460FAB069CFD
:103830004546761C0193FFF739FE014604FB0AF06A
:1038400001EB8002234629463846CDF800B000F04F
:10385000C5FF050030D01098D0B1DDE906134A4607
:10386000284600F089FE98B9DDE906702C46D0F8AC
:1038700010C0BCF1000F05D0294604233A46084683
:10388000E04705E00C992068884701C47F1EF9D104
:103890000020CDE90305059001200090CDE9010944
:1038A0004146034608F10108069A139801F0CAFD43
:1038B0000D98401E0D90B6D115B0BDE8F08F0000F8
:1038C0007802002090020020035B0008F8B515463E
:1038D0000E460746FEF7C0FD009000681621C0683E
:1038E000426A0020904704466846FEF7E5FD002C3A
:1038F00003D02A4631463846A047F8BDF8B51546EC
:103900000E460746FEF7A8FD009044696846FEF79C
:10391000D3FD3846FFF7B8FD0346082800DD2CB17B
:103920002A463146384611F0E7F8F8BD2A463146B6
:10393000384611F079FAF8BD70B500240DE000BFEB
:1039400031F8245000EB84065D4320F8245001EB4D
:1039500084056D885D437580641C9442F0DB70BD06
:1039600010B5002821D009B30AB3B1F90040B2F96B
:1039700000309C4200DA23460380B1F90240B2F9DC
:1039800002309C4200DA23464380B1F90440B2F988
:1039900004309C4200DD23468380B1F90610B2F961
:1039A0000620914200DC1146C18010BD11460A6814
:1039B00002604968416010BD00280BD003880B44A9
:1039C0000380838819448180418811444180C188E3
:1039D0001144C1807047000070B5104D0446D5E910
:1039E000000188420ED10E49884203D1D0E90F125E
:1039F000406C03E00C38D0E9001280682160C4E913
:103A0000012006E090E80E0084E80E000FF0C2FDF1
:103A10002860207A002800D0012070BD100400200A
:103A2000C07B01200448D0E90010814201D101206F
:103A3000704700207047000010040020054A10B5B0
:103A40000349116010F040FFBDE8104000F02CB9B0
:103A5000D9EC00089C02002070B5094C0020D4E984
:103A600000218A420AD0D2E9005610460FF09CFD90
:103A70002060314628460BF0C5FB012070BD0000D8
:103A8000E00300202DE9FC41154DDDE908742D68A7
:103A9000B5F90860864200DD3046B5F90C60964203
:103AA00000DA3246824219DBB5F90A608E4200DD47
:103AB0003146B5F90E509D4200DA2B468B420DDBA4
:103AC00000E02C46E5682D6825B1042D02D025685C
:103AD000002DF6D1CDE9007402F03CF9BDE8FC817F
:103AE00078020020B0F90220B1F906309A4213DCC6
:103AF000B1F90220B0F906309A420DDCB0F900208D
:103B0000B1F904309A4207DCB1F90010B0F90400B1
:103B1000814201DC012070470020704701460248C5
:103B200078220068FCF7E3BD78020020002801D06D
:103B300010F00CBD70470000024978220968FCF7BC
:103B4000D6BD00007802002010B502F035FB02F06F
:103B500095FDBDE810400AF0D3BE000070B50446E4
:103B60000548022C0068457C02D24474FFF7ECFF44
:103B700002480460284670BD7802002080030020BF
:103B80002DE9F041194E050019493068194F407C64
:103B900051F820108C6917F8048003D00FF0F8FD5D
:103BA00060B11FE00521FEF7C3FD06001AD000201A
:103BB000FFF7FAFD3046FEF7B9FD12E03068052147
:103BC000407CFEF7B5FD60B9AFF24B00FFF7ECFDAE
:103BD00030680849407C183151F8200008B1FEF7E0
:103BE00065FD3D554046BDE8F081000078020020AB
:103BF00090020020DC02002002F000BB02F036BB85
:103C000001498860704700006C02002002F0C6BBCA
:103C100003490968CA6900B1C861104670470000CD
:103C20007802002002F0D6BB024909688A7E8876B5
:103C30001046704778020020094A30B41080094AC3
:103C40001180094A1268537C084A52F82330DA6816
:103C5000146A0A46A446014630BC18466047000074
:103C6000A8020020AA020020780200209002002072
:103C7000024909680A7E08761046704778020020DB
:103C800003490968B1F92C20888510467047000067
:103C90007802002003490968B1F92A2048851046B6
:103CA000704700007802002002480068002800D019
:103CB00000477047F403002002498A6802B988600F
:103CC000FFF7F2BFE003002010B5040009D010F0A8
:103CD00031F9204610F0C8FE2046BDE81040FEF73E
:103CE0001FBB10BD38B50C4660B1FEF7B5FB0090A8
:103CF0008089204201D0012400E000246846FEF7BC
:103D0000DBFB00E00124204638BD000038B5054645
:103D1000002028600648046844B12046FEF79CFB5A
:103D20000090006928606846FEF7C6FB204638BD53
:103D30001804002038B504004FF000000D4608605C
:103D400011D02046FEF788FB0090846844B1684695
:103D5000FEF7B2FB2046FEF77FFB0090006928606B
:103D60006846FEF7A9FB204638BD00002DE9F84F54
:103D7000DFF89C800546274F98F818008B464107CE
:103D800038680A9E9946407C924607D401F074FE3A
:103D900004463868407C01F07BFE06E001F078FEC6
:103DA00004463868407C01F067FE002795B1A0F119
:103DB000010400BFB9EB060000D54042142806DB21
:103DC0005146BBEB0A0000D54042142804DA01201A
:103DD000BDE8F88F641EEDE70A464B465946384663
:103DE00000960FF001FE0C4F4B46524647F8350047
:103DF0005946204600960FF0F7FD07EBC5014860D5
:103E000010F046FA01210020C8F81C10E0E700007D
:103E1000FC02002078020020C47A01202DE9F0473E
:103E2000524D534E0024E86978B96868346000F058
:103E30000501746010F0060F01D000F00500B460B9
:103E4000F46010F025FA0120E8612878C8B100F08C
:103E5000D9F8A846286100F0D3F82969286A814278
:103E60000BDBD8F824204046914206DC836A426985
:103E70009A4202DBC36A9A420DDD4FF0FF300146E1
:103E80006FE000F00FF9686100F0BBF82878401C83
:103E90002870BDE8F087326898F81800354F8D1A01
:103EA000400700283868407C02DB01F0E5FD01E0B6
:103EB00001F0EEFD401E4543D6E90020B146801AD0
:103EC00095FBF0F6D8F81420D9F8081098F81800E7
:103ED000551A400700283868407C02DB01F0D8FD05
:103EE00001E001F0C9FD401E4543D9E90201081A6D
:103EF00095FBF0F598F81800400700283868407CDA
:103F000018DB01F0B9FD81463868407C01F0C0FD46
:103F1000D8F818200146D00704D0A9EB0600A0F17C
:103F2000010000E03046920702D5491B491E18E007
:103F3000294616E001F0ACFD81463868407C01F06E
:103F40009BFDD8F81820D10704D0A9EB0601A1F1F8
:103F5000010100E03146920702D5401B401E00E0FF
:103F6000284610F0DDFC88F8004092E7FC020020B3
:103F7000C47A01207802002001498861704700005E
:103F8000FC020020074A002806DB002904DB01238D
:103F90001372C2E9000101E000201072014800F034
:103FA00003B80000447B012010B504460C220749E9
:103FB000FCF7EAFA002808D0044894E80E000EC086
:103FC0002046BDE81040FFF739BD10BD087C012038
:103FD00030B40A4C2268831A01D5C3F10003626829
:103FE0008A1A00D552421A44022A04DDC4E90001AB
:103FF00030BCFFF7C7BF30BC70470000540300203F
:104000007047704710B52DED048B82B02048808832
:1040100045F21051884236D101221E49002003F09A
:104020006FFE1C48007800F01F0030B3042201A985
:10403000900103F065FE9DF807109DF8062001EB46
:10404000022013F078FC41EC190B9FED130B53EC9D
:10405000102B13F0D7FC41EC180B13F03FFC104968
:10406000888108468489B4F5F07F02DB40F2DF14D2
:1040700004E0002C02DA002400E00024204602B014
:10408000BDEC048B10BDD0200AF012F8F7E7000059
:104090002C290020B9000020D881734694F6D23F25
:1040A0000800002010B52DED048B82B020488088D8
:1040B00045F21051884237D101221E49002003F0F9
:1040C0001FFE1C48007800F01F0030B3042201A935
:1040D000900103F015FE9DF805109DF8042001EBFA
:1040E000022013F028FC41EC190B9FED130B53EC4D
:1040F000102B13F087FC41EC180B13F0EFFB104969
:10410000C8820846C48AB4F5487F02DB40F21F34F7
:1041100005E0002C03DA002401E040F21F342046C1
:1041200002B0BDEC048B10BD902009F0C1FFF7E791
:104130002C290020BA0000207B14AE47E17AD43F3E
:10414000080000202DE9F041084E0446056830685B
:1041500001682846884707463068416828468847EE
:10416000284420603846BDE8F08100007C02002031
:104170002DE9F0410C4606460025064F05E038685B
:1041800041683046884706440544641EF7D22846F5
:10419000BDE8F0817C0200202DE9F0411E46069C1E
:1041A0001746884605463A46A8687F1C3346D0F82D
:1041B00004C041462846E047641EF4D1BDE8F081C2
:1041C00070B5B0F90040091BB0F904408C422CDDF9
:1041D00000F11404B0F902500069521B02FB0040C8
:1041E000CA1800EBE104521ED010B0EBE10501F05B
:1041F00007034FF0FF0102F0070221FA03F0C2F1BA
:10420000070201FA02F1CEB221780FD001436D1EF0
:1042100004F8011B002D05DDFF2229462046FCF78E
:1042200098FA2C4420783043207070BD3040014310
:10423000217070BD10B5B0F90030B0F90240C91A54
:1042400000F114030069121B02FB003000EBE100D7
:1042500001F0070302788021D9400A43027010BDA3
:10426000B0F90610026951431430FCF77ABA000025
:104270002DE9F843804602F10F000011470003FBCF
:1042800007F01C46154689461430FEF72EF8060046
:1042900013D0FEF7E1F80090A0F80080A0F802909B
:1042A0008580C4800649816001218181076168465B
:1042B000FEF702F93046BDE8F8830020FBE7000076
:1042C000C819020870B5B0F90660B0F904400B686F
:1042D00000F11405964220DD0069A34202FB005064
:1042E00000EBE30219DAA4F101044FEAE400A0EBC9
:1042F000E30512F8010B03F0070400FA04F0C4B25E
:1043000008E055B112F8014B03F10803A5F10105CE
:1043100023F00703002CF4D008E0002070BD00BF9C
:104320004FEA44604FEA106403F101032006F7D519
:10433000FF2C0AD0184605E04FEA44644FEA1464A3
:1043400000F101006606F7D400E0D81DC4436407FD
:1043500006D007E012F8014BFF2C0FD100F1080046
:104360006D1EF7D5A0EB030000F101000B6070BDDE
:104370004FEA44624FEA126400F101002206F7D4CA
:10438000F0E738B50546FEF767F800908189491EC9
:104390000CB284816846FEF78FF8002C02D12846C3
:1043A000FDF7BEFF38BD000010B54FF4803100208E
:1043B00012F038FF04464FF480312046FDF7A8FF85
:1043C0008020FEF76BF80248FFF71AFC10BD0000D2
:1043D000CCDD010870B504464FF47A7060434FF4A9
:1043E0007A71B0FBF1F5284603F02EF870BD10B5D8
:1043F0000120FFF7EFFF10BD10B503F091F810BDDD
:1044000010B5002002F0A6FC0149086010BD0000B4
:10441000B00000200EB508B102AA00E0002200237F
:1044200001A9684600F0C6FB0EBD0000074910B5A3
:10443000CC6818B10120C860801E03E00020C8606D
:104440006FF07F4000F0ECFE204610BDDC02002043
:1044500010B5082A0EDC0346012A1AD0022A58D0C9
:10446000042A78D010F8042B03F8012B491EF9D147
:10447000012010BD102A0ADC0222022AF8D10246CD
:1044800030F8043B22F8023B491EF9D1F0E7002046
:1044900010BD10F8042BD207120E491E34D010F8AC
:1044A000044B491E04F0010442EA84122CD010F897
:1044B000044B491E04F0010442EA441224D010F8CF
:1044C000044B491E04F0010442EA04121CD010F807
:1044D000044B491E04F0010442EAC40214D010F84F
:1044E000044B491E04F0010442EA84020CD010F887
:1044F000044B491E04F0010442EA440204D010F8BF
:10450000044B04F00104224303F8012B0029C0D11D
:10451000AEE710F8042B9207120E491E15D010F8C2
:10452000044B491E04F0030442EA04120DD010F8B3
:10453000044B491E04F0030442EA840205D010F83B
:10454000044B04F003042243491E03F8012B002905
:10455000DFD18DE7FFE710F8042B1207120E491E7A
:1045600005D010F8044B04F00F042243491E03F851
:10457000012B0029EFD17BE72DE9F0411E680D46A4
:104580000446082A09DC0746012A21D0022A62D003
:10459000042A7CD0082A1AD195E0102A03DC0220D4
:1045A0000228F8D102E00020BDE8F081D3F810C065
:1045B0002746BCF1000F04D00A46214602230846D4
:1045C0008AE001CCB04727F8020B6D1EF9D18BE0D1
:1045D00001CCB047C0074FEA10686D1E36D001CC41
:1045E000B04748EA801000F0FF086D1E2ED001CCC5
:1045F000B04748EA401000F0FF086D1E26D001CCFD
:10460000B04748EA001000F0FF086D1E1ED001CC34
:10461000B04748EAC00000F0FF086D1E16D001CC7C
:10462000B04748EA800000F0FF086D1E0ED001CCB4
:10463000B04748EA400000F0FF086D1E06D001CCEC
:10464000B04740EA080000F0FF086D1E07F8018B34
:10465000002DBDD148E001CCB04780074FEA10687B
:104660006D1E18D001CCB04748EA001000F0FF08DA
:104670006D1E10D001CCB04748EA800000F0FF0862
:104680006D1E08D001CCB04740EA080000E007E00A
:1046900000F0FF086D1E07F8018B002DDBD123E031
:1046A00001CCB04700074FEA10686D1E06D001CC60
:1046B000B04740EA080000F0FF086D1E07F8018BC4
:1046C000002DEDD110E0D3F810C0BCF1000F05D0E3
:1046D0000A46014601233846E04705E001CCB047D1
:1046E00007F8010B6D1EF9D101205DE70A4810B5EE
:1046F000816900290ED101218161FFF755FE01F08A
:10470000FBFF054905481C310860BDE8104008461C
:1047100000F0F6BB10BD00006C020020B13B0108A8
:104720000149084400F0F4BB905F01007CB50646E7
:1047300028480D46006868B100200AF05DFF06E0D9
:104740006A46294630460BF09DFE0AF017FF002806
:10475000F6D17CBD106800901F4C50680190226813
:10476000BDF8000032F84C1F0844ADF80000BDF859
:10477000020091880844ADF80200BDF804001188D9
:104780000844ADF80400BDF8060091880844ADF86F
:10479000060068460AF030FF0EE000BF2068BDF852
:1047A00000106A464184BDF80210818429463046D3
:1047B0000BF068FE0AF0E2FE0028EFD1206830F826
:1047C000221F428D891A01804188C28D891A418039
:1047D0007CBD0000A4020020780200202DE9FF4FDC
:1047E00000208BB004460146009019981D461646DD
:1047F000016007AB002203A902A800F0DBF918B1A1
:1048000000200FB0BDE8F08F0798854200DD054617
:104810005C4F0A955C493868407C51F8201004913F
:1048200009690691FEF71AFC05903868407CFEF78E
:1048300085FC56498146884204D05549894501D0B6
:10484000012000E00020099001CE18998847824697
:104850005FEA106B71D0009870BB0B9800EB0408F6
:1048600048480068B0F90800404503DDA0EB0807A0
:10487000804600E000270299049801EB840101EBD7
:104880008701CDE90010DDE90A010A180C9B0892A6
:10489000521E19464046FFF7F5F801200090059892
:1048A00018280ADA0298DDE9052300EB840000EB02
:1048B0008700E91B00F0DEF810E0099870B102985B
:1048C00000EB840000EB87070898A0EB0808494636
:1048D0003868884701C7B8F10108F8D12D48C06988
:1048E00060B3DDE9020700EB840007EB8402CDE949
:1048F0000202284C361F2B46E46930460299A04735
:10490000FF203168B0EB116F02D10299096804E011
:10491000029A1268B0EB126F01D1039A11600299EA
:10492000361D091D02910399091D03916D1EE8D1E1
:1049300019990120039708601DE01EE0FFE7BBF115
:10494000FF0F0ED00298CBF1FF0250F82410504612
:1049500000F07CFA039941F82400199901200860BD
:1049600005E00298039950F8240041F82400641CE3
:104970006D1E7FF469AF039843E7039941F824A0C3
:10498000EBE700007802002090020020035B0008A3
:10499000015B00082C030020F0B500EB8104082A1D
:1049A0000ADC01264D1E092A14D2DFE802F0131496
:1049B0002A42425959595900102A0BDC0222022A74
:1049C00008D100EB410000BF30F8022D44F8042D5F
:1049D000491EF9D1F0BD05F00702C2F1070200EB54
:1049E000E50006FA02F503782B40D340521C44F848
:1049F000043DA0EBE20022F007031A41491EF0D16A
:104A0000F0BD05F00302C2F1030200EBA500032391
:104A10000578560003FA06F73D40F540521C44F86D
:104A2000045DA0EBA20022F003052A41491EEFD14C
:104A3000F0BD8E43C6F1010200EB65000F2305783F
:104A4000960003FA06F73D40F540521C44F8045D19
:104A5000A0EB620022F001052A41491EEFD1F0BD12
:104A600000EB0100491E10F8012D44F8042DF9D186
:104A7000F0BD00002DE9F05F0C1E16DD5E680146FA
:104A800000EB8405082A12DC611E012A28D0022AC4
:104A900048D0042A6AD0082A07D1071917F8010D4F
:104AA000B04745F8040D641EF8D1BDE8F09F102A08
:104AB000FBDC0222022AF8D15F693FB12246BC46E4
:104AC000BDE8F04F02235DF804EB604701EB4407BB
:104AD00037F8020DB04745F8040D641EF8D1E4E73D
:104AE00000EBE1002D1F10F801A9814601F0070736
:104AF000802020FA07F800BF0AEA0800C7F1070182
:104B0000C840B04745F804093FB17F1E4FEA4860EE
:104B1000000E8046641EEFD1C7E7072719F801A9E8
:104B20000120F6E700EBA1002D1F01F0030710F8AC
:104B300001A981467900C02020FA01F84FF0060B48
:104B40000AEA0800ABEB4701C840B04745F8040942
:104B50003FB17F1E4FEA8860000E8046641EEFD191
:104B6000A3E7032719F801A93846F6E700EB61002F
:104B700001272D1FA74310F801A98146B900F02095
:104B800020FA01F84FF0040B0AEA0800ABEB8701AA
:104B9000C840B04745F804093FB17F1E4FEA08708E
:104BA000000E8046641EEFD17FE7012719F801A9A6
:104BB0000F20F6E72DE9F047204C06461F46A06976
:104BC00090468946002540B90120A06104F12001EA
:104BD0001B480860084600F093F9606910B900F0BE
:104BE0003CFF606107B138604EB1A06830B96069C0
:104BF0008000FDF7BDFBA06000B901253060B9F170
:104C0000000F0AD0E06830B960698000FDF7B0FBA2
:104C1000E06000B90125C9F80000B8F1000F0AD022
:104C2000206930B960698000FDF7A2FB206100B9FE
:104C30000125C8F800002846BDE8F0872C030020B5
:104C4000313C010873B5124A01A9009812689047D7
:104C500000240090C8B10F4900250968C969496955
:104C600059B10A684AB1019990477CBD6846FFF77F
:104C700069FA0546FEF704FA04440198401E0190C3
:104C8000F4D5284600F032F8044420467CBD0000EC
:104C9000DC0300207802002073B50D460098002444
:104CA00090B10A490968C969496959B14A684AB164
:104CB000294690477CBD6846FFF744FA20B10A2890
:104CC00002D0641CAC42F6DB20467CBD780200209A
:104CD000044AB2F9002002600348B0F900000860FD
:104CE00070470000A8020020AA02002038B5002466
:104CF00069460094FEF7CCF90099814200DD0C1A58
:104D0000204638BDB0F90030B1F90020934200DAF6
:104D10000280B0F90230B1F90220934200DA4280F9
:104D2000B0F90430B1F90420934200DD8280B0F97B
:104D30000620B1F906108A4200DDC180704770B5C7
:104D4000B1F90040B2F900309C4200DD23460380F7
:104D5000B1F90250B2F90240A54200DD2C46448070
:104D6000B1F90460B2F90450AE4200DA35468580EC
:104D7000B1F90610B2F90620914200DB1146C1805C
:104D80009D4201DBA14201DA002070BD012070BD0F
:104D9000014602480068407C00F002B8780200201A
:104DA000F8B501260F46054602284BDA264C5FB3BC
:104DB000012F02D0022F45D116E054F8250088B902
:104DC0002846FDF7C7FC0090B8B3C0680D21426AC1
:104DD00068469047020035D039460098904754F80D
:104DE00025000026401C2BE0FDF7B4FC009020B30A
:104DF000C0680D21426A68469047020022D03946B9
:104E00000098904700261DE054F8250001280FD196
:104E10002846FDF79FFC009050B1C0680D21426A02
:104E200068469047020003D0394600989047002614
:104E300054F8250010B1012101E003E00021401ADF
:104E400044F825003046F8BDD403002070B5FF2398
:104E5000B3EB116F2CD0C3B213FB02F500F47F4407
:104E600000F47F0354435343000E10FB02F6C2F1DB
:104E7000FF00CAB212FB005201F47F4505FB00445B
:104E800001F47F0505FB0033090E11FB0065C2F339
:104E900007204FF47F024FF47F4102EA132201EA18
:104EA00014214FF07F43084303EA0543104318439E
:104EB00070BD2DE9F04F1546DDE90CB90C460646EC
:104EC0004FF0000818E00B9F4FF0FF0A01CE08CC0E
:104ED000AAEB106202FB09F2B2FBFAF1CAB2194660
:104EE000FFF7B4FF20F07F4001C57F1EEED1099887
:104EF00008F1010804EB8004D845E4D3BDE8F08F45
:104F000002494A6942604861704700006C02002013
:104F100030B5002803DA4FF0FF32404200E00122B2
:104F2000154990FBF1F301FB13004910884202DDA3
:104F300052424B421844114B984200DD081A4FF47C
:104F40007A7390FBF3F16FF07C044C4300EBC400E8
:104F50005A2902DB4FF480300AE0094C04EB81054A
:104F600054F821106D686C1A4443B4FBF3F0084404
:104F7000002A00DC404230BD407E0500905F010009
:104F8000F0FA010810B502E000F8011B521E0AB148
:104F90008307F9D1930818D001EB014402F0030212
:104FA00004EB042405E0046044608460C4601030B5
:104FB0001B1F042BF7DA01E010C05B1E002BFBD196
:104FC00003E000BF00F8011B521E002AFAD110BDF9
:104FD00010B5830702D520F8021B521E530810D0CB
:104FE00001EB0144042B08DB046044608460C4606E
:104FF00010301B1F042BF7DA01E010C05B1E002BE2
:10500000FBD1D20700D0018010BD024600204FF036
:1050100080414318934201D8D21A58184008890891
:10502000F7D1704700F58060AFF3008010B5002223
:10503000C0F30B00B0F5006F02DDA0F500600122A7
:10504000B0F5806F01DDC0F5006083110B4C00F0FE
:105050003F00C0F1400134F813004843402906D016
:1050600004EB4303C1F140015B8803FB01002030E6
:105070008009002A00D0404210BD00005C9A01085F
:1050800000BFFEE77CB5044600250020019000909B
:105090005F48008800045F4908600D204860402098
:1050A00088600020C8604FF480600861084603F003
:1050B00077F859480068009002E05748006800906F
:1050C000009800F045000028F7D0009800F0040098
:1050D00028B10325042002F0C3FF28467CBD0098B8
:1050E00000F0010028B10125012002F0B9FF284697
:1050F000F4E702F0FDFF009000980D2802D0102583
:105100002846EBE740F2FF5002F0AAFF002003F030
:1051100009F801900198C0F3432020703F4901989D
:10512000084008B92846D9E7019800F0004008B1C6
:105130001C20D3E7019800F0804008B10920CDE79A
:10514000019800F0005008B10A20C7E7019800F06C
:10515000805008B10B20C1E7019800F0006008B151
:105160000C20BBE7019800F0806008B10D20B5E786
:10517000019800F0807008B10E20AFE7019800F4AC
:10518000000008B10F20A9E7019800F4800008B1E1
:105190001020A3E7019800F4001008B111209DE74A
:1051A000019800F4801008B1122097E7019800F4EC
:1051B000002008B1132091E7019800F4802008B185
:1051C00014208BE7019800F4003008B1152085E722
:1051D000019800F4803008B116207FE7019800F4B0
:1051E000004008B1172079E7019800F4804008B129
:1051F000182073E7019800F4005008B119206DE7FA
:10520000019800F0080008B11A2067E7284665E712
:105210005000002058290020342C014008E0FFFDF8
:1052200002490A68086010467047000060030020C9
:1052300030B5014601F01F04C1F34513CA0AE50267
:1052400005EB43151544A8B230BD000070B5044607
:10525000002617480588408845431548808846F64B
:105260000401884216D112488079012812D1002009
:105270000F4988712A2048812B2088810021084607
:1052800001F006F801200A4988712B2048812A2064
:10529000888103E00021084600F0FAFF01F018FAC7
:1052A000002602E003480480761CAE42FAD370BDAB
:1052B0002C290020000008600449054A0968497C3F
:1052C00052F8211009690968084700007802002097
:1052D0009002002010B50446002C52D15849887124
:1052E000F02008804FF4A07048800846808849F27A
:1052F000413188420BD05248808846F604018842EA
:1053000005D04F48808845F2103188421AD12C20B0
:105310004B4908812A2048812B20888108468088B3
:1053200046F60401884205D04548808845F2103190
:10533000884206D14FF4A070414908804FF4F070C4
:10534000488079E03E48808845F21051884210D16B
:105350004FF430503A4908814FF4285048814FF4B7
:105360002C5088814FF4F07008804FF448704880CA
:1053700062E0222032490881202048812120888152
:105380005AE001202E4988714FF4A0700880F02067
:1053900048800846808849F24131884205D0284833
:1053A000808845F21031884207D12C202449088199
:1053B0002A2048812B2088812BE02148808846F6CE
:1053C0000401884207D12C201D4908812B204881E7
:1053D0002A2088811DE01A48808845F210518842B1
:1053E00010D14FF43050164908814FF428504881AD
:1053F0004FF42C5088814FF4487008804FF4F070BF
:10540000488006E022200E49088121204881202082
:1054100088810B48808846F60401884205D00848F8
:10542000808845F21031884206D14FF4F07004496B
:1054300008804FF4A0704880002000F063FD10BD8C
:105440002C2900202DE9F04F05468DB07C48DDF871
:1054500060901A9C00681E4617464FF0000A78B10B
:105460001B9B199ACDF808900593CDE90324DDE93B
:105470001623CDE90023046833463A46284682E0E5
:10548000DDE9160201EB060805EB070C1043A8F155
:105490000108ACF1010C012806D0C9F10800059003
:1054A000002002910890C8E066480268B2F90A300C
:1054B000581A002806DD361A002E65DD1946199B9C
:1054C00000FB0344B2F90E00A8EB0000002802DD47
:1054D000361A002E58DDB2F90C00ACEB00000028A3
:1054E00000DD3F1AB2F908300020AB4237DD581B0F
:1054F0003F1A4B46B9F1080F28D007DC012B0DD01D
:10550000022B13D0B9F1040F29D117E0102B1FD0B3
:10551000182B20D0B9F1200F21D11CE020F0070377
:1055200004EBE0041D4400F0070018E020F0030342
:1055300004EBA0041D4400F0030010E020F0010380
:1055400004EB60041D4400F0010008E0044404E0A2
:1055500004EB400401E004EB800405440020002F2C
:1055600012DD1B9BDDF864C0CDE90403CDE902C464
:10557000CDE90069527C34483B4650F82200C268AD
:1055800054680A462946A0470DB0BDE8F08F179928
:105590000298084409902B49401E00900A68B2F90D
:1055A0000A30834241DCB2F90E10029881423CDBA2
:1055B0004FF0000BD84603950B9434E0BBF1000F7D
:1055C00005D10B984FF0080B10F801AB0B90059923
:1055D000ABEB090B3AFA01F00AFA09F101F0FF0A04
:1055E00004D118490968097C890716D41549096846
:1055F000C96B0A680C921B9A0AB152F82000086025
:1056000016990398009B4218521E029900F0A0F9C7
:105610000C490C980968C96B08600399169808F141
:10562000010808440390B845C8DB0898401C08905E
:1056300009980290199804440898B042A7DBA3E7A0
:10564000A40200207802002090020020F0B40C4652
:1056500012490968B1F90A30A3421CDCB1F90E30D5
:10566000A34218DBB1F90830834200DD1846B1F9D6
:105670000C30934200DA1A4682420CDB4B7C08491C
:1056800051F8235013462246E9688E6801462846A1
:10569000B446F0BC6047F0BC7047000078020020C0
:1056A000900200202DE9FF4F84B081468A460020F9
:1056B000039002900698A0EB09050798A0EB0A0654
:1056C000CDF80490CDF800A0002D01DD012705E004
:1056D0000DB9002702E04FF0FF376D42002E02DDCA
:1056E0004FF0010806E016B94FF0000802E04FF055
:1056F000FF387642B54201DD2C4600E034464FF0DB
:10570000000B21E0009A91B2019A90B200F056F895
:105710000398284403900298304402900398A042D2
:1057200005DD0398001B039001983844019002980E
:10573000A04205DD0298001B0290009840440090B2
:105740000BF101001FFA80FB601C8345DADD08B015
:10575000BDE8F08F0A46174930B40968B1F90A303C
:10576000934225DCB1F90E30934221DBB1F90830C8
:1057700083421DDCB1F90C30834219DB0B7C0E4CEB
:10578000DB0709D0497C54F82130D968CC6901463F
:10579000A44630BC18466047CB6B497C1B6854F864
:1057A0002140E1688D6901462046AC4630BC604727
:1057B00030BC7047780200209002002030B50446CB
:1057C0000D462946204600F063FD00F081FF0248A7
:1057D00000880249088030BD0000002000000860F9
:1057E000124B30B41B68B3F9084084421CDCB3F997
:1057F0000C40844218DBB3F90A408C4200DD21469C
:10580000B3F90E40944200DA22468A420CDB5C7CFB
:10581000074B53F82440E368DD6813460A46014607
:105820002046AC4630BC604730BC70477802002050
:105830009002002070B504460D4616464248808806
:1058400049F24131884205D03F48808845F2103105
:10585000884214D13C49488900F02EFF201200F004
:105860001FFFE0B200F01CFF3749888900F024FFD9
:10587000281200F015FFE8B200F012FF5DE0324898
:10588000808845F21051884220D12F49488900F084
:1058900013FF201200F004FF2B494989491C88B2EC
:1058A00000F00AFFE0B200F0FBFE2749888900F013
:1058B00003FF281200F0F4FE23498989491C88B2AD
:1058C00000F0FAFEE8B200F0EBFE36E01E488088F9
:1058D00046F6040188421DD11B488079012804D175
:1058E00019480088401E001B84B21749488900F0FF
:1058F000E3FE201200F0D4FEE0B200F0D1FE124927
:10590000888900F0D9FE281200F0CAFEE8B200F043
:10591000C7FE12E00C488079012804D10A480088AB
:10592000401E001B84B208494889214600F0DAFE77
:1059300005498889294600F0D5FE034800890349B6
:105940000880881C068070BD2C290020FEFF07609F
:1059500038B5134C2468B4F90850854200DD284658
:10596000B4F90C50954200DA2A46824217DBB4F9AA
:105970000A508D4200DD2946B4F90E509D4200DAEE
:105980002B468B420BDB0093647C064B53F8244080
:10599000E3681D6913460A4601462046A84738BDFC
:1059A000780200209002002008210DF068BC000061
:1059B00002480068806B0068704700007802002091
:1059C00002480068C06B0068704700007802002041
:1059D000024809210068407C0DF051BC780200208B
:1059E00009210DF04CBC70B500252C462046FCF773
:1059F000B1FE00B16D1C641C022CF7DB284670BDA3
:105A000002480068407C00F003B8000078020020E3
:105A100010B5FCF79FFE002805D0C168CA6ABDE832
:105A200010400221104710BDF8B515460E4601245E
:105A3000FCF790FE009058B1C0680421426A6846A5
:105A40009047030004D02A46314600989847002426
:105A50002046F8BD03210DF012BC03200DF0C0BCA0
:105A600004210DF00CBC0000024801210068407CBC
:105A70000DF005BC7802002001210DF000BC0000F3
:105A8000024802210068407C0DF0F9BB780200203A
:105A900002210DF0F4BB00F001B800002DE9F04147
:105AA000002809D0876837B10D4E716819B10468B4
:105AB000B4F5807F02DD0020BDE8F08130688442CB
:105AC00000DD0446002507E057F82500FFF7F4FB4A
:105AD000716841F825006D1CA542F5DB7068EBE7A5
