:100000000C94AB000C94D3000C94D3000C94D3004C
:100010000C94D3000C94D3000C94D3000C94D30014
:100020000C94D3000C94D3000C94D3000C94BF1404
:100030000C94D3000C94D3000C94D3000C94D300F4
:100040000C9475140C94D3000C9443140C941D144C
:100050000C94D3000C94D3000C94D3000C94D300D4
:100060000C94D3000C94D300084AD73B3BCE016ECE
:1000700084BCBFFDC12F3D6C74319ABD56833DDAFF
:100080003D00C77F11BED9E4BB4C3E916BAAAABE0E
:10009000000000803F072C7AA5BA6CC590DA3B932C
:1000A00065FC8BBC53F810FD3C5692834DBD879D7B
:1000B0003AB63DCBC9BF5BBE73DA0FC93F05A84C4A
:1000C000CDB2D44EB93836A9020C50B99186880801
:1000D0003CA6AAAA2ABE000000803F006364696EA5
:1000E0006F70737578585B004100596F75722041CD
:1000F0006374696F6E3A000000000800020100009E
:1001000003040700000000000000000000000023BE
:10011000002600290000000000250028002B000018
:10012000000000240027002A0001020408102040DB
:1001300080010204081020010204081020040404B5
:100140000404040404020202020202030303030380
:1001500003009B15982111241FBECFEFD8E0DEBF0E
:10016000CDBF14E0A0E0B1E0ECE9FCE502C00590F1
:100170000D92AC30B107D9F726E0ACE0B4E001C095
:100180001D92A33EB207E1F710E0CAEAD0E004C036
:100190002197FE010E948826C93AD107C9F70E941B
:1001A00012160C94412E0C940000CF93DF9390E034
:1001B00080E030E020E0E8EEF3E0A4E6BAE0E90118
:1001C000CE5FDA4F4881442309F448C0443509F032
:1001D00042C0E901CD5FDA4F6881062E000C770B33
:1001E000605371096E9FA0016F9F500D7E9F500D4F
:1001F0001124E901CC5FDA4F6881062E000C770BE1
:1002000060537109A69FE001A79FD00D11244C0FE8
:100210005D1FE901CB5FDA4F6881062E000C770B7A
:1002200060537109B69FE001B79FD00D11244C0FA8
:100230005D1FE901CA5FDA4F6881062E000C770B5B
:1002400060537109460F571F841795070CF4CA01B4
:100250002C5F3F4FB4CF2F5F3F4FB1CFDF91CF9196
:100260000895BC012091EB043091EC044091E90425
:100270005091EA04422753274823572391E0452B06
:1002800009F490E0209530952623372381E0232B35
:1002900009F480E089230895BC012091E90430919C
:1002A000EA044091EB045091EC0442275327482381
:1002B000572391E0452B09F490E0209530952623B3
:1002C000372381E0232B09F480E0892308959FB729
:1002D000F894A3EDB4E09196ED91FC919297808112
:1002E00090962C91822B80839FBF08959FB7F8949E
:1002F000A3EDB4E05E96ED91FC915F9780815D96F1
:100300002C91822B80839FBF08959FB7F894A3ED13
:10031000B4E05B96ED91FC915C9780815A962C91AC
:10032000822B80839FBF08958F929F92AF92BF923E
:10033000CF92DF92EF92FF920F931F93CF93DF93B1
:10034000D0E0C0E0D12C082F880F110B8BE0E82EF5
:10035000F12C812C912C54018394CC2EC8010C2EAD
:1003600002C0959587950A94E2F780FF3FC00E94EE
:1003700076018FB7F894E091EE04F091EF042081BC
:100380009091ED049095922390838FBFC7010197C0
:10039000F1F7E091F704F091F80480819091F60470
:1003A000892351F0D501C40104C0880F991FAA1FE9
:1003B000BB1FCA94D2F7D82A0E9485012196C83063
:1003C000D10559F60E94760187E090E00197F1F798
:1003D0008D2DDF91CF911F910F91FF90EF90DF90C6
:1003E000CF90BF90AF909F908F9008959FB7F89453
:1003F000E091F104F091F20420818091F004809565
:10040000822380839FBFB5CF9FB7F894A3EDB4E05C
:100410009196ED91FC919297208190968C91809588
:10042000822380839FBF0895AF92BF92CF92DF92C5
:10043000EF92FF920F931F93CF93DF936C017B0199
:100440008B01040F151FEB015E01AE18BF08C0172A
:10045000D10759F06991D601ED91FC910190F0819D
:10046000E02DC6010995892B79F7C501DF91CF9160
:100470001F910F91FF90EF90DF90CF90BF90AF90C2
:100480000895FC01538D448D252F30E0842F90E09A
:10049000821B930B541710F0CF960895019708957F
:1004A000FC01918D828D981761F0A28DAE0FBF2F48
:1004B000B11D5D968C91928D9F5F9F73928F90E09E
:1004C00008958FEF9FEF0895FC01918D828D98170D
:1004D00031F0828DE80FF11D858D90E008958FEF4A
:1004E0009FEF0895FC01918D228D892F90E0805C13
:1004F0009F4F821B91098F739927089586EF95E08E
:100500000E94720221E0892B09F420E0822F0895D5
:10051000FC01A48DA80FB92FB11DA35ABF4F2C9178
:10052000848D90E001968F739927848FA689B7896F
:100530002C93A089B1898C91837080648C93938D66
:10054000848D981306C00288F389E02D80818F7D09
:1005500080830895EF92FF920F931F93CF93DF93C1
:10056000EC0181E0888F9B8D8C8D98131AC0E889EF
:10057000F989808185FF15C09FB7F894EE89FF89BE
:100580006083E889F98980818370806480839FBF5C
:1005900081E090E0DF91CF911F910F91FF90EF905C
:1005A0000895F62E0B8D10E00F5F1F4F0F7311276C
:1005B000E02E8C8D8E110CC00FB607FCFACFE889A7
:1005C000F989808185FFF5CFCE010E948802F1CFA5
:1005D000EB8DEC0FFD2FF11DE35AFF4FF0829FB71B
:1005E000F8940B8FEA89FB8980818062CFCFCF930B
:1005F000DF93EC01888D8823B9F0AA89BB89E8894B
:10060000F9898C9185FD03C0808186FD0DC00FB6F0
:1006100007FCF7CF8C9185FFF2CF808185FFEDCF6E
:10062000CE010E948802E9CFDF91CF91089590E03A
:10063000FC01E950FF4F2491FC01E75DFE4F34912E
:10064000FC01E35CFE4FE491EE23C9F0222339F074
:10065000233001F1A8F4213019F1223029F1F0E022
:10066000EE0FFF1FEB5EFE4FA591B4918FB7F8948C
:10067000EC91611126C030953E233C938FBF0895C5
:100680002730A9F02830C9F0243049F78091800044
:100690008F7D03C0809180008F7780938000DFCFB3
:1006A00084B58F7784BDDBCF84B58F7DFBCF809100
:1006B000B0008F778093B000D2CF8091B0008F7D53
:1006C000F9CF3E2BDACFCF93DF9390E0FC01E75DCB
:1006D000FE4F2491835C9E4FFC0184918823C9F0D6
:1006E00090E0880F991FFC01E15EFE4FA591B49147
:1006F000FC01EB5EFE4FC591D49161110DC09FB717
:10070000F8948C91209582238C93888128232883C8
:100710009FBFDF91CF910895623051F49FB7F89455
:100720003C91822F809583238C93E8812E2BEFCFF1
:100730008FB7F894EC912E2B2C938FBFEACF3FB755
:10074000F89480911F0490912004A0912104B0910D
:10075000220426B5A89B05C02F3F19F00196A11DC4
:10076000B11D3FBFBA2FA92F982F8827BC01CD01FB
:10077000620F711D811D911D42E0660F771F881F5A
:10078000991F4A95D1F708958F929F92AF92BF9289
:10079000CF92DF92EF92FF926B017C010E949F0348
:1007A0004B015C01C114D104E104F104B9F00E94D1
:1007B0009F03681979098A099B09683E734081057E
:1007C000910580F321E0C21AD108E108F10888EE12
:1007D000880E83E0981EA11CB11CE4CFFF90EF901F
:1007E000DF90CF90BF90AF909F908F900895EF9241
:1007F000FF920F931F93CF93DF937C01062F0E94EC
:10080000040287E090E00197F1F7E70110E0CE01E4
:100810008E199F098017910724F489910E949401F1
:10082000F6CF0E9467016091FD0470E090E080E0E7
:10083000DF91CF911F910F91FF90EF900C94C40323
:1008400065E08AE691E00E94F70369E081E691E0C5
:100850000E94F7038091FF04882329F065E08CE56E
:1008600091E00E94F70380910005882329F069E058
:1008700083E591E00E94F70369E08AE491E00C943B
:10088000F7032FB7F89460911B0470911C048091BA
:100890001D0490911E042FBF0895DC01EC91EC30F3
:1008A00090F511968C91119728E830E0281B3109BA
:1008B00087FD3395220F331F220F331F62177307F3
:1008C00084F012968C9128E532E0281B310987FDCF
:1008D0003395220F331F220F331F621773070CF457
:1008E0009B0122503109220F331F4FB7F8948E2FEE
:1008F00090E0FC01EE0FFF1FE80FF91FED56F94FD6
:10090000328321834FBF0895892B79F410928000A0
:1009100082E0809381001092850010928400B19A49
:1009200080916F00826080936F0008950F931F93F2
:10093000CF93DB01FC0101E010E02081222339F19B
:100940003C91231322C09D01D901CC912F5F3F4FD1
:10095000CC2371F0AF014F5F5F4FE081CE1799F06C
:10096000261B370BF801E21BF30BE40FF51FDB012D
:100970002C912111E2CF9F01281B390BC901CF9186
:100980001F910F910895FA01DFCF3196D6CF90E0F5
:1009900080E0F5CF61E0FC0187810C94170360E0F3
:1009A000FC0187810C9417038EBD00000DB407FE77
:1009B000FDCF8EB50895862F0C94D40484E08093E7
:1009C000BE0688EB96E00E94CF0489EB0E94D40417
:1009D00088EB96E00E94CA048FE090E00197F1F75F
:1009E0009FB7F89480910105882319F08150809376
:1009F000010580910105811103C08CB58F7B8CBDF1
:100A00009FBF0895CF9388EB96E00E94CF0485E0C6
:100A10000E94D4048FEF0E94D404C82F88EB96E084
:100A20000E94CA048C2F8170CF910895CF92DF92DB
:100A3000EF92FF920F931F93CF93DF93CDB7DEB763
:100A400028970FB6F894DEBF0FBECDBFC090BC068E
:100A5000D090BD06F12CE12C88EB96E00E94CF04EB
:100A600085E00E94D40480E00E94D40480FD14C07C
:100A700088EB96E00E94CA0481E028960FB6F894AD
:100A8000DEBF0FBECDBFDF91CF911F910F91FF90C1
:100A9000EF90DF90CF9008950E944104C114D104DB
:100AA000E104F10469F009811A812B813C81601B0A
:100AB000710B820B930B6C157D058E059F0598F2CB
:100AC00088EB96E00E94CA0480E0D7CFEF92FF92B5
:100AD0000F931F93CF93DF93C72FD82F7A018901EC
:100AE0000E941605882351F188EB96E00E94CF04FE
:100AF00083E00E94D4048D2F0E94D4048C2F0E9486
:100B0000D40480E00E94D404E701E00EF11E80E0EE
:100B10000E94D4048993CE15DF05C9F788EB96E0CF
:100B20000E94CA040E9402058111FCCFC801DF9116
:100B3000CF911F910F91FF90EF90089510E000E08A
:100B4000F5CFCF938AE08093BF0662E08CE00E94ED
:100B50006303CFB7F89480910105811127C0E7E4C2
:100B6000F1E08491E3E3F1E09491E82FF0E0EE0FFF
:100B7000FF1FE15EFE4FA591B491EC91E92321F4B2
:100B800061E08AE00E94170361E08AE00E9463034B
:100B90008CB580618CBD8CB580648CBD61E08DE0CE
:100BA0000E94630361E08BE00E9463038091010572
:100BB0008F5F80930105CFBF8CB58F7D8CBD8CB5C9
:100BC0008C7F8CBD8DB581608DBD8CB5837F8CBDD8
:100BD00088EB96E00E94CA0488EC90E09093BD06F2
:100BE0008093BC0684E08093BE0688EB96E00E946A
:100BF000CF048BEA0E94D40488EB96E00E94CA04DA
:100C00008FE090E00197F1F786E08093BE0681E0E7
:100C1000CF91089588EB96E00E94CF048091BE06A4
:100C20000E94D40488EB96E00C94CA04CF93DF931F
:100C3000C72FD82F0E940A0688EB96E00E94CF04A7
:100C400080E20E94D4048D2F0E94D4048C2F0E9435
:100C5000D40480E00E94D40488EB96E00E94CA0489
:100C60000E9402058111FCCF81E0DF91CF910895B0
:100C70008F929F92AF92BF92CF92DF92EF92FF92AC
:100C80001F93CF93DF93CDB7DEB729970FB6F894B4
:100C9000DEBF0FBECDBF0E944104C090F904D090CA
:100CA000FA04E090FB04F090FC046C197D098E09B5
:100CB0009F090E94AE216B017C0120E030E84BEBE4
:100CC00054E40E940925181614F40E94200460912F
:100CD000FD0470E090E080E00E94B0214B015C01D7
:100CE000AC019B01C701B6010E94A92187FF0AC080
:100CF000A7019601C501B4010E943A230E94542421
:100D00000E94C403FE01339687E0DF011D928A959D
:100D1000E9F781E0898382E48A8315E027E0C22E27
:100D2000D12C7E01BAE0EB0EF11C0E9476010E94EC
:100D300085010E940402C6010197F1F7FE01319678
:100D40005F0193ED892E94E0992ED5018D915D017F
:100D50000E949401F40181934F01AE14BF04A9F7DE
:100D60008091D404893779F48CEDA82E84E0B82ED4
:100D700080E00E949401D5018D935D01B8EEAB1621
:100D8000B4E0BB06A9F70E9467018091D404807F7C
:100D9000803761F00E9420046091FD0470E090E0D3
:100DA00080E00E94C403115009F0BFCF8091D404A9
:100DB000807F803739F08091FD048A3018F48F5F8E
:100DC0008093FD048091EB049091EC049093EA04ED
:100DD0008093E9048091D6049091D7049093EC0419
:100DE0008093EB040E9441046093F9047093FA0429
:100DF0008093FB049093FC0429960FB6F894DEBF11
:100E00000FBECDBFDF91CF911F91FF90EF90DF908C
:100E1000CF90BF90AF909F908F9008954F925F9228
:100E20006F927F928F929F92AF92BF92CF92DF92FA
:100E3000EF92FF920F931F93CF93DF93CDB7DEB75F
:100E4000A0970FB6F894DEBF0FBECDBF29833A83BB
:100E50004B835C832701A98EBA8ECB8EDC8E20E07B
:100E600030E040E251E40E940F226B017C0120E05F
:100E700030E040E251E469817A818B819C810E945B
:100E80000F224B015C0120E030E040E251E4C80158
:100E9000B2010E940F222B013C018091AA05909182
:100EA000AB05A091AC05B091AD0589839A83AB8366
:100EB000BC838091B6059091B705A091B805B0911B
:100EC000B9058D839E83AF83B88720E030E0A90108
:100ED000C701B6010E94A921882309F4A4C2A50173
:100EE0009401C701B6010E94DB230E94A72320E0E2
:100EF00030E044E353E40E940F222AED3FE049E44E
:100F000050E40E94DB23698B7A8B8B8B9C8BA7012F
:100F10009601C701B6010E940F226B017C01A50159
:100F20009401C501B4010E940F229B01AC01C701CD
:100F3000B6010E943B230E9424254B015C012AED4F
:100F40003FE049E450E4698D7A8D8B8D9C8D0E9441
:100F50000F2220E030E044E353E40E94DB236B01E6
:100F60007C010E94D6236D877E878F87988B29818D
:100F70003A814B815C81C301B2010E943A232B016B
:100F80003C01C701B6010E9416259B01AC016D8191
:100F90007E818F8198850E940F229B01AC01C30145
:100FA000B2010E943A2369877A878B879C872981BF
:100FB0003A814B815C8150580E94A92187FD38C23B
:100FC000C090AE05D090AF05E090B005F090B105AF
:100FD0008091B2059091B305A091B405B091B5058B
:100FE00089839A83AB83BC832D853E854F85588941
:100FF0006D817E818F8198850E940F229B01AC01BB
:10100000C501B4010E943A232B013C01AC019B01B4
:101010000E940F224B015C0129853A854B855C8536
:10102000CA01B9010E940F229B01AC01C501B401A4
:101030000E943B236D837E838F8398870E942425A3
:101040004B015C0129813A814B815C81C701B6016A
:101050000E943B239B01AC01C501B4010E940925FC
:1010600018160CF4E8C1A5019401C301B2010E9455
:10107000DB230E9429236D8F7E8F8F8F98A3A7017A
:101080009601C701B6010E940F226D877E878F8768
:10109000988B29813A814B815C81CA01B9010E94F8
:1010A0000F226D8B7E8B8F8B988FA7019601C701C6
:1010B000B6010E943B232B013C012D853E854F85C7
:1010C00058896D817E818F8198850E943B232D896F
:1010D0003E894F89588D0E943A236B017C01A30100
:1010E0009201C501B4010E940F229B01AC01C7010E
:1010F000B6010E94DB236B017C0120E030E040E878
:101100005FE30E94092518160CF498C120E030E036
:1011100040E85FEBC701B6010E94A92187FD8EC19F
:1011200020E030E0A90169857A858B859C850E9445
:10113000A921812C912C90E8A92E9FE3B92E87FF3D
:1011400006C0812C912C80E8A82E8FEBB82EC70109
:10115000B6010E9429236B017C01A50194016D8DCC
:101160007E8D8F8D98A10E940F22A70196010E946B
:101170003B2320E030E044E353E40E940F222AEDB9
:101180003FE049E450E40E94DB236B017C0120E056
:1011900030E044E353E40E94092518160CF451C1D1
:1011A00020E030E0A901C701B6010E94A92187FD16
:1011B00048C12D853E854F8558896D817E818F81FF
:1011C00098850E943A232D893E894F89588D0E9427
:1011D0003A234B015C01B7FAB094B7F8B094A3017D
:1011E000920169817A818B819C810E940F229B01EF
:1011F000AC01C501B4010E94DB234B015C0120E07E
:1012000030E040E85FE30E94092518160CF41CC189
:1012100020E030E040E85FEBC501B4010E94A92165
:1012200087FD12C1C501B4010E94292320E030E0EE
:1012300044E353E40E940F222AED3FE049E450E4E6
:101240000E94DB239B01AC0160E070E084E393E447
:101250000E943A234B015C0120E030E047E053E478
:101260000E94092518160CF4F2C020E030E047E097
:1012700053ECC501B4010E94A92187FDE8C0A70174
:101280009601698D7A8D8B8D9C8D0E943A23A501E4
:1012900094010E943B232B013C0120E030E044EB11
:1012A00052E40E94092518160CF4D4C020E030E066
:1012B00044EB52ECC301B2010E94A92187FDCAC0D0
:1012C00089899A89AB89BC898093BA059093BB05BB
:1012D000A093BC05B093BD0520E030E044EB52E4A0
:1012E000C701B6010E943A236B017C01C092BE0582
:1012F000D092BF05E092C005F092C1058092C20570
:101300009092C305A092C405B092C5054092C6054F
:101310005092C7056092C8057092C90520E030E080
:101320004AEF54E469897A898B899C890E940F224B
:1013300020E030E047E853E40E94DB239B01AC014E
:1013400060E070E88BEB94E40E943A230E944D2405
:101350007093EB056093EA0520E030E04AEF54E437
:10136000C701B6010E940F2220E030E047E853E4B5
:101370000E94DB2320E030E84BEB54E40E943B2347
:101380000E944D247093ED056093EC0520E030E061
:101390004AEF54E4C501B4010E940F2220E030E07E
:1013A00047E853E40E94DB2320E030E84BEB54E4B1
:1013B0000E943B230E944D247093EF056093EE053D
:1013C00020E030E04AEF54E4C301B2010E940F2252
:1013D00020E030E047E853E40E94DB2320E030E8DF
:1013E0004BEB54E40E943B230E944D247093F10583
:1013F0006093F00590E080E0A0960FB6F894DEBF11
:101400000FBECDBFDF91CF911F910F91FF90EF9055
:10141000DF90CF90BF90AF909F908F907F906F9014
:101420005F904F900895198A1A8A1B8A1C8A6FCD83
:1014300081E090E0E1CF82E090E0DECF83E090E0D9
:10144000DBCF84E090E0D8CF85E090E0D5CF86E098
:1014500090E0D2CF87E090E0CFCFFC010190002058
:10146000E9F73197AF01481B590BBC0186EF95E0B6
:101470000C9414028F929F92AF92BF920F931F937E
:10148000CF93DF93CDB7DEB7A1970FB6F894DEBF49
:101490000FBECDBF19A2423008F44AE08E010F5DA5
:1014A0001F4F842E912CB12CA12CA50194010E94D8
:1014B0000723E62FB901CA01EA30F4F4E05DD80150
:1014C000EE938D01232B242B252B79F790E080E0E0
:1014D000109719F0CD010E942D0AA1960FB6F8942D
:1014E000DEBF0FBECDBFDF91CF911F910F91BF9097
:1014F000AF909F908F900895E95CE1CFCF93DF93F9
:101500000E942D0AEC0180EA91E00E942D0A8C0FC6
:101510009D1FDF91CF9108953F924F925F926F92FE
:101520007F928F929F92AF92BF92CF92DF92EF9273
:10153000FF920F931F93CF93DF936A0179014B01C1
:101540005C01820E931EA11CB11C892C9A2CAB2C21
:10155000BB242401672F782F892F9927EB0110E0F6
:1015600000E0C415D50578F50E941605882309F416
:101570005FC00E940A0688EB96E00E94CF0482E0DA
:101580000E94D4048D2F0E94D4048C2F0E94D40476
:1015900080E00E94D404312C3601600E711EF301EC
:1015A000E30DF11D80810E94D40481E0830D9FEF43
:1015B000391207C0139588EB96E00E94CA04219661
:1015C000D0CF382EECCF0E151F0568F50E941605FA
:1015D000882371F10E940A0688EB96E00E94CF04EE
:1015E00082E00E94D404892D0E94D404882D0E9498
:1015F000D40480E00E94D404B12CE701C01BD10BBD
:101600008B2D90E0C817D90750F08C0D9D1DFC0163
:10161000E00FF11F80810E94D404B394F1CF88EBD6
:1016200096E00E94CA040E9402058111FCCF870146
:10163000C801DF91CF911F910F91FF90EF90DF9044
:10164000CF90BF90AF909F908F907F906F905F9062
:101650004F903F9008950E94A10560E070EF8FEFDA
:101660009FEF0E94160627E330E04AE254E060E074
:1016700070EF8FEF9FEF0E948C0A0C94DE042F9284
:101680003F924F925F926F927F928F929F92AF9212
:10169000BF92CF92DF92EF92FF920F931F93CF935F
:1016A000DF9300D000D0CDB7DEB79C838B83FC01E5
:1016B0008081833261F48481803549F4858181326F
:1016C00031F464EF71E080E090E00E94C4038B810C
:1016D0009C810E947E0A2091160430911704EB81B0
:1016E000FC818081232B09F441C0833241F5848140
:1016F000803529F58185813211F521812053330B05
:1017000044E6429FC001439F900D11242281FAE0DC
:101710002F9F800D911D1124805E9140EB81FC81F3
:1017200023812053330B820F931F909315048093D2
:101730001404892B21F410921704109216040F90B0
:101740000F900F900F90DF91CF911F910F91FF900D
:10175000EF90DF90CF90BF90AF909F908F907F9051
:101760006F905F904F903F902F900895833209F0D3
:10177000AEC1EB81FC818481803509F0ABC18581EC
:10178000833509F059C18681833409F0A3C187816B
:101790008B3409F09FC181818053990B34E6389FC7
:1017A0008001399F100D112482818053990B2AE00A
:1017B000289FA001299F500D1124040F151F83811C
:1017C0008053990B080F191F1093150400931404EC
:1017D0000630110508F0B3CF81858053990B389FEF
:1017E0007001399FF00C112482858053990B289F3A
:1017F000A001299F500D1124E40EF51E838580530E
:10180000990BE80EF91EFFE7EF16F1040CF097CFE5
:101810006801CC0CDD1CC601800F911F9C01235375
:10182000394F5901F90180818C3008F04CC0F80122
:10183000E258FE4F908061E0892D0E946303F5011C
:101840008081282F30E0F901EE0FFF1FE20FF31F18
:10185000ED56F94F292D2F739081907C922B908318
:10186000F501118212822CE0622F0E949125829F45
:10187000B001112430E020E0AB01420F531FFA0108
:10188000EE0FFF1FE40FF51FED56F94F908196FD07
:1018900008C02F5F3F4F2C30310571F790E00E9458
:1018A0008404F601E00FF11FE353F94FE0818E2F1E
:1018B00090E0FC01EE0FFF1FE80FF91FED56F94F06
:1018C000808180648083EB81FC8180858B3209F08C
:1018D00077C08CE0809F9001819F300D11242E5F96
:1018E0003E4F3A8329838601065D1B4FF80161A5AF
:1018F00072A5072E000C880B990B0E94B0219B014A
:10190000AC01E981FA8162817381848195810E94B1
:101910003A234B015C01B7010F2C000C880B990B8B
:101920000E94B0219B01AC01C501B4010E943B2380
:10193000E981FA816283738384839583F801F2A637
:10194000E1A60E942B0B80911404909115042CE0C9
:10195000289FA001299F500D11244E5F5E4F5A838E
:10196000498340E050E86BEB74E4E981FA814283FB
:10197000538364837583880F991FFC01E65DFB4FD9
:1019800061A572A5CB0184529A4FE981FA819183B6
:10199000808384E690E097838683072E000C880B73
:1019A000990B0E94B02120E030E040EA50E40E9410
:1019B000DB23E981FA816087718782879387BFCEB5
:1019C0008D3209F0BECF8CE0809F9001819F300D59
:1019D00011242E5F3E4F3A8329838601065D1B4FFB
:1019E000F80161A572A5072E000C880B990B0E94C7
:1019F000B0219B01AC01E981FA816281738184810C
:101A000095810E943A234B015C01B7010F2C000C19
:101A1000880B990B0E94B0219B01AC01C501B40158
:101A20000E943A23E981FA816283738384839583D8
:101A3000F194E194F10882CF843409F04BC0EB813A
:101A4000FC818681833509F045C08781843509F0A2
:101A500041C021812053330B44E6429FC001439F84
:101A6000900D11242281FAE02F9F800D911D1124E9
:101A7000805E9140EB81FC8123812053330B820FE8
:101A8000931F90931504809314048630910508F0F9
:101A900056CE2CE0289FA001299F500D11244E5FA7
:101AA0005E4F5A8349838FE692E1A3E8BAE3FA01D5
:101AB00080879187A287B3876281738184819581B2
:101AC0000E945424E981FA817183608338CE8B3778
:101AD00009F035CEEB81FC8101900020E9F73197C8
:101AE0004F012B813C81821A930A109215041092A7
:101AF0001404109213041092120410921104109204
:101B0000100410920F0410920E04C0900C04D09098
:101B10000D04B12CA12C30E020E090E080E02815ED
:101B2000390508F043C1EB81FC81E20FF31F4081CE
:101B300089010F5F1F4F4332B9F4EB81FC81E00F45
:101B4000F11F4081403561F18016910641F15AE064
:101B5000589F9001599F300D1124C901C097840FDF
:101B6000911D0F5F1F4FE9CF403501F5EB81FC81DF
:101B7000E00FF11F4081443599F08016910679F00D
:101B8000EAE0EA9D9001EB9D300D11245901F0E34C
:101B9000AF1AB108A40EB11C0F5F1F4FE7CF84012D
:101BA0009801215031092F5F3F4FB9CF4435D9F704
:101BB000F12CE12CEB81FC81E00FF11F40814132DF
:101BC00091F08016910679F05AE05E9D90015F9D3C
:101BD000300D11247901E0E3EE1AF108E40EF11C56
:101BE0000F5F1F4FE7CFF4E1EF16F10418F464E143
:101BF000E62EF12C8F3F910509F062C0C501845F8C
:101C00009140813D974008F055C030E1E31637E23E
:101C1000F30608F04FC0C70164E170E00E949D2503
:101C200090E080E00E94AE212B013C0143E554E0AE
:101C30005A83498352E0252E51E0352EE981FA81FD
:101C4000C190D190FA83E983CA0CDB1CF4EFCF1664
:101C5000F1E0DF0620F444EFC42EDD24D39425EC1C
:101C6000C21629E0D20620F034ECC32E39E0D32E80
:101C7000F101D182C082F782E682B60190E080E075
:101C80000E94AE21F10122813381448155810E945D
:101C90003A23A30192010E94DB23F101608771873F
:101CA00082879387FCE02F0E311C29813A812F55C2
:101CB000344021F69801B12CA12C90E080E073CF44
:101CC00086309105B8F79501245F3140213D3740BA
:101CD00088F7E1E1EE16E7E2FE0660F7FC01EE0FA1
:101CE000FF1FE65DFB4F21A532A5A20EB31EF5EC4A
:101CF000AF16F9E0BF0608F04CC02CE0289FF001B9
:101D0000299FF00D1124EE5FFE4FB182A0825CE0AE
:101D1000589FF001599FF00D1124EE5FFE4F208176
:101D20003181243F314020F424EF31E0318320839E
:101D30004CE0489F9001499F300D1124C9018E5FEE
:101D40009E4F5C01FC01F782E6826081718190E028
:101D500080E00E94AE21F5012281338144815581CA
:101D60000E943A232B013C01C70164E170E00E940C
:101D70009D2590E080E00E94AE219B01AC01C30153
:101D8000B2010E94DB23F501608771878287938708
:101D900091CF3CE0389FF001399FF00D1124EE5FA8
:101DA000FE4F44EC59E051834083B1CF909315042A
:101DB0008093140430930F0420930E04B092130404
:101DC000A0921204D0920D04C0920C04109211043F
:101DD00010921004B4CCCF93DF93EC010E94A105C4
:101DE000BE01DD0F880B990B29E0660F771F881F56
:101DF000991F2A95D1F727EA30E042E055E00E948A
:101E000066050E94D500E3E7F4E080839183990F93
:101E1000990B909375049093760490937704909324
:101E200078049093790490937A0482E095E00E947C
:101E30003F0BDF91CF910C94DE04FC0180819181F6
:101E4000009711F00C942A2708952F923F924F92F9
:101E50005F926F927F928F929F92AF92BF92CF923A
:101E6000DF92EF92FF920F931F93CF93DF93CDB743
:101E7000DEB72C970FB6F894DEBF0FBECDBF6983D7
:101E80007A838B839C8329013A01ED82FE820F8342
:101E90001887C986DA86312C212C912C812C1C863E
:101EA0001B862B853C85B901330F880B990B0E944B
:101EB000B0215B016C01ED80FE800F811885A301CC
:101EC000920169817A818B819C810E940E07892B06
:101ED00049F48B859C85881599050CF44C012224C6
:101EE0002394312CEB85FC853197FC87EB87E83711
:101EF000FF4FB9F62114310409F47FC0B401990CE5
:101F0000880B990B0E94B0215B016C01ED80FE8073
:101F10000F811885A301920169817A818B819C814F
:101F20000E940E0749845A84B20190E080E00E942A
:101F3000AE2120E030E040EA51E40E94DB234B0177
:101F40005C010AEE15E082E091E09C878B87712CA2
:101F5000612C83EAE82E81E0F82E93E8C92E94E004
:101F6000D92EF801F081F983F801F181FD830E5F2C
:101F70001F4F69817F2FEB85FC85718360835782BA
:101F8000468290E080E00E94AE21EB85FC852281B4
:101F90003381448155810E943A23A50194010E9416
:101FA000DB23EB85FC856087718782879387FA85C1
:101FB000FF9329852F933D813F9389818F937F9252
:101FC0006F92FF92EF92DF92CF920E94982883E85F
:101FD00094E00E942D0A9FEF691A790AEB85FC852F
:101FE0003C96FC87EB870FB6F894DEBF0FBECDBFE3
:101FF00034E06316710409F0B4CFC1012C960FB61A
:10200000F894DEBF0FBECDBFDF91CF911F910F912E
:10201000FF90EF90DF90CF90BF90AF909F908F9008
:102020007F906F905F904F903F902F900895FC01AC
:1020300024813581FB014481558124173507E1F462
:10204000FC0180819181FB01608171810097D1F059
:1020500061157105A1F4232BC1F0FC01808190E092
:1020600008C0232B91F0FB01808190E09195819530
:10207000910921E0892B09F020E0822F08950E9428
:102080007928F7CF6115710561F721E0F6CF0F933D
:102090001F93CF93DF93EC0188819981009759F0CA
:1020A0002A813B812617370730F081E0DF91CF91FD
:1020B0001F910F9108958B016F5F7F4F0E94B3278F
:1020C000009759F0998388831B830A832C813D8173
:1020D000232B59F7FC011082E8CF80E0E7CFEF9285
:1020E000FF920F931F93CF93DF93EC017B018A0143
:1020F000BA010E94471028813981811114C021152D
:10210000310519F0C9010E942A27198218821D82FF
:102110001C821B821A82CE01DF91CF911F910F91F9
:10212000FF90EF9008951D830C83B701C9010E94B1
:102130008228F1CF50E040E062EA71E00C946F1029
:10214000FC01118210821382128215821482F6E041
:10215000813C9F0769F06091C1067091C2066115CC
:10216000710531F04091C5065091C6060C946F1070
:102170000895FC011182108213821282158214824A
:10218000FB0101900020E9F73197AF01461B570B87
:102190000C946F10BF92CF92DF92EF92FF920F9349
:1021A0001F93CF93DF9300D0CDB7DEB782E0D82E58
:1021B00001E093E0C92E24E0B22E86EF95E00E9464
:1021C0007202892B09F4A1C086EF95E00E945002AB
:1021D000182F8093180480916804811196C0809113
:1021E0006504811115C01C3309F04AC0B092650422
:1021F0000E944104609361047093620480936304BD
:10220000909364040093D20487EC96E00E949A10A5
:1022100019831A82E090CB06F090CC068FEFE81A73
:10222000F80AB70187EC96E00E944710882399F0DE
:102230002091C7063091C8068091CB069091CC06BC
:10224000BE016F5F7F4F820F931F0E948228F09222
:10225000CC06E092CB0680916504843009F51E33EC
:1022600011F4009368048091CB069091CC06883AD3
:10227000910508F4A2CF87EC96E00E949A109DCFBA
:102280001B3719F4C0926504BFCF143219F40093C0
:102290006504BACF133209F0B7CFD0926504B4CF3A
:1022A000833019F41D37F9F6DCCF813039F511325E
:1022B000D1F66091C7067091C8066115710549F0A5
:1022C0004091CB065091CC0681EC96E00E946F10B5
:1022D000C8CF8091C1069091C206009711F00E946C
:1022E0002A271092C2061092C1061092C6061092BA
:1022F000C5061092C4061092C306B3CF823009F00F
:10230000B2CF113209F0AFCFACCF0F900F90DF9169
:10231000CF911F910F91FF90EF90DF90CF90BF90E2
:1023200008950E947E0281110C94CA1008954F9264
:102330005F926F927F928F929F92AF92BF92CF9255
:10234000DF92EF92FF920F931F93CF93DF93CDB75E
:10235000DEB72C970FB6F894DEBF0FBECDBF6C0171
:1023600065EB71E00E9496048C0185EB91E001150C
:10237000110509F048C06BEB71E0C6010E9496049C
:10238000892BC9F0F80109952C960FB6F894DEBF99
:102390000FBECDBFDF91CF911F910F91FF90EF90B6
:1023A000DF90CF90BF90AF909F908F907F906F9075
:1023B0005F904F90089561EC71E0C6010E94960411
:1023C000892B21F187EC91E00E947E0AD12CC12C4F
:1023D00002E011E0F6E0CF16D10484F4F801628146
:1023E0007381848195810E945424F80171836083F4
:1023F000FFEFCF1ADF0A045F1F4FECCF81E080931D
:10240000000181ED91E00E947E0ABECF6AED71E08D
:10241000C6010E949604892B49F1CE0101969F9333
:102420008F9380EE91E09F938F93DF92CF920E94E3
:10243000BB280F900F900F900F900F900F90892B4B
:1024400001F389819A812CE0289F8001299F100D3A
:1024500011240E5F1E4FF801628173818481958182
:102460000E945424F80171836083CBCF69EE71E040
:10247000C6010E94960461E0892B41F46FEE71E081
:10248000C6010E949604892B29F060E084E00E9436
:1024900017037ACF4E01F5E08F0E911C9F928F9219
:1024A0005E0123E0A20EB11CBF92AF9286EF91E0D5
:1024B0009F938F93DF92CF920E94BB280FB6F89420
:1024C000DEBF0FBECDBF892B09F450C06D807E806A
:1024D000CB80DC808CED95E05C01A618B708460146
:1024E000F4E28F1AFAEF9F0ABF92AF929F928F92F7
:1024F00082E092E09F938F9303E814E01F930F9381
:102500000E949828C8010E947E0ABF92AF929F92B3
:102510008F9281E292E09F938F931F930F930E947B
:102520009828C8010E947E0AC6018619970997FD5E
:1025300001969595879591958195910984529A4F29
:102540009F938F9380E492E09F938F9383E894E02E
:102550009F938F930E94982883E894E00E947E0ABC
:102560000FB6F894DEBF0FBECDBF0ECF60E572E0B0
:10257000C6010E949604892B09F465C0BF92AF92F0
:10258000CE0101969F938F9386E592E09F938F9360
:10259000DF92CF920E94BB280FB6F894DEBF0FBE29
:1025A000CDBF892B09F4F0CE8AEE90E00E947B1516
:1025B0000E94A105A980BA8025010B2C000C660899
:1025C000770889E0440C551C661C771C8A95D1F766
:1025D00002E612E08B819C818A159B058CF127EA2B
:1025E00030E0A601C301B2010E946605F6018081B8
:1025F0008B37A1F48181873489F4C6010E947E0A59
:102600006AE070E080E090E00E94C403FFEFAF1A40
:10261000BF0A22E0520E611C711CDCCFBF92AF9248
:102620001F930F93DF92CF920E949828C6010E94B9
:102630007E0A0F900F900F900F900F900F90E0CFA9
:102640000E94DE04A1CE6FE672E0C6010E949604ED
:10265000892BD9F19F928F92BF92AF92CE010196B2
:102660009F938F9385E792E09F938F93DF92CF9212
:102670000E94BB280FB6F894DEBF0FBECDBF892BDA
:1026800009F482CE89819A8190936C0480936B04C3
:102690002B813C8130936A04209369044D815E81D3
:1026A00050937204409371045093700440936F04EC
:1026B00090936E0480936D048217930719F40E941F
:1026C000EB0E62CE109200015FCE64E872E0C601AC
:1026D0000E949604892B09F496C0CE0107969F9319
:1026E0008F939F928F92BF92AF9206979F938F93F3
:1026F0008AE892E09F938F93DF92CF920E94BB284B
:102700000FB6F894DEBF0FBECDBF892B09F43CCEC7
:102710008CE992E00E947E0ACF80D8846D817E8110
:10272000072E000C880B990B0E94B02169877A87CD
:102730008B879C876B817C81072E000C880B990B03
:102740000E94B0214B015C0169817A81072E000C47
:10275000880B990B0E94B0212B013C0120E030E056
:10276000A901C501B4010E94A92187FD21C0E98406
:10277000FA840B851C85A5019401C301B2010E9456
:10278000250F892BA9F061E084E00E94170362E322
:1027900070E080E090E00E94C40360E084E00E946A
:1027A000170362E370E080E090E00E94C403ECCD88
:1027B00061E084E00E94170362E370E080E090E053
:1027C0000E94C40360E084E00E94170362E370E0AB
:1027D00080E090E00E94C40361E084E00E9417035F
:1027E00062E370E080E090E00E94C40360E084E077
:1027F0000E94170362E370E080E090E00E94C4034F
:1028000082EB92E000CE6BEC72E0C6010E9496046F
:10281000892B09F4B9CD81E08093D2040E94410450
:1028200060936104709362048093630490936404E2
:1028300088EE90E00E947B15A7CD1F920F920FB6F5
:102840000F9211242F933F934F935F936F937F9336
:102850008F939F93AF93BF93EF93FF9386EF95E092
:102860000E948802FF91EF91BF91AF919F918F914C
:102870007F916F915F914F913F912F910F900FBE7C
:102880000F901F9018951F920F920FB60F92112460
:102890002F938F939F93EF93FF93E0910606F09110
:1028A00007068081E0910C06F0910D0682FD1BC0A9
:1028B000908180910F068F5F8F7320911006821791
:1028C00041F0E0910F06F0E0EA50FA4F958F8093C7
:1028D0000F06FF91EF919F918F912F910F900FBE57
:1028E0000F901F9018958081F4CF1F920F920FB612
:1028F0000F9211242F933F938F939F93AF93BF9386
:1029000080911B0490911C04A0911D04B0911E04A1
:1029100030911A0423E0230F2D3758F50196A11D9D
:10292000B11D20931A0480931B0490931C04A09360
:102930001D04B0931E0480911F0490912004A09167
:102940002104B09122040196A11DB11D80931F04A2
:1029500090932004A0932104B0932204BF91AF91DF
:102960009F918F913F912F910F900FBE0F901F90CD
:10297000189526E8230F0296A11DB11DD2CF1F92F4
:102980000F920FB60F9211242F933F934F935F93A3
:102990006F937F938F939F93AF93BF93CF93DF9367
:1029A000EF93FF9380911904C091B706D0E087FFA1
:1029B00024C01092850010928400809119048F5FCA
:1029C0008093190480911904082E000C990B8C1720
:1029D0009D0724F4809119048C30C4F18091840007
:1029E00090918500049680349C4908F47AC08091C7
:1029F000840090918500049676C080911904082E79
:102A0000000C990B8C179D07C4F6E09119048E2FCA
:102A1000EE0F990BFC01EE0FFF1FE80FF91FED56AB
:102A2000F94F808186FFC9CFE09119048E2FEE0FF8
:102A3000990BFC01EE0FFF1FE80FF91FED56F94F40
:102A4000808160E08F730E941703B7CF20918400CC
:102A500030918500E09119048E2FEE0F990BFC0147
:102A6000EE0FFF1FE80FF91FED56F94F818192819C
:102A7000820F931F9093890080938800E09119043E
:102A80008E2FEE0F990BFC01EE0FFF1FE80FF91FC1
:102A9000ED56F94F808186FF11C0E09119048E2F09
:102AA000EE0F990BFC01EE0FFF1FE80FF91FED561B
:102AB000F94F808161E08F730E941703FF91EF91BE
:102AC000DF91CF91BF91AF919F918F917F916F9146
:102AD0005F914F913F912F910F900FBE0F901F90DC
:102AE000189580E49CE990938900809388008FEF8B
:102AF00080931904E3CF0F931F93CF93DF938C013F
:102B0000D0E0C0E0F801EC0FFD1F6491662341F0B6
:102B100086EF95E00E94AA02892B11F02196F2CF50
:102B200080EA91E00E942D0A8C0F9D1FDF91CF91CA
:102B30001F910F9108951092F9051092F80588EEF3
:102B400093E0A0E0B0E08093FA059093FB05A0939A
:102B5000FC05B093FD0588E891E09093F70580931C
:102B6000F60585EC90E0909303068093020684ECD2
:102B700090E0909305068093040680EC90E090939B
:102B800007068093060681EC90E0909309068093F7
:102B9000080682EC90E090930B0680930A0686EC80
:102BA00090E090930D0680930C0610920F06109201
:102BB00010061092110610921206EDECF6E02FEDC1
:102BC00036E04FEF68EB7BE08091B7068C3040F544
:102BD00091E0980F9093B706808390E0DC01AA0FF4
:102BE000BB1FA80FB91FAD56B94F12967C936E93B9
:102BF000119733962E173F0739F762EA71E087EC99
:102C000096E00E94B91062EA71E081EC96E00E94C1
:102C1000B9108AE991E09093B9068093B8060895B7
:102C20004083E7CFCF93DF93CDB7DEB76B970FB677
:102C3000F894DEBF0FBECDBF789484B5826084BDAA
:102C400084B5816084BD85B5826085BD85B58160B0
:102C500085BD80916E00816080936E00109281002E
:102C600080918100826080938100809181008160E9
:102C700080938100809180008160809380008091AA
:102C8000B10084608093B1008091B0008160809336
:102C9000B00080917A00846080937A0080917A00FD
:102CA000826080937A0080917A00816080937A00BC
:102CB00080917A00806880937A001092C10010920F
:102CC000C4041092C5041092C6041092C704109256
:102CD000C8041092C304109224041092230480E0CC
:102CE00090E0AAE7B4E48093AA059093AB05A09383
:102CF000AC05B093AD0580E090E4A3E8B4E4809324
:102D0000AE059093AF05A093B005B093B10580E0F8
:102D100090E8ABE3B4E48093B2059093B305A0933D
:102D2000B405B093B50580E090E0A1EEB4E48093E3
:102D3000B6059093B705A093B805B093B905E09197
:102D40000606F091070682E08083E0910206F0918A
:102D500003061082E0910406F091050680E180836D
:102D600010920E06E0910A06F0910B0686E0808331
:102D7000E0910806F0910906808180618083E091EE
:102D80000806F0910906808188608083E09108063A
:102D9000F0910906808180688083E0910806F091B7
:102DA000090680818F7D80830E94A10527E330E0A2
:102DB0004AE254E060E070EF8FEF9FEF0E946605FB
:102DC0000E94DE0480915F0490916004C897F1F046
:102DD0001092540410925304109256041092550409
:102DE000109258041092570410925A0410925904E9
:102DF00010925C0410925B0410925E0410925D04C9
:102E000088E390E09093600480935F0461E08DE03C
:102E10000E94630361E08DE00E94170361E084E09B
:102E20000E94630360E084E00E94170380915204D3
:102E3000883321F482E394E00E9497118091520438
:102E4000883309F4C6C0009153041091540404520D
:102E50001A4FB801012E000C880B990B0E94B0216B
:102E6000609304017093050180930601909307011C
:102E7000109303010093020110920A0110920B01BA
:102E800010920C0110920D010091550410915604FE
:102E900004521A4FB801012E000C880B990B0E94A6
:102EA000B0216093100170931101809312019093EF
:102EB000130110930F0100930E011092160110924E
:102EC00017011092180110921901009157041091E6
:102ED000580404521A4FB801012E000C880B990BAC
:102EE0000E94B02160931C0170931D0180931E010C
:102EF00090931F0110931B0100931A01109222015D
:102F0000109223011092240110922501009159047E
:102F100010915A0404521A4FB801012E000C880B6C
:102F2000990B0E94B021609328017093290180932E
:102F30002A0190932B0110932701009326011092F0
:102F40002E0110922F011092300110923101009148
:102F50005B0410915C0404521A4FB801012E000C5E
:102F6000880B990B0E94B021609334017093350156
:102F7000809336019093370110933301009332010F
:102F800010923A0110923B0110923C0110923D01C7
:102F900000915D0410915E0404521A4FB801012E95
:102FA000000C880B990B0E94B02160934001709334
:102FB0004101809342019093430110933F0100939C
:102FC0003E01109246011092470110924801109262
:102FD000490112E0C12E11E0D12E0DEC16E0EE24D5
:102FE000E394F12C9CE0B92ED8018C918C3008F040
:102FF0004CC0F701E358FE4FA08061E08A2D0E948B
:103000006303F8018081282F30E0F901EE0FFF1FE4
:10301000E20FF31FED56F94F2A2D2F739081907C0C
:10302000922B9083D80111961C92119712961C92A4
:103030006B2D0E949125682F70E08B9DA0011124BB
:1030400030E020E0CA01820F931FFC01EE0FFF1F4A
:10305000E80FF91FED56F94F808186FD08C02F5FFC
:103060003F4F2C30310571F7CB010E948404D80109
:10307000EC918E2F90E0FC01EE0FFF1FE80FF91F7F
:10308000ED56F94F808180648083F6016081718103
:10309000C8010E944D04FFEFEF1AFF0A0D5F1F4F9A
:1030A0002CE0C20ED11C37E0E316F10409F09CCFEE
:1030B000E4E3F1E0E491E093ED04E8E4F1E0E4918D
:1030C000F0E0EE0FFF1FEB5EFE4F85919491909321
:1030D000EF048093EE04E7E3F1E0E491E093F00481
:1030E000EBE4F1E0E491F0E0EE0FFF1FEB5EFE4F4A
:1030F000859194919093F2048093F104EAE3F1E0D6
:10310000E491E093F304EEE4F1E0E491F0E0EE0FFB
:10311000FF1FEB5EFE4F859194919093F504809391
:10312000F404E5E3F1E0E491E093F604E9E4F1E08E
:10313000E491F0E0EE0FFF1FE55FFE4F8591949163
:103140009093F8048093F70461E08BE00E9463039E
:1031500061E081E10E94630361E08EE00E9463030D
:1031600060E08CE00E94630361E08CE00E94170342
:103170000E9476010E9485010E9438060E9438064E
:103180008091D4049FEB980F923008F4A8C2833743
:1031900009F4A5C2893709F4A2C282ED92E00E9427
:1031A0007E0A85E093E00E942D0A6091D40470E0CD
:1031B00090E080E040E10E943A0A80EA91E00E94BB
:1031C0002D0A85E693E00E947E0A03E010E061E0AC
:1031D00084E00E94170364E670E080E090E00E94C3
:1031E000C40360E084E00E94170364E670E080E0BE
:1031F00090E00E94C4030150110949F72CEA422EC5
:1032000023E0522E83E8282E84E0382E95E7692E9D
:1032100092E0792E0E944104009126041091270427
:103220002091280430912904601B710B820B930BB1
:10323000653F714081059105C0F00E944104609393
:1032400026047093270480932804909329041091F6
:10325000250460E0111101C061E08DE00E941703B8
:1032600081E0111180E08093250480916804882317
:1032700011F10091CB061091CC060F3F100731F0F1
:103280000115110509F092C210920205109367040E
:103290000093660480916504813009F095C282E054
:1032A00095E00E949711109268041092650487ECD3
:1032B00096E00E949A100E944104009161041091CE
:1032C00062042091630430916404601B710B820BD3
:1032D000930B693B7B408105910510F01092D2045D
:1032E00080910001811125C40E9441049B01AC0121
:1032F00060E070E080E090E0A0907B04B0907C04FF
:10330000C0907D04D0907E04E0907F04F090800413
:1033100000918104109182040E946A26A090730497
:10332000B0907404C0907504D0907604E090770457
:10333000F09078040091790410917A040E94732629
:1033400051F14CF10E9441048B019C0160937B047C
:1033500010937C0480937D0430937E0410927F044C
:103360001092800410928104109282048091710462
:1033700090917204892B09F4A4C380916F049091F9
:103380007004892B09F09DC341E04093000180EA5D
:1033900093E00E947E0A8091D204811186C40E942B
:1033A00041049B01AC0160E070E080E090E0A090FF
:1033B000C904B090CA04C090CB04D090CC04E09073
:1033C000CD04F090CE040091CF041091D0040E945F
:1033D0006A26A4E10E947C2609F00CF48AC00E94AF
:1033E00041048B019C016093C9041093CA0480932B
:1033F000CB043093CC041092CD041092CE041092E2
:10340000CF041092D0048DEC96E0998B888B02E06B
:1034100011E0D8011896CD90DD90ED90FC901B97AF
:1034200020E030E0A901C701B6010E94A92188234C
:1034300009F452C0F8010190F081E02DFF8BEE8B72
:10344000BF0190E080E00E94AE21688F798F8A8F63
:103450009B8FD80112962D913D914D915C911597BE
:103460002A8B3B8B4C8B5D8B0E943A234B015C017A
:1034700020E030E0A9010E940925181624F0B7FACF
:10348000B094B7F8B09420E030E0A901C701B601CC
:103490000E940925A701960118160CF05058C50185
:1034A000B4010E94A92118160CF455C36E897F89B6
:1034B000888999890E944D04288D398D4A8D5B8DAC
:1034C000D80112962D933D934D935C931597F80177
:1034D0001086118612861386045F1F4FE889F989CA
:1034E0003396F98BE88B2AE431E02017310709F095
:1034F00090CF1092D10402E011E020E030E0A90169
:10350000D80118966D917D918D919C911B970E9489
:10351000A921882309F435C3B1E0B093D104809187
:10352000D10490910101981709F463C080930101BF
:10353000882309F42FC30DEC16E0F12CE12CD801FF
:103540008C918C3008F04BC0F701E258FE4FD080D0
:1035500061E08D2D0E946303F8018081282F30E007
:10356000F901EE0FFF1FE20FF31FED56F94F2D2D5E
:103570002F73D22E9081907CD92AD082D8011196B7
:103580001C92119712961C926CE00E949125869FC6
:10359000A001112430E020E0BA01620F731FFB018B
:1035A000EE0FFF1FE60FF71FED56F94F908196FDC6
:1035B00008C02F5F3F4F2C30310571F790E00E941B
:1035C0008404D801EC918E2F90E0FC01EE0FFF1FD8
:1035D000E80FF91FED56F94F808180648083BFEFBB
:1035E000EB1AFB0A0D5F1F4FE6E0EE16F10409F03F
:1035F000A6CF8091C8048111FEC20E9441040091AF
:10360000C4041091C5042091C6043091C704601B06
:10361000710B820B930B633371058105910508F4DF
:10362000EAC20E9441046093C4047093C50480936D
:10363000C6049093C7040E94380681E090E00E947F
:103640003101882391F18091C30421E08227809386
:10365000C3048091C30461E08823A1F084E00E9448
:10366000170364E670E080E090E00E94C40360E02D
:1036700084E00E94170364E670E080E090E00E941E
:10368000C40361E084E00E94170364E670E080E018
:1036900090E00E94C40360E084E00E94170364E6A7
:1036A00070E080E090E00E94C4038091C30488230E
:1036B00009F483C310910001113009F09CC280E12C
:1036C00090E00E943101882309F479C21F921F9370
:1036D0001F9287E08F931F9283E08F937DC281E0DA
:1036E0008093FD040BE010E047E0C42ED12CBB24F6
:1036F000B39465E08AE691E00E94F703C601019762
:10370000F1F70E9476010E9485010E940402C60121
:103710000197F1F735E7E32E31E0F32EAE014F5F6D
:103720005F4F4A01D7018D917D010E949401F40100
:1037300081934F01FEE7EF16F1E0FF0699F70E9433
:1037400067018C818093FE0469E081E691E00E942C
:10375000F70365E08CE591E00E94F703B092FF0467
:1037600069E083E591E00E94F703B092000569E00B
:103770008AE491E00E94F7030E9438068091D40405
:10378000893709F41ECD833709F41BCD0150110987
:1037900039F481E393E00E947E0A83E593E003CD50
:1037A0008091FD048F5F8093FD04A3CF6091C706D5
:1037B0007091C806A80182E095E00E948928F8016E
:1037C000EE5FFA4F108262CD9EEF980F923028F490
:1037D00082E095E00E943F0B66CD843009F063CD16
:1037E00080910305843279F580910405813249F492
:1037F000109252040E942B0B8AE793E00E947E0AEB
:1038000052CD81E2A2E3B4E01D928A95E9F763E02C
:1038100075E082E394E00E948228E2E0F5E0019006
:103820000020E9F7E350F540E65DFB4F168288E3A0
:10383000809352040E942B0B8DE893E00E947E0A35
:1038400082E394E0DBCF873409F02DCD8091080529
:10385000833209F028CD80910405082E000C990BC5
:10386000C097E8EEF3E08E9F90018F9F300D9E9FF2
:10387000300D112480910505082E000C990BC0977E
:1038800064E6689FA001699F500D1124240F351F25
:1038900080910605082E000C990BC0976AE0689F7E
:1038A000A001699F500D1124240F351F8091070539
:1038B000082E000C990BC097A901480F591F598F6A
:1038C000488F952F990F990B288D398D492F592F96
:1038D000692F792F892F2F30374241055105610516
:1038E00071058105910511F00CF0DDCC8BE780931B
:1038F0000205F801EF5FFA4F8DE780830E94D50043
:10390000892E8E8B992E990C9908F8013496F98B93
:10391000E88BF0936704E0936604E250FB4FFB8B67
:10392000EA8B18EEA12E03E0B02EC12CD12CE12C95
:10393000F12C00E010E0282F392F492D592D692D49
:10394000792D892D992D0E94B325205DAA89BB89E7
:103950002C93E889F989E150FB4FFB8BEA8B2E8988
:10396000382D492D592D692D792D892D992D0E949C
:10397000B125E4E6AE2EB12C0E94B325205DAA89C4
:10398000BB892C93E889F989E050FB4FFB8BEA8BCC
:103990002E89382D492D592D692D792D892D992D57
:1039A0000E94B125FAE0AF2E0E94B325205DAA89BE
:1039B000BB892C93E889F989EF5FFA4FFB8BEA8B7F
:1039C0002E89382D492D592D692D792D892D992D27
:1039D0000E94B125205DAA89BB892C93E889F989C9
:1039E000EE5FFA4F10820E94A105E88DF98DCF019C
:1039F000FF0FAA0BBB0B6C017D0119E0CC0CDD1C89
:103A0000EE1CFF1C1A95D1F74C015D01BB0C880818
:103A1000982C54019C01AD01682D782D882D982D8E
:103A200009E00E9451263E7020E040E050E060E056
:103A300070E080E090E0A0E00E947C2699F4D7013D
:103A4000C6019F70AA27BB27892B8A2B8B2B21F4B9
:103A5000C701B6010E94160665E070E080E090E0C4
:103A60000E94C4032889398942E055E0C701B601A4
:103A70002F3F3105C9F0C4F020E031E042E055E0CD
:103A80000E948C0A65E070E080E090E00E94C40330
:103A900020916604309167043A95C701B6017F5FB3
:103AA0008F4F9F4F42E056E00E948C0A0E94DE0436
:103AB0006EE170E080E090E00E94C4038EE993E044
:103AC0009DCE80916D0490916E040E94EB0E20912A
:103AD0006B0430916C044091690450916A048091A8
:103AE0006D0490916E0424173507F4F448175907B4
:103AF000A9F430936E0420936D0480917104909129
:103B00007204892B09F447CC80916F049091700462
:103B100001979093700480936F043DCC019690932D
:103B20006E0480936D0437CC4817590711F3019741
:103B3000F6CF8AE080937304109274041092750497
:103B400010927604109277041092780410927904FF
:103B500010927A0420CC2A893B894C895D89C7015F
:103B6000B6010E943B23D80112966D937D938D93ED
:103B70009C9315970E944D24888999890E944D0431
:103B8000ABCC045F1F4FEAE4F1E0E017F10709F066
:103B9000B4CCC5CCADECB6E0EC918E2F90E0FC013E
:103BA000EE0FFF1FE80FF91FED56F94F80818F7B55
:103BB00080831396F6E0AF3DBF0771F71ACD80E41E
:103BC00090E00E943101882309F477C01F921F936F
:103BD0001F921F931F921F937F926F923F922F927B
:103BE0000E94982883E894E00E9497110FB6F894F9
:103BF000DEBF0FBECDBFCE0101960E94A0100D8189
:103C00001E81CE0101960E941D0F012B09F44DC0AB
:103C100061E084E00E94170364E670E080E090E0D9
:103C20000E94C40360E084E00E94170364E670E031
:103C300080E090E00E94C403CE010A960E94A0108A
:103C400068EC73E0CE0101960E94B910BE016F5F6F
:103C50007F4FCE010A960E941710182FCE010196B1
:103C60000E941D0FCE010A960E941D0F112309F418
:103C70000AC21F92B1E0BF931F9287E08F931F92F9
:103C800083E08F937F926F923F922F920E949828A9
:103C900083E894E00E9497110FB6F894DEBF0FBE40
:103CA000CDBF81EC96E00E949A100E947E0288238C
:103CB00009F4B0CA0E94CA10A5CA80E890E00E9428
:103CC0003101882341F01F921F931F929CE09F9324
:103CD0001F9288E002CD80E290E00E9431018823AB
:103CE00041F01F921F931F9281E18F931F928DE0ED
:103CF000F4CC80E090E10E943101882341F01F92D2
:103D00001F931F9285E18F931F9282E1E6CC80E0A2
:103D100090E40E943101882339F01F921F931F9273
:103D200082E08F931F92D9CC80E090E80E9431010D
:103D3000882341F01F921F931F928AE18F931F9255
:103D400086E1CBCC80E090E20E943101882349F0EB
:103D50001F9291E09F931F928FE18F931F928BE1AF
:103D6000BCCC88E090E00E943101882309F443CF65
:103D70000E9441044AE00E943A0A80EA91E00E94CF
:103D80002D0A88EEC82E83E0D82EE12CF12C08E411
:103D900013E4A801970160E070E0CB010E94250FB9
:103DA000892B09F428CF0E9441044AE00E943A0A74
:103DB00080EA91E00E942D0A1ECF80E890E00E94E8
:103DC0003101882339F187E08F9380ED8F9389E06B
:103DD0008F9380E68F931F921F925F924F923F9234
:103DE0002F920E94982883E894E00E943F0B0FB620
:103DF000F894DEBF0FBECDBF80E890E00E944C017A
:103E0000882309F4CAC01F921F928DEB93E09F9301
:103E10008F93D6C080E290E00E943101882341F068
:103E200087E08F9380ED8F9382E08F9388E5D2CFE8
:103E300080E190E00E943101882361F087E08F9358
:103E400080ED8F9382E08F9388E58F931F9231E00E
:103E50003F93C3CF80E490E00E943101882361F05A
:103E600087E08F9380ED8F9389E08F9380E68F9327
:103E70001F9251E05F93B1CF80E090E10E94310149
:103E8000882361F087E08F9380ED8F9389E08F9393
:103E900080E68F931F9282E08F939FCF80E090E423
:103EA0000E943101882351F087E08F9380ED8F933A
:103EB00082E08F9398E59F931F92EECF80E090E889
:103EC0000E943101882359F087E08F9380ED8F9312
:103ED00089E08F9380E68F931F9283E0DDCF80E0AF
:103EE00090E20E943101882341F087E08F9380EDBA
:103EF0008F9382E08F9388E5EECF80E094E00E947C
:103F00003101882359F087E08F9380ED8F9382E011
:103F10008F9388E58F931F9284E0BECF80E098E076
:103F20000E943101882341F087E08F9380ED8F93C9
:103F300089E08F9380E6EECF80E091E00E9431012E
:103F4000882359F087E08F9380ED8F9382E08F93E1
:103F500088E58F931F9285E09FCF80E092E00E94DA
:103F60003101882341F087E08F9380ED8F9389E0C2
:103F70008F9380E6EECF88E090E00E9431018823A5
:103F800009F43ACF87E08F9380ED8F9385E08F938C
:103F90008CED8F931F928FEF7FCF80E290E00E9495
:103FA0004C01811130CF80E190E00E944C018823C8
:103FB000B1F01F92B1E0BF93EDEBF3E0FF93EF930D
:103FC0003F922F920E94982883E894E00E943F0B32
:103FD0000F900F900F900F900F900F900CCE80E4E9
:103FE00090E00E944C018111E4CF80E090E10E94BA
:103FF0004C01882341F01F9282E08F934DEB53E0F8
:104000005F934F93DDCF80E090E40E944C018111DB
:10401000F2CF80E090E80E944C01882341F01F928B
:1040200083E08F93ADEBB3E0BF93AF93C9CF80E054
:1040300090E20E944C018111F2CF80E094E00E9456
:104040004C01882341F01F9284E08F932DEB33E0E5
:104050003F932F93B5CF80E098E00E944C018111EF
:10406000F2CF80E091E00E944C01882321F01F9262
:1040700085E08F93CACE80E092E00E944C018823B5
:1040800009F4B9CDF4CFCE010A960E94A0106DECD0
:1040900073E0CE0101960E94B910BE016F5F7F4FA1
:1040A000CE010A960E941710182FCE0101960E9489
:1040B0001D0FCE010A960E941D0F112349F01F9279
:1040C000F1E0FF931F922CE02F931F9288E0D9CD4F
:1040D000CE010A960E94A01062ED73E0CE01019617
:1040E0000E94B910BE016F5F7F4FCE010A960E94F9
:1040F0001710182FCE0101960E941D0FCE010A96AF
:104100000E941D0F112349F01F9251E05F931F92EF
:1041100081E18F931F928DE0B4CDCE010A960E946B
:10412000A01067ED73E0CE0101960E94B910BE01A8
:104130006F5F7F4FCE010A960E941710182FCE0195
:1041400001960E941D0FCE010A960E941D0F112399
:1041500049F01F9291E09F931F9285E18F931F92E8
:1041600082E18FCDCE010A960E94A0106CED73E023
:10417000CE0101960E94B910BE016F5F7F4FCE0144
:104180000A960E941710182FCE0101960E941D0F4B
:10419000CE010A960E941D0F112349F01F92B1E033
:1041A000BF931F928AE18F931F9286E16ACDCE0161
:1041B0000A960E94A01061EE73E0CE0101960E9463
:1041C000B910BE016F5F7F4FCE010A960E94171093
:1041D000182FCE0101960E941D0FCE010A960E9453
:1041E0001D0F112349F01F92F1E0FF931F928FE101
:1041F0008F931F928BE145CDCE010A960E94A010AD
:1042000066EE73E0CE0101960E94B910BE016F5FA9
:104210007F4FCE010A960E941710182FCE010196EB
:104220000E941D0FCE010A960E941D0F112341F01E
:104230001F9231E03F931F923F931F923F9322CDF5
:10424000CE010A960E94A0106BEE73E0CE0101969B
:104250000E94B910BE016F5F7F4FCE010A960E9487
:104260001710182FCE0101960E941D0FCE010A963D
:104270000E941D0F1123B1F083E08F9388EE8F937E
:1042800086E08F9384EA8F931F9285E08F935F92ED
:104290004F923F922F920E94982883E894E00E94C8
:1042A0003F0BFACCCE010A960E94A01060EF73E09B
:1042B000CE0101960E94B910BE016F5F7F4FCE0103
:1042C0000A960E941710182FCE0101960E941D0F0A
:1042D000CE010A960E941D0F112341F083E08F93B7
:1042E00088EE8F9384E08F9380EBCDCFCE010A963A
:1042F0000E94A01065EF73E0CE0101960E94B910F4
:10430000BE016F5F7F4FCE010A960E941710182FD3
:10431000CE0101960E941D0FCE010A960E941D0F2C
:10432000112309F4BECC8BEF93E00E943F0BB9CC74
:1043300081EC96E00E941D0F87EC96E00C941D0F17
:1043400091110C947C22803219F089508550C8F765
:1043500008950E94EB2108F481E00895E89409C0D3
:1043600097FB3EF490958095709561957F4F8F4FA8
:104370009F4F9923A9F0F92F96E9BB279395F695BE
:10438000879577956795B795F111F8CFFAF4BB0F3C
:1043900011F460FF1BC06F5F7F4F8F4F9F4F16C0A0
:1043A000882311F096E911C0772321F09EE8872F2A
:1043B000762F05C0662371F096E8862F70E060E0E6
:1043C0002AF09A95660F771F881FDAF7880F96955F
:1043D000879597F90895990F0008550FAA0BE0E803
:1043E000FEEF16161706E807F907C0F012161306B7
:1043F000E407F50798F0621B730B840B950B39F4F7
:104400000A2661F0232B242B252B21F408950A265C
:1044100009F4A140A6958FEF811D811D08950E948A
:1044200022220C9496220E94882238F00E948F2229
:1044300020F0952311F00C947F220C9485221124F6
:104440000C94CA220E94A72270F3959FC1F3950F86
:1044500050E0551F629FF001729FBB27F00DB11D08
:10446000639FAA27F00DB11DAA1F649F6627B00D98
:10447000A11D661F829F2227B00DA11D621F739F81
:10448000B00DA11D621F839FA00D611D221F749F8F
:104490003327A00D611D231F849F600D211D822FD6
:1044A000762F6A2F11249F5750409AF0F1F08823FD
:1044B0004AF0EE0FFF1FBB1F661F771F881F91502A
:1044C0005040A9F79E3F510580F00C947F220C9438
:1044D000CA225F3FE4F3983ED4F3869577956795BB
:1044E000B795F795E7959F5FC1F7FE2B880F911D54
:1044F0009695879597F9089599278827089597F9AC
:104500009F6780E870E060E008959FEF80EC089579
:1045100000240A94161617061806090608950024A2
:104520000A9412161306140605060895092E03941C
:10453000000C11F4882352F0BB0F40F4BF2B11F490
:1045400060FF04C06F5F7F4F8F4F9F4F089557FDEF
:104550009058440F551F59F05F3F71F04795880FF1
:1045600097FB991F61F09F3F79F087950895121688
:1045700013061406551FF2CF4695F1DF08C0161634
:1045800017061806991FF1CF8695710561050894E5
:104590000895E894BB2766277727CB0197F90895FC
:1045A0002F923F924F925F926F927F928F929F9243
:1045B000AF92BF92CF92DF92EF92FF920F931F9331
:1045C000CF93DF93CDB7DEB7CA1BDB0B0FB6F894E2
:1045D000DEBF0FBECDBF09942A88398848885F8422
:1045E0006E847D848C849B84AA84B984C884DF8093
:1045F000EE80FD800C811B81AA81B981CE0FD11D77
:104600000FB6F894DEBF0FBECDBFED010895A1E255
:104610001A2EAA1BBB1BFD010DC0AA1FBB1FEE1F3C
:10462000FF1FA217B307E407F50720F0A21BB30B87
:10463000E40BF50B661F771F881F991F1A9469F703
:1046400060957095809590959B01AC01BD01CF015F
:1046500008959F939F770E9483240F90002042F437
:104660009058A2EA2AED3FE049E450E40E94522328
:104670000C9496225058BB27AA270E9452230C94D0
:1046800096220E94882238F00E948F2220F039F46E
:104690009F3F19F426F40C9485220EF4E095E7FB75
:1046A0000C947F22E92F0E94A72258F3BA176207C1
:1046B00073078407950720F079F4A6F50C94C922B6
:1046C0000EF4E0950B2EBA2FA02D0B01B90190012D
:1046D0000C01CA01A0011124FF27591B99F0593F71
:1046E00050F4503E68F11A16F040A22F232F342FB9
:1046F0004427585FF3CF469537952795A795F04007
:104700005395C9F77EF41F16BA0B620B730B840B1B
:10471000BAF09150A1F0FF0FBB1F661F771F881FD3
:10472000C2F70EC0BA0F621F731F841F48F487952B
:1047300077956795B795F7959E3F08F0B0CF93951D
:10474000880F08F09927EE0F979587950895DF93C6
:10475000DD27B92FBF7740E85FE316161706480735
:104760005B0718F4D92F0E940E259F938F937F9398
:104770006F930E946425E8E6F0E00E94A3240E9463
:1047800096222F913F914F915F910E942222DD232B
:1047900051F09058A2EA2AED3FE049EC5FE3D0786F
:1047A0005D270E945223DF910C9496220E94CC2414
:1047B000E3950C94F5240E94EF230C9496220E941A
:1047C0008F2258F00E94882240F029F45F3F29F0A0
:1047D0000C947F2251110C94CA220C9485220E94C1
:1047E000A72268F39923B1F3552391F3951B550B39
:1047F000BB27AA2762177307840738F09F5F5F4FB4
:10480000220F331F441FAA1FA9F335D00E2E3AF0F2
:10481000E0E832D091505040E695001CCAF72BD00A
:10482000FE2F29D0660F771F881FBB1F261737075B
:104830004807AB07B0E809F0BB0B802DBF01FF278D
:1048400093585F4F3AF09E3F510578F00C947F22C9
:104850000C94CA225F3FE4F3983ED4F38695779593
:104860006795B795F7959F5FC9F7880F911D969546
:10487000879597F90895E1E0660F771F881FBB1FA2
:10488000621773078407BA0720F0621B730B840B4F
:10489000BA0BEE1F88F7E09508950E94542468949F
:1048A000B1110C94CA2208950E94AF2288F09F573C
:1048B00098F0B92F9927B751B0F0E1F0660F771F44
:1048C000881F991F1AF0BA95C9F714C0B13091F03A
:1048D0000E94C922B1E008950C94C922672F782F55
:1048E0008827B85F39F0B93FCCF3869577956795FF
:1048F000B395D9F73EF490958095709561957F4F6B
:104900008F4F9F4F0895DF93CF931F930F938B018A
:10491000EC01E5E9F0E00E94A3240E9496229801B0
:10492000AE018B01EC0160E070E080E89FE30E9443
:104930003A230E9424259801AE010F911F91CF9137
:10494000DF910C942222DF93CF931F930F93FF925A
:10495000EF92DF927B018C01689406C0DA2EEF01A2
:104960000E942222FE01E894A5912591359145915E
:104970005591A6F3EF010E945223FE019701A80171
:10498000DA9469F7DF90EF90FF900F911F91CF912C
:10499000DF9108950C9485220E94AF22D8F3E89409
:1049A000E0E0BB279F57F0F02AED3FE049EC06C05E
:1049B000EE0FBB0F661F771F881F28F0B23A620701
:1049C0007307840728F0B25A620B730B840BE395CC
:1049D0009A9572F7803830F49A95BB0F661F771F4F
:1049E000881FD2F790480C946A25EF93E0FF07C028
:1049F000A2EA2AED3FE049EC5FEB0E9452230E94BD
:104A000096220F90039401FC9058EDEBF0E00C948B
:104A10007D250E94EB2108F48FEF08959B01AC01E6
:104A200060E070E080E89FE30C94DB239F930E949A
:104A3000CC240F9007FCEE5F0C94F52419F416F4C7
:104A40000C9485220C9468250E94AF22B8F3992318
:104A5000C9F3B6F39F57550B87FF0E9476250024B4
:104A6000A0E640EA900180585695979528F4805C1E
:104A7000660F771F881F20F026173707480730F486
:104A8000621B730B840B202931294A2BA69517949E
:104A90000794202531254A2758F7660F771F881F6E
:104AA00020F026173707480730F4620B730B840B8E
:104AB000200D311D411DA09581F7B901842F91581A
:104AC000880F9695879508959B01AC010C940F2251
:104AD0009F3F31F0915020F4879577956795B79572
:104AE000880F911D9695879597F90895915050409C
:104AF000660F771F881FD2F708959F938F937F9338
:104B00006F93FF93EF939B01AC010E940F22EF91F3
:104B1000FF910E94A3242F913F914F915F910C949C
:104B20000F22991B79E004C0991F961708F0961B75
:104B3000881F7A95C9F780950895AA1BBB1B51E180
:104B400007C0AA1FBB1FA617B70710F0A61BB70BFD
:104B5000881F991F5A95A9F780959095BC01CD01A2
:104B60000895689401C0E894F92FF12B12F00C9489
:104B7000E525A0E0B0E0EFEBF5E20C94D622092E9B
:104B8000059422F40E944126112392F4F0E80F26A6
:104B9000FFEFE094F09400951095B094C094D094F9
:104BA000A194BF0ACF0ADF0AEF0AFF0A0F0B1F0BFF
:104BB0000E94F02507FC0E944126CDB7DEB7ECE04D
:104BC0000C94F222689401C0E8948F929F92CF9344
:104BD000DF930E94F025DF91CF919F908F900895F1
:104BE00088249924F401E401B0E49F93AA279A153C
:104BF0008B049C04ED05FE05CF05D007A10798F4B2
:104C0000AD2FDC2FCF2FFE2FE92D982C892E982F3A
:104C1000872F762F652F542F432F322F2227B850FE
:104C200031F7BF9127C01B2EBF91BB27220F331F27
:104C3000441F551F661F771F881F991F881C991CCA
:104C4000EE1FFF1FCC1FDD1FAA1FBB1F8A149B0472
:104C5000EC05FD05CE05DF05A007B10748F08A1871
:104C60009B08EC09FD09CE09DF09A00BB10B2160FF
:104C70001A94E1F62EF49401AF01BE01CD01000CAF
:104C800008956095709580959095309540955095D4
:104C900021953F4F4F4F5F4F6F4F7F4F8F4F9F4F2C
:104CA0000895002E083090F0982F872F762F652FCB
:104CB000542F432F322F22270850F4CF220F331FB7
:104CC000441F551F661F771F881F991F0A95B2F74B
:104CD000002D08952A193B094C095D096E097F09C9
:104CE000800B910B08952A153B054C055D056E055B
:104CF0007F058007910708950024A7FD00942A17D7
:104D00003005400550056005700580059005089543
:104D1000EE0FFF1F0590F491E02D09940F931F9360
:104D2000CF93DF938230910510F482E090E0E09120
:104D3000E106F091E20630E020E0B0E0A0E030973C
:104D400099F42115310509F44AC0281B390B243088
:104D50003105D8F58A819B816115710589F1FB01C7
:104D600093838283FE0111C04081518102811381AE
:104D700048175907E0F04817590799F4109761F060
:104D800012960C93129713961C933296CF01DF91D3
:104D9000CF911F910F9108950093E1061093E206C1
:104DA000F4CF2115310551F04217530738F0A9010E
:104DB000DB019A01BD01DF01F801C1CFEF01F9CF9D
:104DC0009093E2068093E106CDCFFE01E20FF31F40
:104DD000819391932250310939832883D7CF209131
:104DE000DF063091E006232B41F4209171013091D0
:104DF00072013093E0062093DF0620916F0130911D
:104E000070012115310541F42DB73EB74091730172
:104E100050917401241B350BE091DF06F091E00600
:104E2000E217F307A0F42E1B3F0B2817390778F081
:104E3000AC014E5F5F4F2417350748F04E0F5F1FE0
:104E40005093E0064093DF06819391939FCFF0E06B
:104E5000E0E09CCFCF93DF930097E9F0FC0132971D
:104E600013821282A091E106B091E206ED0130E0DA
:104E700020E01097A1F420813181820F931F2091AF
:104E8000DF063091E0062817390709F061C0F0937A
:104E9000E006E093DF06DF91CF910895EA01CE1797
:104EA000DF07E8F54A815B819E0141155105B1F7A5
:104EB000E901FB83EA8349915991C40FD51FEC178F
:104EC000FD0761F4808191810296840F951FE901AD
:104ED00099838883828193819B838A83F0E0E0E0D9
:104EE00012968D919C9113970097B9F52D913C9155
:104EF0001197CD010296820F931F2091DF0630910A
:104F0000E0062817390739F6309751F51092E20676
:104F10001092E106B093E006A093DF06BCCFD383E6
:104F2000C28340815181840F951FC817D90761F44E
:104F30004E5F5F4F88819981480F591F518340838D
:104F40008A819B81938382832115310509F0B0CF3B
:104F5000F093E206E093E1069ECFFD01DC01C0CFB5
:104F600013821282D7CFB0E0A0E0E9EBF7E20C9415
:104F7000D2228C01009751F4CB010E948E268C0125
:104F8000C801CDB7DEB7E0E10C94EE22FC01E60FDC
:104F9000F71F9C0122503109E217F30708F49DC066
:104FA000D901CD91DC911197C617D70798F0C5307C
:104FB000D10530F3CE0104978617970708F3C61B77
:104FC000D70B2297C193D1936D937C93CF010E940D
:104FD0002A27D6CF5B01AC1ABD0A4C018C0E9D1E50
:104FE000A091E106B091E206512C412CF12CE12C6C
:104FF000109731F58091DF069091E00688159905AC
:1050000009F05CC04616570608F058C080916F0141
:1050100090917001009741F48DB79EB74091730154
:1050200050917401841B950BE817F90708F055C0DF
:10503000F093E006E093DF06F90171836083A0CF6F
:105040008D919C91119712966C90129713967C906B
:105050001397A815B90559F56C0142E0C40ED11C8F
:10506000CA14DB0420F1AC014A195B09DA0112967B
:10507000159780F06282738251834083D9016D93CA
:105080007C93E114F10471F0D7011396FC93EE9335
:10509000129776CF22968C0F9D1FF9019183808302
:1050A000F301EFCFF093E206E093E10669CF4816F3
:1050B000590608F42C017D01D3019ACFCB010E943F
:1050C0008E267C01009749F0AE01B8010E9470283D
:1050D000C8010E942A27870153CF10E000E050CF7B
:1050E000FB01DC0102C001900D9241505040D8F705
:1050F0000895FB01DC018D91019080190110D9F315
:10510000990B0895FB01DC0101900D920020E1F75D
:105110000895FB01DC014150504048F001900D9290
:105120000020C9F701C01D9241505040E0F708959A
:10513000AEE0B0E0EEE9F8E20C94DE220D891E89C3
:1051400086E08C831A8309838FEF9FE79E838D838C
:10515000AE01475E5F4F6F89788DCE0101960E9448
:10516000D4282F813885020F131FF80110822E9644
:10517000E4E00C94FA22AEE0B0E0E1ECF8E20C944A
:10518000E02285E08C838B899C899A838983AE0198
:10519000495E5F4F6D897E89CE0101960E94392C50
:1051A0002E96E2E00C94FC22ABE0B0E0EAEDF8E2EF
:1051B0000C94D0227C013B018A01FC0117821682EB
:1051C000838181FFC8C1CE0101965C01F701938103
:1051D000F30193FD859193FF81913F01882309F4A9
:1051E00053C1853239F493FD859193FF81913F013D
:1051F000853229F4B70190E00E949B2DE7CF912CD6
:10520000212C312CFFE1F31538F08B3211F190F4A1
:10521000803209F1833229F137FC3CC020ED280FA0
:105220002A3050F536FE20C08AE0989E200D1124C9
:10523000922E06C08D3291F0803371F7689430F869
:10524000F30193FD859193FF81913F018111DACFA5
:1052500021C0689431F8689432F8F2CF689433F83A
:10526000EFCF689434F8ECCFEAE02E9E200D1124A5
:10527000222E689435F8E4CF8E3229F436FC04C12E
:10528000689436F8DDCF8C3619F4689437F8D8CFA7
:105290008836B1F2982F9F7D95549330E0F0833695
:1052A000A1F18337C1F1833509F063C02801F2E031
:1052B0004F0E511CF801C080D180692D70E036FC82
:1052C00002C06FEF7FEFC6010E94492D4C01689428
:1052D00037F882010AC00C5F1F4FFFE3F98388246F
:1052E0008394912C6501E89437F833FE2DC0522C3D
:1052F0008114910471F5552009F468CFB70180E25B
:1053000090E00E949B2D5A94F6CFF801808189830A
:105310000E5F1F4FE4CF2801F2E04F0E511CF80141
:10532000C080D180692D70E036FC02C06FEF7FEF46
:10533000C6010E94542D4C018201D5CFB70180E2F5
:1053400090E00E949B2D2A942814190409F0B0F7CC
:10535000CECFF60137FC859137FE81916F01B70101
:1053600090E00E949B2D51105A94F1E08F1A910801
:10537000BFCF843619F0893609F077C0F80137FEBF
:105380006BC060817181828193810C5F1F4FF32D0F
:10539000FF763F2E97FF09C0909580957095619597
:1053A0007F4F8F4F9F4F689437F82AE030E0A50178
:1053B0000E94E32DC82ECA188C2C432C36FE0CC03C
:1053C000E89440F8C91440F434FE05C032FC03C030
:1053D000F32DFE7E4F2E892C44FE95C0FE01EC0D70
:1053E000F11D8081803309F087C0242D297E422E53
:1053F000842D8870582E43FC95C040FE8FC09C2C95
:10540000821418F42C0C922C981844FE91C0B70109
:1054100080E390E00E949B2D42FE09C088E790E067
:1054200041FE02C088E590E0B7010E949B2DC9149F
:1054300008F48AC0CA94D12C9FEFC91AD90ACA0CA1
:10544000DB1CF60182916F01B70190E00E949B2D59
:10545000AC14BD04B1F74FCF60817181072E000CF1
:10546000880B990B0E5F1F4F92CFD32CE894D4F882
:105470002AE030E0853739F1232D297FD22E8F366F
:1054800001F148F48835A9F0F701868197812B96C0
:10549000E2E10C94EC22803749F08837A9F7D4FE7A
:1054A00002C06894D2F820E130E00DC06894D4F8CE
:1054B000F6CF34FE03C0822F8660D82E20E132E082
:1054C00002C028E030E0F801D7FE0FC06081718192
:1054D000828193810C5F1F4FA5010E94E32DC82E8E
:1054E000CA183D2CE89437F867CF6081718190E04D
:1054F00080E00E5F1F4FF0CF42FC02C0839478CF54
:105500008394839475CF842D867809F471CFF6CF78
:10551000B70180E290E00E949B2D83948214C0F337
:10552000512C73CF522C5818821408F46ECFF8CF38
:10553000842D867809F47BCF8BE241FE80E247FC24
:105540008DE2B70190E071CFB70180E390E00E9457
:105550009B2D9A946CCF8FEF9FEF99CF20FD09C0C0
:10556000FC0123FD05C022FF02C0738362835183C7
:105570004083089544FD17C046FD1DC0DB01FC01BA
:10558000AA0FBB1FEE1FFF1F1094D1F76A0F7B1FDE
:105590008E1F9F1F660F771F881F991F620F711D37
:1055A000811D911D089533E0660F771F881F991F95
:1055B0003150D1F7F3CF34E0F7CF0F931F93CF9350
:1055C000DF938C01C8010E945F2DEC0197FD08C09C
:1055D0000E94A021892BB1F7B801CE010E94CB2DEA
:1055E000CE01DF91CF911F910F9108958F929F92DD
:1055F000AF92BF92EF92FF920F931F93CF93DF93DF
:105600008C01D62F7A01B22E0E945F2D9C01332788
:105610002B32310529F02D323105A9F46894B7F801
:10562000D15061F480E0DF91CF911F910F91FF90F5
:10563000EF90BF90AF909F908F900895C8010E9407
:105640005F2D97FDEFCFCB2DCD7F2B2D2073F9F460
:105650008033E9F4AA24AA94AD0E89F0C8010E940F
:105660005F2D97FD0CC0282F2F7D283561F4C26473
:10567000D25029F0C8010E945F2D97FF08C0812CED
:10568000912C54011BC0B6FE2BC0C260DA2D812CB8
:10569000912C540120ED280F283028F1C4FD09C0B9
:1056A0002A3008F1C6FF05C02F7D3FEE320F36309D
:1056B000C8F0B8010E94CB2DC1FFB4CFC7FF08C00E
:1056C000B094A09490948094811C911CA11CB11C56
:1056D0002C2FB501A401C7010E94AE2A81E0A3CFFF
:1056E000C261D4CF27504C2FC501B4010E94BA2A01
:1056F0004B015C01C260D15009F3C8010E945F2DCB
:1057000097FFC8CFD9CFA0E2B0E0E9E8FBE20C9464
:10571000D5225C01962E7A01CE0101966C0180E2C1
:10572000F60111928A95E9F7F501B381890130E01C
:1057300020E0712C812CA0E041E050E0F801B3FDA5
:105740008591B3FF8191982F8F01811107C010E0DF
:1057500000E0C801A096EDE00C94F1228E3519F41A
:105760002115310541F1A21713064CF48D3549F18D
:105770008D3229F4811006C0882483941DC08820AE
:1057800009F464C0E92FE695E695E695EC0DFD2D4C
:10579000F11D892F8770BA0101C0660F8A95EAF75B
:1057A0008081682B6083791651F0971510F49F5F04
:1057B000E9CF9150E7CFA1E02F5F3F4FBFCF812CC2
:1057C000FBCF882019F08E8180628E83AA2359F046
:1057D000F6019E012F5D3F4F808180958083319639
:1057E000E217F307C9F788248394C5010E945F2D4F
:1057F00097FD16C0E82FE695E695E695EC0DFD2D94
:10580000F11D208130E0AC014770552702C035956D
:1058100027954A95E2F720FD06C0B5010E94CB2DE1
:10582000882069F094CFE114F10429F0F701808316
:10583000C70101967C019A94812C9110D6CFE11476
:10584000F10409F486CFF701108283CFE82FE695A3
:10585000E695E695EC0DFD2DF11D982F9770BA0198
:1058600001C0660F9A95EAF79081692B6083782EC4
:10587000A3CFB0E0A0E0EFE3FCE20C94D3226C01F4
:10588000EB015A01FC0117821682512CF601E380CC
:10589000FE01E3FC8591E3FE8191182FEF0188233F
:1058A000E9F090E00E94A021892B21F0C6010E941E
:1058B000DD2AECCF153241F4FE01E3FC1591E3FE45
:1058C0001191EF01153269F4C6010E945F2D97FD19
:1058D0008EC01817D9F2B6010E94CB2D852D90E00D
:1058E0008AC000E01A3231F4E3FC1591E3FE119115
:1058F000EF0101E0F12C20ED210F2A3048F101FFEA
:1059000037C0FF2059F31836B1F11C3609F43DC0F9
:10591000112321F3612F70E08CED90E00E943E2D69
:10592000892BE1F2912C812C00FD06C0F5018080CD
:105930009180C50102965C011E3679F5F60146811B
:10594000578170E060E0202FC4010E94AE2A9ECFF4
:1059500002606F2D70E090E080E040E20E94BA2A81
:10596000F62EFE01E3FC1591E3FE1191EF01C3CF8A
:10597000FF24FA94C8CFFE01E3FC1591E3FE1191D8
:10598000EF01183609F0C4CF08600460FE01E3FCA3
:105990001591E3FE1191EF01BBCF1336C1F401FD68
:1059A00002C0FF24F394C6010E945F2D97FD1FC023
:1059B0008114910429F0F4018083C40101964C0103
:1059C000FA94F110F0CF00FD61CF53945FCF1B35F7
:1059D000B9F49E01A4016F2DC6010E94832BEC0136
:1059E000892B89F7F6018381807309F477CF8FEFD4
:1059F0009FEF511073CFCDB7DEB7EFE00C94EF22DD
:105A0000C6010E94DD2A97FDF2CF1F36A9F130F4BE
:105A1000143641F0193639F0006405C01337B9F077
:105A20001537D1F70062202FA4016F2DC6010E9407
:105A3000F62A8111C8CFD6CF8114910429F0F40140
:105A40006082C40101964C01FA94FF2071F0C601F6
:105A50000E945F2D3C0197FD08C00E94A021892B68
:105A600059F3B601C3010E94CB2D8114910409F4AE
:105A7000AACFF4011082A7CF0061D5CFFC01059019
:105A8000061621F00020D9F7C00108953197CF0103
:105A90000895FC010590615070400110D8F7809581
:105AA00090958E0F9F1F0895FC01615070400190EA
:105AB0000110D8F7809590958E0F9F1F0895CF9372
:105AC000DF93EC012B8120FF1AC026FF0CC02F7B37
:105AD0002B838E819F8101969F838E838A8190E0A4
