:020000040800F2
:1000000050820120890200085D5C00089B410008C5
:10001000595C0008ED080008AFD900080000000096
:10002000000000000000000000000000458E0008F5
:100030007511000800000000190300085D8F00081A
:10004000A3020008A3020008A3020008A3020008FC
:10005000A3020008A3020008A3020008A3020008EC
:10006000A3020008A3020008A3020008A3020008DC
:10007000A3020008A3020008A3020008A3020008CC
:10008000A3020008A3020008A3020008A3020008BC
:10009000A3020008A3020008A3020008A3020008AC
:1000A000A3020008A3020008A3020008A30200089C
:1000B000A3020008A9C60008C1C60008A3020008E0
:1000C000A3020008A3020008A3020008A30200087C
:1000D000A302000879D70008A3020008A3020008C1
:1000E000A3020008A3020008A3020008A30200085C
:1000F000A3020008A3020008A3020008A30200084C
:10010000A3020008E9740008A3020008A302000883
:10011000A3020008A3020008A3020008A30200082B
:10012000A3020008A3020008A3020008A30200081B
:10013000A3020008A3020008A3020008A30200080B
:10014000A3020008A3020008A3020008A3020008FB
:10015000A3020008A3020008A3020008A3020008EB
:10016000A3020008A3020008A3020008A3020008DB
:10017000A3020008A3020008A3020008A3020008CB
:10018000A3020008A302000800F002F800F061F8E2
:100190000AA090E8000C82448344AAF10107DA45E2
:1001A00001D100F056F8AFF2090EBAE80F0013F0D3
:1001B000010F18BFFB1A43F0010318474C960100CA
:1001C0006C9601000A444FF0000C10F8013B13F04C
:1001D000070408BF10F8014B1D1108BF10F8015BA0
:1001E000641E05D010F8016B641E01F8016BF9D193
:1001F00013F0080F1EBF10F8014BAD1C0C1B09D1EA
:100200006D1E58BF01F801CBFAD505E014F8016B5B
:1002100001F8016B6D1EF9D59142D6D370470000ED
:100220000023002400250026103A28BF78C1FBD8FF
:10023000520728BF30C148BF0B607047782900F0D3
:10024000E980002070471FB514F0D9FB1FBD10B521
:1002500010BD00F01DFB1146FFF7F5FF13F0B6FCD3
:1002600000F03BFB03B4FFF7F2FF03BC13F070F8A0
:1002700040BA7047C0BA704730BF72B6704762B6B6
:10028000704780F30888704709488047094800474D
:10029000FEE7FEE7FEE7FEE7FEE7FEE7FEE7FEE736
:1002A000FEE7FEE704480549054A064B7047000093
:1002B0006D8F000889010008507C012050820120C8
:1002C000507E0120507E0120EFF3108072B67047FF
:1002D00080F310887047264C4FF6FF7525604FF06D
:1002E000000484F30988234C4FF001052570224C4B
:1002F0004FF08055256062B6FEE730B41E4C4FF0DB
:100300008055256030BC704730B41B4C4FF0805591
:10031000256030BC704700BF72B6EFF3098050B162
:100320001EF0100F08BF20ED108A203880E8F00F73
:1003300012490968086000B5114880475DF804EB70
:10034000104811490A7802700C4810490A68026086
:10035000106890E8F00F20301EF0100F08BFB0ECCE
:10036000108A80F309884EF0040E62B6704700BF11
:1003700022ED00E0E600002004ED00E0EC000020AB
:10038000F1660008DB000020DC000020F400002003
:10039000704700000FB4044910B503AA029800F09A
:1003A000E1F910BC5DF814FB740000202DE9F04168
:1003B0000E460446002020622046E168884730B39C
:1003C000252805D0D4E901219047206A401CF2E796
:1003D000E168204600278847050018D0A5F14100B4
:1003E000192802D820354FF40067324629462046A6
:1003F0002760FFF723FF40B1012804D0F61D26F047
:1004000007060836D8E7361DD6E72846DAE7206A19
:10041000BDE8F08170B504460D4621461068AFF383
:1004200000802188090502D50F4A7A4402E00E4A6D
:100430007A440E32002104F1240305E000F00F0697
:100440000009965D5E54491C0028F7D120780023EE
:10045000000704D5702D02D009B1022311322046C5
:10046000BDE8704000F025B9D292010040EA0103D6
:1004700010B59B070FD1042A0DD310C808C9121F4D
:100480009C42F8D020BA19BA884201D9012010BD87
:100490004FF0FF3010BD1AB1D30703D0521C07E054
:1004A000002010BD10F8013B11F8014B1B1B07D1B8
:1004B00010F8013B11F8014B1B1B01D1921EF1D129
:1004C000184610BD032A40F2308010F0030C00F0F3
:1004D000158011F8013BBCF1020F624498BF11F87E
:1004E00001CB00F8013B38BF11F8013BA2F1040237
:1004F00098BF00F801CB38BF00F8013B11F00303AF
:1005000000F06780083AC0F0088051F8043B083AD0
:1005100051F804CBA0E80810F5E7121D5CBF51F8B4
:10052000043B40F8043BAFF30080D20724BF11F82E
:10053000013B11F801CB48BF11F8012B24BF00F893
:10054000013B00F801CB48BF00F8012B7047431A6C
:1005500028BF9A427FF6B6AF032A1044114440F2F6
:10056000268010F0030F1EBF11F8013D521E00F847
:10057000013D10F0030F7FF4F6AF11F0030300F01C
:100580001681083AC0F00B8051F8043D083A51F842
:1005900004CD40F8043D40F804CDFFF7F3BF121D31
:1005A0005CBF51F8043D40F8043DAFF30080D20732
:1005B00024BF11F8013D11F801CD48BF11F8012CFD
:1005C00024BF00F8013D00F801CD48BF00F8012C20
:1005D000704710B5203AC0F00B80B1E81850203AAF
:1005E000A0E81850B1E81850A0E81850BFF4F5AFD3
:1005F0005FEA027C24BFB1E81850A0E8185044BF5D
:1006000018C918C0BDE810405FEA827C24BF51F8C9
:10061000043B40F8043B08BF7047D20728BF31F8BD
:10062000023B48BF11F8012B28BF20F8023B48BF0E
:1006300000F8012B704702F0FF0343EA032242EA6D
:10064000024200F0E0B84FF0000200B513469446B5
:100650009646203922BFA0E80C50A0E80C50B1F11A
:100660002001BFF4F7AF090728BFA0E80C5048BF2E
:100670000CC05DF804EB890028BF40F8042B08BFCC
:10068000704748BF20F8022B11F0804F18BF00F8C8
:10069000012B7047704770477047704710B500F0E6
:1006A000D3F8006810BD10B5044600F0CDF8046022
:1006B00010BD2DE9F0470D4699469246044600F1DB
:1006C00024080168880604D5E06921F01001216042
:1006D00000E00120A84201DD471B00E00027A169DE
:1006E0007A1902EB0900081AA0612078C00602D42A
:1006F0002046AFF30080002608E0D4E901211AF873
:1007000006009047206A401C761C20624E45F4DBB0
:100710002078C0060AD52046AFF3008006E0D4E971
:10072000012130209047206A401C2062381EA7F12A
:100730000107F4DC07E0D4E9012118F8050090472F
:10074000206A401C2062281EA5F10105F3DC20462A
:10075000AFF300802078000602D50220BDE8F087C4
:100760000120FBE7074B70B50D467B4400F075F8A0
:100770000446284600F084F810B14FF0FF3070BDF9
:10078000204670BDCF330100431A28BF9A427FF63E
:1007900020AF104410F0030F11441EBF11F8013DAB
:1007A000521E00F8013D10F0030F7FF4F6AF103A2F
:1007B000C0F00A8010B531E91850103A20E91850FD
:1007C000BFF4F9AFBDE81040530724BF31E908106A
:1007D00020E9081044BF51F8043D40F8043D12F0F0
:1007E000030F08BF7047D20728BF31F8023D48BF4A
:1007F00011F8012C28BF20F8023D48BF00F8012C59
:1008000070474FF000020429C0F0128010F0030C72
:100810003FF41BAFCCF1040CBCF1020F18BF00F881
:10082000012BA8BF20F8022BA1EB0C01FFF70DBF95
:100830005FEAC17C24BF00F8012B00F8012B48BF00
:1008400000F8012B7047000000487047EC7B012046
:1008500001694A1C02610878704700B58FB0CDE984
:1008600001310021059105497944CDE90310114674
:100870006846FFF79BFD0FB000BD0000E5FFFFFFDE
:10088000007B00F08000704700487047EC7B01203F
:100890007546FFF7F9FFAE4605006946534620F05E
:1008A0000700854618B020B5FFF7FCFCBDE82040E6
:1008B0004FF000064FF000074FF000084FF0000B1C
:1008C00021F00701AC46ACE8C009ACE8C009ACE8CF
:1008D000C009ACE8C0098D46704710B50446AFF3B7
:1008E00000802046BDE81040FFF7BCBC00BFFEE71B
:1008F00031B52DED068B82B00024002574480078B8
:10090000401C73490870084600780A2190FBF1F2F8
:1009100001FB120018B16E4800780A287EDA012225
:1009200008A9002006F0C2FB9DF8200000F01F007F
:10093000002873D09DF8200000F01F0040F0C00098
:10094000644981F82000002486E0624890F8200085
:100950000121A140084000287CD05F4931F81400F3
:10096000042201A906F0A2FB5A4890F8340000F0D6
:100970000100D0B39DF807109DF8062001EB02207E
:1009800013F06FFC41EC190B9FED540B53EC102B43
:1009900013F0CEFC41EC180B13F036FC81B24D483D
:1009A000163020F814109DF805109DF8042001EB76
:1009B000022013F056FC41EC1A0B9FED4A0B53EC4E
:1009C000102B13F0B5FC41EC190B9FED480B53ECC9
:1009D000102B13F0E1FD41EC180B13F015FC81B264
:1009E0003C480C3020F8141034E0FFE79DF8071065
:1009F0009DF8062001EB022013F033FC41EC190BAB
:100A00009FED360B53EC102B13F092FC41EC180BBE
:100A100013F0FAFB81B22F480C3000E02BE020F8F5
:100A200014109DF805109DF8042001EB022013F02E
:100A300018FC41EC190B9FED2B0B53EC102B13F012
:100A400077FC41EC180B13F0DFFB81B22148163024
:100A500020F81410601CC4B2052CFFF676AF0125F7
:100A60001C48808920B91B48C08A08B9002008901A
:100A70000020174908709DF8200000F01F00D0B931
:100A8000144890F8200000F0800040B1114890F820
:100A9000200020F080000F4981F820000BE04FF685
:100AA000FF700C498881C882084690F8200000F049
:100AB000E00081F8200006480078F02802DD0A20D6
:100AC00003490870284602B0BDEC068B38BD000013
:100AD0000400002008000020C86101087B14AE4714
:100AE000E17AD43FD881734694F6D23F00000000EB
:100AF0000000894010B5052012F0F8FC10BD000080
:100B000010B500200F4908600F48006820F440002D
:100B10000D4908600846006840F480000860FFF74F
:100B2000E9FF00200949C1F8AC02FFF7E3FF01200B
:100B300004490860FFF7DEFF00200549C1F8800284
:100B400010BD0000808240420014024000804242FA
:100B5000008040421CB50121222006F015FB012037
:100B600000908DF8040003208DF8050000208DF81A
:100B7000060001208DF807006946084800F0C4FC13
:100B80004FF4006000906946054800F0BDFC01206C
:100B9000044908600449C1F8AC021CBD00040240CD
:100BA00000140240808240420080424210B5002082
:100BB0000F4908600F48006820F440000D490860A4
:100BC0000846006840F480000860FFF793FF0120AA
:100BD0000949C1F8AC02FFF78DFF01200449086004
:100BE000FFF788FF00200549C1F8800210BD000012
:100BF0008082404200140240008042420080404215
:100C000070B5054600241448006820F440001249DD
:100C10000860084600680860002612E000200F49BE
:100C200008601E2012F062FC01200D49C1F880020C
:100C30006006040E0B48006808B1601CC4B2701C4A
:100C4000C6B2082EEADB15B9FFF7B0FF01E0FFF7E7
:100C500057FF204670BD00000014024080824042D1
:100C6000008040422C82424270B50446134800681E
:100C700020F44000114908600846006840F48000F4
:100C8000086000200E490860FFF734FF002511E0DE
:100C9000E0090C4908606006040E01200A49C1F809
:100CA0008002FFF727FF002005490860FFF722FFB9
:100CB000681CC5B2082DEBDB70BD000000140240BB
:100CC00080824042AC8242420080404210B50F48D0
:100CD000006820F440000D4908600846006840F4B0
:100CE0008000086001200A4908600A49C1F88002B2
:100CF000142012F0FBFB002005490860FFF7FAFE04
:100D000000200449C1F8800210BD00000014024018
:100D1000AC8242420080404210B50D48006820F489
:100D200040000B4908600846006840F480000860F5
:100D3000012008490860142012F0D8FB0020064961
:100D4000C1F8AC02FFF7D6FE01200449086010BDCF
:100D5000001402408082404200804242AC82424203
:100D600010B500241148006820F440000F490860C5
:100D700008460068086001200D4908600D49C1F867
:100D800080020AE0601CC4B2FA2C03DDFFF7C4FF46
:100D9000012010BD012012F0A9FB05488038006831
:100DA0000028EFD10449086000BFF2E700140240B8
:100DB000AC824242008040428082404270B50025B1
:100DC0004FF4803400E0641E24B1802006F06CFBF8
:100DD0000028F8D014B90325284670BD40F2FF5012
:100DE00006F014FB2846F8E7014600BF08480068F3
:100DF00000F045000028F9D040F2FF50044A121DCF
:100E0000106003482038006808221040C0B27047C4
:100E1000342C014070B500251048046801E00F48EB
:100E2000046804F045000028F9D004F0040028B15B
:100E30000325042006F0EAFA284670BD04F00100FC
:100E400028B10125012006F0E1FA2846F5E740F235
:100E5000FF5006F0DBFA2846EFE70000342C014093
:100E600070B500250B48046801E00A48046804F0E6
:100E700045000028F9D004F0040028B1032504201F
:100E800006F0C4FA284670BD40F2FF5006F0BEFAE4
:100E90002846F8E7342C01402DE9F04106460F467C
:100EA0004FF000082248056801E02148056805F078
:100EB00045000028F9D005F0040038B14FF00308D0
:100EC000042006F0A3FA4046BDE8F08105F00100D9
:100ED00030B14FF00108012006F098FA4046F3E7E0
:100EE00006F0DCFAB04203D04FF010084046EBE7C2
:100EF00040F2FF5006F08AFA002006F0E9FA0446B4
:100F000004F4604018B9200C38804046DCE704F453
:100F1000005008B11320D7E704F4804008B1102036
:100F2000D2E704F4004008B10F20CDE74046CBE7FC
:100F3000342C014070B500264FF480350F4804680A
:100F400002E06D1E0D48046804F0450008B9002D4C
:100F5000F7D115B104F0040028B10326042006F0EF
:100F600055FA304670BD04F0400028B100264020FC
:100F700006F04CFA3046F5E73046F3E7342C0140F2
:100F800021B1026842F00102026003E0026822F02F
:100F90000102026070470000016821F00101016058
:100FA0000021016041608160C160016121214161D6
:100FB0004A49884204D13D21484A103A91608CE068
:100FC00046491831884205D14FF47461434A103ABA
:100FD000916082E041493031884205D14FF474116B
:100FE0003E4A103A916078E03C494831884205D148
:100FF0004FF07461394A103A91606EE037496031C0
:10100000884204D13649354A103AD16065E0334907
:101010007831884204D13349304A103AD1605CE0DB
:101020002E499031884204D12F492C4A103AD16080
:1010300053E02A49A831884205D14FF03D51274A53
:10104000103AD16049E02949884204D13D21274A1C
:10105000083A116041E025491831884205D14FF422
:101060007461224A083A116037E0204930318842E1
:1010700005D14FF474111D4A083A11602DE01B4947
:101080004831884205D14FF07461184A083A11601E
:1010900023E016496031884204D11149134A121FD6
:1010A00011601AE011497831884204D10D490F4A84
:1010B000121F116011E00D499031884204D10A4994
:1010C0000A4A121F116008E00849A831884204D179
:1010D0004FF03D51054A121F1160704710600240E9
:1010E0003D000020400F002000003D201064024021
:1010F00021B1026842F02002026003E0026822F09F
:10110000200202607047014600200A6802F00102D6
:101110000AB1012000E000207047000010B5002255
:101120000268134B1A40CC680B6823434C69234375
:101130008C692343CC6923430C6A23434C6A2343C1
:101140008C6A23434C6B23438C6B23431A4302600A
:10115000426922F00702D1E90B3423431A4342616A
:101160000B6943604B6883608B68C36010BD0000EF
:101170003F801CF070472DE9F04306460F4690462D
:10118000002445460320A0EB48093CE07A1B91B2BD
:10119000321990B203F0A0FB3A1B91B2721990B2CF
:1011A00003F09AFB3A1991B2721990B203F094FBD2
:1011B0007A1991B2321990B203F08EFB7A1991B27A
:1011C000321B90B203F088FB3A1991B2721B90B2B5
:1011D00003F082FB7A1B91B2321B90B203F07CFBCE
:1011E0003A1B91B2721B90B203F076FB641CB9F10A
:1011F000000F03DAA000801D814404E0601B800022
:101200000A3081446D1EAC42C0DDBDE8F0830000B1
:1012100051B18200A2F1C042126842F00103820083
:10122000A2F1C042136009E08200A2F1C04212683C
:10123000034B1A408300A3F1C0431A6070470000BB
:10124000FEFF0F00D0E901121143C2681143026989
:1012500011434269114382691143C2691143026A11
:101260001143426A1143826A1143C26A1143026BFD
:10127000114302689200A2F1C042116081680829FE
:101280000BD101688900A1F1C041096841F0400219
:1012900001688900A1F1C0410A60416B0968426B95
:1012A000526841EA0211426B926841EA0221426BA4
:1012B000928941EA0241426B128A41EA0251426B31
:1012C000127D41EA0261426B926911430268521C2D
:1012D0009200A2F1C0421160C16AB1F5804F1BD1EA
:1012E000816B0968826B526841EA0211826B9268D5
:1012F00041EA0221826B128A41EA0251826B127D1D
:1013000041EA0261826B9269114302689200A2F184
:10131000C042C2F8041107E06FF070420168890012
:10132000A1F1C041C1F80421704700002DE9FC4142
:1013300007460D460026002400200090019008205A
:101340005D49086010204860402088600020C86027
:101350004FF480600861084606F0F8F81020FFF7A7
:1013600043FD044614B12046BDE8FC815348008883
:101370000004514908603720486040208860002000
:10138000C8604FF480600861084606F0DFF8372037
:10139000FFF72AFD04460CB12046E5E74FF0FF3089
:1013A0004749086008204860302088600220C860F3
:1013B0000020086101204861084606F049F8002035
:1013C0003D49086033204860402088600020C860A4
:1013D0004FF480600861084606F0B8F83320FFF744
:1013E00003FD04460CB12046BEE70CE04FF40010AC
:1013F00006F05AF838B106F0A3F84DF82600761C2E
:10140000012E00D906E02F48006840F22A6108400A
:101410000028EBD000BF082006F046F828B10820CD
:1014200005F0F4FF042420469EE7022006F03CF875
:1014300028B1022005F0EAFF0224204694E720208C
:1014400006F032F828B1202005F0E0FF06242046FF
:101450008AE74FF4007006F027F830B14FF40070BF
:1014600005F0D4FF072420467EE740F2FF5005F048
:10147000CDFF00980006009901F47F4140EA012069
:10148000009901F47F0140EA1120009940EA1160BF
:10149000686001980006019901F47F4140EA01204B
:1014A000019901F47F0140EA1120019940EA11609D
:1014B0002860204658E700004829002050000020FE
:1014C0005C290020342C014010B5002001F078FC8C
:1014D0006FF07F4001F07FFC012001F0E7FC00206D
:1014E00001F0F2FC002001F0FFFC002001F084FC80
:1014F0000448006801F08CFCBDE81040002001F0B9
:10150000A7BC000078020020F0B50A4600210023A5
:10151000002400BF3DE0012505FA01F3156805EA46
:1015200003049C4234D105684F000326BE40B543F6
:10153000056015794E00B54006683543056015799C
:10154000012D02D01579022D16D185684F00032692
:10155000BE40B543856055794E00B5408668354339
:101560008560456801268E40B5434560456896799B
:101570008E40B6B235434560C5684F000326BE4075
:10158000B543C560D5794E00B540C6683543C560E2
:10159000491C1029BFD3F0BDF0B5002300244D072E
:1015A000ED0E02FA05F3CE1000F1200555F8265095
:1015B0004E07F70E0F26BE40B543CF1000F12006B0
:1015C00046F82750CE1000F1200555F8265045EA80
:1015D0000304CE1000F1200545F82640F0BD01833C
:1015E000704700002DE9F04FDFF828B191B04FF0BF
:1015F000FF35DBF80030B3F922100691DE69B3F94C
:101600002490F469A189814206D8E289824203D3F9
:10161000471AD4F8008012E0D4E9018100296FD084
:101620000A8882426CD84D88854269D3801A82B27A
:10163000486800EB8200B0F90070B0F90250781CE5
:101640005ED0307EA17C10FB01FA217CCDE908013F
:10165000B3F92A60304603F02FFFC0B20E90DBF8DA
:10166000000007FB0A81A37C826B0127CDE90412ED
:10167000CDE90273C069DDE90832C17E807ECDE923
:1016800000014946069802F06BFF681C18D046F02E
:10169000020003F011FFDBF80000A37C05FB0A81C8
:1016A000826BCDE90273CDE90412C069DDE908322D
:1016B000C17E807ECDE900014946069802F050FFC8
:1016C000DBF800005D46C069417E007E814214D98E
:1016D000022E12D086F0040003F0EEFE2868C069E6
:1016E000027EC37E12FB0391437E857E099A069893
:1016F0004B4402FB050203F0B9F90E9803F0DCFE3F
:10170000DBF80000627C418C1144418411B0BDE8DB
:10171000F08F00007C02002004480068C069C069A6
:1017200009B1027C0A60407C704700007C02002006
:10173000022008807047C06982898A4202D8C28923
:101740008A4210D2806880B102888A420DD84388CC
:101750008B420AD3406800EB8100A0EB8200B0F915
:101760000000002801DB01207047002070470000C6
:101770002DE9F0432F4C034687B020681946B0F995
:101780002A80C069C06900F084F800284ED0416802
:101790000088181A01EBC0054046AE7803F08CFEB5
:1017A000814620686A680123816BCDE90236CDE964
:1017B0000421C169CB7E8A7ECDE900230B7EB0F97E
:1017C00024102A78B0F9220002F0CAFE2068C0690D
:1017D000477E067EB7421DD9C07E47434643B8F1D7
:1017E000020F17D000F016FD804600F0E1FC01F07A
:1017F000F2FA21682A78CB69B1F92200DB7E12FB6C
:101800000302B1F92410CB19314403F02FF94046FB
:1018100001F0E1FA484603F04FFE20686A78C36998
:10182000B0F922109B7E12FB0311418407B0BDE882
:10183000F08300007C02002030B50F4C05460B46BB
:1018400020682946C069C06900F023F8002811D03B
:101850004168008824682A1A0120E46900EBC2006C
:10186000085CA47E10FB04F0002B03D011F83210AA
:101870006143196030BD00007C0200200120088017
:10188000704700B5C06900F004F8002800D00120BE
:1018900000BD06E002888A4202D842888A4202D20B
:1018A00080680028F6D1704770B500240E4D16E010
:1018B00028690E4900EBC410001D78220968FEF764
:1018C00088FE2869002100EBC410016000F10C01C2
:1018D0008161011D0A1DC0E90F12641C4164A868E2
:1018E0008442E5DB70BD0000580300207C0200202C
:1018F00070B50D490B480860084602F003FC0A4C1D
:10190000143CA068C501284600F068F82A4600216A
:10191000206102F0FFFB4FF0FF302060BDE8704017
:1019200001F0CCBE191E01086C03002010B50400A4
:1019300009D000F029FD20460DF07EFD044601F09F
:1019400075FE204610BD002010BD38B5054600F0DC
:101950001BFD2846FFF7EAFF040009D000F0BAF8A3
:101960002A460021009002F0D5FB684600F0F0F80E
:1019700001F05CFE204638BD024A106021F00300F1
:1019800050607047007A012010B5040016D000F0B6
:10199000FBFC0B48006B10F8341059B1022909D236
:1019A000042101EBC401415848680DF009FD2046AF
:1019B00010F020FBBDE8104001F038BE10BD000063
:1019C00044790120002805D0034A916B016001B1E0
:1019D0004860906370470000447901202DE9F04190
:1019E000044610F0AFF82648E41C24F00305C16B50
:1019F0002D1DA94200D90D46846B13E054F8042C28
:101A0000AA420ED184B1216809B162684A60616856
:101A100009B122680A60826BA2422ED121688163DB
:101A20002BE02468002CE9D18046416B80680F18B8
:101A300057F8040C3E1A306838B1002010F042FB11
:101A400057F8040C3E1A3068B8B97068A84214DB25
:101A50003044441B304610F0EDFAD8F80810491B0A
:101A6000C8F80810D8F810102944C8F81010706889
:101A70003146401B0DF0A4FC20C42046BDE8F08197
:101A80004479012010B5002410F05CF80C490F20B7
:101A900001EBC002126C1AB101EBC000006C08E04F
:101AA000401EF5D508E04168A14200D90C46806887
:101AB00010B180680028F6D1A4F10C0010BD000020
:101AC0004479012002484169491C41617047000086
:101AD0004479012005498A69521C8A61096B01EB2E
:101AE000C0010A78521C0A7000F04AB844790120FB
:101AF00010B500F049FCFFF7C5FF64220849B0F5B6
:101B0000800F04D990FBF2F4C869444303E0C9692B
:101B10004143B1FBF2F401F089FD204610BD000005
:101B2000447901200549102805D94A68B0EB520FC5
:101B300002D3500800E0102088607047007A01202E
:101B400002484169491E4161704700004479012003
:101B50000A4902680B6B52F8082C03EBC202137897
:101B6000022B03D38B690BB15B1E8B611178491E6D
:101B7000117000210160084670470000447901207F
:101B8000002806D00349042202EBC000096B085864
:101B9000083070474479012070B514460D4606465A
:101BA00000F0F2FB204600F041FB0300174804EB75
:101BB000840109D050F8210041688068711A2A1AFE
:101BC000184601F035F91CE000EB8104A268B2422E
:101BD00001D0012200E00022E368AB4201D00123E2
:101BE00000E000231A430CD0236943B150F82100D0
:101BF000816840686A1A311A184601F0A1F8C4E9F0
:101C00000265BDE8704001F011BD00004C7B012071
:101C100010B5C2B2CBB2D21A02D5C2F1000212B2D2
:101C200093B2C0F30722C1F3072403FB03F3121B93
:101C300001D5524212B2000C92B2A0EB114002FB4D
:101C4000023200B2002801DA404200B280B200FB4A
:101C5000002010BD10B50021084600F04DFB40F6F5
:101C6000FF725042BDE8104013460146AFF30080BA
:101C70002DE9FC411C4615460E46074600F084FB44
:101C8000042003F019FC80461248C068C16C006D46
:101C90000F4406440D440444ADF80070ADF8045000
:101CA000ADF80260ADF8064068460CF04FFF07E063
:101CB00023462A463146384602F0D8FE0CF008FF8B
:101CC0000028F5D1404603F0F7FB01F0AFFCBDE87A
:101CD000FC81000070020020B0F90630B0F9042049
:101CE000B0F90210B0F90000FFF7C2BF2DE9F041D2
:101CF0001C4616460D460746022B02DB0020BDE8B7
:101D0000F0811C20FFF76AFE0028F8D00DB10561B4
:101D10000AE0094A52F8241009B905E011460A6898
:101D2000002AFBD10969016184618682002101607A
:101D30004160C0E90217E2E79402002070B51D4639
:101D4000FFF7D4FF040001D000F00EF8E06800684F
:101D500020B90348006800EB85008465204670BD0B
:101D60007C020020FFF72EBE70B590B38269022A74
:101D700030DA1C4C54F8221019B944F822002FE034
:101D800019464B68002BFBD106E0CB68C5681B6881
:101D90002D68AB4203DD09680029F6D11AE0C1B114
:101DA000CB68C6681B683668B3420CD1838A012BA6
:101DB00005D008E01946DB681B68AB4203DB0B6803
:101DC000002BF7D129B14B6833B118604A684260E3
:101DD00004E0FFE7012070BD44F822004860016084
:101DE000002070BD9402002010B503E00468FFF7E6
:101DF000BBFF20460028F9D110BD10F025BE000021
:101E00002DE9F0410026DFF834800D4F354600BF44
:101E100058F8254009E0E0680068385C20B12046A9
:101E200010F012FE266026462468002CF3D16D1CAB
:101E3000022DEDDB3046BDE8F08100009402002069
:101E40004C630108022801DB00207047054951F866
:101E5000200004E0C16809680029F6D00068002865
:101E6000F8D17047940200202DE9F041044601F0BA
:101E700017FC06191EE000BF00F026F9052F00DD53
:101E8000052700F081FA11480568FFF71BFE2C00BA
:101E900017D000BF01F0CAFB641EFBD1384601F029
:101EA000E5FB1DB100F070FA6D1EFBD1FFF748FE97
:101EB00001F0BCFB01F0F4FB371A002FDCDCBDE8BD
:101EC000F081384601F0D2FBF0E700006403002007
:101ED0002DE9FC4706005FD000F056FA00F0B0F99B
:101EE0003C4C81462068B0F9228000F0D7F9216887
:101EF00007468A8CD01B888441E000BF47F6FF71FB
:101F0000304601F0CBFF82460146304601F09CFF8F
:101F10002168054691F82C0000F00300012841D00B
:101F200002283BD000204A8C101A4884ADF80000EB
:101F30006A1E1044ADF80400888CADF80200A9F1C7
:101F400001010844ADF806006A465146304601F0EA
:101F50005DFD2168BDF8020088845146304601F0DD
:101F600041FA064430780A281ED00D281CD0BDF84E
:101F70000000216828444884307818B1761C3078F5
:101F80000028BBD12068818C39448184818D21F067
:101F90000301818501F04AFBBDE8FC8705EBD570A4
:101FA0004010C0E72846BEE7206890F82C1001F0EA
:101FB000030101290BD0022909D0018C4184317819
:101FC0000A29D9D1828C02EB09018184D4E7A0F8D7
:101FD0002280F4E77C02002070B514460D460646C8
:101FE00000F0D2F905480068458484843046FFF744
:101FF0006FFFBDE8704001F019BB00007C020020BB
:102000002DE9F04107460A4815460E460068B0F92A
:102010002C0040F0020000F057FF04462A463146EB
:102020003846FFF7D9FF2046BDE8F04100F04CBF2D
:102030007C0200202DE9FC411C4616460D46074651
:1020400000F0A2F91A480168087ECA6C096D401EAA
:1020500017440D440C44391A1644ADF800103118D9
:10206000ADF80410291A2044ADF80600ADF80210AE
:1020700068460CF06BFD15E032462946384602F002
:1020800073FB32462146384602F06EFB621E691C25
:10209000384602F033FC621E691C304602F02EFC0A
:1020A0000CF016FD0028E7D101F0C0FABDE8FC8174
:1020B0007C020020B0F90630B0F90420B0F902101B
:1020C000B0F90000FFF7B6BF10B5002400E001240E
:1020D00000F004F80028FAD1204610BD064810B5DB
:1020E0000068002410B1804700B101240BF094FF78
:1020F00000B10124204610BD9C02002008B50B460B
:10210000002805D0009281888268C08800F001F81C
:1021100008BD10B50828029C30D008DC04FB01F48F
:1021200001280AD0022813D0042804D11CE010286A
:1021300028D020282CD0002010BD04EBD30003F0C1
:102140000701105CC1F10701C84000F0010010BD9B
:1021500004EB93000621105C01EA4301C1F1060182
:10216000C84000F0030010BD04EB5300D907105C19
:1021700002D000F00F0010BD000910BD04FB0130BB
:10218000105C10BD481004FB003032F8100010BD88
:10219000881004FB003052F8200010BD034951F8AC
:1021A0002000C1688A6A08211047000094020020BC
:1021B00010B500F0E9F802F089FC02F021FD0446B8
:1021C00001F034FA204610BD10B5044600F0DCF8EA
:1021D000054800210068C0694268204690470446CF
:1021E00001F024FA204610BD7C02002070B50C4698
:1021F000054600F0C9F8064821460068C0694268F3
:1022000028469047044601F011FA204670BD0000B0
:102210007C02002010B500F0B7F802F05FFC02F07D
:10222000EFFC044601F002FA204610BD002102280E
:1022300002D2024951F8201008467047500300208E
:1022400010B500F0A1F804480068C069447E01F0B0
:10225000EDF9204610BD00007C02002070B5144648
:102260000D46064600F090F822462946304602F018
:1022700069FC10B1002028602060BDE8704001F0CA
:10228000D5B970B50C46054600F07EF821462846C3
:1022900001F020FEBDE8704001F0C8B910B500247F
:1022A00000F072F80B48006890F82C1001F00C0157
:1022B000042904D0082906D00C2907D103E0C069FD
:1022C000047E641E02E0C069007E440801F0AEF99D
:1022D000204610BD7C020020024951F82000006910
:1022E0000068704794020020024951F820000069FC
:1022F000406870479402002070B50D46044600F017
:1023000043F820460FF052FB044628460FF056FBD8
:10231000044301F08BF9204670BD0000144810B54D
:10232000016821F001010160124801218160124918
:10233000016000681149884200D0FEE701F04CFBC3
:102340000F492E20087001F0AFF90E480FF0ACFBDA
:10235000FFF7CEFA11F076F904460021084600F0A6
:1023600085FD0CF095F8FFF79FFA204610BD0000A0
:10237000002000E000300240C2A507F4CDB5E8B56A
:10238000700200200C7A012070B51F4CE06820B16B
:1023900001F07EF96168884204D001F09FF901F0F4
:1023A00077F96060E068401CE060012825D10025D5
:1023B0000AE000BF01F06CF9216901EBC511096861
:1023C000814205D0D1B16D1CA0688542F2DB0025A9
:1023D0002068854211D000280EDBFFF711FD22682E
:1023E000216901EBC212D067084A01EBC510011D3B
:1023F0001160C06FFFF7F8FC256070BD216901EB2B
:10240000C5110860E4E70000580300207C020020AA
:102410001CB5040004D10E480068046E002C16D0D0
:10242000FFF7B2FF2046FFF755FB0090446968466E
:10243000FFF78EFB4CB12046FFF74CFB0190816803
:102440008968884701A8FFF783FB01F0EFF81CBDFE
:102450007C02002001490A4600F002B801F0FFFFAB
:102460002DE9F04387B015460C465FEA000846D0D8
:10247000FFF78AFF002000F0BFFC8146214800687A
:10248000066E4046FFF726FB00900068806900F06A
:102490007FFC074640F6FF70001904D10098B0F9A0
:1024A0000440B0F906500098611E0289ADF804405E
:1024B0001144ADF808104189681E0844ADF8065073
:1024C000ADF80A000BF0F2FB6846FFF741FB01A8EC
:1024D0000CF03CFB06E02A462146404600F028FB73
:1024E0000CF0F6FA0028F6D1384600F051FC3046E0
:1024F00000F06AF9484600F07FFC01F097F807B059
:10250000BDE8F0837C0200202DE9FE4F98469146FD
:102510008A46834600270C9EFFF736FF1748184966
:102520000068407C51F82040E1680968042903D024
:102530002468002CF8D100E014B9FFF783FC0446AE
:102540000121E068C26A20469047050011D0246945
:10255000A0688047401C02D10A4C46F00106009654
:10256000CDE9015443464A465146584600F0C6F963
:10257000074601F05BF83846BDE8FE8F7C0200207C
:10258000940200205C96010838B504001CD0FFF7C7
:10259000FBFE0E480068006EA04201D100F0EAFB8D
:1025A0002046FFF797FA0090406908B101F027F83C
:1025B00000980068FFF7D6FB6846FFF7C9FA204687
:1025C000FFF7E2F901F032F838BD00007C0200208C
:1025D0002DE9FF4F83B0454CDDF840B098468A4660
:1025E00007002BD002A901A8FFF74BFEB7F9006046
:1025F000002E00DA0026B7F90250002D00DA00257F
:102600002068A146407C02F0B3FA01990144491EBA
:10261000B7F904000FF033FB0446D9F80000407C02
:1026200002F0ACFA02990144491EB7F906000FF016
:1026300026FBA71B7F1C441B641C0BE020680026A4
:102640003546407C02F094FA07462068407C02F050
:1026500095FA0446B8F1000F01D1C4F10008002F2B
:1026600001DD002C03DC002007B0BDE8F08F4346FD
:102670003A4629463046CDF800B0FFF745FF5FEAFD
:10268000000909D000F060F88046484600F09CF848
:102690000027DFF85CB01FE051460598884701200D
:1026A000E2E7E11B414502DA484600F071F83FB12C
:1026B000EA193146484600F0B5F84846FFF7A8FE4B
:1026C000514605988847DBF8001009B1002088477B
:1026D0004846FFF7BFFE4744A742E2DB4846FFF704
:1026E00053FF002000F070F8BDE700007C020020DE
:1026F0009C03002038B505004FF0000411D0FFF70F
:1027000043FE2846FFF7E6F90090006800698068FC
:10271000804703F069FA04466846FFF719FA00F0AB
:1027200085FF204638BD38B50446FFF72DFE20460C
:10273000FFF7D0F900F1180400906846FFF708FA97
:1027400000F074FF204638BD38B504460025FFF779
:102750001BFE1CB908480068046E44B12046FFF710
:10276000B9F90090B0F90A506846FFF7F1F900F0A6
:102770005DFF284638BD00007C02002010B50CF03B
:1027800097FF002803D0BDE8104000F07DB810BDD1
:1027900038B50C46050004D10A480068056E002DC6
:1027A0000FD0FFF7F1FD2846FFF794F90090B0F93C
:1027B0000A10A14200DD44816846FFF7C9F900F024
:1027C00035FF38BD7C020020F8B50546FFF7DCFD7B
:1027D000134E3068046E65B10CB100F0CBFA0BF00B
:1027E0006BFB2846FFF776F9009031680A6E1AB144
:1027F00006E000F0BFFA0EE0D1E90223C1E9192397
:102800000D660068FFF7B0FA6846FFF7A1F902F01D
:10281000C3FF02F0ABFD00F009FF2046F8BD000049
:102820007C0200207CB515460E46040004D11548F4
:102830000068046E002C24D0FFF7A6FD2046FFF7A9
:1028400049F92DB20090C58034B2848002F08EFD2B
:102850000098406980B1FFF73DF9009A0190B2F904
:1028600008108180B2F90A20C28011B10AB1048037
:10287000458001A8FFF76CF96846FFF769F900F099
:10288000D5FE7CBD7C02002001490A4600F002B85A
:1028900001F0FFFF7FB515460C4606002DD0FFF76F
:1028A00073FD3046FFF716F940F6FF7101900919E4
:1028B00003D1B0F90440B0F906500289611E1144F9
:1028C000ADF80840ADF80C104189681E0844ADF819
:1028D0000E00ADF80A5001A8FFF73AF902A80CF073
:1028E00035F906E02A462146304600F009F90CF099
:1028F000EFF80028F6D100F099FE7FBD2DE9FF4FDB
:10290000DFF8E0B083B01C46DBF80010DDE91060B2
:10291000924600274B7C3A461299FFF7E7F90500EB
:102920005DD028698068804703F05EF981460AFB24
:1029300009F0C01D4FEAD008FFF7DAF8F10705D11A
:10294000C11700EB9170801000EB4000002C06DCFA
:102950001838B0FBF8F06442A04200DC0446F007EF
:1029600007D10090DDE903012346524600F0BAFD8D
:102970000746002C03DC2846FFF7F4F92FE004FBA0
:1029800008F01830F10702D0FEF7D0FF01E0FEF7A3
:10299000DCFF06001CD0FFF79DF80190056003994D
:1029A00081800499C180A0F808A04481C0F80C80FF
:1029B000C0E9049701A8FFF7CBF81298AE60286130
:1029C000DBF80000407CA861304607B0BDE8F08F1E
:1029D0002846FFF7C7F917B13846FEF7D5FF0020A4
:1029E000F3E700007C0200202DE9F74F92B09046FB
:1029F0001298FFF76FF80B90B0F908100691B0F934
:102A00000A100D9100680069D0F804B00BA8FFF718
:102A10009FF8384C384D2068407C55F82000C1683C
:102A20008A6A082190478146182801D34FF020096F
:102A30002068407C55F820000069079003C80C907E
:102A40002E48814201D0012000E00020109000209B
:102A500000F056FE002849D10026DDE91207B246F3
:102A60000FAB069C4546761C0193FFF75CFE0146C2
:102A700004FB0AF001EB8002234629463846CDF8D4
:102A800000B001F01BF8050030D01098D0B1DDE99E
:102A900006134A46284600F0E5FE98B9DDE90670BF
:102AA0002C46D0F810C0BCF1000F05D029460423F5
:102AB0003A460846E04705E00C992068884701C47B
:102AC0007F1EF9D10020CDE903050590012000907B
:102AD000CDE901094146034608F10108069A139819
:102AE00001F03EFD0D98401E0D90B6D115B0BDE829
:102AF000F08F00007C020020940200201F4C000890
:102B0000F8B515460E460746FEF7E4FF009000684C
:102B10001621C068426A0020904704466846FFF7C5
:102B200017F8002C03D02A4631463846A047F8BD96
:102B3000F8B515460E460746FEF7CCFF00904469EF
:102B40006846FFF705F83846FFF7D4FD0346082826
:102B500000DD2CB12A46314638460FF095FFF8BD0E
:102B60002A463146384610F027F9F8BD10B500283E
:102B700021D009B30AB3B1F90040B2F900309C4248
:102B800000DA23460380B1F90240B2F902309C42D8
:102B900000DA23464380B1F90440B2F904309C4284
:102BA00000DD23468380B1F90610B2F90620914278
:102BB00000DC1146C18010BD11460A6802604968F8
:102BC000416010BD00280BD003880B44038083882C
:102BD00019448180418811444180C1881144C180D9
:102BE0007047000070B5104D0446D5E900018842D9
:102BF0000ED10E49884203D1D0E90F12406C03E098
:102C00000C38D0E9001280682160C4E9012006E098
:102C100090E80E0084E80E000EF0E6FE2860207AB0
:102C2000002800D0012070BDDC030020747B01204F
:102C30000448D0E90010814201D1012070470020F2
:102C400070470000DC030020054A10B503491160FD
:102C50000FF018FEBDE8104000F056B925E100085D
:102C6000A002002070B50025FFF78EFB094CD4E9C7
:102C7000002082420AD0D2E9005610460EF0BEFE75
:102C80002060314628460BF003FD012500F0CEFC04
:102C9000284670BD440300202DE9FC41154DDDE9B7
:102CA00008742D68B5F90860864200DD3046B5F934
:102CB0000C60964200DA3246824219DBB5F90A60AE
:102CC0008E4200DD3146B5F90E509D4200DA2B46AA
:102CD0008B420DDB00E02C46E5682D6825B1042D04
:102CE00002D02568002DF6D1CDE9007402F0C0F8BD
:102CF000BDE8FC817C020020B0F90220B1F9063069
:102D00009A4213DCB1F90220B0F906309A420DDC88
:102D1000B0F90020B1F904309A4207DCB1F9001093
:102D2000B0F90400814201DC0120704700207047A7
:102D30000146024878220068FDF74BBC7C02002067
:102D400070B515460E4604000AD0FFF71DFB2A4653
:102D5000314620460FF0D8FBBDE8704000F066BC5D
:102D600070BD0000024978220968FDF732BC0000FE
:102D70007C02002010B5FFF707FB02F0ABFA02F06F
:102D80000BFD0AF093FFBDE8104000F04FBC0000BF
:102D900070B5094D04462868467CFFF7F5FA022C09
:102DA00003D228684474FFF7E5FF0448046000F08C
:102DB0003DFC304670BD00007C020020E80200208F
:102DC00010B50446FFF7E0FA204602F0A5FABDE888
:102DD000104000F02BBC10B50446FFF7D5FA204692
:102DE00002F0D2FABDE8104000F020BC0149886032
:102DF000704700007002002010B50446FFF7C4FAC7
:102E0000204602F059FB044600F010FC204610BD9D
:102E100070B50446FFF7B8FA04480068C56904B104
:102E2000C46100F003FC284670BD00007C02002055
:102E300070B514460D460646FFF7A6FA2246294607
:102E4000304602F055FB044600F0F0FB204670BD12
:102E500070B50546FFF798FA03480068847E8576CA
:102E600000F0E4FB204670BD7C02002070B50C46EB
:102E70000546FFF789FA094822460580084804807C
:102E800008480068417C084850F82100C1680B6A76
:102E900029469847BDE8704000F0C8BBAC0200204E
:102EA000AE0200207C0200209402002070B505468E
:102EB000FFF76AFA03480068047E057600F0B6FB67
:102EC000204670BD7C02002070B50446FFF75CFA16
:102ED00004480068B0F92C50848500F0A7FB284610
:102EE00070BD00007C02002070B50446FFF74CFA6C
:102EF00004480068B0F92A50448500F097FB284642
:102F000070BD00007C02002002480068002800D04C
:102F1000004770477C03002002498A6802B9886034
:102F2000FFF7F2BF4403002010B504000ED0FFF7F6
:102F30002BFA20460FF098F820460FF05DFD204652
:102F4000FEF722FDBDE8104000F070BB10BD38B5A3
:102F50000C46050011D0FFF717FA2846FEF7BAFD18
:102F600000908089204201D0012400E000246846BE
:102F7000FEF7EEFD00F05AFB00E00124204638BDCC
:102F800038B50546002028600648046844B120464C
:102F9000FEF7A0FD0090006928606846FEF7D8FDA6
:102FA000204638BD0404002038B504004FF000006E
:102FB0000D46086011D02046FEF78CFD0090846815
:102FC00044B16846FEF7C4FD2046FEF783FD00903D
:102FD000006928606846FEF7BBFD204638BD00004A
:102FE0002DE9F84FDFF89C800546274F98F8180028
:102FF0008B46410738680A9E9946407C924607D422
:1030000001F0C8FD04463868407C01F0CFFD06E0C1
:1030100001F0CCFD04463868407C01F0BBFD002780
:1030200095B1A0F1010400BFB9EB060000D5404204
:10303000142806DB5146BBEB0A0000D54042142899
:1030400004DA0120BDE8F88F641EEDE70A464B461E
:103050005946384600960EF007FE0C4F4B46524636
:1030600047F835005946204600960EF0FDFD07EB67
:10307000C50148600FF022F901210020C8F81C109A
:10308000E0E70000B00200207C020020847A0120EA
:103090002DE9F047524D534E0024E86978B968682D
:1030A000346000F00501746010F0060F01D000F0EC
:1030B0000500B460F4600FF001F90120E8612878A0
:1030C000C8B100F0D9F8A846286100F0D3F8296902
:1030D000286A81420BDBD8F824204046914206DC66
:1030E000836A42699A4202DBC36A9A420DDD4FF05D
:1030F000FF3001466FE000F00FF9686100F0BBF8A7
:103100002878401C2870BDE8F087326898F81800CD
:10311000354F8D1A400700283868407C02DB01F0EB
:1031200039FD01E001F042FD401E4543D6E9002093
:10313000B146801A95FBF0F6D8F81420D9F808109B
:1031400098F81800551A400700283868407C02DBC0
:1031500001F02CFD01E001F01DFD401E4543D9E9C1
:103160000201081A95FBF0F598F8180040070028AE
:103170003868407C18DB01F00DFD81463868407CE2
:1031800001F014FDD8F818200146D00704D0A9EBAF
:103190000600A0F1010000E03046920702D5491B6D
:1031A000491E18E0294616E001F000FD8146386806
:1031B000407C01F0EFFCD8F81820D10704D0A9EB2F
:1031C0000601A1F1010100E03146920702D5401B42
:1031D000401E00E028460FF081FB88F8004092E78F
:1031E000B0020020847A01207C020020014988611D
:1031F00070470000B0020020074A002806DB0029C3
:1032000004DB01231372C2E9000101E00020107207
:10321000014800F003B80000BC7B012010B5044653
:103220000C220749FDF722F9002808D0044894E849
:103230000E000EC02046BDE81040FFF705BD10BDD2
:10324000E07B012030B40A4C2268831A01D5C3F117
:10325000000362688A1A00D552421A44022A04DD29
:10326000C4E9000130BCFFF7C7BF30BC70470000A5
:10327000740300207047704710B52DED048B82B0A9
:103280002048808845F21051884236D101221E49DB
:10329000002003F00BFF1C48007800F01F0030B343
:1032A000042201A9900103F001FF9DF807109DF889
:1032B000062001EB022010F0D4FF41EC190B9FED2A
:1032C000130B53EC102B11F033F841EC180B10F0EA
:1032D0009BFF1049888108468489B4F5F07F02DBA2
:1032E00040F2DF1404E0002C02DA002400E00024A5
:1032F000204602B0BDEC048B10BDD0200AF0AEF821
:10330000F7E700001C290020BC000020D88173468C
:1033100094F6D23F0800002010B52DED048B82B04A
:103320002048808845F21051884237D101221E4939
:10333000002003F0BBFE1C48007800F01F0030B3F3
:10334000042201A9900103F0B1FE9DF805109DF83B
:10335000042001EB022010F084FF41EC190B9FEDDB
:10336000130B53EC102B10F0E3FF41EC180B10F093
:103370004BFF1049C8820846C48AB4F5487F02DB77
:1033800040F21F3405E0002C03DA002401E040F293
:103390001F34204602B0BDEC048B10BD90200AF013
:1033A0005DF8F7E71C290020BD0000207B14AE4724
:1033B000E17AD43F080000202DE9F041084E044690
:1033C00005683068016828468847074630684168C4
:1033D00028468847284420603846BDE8F081000030
:1033E000800200202DE9F0410C4606460025064FDC
:1033F00005E0386841683046884706440544641E45
:10340000F7D22846BDE8F081800200202DE9F04186
:103410001E46069C1746884605463A46A8687F1C05
:103420003346D0F804C041462846E047641EF4D134
:10343000BDE8F08170B5B0F90040091BB0F9044057
:103440008C422CDD00F11404B0F902500069521BCB
:1034500002FB0040CA1800EBE104521ED010B0EB92
:10346000E10501F007034FF0FF0102F0070221FA26
:1034700003F0C2F1070201FA02F1CEB221780FD0B7
:1034800001436D1E04F8011B002D05DDFF222946B6
:103490002046FDF7D0F82C4420783043207070BDD2
:1034A00030400143217070BD10B5B0F90030B0F963
:1034B0000240C91A00F114030069121B02FB00301C
:1034C00000EBE10001F0070302788021D9400A43B4
:1034D000027010BDB0F90610026951431430FDF7B7
:1034E000B2B800002DE9F843804602F10F00001148
:1034F000470003FB07F01C46154689461430FEF7CB
:1035000024FA060018D0FEF73FFF3046FEF7E2FA35
:103510000090A0F80080A0F802908580C480074940
:1035200081600121818107616846FEF711FB00F08F
:103530007DF83046BDE8F8830020FBE7E8960108F7
:1035400070B5B0F90660B0F904400B6800F11405DD
:10355000964220DD0069A34202FB005000EBE3022B
:1035600019DAA4F101044FEAE400A0EBE30512F834
:10357000010B03F0070400FA04F0C4B208E055B1EF
:1035800012F8014B03F10803A5F1010523F007032D
:10359000002CF4D008E0002070BD00BF4FEA44606A
:1035A0004FEA106403F101032006F7D5FF2C0AD07F
:1035B000184605E04FEA44644FEA146400F1010044
:1035C0006606F7D400E0D81DC443640706D007E0C0
:1035D00012F8014BFF2C0FD100F108006D1EF7D53A
:1035E000A0EB030000F101000B6070BD4FEA4462E4
:1035F0004FEA126400F101002206F7D4F0E738B573
:103600000546FEF7C1FE2846FEF764FA0090818960
:10361000491E0CB284816846FEF79AFA14B928460E
:10362000FEF7B2F900F002F838BD00000348C168A7
:10363000491EC16001D100F05BB8704758030020FB
:1036400010B54FF48031002010F044FC04464FF4D4
:1036500080312046FEF790F98020FEF763FA024899
:10366000FFF7C4FB10BD00002892010870B50446A6
:103670004FF47A7060434FF47A71B0FBF1F528464D
:1036800003F038F870BD10B50120FFF7EFFF10BD53
:103690000248006890F8320070470000EC000020FB
:1036A00010B503F093F810BD10B5002002F006FC31
:1036B0000149086010BD0000A800002010B50120DD
:1036C00002F0FCFB03490860002002F081FB024984
:1036D000086010BDA0000020A400002008B56A46C4
:1036E00000210248006802F00FFC08BDA000002085
:1036F00010B50248006802F07DFC10BDA00000205B
:103700000EB508B102AA00E00022002301A9684614
:1037100000F052FB0EBD0000074910B5CC6818B18F
:103720000120C860801E03E00020C8606FF07F4069
:1037300000F004FE204610BDE403002010B5082A66
:103740000EDC0346012A1AD0022A58D0042A78D067
:1037500010F8042B03F8012B491EF9D1012010BDEC
:10376000102A0ADC0222022AF8D1024630F8043B71
:1037700022F8023B491EF9D1F0E7002010BD10F8F5
:10378000042BD207120E491E34D010F8044B491EE8
:1037900004F0010442EA84122CD010F8044B491EB4
:1037A00004F0010442EA441224D010F8044B491EEC
:1037B00004F0010442EA04121CD010F8044B491E24
:1037C00004F0010442EAC40214D010F8044B491E6C
:1037D00004F0010442EA84020CD010F8044B491EA4
:1037E00004F0010442EA440204D010F8044B04F04F
:1037F0000104224303F8012B0029C0D1AEE710F8E1
:10380000042B9207120E491E15D010F8044B491EC6
:1038100004F0030442EA04120DD010F8044B491ED0
:1038200004F0030442EA840205D010F8044B04F0CB
:1038300003042243491E03F8012B0029DFD18DE741
:10384000FFE710F8042B1207120E491E05D010F8DE
:10385000044B04F00F042243491E03F8012B0029F6
:10386000EFD17BE72DE9F0411E680D460446082A9A
:1038700009DC0746012A21D0022A62D0042A7CD022
:10388000082A1AD195E0102A03DC02200228F8D178
:1038900002E00020BDE8F081D3F810C02746BCF15B
:1038A000000F04D00A462146022308468AE001CCD4
:1038B000B04727F8020B6D1EF9D18BE001CCB04761
:1038C000C0074FEA10686D1E36D001CCB04748EAF9
:1038D000801000F0FF086D1E2ED001CCB04748EAE2
:1038E000401000F0FF086D1E26D001CCB04748EA1A
:1038F000001000F0FF086D1E1ED001CCB04748EA52
:10390000C00000F0FF086D1E16D001CCB04748EA99
:10391000800000F0FF086D1E0ED001CCB04748EAD1
:10392000400000F0FF086D1E06D001CCB04740EA11
:10393000080000F0FF086D1E07F8018B002DBDD1B7
:1039400048E001CCB04780074FEA10686D1E18D0E0
:1039500001CCB04748EA001000F0FF086D1E10D0FF
:1039600001CCB04748EA800000F0FF086D1E08D087
:1039700001CCB04740EA080000E007E000F0FF0893
:103980006D1E07F8018B002DDBD123E001CCB04781
:1039900000074FEA10686D1E06D001CCB04740EA20
:1039A000080000F0FF086D1E07F8018B002DEDD117
:1039B00010E0D3F810C0BCF1000F05D00A46014654
:1039C00001233846E04705E001CCB04707F8010B7A
:1039D0006D1EF9D101205DE70A4810B58169002903
:1039E0000ED101218161FFF72BFE01F013FF054984
:1039F00005481C310860BDE81040084600F082BB55
:103A000010BD000070020020B91D01087CB50646FB
:103A100028480D46006868B100200BF097F806E0D2
:103A20006A46294630460BF059FF0BF051F8002842
:103A3000F6D17CBD106800901F4C50680190226840
:103A4000BDF8000032F84C1F0844ADF80000BDF886
:103A5000020091880844ADF80200BDF80400118806
:103A60000844ADF80400BDF8060091880844ADF89C
:103A7000060068460BF06AF80EE000BF2068BDF84B
:103A800000106A464184BDF8021081842946304600
:103A90000BF024FF0BF01CF80028EFD1206830F861
:103AA000221F428D891A01804188C28D891A418066
:103AB0007CBD0000A80200207C0200202DE9FF4F01
:103AC00000208BB004460146009019981D4616460A
:103AD000016007AB002203A902A800F06DF918B13C
:103AE00000200FB0BDE8F08F0798854200DD054645
:103AF0005C4F0A955C493868407C51F8201004916D
:103B000009690691FEF74AFB05903868407CFEF78C
:103B1000EBFB56498146884204D05549894501D07E
:103B2000012000E00020099001CE189988478246C4
:103B30005FEA106B71D0009870BB0B9800EB040823
:103B400048480068B0F90800404503DDA0EB0807CD
:103B5000804600E000270299049801EB840101EB04
:103B60008701CDE90010DDE90A010A180C9B0892D3
:103B7000521E19464046FFF78FF801200090059825
:103B800018280ADA0298DDE9052300EB840000EB2F
:103B90008700E91B00F070F810E0099870B10298F6
:103BA00000EB840000EB87070898A0EB0808494663
:103BB0003868884701C7B8F10108F8D12D48C069B5
:103BC00060B3DDE9020700EB840007EB8402CDE976
:103BD0000202284C361F2B46E46930460299A04762
:103BE000FF203168B0EB116F02D10299096804E03F
:103BF000029A1268B0EB126F01D1039A1160029918
:103C0000361D091D02910399091D03916D1EE8D10E
:103C100019990120039708601DE01EE0FFE7BBF142
:103C2000FF0F0ED00298CBF1FF0250F8241050463F
:103C300000F00EFA039941F8240019990120086058
:103C400005E00298039950F8240041F82400641C10
:103C50006D1E7FF469AF039843E7039941F824A0F0
:103C6000EBE700007C020020940200201F4C0008BB
:103C70001D4C0008B00300202DE9F05F0C1E16DD7E
:103C80005E68014600EB8405082A12DC611E012AE9
:103C900028D0022A48D0042A6AD0082A07D1071956
:103CA00017F8010DB04745F8040D641EF8D1BDE8C2
:103CB000F09F102AFBDC0222022AF8D15F693FB193
:103CC0002246BC46BDE8F04F02235DF804EB604796
:103CD00001EB440737F8020DB04745F8040D641EA8
:103CE000F8D1E4E700EBE1002D1F10F801A98146AF
:103CF00001F00707802020FA07F800BF0AEA080051
:103D0000C7F10701C840B04745F804093FB17F1E1D
:103D10004FEA4860000E8046641EEFD1C7E70727D0
:103D200019F801A90120F6E700EBA1002D1F01F011
:103D3000030710F801A981467900C02020FA01F894
:103D40004FF0060B0AEA0800ABEB4701C840B0474A
:103D500045F804093FB17F1E4FEA8860000E804697
:103D6000641EEFD1A3E7032719F801A93846F6E747
:103D700000EB610001272D1FA74310F801A9814620
:103D8000B900F02020FA01F84FF0040B0AEA08000D
:103D9000ABEB8701C840B04745F804093FB17F1E2F
:103DA0004FEA0870000E8046641EEFD17FE70127BE
:103DB00019F801A90F20F6E72DE9F047204C064637
:103DC0001F46A06990468946002540B90120A061A0
:103DD00004F120011B480860084600F093F960696F
:103DE00010B900F0C8FE606107B138604EB1A0683C
:103DF00030B960698000FDF7F1FDA06000B90125D0
:103E00003060B9F1000F0AD0E06830B96069800015
:103E1000FDF7E4FDE06000B90125C9F80000B8F144
:103E2000000F0AD0206930B960698000FDF7D6FD27
:103E3000206100B90125C8F800002846BDE8F087D8
:103E4000B0030020411E010873B5124A01A9009871
:103E50001268904700240090C8B10F4900250968F6
:103E6000C969496959B10A684AB1019990477CBD4D
:103E70006846FFF7A1FA0546FEF7A6F90444019843
:103E8000401E0190F4D5284600F032F80444204644
:103E90007CBD0000D80300207C02002073B50D46D5
:103EA0000098002490B10A490968C969496959B163
:103EB0004A684AB1294690477CBD6846FFF77CFABC
:103EC00020B10A2802D0641CAC42F6DB20467CBD3F
:103ED0007C020020044AB2F9002002600348B0F9D5
:103EE0000000086070470000AC020020AE02002015
:103EF00038B5002469460094FEF778F900998142AC
:103F000000DD0C1A204638BDB0F90030B1F90020B0
:103F1000934200DA0280B0F90230B1F902209342F4
:103F200000DA4280B0F90430B1F90420934200DD98
:103F30008280B0F90620B1F906108A4200DDC18006
:103F4000704770B5B1F90040B2F900309C4200DD15
:103F500023460380B1F90250B2F90240A54200DDC8
:103F60002C464480B1F90460B2F90450AE4200DA44
:103F700035468580B1F90610B2F90620914200DB82
:103F80001146C1809D4201DBA14201DA002070BDD3
:103F9000012070BD014602480068407C00F002B874
:103FA0007C020020F8B501260F46054602284BDAB0
:103FB000264C5FB3012F02D0022F45D116E054F8F2
:103FC000250088B92846FDF73DFF0090B8B3C068CA
:103FD0000D21426A68469047020035D03946009864
:103FE000904754F825000026401C2BE0FDF72AFFDF
:103FF000009020B3C0680D21426A684690470200D5
:1040000022D039460098904700261DE054F825003C
:1040100001280FD12846FDF715FF009050B1C06868
:104020000D21426A68469047020003D03946009845
:104030009047002654F8250010B1012101E003E06B
:104040000021401A44F825003046F8BD3C0300200A
:1040500070B5FF23B3EB116F2CD0C3B213FB02F585
:1040600000F47F4400F47F0354435343000E10FBDD
:1040700002F6C2F1FF00CAB212FB005201F47F4502
:1040800005FB004401F47F0505FB0033090E11FB1D
:104090000065C2F307204FF47F024FF47F4102EA2C
:1040A000132201EA14214FF07F43084303EA05433A
:1040B0001043184370BD2DE9F04F1546DDE90CB9EA
:1040C0000C4606464FF0000818E00B9F4FF0FF0A21
:1040D00001CE08CCAAEB106202FB09F2B2FBFAF1A6
:1040E000CAB21946FFF7B4FF20F07F4001C57F1E1A
:1040F000EED1099808F1010804EB8004D845E4D317
:10410000BDE8F08F02494A6942604861704700008B
:104110007002002010B502E000F8011B521E0AB127
:104120008307F9D1930818D001EB014402F0030290
:1041300004EB042405E0046044608460C460103033
:104140001B1F042BF7DA01E010C05B1E002BFBD114
:1041500003E000BF00F8011B521E002AFAD110BD77
:1041600010B5830702D520F8021B521E530810D049
:1041700001EB0144042B08DB046044608460C460EC
:1041800010301B1F042BF7DA01E010C05B1E002B60
:10419000FBD1D20700D0018010BD00BFFEE70000B8
:1041A0007CB5044600250020019000905F480088FF
:1041B00000045F4908600D204860402088600020AE
:1041C000C8604FF480600861084603F0BFF95948A1
:1041D0000068009002E0574800680090009800F0E6
:1041E00045000028F7D0009800F0040028B103250E
:1041F000042003F00BF928467CBD009800F0010074
:1042000028B10125012003F001F92846F4E703F065
:1042100045F9009000980D2802D010252846EBE7BC
:1042200040F2FF5003F0F2F8002003F051F9019042
:104230000198C0F3432020703F490198084008B915
:104240002846D9E7019800F0004008B11C20D3E7C8
:10425000019800F0804008B10920CDE7019800F0F6
:10426000005008B10A20C7E7019800F0805008B15B
:104270000B20C1E7019800F0006008B10C20BBE7FB
:10428000019800F0806008B10D20B5E7019800F0BA
:10429000807008B10E20AFE7019800F4000008B16B
:1042A0000F20A9E7019800F4800008B11020A3E7CF
:1042B000019800F4001008B111209DE7019800F466
:1042C000801008B1122097E7019800F4002008B18F
:1042D000132091E7019800F4802008B114208BE7A7
:1042E000019800F4003008B1152085E7019800F42A
:1042F000803008B116207FE7019800F4004008B133
:10430000172079E7019800F4804008B1182073E77E
:10431000019800F4005008B119206DE7019800F0F1
:10432000080008B11A2067E7284665E7500000201A
:1043300048290020342C014008E0FFFD02490A68AA
:1043400008601046704700001804002030B5014690
:1043500001F01F04C1F34513CA0AE50205EB43153A
:104360001544A8B230BD000070B5044600261748B9
:104370000588408845431548808846F604018842F0
:1043800016D112488079012812D100200F49887176
:104390002A2048812B2088810021084601F006F858
:1043A00001200A4988712B2048812A20888103E056
:1043B0000021084600F0FAFF01F018FA002602E09A
:1043C00003480480761CAE42FAD370BD1C2900203D
:1043D000000008600449054A0968497C52F8211028
:1043E00009690968084700007C0200209402002047
:1043F00010B50446002C52D158498871F02008802D
:104400004FF4A07048800846808849F241318842C4
:104410000BD05248808846F60401884205D04F48A8
:10442000808845F2103188421AD12C204B490881EE
:104430002A2048812B2088810846808846F604017E
:10444000884205D04548808845F21031884206D11F
:104450004FF4A070414908804FF4F070488079E033
:104460003E48808845F21051884210D14FF43050B8
:104470003A4908814FF4285048814FF42C508881E4
:104480004FF4F07008804FF44870488062E02220BA
:104490003249088120204881212088815AE001206A
:1044A0002E4988714FF4A0700880F020488008469B
:1044B000808849F24131884205D02848808845F2F9
:1044C0001031884207D12C20244908812A204881B4
:1044D0002B2088812BE02148808846F60401884201
:1044E00007D12C201D4908812B2048812A20888152
:1044F0001DE01A48808845F21051884210D14FF4CF
:104500003050164908814FF4285048814FF42C5000
:1045100088814FF4487008804FF4F070488006E0BE
:1045200022200E49088121204881202088810B48C3
:10453000808846F60401884205D00848808845F204
:104540001031884206D14FF4F070044908804FF4CE
:10455000A0704880002000F063FD10BD1C290020E1
:104560002DE9F04F05468DB07C48DDF860901A9C2F
:1045700000681E4617464FF0000A78B11B9B199A37
:10458000CDF808900593CDE90324DDE91623CDE9A4
:104590000023046833463A46284682E0DDE91602E5
:1045A00001EB060805EB070C1043A8F10108ACF17C
:1045B000010C012806D0C9F10800059000200291E5
:1045C0000890C8E066480268B2F90A30581A002814
:1045D00006DD361A002E65DD1946199B00FB0344E3
:1045E000B2F90E00A8EB0000002802DD361A002EFA
:1045F00058DDB2F90C00ACEB0000002800DD3F1ADA
:10460000B2F908300020AB4237DD581B3F1A4B4649
:10461000B9F1080F28D007DC012B0DD0022B13D0E5
:10462000B9F1040F29D117E0102B1FD0182B20D07F
:10463000B9F1200F21D11CE020F0070304EBE004C6
:104640001D4400F0070018E020F0030304EBA00471
:104650001D4400F0030010E020F0010304EB6004AF
:104660001D4400F0010008E0044404E004EB4004B1
:1046700001E004EB800405440020002F12DD1B9BA9
:10468000DDF864C0CDE90403CDE902C4CDE90069D9
:10469000527C34483B4650F82200C26854680A46AF
:1046A0002946A0470DB0BDE8F08F1799029808443D
:1046B00009902B49401E00900A68B2F90A308342E3
:1046C00041DCB2F90E10029881423CDB4FF0000B46
:1046D000D84603950B9434E0BBF1000F05D10B983D
:1046E0004FF0080B10F801AB0B900599ABEB090BE1
:1046F0003AFA01F00AFA09F101F0FF0A04D1184967
:104700000968097C890716D415490968C96B0A68C4
:104710000C921B9A0AB152F820000860169903986F
:10472000009B4218521E029900F0A0F90C490C9807
:104730000968C96B08600399169808F101080844D4
:104740000390B845C8DB0898401C0890099802906F
:10475000199804440898B042A7DBA3E7A8020020F8
:104760007C02002094020020F0B40C461249096833
:10477000B1F90A30A3421CDCB1F90E30A34218DBB8
:10478000B1F90830834200DD1846B1F90C3093428C
:1047900000DA1A4682420CDB4B7C084951F8235060
:1047A00013462246E9688E6801462846B446F0BCA6
:1047B0006047F0BC704700007C020020940200209B
:1047C0002DE9FF4F84B081468A4600200390029075
:1047D0000698A0EB09050798A0EB0A06CDF804900F
:1047E000CDF800A0002D01DD012705E00DB900275F
:1047F00002E04FF0FF376D42002E02DD4FF001085E
:1048000006E016B94FF0000802E04FF0FF3876429C
:10481000B54201DD2C4600E034464FF0000B21E0AC
:10482000009A91B2019A90B200F056F80398284489
:1048300003900298304402900398A04205DD03984B
:10484000001B03900198384401900298A04205DDB6
:104850000298001B02900098404400900BF1010068
:104860001FFA80FB601C8345DADD08B0BDE8F08FDD
:104870000A46174930B40968B1F90A30934225DC79
:10488000B1F90E30934221DBB1F9083083421DDCCF
:10489000B1F90C30834219DB0B7C0E4CDB0709D0DD
:1048A000497C54F82130D968CC690146A44630BC13
:1048B00018466047CB6B497C1B6854F82140E1687F
:1048C0008D6901462046AC4630BC604730BC70471D
:1048D0007C0200209402002030B504460D46294693
:1048E000204600F063FD00F081FF02480088024985
:1048F000088030BD0000002000000860124B30B47A
:104900001B68B3F9084084421CDCB3F90C408442B4
:1049100018DBB3F90A408C4200DD2146B3F90E40A2
:10492000944200DA22468A420CDB5C7C074B53F847
:104930002440E368DD6813460A4601462046AC463B
:1049400030BC604730BC70477C02002094020020DD
:1049500070B504460D4616464248808849F24131FA
:10496000884205D03F48808845F21031884214D1F2
:104970003C49488900F02EFF201200F01FFFE0B2F2
:1049800000F01CFF3749888900F024FF281200F04E
:1049900015FFE8B200F012FF5DE03248808845F272
:1049A0001051884220D12F49488900F013FF20126E
:1049B00000F004FF2B494989491C88B200F00AFF26
:1049C000E0B200F0FBFE2749888900F003FF2812BF
:1049D00000F0F4FE23498989491C88B200F0FAFEF0
:1049E000E8B200F0EBFE36E01E48808846F604018F
:1049F00088421DD11B488079012804D119480088BC
:104A0000401E001B84B21749488900F0E3FE2012C3
:104A100000F0D4FEE0B200F0D1FE1249888900F027
:104A2000D9FE281200F0CAFEE8B200F0C7FE12E07C
:104A30000C488079012804D10A480088401E001BD8
:104A400084B208494889214600F0DAFE0549888980
:104A5000294600F0D5FE0348008903490880881CD8
:104A6000068070BD1C290020FEFF076038B5134C7E
:104A70002468B4F90850854200DD2846B4F90C508A
:104A8000954200DA2A46824217DBB4F90A508D4279
:104A900000DD2946B4F90E509D4200DA2B468B42C8
:104AA0000BDB0093647C064B53F82440E3681D69DC
:104AB00013460A4601462046A84738BD7C0200201E
:104AC0009402002008210CF0B3BE000002480068E8
:104AD000806B0068704700007C020020024800687C
:104AE000C06B0068704700007C020020024809216A
:104AF0000068407C0CF09CBE7C02002009210CF078
:104B000097BE70B500252C462046FDF79BF900B1F5
:104B10006D1C641C022CF7DB284670BD024800683F
:104B2000407C00F003B800007C02002010B5FDF7C7
:104B300089F9002805D0C168CA6ABDE81040022181
:104B4000104710BDF8B515460E460124FDF77AF959
:104B5000009058B1C0680421426A6846904703003B
:104B600004D02A4631460098984700242046F8BDD4
:104B700003210CF05DBE03200CF0A2BE04210CF05A
:104B800057BE0000024801210068407C0CF050BE76
:104B90007C02002001210CF04BBE000002480221E3
:104BA0000068407C0CF044BE7C02002002210CF026
:104BB0003FBE00F001B800002DE9F041002809D007
:104BC000876837B10D4E716819B10468B4F5807FFC
:104BD00002DD0020BDE8F0813068844200DD04463B
:104BE000002507E057F82500FFF7F4FB716841F84E
:104BF00025006D1CA542F5DB7068EBE78C030020F7
:104C00000449054A0968497C52F821100969496834
:104C1000084700007C020020940200207047704783
:104C200010B500F01F01074A074BC0F34514C0F34D
:104C3000C4201B5D105C515C00EB032000EB0140C5
:104C400010BD0000C0940108E094010810B50A4CA2
:104C5000606860B920688000FCF7C0FE606040B109
:104C600004F10801054808600846FFF74BFA0020E8
:104C700010BD012010BD00008C0300202D1E010876
:104C80002DE9F041FFF73DFF0746002528E02846C3
:104C9000FDF7D8F818B32846FEF77AF8804628467C
:104CA000FFF710FF082817DC0F48104950F82500BF
:104CB0000069884210D02846FFF720FF06460024EE
:104CC00008E0E0B2FFF79CFF0246E1B2284600F0A0
:104CD000F9FB641CB442F4DB4046FEF759F86D1C46
:104CE000BD42D4DBBDE8F081940200204496010867
:104CF00010B50246012000E050430B1EA1F1010453
:104D0000E1B2F9D110BD000008B503480088009059
:104D1000BDF8000008BD0000000008602DE9F0416A
:104D200005460E4600240027A0464F480088A842AA
:104D300003DD4D484088B04202DC0020BDE8F08130
:104D40003146284600F032FB4748808849F241311D
:104D500088420BD04448808846F60401884205D03A
:104D60004148808845F21031884203D12E2000F05E
:104D700031FD0DE03C48808845F21051884204D155
:104D80004FF4385000F026FD02E0222000F022FD12
:104D90003548808849F22031884202D102200FF044
:104DA000B7F83248008800B1002402200FF0B0F8B4
:104DB0002E4804882C48808849F2413188420BD023
:104DC0002948808845F21031884205D026488088DD
:104DD00045F2105188420AD102200FF099F8234879
:104DE000B0F80080E7B24FF6FF7000EA07271E48D0
:104DF000808849F22531884216D01B48808844F2C9
:104E00003551884210D018488088091F88420BD03D
:104E1000154880884BF20551884205D01248808899
:104E20004CF20551884201D1204687E70E48808820
:104E300049F2413188420BD00B48808845F210314D
:104E4000884205D00848808845F21051884207D131
:104E5000E012C002B91240EA411040EAE8206DE7D2
:104E60002046FFF773FA69E71C290020000008605C
:104E70002DE9FF4F83B01646DDE910408B46C06830
:104E80004769426A7AB1012111A8904705000AD00A
:104E90000698CDE9000433465A4603991198A8476D
:104EA00007B0BDE8F08F57480068407CFDF776F901
:104EB0008246082801DC012005E0BAF1100F01DC70
:104EC000022000E004208046002596E04046B8F12C
:104ED000010F05D0022871D0B8F1040F25D17CE074
:104EE000BAF1090F21D2DFE80AF08605213F3F59C8
:104EF00059595900039815E001465A461198B84788
:104F0000C5F1070188404FF67F722178EA401140D1
:104F100001436D1C217004EBE50425F007000541F9
:104F200009F101008146B042E6DD64E0039817E034
:104F300001465A461198B8470621A1EB4501884021
:104F40006B004FF63F722178DA40114001436D1C2F
:104F5000217004EBA50425F00300054109F10100CF
:104F60008146B042E4DD46E0039813E001465A462C
:104F70001198B8470421A1EB850188402178AB0046
:104F80000F229A401140014321702C4485F0010505
:104F900009F101008146B042E8DD2CE0DDF80C901B
:104FA00007E001465A461198B847207009F10109F7
:104FB00044444846B145F4DD1DE0FFE7DDF80C90C0
:104FC00007E001465A461198B847208009F10109C7
:104FD00044444846B145F4DD0DE0DDF80C9007E0AF
:104FE00001465A461198B847206009F10109444426
:104FF0004846B145F4DD0BF1010B06998B457FF76F
:1050000065AF4DE77C02002001B5BDF8000000F05F
:10501000E1FB05200EF06AFAFFF776FE08BD0000FE
:10502000F0B5054600240027A948807901281ED143
:10503000A748808846F60401884218D0082D15D26A
:10504000DFE805F00406080A0C0E101206250DE034
:1050500007250BE0042509E0052507E0012505E00B
:10506000002503E0032501E0022500BF00BF9848AA
:10507000808849F24131884211D09548808846F6AF
:10508000040188420BD09248808845F21031884252
:1050900005D08F48808845F2105188427ED1082D76
:1050A0001CD2DFE805F00406090C0F12151800BF2A
:1050B00014E044F0800411E044F040040EE044F0B9
:1050C000C0040BE044F0200408E044F0600405E074
:1050D00044F0A00402E044F0E00400BF00BF7C48BC
:1050E000808845F21051884202D14FF4585700E0B1
:1050F00036277748808845F21031884207D07448B7
:10510000808845F21051884201D044F0080470486C
:10511000808846F60401884201D144F00204214609
:10512000384600F06DFB04F0200018B9684880791B
:1051300001280DD16648008865494988884214DAFB
:1051400063480688408862490880084646800CE02B
:105150005F4800885E494988884206DD5C480688C9
:1051600040885B490880084646805948808845F257
:105170001051884254D15649488900F02BFB002039
:1051800000F01CFB52494989491C88B200F022FBFF
:10519000002000F013FB4E49498900E06FE0891CB4
:1051A00088B200F017FB4A490988491EC1F30F2055
:1051B00000F004FB46494989C91C88B200F00AFB8B
:1051C00043490978491EC8B200F0F8FA4049888975
:1051D00000F000FB002000F0F1FA3D498989491CEC
:1051E00088B200F0F7FA002000F0E8FA384989891F
:1051F000891C88B200F0EEFA35494988491EC1F38E
:105200000F2000F0DBFA32498989C91C88B200F00E
:10521000E1FA2F498978491EC8B200F0CFFA55E06B
:105220002B49488900F0D6FA002000F0C7FA002088
:1052300000F0C4FA26490988491EC1F30F2000F086
:10524000BDFA23490978491EC8B200F0B7FA2049CF
:10525000888900F0BFFA002000F0B0FA002000F0CA
:10526000ADFA1B494988491EC1F30F2000F0A6FA88
:1052700017498978491EC8B200F0A0FA26E0082D27
:105280001CD2DFE805F004070A0D0F12151844F0D0
:10529000300413E044F0100410E044F020040DE06A
:1052A00000BF0BE044F0380408E044F0280405E0B7
:1052B00044F0180402E044F0080400BF00BF0327D4
:1052C00044F480542146384600F09AFAF0BD0000BC
:1052D0001C29002010B50E4C0E492068407C51F866
:1052E000200050B1C1680968042903D00068002873
:1052F000F8D102E008B1FCF780FD206800210166CA
:1053000000F108014161BDE8104000F02FB8000035
:105310007C0200209402002001490968496808477E
:1053200088030020044909680A7C520701D5C96B2B
:1053300000E0896B086070477C0200207CB5094C56
:1053400005462068417C084850F82100C1680A6B76
:105350006946904720686A4629460830FEF7F1FD05
:105360007CBD00007C0200209402002004480168FB
:1053700004484A7C083150F82200C268126B10477A
:105380007C0200209402002001490968096808474E
:1053900088030020044909680A7C520701D5896BFB
:1053A00000E0C96B086070477C02002030B50446FD
:1053B0000D464048808849F24131884205D03D4839
:1053C000808845F21031884214D13A49488900F06A
:1053D00001FA201200F0F2F9E0B200F0EFF93549DD
:1053E000888900F0F7F9281200F0E8F9E8B200F037
:1053F000E5F95DE02F48808846F6040188421DD11A
:105400002C488079012804D12A480088401E001BBE
:1054100084B22849488900F0DDF9201200F0CEF965
:10542000E0B200F0CBF92349888900F0D3F92812C3
:1054300000F0C4F9E8B200F0C1F939E01D488088F5
:1054400045F21051884220D11A49488900F0C2F92A
:10545000201200F0B3F917494989491C88B200F0BD
:10546000B9F9E0B200F0AAF91249888900F0B2F95E
:10547000281200F0A3F90F498989491C88B200F06D
:10548000A9F9E8B200F09AF912E00A4880790128F7
:1054900004D108480088401E001B84B20549488991
:1054A000214600F0ADF903498889294600F0A8F9A2
:1054B00030BD00001C29002001490968896808479F
:1054C00088030020F8B515460E460124FCF7BAFC07
:1054D000009058B1C0681021426A684690470300A6
:1054E00004D02A4631460098984700242046F8BD4B
:1054F000F8B515460E460124FCF7A4FC009058B1FF
:10550000C0680321426A68469047030004D02A46D7
:1055100031460098984700242046F8BDF8B5154656
:105520000E460124FCF78EFC009058B1C0680B2198
:10553000426A68469047030004D02A4631460098E4
:10554000984700242046F8BDF8B515460E460124BC
:10555000FCF778FC009058B1C0680A21426A68469E
:105560009047030004D02A4631460098984700240B
:105570002046F8BD2DE9F84F0746884616461C46DA
:10558000C3462046E31704EB5373DB1021464FEA72
:10559000E47C04EB5C7C4FEAEC0CA4EBCC0CBCF19F
:1055A000000F02D04FF0010C01E04FF0000C6344FB
:1055B000224604EBD27C4FEA6C0C03FB0CF3DBB20B
:1055C0000093A6F12000C6B2002556E00C2C07D1AE
:1055D00006EB46002B4901EB800010F8059013E024
:1055E000102C05D1284800EB061010F805900BE0B0
:1055F000182C07D106EBC600244901EB800010F8F7
:10560000059001E0BDE8F88F4FF0000A2FE009F0A7
:10561000800030B11E48028841463846FFF798F9AD
:1056200007E00A9828B91B48028841463846FFF728
:105630008FF94FEA49604FEA106908F101001FFA3B
:1056400080F815480088B84200DCDBE7A8EB0B00C7
:10565000A04208D1D846781C87B20F480088B842CB
:1056600000DCCFE706E00AF1010000F0FF0ABAF122
:10567000080FCCDB00BF681CC5B200988542A5DBD3
:1056800000BFBFE7084A01087C4E01086C540108BE
:1056900000000020020000201C2900202DE9FF4FFF
:1056A00081B0074691461E460E9D4FF0000A002429
:1056B00039E0301B401EC1B20A20FFF719FBB9FBCD
:1056C000F0F00A21B0FBF1F201FB1208BAF1000F71
:1056D00016D1701EA04213DDB8F1000F0ED10020CC
:1056E000AB4605EBDB71491001FB0471009088B2F9
:1056F0002B4620220299FFF73DFF12E04FF0010AEE
:105700000020AB4605EBDB71491001FB04710090F2
:1057100088B208F13001CAB22B460299FFF72AFF7E
:1057200000BF601CC4B2B442C3DB05B0BDE8F08F5B
:105730002DE9F84704460D4690469946DDE909678C
:1057400004F0FF0A08EB04001FFA80F809EB0500DB
:105750001FFA80F916E0444502DB5446A81985B2C9
:105760004D4500DB14E0002000903A78334629468E
:105770002046FFF7FFFE304606EBD07104EB6101D7
:105780008CB27F1C38787E2802DC38782028E2DA58
:1057900000BFBDE8F887000010B5074C2068006B1B
:1057A000FEF718FEFFF7F6FD2068406BFEF712FECD
:1057B000BDE81040FFF7B6BD7C02002001B5BDF882
:1057C00000000090BDF800000149088008BD0000FD
:1057D0000000086001B5BDF800000090BDF80000B1
:1057E0000149088008BD0000FEFF076002480089EB
:1057F00002490880704700001C290020FEFF076056
:1058000003B5BDF80000024A1080901C01800CBD59
:10581000FEFF076008B500231A4665496548FCF796
:105820008DFA6548808845F21051884239D1624826
:10583000428801880020FFF771FE5F484288018896
:105840000020FFF781FE5C48807998B940F2B310E0
:1058500000234FF4F072194600901846FDF7C0FB84
:1058600040F21F300023421C194600900120FDF732
:10587000B7FB9BE00620FDF7B9FC40F2B310002314
:105880004FF4F072194600901846FDF7A9FB40F25C
:105890001F300023421C194600900120FDF7A0FB99
:1058A00084E04548808845F21031884205D042485E
:1058B000808846F6040188423BD13F4842880188EF
:1058C0000020FFF72BFE3C48428801880020FFF7AC
:1058D0003BFE39488079A0B9E22040F65B734FF473
:1058E000A072002100900846FDF77AFBC42040F624
:1058F000ED634FF4F072002100900120FDF770FB82
:1059000054E00620FDF772FCE22040F65B734FF492
:10591000A072002100900846FDF762FBC42040F60B
:10592000ED634FF4F072002100900120FDF758FB69
:105930003CE02148428801880020FFF7EFFD1E4827
:10594000428801880020FFF7FFFD1B488079B8B925
:105950000120FDF74BFC40F63F700090164802888E
:105960009B2300210846FDF73BFB40F65F7000904B
:1059700011484288BC2300210120FDF731FB15E0CE
:105980000720FDF733FC40F63F709B23F0220021F7
:1059900000900846FDF724FB40F65F70BC234FF4EF
:1059A000A072002100900120FDF71AFB08BD000045
:1059B0002C630108F86101081C29002010B503467A
:1059C0001446012901D1002010BD4FF0FF3200BF65
:1059D00000BF1046F8E700002DE9FF4F8DB01746D5
:1059E000674ADDF870901E9E209812681D460024BC
:1059F0008AB11D9B1F98CDE90293CDE90460DDE9D2
:105A00001A03CDE9000314682B463A460D98A047C7
:105A100011B0BDE8F08F0D9A01EB050802EB070C01
:105A2000DDE91A231A43A8F10108ACF1010C012A9F
:105A300006D0C9F108004FF0000B029105909CE0E0
:105A4000504A1268B2F90A40631A002B06DDED1ABB
:105A5000002DDDDD21461D9C03FB0466B2F90E30EE
:105A6000A8EB0303002B02DDED1A002DD0DDB2F907
:105A70000C30ACEB0303002B00DDFF1A0D9B1C1A4E
:105A8000B2F90830A3420DDDA3EB040C0CEB0003CC
:105A9000181A20F007000444A7EB0C0706EBE306F6
:105AA00003F00700002FB3DD1F9BDDF874C0CDE9C4
:105AB000040303968DE82012527C33483B4650F88D
:105AC0002200C26855680A462146A847A0E71B99EC
:105AD0000298084409902B49401E03900A68B2F9C5
